:100000000C94D1020C9409030C9409030C94090379
:100010000C9409030C9409030C9409030C94090330
:100020000C9409030C9409030C943B1D0C94F71CCD
:100030000C94381E0C9409030C9409030C940903C6
:100040000C9409030C9409030C9409030C94090300
:100050000C9409030C94141E0C9409030C940903CA
:100060000C9409030C9409030C9409030C940903E0
:100070000C9409030C9409030C9409030C940903D0
:100080000C9409030C9409030C9409030C940903C0
:100090000C9409030C9409030C9409030C940903B0
:1000A0000C9409030C9409030C940903050109023B
:1000B000A10185020901A1000509190129081500FE
:1000C0002501950875018102050109300931158165
:1000D000257F95027508810609381581257F9501D0
:1000E00075088106050C0A38021581257F95017572
:1000F000088106C0C005010980A101850319012AF4
:10010000B700150126B700950175108100C0050CD8
:100110000901A101850419012AA002150126A002E6
:10012000950175108100C005010906A1018506052C
:100130000719E029E71500250195087501810205D9
:1001400007190029EF1500250195F07501810205B9
:10015000081901290595057501910295017503910D
:1001600001C00660FF0961A1010962150026FF00B8
:100170009520750881020963150026FF00952075FA
:10018000089102C005010906A101050719E029E748
:1001900015002501950875018102950175088101F9
:1001A0000507190029FF150026FF0095067508812F
:1001B000000508190129059505750191029501753C
:1001C000039101C0000000000000000000000000DA
:1001D000000000000000000000000000000000001F
:1001E00000000000000000007E0F00D4FFFFFFC7EA
:1001F0000000007800000000000000002A2B28000A
:1002000000000000000000000000000000000029C5
:10021000000000002C1E3420212224342627252E05
:10022000362D3738271E1F2021222324252633333D
:10023000362E37381F0405060708090A0B0C0D0E69
:100240000F101112131415161718191A1B1C1D2F35
:100250003130232D350405060708090A0B0C0D0E55
:100260000F101112131415161718191A1B1C1D2F15
:100270003130354C1E0F056432141E140A0500017E
:100280000101010101010101020202020202020256
:100290000203030303030303030404040404040428
:1002A00005050505050606060606070707070708EC
:1002B000080808090909090A0A0A0B0B0B0C0C0C9F
:1002C0000D0D0D0E0E0E0F0F0F1010111111121239
:1002D00013131414151516161717181819191A1AB6
:1002E0001B1B1C1D1D1E1E1F202021222223242417
:1002F000252626272829292A2B2C2D2D2E2F303153
:100300003232333435363738393A3B3C3D3E3F4064
:100310004142434445464748494A4C4D4E4F50514F
:100320005354555658595A5B5D5E5F616264656609
:1003300068696B6C6D6F7072737577787A7B7D7E90
:100340008082838587888A8C8E8F91939596989AE0
:100350009C9EA0A2A3A5A7A9ABADAFB1B3B5B7BAF8
:10036000BCBEC0C2C4C6C9CBCDCFD1D4D6D8DBDDCC
:10037000DFE2E4E7E9EBEEF0F3F5F8FAFDFF222324
:10038000252628292A2C2D2F3032333536383A3B72
:100390003D3E4042434547494A4C4E5051535557C4
:1003A000595A5C5E6062646668696B6D6F717375E3
:1003B00077797B7D7F81838587898A8C8E909294E3
:1003C00096989A9C9E9FA1A3A5A7A8AAACAEAFB1F0
:1003D000B3B4B6B8B9BBBCBEBFC1C2C3C5C6C7C93A
:1003E000CACBCCCDCED0D1D2D2D3D4D5D6D7D7D8F4
:1003F000D9D9DADADBDBDBDCDCDCDCDCDDDDDDDD46
:10040000DCDCDCDCDCDBDBDBDADAD9D9D8D7D7D64D
:10041000D5D4D3D2D2D1D0CECDCCCBCAC9C7C6C504
:10042000C3C2C1BFBEBCBBB9B8B6B4B3B1AFAEAC4A
:10043000AAA8A7A5A3A19F9E9C9A98969492908EF5
:100440008C8A89878583817F7D7B79777573716FCE
:100450006D6B6968666462605E5C5A5957555351AA
:10046000504E4C4A4947454342403E3D3B3A383660
:10047000353332302F2D2C2A29282625232200001F
:100480001A0008001C00180013002A00290014009C
:10049000150017000C0012000000000016000700F5
:1004A0000B000D00330028002B00040009000A0097
:1004B0000E000F00000000001B00060011001000DD
:1004C000E5002152E1001D0019000500360037004B
:1004D00000000000E200E3002C00E7000000000044
:1004E0000000E0002C002C00E600E40000000902FF
:1004F0005B00030100A0FA090400000103010100F0
:1005000009211101000122400007058103080001B3
:100510000904010002030000000921110100012269
:1005200022000705820320000107050303200001C4
:100530000904020001030000000921110100012249
:10054000B60007058403200001120100020000002C
:10055000084456494D0001010200011A0356006982
:10056000006B0074007500730020004D0069006E80
:10057000006E00650000002403560069006B0074E3
:100580000075007300200044006500730069006777
:10059000006E0020004C004C0043000000040309E2
:1005A000040011241FBECFEFDAE0DEBFCDBF04B6DA
:1005B00003FE18C08091040390910503A0910603E7
:1005C000B09107038730904BA740B04B59F410927D
:1005D0000403109205031092060310920703E0E053
:1005E000F8E3099523E0A8E7B1E001C01D92A4302B
:1005F000B207E1F711E0A0E0B1E0E2ECFBE402C0F9
:1006000005900D92A837B107D9F70E945F1E0C9490
:1006100078250C940000482F209100039091C70288
:1006200057E0291302C080E0089530E0529FF001A6
:10063000539FF00D1124E853FD4F8181681306C0CC
:100640008081481303C085818111EECF2F5F3F4F1A
:100650002770E7CFE8EDF0E080818E7F80831092F5
:10066000E2001092DA001092E100A0EEB0E08C916E
:1006700081608C9380818F77808319BCA7EDB0E077
:100680008C918E7F8C9380818F7E808310929802D4
:1006900008952091E4003091E50095E6A9012091AC
:1006A000EC00822F817020FF06C08091E80080FF5F
:1006B00006C080E008952091E80022FD1AC08091D4
:1006C000BD02882389F0853089F08091EB0085FD9B
:1006D0000FC02091E4003091E50042175307F9F272
:1006E0009150E1F684E0089582E0089583E0089552
:1006F00081E008958091BF0287FF13C08091E800D8
:1007000082FF06C08091E8008B778093E80004C0E8
:100710008091BD028111F2CF08958091BD0288239E
:10072000D9F38091E80080FFF8CF8091E8008E77C0
:10073000ECCF982F9093E900242F762F50E0891763
:1007400031F07091EC002091ED005091F00021FD0E
:1007500007C09F5F973071F78093E90081E00895AB
:100760003091EB003E7F3093EB003091ED003D7F08
:100770003093ED003091EB0031603093EB007093DB
:10078000EC002093ED005093F0002091EE0027FD47
:10079000E0CF80E00895B0E0A0E0E1EDF3E00C945C
:1007A000E423C8EDD0E088818F7E8883E7EDF0E018
:1007B00080818160808384E082BF81E080939802A1
:1007C00088818E7F888302EE10E0F80110821092FB
:1007D000DA0081EEC82ED12CF601108288818F7745
:1007E000888388818068888388818F7D888319BC0D
:1007F0001092BD021092BE021092BC021092BB0277
:1008000090EEE92EF12CF70180818B7F8083888127
:100810008160888342E060E080E00E949903F601F5
:1008200080818E7F8083F8018081816080838081D8
:1008300088608083F70180818E7F808388818061DA
:100840008883CDB7DEB7E8E00C940024FC018091EA
:10085000C5029091C60286179707A0F06115710531
:1008600029F49091E8009E779093E80090E061155C
:10087000710551F4911108C08091E80082FF34C0E5
:1008800080E00895BC01F2CF8091BD028823C1F1C0
:100890008530C1F18091E80083FD30C08091E8008F
:1008A00082FDEACF8091E80080FFE1CF8091F300E4
:1008B0002091F200382F6115710519F028303105AB
:1008C00058F091E02830310509F090E02091E800DF
:1008D0002E772093E800CBCF81918093F100615077
:1008E00071092F5F3F4FE7CF8091BD02882341F010
:1008F000853041F08091E80083FFBECF81E008950C
:1009000082E0089583E0089580919A0208959C0101
:100910004FB7F8948091920290919302A091940223
:10092000B09195024FBF821B930B08952FB7F89497
:100930008091920290919302A0919402B0919502BD
:100940002FBF089520910D012223C9F02091960216
:1009500027FF15C0E62FE695E695E695EE31D8F42B
:10096000E80FF92FF11D677021E030E001C0220F80
:100970006A95EAF720958281282322830895FC0155
:10098000329608962191621303C0DF0111971C92E1
:10099000E817F907B9F7089520910D012223C1F056
:1009A0002091960227FF14C0E62FE695E695E6957E
:1009B000EE31F8F4E80FF92FF11D677021E030E017
:1009C00001C0220F6A95EAF78281822B8283089503
:1009D000FC0132962FEF30E04191641751F02F3F28
:1009E00019F4411101C0232F3F5F3630A9F72F3F83
:1009F00009F40895820F911D27FD9A95FC016283E9
:100A00000895A3E0B0E0E7E0F5E00C94EA2320913C
:100A10008F023091900228173907A1F0909390022D
:100A200080938F02E0918D02F0918E02309751F009
:100A300024E029839B838A830680F781E02DCE0101
:100A4000019609952396E2E00C940624A3E0B0E019
:100A5000ECE2F5E00C94EA2320918B0230918C02B9
:100A600028173907A1F090938C0280938B02E091B4
:100A70008D02F0918E02309751F023E029839B8301
:100A80008A830680F781E02DCE0101960995239691
:100A9000E2E00C940624E0918D02F0918E023097F2
:100AA00029F00190F081E02D0995089580E00895E6
:100AB000FA01811101C0FB01099508950895809103
:100AC0008302982F9E7F61F48170826080938302FD
:100AD00080918602803C18F08FEB80938602089507
:100AE0008432B0F381708262F1CFAF92BF92DF9215
:100AF000EF92FF920F931F93CF93DF93082F162F40
:100B0000E901E42FF0E0E258FD4F611110C0E491DB
:100B10005E2F4E2F4983E8835A83DF91CF911F9137
:100B20000F91FF90EF90DF90BF90AF900895E62E69
:100B3000F12C4491D42EE42FF0E026E0829FC001F6
:100B400011242FEF30E0B9010E94A523802F90E0FF
:100B5000880F991F55E5569FD001579FB00D11245E
:100B60008A1B9B0B982F990F890F5901AE18BF084C
:100B7000AE9ED001AF9EB00DBE9EB00D11245B2F76
:100B8000189F80011124012F11275901A01AB10AC1
:100B9000AE9E8001AF9E100DBE9E100D1124590116
:100BA000A81AB108AE9CC001AF9C900DBE9C900DE0
:100BB0001124892F9927281B390B2E9FC0012F9FA5
:100BC000900D3E9F900D1124E92F62307105A1F028
:100BD00050F46115710509F49DCF6130710581F004
:100BE000EB2F512F97CF6430710569F080F066309C
:100BF000710509F48FCFF4CFE42F4B2F592F8ACFF3
:100C0000E42F412F87CFEB2F542F492F83CF4B2F2A
:100C10005D2DE12F7FCF0E9496049C0190910702E9
:100C200080910802982B21F0309304022093030254
:100C30009091090280910A02982B21F030930202D0
:100C400020930102E0918D02F0918E02309749F0DD
:100C500082E0809305020480F581E02D85E092E03A
:100C6000099508958091000280FD16C081FD16C08F
:100C700082FD16C08091FF018823A1F0883280F4A4
:100C800028E0829FC001112468E270E00E94B9232D
:100C9000862F672B39F0089582E0089584E0089547
:100CA00088E0089581E008958091000280FD14C0DD
:100CB00081FD14C082FD16C08091FE01882381F061
:100CC0008E3180F420E5829FC00111246EE170E036
:100CD0000E94B923862F089584E1089588E208953B
:100CE00088E0089580E5089580E00895F894E82F5D
:100CF000E295EF70F0E031A1282F2F7081E090E0B5
:100D000001C0880F2A95EAF7982F9095932391A315
:100D100092A1892B82A3789408959091960292FFD4
:100D200006C0282F28712830F9F4877F846093FF4C
:100D300006C0282F28712831F1F4877E8461209124
:100D4000970220FF06C0382F38713830D9F4877FDA
:100D5000816021FF06C0282F28712831D1F4877EB9
:100D6000816194FD877E0895282F24712430F9F63F
:100D70008B7F8860DCCF282F2471243101F78B7E94
:100D80008861DDCF382F3171313019F78E7F88605F
:100D9000E0CF282F2171213121F78E7E8861E1CFAC
:100DA00082389105B9F1B0F48133910509F47DC021
:100DB00048F48932910509F46DC08A32910509F42D
:100DC0007BC008958533910509F45FC0893391058F
:100DD00009F10895833E9105D9F138F4803E9105DB
:100DE00029F1823E910579F10895863E9105D9F168
:100DF000873E910509F43EC0843E910541F520915E
:100E0000970221FF24C08091960284FD19C087EECD
:100E100090E0089520919602237009F05AC0209125
:100E2000970223FF14C089E290E008952091960272
:100E300020FD38C03091970230FF09C024FF43C025
:100E400090E080E008952091960222FDF7CF08956A
:100E50002091960222FD3AC03091970230FD39C0B0
:100E600024FFF5CFEDCF2091960223FFF0CF24FD94
:100E7000E7CFCDCF2091960223FD2EC0309197026F
:100E800031FFEECF84EE90E008952091960225FF89
:100E9000DECFC9CF2091960225FD21C02091970277
:100EA00023FFD5CF89E390E0D2CF2091960226FF91
:100EB000CECF8AE290E008952091960226FFC7CF18
:100EC00081E390E0089583EE90E0089582EE90E053
:100ED000089580EE90E0089586EE90E0089585E311
:100EE00090E008951F93CF93DF930E94D006EC010A
:100EF000C11580E5D807F0F5C11580E4D80708F0E2
:100F00009CC0C03ED10520F5CD3CD10508F082C083
:100F1000C83AD10578F4C53AD10508F073C0C1309C
:100F2000D10519F1209709F1C430D105F0F4D0E0D2
:100F3000C0E01BC0C33CD105D0F7C85AD0E0CC0FED
:100F4000DD1FCF5EDE4F0990D881C02DD4640DC067
:100F5000C11580E2D80708F0D1C0C11581E0D807DB
:100F600008F05AC0C83ED10510F7CE01DF91CF91ED
:100F70001F910895C03682E5D80718F5C03482E580
:100F8000D80708F06BC0C03282E5D80708F05FC010
:100F9000C11582E5D80708F497C02C2F2695269511
:100FA00080E2289F900111248C2F8370C1E0D0E053
:100FB00002C0CC0FDD1F8A95E2F7C22BD32BDD6870
:100FC000D4CFC03A82E5D80760F4C03882E5D807AC
:100FD00008F459C0CF71D0E0DC2FCC27C46FD06AA1
:100FE000C4CFC03C82E5D80708F462C0C03E82E5A9
:100FF000D80708F09CCFDC2FCC27CC27DF71C06F3F
:10100000D06AB3CFC55AD0E0C25FDE4FC881D0E00E
:10101000D064ABCFD065A9CF8D2F0E948D06182F3D
:10102000CE0199270E94D006C12FD0E0DC2FCC271B
:10103000CC27DF71C82BD92B98CFCE0199270E94DE
:10104000D006CC27DF70C82BD92BD06A8ECFCF71BA
:10105000D0E0DC2FCC27C16FD06A87CF2C2F26950C
:101060002695277080E2289F900111248C2F837091
:10107000C1E0D0E002C0CC0FDD1F8A95E2F7C22BA1
:10108000D32BDC6872CF2C2F26952695277080E213
:10109000289F900111248C2F8370C1E0D0E002C002
:1010A000CC0FDD1F8A95E2F7C22BD32BDA685DCF18
:1010B0008C2F8F710E948D06C82FD0E0DC2FCC279B
:1010C000CC27DF71D06251CF8C2F8F710E948D069B
:1010D00055E0D695C7955A95E1F7CF70D0E0DC2F53
:1010E000CC27282F30E084FF05C044E0220F331FB7
:1010F0004A95E1F7C22BD32BD06937CF8D2F8F7153
:101100000E948D06182FCE0199270E94D006C12F6C
:10111000D0E0DC2FCC27CC27DF71C82BD92BD2CF46
:1011200080959091DB0198239093DB010895809145
:1011300000039091C702981301C008958F5F8770D4
:10114000FACF292F983078F5873068F590E037E0AE
:10115000239F800D911D1124682F677023E09695C1
:1011600087952A95E1F7FC01EE0FFF1FE80FF91FA5
:10117000E456FE4F50E040E080E0219130E0062E42
:1011800002C0369527950A94E2F721703327042E82
:1011900001C0220F0A94EAF7822B4F5F5F4F433062
:1011A000510559F7089580E00895292F983098F552
:1011B000873088F590E037E0239F800D911D112442
:1011C000282F277041E001C0440F2A95EAF723E059
:1011D000969587952A95E1F7FC01EE0FFF1FE80F22
:1011E000F91FE456FE4F30E020E070E05191DF013E
:1011F0001197CB01022E02C0969587950A94E2F7CB
:10120000817081958527842385278C932F5F3F4F9D
:101210002330310559F708958093EA01089590919C
:10122000EA0121E030E0F90101C0EE0F8A95EAF70A
:10123000D90102C0AA0FBB1F6A95E2F7EA2B01C0D1
:10124000220F4A95EAF7892F8E23E81305C0292B30
:10125000822F0E940C09089520952923F9CF21E0BF
:1012600030E001C0220F8A95EAF720958091EA01CB
:1012700082230E940C0908959091B80180958923DA
:101280008093B801282F277069F4891759F090913D
:10129000970292FF07C08695869586950E942F0932
:1012A0001092B801089521E030E001C0220F8A9524
:1012B000EAF78091EA01822B0E940C09089580933D
:1012C000DC010895662309F45DC08D3C41F40E9461
:1012D00054068195809308020E940B0608958E3C67
:1012E00019F40E945406F6CF8F3C31F40E94540644
:1012F000819580930702F0CF803D19F40E94540637
:10130000F8CF893D29F40E94320680930902E4CF88
:101310008A3D21F40E9432068195F7CF8B3D31F44E
:101320000E943206819580930A02D6CF8C3D19F433
:101330000E943206F8CF9FE2980F983070F4815DDA
:10134000990B21E030E001C0220F8A95EAF78091E5
:101350000602822B80930602BFCF8D3D31F480912F
:101360000002816080930002B7CF8E3D21F480910E
:1013700000028260F7CF8F3D09F0AECF809100026E
:101380008460F0CF409107028D3C59F480910802AF
:1013900087FF0DC01092080241110BC01092FE0190
:1013A00008C08E3C81F48091080218169CF34423F7
:1013B00081F08091090290910A02892B09F08CCF6B
:1013C0001092FF0189CF8F3C49F447FFF0CF109274
:1013D0000702809108028111ECCFE0CF803D19F423
:1013E0001416ACF3E4CF90910902893D29F4191643
:1013F000F4F610920902DBCF8A3D19F497FFD7CF9C
:10140000F8CF90910A028B3D29F497FFD0CF10922C
:101410000A02CDCF8C3D19F41916CCF3C8CF9FE248
:10142000980F983090F4815D990B21E030E0B9017C
:1014300002C0660F771F8A95E2F7CB0180959091E5
:101440000602892380930602B2CF8D3D31F480914C
:1014500000028E7F80930002AACF8E3D21F48091FE
:1014600000028D7FF7CF8F3D09F0A1CF8091000260
:101470008B7FF0CF0F931F93CF93DF938B01EA0104
:101480009091BD02943061F58093E9008FEF9091C7
:10149000E800815095FD06C095ED9A95F1F70000A2
:1014A0008111F5CF8091E80085FF1AC00E944903A1
:1014B000811111C08091E80085FD06C08091E8008F
:1014C0008E778093E800F2CFF80181918F018093AD
:1014D000F100219779F78091E8008E778093E800FA
:1014E000DF91CF911F910F91089543E050E0BC012F
:1014F00084E00E943A0A089546E050E0BC0184E08E
:101500000E943A0A0895CF93DF93EC0180910D0178
:10151000811111C048E050E0BE0181E00E943A0A0A
:1015200080E2FE01ABE9B2E001900D928A95E1F70D
:10153000DF91CF9108958091960287FF05C040E228
:1015400084E050E0BE01EACF48E081E0FACF81E0DC
:101550008093E00080E28093D8001092C9008FE170
:101560009EE40197F1F700C0000087E090EBDC01FA
:101570008093040390930503A0930603B09307039D
:1015800088E19CE00FB6F894A895809360000FBEA8
:1015900090936000FFCF8091830280FD0AC0E3E159
:1015A000F2E0118210821282339652E0ED33F50799
:1015B000C1F7869A31B33F7B21B320644FB7F894CB
:1015C00083E192E0FC015191CF0168E021BB000072
:1015D00000C057FF31BB550F000000C000C000C065
:1015E00031BB00C06A9591F7F2E08D339F0751F748
:1015F0004FBF8FE594E00197F1F700C00000089518
:10160000EF92FF921F93CF93DF93EC0183E1E82EDB
:1016100082E0F82E10E040918602403C08F04FEB4B
:101620008C81970160918502810F0E9475051E5E75
:1016300083E0E80EF11C1C3F71F70E94CB0A9A81EF
:101640008C8190FF08C08F5F8C83DF91CF911F91B9
:10165000FF90EF9008958150F7CF9091830290FF13
:101660000CC0E3E1F2E0818360834283339692E031
:10167000ED33F907C1F70E94CB0A0895A3E0B0E06B
:10168000E4E4FBE00C94E8238C01DC011496EC917B
:10169000F0E0E258FC4F44918091830280FF11C03A
:1016A000403C08F04FEB9E012F5F3F4F6091850259
:1016B000809184020E9475054B8169818A810E9414
:1016C0002D0BF80184818F5F84832396E4E00C94D2
:1016D0000424CF93DF93C9EED1E060E0CE010E94F5
:1016E000E1242196C11584E0D807B9F7DF91CF91A5
:1016F00008951F93CF93DF93122F8430E0F4683066
:10170000D0F44730C0F4C42FD0E0CC0FDD1F9EE0F2
:10171000699FC00DD11D112490E7899FC00DD11D77
:101720001124632FCE0189960E94E124612FCE01FE
:101730008A960E94E124DF91CF911F910895B0E035
:10174000A0E0E5EAFBE00C94E42310E000E08EE783
:10175000E82E84E0F82EC0E017C001151105B9F499
:10176000F601259134914D2F6C2F80E00E94790B6A
:1017700082E0C80ED11CDF5FD73079F7CF5F8EE0F3
:10178000E80EF11CC83049F06701D0E0E6CF21E057
:1017900030E04D2F6C2F802FE9CF0F5F1F4F0430AB
:1017A0001105A9F6CDB7DEB7E8E00C940024CF937D
:1017B000C82F6FEF811163E285E290E00E94E1247F
:1017C0006FEFC11166E086E290E00E94E1246FEFC6
:1017D000C11161E187E290E00E94E124CF91089578
:1017E00080E00E94D70B60E088E290E00E94E12454
:1017F0000E949F0B0E94690B81E00E94D70B089505
:101800000F931F93CF93DF93843030F5683020F52A
:10181000473010F5C42FD0E0CC0FDD1F2EE0629FC3
:10182000C00DD11D112430E7839FC00DD11D11249F
:10183000CE0189960E94BD24082F10E0102F0027AA
:10184000CE018A960E94BD249801282BC901DF9100
:10185000CF911F910F91089590E080E0F8CF462F2F
:10186000783040F4673030F4843020F4672F0E94E1
:10187000000C089590E080E00895CF92DF92FF92EF
:101880000F931F93CF93DF936C010091EA01809136
:10189000DC01082BC3E0D0E010E0FC2EC8010C2EC8
:1018A00002C0959587950A94E2F780FD0CC02197B8
:1018B000A0F7F12C8F2DDF91CF911F910F91FF9009
:1018C000DF90CF900895B6018C2F0E942F0C0E94BC
:1018D0007207019761F3EECFCF93DF93EC010E9483
:1018E0003D0CBE010E942F0C0E947207DF91CF9128
:1018F0000895FC0124812223C1F0808191810E94FE
:101900006C0C92959F70963091F058F4925F9F7096
:10191000923058F4803F19F030F4883E30F481E082
:1019200008959A5FF4CF843FD1F380E00895883E14
:10193000B0F3813FD1F7F3CFA6E0B0E0E2EAFCE0FC
:101940000C94E92349835A8349815A819923A1F050
:10195000222391F0CA010E943D0C182F682F898123
:101960009A810E94D50869817A81812F0E942F0C6B
:101970002696E3E00C940524CA010E94A108182FC2
:10198000F2CF85E290E00E94BD24833289F486E2A2
:1019900090E00E94BD24863059F487E290E00E94D6
:1019A000BD2491E0813109F090E0892F8170089584
:1019B00080E0FCCFB0E0A0E0E0EEFCE00C94DC23A3
:1019C000FC016280448081E08483EEE7F3E0749060
:1019D000EDEFF3E0E491009186020695015810E0E6
:1019E000000F111F012F1127CDE3D2E023E1C22EFA
:1019F00022E0D22E33E8832E32E0932EAA24AA943A
:101A0000B12C55245A94E719EE2EF12C82E086155C
:101A100030F080918402888380918502898341100F
:101A200019C01B821A824A81403C08F04FEB960194
:101A3000698188810E947505259683E0C80ED11CB6
:101A40008C169D0619F70E94CB0ACDB7DEB7E0E1F0
:101A50000C94F8238B818823E9F081508B83859D3A
:101A6000C00111246C8170E00E94A523FB01FF27B7
:101A7000E258FC4F8491E82FE719E59DC00111243D
:101A8000B7010E94A52380918602689FB0011124AE
:101A90007A83C9CF0E949324B5010E94B92380178D
:101AA00091070CF0C0CF82E0861588F40E94932441
:101AB000B5010E94B92388830E9493242091850256
:101AC0002695622F70E00E94B923280F29831A827D
:101AD00080918602893C20F088EC8C838B83A3CF95
:101AE0008431D8F784E1F9CFB0E0A0E0EAE7FDE087
:101AF0000C94E02349015A016B017C010E945F05AF
:101B00008401A4016A2D7B2D88E090E00E94F324DB
:101B100094014A2D5B2DB601C70100E20E942C24DE
:101B2000622F84E290E00E94E124CDB7DEB7ECE0C2
:101B30000C94FC23A3E0B0E0E0EAFDE00C94E62383
:101B4000082FF62E142FE22E8091830280FF31C0E1
:101B5000E82FE695F0E0EA5AFE4F9081909311024B
:101B60008E7F823051F5403C08F04FEB9E012F5F95
:101B70003F4F6F2D802F0E9475054B8169818A81AF
:101B80000E942D0B00938402F0928502109386022E
:101B9000EE2079F020918302609187027091880293
:101BA000302F4F2D512F8091890290918A020E94EF
:101BB000740D2396E6E00C940224923019F41091EF
:101BC0008602E0CF9630F1F600918402DBCFE3E8A5
:101BD000F2E0438121E1421B08F440E021E0628110
:101BE00081810E949A0D0895E3E8F2E0438121E1AA
:101BF000420F08F44FEF21E0628181810E949A0D2B
:101C00000895E3E8F2E0628121E1621B08F460E0FC
:101C100021E0438181810E949A0D0895E3E8F2E07A
:101C2000628121E1620F08F46FEF21E0438181813D
:101C30000E949A0D0895E3E8F2E0818121E043815A
:101C4000628188500E949A0D0895E3E8F2E0818154
:101C500021E043816281885F0E949A0D08958091FE
:101C60008702882319F08150809387022091830294
:101C700030918402409185025091860260918702E2
:101C8000709188028091890290918A020E94740D5D
:101C9000089580918702833018F48F5F80938702C4
:101CA00020918302309184024091850250918602F6
:101CB00060918702709188028091890290918A02D6
:101CC0000E94740D08959091830290FF34C091702A
:101CD000811132C0926090938302662391F020912B
:101CE0008302309184024091850250918602609176
:101CF0008702709188028091890290918A020E94E5
:101D0000740D60918302669570E041E050E08CE0D4
:101D100091E00E94A324892BB1F01092120281E07D
:101D200080930E0220E040918602609185028091AE
:101D300084020E949A0D0895823110F09262CBCFF6
:101D4000880F982BC8CF81E0809312020E949604DE
:101D500090930C0280930B02E2CF809183028695D0
:101D6000815009F481E161E00E94630E0895809141
:101D7000830286958F5F823108F081E061E00E94E6
:101D8000630E08959091830290FF08C0969598176E
:101D900028F0961718F40E94B70E089561E00E948B
:101DA000630E0895E3E8F2E083E0808311828FEF11
:101DB00082838FEB83831482758123E030E04FEFC1
:101DC0005FEB60E0868197810E94740D0895809199
:101DD000DB019091DA01892B80937A019091D901EE
:101DE0009923A1F0892B80937A0180910D0188239A
:101DF000E1F18091960287FF38C08EE1ECE7F1E0D7
:101E000090E08150A0F591111092D90140E250E08C
:101E100069EB71E08AE791E00E94B024892B21F1FF
:101E200080E2EAE7F1E0A9EBB1E001900D928A953A
:101E3000E1F7E0918D02F0918E023097A9F0809148
:101E40000D01882359F08091960287FF07C0809189
:101E50007A0180937B0186E080937A010280F3818E
:101E6000E02D8AE791E00995089586E0C7CF21919A
:101E7000222339F29F5FC5CF882321F00E9490086A
:101E80000E94E70E0895882339F09091DB01982B8A
:101E90009093DB010E94E70E0895882399F19CEF4F
:101EA000980F913A40F4682F8AE791E00E94A204CB
:101EB0000E94E70E089590E2980F983050F48770D2
:101EC00091E001C0990F8A95EAF7892F0E94900846
:101ED000EFCF9BE5980F933028F490E080E00E94CC
:101EE0002605089598E5980F9B3128F490E080E04E
:101EF0000E940105089593E3980F933118F460E070
:101F00000E9462090895CF93C82F8823D9F18CEFDE
:101F10008C0F813AC8F580910D01882311F18091D1
:101F2000960287FF1EC0EC2FE695E695E695F0E059
:101F3000E658FE4F828190E04C2F477021E030E060
:101F400002C0220F331F4A95E2F782239323892B85
:101F500091F06C2F8AE791E00E94A2040E94E70EA4
:101F60000AC0ECE7F1E082E891E02191C21789F321
:101F70008E179F07D1F76C2F8AE791E00E94CC045F
:101F80000E94E70ECF91089580E28C0F883068F4AC
:101F9000C77021E030E001C0220FCA95EAF78091B6
:101FA000DB01822B8093DB01EBCFEBE5EC0FE33021
:101FB00040F4F0E0E25FFE4F808190E00E94260551
:101FC000E1CFE8E5EC0FEB3150F4F0E0EE0FFF1F4E
:101FD000EF5EFE4F808191810E940105D3CF83E3A4
:101FE0008C0F833178F661E08C2F0E946209CACF92
:101FF0001F93CF93DF93182FD0E0C0E0893311F403
:10200000C0E5D0E0812F0E94830F209739F4812F03
:102010000E944D0FDF91CF911F9108958FE99FE0AE
:102020000197F1F700C000002197EFCF0F931F93A6
:10203000CF93DF93C62FD42F022FFC0185818823F5
:10204000A9F0609303030E94960490930203809387
:102050000103C77081E001C0880FCA95EAF70E94AA
:10206000430FDF91CF911F910F910895809103034A
:10207000681332C080910103909102030E9487048B
:10208000883C910548F510E21D0FCD17B9F080E2AC
:102090008C0F883040F4C77081E001C0880FCA956A
:1020A000EAF70E943C0F183048F481E09D2F9770AA
:1020B00001C0880F9A95EAF70E94430F802F0E9473
:1020C000F80F183070F6D77081E001C0880FDA95EC
:1020D000EAF70E943C0FC5CFC77081E001C0880FAE
:1020E000CA95EAF7F6CF9091970292FB222720F942
:1020F000281779F080FB92F99093970260919602ED
:102100007091970284E090E00E94FF2482E00E9498
:102110003C09089590E080E00E94CB24863E9E4FCB
:1021200019F40E94C10C089580E008951092DB011B
:1021300080910D01ECE7F1E0882329F1809196026E
:1021400087FF21C08EE1DF011D928A95E9F790E0BB
:1021500080E00E94260590E080E00E940105109238
:10216000DA010E94E70E86E0E5E0F2E0DF011D9271
:102170008A95E9F71092FE011092FF011092000279
:102180000E940B06089586E0DECFAAE2B0E0EBECF9
:10219000F0E10C94E9238FEB92E02091F100DC0157
:1021A0002D93CD01B2E0873C9B07B9F78091C00227
:1021B000833009F472C0B8F4813009F449C0823028
:1021C00009F4B3C08091E80083FF8BC28091BF0205
:1021D0009091C0029A3008F084C2E92FF0E0E658EE
:1021E000FA4D0C94CD238A3009F48EC08B3009F45B
:1021F00071C0893039F78091BF02813219F780911F
:10220000C3029091C402009711F00297D9F6809111
:10221000E800877F8093E8008091E80082FF38C063
:102220009091F3008091F200029731F48091F100D7
:10223000813011F0863021F48091F10080939A0270
:102240008091E8008B778093E8000E947A03BACFF0
:102250008091BF02813A09F0B5CF8091E800877F75
:102260008093E8008091C3029091C402892B61F4AD
:1022700060E28BE992E070E00E9426048091E80021
:102280008B778093E8009ECF60E090E080E0F3CF12
:102290008091BD028111C0CF95CF8091BF02813A5C
:1022A00009F090CF8091C3029091C402892B09F06C
:1022B00089CF8091E800877F8093E8008091E800D3
:1022C00080FFFCCF80910D018093F1008091E800A8
:1022D0008E77B9CF8091BF02813209F073CF8091A0
:1022E000C3029091C402892B09F06CCF8091E80061
:1022F000877F8093E8000E947A038091C1028093D7
:102300000D010E9496105ECF8091BF02813209F0CC
:1023100059CF8091E800877F8093E8000E947A037C
:102320008091C202809399024DCF8091BF02813A81
:1023300009F048CF8091E800877F8093E800809182
:10234000E80080FFFCCF80919902BECF803899F0E1
:10235000823809F0C6C18091C3028F70873008F0BF
:10236000C0C18093E9008091EB0085FB882780F94C
:102370001092E90006C08091BB029091BC029111BD
:1023800082609091E800977F9093E8008093F1003D
:102390001092F1008091E8008E779FC1882309F4A4
:1023A0008DC1823009F09DC18091C102811190C11F
:1023B0008091C3028F702FEF280F263008F091C153
:1023C0008093E9002091EB0020FF82C1933031F42B
:1023D0008091EB0080628093EB007AC19091EB00DA
:1023E00090619093EB0021E030E001C0220F8A95CC
:1023F000EAF72093EA001092EA008091EB008860EF
:10240000EACF81116EC11091C1021F778091E30064
:102410008078812B8093E3008091E800877F809310
:10242000E8000E947A038091E80080FFFCCF809151
:10243000E30080688093E30082E0111183E08093E1
:10244000BD024FC18058823008F04BC12091C102BB
:102450003091C2022C3DE3E03E07A1F583E08A8380
:102460008AE289834FB7F894DE01139620E03EE0BC
:1024700051E2E32FF0E050935700E49120FF03C0B6
:10248000E295EF703F5FEF708E2F90E0EA30C0F082
:10249000C7968D939D932F5F243159F74FBF80913D
:1024A000E800877F8093E8006AE270E0CE01019641
:1024B0000E9426048091E8008B778093E80011C188
:1024C000C096E7CF8091C3029091C402432F552755
:1024D0004330510509F44AC078F54130510509F4FB
:1024E0007AC08BE590E0EEEEF4E04230510509F061
:1024F000F8C02091E800277F2093E8002091C502D2
:102500003091C6028217930708F49C0140E0211520
:10251000310509F065C0411163C08091E80082FD7A
:10252000C9CF8091BD02882329F2853019F28091AC
:10253000E80083FFF2CFBECF4132510509F43CC021
:102540004232510509F0CDC08330910508F0C9C071
:10255000FC01EE0FFF1FE559FE4F0190F081E02DC9
:1025600088599E4FDC018C9190E01AC033272130AE
:102570003105D1F02115310561F02230310509F026
:10258000B0C0EBE5F5E0E4918E2F90E0EBE5F5E0EF
:1025900007C0EDE9F5E0E4918E2F90E0EDE9F5E07C
:1025A000009709F49EC0A5CFE7E7F5E0E4918E2FF0
:1025B00090E0E7E7F5E0F4CF8330910508F091C0B3
:1025C000880F991FFC01EF58FE4F0190F081E02D1C
:1025D00089E090E08ECF82E190E0E9E4F5E089CFF8
:1025E0008091BD02882309F465CF853009F462CF5C
:1025F0008091E80083FD5ECF8091E80082FD8DCF61
:102600008091E80080FF83CF9091F3008091F200E9
:102610002115310519F08830910550F041E00897F7
:1026200009F040E08091E8008E778093E8006FCF5A
:1026300044914093F1003196215031090196E8CF41
:10264000803809F04EC08091E800877F8093E800D1
:102650008091BE028093F1009DCE811142C0109105
:10266000C1021230F0F58091E800877F8093E80086
:102670001093BE020E947A03112311F084E005C07A
:102680008091E30087FDFACF81E08093BD0242E0B4
:1026900061EC81E00E94990342E261EC84E00E94D7
:1026A000990342E261EC82E00E94990342E260EC0D
:1026B00083E00E9499038091BD0213C08091C10202
:1026C000813079F481E0933009F080E08093BC029E
:1026D0001092E9008091E800877F8093E8000E94D3
:1026E0007A038091E80083FF0AC08091E800877F29
:1026F0008093E8008091EB0080628093EB00AA96C3
:10270000E3E00C9405240E9496102FEF84E39CE0F4
:10271000215080409040E1F700C0000088E19CE03B
:102720000FB6F894A895809360000FBE9093600058
:10273000FFCFA8E0B0E0EFE9F3E10C94DC238C01DB
:10274000DC0114968C911497882309F4B8C021E019
:102750004C9111965C91119712966C911297139669
:102760007C91139715969C910E949C0C7C01F8011A
:102770008581882309F43CC1C701975780389105AA
:1027800008F084C5FFE0FE1508F489C08FEF93E0E0
:102790000E94BD24811183C069EEA62EBB24B39490
:1027A000E11047C0FE01339686E0DF011D928A9555
:1027B000E9F75AE0452E7501BFEFEB1AFB0AC50198
:1027C0000E94BD2489831A82882309F468C081305D
:1027D00009F079C06501E2E0CE0ED11CC7010E946C
:1027E000BD248A83882309F45AC09FEF980F933041
:1027F00070F5F3E0AF0EB11CC6010E94BD248B83BF
:10280000882309F44CC01C82DE0111967D01F7017A
:102810002081222381F2213009F095C091818281AB
:10282000913009F052C0F2E0EF0EF11C0E94F80F57
:1028300053C0A11424E0B20691F1C5010E94BD2449
:10284000811101C0EA943FEFA31AB30AA9CF560140
:102850008430D1F642E0E42EF12C56012FEFA21A7B
:10286000B20AC6010E94BD24E1E0F0E0EC0FFD1FBA
:10287000EE0DFF1D8083882391F08C3741F4E2E058
:10288000F0E0EC0FFD1FEE0DFF1D1082BDCF3FEFFE
:10289000E31AF30A650187E0E816F104F1F6809186
:1028A000B801877061F0D80115968C91882339F0B2
:1028B0008091970282FF03C082E00E943C09289623
:1028C000E0E10C94F82357019FCF923049F422E0C5
:1028D000E20EF11C0E94830FEFEFEE1AFE0A97CF73
:1028E000933031F432E0E30EF11C0E944D0FF4CF2F
:1028F000943021F08FEFE81AF80AEECF92E0E90E5B
:10290000F11C30E020E0B7016F5F7F4FD7011196D7
:102910004C918053990B8A30910550F02150310928
:10292000D8F2EFE9FFE03197F1F700C00000F6CFF1
:10293000429EF001439EF00D11249C012E0F3F1F7B
:10294000842F7B01E0CFE22FF0E0EC50FE4F54905B
:10295000822F86958695869590E0FC01EC51FE4F7E
:1029600064902770712C022E02C0759467940A94AB
:10297000E2F731E063227724FC01EC52FE4F8490B1
:10298000912C022E02C0959487940A94E2F7A1E05C
:102990008A229924FC01EC53FE4FC490D12C02C032
:1029A000D594C7942A95E2F7B1E0CB22DD246114D7
:1029B000710419F081EE0E94830F8114910419F0C3
:1029C00086EE0E94830F852D0E94F80F81149104DA
:1029D00019F086EE0E944D0F6114710419F081EE1A
:1029E0000E944D0FC114D10409F476CF8CE21ECFA2
:1029F000F701E851FC47E730F10508F033C4EC5724
:102A0000FA4D0C94CD2326E241EE61EEC8010E94FE
:102A1000161045CF27E245EE65EEF8CF26E241EEEF
:102A200060EEF4CF27E245EE64EEF0CF26E241EE11
:102A300062EEECCF27E245EE66EEE8CF28E241E019
:102A4000EBCF8091960281608093960295C0809131
:102A500097028860809397028FC08091960282606F
:102A6000F3CF809196028460EFCF809196028860C8
:102A7000EBCF809197028160EDCF809197028260C9
:102A8000E9CF809196028061DFCF809196028062CB
:102A9000DBCF809196028064D7CF0E949610809100
:102AA00096028068D1CF809196028C60CDCF8091C4
:102AB00097028360CFCF809196028E7FC5CF8091A1
:102AC0009702877FC7CF809196028D7FBDCF80917F
:102AD00096028B7FB9CF80919602877FB5CF809188
:102AE00097028E7FB7CF809197028D7FB3CF809171
:102AF00096028F7EA9CF809196028F7DA5CF80917F
:102B000096028F7BA1CF0E949610809196028F77BC
:102B10009BCF80919602837F97CF809197028C7F85
:102B200099CF8091960282FB992790F921E0922714
:102B300090FB82F990FB83F987CF80919702982FC1
:102B4000909591708E7F892B90FB81F983CF909126
:102B50009602892F8F7B96FF806476CF0E94961015
:102B600090919602892F97FB87F980586DCF61E08D
:102B70008EE090E00E94E1246091960270919702AD
:102B800084E090E00E94FF240E94961088CE60E0CE
:102B9000EFCF90919602892F8F7E94FF806154CF62
:102BA00090919602892F8E7F90FF81604DCF9091FA
:102BB0009702892F877F93FF88604CCF80919A017D
:102BC00069E2811165E38AE791E00E94A20447C3AC
:102BD000F7E7EF16FCE7FF0609F010C381E00E945B
:102BE000530943E062E081E00E940F0958CE8091D2
:102BF000830280FF19C0282F2E7F209383023091FB
:102C00008402409185025091860260918702709102
:102C100088028091890290918A020E94740D10921C
:102C200012020E94CB0A3BCE81608093830261E056
:102C300086950E94630E33CE4DEA5EE067EB7EE040
:102C40000E9458052CCE47EB5EE06DEA7EE0F8CF9F
:102C50004BE15EE065E27EE0F3CF45E25EE06BE1F2
:102C60007EE0EECF41E05EE06EE07EE0E9CF4EE058
:102C70005EE061E07EE0E4CF47EE5DE064EF7DE0A2
:102C8000DFCF44EF5DE067EE7DE0DACF4FE25EE05C
:102C900069E47EE0D5CF49E45EE06FE27EE0D0CF2C
:102CA00061E081E0C6CF65E082E00E94C20EF7CD10
:102CB0006BE086E0FACF61E18CE0F7CF27E7E21620
:102CC0002CE7F20609F457C038E7E3163CE7F306B1
:102CD00009F455C0F8018581E080F180882309F46A
:102CE00082C0C7010E943D0CD82E682FC7010E94E8
:102CF000D508B7018D2D0E942F0C0E9472077C0110
:102D0000882ED8011596AC90159716969C909294A3
:102D10003FE093228091B8018770F1F0CA2CAA207D
:102D2000E1F08F2D807F803451F080E28E0D88306D
:102D300098F0911004C08F2D807E803269F08091D0
:102D4000970282FF09C082E00E943C098091B8018D
:102D50008770CC24C3948111C12CBF2CB2942FE076
:102D6000B222BBE0BB1508F4A6C0EB2DF0E0E5579E
:102D7000FA4D0C94CD2381E00E942F0932CF82E0DE
:102D8000FBCFEBE5EE16ECE7FE0659F1FCE5EF169E
:102D9000FCE7FF06E1F02AE5E2162CE7F20609F06F
:102DA00099CF81E01BC00E9496103FEF84E39CE026
:102DB000315080409040E1F700C000000E94A70A17
:102DC0006FEF7FEF90E080E00E94FF2431C280919E
:102DD000970282FB882780F991E089270E9473106F
:102DE00079CF80E0FBCFC7010E94A108D82E81CF08
:102DF000EF2DEF70DE2E8F2D807F19F0D29490EFA3
:102E0000D922AA20B9F0DD2069F080E28E0D883049
:102E100010F0811009C08091DB01D82AD092DB012B
:102E20000E94E70E8E2D45C08091DA01D82AD092FB
:102E3000DA01F6CF8E2D0E944D0FDD20E1F180E208
:102E40008E0D883010F0811004C08D2D0E949008E6
:102E500006C0D0948091DA01D822D092DA010E9483
:102E6000E70E29C0FF2DFF70DF2E8F2D807F80326F
:102E700019F0D29480EFD822882059F021E08216F0
:102E800009F481C0AA2009F48DC0992009F44FC02B
:102E9000C9CF8091970282FD46C0AA20F1F1DD20C2
:102EA00039F08091DB01D82AD092DB010E94E70E35
:102EB00080E00E94830FAB2DA850BB0B149710F439
:102EC0000E944B05CC20A9F08091B80180FD11C073
:102ED000F80115828695869586950E945309C8014A
:102EE0000E9499138091B8018695869586950E94D7
:102EF0002F0920E0D8014C9111965C911197129600
:102F00006C91129713967C91139714968C91149749
:102F100015969C910E949C0CD2CC80E00E944D0F93
:102F2000DD2049F292CFAA20A1F0911004C08D2D8E
:102F30000E94430FC0CF31E09312BDCF8091D901E1
:102F40009D2D9823D91609F4B6CFD82AD092D9014D
:102F5000B2CF9110B0CF8D2D0E943C0F9091D9012E
:102F60008D2D892329F08D2D809589238093D9017A
:102F700080919B019D2D982309F49DCFD094D82258
:102F8000D0929B0198CFAA2029F085E0891508F4FA
:102F900092CFCDCF94E0991508F48DCF8D2D0E945E
:102FA0003C0F89CF9920D1F3A9E38A1209C0BFEF62
:102FB000E7EEF3E0B150E040F040E1F700C0000080
:102FC0008E2D0E944D0F77CF8F2D8695869583701D
:102FD00061F0813009F06FCFC7019370A11002C07A
:102FE00080E090E00E94010566CFC7019370A110B8
:102FF00002C080E090E00E9426055DCF6A2D8E2DF4
:103000000E94620958CF8F2D837091F5A11053CF84
:103010004E2D429546954770440F440F8E2D8F706C
:10302000042E01C0880F0A94EAF72E2D2071E4FEC9
:1030300007C02FE030E001C0220F4A95EAF7209543
:103040003F2D369536953370323069F050F440910B
:10305000DC01313029F0822B84230E945F092BCFC1
:10306000842B822BFACF282B8091DC018227F5CF8D
:103070008695AA2011F08F2D8170882309F41BCF2B
:103080004E2D429546954770440F440F8E2D8F70FC
:10309000042E01C0880F0A94EAF72E2D2071E4FE59
:1030A00007C02FE030E001C0220F4A95EAF72095D3
:1030B0003F2D369536953370323069F050F440919B
:1030C000EA01313029F0822B84230E940C09F3CECF
:1030D000842B822BFACF282B8091EA018227F5CF0F
:1030E0002F2D2F70F22EAA2029F0822F0E94530933
:1030F0008E2D1ECF8E2D0E943C0F8F2D0E942F09EA
:10310000DACE8E2D32EF8316B1F1381570F090EFD4
:103110008916D1F0A1EF8A1691F0AA2009F45EC0B9
:10312000911080CE8F2D8F712AC0B3EF8B1651F185
:10313000E4EF8E12F2CF8091970282FD2FC08F2D87
:103140008F71AA20D9F21BC0AA2081F0F4E0F915F2
:1031500008F4B1CE2F2D2F7181E090E001C0880FCF
:103160002A95EAF79091EA018927AFCF25E0291542
:1031700008F4A1CEEFCF8F2D8F71A110BFCF0E9489
:10318000530999CE80E0AA2009F49FCF9F2D9F710B
:1031900081E001C0880F9A95EAF797CFAA2099F0AD
:1031A0003F2D3F71F32E832F0E9453098091970288
:1031B00082FF07C0A8E0FA9EC001112483608093BB
:1031C000B8018F2DDCCF81E00E943C09B1E0B91538
:1031D00008F071CE82E00E943C096DCE992059F032
:1031E000893309F0EDCEEFEFF7EE23E0E150F04048
:1031F0002040E1F7E3CE8F2D8F7180CF82E0B8E7DA
:10320000EB16BCE7FB0609F4EACC83E0E8168CE792
:10321000F80609F4D5CD08F0B4CDE114ACE7FA0610
:1032200009F4C1CDB1E0EB16BCE7FB0609F052CDC5
:103230000E948313E6E1EE16ECE7FE0609F0C8CC27
:103240008091DB018A7A91E009F490E090939A01F1
:1032500069E2811165E38AE791E00E94CC040E9453
:10326000E70E1DCBF6E1EF16FCE7FF0609F4A6CC4E
:103270008091DB018272F701E052F847E531F105F8
:1032800008F01CCDE956FA4D0C94CD23F701E85116
:10329000FC47E730F10508F4B2CB10920303C701F5
:1032A0009057839738F684E090E00E94CB24909367
:1032B000970280939602F701E150F047E232F10560
:1032C00008F0BFCBE455FA4D0C94CD23CF93DF9398
:1032D0008091B701807F09F04DC08091B6018823AD
:1032E00009F448C0E09100035091C702C091B201B7
:1032F000D091B1016091B3017091B40147E05E17C4
:10330000C9F18E2F90E0E49FF0011124E853FD4FA6
:103310002481222391F1489FF001499FF00D11244F
:10332000DF01A853BD4F11962C9111972C1325C086
:103330002C912D1322C015962C91159721111DC08B
:1033400012962D913C91261B370B283C3105A8F491
:103350008091B7018F7080618093B701E253FD4F78
:1033600080818F708061808381EB91E00E9499134E
:103370000E949708DF91CF910895FC013196E77084
:10338000BECFA4E1B0E0E7ECF9E10C94E0238C01BE
:1033900086E0F801DE011F9601900D928A95E1F713
:1033A000F8018481E58091EBA92E91E0B92E9091EE
:1033B000B501911128C0882319F1EE20F1F0C80160
:1033C0000E94790CF82E8823C1F087E0F801D5011E
:1033D00001900D928A95E1F78091B501813031F429
:1033E0008091B1019091B2010E946C0C0E9466190B
:1033F0008F2D6496ECE00C94FC23C8010E94991375
:10340000FF24F394F5CFD080C18082809380F09028
:10341000B6012091B3013091B401A401421B530BBA
:10342000FF2009F4D9C0483C510508F092C0882318
:10343000F9F29091B2018091B701282F207F09F015
:1034400056C0C91214C09091B101D91210C0E11038
:1034500048C08F7080618093B70181EB91E00E943A
:1034600099138091B701F8018683F12CC1CFE11047
:1034700038C06C2D8D2D0E940B036C2D8D2D0E945C
:103480000B03E82E8111F1CFDF86C88A8F859889DA
:103490000E946C0C292F22952F70243058F49F70B5
:1034A000223088F0992399F0F8019681907F79F481
:1034B000FE2C9ECF2A5F2F70223068F0C8010E9438
:1034C0009913EF2CF5CF992311F0882389F3805EAF
:1034D000883070F3F3CF803F58F3815F833070F70B
:1034E000E7CF8091B70181608093B701BECFC91249
:1034F00007C09091B101D91203C0EE2009F48DC02C
:10350000C8010E94790C882309F477CFEE2009F4D2
:1035100074CF8091B701803288F02091B101309151
:10352000B201398728879B868A869091B5019C874E
:103530001D868E87CE0108960E94991387E0F801B8
:10354000A1EBB1E001900D928A95E1F70E94661916
:1035500057CF9091B701292F207F51F481EB91E053
:103560000E94991387E0F50111928A95E9F77DCFC2
:10357000882309F43DCF8091B2018C1110C0809155
:10358000B101D8120CC0E1100AC09683C8010E9494
:10359000991387E0F50111928A95E9F729CFC801BF
:1035A0000E94790C882309F428CFEE2009F425CF56
:1035B0008091B701803210F22091B1013091B201B7
:1035C0003A8329839C828B829091B5019D831E82D0
:1035D0008F83CE010196B0CF483C5105D0F68823A9
:1035E00009F40ECFFE2CEE2009F407CF8091B20132
:1035F0008C1120C08091B101D8121CC08091B701FC
:1036000080FD0FC0982F907F61F08683903F31F04E
:10361000982F907F905F8F70892B8683C8010E94BE
:10362000991387E0F801A1EBB1E001900D928A9522
:10363000E1F7DECEC8010E94790C81117FCF809125
:10364000B70181608093B701C8010E949913D0CE61
:10365000ABE1B0E0EEE2FBE10C94E8234E8B5F8B34
:10366000688F798F8A8F9B8F192F91111092DA01B1
:103670001D8A86E0FE017696DE011F9601900D926E
:103680008A95E1F70A8D002341F021E04F855889A2
:1036900069897A89C8010E949C0C0B8B1C8B87E07E
:1036A000FE013F96DE01189601900D928A95E1F792
:1036B000CE0108960E94C11981110CC087E0FE015D
:1036C0003896DE01119601900D928A95E1F78C856E
:1036D00081110BC017E0809100039091C7028913FC
:1036E00031C06B96E4E00C9404242091C70230E0D2
:1036F000C901019687709927409100034817190660
:1037000099F097E0929FD001939FB00D1124A85398
:10371000BD4FFE01319601900D929A95E1F780938D
:10372000C7020E949708D6CF0E9496101092C70237
:103730001092000387E0E1EBF1E0DF011D928A9532
:10374000E9F7C8CF819FC001112488539D4F0E9483
:10375000C119882331F28091000390E001968770AF
:10376000992780930003B7CFA6E0B0E0EAEBFBE136
:103770000C94E8230E9496048C018091DD019091C5
:10378000DE018017910781F019821A820E94960447
:10379000682F49815A81792F80E090E00E94281B90
:1037A0001093DE010093DD012696E4E00C940424DE
:1037B000A8E0B0E0EEEDFBE10C94E1238E010F5F99
:1037C0001F4F88E0F80111928A95E9F787E4C82E27
:1037D00081E0D82EF12CE12CAA24A394B12CF6017F
:1037E00081916F018F3F09F443C0F894E82FE2956F
:1037F000EF70F0E021A18F70A50102C0440F551FAA
:103800008A95E2F7CA01922F982B91A392A18095F5
:10381000892382A3789400C0EFE4F1E0912C31E099
:1038200021912F3F09F465C0A22FA295AF70B0E09F
:1038300090968C9190E02F7002C0959587952A956F
:10384000E2F780FD56C0832F982A330F51E0E6350A
:10385000F50731F7F601319780818F3F11F00E9413
:10386000760680EA8A95F1F7F801EE0DFF1D908249
:10387000EFEFEE1AFE0AF8E0EF16F10409F0AFCF11
:1038800048E050E0B80182EE91E00E94B024892B1C
:1038900091F188E0F801A2EEB1E001900D928A95D5
:1038A000E1F781E08093E1010E9496049093E001AA
:1038B0008093DF018091DF019091E0010E948704F5
:1038C0000597E8F048E050E062EE71E086EF91E0A5
:1038D0000E94B024892BC1F088E0E2EEF1E0A6EF6F
:1038E000B1E001900D928A95E1F781E01092E1013B
:1038F00007C080E0A9CF8091E1018111DBCF80E09A
:103900002896EBE00C94FD2380E0F0CFA8E0B0E037
:10391000ECE8FCE10C94EA2366EE7EEF90E080E0B8
:103920000E94FF2460E082E090E00E94E12460E0D9
:1039300083E090E00E94E1241092DC0160E074E1F9
:1039400084E090E00E94FF2460E086E090E00E9426
:10395000E1246FEF87E090E00E94E12440E050E036
:10396000BA0188E090E00E94F32460E084E290E0F5
:103970000E94E12460E087E190E00E94E12460E0A1
:103980008CE090E00E94E12460E08DE090E00E94F5
:10399000E12419821A821B821C821D821E821F82D0
:1039A000188648E050E068E170E0CE0101960E9480
:1039B000D12440E050E0BA0180E290E00E94F3247C
:1039C00080E00E94D70B0E94F00B40E050E0BA016B
:1039D0008FE090E00E94F32440E050E0BA0183E1E0
:1039E00090E00E94F3242896E2E00C9406241F92B3
:1039F0000F920FB60F9211242F933F934F935F9323
:103A00006F937F938F939F93AF93BF93CF93DF93E6
:103A1000EF93FF93D091E900DF708091EC00C82F05
:103A2000C17080FDC0E81092E9008091F000877FAE
:103A30008093F00078940E94C5101092E900809164
:103A4000F00088608093F000CD2BCF70C093E90028
:103A5000FF91EF91DF91CF91BF91AF919F918F91A6
:103A60007F916F915F914F913F912F910F900FBE7A
:103A70000F901F9018951F920F920FB60F9211245E
:103A80002F933F934F935F936F937F938F939F9366
:103A9000AF93BF93EF93FF938091E10082FF09C042
:103AA0008091E20082FF05C08091E1008B7F8093CE
:103AB000E1008091DA0080FF24C08091D80080FF6F
:103AC00020C08091DA008E7F8093DA008091D90047
:103AD00080FF9DC080E189BD82E189BD09B400FEFF
:103AE000FDCF81E08093BD0280919802811109C0D1
:103AF0000E942A030E94CB038091E200846080939D
:103B0000E2008091E10080FF17C08091E20080FF19
:103B100013C08091E2008E7F8093E2008091E200EA
:103B200080618093E2008091D80080628093D80009
:103B300019BC85E08093BD028091E10084FF2BC019
:103B40008091E20084FF27C080E189BD82E189BDC8
:103B500089B5982F917080FFFBCF8091D8008F7D21
:103B60008093D8008091E1008F7E8093E100809166
:103B7000E2008F7E8093E2008091E200816080937A
:103B8000E2008091BE02882309F447C084E080935C
:103B9000BD028091BD028091E10083FF27C080912A
:103BA000E20083FF23C08091E100877F8093E100E2
:103BB00082E08093BD021092BE028091E1008E7F70
:103BC0008093E1008091E2008E7F8093E2008091FB
:103BD000E20080618093E20042E060E080E00E94C9
:103BE00099038091F00088608093F000FF91EF913D
:103BF000BF91AF919F918F917F916F915F914F9105
:103C00003F912F910F900FBE0F901F90189519BCE8
:103C10001092BD021092980274CF8091E30087FD4C
:103C200093E09093BD02B5CF78941F921FB61F9278
:103C300011248F939F93AF93BF93809192029091A1
:103C40009302A0919402B09195020196A11DB11D1D
:103C50008093920290939302A0939402B093950262
:103C6000BF91AF919F918F911F901FBE1F9018958C
:103C70001F921FB61F9211248F939F93AF93BF93F0
:103C800080919102811113C08091920290919302D0
:103C9000A0919402B09195024196A11DB11D80930F
:103CA000920290939302A0939402B0939502BF91D5
:103CB000AF919F918F911F901FBE1F901895CDB708
:103CC000DEB7A6970FB6F894DEBF0FBECDBF85B79F
:103CD000806885BF85B7806885BF84B7877F84BFCC
:103CE0000FB6F894A8958091600088618093600079
:103CF000109260000FBE80E890E00FB6F8948093B9
:103D00006100909361000FBE84E796E09093790183
:103D1000809378010E942A030E94CB038091E200E5
:103D200084608093E20078948091BD028823A1F0A2
:103D30001091E9001F709091EC00892F817090FD27
:103D400080E8182B1092E9008091E80083FD0E9422
:103D5000C5101F701093E90082E084BD93E095BD0B
:103D60009AEF97BD80936E000E94C10C811102C032
:103D70000E94F00B07E411E0EFE4EE2EE1E0FE2EEE
:103D8000D8018D918D018F3F11F00E947606E016CB
:103D9000F106B1F70FE411E076E5E72E71E0F72EBA
:103DA000F80181918F018F3F11F00E947606E01695
:103DB000F106B1F788E0E6EFF1E0DF01282F1D9270
:103DC0002A95E9F7E2EEF1E0DF011D928A95E9F725
:103DD0000E948A10811102C00E94861C82E090E03D
:103DE0000E94BD248093EC0184E090E00E94CB24EB
:103DF00090939702809396020E94D81BBFEFE6E74C
:103E0000F1E0B150E040F040E1F700C000000E9456
:103E1000D81B8091F70180FF08C06FEF7FEF90E023
:103E200080E00E94FF240E94A70A83E090E00E94A5
:103E3000BD240E945F098091EB01811173C00E9433
:103E40008A10811104C00E94861C0E94D20E88E054
:103E500090E00E94C5244B015C0184E290E00E9446
:103E6000BD24282F30E040E050E060E070E080E0CA
:103E700090E000E20E941124282939294A295B296F
:103E800020938302309384024093850250938602EC
:103E900060938702709388028093890290938A02CC
:103EA0002E7F89F50E94D20E88E090E00E94C52402
:103EB0006B017C0184E290E00E94BD24282F30E059
:103EC00040E050E060E070E080E090E00E9411246B
:103ED000B22FA32FF42FE52F5B0197018601BC2998
:103EE000A12BFE29E32BB0938302A0938402F093CD
:103EF0008502E093860260938702B09288028093E5
:103F0000890290938A020E945F05109212028091AA
:103F1000830280FF04C060E086950E94630E81E00A
:103F20008093EB0184E091E090938E0280938D0268
:103F300058E1E52EF12C60E4762EBB24B394AA243C
:103F4000A3948091BD0200E112E1853009F484C0A0
:103F50000E94D81B0DEE11E046EFC42E41E0D42E96
:103F6000D601F80191918D9141E0E53FF40709F404
:103F70007DC09817B9F3912CD6018D906D01F80191
:103F800081918F01881521F1482E4824612C5524F8
:103F90005394842D8521A1F069A29AA20E949604CF
:103FA0009CA38BA3ADA291E0882D852109F490E01C
:103FB0009EA349A15AA16BA17CA18DA10E94281B9F
:103FC0006394550CF7E06F12E4CFF80131978082CB
:103FD000939428E09212D0CF8FB7F8944091920238
:103FE0005091930260919402709195028FBF42C0EC
:103FF0008091BD02843009F1109291020FB6F894BD
:10400000A895E09260000FBE7092600083B7817F38
:10401000846083BF83B7816083BF7894889583B7BA
:104020008E7F83BF0FB6F894A89580916000886159
:1040300080936000109260000FBE8091BC028823C4
:1040400059F00E94D81BE6EFF1E08191811148C33D
:1040500021E0EE3FF207C9F78091BD02853009F4F7
:10406000C7CF0E9496100E944B0572CF981383CF42
:104070000E94B41B809112028823D1F19091110209
:10408000E0918302E695E91BE0930D02923009F07E
:104090003DC1F0E0E658FD4FE4910E2F10E03EE305
:1040A000C32E3BE0D32E80910E02882361F0109244
:1040B0000E020E94960490930C0280930B021092C1
:1040C000100210920F020E949604E0910B02F091F0
:1040D0000C028E1B9F0B8F3F9F4750F40E0F1F1F2C
:1040E00010930C0200930B028BE092E0F60109950D
:1040F00086E0E5E0F2E0DE01119601900D928A95EE
:10410000E1F7109207021092080210920902109231
:104110000A028B819C81892B09F44AC08091030299
:10412000909104020E9487049C019091FE019923C2
:1041300009F4FAC225313105D8F19F3F19F09F5F8C
:104140009093FE011B81112359F00E9454069FEFAA
:1041500011160CF491E0899F802D112480930702A1
:104160001C81112359F00E9454069FEF11160CF484
:1041700091E0899F802D11248093080230910702DD
:104180003323B1F020910802222391F045EB340350
:10419000C0011124992309F4E0C09093070245EB74
:1041A000240390011124332309F4DAC03093080268
:1041B0008D819E81892B09F44AC0809101029091E2
:1041C00002020E9487049C019091FF01992309F447
:1041D000A6C221353105D8F19F3F19F09F5F90931A
:1041E000FF011D81112359F00E9432069FEF111625
:1041F0000CF491E0899F802D1124809309021E8187
:10420000112359F00E9432069FEF11160CF491E031
:10421000899F802D112480930A0230910902332353
:10422000B1F020910A02222391F045EB3403C00142
:104230001124992309F497C09093090245EB2403B4
:1042400090011124332309F491C030930A0246E00F
:1042500050E0BE016F5F7F4F85E092E00E94B02486
:10426000892B61F48091070290910802892B90912B
:104270000902892B90910A02892B11F00E940B06EA
:1042800086E0FE013196A5E0B2E001900D928A959C
:10429000E1F70E944B059091F501891769F0809331
:1042A000F5018FB7F894409192025091930260917A
:1042B0009402709195028FBF8091BD02843009F005
:1042C00040CE83E08093E9008091E80082FF39CE00
:1042D0008091E80090E085FF06C00E944903882392
:1042E00009F447C091E08091E8008B778093E80063
:1042F000992309F426CE8981EFEFE80FE33108F026
:104300005FC0F0E0E253FA4D0C94CD23963061F497
:10431000E695F0E0E958FD4FE4910E2F10E020E023
:10432000C22E2BE0D22EBFCE00ED17E08EE5C82EB8
:1043300085E0D82E9C3009F0B6CE8E2F63E00E9427
:104340009923E92FF0E0EC58FD4FE4910E2F10E097
:104350009AEDC92E9CE0D92EA6CEB09207021FCFAF
:10436000B092080225CFB092090268CFB0920A023B
:104370006ECF00E210E0CE0101966C018091E80062
:1043800085FD0AC08091E8008B778093E8000E9449
:104390004903882399F3A6CF8091F100D6018D932C
:1043A0006D010150110951F79DCF1A828CE08B836A
:1043B00024C08A81823009F4A9C128F4813061F0D7
:1043C0008FEF89831AC0833009F18430C9F71B82CB
:1043D0001C821D821E8211C02FB7F8946091920238
:1043E0007091930280919402909195022FBF0E9448
:1043F000D3236B837C838D839E8340E250E0BE0198
:104400006F5F7F4F82E00E943A0A9BCD2B81822F03
:1044100090E0FE013496245E8830910570F7DC014F
:10442000AA50BE4F3C91319301962813F5CFE5CFAA
:104430008A81823081F0853019F68091830280FF75
:1044400015C0809183028E7F8093830210921202A6
:104450000E94CB0AD2CF6B817C818D819E810E948C
:10446000D32388E290E00E94E124C7CF816080934B
:10447000830260E086950E94630EBFCF4C816B8102
:104480008A810E94000C9827892798279E838D8314
:10449000B4CF2D813E813227232732274C816B8177
:1044A0008A810E94790BA9CF0E949F0BA6CF9A8187
:1044B000923009F085CF8830D9F1893009F463C092
:1044C0008B81823009F1A8F4813009F096CF8C817C
:1044D000BFEB8B9FC00111246FEF70E00E94A523FA
:1044E000462F20E060918502809184020E949A0DFF
:1044F00084CF8330C9F0843009F07FCF20E0409131
:1045000086026D818C81F2CF8C81882309F499CF4A
:104510008091830281608093830260E086950E948F
:10452000630E60E08C81A7CF8C818093870265CF7A
:104530008B818230E1F078F4813009F05ECF809198
:104540008602EFEF8E9FC00111246FEB70E00E9496
:10455000A5236C8352CF833099F0843009F04DCF7E
:10456000809184028C83809185028D8346CF8091D7
:10457000830280FF03C086958C833FCF80E0FCCF11
:1045800080918702F9CF209183023091840240917B
:104590008502509186026091870270918802809115
:1045A000890290918A020E94740D27CF80E18A834C
:1045B00024CF82E08A8387E1FACE0A811B8110270B
:1045C00001271027CE0101966C018C80DC01A80D1B
:1045D000B11D4D01C80187519E4FC814D90409F47B
:1045E0000CCF0731B2E01B0750F40E94BD24F60146
:1045F00084830F5F1F4FBFEFCB1ADB0AEBCFD601CF
:1046000014961C92F6CF0A811B81102701271027D0
:10461000FE0131964F01CC80C00ED12ED11CC801B5
:1046200087519E4F0C151D0509F4E7CE0731F2E0C6
:104630001F0728F4D40114966C910E94E124BFEF67
:104640008B1A9B0A0F5F1F4FEACF0E94690BD5CED2
:1046500084E0ADCF0A811B81102701271027FE01BE
:1046600031966F018C80CF01880D911D4C01C801DE
:1046700089968C149D0409F4C0CE003CA1E01A0771
:1046800050F40E94BD24F60184830F5F1F4FBFEFDB
:10469000CB1ADB0AECCFD60114961C92F6CF0A8116
:1046A0001B81102701271027FE0131964F01CC8076
:1046B000C00ED12ED11CC8018996C016D10609F4AE
:1046C0009CCE003CF1E01F0728F4D40114966C91B5
:1046D0000E94E124BFEF8B1A9B0A0F5F1F4FEBCFA5
:1046E00009BD19BD09B400FEFDCF8091D8008F7DB2
:1046F0008093D8008091E00082608093E0008091F8
:10470000E00081FDFCCF0E949610A6CC88E290E0EC
:104710000E94BD241B821C821D828E836ECE2B3094
:10472000310508F05BCD93CD2B30310508F007CD76
:104730003FCD991B79E004C0991F961708F0961B8E
:10474000881F7A95C9F780950895AA1BBB1B51E174
:1047500007C0AA1FBB1FA617B70710F0A61BB70BF1
:10476000881F991F5A95A9F780959095BC01CD0196
:10477000089597FB072E16F4009407D077FD09D013
:104780000E94A52307FC05D03EF4909581959F4F8C
:104790000895709561957F4F0895EE0FFF1F059066
:1047A000F491E02D099469279627692778278727B0
:1047B000782708952F923F924F925F926F927F9247
:1047C0008F929F92AF92BF92CF92DF92EF92FF9221
:1047D0000F931F93CF93DF93CDB7DEB7CA1BDB0BCD
:1047E0000FB6F894DEBF0FBECDBF09942A88398872
:1047F00048885F846E847D848C849B84AA84B98479
:10480000C884DF80EE80FD800C811B81AA81B98184
:10481000CE0FD11D0FB6F894DEBF0FBECDBFED0198
:104820000895002E083090F0982F872F762F652F4F
:10483000542F432F322F22270850F4CF220F331F3B
:10484000441F551F661F771F881F991F0A95B2F7CF
:10485000002D089597FD1094002E083098F0085010
:10486000232F342F452F562F672F782F892F912DE7
:10487000F4CF1594979587957795679557954795B4
:10488000379527950A95AAF71124002D08958F9240
:104890009F92AF92BF92CF92DF92EF92FF92CF930F
:1048A000DF93EC01688179818A819B8161157105B3
:1048B0008105910521F464E279ED8BE597E02DE126
:1048C00033EF41E050E00E94152549015A019B0158
:1048D000AC01A7EAB1E40E9434256B017C01ACEE87
:1048E000B4EFA50194010E944225DC01CB018C0D9F
:1048F0009D1DAE1DBF1DB7FF03C00197A109B048A4
:1049000088839983AA83BB839F77DF91CF91FF90A0
:10491000EF90DF90CF90BF90AF909F908F900895D1
:104920000E944724089580E091E00E944724089562
:10493000B0E0A0E08093000190930101A0930201F8
:10494000B09303010895FC014150504030F00190B4
:104950000616D1F73197CF01089588279927089532
:10496000FB01DC0104C08D910190801921F44150BC
:104970005040C8F7881B990B0895F999FECF92BD56
:1049800081BDF89A992780B50895A6E1B0E044E08A
:1049900050E00C940725A8E1B0E042E050E00C9410
:1049A0000725DC01A40FB51F4150504048F0CB0152
:1049B000840F951F2E910E94E22441505040D0F761
:1049C0000895262FF999FECF92BD81BDF89A0197DF
:1049D00000B4021639F01FBA20BD0FB6F894FA9A47
:1049E000F99A0FBE08950396272F0E94E2240E9491
:1049F000E124252F0E94E224242F0C94E224019626
:104A0000272F0E94E2240C94E124DC01CB01FC015D
:104A1000F999FECF06C0F2BDE1BDF89A319600B417
:104A20000D9241505040B8F70895052E97FB1EF4A3
:104A300000940E942C2557FD07D00E94472507FCB3
:104A400003D04EF40C942C2550954095309521952B
:104A50003F4F4F4F5F4F08959095809570956195AA
:104A60007F4F8F4F9F4F08950E946925A59F900DFE
:104A7000B49F900DA49F800D911D11240895B7FF40
:104A80000C9434250E943425821B930B0895A1E2D7
:104A90001A2EAA1BBB1BFD010DC0AA1FBB1FEE1FB8
:104AA000FF1FA217B307E407F50720F0A21BB30B03
:104AB000E40BF50B661F771F881F991F1A9469F77F
:104AC00060957095809590959B01AC01BD01CF01DB
:104AD0000895A29FB001B39FC001A39F700D811DD7
:104AE0001124911DB29F700D811D1124911D0895F7
:104AF000F894FFCFA611CE117113CE1171130112CC
:104B00002212711320132D130E15121503150A15F9
:104B100016151A151E15F816F81632173217E4175F
:104B2000FE175B175B170318701881188118F715AB
:104B30001C16231628162D16321637163C1641164B
:104B400046164B16501653164F1458164F144F1442
:104B50004F144F144F145B165B15D01563152D15AC
:104B60003115671535156B1577154115C91545159F
:104B70007B1549157F15A7154D158315AE155315D2
:104B80008915911539156F153D15731557158D1527
:104B90009D15B715C71527155F15D715D521D9212F
:104BA00018223E2249225422572257225722E0211E
:104BB000E021D622D922DD220323252328232A23FC
:024BC0004F2381
:104BC200010000008404830A7C0A750A01018182C3
:104BD20083E200E900EA00B500B600B700CD008329
:104BE20001CC008A019201940121022302240225B0
:104BF20002260227022A02B300B4006F0070009F4F
:104C020001CB019F02A0023635349796946667372E
:104C1200F79593929190000102020202060606069F
:104C220006060C0C0C0C0C0C4022B684016201AC82
:084C3200000005190539050019
:00000001FF
