:100000000C943A040C9481040C9481040C948104A3
:100010000C9481040C9481040C9481040C9481044C
:100020000C9481040C9481040C94592A0C94152A84
:100030000C94562B0C9481040C9481040C94810430
:100040000C9481040C9481040C9481040C9481041C
:100050000C9481040C94322B0C9481040C94810434
:100060000C9481040C9481040C9481040C948104FC
:100070000C9481040C9481040C9481040C948104EC
:100080000C9481040C9481040C9481040C948104DC
:100090000C9481040C9481040C9481040C948104CC
:1000A0000C9481040C9481040C94810405010902D0
:1000B000A10185020901A100050919012905150001
:1000C00025019505750181029501750381010501E1
:1000D000093009311581257F950275088106093897
:1000E0001581257F950175088106050C0A380215D2
:1000F00081257F950175088106C0C005010980A191
:1001000001850319012AB700150126B7009501756D
:10011000108100C0050C0901A101850419012AA064
:1001200002150126A002950175108100C005010984
:1001300006A1018506050719E029E71500250195A7
:1001400008750181020507190029EF1500250195A1
:10015000F0750181020508190129059505750191C0
:1001600002950175039101C00660FF0961A10109B3
:1001700062150026FF0095207508810209631500AD
:1001800026FF00952075089102C005010906A1010E
:10019000050719E029E71500250195087501810279
:1001A0009501750881010507190029FF150026FF33
:1001B0000095067508810005081901290595057542
:1001C000019102950175039101C00000000000003B
:1001D000000000000000000000000000000000001F
:1001E00000000000000000000000000000007E0F82
:1001F00000D4FFFFFFC700000078000000000000EF
:1002000000002A2B28000000000000000000000071
:10021000000000000029000000002C1E34202122D4
:1002200024342627252E362D3738271E1F2021223D
:10023000232425263333362E37381F0405060708B6
:10024000090A0B0C0D0E0F101112131415161718A6
:10025000191A1B1C1D2F3130232D350405060708E4
:10026000090A0B0C0D0E0F10111213141516171886
:10027000191A1B1C1D2F3130354CFD377A585A0086
:100280000004E6D6B4460200210116000000742FD7
:10029000E5A3E00968025B5D003D8889C65436C36A
:1002A000174FE4E7EBCF240A380E977928580C3A19
:1002B0007DD191B9B62151729A68EFF0007D1ED8B8
:1002C00099A577AF5F387F4FFF4FD726C8D67FA756
:1002D0003EDC7D2484ECD2400C1B369E286E54C933
:1002E0008290DC99714532EA83E1D0A4854606F517
:1002F0001B81512AC2970496BB929FC6D4302958BD
:10030000F5C9284483DD3DFFB8A1E04A4C76098356
:10031000C2E1E14D347DC9263E2865E2D6E28DD5A5
:10032000C2BACF401FA8A89D489B9B3F79373F2268
:10033000B418C5357830CD89FE6A417F443B5903F6
:100340009F4D39EDE97ACD3073065466D0263802D8
:10035000A88F3E986331CA818240A1523F78DF085E
:100360007A9B505C50B6300F88E54ADCFA859DFBDD
:10037000441BC4B5A4B0F8E00EE7F9E56DE9EE7DE5
:100380005D5D009D882EA6285034959E8AFC733DA5
:100390006DBE37C15A333DB97DC044621A1D835DBD
:1003A000C95CD098017EB7571C6895FBDF0D0BC95F
:1003B000B84CD7131EA60205CF857E6AC86257AF18
:1003C0002020F9D7566C151778041EB3B15F35108D
:1003D0001351D6A7EFA10427328785C5C611178010
:1003E00077D30BB252DB141CC2024BD24E9804A13D
:1003F000696A2DEF5F9CF98752375A133FA852D292
:100400004C8D1528DBB93A3528302C7616DDFC9159
:10041000701EC0ADF7234FE9DC3D17D3E4BB0F8A54
:100420006D2FD35D3F65CB15D175AEBBB124B3C97C
:10043000780132DB75830194F97CC9C3D49DE0D186
:10044000FF735BF44FC23080438F05EA5C3751CDB8
:10045000EF99F22DCF614CD2227FD402899754625A
:100460003996337FBCB179E789DA03BD8FD9E4814E
:100470006B22A0591A8D7F606C76D8FEF22E15770C
:100480002CD1AEB5792050970B5185E1D7B5581ACC
:100490005DB2EF5A742842CDD975223DB921F47F5F
:1004A00049AD6BAE92A9BC1A29AF29F50C09A01F62
:1004B000931C02C93CF817280CD79933A5E8DCE94E
:1004C000DBE714107335D5BE7DF6C2D6763B7B5E76
:1004D0002F67E88E5E648E1762062517AFB0F91C91
:1004E000C3085B782779B58F8380F6CB8A74E529BA
:1004F0003C7E362F0000B3A52426DB669B1400014A
:10050000F704E91200001022978AB1C467FB0200C9
:1005100000000004595A000014001A0017001C00C3
:10052000120013004C003A002900080015001800C2
:100530000C002F002A000000040016000A000B0027
:100540000F0033004A003B002B00070009000D009C
:100550000E000000280000001D001B000500110017
:10056000370000004D003C00E100060019001000BB
:100570003600E500520000000151E20001000000D9
:10058000E60000004F003D00E00000002C002C00C1
:1005900001005000510000000100010001000100B5
:1005A000010001000100005C0100010001000100E8
:1005B0000100010001000000010001000100010034
:1005C0000100010001000100010001000100010023
:1005D0000100000001000000010001000100010015
:1005E0000100000001000100010001000100010004
:1005F00001000100010000000100010001000000F5
:1006000001000000010001000100000001000100E4
:1006100001000100010000000100010001000100D3
:1006200001000100010001000100010001000100C2
:1006300001000100010000000100010001000100B3
:1006400001000100010001000100010001000100A2
:100650000100000001000000010001000100010094
:100660000100000001000100010001000100010083
:100670000100010001000000010001000100000074
:100680000100000001000100010000000100010064
:100690000100010001000000010001000100010053
:1006A0000100010001000100010001000100010042
:1006B0000100010001000000010001000100010033
:1006C0000100010001000100010001000100010022
:1006D0000100000001000000010001000100010014
:1006E0000100000001000100010001000100010003
:1006F00001000100010000000100010001000000F4
:1007000001000000010001000100000001000100E3
:1007100001000100010001000100A503000002002A
:100720000200A103000003000100A6030000040072
:1007300002008B03FB0605000100A7030000060072
:1007400002008D03000007000200A3030000080060
:100750000100A8030000090002008F03D6060A006A
:1007600002009103D6060B0002009303D6060C008C
:1007700002009503D6060D0002009703D6060E0070
:1007800002009903D6060F0002009B03D606100054
:1007900002009D03D606110002009F03D606120038
:1007A0000200A903000013000200AB0300000902CD
:1007B0005B00030100A0FA0904000001030101002D
:1007C0000921110100012240000705810308000AE8
:1007D00009040100020300000009211101000122A7
:1007E0002200070582032000010705030320000102
:1007F0000904020001030000000921110100012287
:10080000BC000705840320000A120100020000005A
:1008100008445610000100010203011C0376006920
:100820000061006C003A006600360034006300325C
:100830000062003300630000000E0353006D006F80
:10084000006C006B00610000002403560069006B1F
:100850000074007500730020004400650073006997
:100860000067006E0020004C004C004300000004B4
:100870000309040011241FBECFEFDAE0DEBFCDBFB5
:1008800004B603FE27C08091A3049091A404A09114
:10089000A504B091A6048730904BA740B04BD1F48B
:1008A0001092A3041092A4041092A5041092A6041E
:1008B00014BE84B7877F84BF0FB6F894A895809143
:1008C0006000886180936000109260000FBEE0E0DD
:1008D000F8E3099511E0A0E0B1E0E4EFF7E602C02B
:1008E00005900D92AA38B107D9F724E0AAE8B1E043
:1008F00001C01D92A33AB207E1F70E947D2B0C9430
:10090000C6330C940000E8EDF0E080818E7F808398
:100910001092E2001092DA001092E100A0EEB0E036
:100920008C9181608C9380818F77808319BCA7ED37
:10093000B0E08C918E7F8C9380818F7E808310922B
:10094000720408952091E4003091E50095E6A90134
:100950002091EC00822F817020FF06C08091E8007A
:1009600080FF06C080E008952091E80022FD1AC0B3
:100970008091A004882389F0853089F08091EB0074
:1009800085FD0FC02091E4003091E5004217530728
:10099000F9F29150E1F684E0089582E0089583E051
:1009A000089581E00895EF92FF920F931F93CF93E4
:1009B0007C018B010E94A204C82F811117C0809175
:1009C000E80085FD0BC08091E8008E778093E800F9
:1009D0000E94A204882399F3C82F08C0F7018191CF
:1009E0007F018093F1000150110949F78C2FCF91BD
:1009F0001F910F91FF90EF900895CF93FC0180918C
:100A0000A004843001F5C091E900CF702091EC0082
:100A1000922F917020FD90E8C92B82E08093E9002D
:100A20008091E80080FF0CC050E040E060E270E0A0
:100A3000CF010E94D3048091E8008E778093E80074
:100A4000CF70C093E900CF9108958091980487FFFB
:100A500013C08091E80082FF06C08091E8008B7788
:100A60008093E80004C08091A0048111F2CF089522
:100A70008091A0048823D9F38091E80080FFF8CF0B
:100A80008091E8008E77ECCF982F9093E900242F87
:100A9000762F50E0891731F07091EC002091ED0035
:100AA0005091F00021FD07C09F5F973071F7809350
:100AB000E90081E008953091EB003E7F3093EB0038
:100AC0003091ED003D7F3093ED003091EB003160CF
:100AD0003093EB007093EC002093ED005093F00006
:100AE0002091EE0027FDE0CF80E00895CF92DF92C5
:100AF000EF92FF920F931F93CF93DF93C8EDD0E057
:100B000088818F7E8883E7EDF0E08081816080833B
:100B100084E082BF81E08093720488818E7F888325
:100B200002EE10E0F80110821092DA0081EEC82E79
:100B3000D12CF601108288818F7788838881806824
:100B4000888388818F7D888319BC1092A0041092BD
:100B50009704109296041092950490EEE92EF12CD1
:100B6000F70180818B7F808388818160888342E068
:100B700060E080E00E944405F60180818E7F8083E2
:100B8000F801808181608083808188608083F701A3
:100B900080818E7F8083888180618883DF91CF917F
:100BA0001F910F91FF90EF90DF90CF900895FC017F
:100BB00080919E0490919F0486179707A0F061157D
:100BC000710529F49091E8009E779093E80090E0F9
:100BD0006115710551F4911108C08091E80082FF00
:100BE00034C080E00895BC01F2CF8091A004882336
:100BF000C1F18530C1F18091E80083FD30C0809162
:100C0000E80082FDEACF8091E80080FFE1CF80918B
:100C1000F3002091F200382F6115710519F028308A
:100C2000310558F091E02830310509F090E020912D
:100C3000E8002E772093E800CBCF81918093F100DC
:100C4000615071092F5F3F4FE7CF8091A004882347
:100C500041F0853041F08091E80083FFBECF81E014
:100C6000089582E0089583E00895089580917404C2
:100C700008959C014FB7F8948091690490916A049B
:100C8000A0916B04B0916C044FBF821B930B08952D
:100C90002FB7F8948091690490916A04A0916B0435
:100CA000B0916C042FBF08952091660430916704C1
:100CB0002817390771F09093670480936604E091D8
:100CC0006404F0916504309721F00084F185E02DF3
:100CD000099408952091620430916304281739071C
:100CE00071F09093630480936204E0916404F09146
:100CF0006504309721F00680F781E02D099408956E
:100D0000E0916404F0916504309721F00190F08146
:100D1000E02D099480E00895452B39F0682381E0A7
:100D20006F3F09F080E08170089581E0FCCFDC0125
:100D30006091870380918803962F891301C00895DD
:100D4000292F30E0F901EE0FFF1FE158FC4F4081E1
:100D500051814A175B07A1F487E08A9FA0018B9F0E
:100D6000500D1124495B5C4F81E0FA018483961396
:100D7000E6CF2F5F3F4F23703327209387030895DB
:100D80002F5F3F4F922F9370D8CF1092E4021092B2
:100D9000E302E7E4F3E08581811102C01482168248
:100DA000379683E0EF37F807B1F70895EBE8F3E003
:100DB000848195812AE030E0B9010E94113360936B
:100DC00015018681809314018285809313018485A7
:100DD0008093120186859785B9010E941133609333
:100DE0001101808980931001828980930F01848989
:100DF00080930E01089580918B0390918C039093C2
:100E000017018093160108950E9448069C01909155
:100E1000510280915202982B21F030934E02209380
:100E20004D029091530280915402982B21F03093FF
:100E30004C0220934B02E0916404F09165043097DA
:100E400049F082E080934F020480F581E02D8FE429
:100E500092E00994089590915102803F59F4809155
:100E6000520287FF0DC01092520291110BC01092D6
:100E7000490208C0813F81F48091520218169CF308
:100E8000992381F08091530290915402892B09F0AB
:100E900064C0109248020895823F49F497FFF0CF52
:100EA00010925102809152028111ECCFE0CF833F2A
:100EB00019F41916ACF3E4CF20915302893F29F4B9
:100EC0001216F4F610925302DBCF8A3F19F427FF73
:100ED000D7CFF8CF209154028B3F29F427FFD0CFF2
:100EE00010925402CDCF8C3F19F41216CCF3C8CF18
:100EF000843F31F4809150028E7F80935002C0CFA6
:100F0000853F21F4809150028D7FF7CF863F21F4F9
:100F1000809150028B7FF1CF873F21F48091500266
:100F2000877FEBCF883F21F4809150028F7EE5CF01
:100F30008D3F31F480914A028E7F80934A02A0CF88
:100F40008E3F21F480914A028D7FF7CF8F3F09F0C9
:100F500097CF80914A028B7FF0CF089580914A020B
:100F600080FF0CC060910F0170E0759567957595D5
:100F700067956115710549F1862F089581FF06C0B7
:100F800060910F0170E075956795F3CF60910F0147
:100F900082FD0BC0909148029923A1F060910E014F
:100FA00080910F01961738F0682F70E06038710556
:100FB00000F38FE70895899FC001112470E00E941B
:100FC0002533F4CF61E070E0D7CF81E008958091C0
:100FD0004A02609193037091940380FF16C02091A0
:100FE0001301269FC001279F900D1124BC01769507
:100FF0006795769567956038710508F043C061156F
:10100000710509F441C0862F089581FF0BC020911E
:101010001301269FC001279F900D1124BC017695D6
:101020006795E9CF82FF09C0809113019B01829FE0
:10103000B001839F700D1124DECF2091490222233D
:10104000D1F29091120180911301482F50E029179D
:1010500048F0CB01849FB001859F700D949F700D67
:101060001124C9CF289F90011124269FA001279FFA
:10107000500D369F500D1124692F70E0CA010E9457
:101080001133B9CF8FE7089581E00895803F31F49F
:101090000E94E7078195809352020895813F19F4D9
:1010A0000E94E707F8CF823F31F40E94E70781955D
:1010B000809351020895833F19F40E94E707F8CF07
:1010C000893F29F40E94AE078093530208958A3F16
:1010D00021F40E94AE078195F7CF8B3F31F40E9437
:1010E000AE0781958093540208958C3F19F40E94B5
:1010F000AE07F8CF843F31F4809150028160809335
:1011000050020895853F21F4809150028260F7CF0C
:10111000863F21F4809150028460F1CF873F21F413
:10112000809150028860EBCF883F21F4809150027B
:101130008061E5CF8D3F31F480914A0281608093D8
:101140004A0208958E3F21F480914A028260F7CFCF
:101150008F3FB9F780914A028460F1CF80E0089513
:10116000F894E82FE295EF70F0E031A1282F2F706E
:1011700081E090E001C0880F2A95EAF7982F9095BA
:10118000932391A392A1892B82A37894089590919F
:101190006D0492FF06C0282F28712830F9F4877F4C
:1011A000846093FF06C0282F28712831F1F4877ED0
:1011B000846120916E0420FF06C0382F38713830CA
:1011C000D9F4877F816021FF06C0282F287128313C
:1011D000D1F4877E816194FD877E0895282F247144
:1011E0002430F9F68B7F8860DCCF282F24712431DE
:1011F00001F78B7E8861DDCF382F3171313019F7DF
:101200008E7F8860E0CF282F2171213121F78E7EDB
:101210008861E1CFCF93DF93EC0182389105A9F18A
:10122000D8F58133910509F496C048F589329105C6
:1012300009F48AC08A9709F495C0C11521E5D2073F
:1012400008F0BCC0C11530E5D30708F014C1C83E92
:10125000D10508F09CC0C03ED10560F5C83AD10563
:1012600008F087C0C53AD10508F0FDC0C130D105EE
:1012700009F12097F9F0C430D105E0F440C085337E
:10128000910509F45AC0C997C1F680916D04837025
:1012900089F0C0EED0E00EC0833E910599F170F464
:1012A000803E910501F1823E910539F680916D04F1
:1012B00082FD21C0CE01DF91CF910895863E910538
:1012C00061F1873E910571F1843E910509F0B5CF3A
:1012D00080916E0481FFEECF80916D04C7EED0E067
:1012E00084FD0DC0E7CF80916D0480FD12C1909107
:1012F0006E0490FFDFCFC3EED0E084FFDBCFD0E001
:10130000C0E0D8CF80916D0482FD06C190916E043B
:1013100090FDBFCF84FFCECFF2CF80916D0483FDCF
:10132000DDCFC8CF80916D0483FDF9C090916E042C
:1013300091FFF0CFC4EED0E0BDCF80916D0485FF6A
:10134000B9CFC9E2D0E0B6CF80916D0485FFB2CFAE
:10135000C5E3D0E0AFCF80916D0486FFABCFCAE28A
:10136000D0E0A8CF80916D0486FFA4CFC1E3D0E088
:10137000A1CFCF3BD10518F6C85AD0E0CC0FDD1F66
:10138000CA5DDE4F0990D881C02DD46493CFC115BA
:1013900040E2D40758F4C11581E0D80708F08ACF9D
:1013A000C03FD10508F4ABCFD06584CFC11590E420
:1013B000D90708F4A4CFDF70D06A7CCFC11525E52A
:1013C000D20700F5C11534E5D30708F08AC0C1156E
:1013D00043E5D40708F071C0C11582E5D80708F4C9
:1013E00067C0CE018370992721E030E002C0220F50
:1013F000331F8A95E2F7C695C69580E2C89FE00143
:10140000112452C0C11599E5D907A8F4C11528E5E2
:10141000D20708F06BC0C11536E5D30708F06FCFCF
:101420008C2F0E94C708C82FD0E0DC2FCC27CC27F8
:10143000DF71D0623FCFC1154AE5D40708F45BC025
:10144000CE0190568115904208F059CF8D2F8F71A3
:101450000E94C70890E0982F882788279F719C01D9
:101460002C2BE901E6CFC55AD0E0CD5DDE4FC88117
:10147000D0E0D0641FCFCE01E4E096958795EA9541
:10148000E1F783702C2F26952695237040E2249F48
:1014900090011124382B8C2F8370C1E0D0E002C062
:1014A000CC0FDD1F8A95E2F7C22BD32BDC6802CF6D
:1014B000DC2FCC27C16FD06AFDCECE018370992777
:1014C00021E030E002C0220F331F8A95E2F7C69573
:1014D000C69590E2C99FE0011124C22BD32BDA6894
:1014E000E9CEDC2FCC27C46FD06AE4CEDC2FCC272A
:1014F000C06FD06ADFCE8C2F8F700E94C70834E097
:10150000D695C7953A95E1F7CF709C2FEC01D0693D
:10151000D1CEC9E3D0E0CECEC2EED0E0CBCEC6EE87
:10152000D0E0C8CE80911802882331F010921802C2
:1015300010921702109216020895CF93C82F80912F
:101540006E0482FD0CC0809118028C1741F00E943D
:1015500048069093170280931602C0931802CF9109
:10156000089580959091A20498239093A2040895E1
:1015700080959091BE0298239093BE020895909119
:10158000BE02892B8093BE0208951092140210921D
:10159000130210921202089580918D0390918E0390
:1015A000892B89F00E94480620911602309117027B
:1015B000AC01421B530B81E020918D0330918E03CF
:1015C0004217530708F480E0817008958091BE02AD
:1015D0009091A204892B90911502892B80938C0104
:1015E00080911802882319F180918D0390918E03C8
:1015F000892B29F00E94CC0A81110E94920A8091C5
:101600008C0190911802892B80938C0180911A0192
:10161000882341F180916D0487FF24C08EE1EEE8BC
:10162000F1E090E0815000F591110E94920AE09162
:101630006404F09165043097E1F080911A018823E9
:1016400059F080916D0487FF07C080918C018093D1
:101650008D0186E080938C010280F381E02D8CE87F
:1016600091E0099486E0DBCF21912223D9F29F5F9C
:10167000D9CF0895EF92FF920F931F93CF93DF93EB
:10168000EC018A85811134C0EB80FC8087E5F81A73
:1016900026E12E9DC0012F9D900D1124DC01AE543A
:1016A000BC4F1496ED91FC911597309731F05496FC
:1016B0006D917C9188549C4F099586E18E9D8001A7
:1016C0008F9D100D11240E541C4FF80187810E942C
:1016D000B80AF80180850E94B10A0E94E60A1882C1
:1016E00019861B861E821D821092B1031092B003D0
:1016F000DF91CF911F910F91FF90EF900895CF93BD
:10170000DF93EC018989811118C081E0898B8F8179
:101710000E94BF0A8091A2049885892B8093A2041D
:101720000E94E60AEA81FB81309739F06C897D8955
:10173000CE010696DF91CF910994DF91CF91089564
:1017400080911801877F8093180182E00E94B10A7E
:101750008091180184FF06C08F7E8093180182E07B
:101760000E94BF0A8091180185FF06C08F7D80937B
:10177000180180E20E94BF0A0C94E60A80911102CF
:10178000811110921102089590911A019923D1F0BC
:1017900090916D0497FF16C0E82FE695E695E695C3
:1017A000EE31E0F4F0E0E457FE4F282F277081E09F
:1017B00090E001C0880F2A95EAF7809592818923ED
:1017C00082830895EEE8F1E09191891303C0DF016F
:1017D00011971C9291E0E439F907B1F708959091BF
:1017E0001A019923C1F090916D0497FF14C0E82F5E
:1017F000E695E695E695EE31F8F4F0E0E457FE4F15
:10180000877021E030E001C0220F8A95EAF78281DB
:10181000822B82830895AEE8B1E0EFEF90E02D9146
:10182000821751F0EF3F19F4211101C0E92F9F5F9A
:101830009630A9F7EF3F09F408950E2E000CFF0B28
:10184000E457FE4FE6CF209110029091CF0129136B
:1018500002C080E0089530E0F90153E0EE0FFF1F71
:101860005A95E1F7E053FE4F5181561306C050815F
:10187000581303C05281541304C02F5F3F4F277089
:10188000E6CF81E00895809110029091CF019813E6
:1018900001C008958F5F8770FACF9E3F49F1990F7D
:1018A000990F990FE92FE80F9E2F9770E695E6950F
:1018B000E69583E0E89FF0011124E155FE4F50E0EA
:1018C00040E080E0219130E0092E02C03695279556
:1018D0000A94E2F721703327042E01C0220F0A94E4
:1018E000EAF7822B4F5F5F4F4330510559F7089558
:1018F00080E008959E3F69F1990F990F990FE92FA4
:10190000E80F8E2F877041E001C0440F8A95EAF7F7
:10191000E695E695E69583E0E89FF0011124E15510
:10192000FE4F30E020E070E05191DF011197CB01D4
:10193000022E02C0969587950A94E2F781708195F0
:101940008527842385278C932F5F3F4F23303105D4
:1019500059F70895E92FE295EF70E250EE3070F4F8
:10196000F0E0E853FC4C0C943933803F19F020F43C
:10197000883E20F481E00895843FE1F380E00895FB
:10198000883EC0F3813FD1F7F5CF93FB882780F9DC
:10199000089590E080E00E946A0690E080E00E9456
:1019A00054061092A204109215020E94E60A86E0E4
:1019B000EFE4F2E0DF011D928A95E9F71092490207
:1019C0001092480210924A020C9404078093A104DA
:1019D0000C94C90C8091A104982F9670963019F43C
:1019E00088600C94E60C877FFCCF21E030E001C0DA
:1019F000220F8A95EAF720958091A10482230C9406
:101A0000E60C909114028095892380931402282F6C
:101A1000277091F4282F082E000C330B9217130611
:101A200059F090916E0492FD07C085958595859536
:101A30000E94F50C0C94C50A089521E030E001C025
:101A4000220F8A95EAF78091A104822B0C94E60C70
:101A500090916E0492FD10C098E0899F900111242E
:101A6000622B609314020E941D0D0E944806909301
:101A700013028093120208950C941D0D8093550259
:101A80000C94C90C882321F00E94B10A0C94E60A38
:101A90000895882339F09091A204982B9093A20482
:101AA0000C94E60A0895882321F00E94B80A0C9449
:101AB000E60A0895882321F00E94BF0A0C94E60AE2
:101AC0000895882309F452C0823871F40E94800678
:101AD00081FF4CC089E30E94EF0B0E94E60A89E374
:101AE0000E94C40B0C94E60A833859F40E948006C5
:101AF00080FF3CC083E50E94EF0B0E94E60A83E56D
:101B0000EFCF843859F40E94800682FF2FC087E40B
:101B10000E94EF0B0E94E60A87E4E2CF9CEF980F49
:101B2000913AF0F290E2980F983050F4877091E07B
:101B300001C0990F8A95EAF7892F0E94B80AD2CF7F
:101B40009BE5980F933020F490E080E00C946A06B7
:101B500098E5980F973120F490E080E00C945406BB
:101B6000803F20F00E942B070C94040708959C01ED
:101B70003A9521153F4150F5FC01EE27F170BC016B
:101B800066277270AC01442754709C01222738707C
:101B900094FF0EC080E1EF2B09F480E0672B09F081
:101BA0008062452B09F08064232B89F080680895BA
:101BB00081E0EF2B09F480E0672B09F08260452B70
:101BC00009F08460232B19F08860089580E008955F
:101BD000CF93DF93EC010E94610DCE010E94B70DFF
:101BE0009E01205E31092830310510F0CD2B21F403
:101BF000DF91CF910C94530DDF91CF910C94420D56
:101C000080936F0470937104609370048091A004BA
:101C10008430F9F48093E9008FEF9091E8008150CF
:101C200095FD06C095ED9A95F1F700008111F5CF6D
:101C30008091E80085FF0DC050E040E063E070E077
:101C40008FE694E00E94D3048091E8008E77809321
:101C5000E8000895BC0184E00C94000EBC0183E010
:101C60000C94000E9C0184E08093E9009FEF80912A
:101C7000E800915085FD06C085ED8A95F1F70000DA
:101C80009111F5CF8091E80085FF0CC050E040E055
:101C900066E070E0C9010E94D3048091E8008E776D
:101CA0008093E8000895CF93DF93EC0180911A01AF
:101CB0008823B1F180916D0487FF32C060E284E037
:101CC0008093E9008FEF9091E800815095FD06C068
:101CD00095ED9A95F1F700008111F5CF8091E8001C
:101CE00085FF1BC080911A0170E050E040E0811137
:101CF00004C050E040E068E070E0CE010E94D304F0
:101D00008091E8008E778093E80080E2FE01A5E7ED
:101D1000B4E001900D928A95E1F7DF91CF9108959B
:101D200068E081E0CDCF81E08093E00080E28093A5
:101D3000D8001092C9008FE19EE40197F1F700C02E
:101D4000000087E090EBDC018093A3049093A4044F
:101D5000A093A504B093A60488E19CE00FB6F89484
:101D6000A895809360000FBE90936000FFCF01970D
:101D700008F40895EFE9FFE03197F1F700C00000A3
:101D8000F6CFCF93C82F882309F4AAC08238C1F4B4
:101D90000E94800681FDA4C089E30E94EF0B0E948F
:101DA000E60A2FEF81EE94E0215080409040E1F769
:101DB00000C0000089E30E94C40BCF910C94E60A96
:101DC0008338A1F40E94800680FD8AC083E50E94CA
:101DD000EF0B0E94E60A2FEF81EE94E02150804045
:101DE0009040E1F700C0000083E5E5CF8438A1F41E
:101DF0000E94800682FD74C087E40E94EF0B0E945F
:101E0000E60A2FEF81EE94E0215080409040E1F708
:101E100000C0000087E4CFCF8CEF8C0F813A88F5AB
:101E200080911A01882301F180916D0487FF1CC005
:101E3000EC2FE695E695E695F0E0E457FE4F8281BB
:101E400090E04C2F477021E030E002C0220F331F9A
:101E50004A95E2F782239323892B79F08C2F0E94F5
:101E6000C40B0E94E60A09C0EEE8F1E08191C817B0
:101E7000A9F321E0E439F207C9F78C2F0E94EF0B98
:101E80009CCF80E28C0F883048F4C77081E001C09D
:101E9000880FCA95EAF70E94BF0A8FCFEBE5EC0FD7
:101EA000E33040F4F0E0ED5DFE4F808190E0CF91B3
:101EB0000C946A06E8E5EC0FE73150F4F0E0EE0F21
:101EC000FF1FEA5DFE4F80819181CF910C945406F3
:101ED000C03F30F08C2F0E944608CF910C9404072D
:101EE000CF9108951F93CF93DF93182FC091AB0329
:101EF000D091AC03893321F0C091A903D091AA03FA
:101F0000812F0E94C10E209731F4812FDF91CF9154
:101F10001F910C94610D8FE99FE00197F1F700C0CC
:101F200000002197F0CF0F931F93CF93DF93C42F1F
:101F3000D22FFC0182818823A1F04093AF030E943D
:101F400048069093AE038093AD03C77081E001C053
:101F5000880FCA95EAF7DF91CF911F910F910C94EA
:101F60005A0D1091AF03141339C08091AD039091B5
:101F7000AE030E9439062091A3033091A403821777
:101F8000930760F5C0E2CD0F1D17B9F080E2810F15
:101F9000883040F4177081E001C0880F1A95EAF785
:101FA0000E94530DC83048F481E09D2F977001C006
:101FB000880F9A95EAF70E945A0D802F0E94720F9F
:101FC000C83098F4D77081E001C0880FDA95EAF73D
:101FD000DF91CF911F910F910C94530DC77081E049
:101FE00001C0880FCA95EAF7F3CFDF91CF911F9117
:101FF0000F910895CF93DF93EC010E94B70D9E01DE
:10200000205E31092830310510F0209739F40E9404
:102010005A0D8C2FDF91CF910C94C10E0E94490D67
:10202000F8CF662329F02091A20422602093A20415
:102030009C013056211540E2340720F0305E211516
:10204000304108F499270C94FA0FDF92EF92FF9237
:102050000F931F93CF93DF937C018B01D42E80913C
:10206000180182FF8CC0C091E102D091E202CE152E
:10207000DF0521F0E114F10409F081C0809118011D
:102080008B7F8093180181FD73C08091DF02909156
:10209000E002A801481B590B81E020911601309104
:1020A00017014217530708F480E08170F82E8091E1
:1020B0001801F0FA81F980931801FE0183E0F6958A
:1020C000E7958A95E1F7EE71FF27E154FD4F2081F6
:1020D0003181AE014F70552781E090E002C0880F3A
:1020E000991F4A95E2F7FF2009F444C0822B932BF5
:1020F000918380838091BE0281FF08C08091180186
:1021000080618093180182E00E94B80A8091BE022B
:1021100085FF08C08091180180628093180180E2D9
:102120000E94B80A6F2DCE010E941110DD2031F0FF
:102130008091A60385FF02C086FF3BC08091A90362
:102140009091AA030E94B70E8091E1029091E20261
:102150009C013056211540E2340720F0305E2115F5
:10216000304108F499270E94E80D0E94A00B1DC081
:1021700081E09BCF8095909582239323B9CFC701AF
:10218000992797013056211540E2340728F0305E38
:102190002115304108F0C7010E94E80D8091E1024D
:1021A0009091E2028E159F0501F31093E0020093D7
:1021B000DF02DF91CF911F910F91FF90EF90DF90A1
:1021C0000895AF92BF92CF92DF92EF92FF920F935A
:1021D0001F93CF93DF93EC018AE0A82E288122235E
:1021E00009F48CC02130C9F599818A81913021F49C
:1021F00022960E94720F05C0923029F422960E9406
:10220000C10E2196EBCF933021F422960E94610DEE
:10221000F8CF943011F02196F4CF229630E020E0F0
:10222000AE014F5F5F4F8053990B8A30910550F09C
:102230002150310930F38FE99FE00197F1F700C099
:102240000000F6CFA29EB001A39E700D11249C0148
:10225000260F371F8981EA01E3CFE22FF0E0E65035
:10226000FE4FB490822F86958695869590E0FC016E
:10227000E651FE4FE4902770F12C022E02C0F59437
:10228000E7940A94E2F731E0E322FF24FC01E652EE
:10229000FE4FC490D12C022E02C0D594C7940A944C
:1022A000E2F731E0C322DD24FC01E653FE4F049146
:1022B00010E002C0159507952A95E2F701701127E5
:1022C000E114F10419F081EE0E94C10EC114D10491
:1022D00019F086EE0E94C10E8B2D0E94720FCD2840
:1022E00019F086EE0E94610DEF2819F081EE0E9430
:1022F000610D012B09F485CF8CE27BCFDF91CF916B
:102300001F910F91FF90EF90DF90CF90BF90AF9013
:1023100008950F931F93CF93DF930BE813E0C7E467
:10232000D2E0CE010E947C33F80181938F01219687
:10233000C936F2E0DF07A9F7CCE1D7E0FE018591CD
:102340009491009711F0FC0109952896F7E0C43BA1
:10235000DF07A1F7DF91CF911F910F9108950F93A0
:102360001F93CF93DF93843038F5623028F528E04F
:10237000829FC001112434E0639FB0011124860FB5
:10238000971FC42FD0E0CC0FDD1FC80FD91FC95D28
:10239000DD4FCE010E947C33082F10E0102F002764
:1023A000CE0101960E947C339801282BC901DF9150
:1023B000CF911F910F91089590E080E0F8CF0F9397
:1023C0001F93CF93DF93843038F5683028F5483079
:1023D00018F520E1629F8001112450E0440F551F41
:1023E000040F151F30E8839FC0011124080F191F27
:1023F000C80187960E947C33C82FD0E0DC2FCC2701
:10240000C80188960E947C339E01282BC901DF9168
:10241000CF911F910F91089590E080E0F8CF462F63
:102420002091BC023091BD02232B91F47E3F39F400
:102430006E3F71F48091BA029091BB02089584308E
:1024400038F4783028F4683018F4672F0C94DF11D2
:1024500090E080E00895CF92DF92FF920F931F9358
:10246000CF93DF936C010091A10480915502082B5A
:10247000C7E0D0E010E0FC2EC8010C2E02C09595FC
:1024800087950A94E2F780FD0CC02197A0F7F12C04
:102490008F2DDF91CF911F910F91FF90DF90CF9003
:1024A0000895B6018C2F0E940F120E940A0901970D
:1024B00061F3EECFCF93DF93EC010E942B12BE01AC
:1024C0000E940F12DF91CF910C940A09FC018681C2
:1024D0009781009721F00E940A090C94AA0C808130
:1024E00091810E945A12F9CF1F93CF93DF9300D0AE
:1024F00000D00F92CDB7DEB749835A8389819A8184
:102500006623B9F02223A9F00E942B12182F682FFE
:1025100089819A810E947A0C69817A81812F0F903A
:102520000F900F900F900F90DF91CF911F910C940F
:102530000F120E944D0C182FEFCFFC01262F868121
:102540009781009739F44081518162817381848140
:102550000C947412089583E290E00E947C33893CCD
:1025600089F484E290E00E947C338A3959F485E250
:1025700090E00E947C3391E0873309F090E0892F4E
:102580008170089580E0FCCFCF9384E090E00E94BA
:102590007C33C82F82E290E00E947C33982F8C2FEE
:1025A000CF9108950F931F93CF93DF930BE813E020
:1025B000C7E4D2E0CE010E947C33F80161918F0123
:1025C000681719F0CE010E948A332196C936F2E0CD
:1025D000DF0781F7DF91CF911F910F910895EBE80D
:1025E000F3E0128E138E8FEA90E09183808385E072
:1025F000848F88E893E1938382834CE251E0558392
:10260000448322E330E03783268385E090E091879E
:1026100080878AE090E09387828764E170E0758725
:1026200064875787468744E650E0518B408B48E0EB
:1026300050E0538B428B48E250E0558B448B378BF4
:10264000268B28EC30E0318F208F158E978F868F68
:1026500080E590E091A380A30E94D2120C9489118E
:10266000CF93DF93C9E0D3E060E0CE010E948A33CC
:102670002196C11584E0D807B9F7DF91CF9108956D
:102680000F931F93CF93DF938901843068F56230F5
:1026900058F5423048F501152CE5120731F4209128
:1026A000B8023091B902232BF9F028E0829FC001D3
:1026B000112424E0629FB0011124860F971FC42FBC
:1026C000D0E0CC0FDD1FC80FD91FC95DDD4F612FD2
:1026D000CE010E948A33602FCE010196DF91CF9107
:1026E0001F910F910C948A33DF91CF911F910F911D
:1026F00008950F931F93CF93DF938901843058F58A
:10270000683048F5483038F501152CE5120731F4EA
:102710002091B8023091B902232BE9F090E1699F32
:10272000E001112450E0440F551FC40FD51F20E8CD
:10273000829FC0011124C80FD91F612FCE01879637
:102740000E948A33602FCE018896DF91CF911F912E
:102750000F910C948A33DF91CF911F910F910895BF
:10276000CF93C82F6FEF811169EC83E290E00E9454
:102770008A336FEFC1116AE984E290E00E948A33E4
:102780006FEFC11167E385E290E0CF910C948A333B
:10279000CF93C0916E04C2FB992790F9981799F0D6
:1027A00080FBC2F9C0936E0460916D0484E090E0F8
:1027B0000E948A336C2F82E290E00E948A3382E08A
:1027C000CF910C94010DCF9108957F928F929F929B
:1027D000AF92BF92CF92DF92EF92FF920F931F932F
:1027E000CF93DF93CDB7DEB764970FB6F894DEBF13
:1027F0000FBECDBFA090B802B090B90281E090E0CA
:102800009093B9028093B80286E1C82E85E0D82E55
:1028100010E0760100E015C0F40125913491472DB8
:10282000602F812F0E94791382E0880E911C73948F
:10283000E8E07E12F1CFF0E1EF0EF11C0F5F0830FF
:1028400019F04701712CE8CF21E030E040E060E072
:10285000812F0E94401321E030E041E060E0812FB1
:102860000E94401321E030E040E061E0812F0E94AF
:10287000401321E030E041E061E0812F0E944013ED
:102880001F5F80E8C80ED11C143009F0C2CF0E942F
:10289000EF121A8219821C821B821E821D821886E8
:1028A0001F8288EC90E09A87898709E612E04AE067
:1028B00050E0B801CE0101960E94AE33065F1F4F73
:1028C000093BE2E01E0799F77E01FBE0EF0EF11CE9
:1028D0008AE0F70111928A95E9F74AE050E0B801E1
:1028E000C7010E94AE33065F1F4F0930F3E01F0798
:1028F000A1F7B092B902A092B80264960FB6F8940C
:10290000DEBF0FBECDBFDF91CF911F910F91FF9022
:10291000EF90DF90CF90BF90AF909F908F907F907F
:10292000089580E00E94B01360E086E290E00E948B
:102930008A330E94E5130E94301381E00C94B01397
:102940009B01883070F49AE0899FB0011124675987
:102950007D4F4AE050E0C9010E946C3390E080E076
:1029600008958FEF9FEF08958F929F92AF92BF923D
:10297000CF92DF92EF92FF920F931F93CF93DF934B
:10298000CDB7DEB72A970FB6F894DEBF0FBECDBF26
:1029900002EB13E0F12CE12C8FE6C82E89E2D82E51
:1029A00099E9A92E99E2B92E24E8822E28E2922EE6
:1029B000F801D182C082B382A28295828482F58A94
:1029C000E48ABE016F5F7F4F8E2D0E94A014892B79
:1029D00029F489859A85F801938B828BFFEFEF1A92
:1029E000FF0A0A5E1F4F88E0E816F10409F72A96ED
:1029F0000FB6F894DEBF0FBECDBFDF91CF911F9110
:102A00000F91FF90EF90DF90CF90BF90AF909F908D
:102A10008F900895CF92DF92EF92FF920F931F93C2
:102A2000CF93DF93CDB7DEB72A970FB6F894DEBF0A
:102A30000FBECDBFE8E6F2E080E5DF011D928A958A
:102A4000E9F7E7E4F3E088E3DF011D928A95E9F70F
:102A500088E6C82E82E0D82E7F0109EB12E0F7014C
:102A6000D182C0824AE050E0B801CE0101960E94B6
:102A70006C3388E0FE013196D60101900D928A9563
:102A8000E1F789859A85D70113969C938E931297C7
:102A9000BAE0CB0ED11CE7E0EE0EF11C065F1F4F33
:102AA0000930F3E01F07D9F62A960FB6F894DEBF77
:102AB0000FBECDBFDF91CF911F910F91FF90EF908F
:102AC000DF90CF9008951092BE0280911A01EEE837
:102AD000F1E0882359F080916D0487FF07C08EE1F3
:102AE000DF011D928A95E9F70C94C90C86E0F8CFB6
:102AF0001F93CF93DF93CDB7DEB7AA970FB6F894A5
:102B0000DEBF0FBECDBF88E994E02091F100DC016B
:102B10002D93CD01B4E0803A9B07B9F780919904D9
:102B2000833009F472C0B8F4813009F449C08230AE
:102B300009F4B3C08091E80083FF96C280919804A5
:102B4000909199049A3008F08FC2E92FF0E0EA5290
:102B5000FC4C0C9439338A3009F48EC08B3009F464
:102B600071C0893039F780919804813219F78091CA
:102B70009C0490919D04009711F00297D9F68091E2
:102B8000E800877F8093E8008091E80082FF38C0EA
:102B90009091F3008091F200029731F48091F1005E
:102BA000813011F0863021F48091F100809374041B
:102BB0008091E8008B778093E8000E942505BACFCA
:102BC00080919804813A09F0B5CF8091E800877F21
:102BD0008093E80080919C0490919D04892B61F47E
:102BE00060E285E794E070E00E94D7058091E800FC
:102BF0008B778093E8009ECF60E090E080E0F3CF99
:102C00008091A0048111C0CF95CF80919804813A22
:102C100009F090CF80919C0490919D04892B09F03C
:102C200089CF8091E800877F8093E8008091E80059
:102C300080FFFCCF80911A018093F1008091E80021
:102C40008E77B9CF80919804813209F073CF80914B
:102C50009C0490919D04892B09F06CCF8091E80031
:102C6000877F8093E8000E94250580919A048093D5
:102C70001A010E9463155ECF80919804813209F099
:102C800059CF8091E800877F8093E8000E94250556
:102C900080919B04809373044DCF80919804813A76
:102CA00009F048CF8091E800877F8093E800809109
:102CB000E80080FFFCCF80917304BECF803899F08C
:102CC000823809F0D1C180919C048F70873008F060
:102CD000CBC18093E9008091EB0085FB882780F9C8
:102CE0001092E90006C0809195049091960491118C
:102CF00082609091E800977F9093E8008093F100C4
:102D00001092F1008091E8008E77AAC1882309F41F
:102D100098C1823009F0A8C180919A0481119BC1A9
:102D200080919C048F702FEF280F263008F09CC1F3
:102D30008093E9002091EB0020FF8DC1933031F4A6
:102D40008091EB0080628093EB0085C19091EB0055
:102D500090619093EB0021E030E001C0220F8A9552
:102D6000EAF72093EA001092EA008091EB00886075
:102D7000EACF811179C110919A041F778091E30005
:102D80008078812B8093E3008091E800877F809397
:102D9000E8000E9425058091E80080FFFCCF80912B
:102DA000E30080688093E30082E0111183E0809368
:102DB000A0045AC18058823008F056C120919A046C
:102DC00030919B042C3DE3E03E07A1F583E08A832C
:102DD0008AE289834FB7F894DE01139620E03EE043
:102DE00051E2E32FF0E050935700E49120FF03C03D
:102DF000E295EF703F5FEF708E2F90E0EA30C0F009
:102E0000C7968D939D932F5F243159F74FBF8091C3
:102E1000E800877F8093E8006AE270E0CE010196C7
:102E20000E94D7058091E8008B778093E8001CC151
:102E3000C096E7CF80919C0490919D04432F552725
:102E40004330510509F44AC078F54130510509F481
:102E500085C08BE590E0EEEAF7E04230510509F0DD
:102E600003C12091E800277F2093E80020919E0471
:102E700030919F048217930708F49C0140E02115CC
:102E8000310509F070C041116EC08091E80082FDEB
:102E9000C9CF8091A004882329F2853019F280914E
:102EA000E80083FFF2CFBECF4132510509F447C09D
:102EB0004232510509F0D8C08330910508F0D4C0E2
:102EC000FC01EE0FFF1FE358FE4F0190F081E02D53
:102ED00086589E4FDC018C9190E01DC03327213035
:102EE0003105E9F02115310579F022303105F9F08D
:102EF0002330310509F0B8C0EBE1F8E0E4918E2F02
:102F000090E0EBE1F8E007C0EFE6F8E0E4918E2F07
:102F100090E0EFE6F8E0009709F4A6C0A2CFE9E45C
:102F2000F8E0E4918E2F90E0E9E4F8E0F4CFE9E3F3
:102F3000F8E0E4918E2F90E0E9E3F8E0ECCF833005
:102F4000910508F091C0880F991FFC01ED57FE4FC5
:102F50000190F081E02D89E090E083CF82E190E064
:102F6000E9E0F8E07ECF8091A004882309F45ACFED
:102F7000853009F457CF8091E80083FD53CF8091CD
:102F8000E80082FD82CF8091E80080FF78CF9091A9
:102F9000F3008091F2002115310519F08830910578
:102FA00050F041E0089709F040E08091E8008E770A
:102FB0008093E80064CF44914093F1003196215012
:102FC00031090196E8CF803809F04EC08091E800C1
:102FD000877F8093E800809197048093F10092CEE0
:102FE000811142C010919A041230F0F58091E800EE
:102FF000877F8093E800109397040E942505112392
:1030000011F084E005C08091E30087FDFACF81E0F4
:103010008093A00442E061EC81E00E94440542E21A
:1030200061EC84E00E94440542E261EC82E00E948F
:10303000440542E260EC83E00E9444058091A004D4
:1030400013C080919A04813079F481E0933009F0C3
:1030500080E0809396041092E9008091E800877FD9
:103060008093E8000E9425058091E80083FF0AC054
:103070008091E800877F8093E8008091EB00806278
:103080008093EB00AA960FB6F894DEBF0FBECDBFBB
:10309000DF91CF911F9108956AEE7EEF90E080E07E
:1030A0000E94A83360E082E090E00E948A3360E0F2
:1030B00083E090E00E948A331092550260E084E041
:1030C00090E00E948A3360E082E290E00E948A33BE
:1030D00060E085E090E00E948A3360E086E090E066
:1030E0000E948A336FEF87E090E00E948A3340E0CD
:1030F00050E0BA0188E090E00E949C3360E08DE0EF
:1031000090E00E948A3340E050E0BA0188E190E00C
:103110000E949C3360E087E190E00E948A3340E0A7
:1031200050E0BA018CE190E00E949C3370E060E0D6
:1031300080E290E00E94A83340E050E0BA0188E1CC
:1031400090E00E949C3380E00E94B0130E94911492
:1031500040E050E0BA018FE090E00E949C3340E0F4
:1031600050E0BA0183E190E00C949C338F929F92DF
:10317000AF92BF92CF92DF92EF92FF920F931F9385
:10318000CF93DF9300D000D0CDB7DEB77C01DC0158
:1031900013964D915C91149711966C9111978C91A7
:1031A0000E948C06811179C061E0C7010E949D12C6
:1031B0008C01F7018281811111C0D70112968C9187
:1031C000811149C00031FFE51F0709F4EEC001314C
:1031D0002FE5120709F007C782E0E8C080910001DF
:1031E00090910101019649F362EBC62E63E0D62E61
:1031F000B12CA12C9924939480910001909101010C
:103200008A159B05D4F2F60186818823E9F0818531
:1032100092850817190739F48091B0039091B10392
:103220000817190789F0D6011F969C921F971C96C4
:103230001C930E931B97C6010E947F0BC601069636
:103240000E943A0B1092A204BFEFAB1ABB0AE6E150
:10325000CE0ED11CD1CF980122513F4520313105EE
:1032600008F0B7C68FEF93E00E947C335EEED52E58
:10327000D00E09E013E0882369F180911402877071
:1032800061F0D70112968C91882339F080916E04F9
:1032900082FD03C082E00E94010D0F900F900F90FD
:1032A0000F90DF91CF911F910F91FF90EF90DF90E2
:1032B000CF90BF90AF909F908F9008950115F4E04C
:1032C0001F07D9F2C8010E947C33811101C0DA9432
:1032D0000F5F1F4FD110F2CF19821A821B821C82FE
:1032E000CC24CA9448012FEF821A920AC8010E9486
:1032F0007C3389831A82882309F4BFCF813009F097
:1033000048C0580132E0A30EB11CC4010E947C33B6
:10331000982E8A83882309F4B0CFC5010E947C339C
:10332000D82E8FEF890D833068F4580143E0A40E46
:10333000B11CDB82DD2021F0CE0101960E94E1105C
:103340008501D0CF54E09512FBCF580184E0A80E40
:10335000B11CC80103960E947C33DD2009F48DCF97
:10336000882309F48ACF8150990BC89E9001C99E89
:10337000300D1124AD2DA150BB0BCD01820F931F39
:103380000197F0F2EFE9FFE03197F1F700C000009C
:10339000F7CFCE0101960E94E1105401D1CF81E018
:1033A0000E941D0D0E94EA0C68CF81E00E94F50C7E
:1033B000F9CF82E0F5CF4FEFC416D10411F008F039
:1033C0001EC66EE572E08C2D0E94A014892B29F593
:1033D00086E18C9DF0018D9DF00D1124EE54FC4F83
:1033E0008681813009F062C080915E0290915F0217
:1033F000892B99F08091600290916102892B69F08C
:103400008091620290916302209164023091650282
:10341000822B932B892B09F453C08091000190914A
:1034200001018C159D0524F4D0920101C092000188
:10343000F701828196E19C9D50019D9DB00C112465
:1034400095012E543C4F6901D90150968C935097A9
:10345000928116968C911697992309F43FC01A967B
:103460001C930E9319978F5F16968C930E944806B3
:10347000F601968785878091180287838091A20440
:103480009091BE02892B80870190F081E02D3097CA
:1034900041F0D60154966D917C91C50188549C4FA2
:1034A00009951093B1030093B003A9C5823009F0C8
:1034B000B4CF8091620290916302892B09F4ADCF61
:1034C00026E12C9DC0012D9D900D11248E549C4F02
:1034D000DC0150961C920E947F0B9FCF882309F439
:1034E0008EC5F9018189882309F489C5C5018854ED
:1034F0009C4F0E943A0B83C5809118018160809394
:103500001801ABC5809118018E7F809318010E942D
:10351000A00BA3C5809118018F7E013E110531F0EB
:10352000053E1105C9F4809118018F7D8093180123
:103530008091180180FFA0C5D70112968C910832A6
:10354000110528F50E31110508F074C0043011057D
:1035500080F581118DC590C5C8019056811540E256
:10356000940720F0905E8115904110F7809118012A
:1035700082FF82C58091A80381FD7EC52CE132E0E7
:1035800040E0B60190E080E00E94251075C5093347
:10359000110558F40D32110518F40B321105C9F656
:1035A0009091A60392FDD5CF08C004361105C1F352
:1035B000D0CF9091A60394FDCCCF882309F4A1C06D
:1035C0009091BE0280911802282F292B322F3D7F27
:1035D000B1F11092E2021092E1023091A60331FDA6
:1035E0002EC0F80143E0F695E7954A95E1F7EE71B4
:1035F000FF27E154FD4F98012F70332781E090E0C1
:1036000002C0880F991F2A95E2F780959095208136
:103610003181822393239183808360E0C8010E94DB
:103620001110809118028D7F0E949D0A82E00E94F5
:10363000010D23CE9091A60393FD8BCFBECF38E032
:10364000F701ACE1B2E001900D923A95E1F71092EA
:103650001E021092200210921F02A090E102B09070
:10366000E2020A151B05B1F53091A60335FF32C001
:103670004091180141FB992490F841FF02C036FFA8
:1036800029C04091DF025091E002B601641B750B26
:103690004091A3035091A40364177507D8F491FFD8
:1036A00008C08091180180618093180182E00E9417
:1036B000B80A8091BE0285FF08C08091180180621F
:1036C0008093180180E20E94B80A692DC5010E940A
:1036D0001110D3CD9091180121FB91F9909318010D
:1036E0008D7F0E949D0A1093E2020093E102D09226
:1036F000E002C092DF02809118018460809318017B
:1037000095CF970140E0B601C8010E942510B5CDC4
:10371000053F4CE5140709F467C008F45FC0063F95
:103720008CE5180709F466C0D70112963C91332343
:1037300009F4C1C41092AF030330BDE51B0708F0C4
:1037400065C00A3FECE51E0730F4C80182509C4575
:10375000449708F060C00E94C41290936E04809356
:103760006D0400312CE5120709F461C108F0DDC0D9
:1037700008304CE5140709F448C108F0AFC0043024
:103780008CE5180709F433C108F095C00230ACE5A8
:103790001A0709F426C180916D04826003301C452C
:1037A00009F422C160916D0410916E0484E090E0F0
:1037B0000E948A33612F82E290E00E948A330E9445
:1037C00063155BCD07E225EE45EE68ED7CE56FC441
:1037D00006E221EE40EE63EF7CE569C407E225EEE8
:1037E00044EE64EF7CE563C406E221EE42EE65EF51
:1037F0007CE55DC407E225EE46EE66EF7CE557C446
:1038000008E221E045EE69ED7CE551C40136FDE5B5
:103810001F0709F4A0CF06315CE5150709F44FC472
:103820000A354DE5140709F453C108F02FC10115FD
:103830008CE5180709F43CC10E3D1C4509F445C14F
:10384000F70186819781009709F446C10E940A0911
:10385000182F092FF701D280C580C2943FE0C32200
:10386000809114028770C1F0AD2CDD20B1F0892F5A
:10387000807F803421F080E2810F883068F0809171
:103880006E0482FD09C082E00E94010D8091140245
:103890008770AA24A3948111A12C902E92942FE0DA
:1038A0009222FBE0F91508F4A4C1E92DF0E0E05202
:1038B000FC4C0C94393380916D0480610630ECE54A
:1038C0001E0709F491C080916D04886007301C4583
:1038D00008F48AC080916D04806286C080916D0476
:1038E0008D7F0C302CE5120709F47EC070F48091B6
:1038F0006D048C600A304CE5140709F475C008F4B7
:1039000088C080916D048E7F6FC00E308CE51807E3
:1039100009F485C080916D048B7F0F301C4508F43D
:1039200063C080916D048F7E5FC00C3FACE51A07C9
:1039300009F479C068F50431ECE51E0709F48BC081
:1039400080F402312CE5120709F475C080916D04F2
:103950008F7B03311C4508F447C080916D04837F41
:1039600043C00A3F4CE5140709F445C008F049C0BC
:1039700005311C4509F016CF80916D0482FB992713
:1039800090F921E0922790FB82F990FB83F92CC0FB
:1039900001159DE5190709F454C088F480916E045F
:1039A00083600E3FBCE51B0749F180916E048D7F5B
:1039B0000F3F1C4518F180916E048C7F1FC00230B0
:1039C000FDE51F0709F456C008F44EC001361D4539
:1039D00009F0E8CE90916D04892F8F7E94FF80616D
:1039E00003C080916D04816080936D04DBCE809173
:1039F0006D048460F9CF80916E04816080936E04C1
:103A0000D1CE80916E048260F9CF80916D04806484
:103A1000EBCF0E94631580916D048068E5CF8091A3
:103A20006D04877FE1CF80916E048E7FE7CF809118
:103A30006D048F7DD9CF0E94631580916D048F77BF
:103A4000D3CF80916E04982F909591708E7F892BA3
:103A500090FB81F9D3CF0E94631590916D04892F5B
:103A600097FB87F98058C0CF61E08EE090E00E941C
:103A70008A3398CE60E0F9CF8091AC01811104C007
:103A800089E20E94C40B46C385E3FBCF0B35ADE54D
:103A90001A0701F10C351D4509F0D2CE80916E0454
:103AA00082FB882780F991E089270E94C813C8CE3D
:103AB0000E946315EFEFF4E32CE0E150F04020406A
:103AC000E1F700C000000E94930E0E944C18D5CB75
:103AD00081E0EBCF80E0E9CF8281008111818823F2
:103AE00069F0C8010E942B12D82E682FC8010E94CD
:103AF0007A0CB8018D2D0E940F12A8CEC8010E9429
:103B00004D0CD82EF6CF202F2F70B22E802F807F15
:103B100019F0B29490EFB922DD20A9F0BB2059F042
:103B200080E2810F883010F0111107C08B2D0E94A8
:103B3000BF0A0E94E60A812F5AC08091A204B82AC7
:103B4000B092A204F6CF812F0E94610DBB2009F430
:103B500050C080E2810F883010F0111104C08B2D0D
:103B60000E94B80A03C08B2D0E94B10A0E94E60A87
:103B700040C0302F3F70B32E802F807F803219F0ED
:103B8000B29480EFB822112321F1113009F4A4C0BE
:103B9000DD2009F4ADC0CC2009F47DC020E0D701C0
:103BA0004C9111965C91119712966C911297139605
:103BB0007C91139714968C910E9474128091A803A3
:103BC00081FDB9CFF701858180FFB5CF8F708583E7
:103BD00062C080916E0482FF40C0DD20C1F1BB2035
:103BE00029F08B2D0E94BF0A0E94E60A80E00E9405
:103BF000C10EA92DA850BB0B149710F40E9480068B
:103C0000812F902F0E94AA0C8111C4C11092AE0185
:103C10001092AD01AA20B1F08091140280FD12C073
:103C2000D70112961C928595859585950E941D0D4C
:103C3000C7010E94B61880911402859585958595D7
:103C40000E94F50C60E0C7010E949D1226CB80E027
:103C50000E94610DBB2069F282CFDD2001F1C1100D
:103C600004C0809118028B2917C041E0C41206C01D
:103C7000809118028B290E949D0ABBCF8091A703D7
:103C8000823078F3C812EDCF0E94920A809111021F
:103C9000B812B09211028B2D0E945A0DAACFC110FA
:103CA00006C00E94920A8B2D0E94530DA2CF8091D4
:103CB000A70351E0C5120BC0823008F49ACF80915F
:103CC000BE028B2109F495CF0E94BE0BEACF823051
:103CD00040F3C812E6CF8DCFDD2029F085E08C15AA
:103CE00008F487CFD8CF94E09C1508F482CFDBCFBF
:103CF000CC20C9F28091AB039091AC03193321F031
:103D00008091A9039091AA030E94B70E812F0E946F
:103D1000610D6FCF802F86958695837069F0813015
:103D200009F067CF812F902F9370D11002C090E0DF
:103D300080E00E9454065DCF812F902F9370D110A8
:103D400002C090E080E00E946A0653CF812FDD2000
:103D500029F00E9446080E9404074BCF0E942B07BF
:103D6000FACF802F837091F5D11043CF412F429528
:103D700046954770440F440F812F8F70042E01C069
:103D8000880F0A94EAF7212F207114FF07C02FE053
:103D900030E001C0220F4A95EAF72095302F369582
:103DA00036953370323069F050F44091550231301D
:103DB00029F0822B84230E943E0D1BCF842B822B63
:103DC000FACF282B809155028227F5CF8695DD20EA
:103DD00011F0802F8170882309F40BCF412F429579
:103DE00046954770440F440F812F8F70042E01C0F9
:103DF000880F0A94EAF7212F207114FF07C02FE0E3
:103E000030E001C0220F4A95EAF72095302F369511
:103E100036953370323069F050F44091A10431305E
:103E200029F0822B84230E94E60CE3CE842B822B84
:103E3000FACF282B8091A1048227F5CFF02FFF70B5
:103E4000BF2EDD2029F08F2F0E941D0D812F24CF42
:103E5000812F0E94530D8B2D0E94F50CCACE123F6C
:103E600089F160F4103FB9F0113F81F0DD2009F4D1
:103E70008CC0C11060CE802F8F7128C0133F49F1D4
:103E8000143FA1F780916E0482FF2FC0802F8F71A5
:103E9000DD2011F31BC0DD2081F024E02C1508F497
:103EA000A8CE202F2F7181E090E001C0880F2A95C5
:103EB000EAF79091A1048927B6CF35E03C1508F4C4
:103EC00098CEEFCF802F8F71D110C6CF0E941D0DDD
:103ED00090CE80E0DD2009F4A6CF81E0902F9F7185
:103EE00001C0880F9A95EAF79ECF8091A703823090
:103EF000A0F180911102DD20F1F00E94B80A8091BA
:103F000014028770843041F40E94C50A802F8F719B
:103F10000E94F50CA12C6DCE8091A703C816D0F796
:103F2000402F4F71B42E842F0E941D0D63E08B2D06
:103F30000E94280DEFCF0E94BF0A8091A703C816E8
:103F400040F00E94C50A0E94BE0B64E0802F8F7172
:103F5000EFCF81E00E94010DDDCFDD2059F0502F21
:103F60005F71B52E852F0E941D0D63E08B2D0E9481
:103F7000280D3FCE81E00E94010D81E08C1508F0F4
:103F800038CE82E00E94010D34CEC110B3CE802F16
:103F90008F7162CFDD2019F0C11038CE3BCEC11039
:103FA00035CE20E0F70140815181628173818481A7
:103FB0000E9474128091A80383FF28CE8091AD01E6
:103FC0009091AE01029709F021CE812F0E94720FCD
:103FD0001DCE0031BFE51B0709F4E1C90131EFE552
:103FE0001E0709F4E6C9680127E5D21A882309F4F7
:103FF000E2C93FEFC316D10409F008F40ECA80915C
:10400000A60380FF39C00E9448066C01D7011296B2
:104010008C91882309F47ECA8091180182FF08C020
:104020002CE132E040E0B60190E080E00E942510F3
:104030000B31BCE51B0709F45FCA0C31ECE51E0728
:1040400009F460CA90911801892F8E7F90FF8160DA
:104050000A31FCE51F0709F458CAC80190568115BA
:1040600020E2920728F0905E8115904108F060CA26
:104070001092E2021092E102033FBCE51B0709F433
:10408000A7CB08F045CB083DFCE51F0709F49ACB08
:10409000093D2CE5120709F4B3CB073D3CE51307B6
:1040A00009F042CB06E221EE41EE67ED7CE5C70167
:1040B0000E94930FE2C806311C4509F0C1CB8091E4
:1040C000BE02982F9A7A2091A50320FF04C0482FA2
:1040D000447409F090E021FF04C0482F417109F0B9
:1040E00090E022FF04C0482F487809F090E023FFB9
:1040F00003C0827209F090E0332309F4BDCC81E063
:10410000911101C080E08093AC0189E2911185E3B7
:104110000E94EF0B0E94E60AB0C8CF92DF92EF92A6
:10412000FF920F931F93CF93DF938091CC01807FF9
:1041300031F48091C901C091100281110BC0DF914F
:10414000CF911F910F91FF90EF90DF90CF90089546
:104150002196C7708091CF018C1789F3F090C70129
:10416000E090C801C090CA01D090CB01A6016E2D8D
:104170008F2D0E948C06D0E08111EACF8E0183E062
:10418000000F111F8A95E1F7F801E053FE4F81817E
:104190008E11DECF80818F11DBCF82818111D8CF4C
:1041A000E380F480EC18FD0860E087EC91E00E9469
:1041B0009D128091A3039091A403E816F90640F69E
:1041C0008091CC018F7080618093CC01F801EB521B
:1041D000FE4F80818F708061808387EC91E00E9428
:1041E000B618DF91CF911F910F91FF90EF90DF9064
:1041F000CF900C94430C3F924F925F926F927F92BC
:104200008F929F92AF92BF92CF92DF92EF92FF92E6
:104210000F931F93CF93DF93CDB7DEB765970FB69C
:10422000F894DEBF0FBECDBF8C0185E0F801DE0142
:10423000519601900D928A95E1F7D8014C90119614
:104240005C9011971296EC9012971396CD90DC909B
:1042500060E087EC91E00E949D1287ECA82E81E03F
:10426000B82E8090CA019090CB01A4016091C80142
:104270008091C7010E948C068111CAC1F090C901CA
:10428000F601E819F9094F0160E0FF2009F46DC15A
:10429000C5010E949D126090A3037090A40330900A
:1042A000CC018614970408F013C14091CA015091C3
:1042B000CB01B090C701A090C801832D807F6A2DEB
:1042C00009F0ADC08B2D0E948C06FE2C81113BC0E5
:1042D000D80111968C9111978A1135C08C918B1150
:1042E00032C02091CD013091CE0116968D919C91D6
:1042F0002817390741F5E11026C0832D8F708061A2
:104300008093CC0187EC91E00E94B6188091CC019B
:10431000F80185838F2D65960FB6F894DEBF0FBE2A
:10432000CDBFDF91CF911F910F91FF90EF90DF9064
:10433000CF90BF90AF909F908F907F906F905F9045
:104340004F903F900895F4EF6F16F1E07F0620F450
:104350008091A80380FF21C0A601652D842D0E94B5
:104360008C06811118C081E08E2580FF16C04E2D6D
:10437000652D842D0E94230C882379F087EC91E031
:104380000E94B61888E0E7ECF1E0DF011D928A9503
:10439000E9F7F12CBFCF80E0E8CFA601652D842D91
:1043A0000E948C06811124C081E08E25B82FB17047
:1043B000CB2E80FF2BC04E2D652D842D0E94230C0B
:1043C000D82E811123C0498A5A8A89899A890E94E4
:1043D0005A12292F22952F70223060F0243088F451
:1043E0009F7061F0F8019581907F41F4FD2C92CF90
:1043F00080E0DCCF9F7011F08823C1F3805E8830AD
:10440000A8F3C8010E94B618DC2CF0CFEE2009F406
:1044100081CF8091CC0181608093CC01BACF8B2D6C
:104420000E948C06811124C0D80111968C9111979D
:104430008A111EC08C918B111BC02091CD0130912F
:10444000CE0116968D919C9117972817390781F404
:10445000E1100EC015963C92C8010E94B61888E083
:10446000F801A7ECB1E001900D928A95E1F752CFE7
:10447000C8010E946612882339F1EE2029F180914B
:10448000CC018032A0F02091C7013091C8013A8759
:1044900029871B86DD86CC868E878091CD01909101
:1044A000CE01988B8F87CE0109960E94B61888E0BE
:1044B000F801A7ECB1E001900D928A95E1F70E9416
:1044C0008D20FF24F39426CFC8010E94B618F9CF9F
:1044D000832D807F09F452CF9090C7018090C8014E
:1044E0004091CA015091CB01682D892D0E948C0604
:1044F00081111CC0F8018181881118C08081891147
:1045000015C02091CD013091CE0186819781281769
:10451000390761F4E1100AC03582C8010E94B6185B
:1045200088E0D5011D928A95E9F7F4CEC8010E9472
:104530006612882349F2EE2039F28091CC01803254
:1045400008F4B5CF2091C7013091C8013A8329837F
:104550001B82DD82CC828E838091CD019091CE0131
:1045600098878F83CE010196A0CF87EC91E00E94BF
:104570009D128091A3039091A4038816990680F65A
:10458000FE2CEE2009F4A0CFE090C701D090C80126
:104590004091CA015091CB016D2D8E2D0E948C0649
:1045A000811128C0F80181818D1124C080818E1174
:1045B00021C02091CD013091CE01868197812817AD
:1045C0003907C1F48091A80382FD49CF9091CC01B5
:1045D00090FD45CF907F09F442CF8091CC01858337
:1045E000903F09F439CF982F907F905F8F70892B7F
:1045F000858332CFC8010E946612811158CF809105
:10460000CC0181608093CC01C8010E94B61882CE93
:10461000EE2009F459CFC8010E946612F82E8823B3
:1046200009F452CF88E0F801A7ECB1E001900D92B7
:104630008A95E1F78091C7019091C8010E945A12B2
:104640000E948D2067CECF93DF93CDB7DEB7609702
:104650000FB6F894DEBF0FBECDBF29873A874B87D0
:104660005C876D877E878F87988BCE0109960E9425
:10467000FB2081112FC088E0FE013996DE011196E2
:1046800001900D928A95E1F74C855D856A85898553
:104690000E948C0681111EC0A091CF01B0E0CD0117
:1046A000019687709927209110022817190609F1A1
:1046B00093E0AA0FBB1F9A95E1F7A053BE4F98E075
:1046C000FE01319601900D929A95E1F78093CF010A
:1046D0000E94430C809110029091CF01891317C062
:1046E00060960FB6F894DEBF0FBECDBFDF91CF91BD
:1046F00008950E9463151092CF011092100288E075
:10470000E7ECF1E0DF011D928A95E9F7E3CFB8E02D
:104710008B9FC001112480539E4F0E94FB20882351
:10472000F9F28091100290E00196877099278093AA
:104730001002D0CFEF92FF920F931F93CF93DF938E
:104740008091E602882361F0C091E5028CE0F82EAA
:104750008091E602C81758F01092E6021092E50226
:10476000DF91CF911F910F91FF90EF900895EE246C
:10477000E394EC0EE092E5020C2F10E0CF9DE001F7
:104780001124C951DD4F4B815C81698188810E9470
:104790008C0681111BC08E819F81892B21F4888515
:1047A0009985019651F4288139814A815B816C8118
:1047B0007D818E819F810E942323F09EF001F19ED6
:1047C000F00D1124E951FD4F14821382CE2DC0CF7C
:1047D00010928A0310928903109219018091880324
:1047E000809387030E94C5060C949A233F924F92B0
:1047F0005F926F927F928F929F92AF92BF92CF9271
:10480000DF92EF92FF920F931F93CF93DF93C091AC
:10481000870397E0892E01E010E02CE0322E3EEF76
:10482000932E44244394809188038C1315C00E94D6
:104830009A23DF91CF911F910F91FF90EF90DF901E
:10484000CF90BF90AF909F908F907F906F905F9030
:104850004F903F900C94C506D0E0FE01EE0FFF1F75
:10486000E158FC4F80819181889ED001899EB00DD6
:104870001124A95BBC4F14962C911497211157C099
:104880005090E602E7EEF2E030E020E0712C5D01AE
:10489000251508F04AC0E284F384D501CD90DC9060
:1048A0006FEF7FEF612C462D50E0DA01AA0FBB1F9E
:1048B000AC0DBD1D0D90BC91A02D109731F0EA16E6
:1048C000FB0609F4BA016394EECF6F3F7607A1F1BE
:1048D000D80102C0AA0FBB1F6A95E2F77A2AB80175
:1048E00002C0660F771F6A94E2F7AB01415051098D
:1048F00074161506F9F4329EF001339EF00D112462
:10490000E951FD4F889ED001899EB00D1124A95B0D
:10491000BC4F12962D913C9113973783268390823A
:1049200091829187808715964C920E9497062196D6
:10493000C37079CF148213822F5F3F4F3C96A8CF6C
:104940007F928F929F92AF92BF92CF92DF92EF921F
:10495000FF920F931F93CF93DF93CDB7DEB72897C6
:104960000FB6F894DEBF0FBECDBF8E010F5F1F4F95
:1049700088E0F80111928A95E9F784E5C82E81E074
:10498000D82EF12CE12CAA24A394B12C24E6822E5B
:1049900021E0922EF60181916F018F3F09F442C010
:1049A000F894E82FE295EF70F0E021A18F70A50157
:1049B00002C0440F551F8A95E2F7CA01922F982B27
:1049C00091A392A18095892382A3789400C0ECE5FD
:1049D000F1E0712C31E021912F3F09F45FC0A22F4B
:1049E000A295AF70B0E090968C9190E02F7002C0CD
:1049F000959587952A95E2F780FD50C0832F782AF8
:104A0000330F8E169F0639F7F601319780818F3F5D
:104A100011F00E94B00850EA5A95F1F7F801EE0D36
:104A2000FF1D70828FEFE81AF80AE8E0EE16F10435
:104A300009F0B0CF48E050E0B80184E292E00E9473
:104A40004F33DD24D394009709F4D12C892B41F105
:104A500088E0F801A4E2B2E001900D928A95E1F7B6
:104A600081E080931B020E94480690931A02809373
:104A700019028091190290911A020E943906059735
:104A800098F0E4E2F2E0A0E4B2E081918D9322E0BC
:104A9000EC32F207D1F710921B0206C080E0AFCFD4
:104AA00080911B028111E5CF80910001909101015D
:104AB00010E006E1019609F06AC0809119018111A8
:104AC00070C08091A60380FF1EC08091180182FFF4
:104AD0001AC00E9448062091DF023091E002AC012A
:104AE000421B530B209116013091170142175307B7
:104AF00050F02CE132E041E0BC018091E102909164
:104B0000E2020E9425108D2D28960FB6F894DEBF84
:104B10000FBECDBFDF91CF911F910F91FF90EF900E
:104B2000DF90CF90BF90AF909F908F907F9008952F
:104B3000089FF001099FF00D1124EE54FC4FE2880C
:104B4000F388E114F10421F4E090A303F090A403AE
:104B5000089FF001099FF00D1124EE54FC4F86814F
:104B60008823A1F0858596850E943906E816F90606
:104B700068F4109F70011124C7018E549C4F0E944D
:104B80007F0BC70188549C4F0E943A0B1F5F812FF7
:104B900090E020910001309101012817390744F677
:104BA0008CCF8091890390918A03009709F489CF73
:104BB0000E9439062091E3023091E4022817390758
:104BC00008F07FCF9091870380918803981759F060
:104BD0000E94F6231092E4021092E30210928A03DC
:104BE000109289036ECF0E949A2310928A0310922A
:104BF00089030E94C50665CF2F923F924F925F9224
:104C00006F927F928F929F92AF92BF92CF92DF92DC
:104C1000EF92FF920F931F93CF93DF93CDB7DEB741
:104C200069970FB6F894DEBF0FBECDBF942F498BA6
:104C3000252F5A8B6B8B7C8B8D8B4C895D89622FDA
:104C4000892F0E948C06811109C08091AD0190913D
:104C5000AE0101969093AE018093AD018B898111D5
:104C60001092A2041D861E861F86188A85E0FE010A
:104C70007196DE01199601900D928A95E1F7809167
:104C80006E0482FD1EC080918D0390918E03892B4E
:104C9000C1F00E9448062091120230911302821B3B
:104CA000930B20918D0330918E038217930720F090
:104CB0008091140282FFF5C10E94CC0A81110E94EA
:104CC000920A4C855D856A8589850E948C068111D2
:104CD00011C061E0CE0109960E949D126C018B8586
:104CE00027EFC2162CE5D20681F4882321F181E05A
:104CF0008093190129853A854B855C856D857E8574
:104D00008F8598890E942323C5C038EFC3163CE5E0
:104D1000D30629F4882379F00E94E823EBCF49EFEA
:104D2000C4164CE5D40639F4882329F08091190182
:104D30008111F2CFDCCF07E413E0512CB12CA12C70
:104D400022242394312C2EEF422EF80140815181F0
:104D500088248A94982C20E0822F90E0FC01EE0FAA
:104D6000FF1FE40FF51F608171816115710531F03E
:104D7000C616D70609F44C012F5FEECFF12CFFEFDA
:104D80008F169F0609F448C0F8014481F09019017C
:104D90008F2D411180E0F82FF170FF2EF801E58092
:104DA00086819B85992309F40CC1FF2009F409C170
:104DB0006090A1037090A203E11012C0A10101C094
:104DC000440F8A94EAF7842B86838091E3029091C2
:104DD000E4028615970520F47092E4026092E302E3
:104DE000C10102C0880F991F2A95E2F70197F801C7
:104DF00026812817190681F48091890390918A03EE
:104E0000009709F460C00E9439066816790608F018
:104E10005AC021E0F80124835F28FFEFAF1ABF0AD0
:104E2000095F1F4F28E0A216B10409F08ECF8B85D1
:104E3000882309F421C1552009F41EC10E944806A7
:104E400090938A03809389038091E602883010F55D
:104E500091E0980F9093E60298E0FE013996DE010A
:104E6000119601900D929A95E1F73CE0839FC00165
:104E7000112489519D4F28E0FE013196DC010190FB
:104E80000D922A95E1F72FEF3FEFFC013187208744
:104E9000D386C28669960FB6F894DEBF0FBECDBF2B
:104EA000DF91CF911F910F91FF90EF90DF90CF9006
:104EB000BF90AF909F908F907F906F905F904F903A
:104EC0003F902F9008958091870350918803982FE9
:104ED000F0E0E0E0851314C090938703E017F1073A
:104EE00009F49ACF90E0FC01EE0FFF1FE158FC4F50
:104EF000B182A082019683709927809388038CCF1A
:104F0000682E712CF301EE0FFF1FE158FC4F20813A
:104F1000318147E0429FD001439FB00D1124A95B2E
:104F2000BC4F6D917C911197798F688F40E020E0A4
:104F300030E0E32FF0E0EE0FFF1F688D798DE60F74
:104F4000F71F8080918081149104E1F0F8010190B5
:104F5000F081E02DFF8BEE8B20E005C086169706D2
:104F600009F44F2D2F5FE22FF0E0EE0FFF1F6E8947
:104F70007F89E60FF71F608171816115710571F7F7
:104F80003F5FD7CF4423D1F0F801231708F0FD018C
:104F900021E024830E171F0721F490938703F42E3A
:104FA0003BCF981305C0AE17BF0711F49F5F9370F6
:104FB00093012F5F3F4F822F83708CCFF0E0E0E0B2
:104FC000F7CF90E0E1101FC0B10102C0660F771F5C
:104FD0002A95E2F79B01215031098217930731F49A
:104FE000442309F447C0C5010E949706C10101C0CE
:104FF000880F8A94EAF7982F9095F8018681892383
:105000008683FE2C09CF9C01082C02C0359527957C
:105010000A94E2F7A90141705527BC01615071095A
:1050200086239723892B11F5452B01F1F801828105
:105030009381892BC1F01B821C821D821E824982B2
:105040004A820E9448068160582F9D838C83F80114
:10505000828193818F83988729813A814B816D81E9
:105060007E810E942323F8011582C0CFF22FF170B8
:10507000EF2EBCCFEF2CBACF90918703809188039D
:10508000981731F00E94F623552009F433CE02CF51
:105090000E949A2310928A03109289030E94C506E7
:1050A000F3CF82E00E94010D07CECF93DF9300D0B3
:1050B00000D00F92CDB7DEB79093BB028093BA02B7
:1050C000811520E2920748F40F900F900F900F90F7
:1050D0000F90DF91CF910C94E80D8EEF89838A8336
:1050E0001B820E9448068160782F9D838C834981B2
:1050F0005A816B818D810F900F900F900F900F90C0
:10510000DF91CF910C94FC250F931F93CF93DF93E6
:105110008C01EB016EE572E08C2F0E94A014892BAC
:10512000A1F48091A9039091AA030E94B70EDD27F4
:10513000CA5ADD4F8881F80110821882833009F144
:1051400048F4813059F0823081F0DF91CF911F9186
:105150000F9108958430D1F08530B9F780915E02C7
:1051600090915F02009789F306C080916002909150
:105170006102009799F3DF91CF911F910F910C94E9
:1051800055288091620290916302F3CF809164026E
:1051900090916502009779F720915E0230915F024D
:1051A000809160029091610221153105D9F200973A
:1051B00011F7C901E0CFCF93DF9300D000D00F9259
:1051C000CDB7DEB79093BB028093BA02811520E27F
:1051D000920748F40F900F900F900F900F90DF916F
:1051E000CF910C94FA0F8EEF89838A8381E08B83B1
:1051F0000E9448068160782F9D838C8349815A8163
:105200006B818D810F900F900F900F900F90DF9119
:10521000CF910C94FC25AF92BF92CF92DF92EF9288
:10522000FF920F931F93CF93DF93B82EA62EC090BB
:10523000A10480915502C82AC7E0D0E0D12CF12CFE
:10524000E12CD701C6010C2E04C0B695A795979501
:1052500087950A94D2F780FF20C04A2D6B2D8C2FA2
:105260000E94AF118C0181309105B9F00E94DB28BA
:105270008FE39CE90197F1F700C00000C8010E948C
:10528000552881E0DF91CF911F910F91FF90EF9012
:10529000DF90CF90BF90AF900895219790F64A2D60
:1052A0006B2D80E00E94AF11EC010E94DB288FE3A0
:1052B0009CE90197F1F700C00000CE01E0CFCF9349
:1052C000DF93EC010E94DB288091A9039091AA034F
:1052D0000E94B70ECE01DF91CF910C9455280F9309
:1052E0001F93CF93DF938C01862F6EE572E00E94AF
:1052F000A014892BC9F4C0915E02D0915F0220975F
:1053000099F0F8018081833069F4CE010E945F2911
:10531000CE010E945F29CE01DF91CF911F910F91A5
:105320000C945F298430B8F7DF91CF911F910F91D2
:1053300008950F931F93CF93DF938C01EB016EE5DC
:1053400072E08C2F0E94A014892B09F064C0FE012A
:10535000FF27D8018C91EA5AFD4F8130D9F4199674
:105360009C911997992311F080830CC01A969C91F7
:105370009923D1F382E08083809160029091610251
:105380000097D9F480915E0290915F02009709F432
:1053900042C013C08230E9F519968C91199781119A
:1053A0002DC01A968C9181110EC083E0808380916C
:1053B000620290916302009719F1DF91CF911F91E2
:1053C0000F910C94DB2884E080838091640290919B
:1053D0006502009791F780915E0290915F020097BD
:1053E000F9F00E945F29809160029091610200971C
:1053F00021F780915E0290915F02DFCF85E080838C
:1054000080915E0290915F02009729F00E945F29CF
:10541000F0CF86E08083DF91CF911F910F910895A7
:105420008091600290916102B1CF1F920F920FB6EE
:105430000F9211242F933F934F935F936F937F931A
:105440008F939F93AF93BF93CF93DF93EF93FF938C
:10545000D091E900DF708091EC00C82FC17080FD11
:10546000C0E81092E9008091F000877F8093F000FF
:1054700078940E9478151092E9008091F00088607D
:105480008093F000CD2BCF70C093E900FF91EF9196
:10549000DF91CF91BF91AF919F918F917F916F914C
:1054A0005F914F913F912F910F900FBE0F901F90E2
:1054B00018951F920F920FB60F9211242F933F93BE
:1054C0004F935F936F937F938F939F93AF93BF930C
:1054D000EF93FF938091E10082FF09C08091E20089
:1054E00082FF05C08091E1008B7F8093E100809175
:1054F000DA0080FF24C08091D80080FF20C0809116
:10550000DA008E7F8093DA008091D90080FF9DC001
:1055100080E189BD82E189BD09B400FEFDCF81E053
:105520008093A00480917204811109C00E948304B9
:105530000E9476058091E20084608093E200809171
:10554000E10080FF17C08091E20080FF13C08091CE
:10555000E2008E7F8093E2008091E2008061809380
:10556000E2008091D80080628093D80019BC85E069
:105570008093A0048091E10084FF2BC08091E20021
:1055800084FF27C080E189BD82E189BD89B5982F5C
:10559000917080FFFBCF8091D8008F7D8093D800E1
:1055A0008091E1008F7E8093E1008091E2008F7E08
:1055B0008093E2008091E20081608093E20080911C
:1055C0009704882309F447C084E08093A004809165
:1055D000A0048091E10083FF27C08091E20083FF57
:1055E00023C08091E100877F8093E10082E0809377
:1055F000A004109297048091E1008E7F8093E100D7
:105600008091E2008E7F8093E2008091E2008061D1
:105610008093E20042E060E080E00E9444058091D7
:10562000F00088608093F000FF91EF91BF91AF91FF
:105630009F918F917F916F915F914F913F912F91AA
:105640000F900FBE0F901F90189519BC1092A004D8
:105650001092720474CF8091E30087FD93E09093E1
:10566000A004B5CF78941F921FB61F9211248F9378
:105670009F93AF93BF938091690490916A04A09126
:105680006B04B0916C040196A11DB11D8093690457
:1056900090936A04A0936B04B0936C04BF91AF9194
:1056A0009F918F911F901FBE1F9018951F921FB63C
:1056B0001F9211248F939F93AF93BF93809168049F
:1056C000811113C08091690490916A04A0916B04C8
:1056D000B0916C044196A11DB11D80936904909313
:1056E0006A04A0936B04B0936C04BF91AF919F9137
:1056F0008F911F901FBE1F901895CDB7DEB7E5970D
:105700000FB6F894DEBF0FBECDBF84B7877F84BFCE
:105710000FB6F894A895809160008861809360002E
:10572000109260000FBE80E890E00FB6F89480936E
:105730006100909361000FBE85B7806885BF85B713
:10574000806885BF8EEA98E090938B0180938A01F0
:105750000E94B4140E940A150E9489110E948304B9
:105760000E9476058091E20084608093E200789444
:105770008091A0048823A1F01091E9001F709091FE
:10578000EC00892F817090FD80E8182B1092E900C1
:105790008091E80083FD0E9478151F701093E90046
:1057A00082E084BD93E095BD9AEF97BD80936E0033
:1057B0000E94AB12811102C00E94911404E511E015
:1057C0005CE5E52E51E0F52ED8018D918D018F3FDE
:1057D00011F00E94B008E016F106B1F70CE511E0F7
:1057E00044E6E42E41E0F42EF80181918F018F3FD1
:1057F00011F00E94B008E016F106B1F788E0E0E48D
:10580000F2E0DF01282F1D922A95E9F7E4E2F2E0A9
:10581000DF011D928A95E9F790E080E00E948433D1
:105820008A3E9E4F21F40E94AB12811102C00E9459
:105830004C1882E090E00E947C33809333020E94F7
:10584000C41290936E0480936D040E94A024EFE331
:10585000FCE93197F1F700C000000E94A02480917C
:10586000410280FF08C06FEF7FEF90E080E00E9470
:10587000A8330E94930E83E090E00E947C330E9444
:105880003E0D6AE771E030E3832E32E0932E26E787
:1058900031E0E8E7F1E041E050E01191812F82959D
:1058A0008F7090E0DC019196FC9091971F70E12E33
:1058B0006A0101C0CC0C1A95EAF70C2D00950F2156
:1058C00091960C93919792961C9192971C2992967F
:1058D0001C93D901FD909D010F2D02950F7010E0D2
:1058E000D8019196BC90BF2DBF70FB2E6A0101C0FC
:1058F000CC0CBA95EAF7DC2CD094DB20D801919639
:10590000DC9291979296DC909297DC289296DC92AA
:10591000DC0190968C9190E002C095958795EA9471
:10592000E2F78170D80190960C9110E002C01595B5
:105930000795FA94E2F790E000FD92E0892BD401FC
:105940008D934D016E177F0709F0A7CF82E091E09C
:10595000909365048093640480E492E0B8E0B80F0B
:10596000BDAB8091A00420E4F22E00E112E185306D
:1059700009F4B1C10E94A024882359F08FB7F8948C
:105980004091690450916A0460916B0470916C04B9
:105990008FBFA0E4B2E0E4E3F2E010E000E0302FDB
:1059A0008D919191981709F4A5C1292F282790E08E
:1059B000FF24F394422F4F2109F497C19BA73CA7E2
:1059C0008F2191E009F490E09DA70E944806816034
:1059D000782F9FA78EA74BA55CA56DA58FA50E94CC
:1059E000FC25F801EC5CFD4F8081F826F082FEE298
:1059F000EF2EF2E0FF2E0CE212E0A4E78A2EA1E0E7
:105A00009A2EB6E72B2EB1E03B2E88E7682E81E078
:105A1000782E90E3A92E92E0B92E512C412CD5017D
:105A2000ED915D01EE0FEE0FD3018D913D01A82F99
:105A3000A295AF70B0E090962C9130E08F7002C0CC
:105A4000359527958A95E2F721703327D1014D913D
:105A50001D01A42FA295AF70B0E090968C9190E0BC
:105A60004F7002C0959587954A95E2F7AC01417059
:105A7000552780FF02C042E050E0242BE22BD501E5
:105A80001197EC93D401CD904D01EF70F0E0EC59FB
:105A9000FE4F8081F7019081890F8083D12C082EE1
:105AA000000C990B20E08C159D054CF0D8018C91D1
:105AB0008F5F8C9360E0852D0E940B2921E0F70118
:105AC0008081082E000C990B442755274C195D093D
:105AD000481759074CF0D8018C9181508C9361E0A4
