:100000000C948E020C94D5020C94D5020C94D5025B
:100010000C94D5020C94D5020C94D5020C94D50204
:100020000C94D5020C94D5020C94A4220C94782341
:100030000C94171D0C94D5020C94D5020C94D50287
:100040000C94D5020C94D5020C94D5020C94D502D4
:100050000C94D5020C946E1D0C94D5020C94D50210
:100060000C94D5020C94D5020C94D5020C94D502B4
:100070000C94D5020C94D5020C94D5020C94D502A4
:100080000C94D5020C94D5020C94D5020C94D50294
:100090000C94D5020C94D5020C94D5020C94D50284
:1000A0000C94D5020C94D5020C94D50200001400D7
:1000B0001A0017001C00120013004C003A0029001F
:1000C0000800150018000C002F002A000000040092
:1000D00016000A000B000F0033004A003B002B0003
:1000E000070009000D000E000000280000001D00A0
:1000F0001B0005001100370000004D003C00E1002E
:100100000600190010003600E50052000000015101
:10011000E20001000000E60000004F003D00E000AA
:1001200000002C002C0001005000510000000100D4
:10013000010001000100010001000100005C01005C
:1001400001000100010001000100010000000100A8
:100150000100010001000100010001000100010097
:100160000100010001000100000001000000010089
:100170000100010001000100000001000100010078
:100180000100010001000100010001000000010068
:100190000100010000000100000001000100010059
:1001A0000000010001000100010001000000010049
:1001B0000100010001000100010001000100010037
:1001C0000100010001000100010001000000010028
:1001D0000100010001000100010001000100010017
:1001E0000100010001000100000001000000010009
:1001F00001000100010001000000010001000100F8
:1002000001000100010001000100010000000100E7
:1002100001000100000001000000010001000100D8
:1002200000000100010001000100010000000100C8
:1002300001000100010001000100010001000100B6
:1002400001000100010001000100010000000100A7
:100250000100010001000100010001000100010096
:100260000100010001000100000001000000010088
:100270000100010001000100000001000100010077
:100280000100010001000100010001000000010067
:100290000100010000000100000001000100010058
:1002A0000000010001000100010001000000000049
:1002B000000000002A2B28000000000000000000C1
:1002C0000000000000000029000000002C1E342067
:1002D000212224342627252E362D3738271E1F208D
:1002E0002122232425263333362E37381F040506D2
:1002F0000708090A0B0C0D0E0F1011121314151616
:100300001718191A1B1C1D2F3130232D3504050613
:100310000708090A0B0C0D0E0F10111213141516F5
:100320001718191A1B1C1D2F3130354C0000000006
:1003300000000000000000000000000000000000BD
:1003400000000000000000000000000000000000AD
:100350007E0F00D4FFFFFFC7000000780E0353009C
:100360006D006F006C006B006100000024035600FC
:1003700069006B0074007500730020004400650084
:100380007300690067006E0020004C004C004300C1
:1003900000000403090409025B00030100A0FA093C
:1003A00004000001030101000921110100012240A4
:1003B000000705810308000A090401000203000088
:1003C00000092111010001222200070582032000FB
:1003D00001070503032000010904020001030000D6
:1003E0000009211101000122B60007058403200045
:1003F0000A1201100100000008445610000100011B
:100400000200010660FF0961A1010962150026FFD3
:10041000009520750881020963150026FF009520CC
:1004200075089102C005010902A10185020901A117
:100430000005091901290815002501950875018194
:10044000020501093009311581257F950275088162
:100450000609381581257F950175088106050C0A66
:1004600038021581257F950175088106C0C00501F8
:100470000980A101850319012AB700150126B700DB
:10048000950175108100C0050C0901A101850419B1
:10049000012AA002150126A002950175108100C055
:1004A00005010906A1018505050719E029E71500E1
:1004B00025019508750181020507190029EF15002E
:1004C000250195F075018102050819012905950599
:1004D00075019102950175039101C005010906A1FD
:1004E00001050719E029E715002501950875018127
:1004F000029501750881010507190029FF150026DD
:10050000FF00950675088100050819012905950564
:1005100075019102950175039101C00011241FBE60
:10052000CFEFDAE0DEBFCDBF04B603FE27C0809177
:10053000B8029091B902A091BA02B091BB02873083
:10054000904BA740B04BD1F41092B8021092B90270
:100550001092BA021092BB0214BE84B7877F84BF88
:100560000FB6F894A8958091600088618093600030
:10057000109260000FBEE0E0F8E3099511E0A0E002
:10058000B1E0E4EBFBE402C005900D92AC3AB10798
:10059000D9F722E0ACEAB1E001C01D92A83BB20756
:1005A000E1F70E94641F0C94A1250C9400000C94A8
:1005B000770A81E0089581E008950C94DB020895A4
:1005C0000C94DF021F93CF93DF9300D000D00F92E3
:1005D000CDB7DEB749835A836B833091E3018981BC
:1005E0009A8131111DC06623B9F02223A9F00E941F
:1005F000EF19182F682F89819A810E949A196981B1
:100600007A81812F0F900F900F900F900F90DF91B4
:10061000CF911F910C94A20D0E94C719182FEFCFF4
:100620000E94EF1969817A81EDCFFC01262F40816C
:1006300051816281738184810C94E202CF93DF93B4
:10064000EC0160E00E941503BE01DF91CF910C9494
:10065000E0028F929F92AF92BF92CF92DF92EF9281
:10066000FF920F931F936B017C0181E090E0A0E06B
:10067000B0E04C015D0104C0880C991CAA1CBB1C95
:100680004A95D2F7B501A4014C015D0104C0880C64
:10069000991CAA1CBB1C2A95D2F7482959296A29FA
:1006A0007B2904C0880F991FAA1FBB1F0A95D2F788
:1006B0008A019B010C211D212E213F2104171507C2
:1006C0002607370789F48C299D29AE29BF29BC014B
:1006D000CD011F910F91FF90EF90DF90CF90BF90D1
:1006E000AF909F908F90089580959095A095B0952C
:1006F0008C219D21AE21BF21EACF0F93382F262FC9
:1007000060914402709145028091460290914702A7
:10071000042F432F0E9429030F910C94D8180E9494
:10072000C9060C94EE060C94F10608950E947C15FF
:100730000E9495032FEF84E39CE02150804090407D
:10074000E1F700C000000C94921D0F931F93CF930C
:10075000DF938C0161E00E941503EC01B8010E9457
:10076000E90B8823D9F1B801CE010E94DD0288236C
:10077000A9F1B801CE010E94D90E882379F1B80100
:10078000CE010E942B0F882349F1B801CE010E94AF
:100790004E10882319F1F8018281882361F0CA354F
:1007A000FDE5DF0721F170F4C115ECE5DE07A1F0EE
:1007B000CE3DDC45C9F0C801DF91CF911F910F916B
:1007C0000C94D902CB358DE5D807A1F0CC35DD45A9
:1007D00091F70E94961AEFCF0E94960380E0DF9176
:1007E000CF911F910F9108950E94021CF7CF0E9494
:1007F0009F1AE1CF0E94A21ADECFDF92EF92FF9202
:100800000F931F93CF93DF93E82FF0E0E455FD4F54
:10081000D490282F26952695269530E0F901E45BA3
:10082000FC4F0491877010E0082E02C015950795C3
:100830000A94E2F701701127F901E45CFC4FE4909F
:10084000F12C082E02C0F594E7940A94E2F791E0A7
:10085000E922FF24F901E45DFC4FC491D0E002C01D
:10086000D595C7958A95E2F7C170DD270115110569
:1008700019F081EE0E940912E114F10419F086EEDC
:100880000E9409128D2D0E940813EF2819F086EEA0
:100890000E949B12012B19F081EE0E949B12CD2B1E
:1008A00051F08CE2DF91CF911F910F91FF90EF906B
:1008B000DF900C940813DF91CF911F910F91FF905F
:1008C000EF90DF900895EF92FF920F931F93CF93D5
:1008D000DF93EC01162F0AE08881882309F454C0C5
:1008E000813009F04EC08981813099F47E0122E087
:1008F000E20EF11C8A810E940813E7012196812FE4
:10090000815050F3EFE9FFE03197F1F700C00000AC
:10091000F7CF823041F47E0182E0E80EF11C8A813B
:100920000E940912EACF833041F47E01E2E0EE0E2C
:10093000F11C8A810E949B12E0CF843011F0219635
:10094000DDCF2A81229690E080E0AE014F5F5F4FBD
:100950002053330B2A30310548F0019778F2EFE944
:10096000FFE03197F1F700C00000F7CF089FB0011A
:10097000099F700D1124C901860F971F2981EA0173
:10098000E4CF0E94FD03BACFDF91CF911F910F9169
:10099000FF90EF90089560E00C94630408950C9428
:1009A000CE0481E008950C94D104CF93C82F0E9407
:1009B000CF048C2FCF910C94D304CF93DF930E945C
:1009C000A20D0E94D705EC01811521E5920708F0E0
:1009D00042C0811530E5930708F09DC0883E91051F
:1009E00030F5803E910508F092C0883A910588F470
:1009F000853A910508F084C08130910509F487C0DB
:100A0000009709F484C0049708F081C0D0E0C0E0EA
:100A10007EC08F3B9105D0F7C85AD0E0CC0FDD1FC8
:100A2000CB5EDE4F0990D881C02DD46470C0811593
:100A3000904250F4C11581E0D80708F068C0C03F6B
:100A4000D10520F3D06563C0C11590E4D907F0F259
:100A5000DF70D06A5CC0811525E5920700F581152D
:100A600034E5930708F08BC0811543E5940708F03F
:100A700073C0C11582E5D80708F469C0CE01837040
:100A8000992721E030E002C0220F331F8A95E2F758
:100A9000C695C69580E2C89FE001112454C0C115D7
:100AA00099E5D907A8F4C11528E5D20708F06CC06C
:100AB000C11536E5D30708F0A9CF8C2F0E946E062A
:100AC000C82FD0E0DC2FCC27CC27DF71D0621FC02D
:100AD000C1154AE5D40708F45CC0CE0190568115D3
:100AE000904208F093CF8D2F8F710E946E0690E098
:100AF000982F882788279F719C012C2BE901E6CF2E
:100B0000C55AD0E0CD5BDE4FC881D0E0D064CE01C5
:100B1000DF91CF910895E4E096958795EA95E1F706
:100B200083702C2F26952695237040E2249F9001F8
:100B30001124382B8C2F8370C1E0D0E002C0CC0F81
:100B4000DD1F8A95E2F7C22BD32BDC68E0CFDC2FC8
:100B5000CC27C16FD06ADBCF8370992721E030E0CA
:100B600002C0220F331F8A95E2F7C695C69590E220
:100B7000C99FE0011124C22BD32BDA68C8CFD82F2C
:100B8000CC27C46FD06AC3CFDC2FCC27C06FD06A0C
:100B9000BECF8C2F8F700E946E0634E0D695C7951D
:100BA0003A95E1F7CF709C2FEC01D069B0CF823835
:100BB0009105B1F1B0F48133910509F475C048F4A1
:100BC0008932910509F469C08A32910509F473C02C
:100BD00008958533910509F459C08933910501F1D0
:100BE0000895833E9105A9F138F4803E9105F9F00E
:100BF000823E910549F10895863E9105A9F1873E0F
:100C00009105C9F1843E910519F52091960221FFC5
:100C10001FC08091950284FD14C087EE90E0089576
:100C2000209195022370A1F080EE90E0089520912C
:100C3000950220FD47C03091960230FF09C024FF85
:100C400044C090E080E004C02091950222FDF7CFDF
:100C500008952091950222FD3BC03091960230FD0F
:100C6000E3CF24FFF5CFEDCF2091950223FFF0CF06
:100C700024FDE7CFD2CF2091950223FD2CC03091E7
:100C8000960231FFEECF84EE90E008952091950218
:100C900025FFDECF89E290E008952091950225FF9F
:100CA000D7CF85E390E008952091950226FFD0CF1D
:100CB0008AE290E008952091950226FFC9CF81E352
:100CC00090E0089589E390E0089583EE90E0089520
:100CD00082EE90E0089586EE90E00895909195025E
:100CE00092FF06C0282F28712830F9F4877F84608E
:100CF00093FF06C0282F28712831F1F4877E846184
:100D00002091960220FF06C0382F38713830D9F470
:100D1000877F816021FF06C0282F28712831D1F4F8
:100D2000877E816194FD877E0895282F2471243069
:100D3000F9F68B7F8860DCCF282F2471243101F7EE
:100D40008B7E8861DDCF382F3171313019F78E7F7E
:100D50008860E0CF282F2171213121F78E7E8861B4
:100D6000E1CF0C94C30B0E943E078FE39CE90197EF
:100D7000F1F700C000000E943E0781E00E94F306E8
:100D800080FF04C00E94B1060C94921D08950C943B
:100D9000B3060E945D1B811102C00E94021C0E94CA
:100DA000681B809371020E94701B9093960280933F
:100DB00095020E94C7060E946C1B682F70E090E0AD
:100DC00080E00E949C1860914402709145028091DD
:100DD0004602909147020C94D61808950C94ED06A3
:100DE00008950C94F006E82FF0E0E156FD4F808165
:100DF0000895089580EA8A95F1F7089500C008954E
:100E00000C94FA06F894E82FE295EF70F0E031A127
:100E1000282F2F7081E090E001C0880F2A95EAF713
:100E2000982F9095932391A392A1892B82A37894D4
:100E30000895CF93DF93CEE4D1E089910E94020719
:100E400081E0C635D807C9F7C6E4D1E089910E9490
:100E5000020781E0CE34D807C9F7E7E9F2E0AFE94D
:100E6000B2E011921D9282E0EF39F807D1F788E0E5
:100E70000E94B507DF91CF910C948F03CF92DF9240
:100E8000EF92FF920F931F93CF93DF93CEE4D1E0C5
:100E900007E912E0D12CEE24E394F12C8991F89427
:100EA000E82FE295EF70F0E021A18F70A70102C05A
:100EB000440F551F8A95E2F7CA01922F982B91A3F0
:100EC00092A18095892382A378940E94FE06E6E48D
:100ED000F1E030E020E0C12C4191A42FA295AF7049
:100EE000B0E090968C9190E04F7002C095958795F8
:100EF0004A95E2F780FD35C08E2D022E01C0880F85
:100F00000A94EAF7C82A2F5F3F4F2830310521F7AE
:100F1000FE01319780810E9402070E940007F801BC
:100F20008081C81601F1C08281E0D82A0F5F1F4F6F
:100F3000F1E0C635DF0709F0B1CF2D2D48E06FE9AC
:100F400072E087E992E00E94B6070E9493038D2D1C
:100F5000DF91CF911F910F91FF90EF90DF90CF9095
:100F6000089580E0CFCF80E0E0CF0895FF920F9307
:100F70001F93CF93DF93F82E092F162FD72FC42F4F
:100F8000222349F081E08093B0010E94471D909395
:100F9000AF018093AE018091B0018823A1F08091D0
:100FA000AE019091AF010E945F1D069760F0EF2D9A
:100FB000F02FA12FBD2FCE0FDF2FD11DEC17FD0776
:100FC00041F41092B001DF91CF911F910F91FF90EA
:100FD000089581918D93F2CF8091B70180FF12C067
:100FE0006091050185E0689FB001112475956795B2
:100FF0007595679560387105A8F561157105A1F1C2
:10100000862F089581FF09C06091050185E0689FE2
:10101000B001112475956795EDCF6091050182FDB2
:101020000AC08091B6018823D1F0909104016091AB
:101030000501891728F085E0689FB0011124DACFF7
:10104000869FB001112485E0869F9001879F300D17
:101050001124692F70E0C9010E942A25CBCF65E0D9
:1010600070E0CECF8FE7089581E008958091B701B9
:1010700080FF0CC06091010170E0759567957595D2
:1010800067956115710549F1862F089581FF06C0A6
:101090006091010170E075956795F3CF6091010152
:1010A00082FD0BC09091B5019923A1F060910001E0
:1010B00080910101961738F0682F70E06038710553
:1010C00000F38FE70895899FC001112470E00E940A
:1010D0002A25F4CF61E070E0D7CF81E00895803F0A
:1010E00031F40E94EC0781958093BB010895813F04
:1010F00019F40E94EC07F8CF823F31F40E94EC070C
:1011000081958093BA010895833F19F40E94EC07FA
:10111000F8CF893F29F40E9436088093BC010895D6
:101120008A3F21F40E9436088195F7CF8B3F31F436
:101130000E94360881958093BD0108958C3F19F473
:101140000E943608F8CF9CE0980F953070F4845FC9
:10115000990B21E030E001C0220F8A95EAF78091D7
:10116000B901822B8093B90108958D3F31F48091AC
:10117000B70181608093B70108958E3F21F480917B
:10118000B7018260F7CF8F3FB9F78091B7018460D4
:10119000F1CF4091BA01803F59F48091BB0187FFA4
:1011A0000DC01092BB0141110BC01092B60108C0D6
:1011B000813F81F48091BB0118169CF3442381F098
:1011C0008091BC019091BD01892B09F05AC0109209
:1011D000B5010895823F49F447FFF0CF1092BA015C
:1011E0008091BB018111ECCFE0CF833F19F414163D
:1011F000ACF3E4CF9091BC01893F29F41916F4F6C1
:101200001092BC01DBCF8A3F19F497FFD7CFF8CFFC
:101210009091BD018B3F29F497FFD0CF1092BD0173
:10122000CDCF8C3F19F41916CCF3C8CF9CE0980FA2
:10123000953090F4845F990B21E030E0B90102C051
:10124000660F771F8A95E2F7CB0180959091B901DF
:1012500089238093B901B2CF8D3F31F48091B701DA
:101260008E7F8093B701AACF8E3F21F48091B70182
:101270008D7FF7CF8F3F09F0A1CF8091B7018B7F92
:10128000F0CF08950E94471D9C019091BA01809172
:10129000BB01982B21F03093B4012093B3019091BE
:1012A000BC018091BD01982B21F03093B2012093B5
:1012B000B10188EB91E00C94A310EF92FF920F9391
:1012C0001F93CF93DF9300D000D000D0CDB7DEB70F
:1012D00086E0E8EBF1E0DE01119601900D928A952F
:1012E000E1F7E090BA01F090BB010091BC011091D0
:1012F000BD011092BA011092BB011092BC01109274
:10130000BD018E2D8F2991F08091B3019091B40190
:101310000E945F1DAC019091B601992309F43FC072
:10132000809106018417150608F447C0802F812B91
:1013300091F08091B1019091B2010E945F1DAC01CA
:101340009091B501992309F477C080910201841727
:10135000150608F47FC08091BA019091BB01892BDA
:101360009091BC01892B9091BD01892B11F00E94B5
:10137000420986E0FE013196A8EBB1E001900D92A2
:101380008A95E1F726960FB6F894DEBF0FBECDBF63
:10139000DF91CF911F910F91FF90EF9008952091D1
:1013A00007018AE0289F900111242417350708F0CF
:1013B000BDCF9F5F9093B60102C09F3FD1F7EE2053
:1013C00059F00E94EC079FEF1E140CF491E0899FE6
:1013D000802D11248093BA01FF2059F00E94EC0760
:1013E0009FEF1F140CF491E0899F802D11248093AE
:1013F000BB013091BA01332309F498CF2091BB018E
:10140000222309F493CF45EB3403C001112499231F
:1014100059F09093BA0145EB240390011124332332
:1014200039F03093BB0182CF81E08093BA01F3CFD2
:1014300081E08093BB017ACF209103018AE0289F4D
:10144000900111242417350708F085CF9F5F9093F2
:10145000B50102C09F3FD1F7002359F00E94360822
:101460009FEF10160CF491E0899F802D112480933A
:10147000BC01112359F00E9436089FEF11160CF49D
:1014800091E0899F802D11248093BD013091BC0192
:10149000332309F460CF2091BD01222309F45BCFEF
:1014A00045EB3403C0011124992359F09093BC01FA
:1014B00045EB240390011124332339F03093BD010F
:1014C0004ACF81E08093BC01F3CF81E08093BD01DE
:1014D00042CF86E0E8EBF1E0DF011D928A95E9F763
:1014E0001092B6011092B5011092B701089581E0F3
:1014F0000895AF92BF92CF92DF92EF92FF920F9337
:101500001F93CF93DF93AAE6B1E028E631E082ECA7
:10151000A82E81E0B82E6CE671E041E050E00D911C
:10152000802F82958F7090E0FC01C1A10F707A012D
:10153000002E01C0EE0C0A94EAF7FE2DF095CF23A1
:10154000FC01C1A3C2A1CE29C2A3E90119919E0148
:10155000E12FE295EF70F0E0F1A01F706A01012E1B
:1015600001C0CC0C0A94EAF7EC2CE094EF20E1A245
:10157000F2A0FC28F2A2EC0188A190E002C09595AF
:1015800087950A95E2F78170E0A1F0E002C0F59539
:10159000E7951A95E2F790E0E0FD92E0892BF501DE
:1015A00081935F016A177B0709F0B9CFDF91CF9173
:1015B0001F910F91FF90EF90DF90CF90BF90AF9071
:1015C00008954F925F926F927F928F929F92AF9207
:1015D000BF92CF92DF92EF92FF920F931F93CF9320
:1015E000DF9382ECE82E81E0F82E9AE6A92E91E0B6
:1015F000B92E28E6C22E21E0D22E30EC832E31E027
:10160000932ECEEBD1E046E6642E41E0742E512CB1
:10161000412CD701EC91EE0FEE0FED937D01D5013A
:101620002D915D01A22FA295AF70B0E090968C91A4
:1016300090E02F7002C0959587952A95E2F781700A
:101640009927D6014D916D01A42FA295AF70B0E0FE
:1016500090962C9130E04F7002C0359527954A95B1
:10166000E2F7A9014170552720FF02C042E050E097
:10167000842BE82BD7011197EC93D3010D913D01F9
:10168000EF70F0E0EA5AFE4F8081F4019081890FFB
:10169000808310E0082E000C990B20E08017910742
:1016A00044F088818F5F888360E0852D0E94D70297
:1016B00021E0D4018C91082E000C990B442755276A
:1016C000401B510B4817590744F08881815088838B
:1016D00061E0852D0E94D70221E0F4018081082E6F
:1016E000000C990BB8010E942A25D4018D934D015D
:1016F000422A2196B1E05B1212C0842DDF91CF9176
:101700001F910F91FF90EF90DF90CF90BF90AF901F
:101710009F908F907F906F905F904F900895552489
:10172000539477CF83E290E00E945F25813289F461
:1017300084E290E00E945F25813159F485E290E0D7
:101740000E945F2591E0883209F090E0892F817036
:10175000089580E0FCCFCF93C82F6FEF811161E235
:1017600083E290E00E946D256FEFC11161E184E298
:1017700090E00E946D256FEFC11168E285E290E074
:10178000CF910C946D2580E00E94AB0B0C94571BFD
:10179000089586E290E00E945F25682F70E090E057
:1017A00080E0089586E290E00C946D250E94C80BBD
:1017B0000E94920B81110CC060E070E0CB010E948E
:1017C000D20B0E941A0D0E94060E81E00C94AB0B06
:1017D0000895CF93FB01C281CC2309F19C012251D2
:1017E0003F452031310520F582510E94160EC0E0A0
:1017F0008C2FCF91089581E00E94FE1843E062E0B3
:1018000081E00E947D03F3CF81E00E941F1943E035
:1018100062E081E00E947D03EBCF82E0F6CF803171
:10182000FFE59F0789F381319F45B9F3C1E0E0CF20
:101830008031EFE59E07F9F281319F45C9F682E0DC
:10184000DBCF2FEFFC0120830895EF92FF920F93DF
:101850001F93CF93DF93EC01062FE881E150E33132
:1018600008F05EC0F0E0ED55FA4D0C943E2519826B
:1018700089E08A83602FCE01DF91CF911F910F9174
:10188000FF90EF900C94591E8981823069F083306B
:1018900071F08130D9F40E94531D0E9444256A835F
:1018A0007B838C839D83E6CF0E94C90BF6CF7E019C
:1018B00082E0E80EF11C10E0812F0E94F306F70190
:1018C00081937F011F5F1830B9F7D4CF602FCE010D
:1018D0000E94210CCFCF89818230C1F76A817B8140
:1018E0008C819D810E9444250E94D20BC3CF4B81E5
:1018F0006A8189810E94EC0C9827892798279D830B
:101900008C83B8CF2C813D813227232732274B810E
:101910006A8189810E94050DADCF0E941A0DAACF60
:101920008FEF8883A7CF0E94AF0D8983A3CF0E943A
:10193000B10D9827892798279A8389839BCF6B813C
:1019400070E089819A81AE014C5F5F4F98278927AB
:1019500098270E94B40D8ECF6B8170E089819A81A7
:10196000AE014C5F5F4F9827892798270E94DB0DB7
:1019700081CF0E94060E7ECF0E94D90CD6CF6B81FC
:1019800070E089819A81AE014C5F5F4F982789276B
:1019900098270E94520D6ECF6B8170E089819A81E9
:1019A000AE014C5F5F4F9827892798270E94780DDA
:1019B00061CF84E0089520E1629FB001112450E0DE
:1019C000440F551F640F751F20E8829FC00111242A
:1019D000860F971F879608950F931F93CF93DF93DA
:1019E0000E94DB0C8C010E945F25C82FD0E0DC2F09
:1019F000CC27C80101960E945F259E01282BC901B2
:101A0000DF91CF911F910F9108950F931F93CF9363
:101A1000DF93122F032F0E94DB0CEC01602F0E943A
:101A20006D25612FCE010196DF91CF911F910F910E
:101A30000C946D25AF92BF92CF92DF92EF92FF92FE
:101A40001F93CF93DF938CEAC82E80E0D82ED0E08E
:101A50007601C0E014C0F50125913491412F6C2F1F
:101A60008D2F0E94050D82E0A80EB11C1F5F18305B
:101A700091F780E1E80EF11CCF5FC83019F05701F3
:101A800010E0E9CFDF5F80E8C80ED11CD43001F749
:101A9000DF91CF911F91FF90EF90DF90CF90BF909B
:101AA000AF900895EF92FF920F931F93CF93DF9320
:101AB000EC018A017C01E60EF71ECE018796CE1559
:101AC000DF0539F4DF91CF911F910F91FF90EF90D7
:101AD0000895C11522E0D20740F40E945F25F80165
:101AE00080830F5F1F4F2196E8CFF8011082F9CF56
:101AF000CF92DF92EF92FF920F931F93CF93DF93DA
:101B00007C016A018C01060F171FEC01CE0187963C
:101B1000C017D10749F4DF91CF911F910F91FF902A
:101B2000EF90DF90CF900895C11522E0D20740F4E6
:101B3000FE01EE19FF09EC0DFD1D60810E946D256F
:101B40002196E4CF462F843038F4783028F468307A
:101B500018F4672F0C94EC0C90E080E0089580E17D
:101B6000089589ED91E00895EF92FF920F931F93EE
:101B7000CF93DF93EC018A017C01E60EF71ECE01C4
:101B8000895D9D4FCE15DF0539F4DF91CF911F910F
:101B90000F91FF90EF900895C93D21E0D20740F4E6
:101BA0000E945F25F80180830F5F1F4F2196E7CFCA
:101BB000F8011082F9CFCF92DF92EF92FF920F934C
:101BC0001F93CF93DF937C016A018C01060F171FCF
:101BD000EC01CE01895D9D4FC017D10749F4DF911B
:101BE000CF911F910F91FF90EF90DF90CF900895CC
:101BF000C93D21E0D20740F4FE01EE19FF09EC0DCA
:101C0000FD1D60810E946D252196E3CFCF93DF9368
:101C1000C7E2D2E060E0CE010E946D252196C11599
:101C200084E0D807B9F7DF91CF910895DF92EF9262
:101C3000FF920F931F93CF93DF9300D000D0CDB7C7
:101C4000DEB7F82E8FE08F1540F08FEF93E00E9403
:101C50005F2507E212E08823C1F00F900F900F90EC
:101C60000F90DF91CF911F910F91FF90EF90DF9038
:101C70000895011584E0180781F3C8010E945F25CB
:101C8000811101C0FA940F5F1F4FF110F2CF19823A
:101C90001A821B821C82DD24D39478018FEFE81A0C
:101CA000F80AC8010E945F2589831A828823A9F255
:101CB0009FEF980F933078F48A83D9820E5F1F4F7D
:101CC000C7010E945F258B83882339F2CE010196DC
:101CD0000E94CB04E2CF8701F9CF0F931F93CF93DC
:101CE000DF93C42FD22FFC0182818823C9F0409357
:101CF000C6010E94471D9093C5018093C40180E2F4
:101D00008C0F883008F050C0C77081E001C0880F88
:101D1000CA95EAF7DF91CF911F910F910C941013A0
:101D20001091C601141335C08091C4019091C50172
:101D30000E945F1D883C910560F5C0E2CD0F1D1724
:101D4000B9F080E2810F883040F4177081E001C063
:101D5000880F1A95EAF70E941713C83048F481E0FB
:101D60009D2F977001C0880F9A95EAF70E94101373
:101D7000802F0E940813C830B8F4D77081E001C0EA
:101D8000880FDA95EAF7DF91CF911F910F910C94AC
:101D9000171380E28C0F883038F4C77081E001C0DF
:101DA000880FCA95EAF7EFCFDF91CF911F910F917E
:101DB00008950F939C01CB01233F4CE5340759F163
:101DC000A8F4283DFCE53F0701F1293D4CE5340727
:101DD000D1F1273D3C4591F406E221EE41EE67ED5D
:101DE0007CE50E946D0E80E00F910895253FFCE593
:101DF0003F07E9F0B0F0263F3C45F9F0FC01828155
:101E0000882339F11092C601EFCF07E225EE45EEA7
:101E100068ED7CE5E6CF06E221EE40EE63EF7CE57F
:101E2000E0CF07E225EE44EE64EF7CE5DACF06E290
:101E300021EE42EE65EF7CE5D4CF07E225EE46EEDB
:101E400066EF7CE5CECF08E221E045EE69ED7CE56A
:101E5000C8CF81E0C9CFCF93DF93EC01FB01828132
:101E6000882309F419C1C230FCE5DF07C0F1C6318F
:101E70009CE5D90730F09E012A5F3C4529303105A9
:101E800070F50E94701B9093960280939502C0316A
:101E9000ECE5DE0709F4CFC008F05BC0C8308CE584
:101EA000D80709F4B6C088F5C430ECE5DE0709F4BC
:101EB000A8C0C0F4C2308CE5D80709F49CC080915A
:101EC00095028260C330DC4509F498C08091950288
:101ED000909196020E947E1B0E947C1580E0DF910B
:101EE000CF910895809195028061C630ECE5DE07C0
:101EF00009F484C0809195028860C730DC4508F4FD
:101F00007DC080919502806279C0CC308CE5D80785
:101F100009F489C070F4809195028C60CA30ECE5B8
:101F2000DE0709F46BC008F478C0809195028E7FBB
:101F300065C0CE308CE5D80709F479C08091950250
:101F40008B7FCF30DC4508F459C0809195028F7E9D
:101F500055C0CB3FECE5DE0709F457C030F5C3317F
:101F60008CE5D80709F46FC078F4C131ECE5DE07E1
:101F700009F465C0C231DC4509F0A8CF0E947C1588
:101F8000809195028F773AC0C5318CE5D80709F466
:101F900062C008F476C0809196028160CA3FDC4539
:101FA00009F094CF8093960291CFCF3FFCE5DF07F5
:101FB00009F44DC088F4809196028D7FCD3F9CE559
:101FC000D90781F3809196028E7FCE3FDC4550F396
:101FD000809196028360E6CFC130FDE5DF0709F40A
:101FE00059C008F444C080E0C230DD4509F06ECF2E
:101FF0000E94041C6BCF80919502816080939502B2
:1020000065CF809195028460F9CF809196028260BD
:10201000C9CF809195028064F1CF0E947C15809198
:1020200095028068EBCF809195028D7FE7CF8091FC
:102030009502877FE3CF809195028F7DDFCF8091DE
:1020400095028F7BDBCF80919502837FD7CF8091E4
:1020500096028C7FA7CF8091950282FB992790F9F9
:1020600021E0922790FB82F990FB83F9C7CF809102
:102070009602982F909591708E7F892B90FB81F915
:1020800091CF0E947C1590919502892F97FB87F93B
:102090008058B4CF81E0ACCF81E021CFCF93DF93E4
:1020A000EB0186319C4511F50E94A51A9A8199236E
:1020B00099F08A7A91E009F490E09093C701811138
:1020C00009C089E20E945F1A0E94E81A80E0DF914D
:1020D000CF91089585E3F6CF8091C701811104C0A7
:1020E00089E20E94661AF0CF85E3FBCF81E0EFCF53
:1020F0009093CD018093CC010895E091CC01F091B3
:10210000CD01309721F00190F081E02D099480E01D
:102110000895E091CC01F091CD01309799F0209194
:102120001401222359F02091950227FF07C0DC01FA
:102130002C9111962C93119725E02C930280F3811A
:10214000E02D09940895E091CC01F091CD013097F4
:1021500039F022E0DC012C930480F581E02D099414
:1021600008952091CA013091CB012817390771F0E9
:102170009093CB018093CA01E091CC01F091CD0105
:10218000309721F00680F781E02D09940895209181
:10219000C8013091C9012817390771F09093C9011E
:1021A0008093C801E091CC01F091CD01309721F0EE
:1021B0000084F185E02D099408950E94531D6093D9
:1021C000DF017093E0018093E1019093E20160935D
:1021D000DB017093DC018093DD019093DE010895B3
:1021E0000E94531D6093DF017093E0018093E10131
:1021F0009093E2016093D7017093D8018093D90145
:102200009093DA01089585B7806885BF85B78068A7
:1022100085BF0895089508950C940A1108950C94AB
:102220000E110E94031185E59BE10E94B61D0E94DC
:102230000B110C940C1181E008950C941B1108955E
:1022400008950E941F110C9420110E943E1D0E94AF
:1022500019070E94D60B0E94790A0C940F11AF92B5
:10226000BF92CF92DF92EF92FF920F931F93CF9383
:10227000DF93CDB7DEB72A970FB6F894DEBF0FBE57
:10228000CDBF0E943E0781110E94DD108FECA82E69
:1022900081E0B82E10E000E0C02E802F0E94F306EF
:1022A000E82EF501F1905F01F81609F453C0809112
:1022B000710281FD0E94F9068F2D8E25D12CFF24FD
:1022C000F394982F9F2109F440C00E941D11882388
:1022D00099F0DE82CF82EF2081E009F480E08887E8
:1022E0000E94471D8160782F9A8789874E815F8180
:1022F00068858A850E94D211F801E153FE4F8081E2
:10230000F826F0820E94E10A81110E94F0100E94DA
:102310005D090E947D109091CE01891791F10E9474
:102320007D108093CE012A960FB6F894DEBF0FBEC3
:10233000CDBFDF91CF911F910F91FF90EF90DF9074
:10234000CF90BF90AF900C94D504D394FF0CF8E0DD
:10235000DF12B7CF0F5F1F4F0830110509F09CCF78
:102360008FEF89838A831B820E94471D8160782FAB
:102370009D838C8349815A816B818D810E94D2110A
:10238000C1CF2A960FB6F894DEBF0FBECDBFDF9146
:10239000CF911F910F91FF90EF90DF90CF90BF9062
:1023A000AF900895DF92EF92FF920F931F93CF9318
:1023B000DF93CDB7DEB72B970FB6F894DEBF0FBE15
:1023C000CDBF7A878B87F42E052F162FE72ED82EB8
:1023D00061110E94C51A1E821D827E2DEC82DD8253
:1023E0004F2D502F612F8D2D9E812B960FB6F89477
:1023F000DEBF0FBECDBFDF91CF911F910F91FF9038
:10240000EF90DF900C94F217FC01808191810C9485
:10241000311ACF93C82F882309F48BC08238C1F4B6
:102420000E947D1081FD85C089E30E945F1A0E9491
:10243000E81A2FEF81EE94E0215080409040E1F7C0
:1024400000C0000089E30E94661ACF910C94E81A3C
:102450008338A1F40E947D1080FD6BC083E50E944B
:102460005F1A0E94E81A2FEF81EE94E0215080401D
:102470009040E1F700C0000083E5E5CF8438A1F487
:102480000E947D1082FD55C087E40E945F1A0E9461
:10249000E81A2FEF81EE94E0215080409040E1F760
:1024A00000C0000087E4CFCF8CEF8C0F813A90F40E
:1024B0006C2F80910801909109010E941D1C8823B6
:1024C00029F08C2F0E94661A0E94E81A8C2F0E9415
:1024D0005F1ABBCF80E28C0F883048F4C77081E070
:1024E00001C0880FCA95EAF70E94A81AAECFEBE5A3
:1024F000EC0FE33040F4F0E0E656FE4F808190E0D0
:10250000CF910C94B110E8E5EC0FE73150F4F0E016
:10251000EE0FFF1FE459FE4F80819181CF910C9403
:10252000C710C03F30F08C2F0E946F08CF910C94E1
:102530004209CF910895882309F452C0823871F47A
:102540000E947D1081FF4CC089E30E945F1A0E94A7
:10255000E81A89E30E94661A0C94E81A833859F441
:102560000E947D1080FF3CC083E50E945F1A0E949C
:10257000E81A83E5EFCF843859F40E947D1082FF7A
:102580002FC087E40E945F1A0E94E81A87E4E2CF16
:102590009CEF980F913AF0F290E2980F983050F437
:1025A000877091E001C0990F8A95EAF7892F0E9400
:1025B000AE1AD2CF9BE5980F933020F490E080E0E4
:1025C0000C94B11098E5980F973120F490E080E0DA
:1025D0000C94C710803F20F00E94C9080C94420957
:1025E00008951F93CF93DF93182FEB010E940912D8
:1025F000209731F4812FDF91CF911F910C949B1282
:102600008FE99FE00197F1F700C000002197F0CF1C
:1026100070E060E0893311F460E570E00C94F11231
:10262000882321F00E94A81A0C94E81A08958823A0
:1026300021F00E94AE1A0C94E81A0895BF92CF922E
:10264000DF92EF92FF920F931F93CF93DF936C0172
:10265000D62FC72FFC011281058102950F700E94B1
:102660007D1AE82E8823A1F0E12E112389F08C2F0A
:10267000807F803429F080E28D0FE12C883040F09B
:1026800082E00E94391B0E947D1A91E0E82EE92623
:10269000BC2EB2949FE0B922FBE0FB1598F1EB2D24
:1026A000F0E0EA54FA4D0C943E250C2F0F70C07FD9
:1026B00011F00295007F1123A9F0002359F080E268
:1026C0008D0F883010F0D11109C0802F0E94A81AF8
:1026D0000E94E81A8D2F0E94091214C0802F0E94B8
:1026E000B81AF6CF8D2F0E949B12002359F080E27A
:1026F0008D0F883010F0D1112CC0802F0E94AE1A9F
:102700000E94E81A2B2D2850330B2430310520F479
:102710000E947D100E94D504EE2009F48EC10E9413
:10272000791A80FD8AC1F60112820E94731A0E94F2
:10273000FE18C6010E943E150E94731ADF91CF91C8
:102740001F910F91FF90EF90DF90CF90BF900C946E
:102750001F19802F0E94BE1AD3CF2C2F2F70F22E5C
:10276000C07FC03219F0F29480EFF822DD2369F0C7
:10277000D13049F1112391F1002351F1F601858106
:1027800080FFA8CF8F70858323C0112381F00111B2
:1027900006C00E94CB1A8F290E941013B3CF0130BC
:1027A000C1F70E94CB1A8F290E94D11AABCF011119
:1027B00006C00E94DE1A8F2D0E941713A3CF01308E
:1027C00009F4A0CFF6CF112329F0063008F09ACFF4
:1027D0008F2DE2CF053008F095CFEDCF002359F3D0
:1027E000D93349F4FFEF27EE33E0F1502040304079
:1027F000E1F700C000008D2F0E949B1283CF8C2F29
:1028000086958695837069F0813009F07BCF8D2F96
:102810009C2F9370111102C090E080E00E94C710BD
:1028200071CF8D2F9C2F9370111102C090E080E02A
:102830000E94B11067CF8D2F112329F00E946F08DD
:102840000E9442095FCF0E94C908FACF8C2F837083
:1028500009F041C0111156CF4D2F42954695477052
:10286000440F440F0D2F0F7010E030E020E0042ED5
:1028700004C0000F111F221F331F0A94D2F760E01B
:1028800070E0CB01D4FF0FC06FE070E080E090E01B
:1028900004C0660F771F881F991F4A95D2F760956D
:1028A000709580959095C695C695C370602B712BD9
:1028B000822B932BC23049F058F4C13019F00E949A
:1028C000B01820CF0E949E181DCF0E94C2181ACFA8
:1028D0000E949C1817CF8695112311F08C2F8170C0
:1028E000882309F40FCF4D2F429546954770440F2A
:1028F000440F0D2F0F7010E030E020E0042E04C0D4
:10290000000F111F221F331F0A94D2F760E070E0FE
:10291000CB01D4FF0FC06FE070E080E090E004C016
:10292000660F771F881F991F4A95D2F7609570959B
:1029300080959095C695C695C370602B712B822BA0
:10294000932BC23049F058F4C13019F00E94751928
:10295000D9CE0E946319D6CE0E948719D3CE0E9489
:10296000D818D0CECF70112329F08C2F0E94FE18DA
:102970008D2F12CF8D2F0E9417138C2F0E941F199D
:10298000C1CED23F89F160F4D03FC9F0D13F29F1E7
:10299000112309F442C001119DCE8C2F8F7121C0EB
:1029A000D33F39F1D43FA1F7112369F1CF718C2FB7
:1029B0000E94FE1863E08C2F0E941E1BA3CE1123E1
:1029C00041F0053008F09ECE8C2F8F710E94421985
:1029D00099CE063008F096CEF7CF8C2F8F71112349
:1029E00069F20E94FE188ECE8C2F8F711123C9F3CD
:1029F000C5CF112329F08C2F8F710E94E91882CE48
:102A00000E94E4187FCE81E00E94391B023008F456
:102A100079CE82E00E94391B75CE002359F0D9335C
:102A200009F0E9CE8FEF97EEE3E081509040E0406F
:102A3000E1F7DFCE8C2F8F71A1CFDF91CF911F9166
:102A40000F91FF90EF90DF90CF90BF9008950F937C
:102A50001F93CF93DF93EC01688179818A810E9473
:102A60003B1A8C010E9499190E949B18B801CE0153
:102A7000DF91CF911F910F910C941E13CF93DF9391
:102A8000EC018B819C81892B29F088819981892394
:102A90008F3F59F4DF91CF910895CE010E94271501
:102AA000CE01DF91CF910C941E03CE010E94A503AD
:102AB0008111F3CF0E947D1A882361F38A818823D4
:102AC00049F382E0DF91CF910C94391B90E080E0D4
:102AD0000E94B11090E080E00E94C7100E94C51AC9
:102AE0000E94C81A0E94E81A0E94690A0C944209BE
:102AF0000E946D1A0C9466150E94B51A0C947815F4
:102B0000E92FE295EF70E250EE3070F4F0E0EE5312
:102B1000FA4D0C943E25803F19F020F4883E20F4B5
:102B200081E00895843FE1F380E00895883EC0F39A
:102B3000813FD1F7F5CF93FB882780F908950E9454
:102B4000311A0C948015CF93DF9300D000D00F92F0
:102B5000CDB7DEB70F900F900F900F900F90DF91D1
:102B6000CF910895CF93DF9300D000D000D0CDB7A0
:102B7000DEB726960FB6F894DEBF0FBECDBFDF914D
:102B8000CF9108951F93CF93DF93C091E40116E096
:102B90008091E5018C1304C0DF91CF911F910895BE
:102BA000D0E01C9FF0011D9FF00D1124EA51FE4F53
:102BB0004081518162817381848195810E94B21527
:102BC0002196C770E5CF409116025091170260918F
:102BD00018027091190280911A0290911B020C94B4
:102BE000B2151F93CF93DF9380911B02807FA9F4CE
:102BF00080911802882389F08091E401C091E50159
:102C00006091160270911702A0911902B0911A02F8
:102C1000D62FD72316E0C81304C0DF91CF911F91A0
:102C2000089590E0109711F0DF3F19F40196877036
:102C3000F2CF189F9001199F300D1124F901EA512C
:102C4000FE4F41814713F2CF40814613EFCF4281BF
:102C50004111ECCF438154814A1B5B0B483C510529
:102C600028F780911B028F70806180931B02F9010D
:102C7000E551FE4F80818F708061808386E192E014
:102C80000E943E15DF91CF911F910C94C215AF9217
:102C9000BF92CF92DF92EF92FF920F931F93CF9349
:102CA000DF93CDB7DEB761970FB6F894DEBF0FBEE6
:102CB000CDBF8C0185E0F801DE011D9601900D92DB
:102CC0008A95E1F7F80140815181E28086E1C82EC2
:102CD00082E0D82E6091190270911A026115710577
:102CE00009F461C19091160220911702892F822365
:102CF0008F3F09F458C1A380B480F0901802F50109
:102D0000E61BF70BFF2009F4FCC080911B02382F53
:102D1000307FE83CF10508F0B2C0311179C0FE2CDB
:102D2000251323C0941321C0E1101FC08F70806150
:102D300080931B020E94E315C6010E943E158091FC
:102D40001B02F80185838F2D61960FB6F894DEBFC4
:102D50000FBECDBFDF91CF911F910F91FF90EF90EC
:102D6000DF90CF90BF90AF900895AB2829F0842FCB
:102D700085238F3F09F033C180E0F82FF170DF2EFB
:102D800080FF3CC08091E4012091E50136E0821390
:102D900015C04D875E878D859E850E94311A292F2B
:102DA00022952F702230F0F0243018F59F70F1F04A
:102DB000F8019581907FD1F4D12C1EC090E0389F0E
:102DC000F001399FF00D1124EA51FE4F6181651326
:102DD00006C06081641303C062816E110FC001964A
:102DE0008770D5CF9F7011F0882331F3805E8830D3
:102DF00018F3C8010E943E15FD2CA5CFEE2009F462
:102E0000A2CF80911B02816080931B02F12C9BCF8B
:102E1000251306C0941304C0F801EE2009F48DC0F8
:102E20004D875E878D859E850E949F15882319F1A9
:102E3000EE2009F180911B02803270F02091160281
:102E40003091170238872F831986BB86AA868C8714
:102E5000CE0107960E943E1586E0F801A6E1B2E099
:102E600001900D928A95E1F70E94F1150E94E315F9
:102E7000FF24F39468CFC8010E943E15F9CF3111A9
:102E800013C07A2DB98AA88A6E2D89890E94A3154C
:102E900086E192E00E943E1586E0F60111928A9545
:102EA000E9F70E94E315B2CF25130FC094130DC0AC
:102EB000E1100BC0F8018583C8010E943E1586E031
:102EC000F60111928A95E9F73ECF4D875E878D8591
:102ED0009E850E949F15882371F2EE2061F28091F9
:102EE0001B02803208F4B8CF2091160230911702ED
:102EF0003A8329831B82BD82AC828E83CE010196E8
:102F0000A9CFE83CF10508F041C0FE2CEE2009F401
:102F1000B2CF25132AC0941328C080911B0280FDD4
:102F20001BC0982F907FC1F0F8018583903F31F04E
:102F3000982F907F905F8F70892B8583C8010E94A6
:102F40003E1586E0F801A6E1B2E001900D928A9567
:102F5000E1F70E94E315F7CE86E0F801A6E1B2E0C2
:102F600001900D928A95E1F7EECE4D875E878D85B3
:102F70009E850E949F1581116FCF80911B028160F9
:102F800080931B02C8010E943E15DDCE7A2DB98ABE
:102F9000A88A6E2D89890E94A31586E0F6011192F8
:102FA0008A95E9F7D6CFEE2009F465CF4D875E8785
:102FB0008D859E850E949F15F82E882309F45BCF8E
:102FC00086E0F801A6E1B2E001900D928A95E1F762
:102FD00086E192E00E9404120E94F115BACF81E0CE
:102FE0008E25CBCE1F93CF93DF93CDB7DEB72C9733
:102FF0000FB6F894DEBF0FBECDBF4F8358876987E9
:103000007A878B879C87CE0107960E944716882374
:1030100069F08A859B85892B39F04F815885842FEB
:1030200085238F3F09F071C016E05FC086E0FE0186
:103030003796DE01119601900D928A95E1F78A8507
:103040009B85892B89F38F81988589238F3F61F335
:103050002091E50130E0C9010196877099274091E0
:10306000E4014817190671F40E947C151092E501DD
:103070001092E40186E0E6E1F2E0DF011D928A951C
:10308000E9F7D2CF96E0929FD001939FB00D112423
:10309000AA51BE4FFE01319601900D929A95E1F72B
:1030A0008093E5010E94C215BFCF819FC00111240A
:1030B0008A519E4F0E9447168823E9F0E091E4016F
:1030C0001E9FF0011124EA51FE4F4081518162811F
:1030D0007381848195810E94B2158091E40190E012
:1030E0000196877099278093E4018091E401909183
:1030F000E5018913DACF2C960FB6F894DEBF0FBE28
:10310000CDBFDF91CF911F91089569857A858B8519
:103110009C850E94B21588CF08950C948C180E944B
:103120008D18609348027093490280934A029093ED
:103130004B020C94661508950C948F180F931F93EF
:10314000009148021091490220914A0230914B02AD
:10315000602B712B822B932B1F910F910C948F1846
:103160000F931F93009148021091490220914A0247
:1031700030914B0260237123822393231F910F917F
:103180000C948F180F931F930091480210914902DD
:1031900020914A0230914B026027712782279327A2
:1031A0001F910F910C948F180C948C180C94D418B8
:1031B0000E94D618609344027093450280934602A1
:1031C000909347020C94661560E070E0CB010C947C
:1031D000D8180F931F9341E050E060E070E08A013F
:1031E0009B0104C0000F111F221F331F8A95D2F7C5
:1031F000C901B8011F910F910C94D8180F931F9318
:1032000041E050E060E070E004C0440F551F661FCD
:10321000771F8A95D2F78091440290914502A09140
:103220004602B09147028A019B01082B192B2A2BD9
:103230003B2BC901B8011F910F910C94D8180F9323
:103240001F9341E050E060E070E004C0440F551F60
:10325000661F771F8A95D2F7CB01BA0160957095EA
:10326000809590950091440210914502209146026C
:103270003091470260237123822393231F910F9182
:103280000C94D8180F931F9341E050E060E070E079
:1032900004C0440F551F661F771F8A95D2F780918F
:1032A000440290914502A0914602B09147028A01E2
:1032B0009B01082719272A273B27C901B8011F911D
:1032C0000F910C94D8180F931F9300914402109102
:1032D00045022091460230914702602B712B822BD0
:1032E000932B1F910F910C94D8180F931F9300915B
:1032F000440210914502209146023091470260231A
:103300007123822393231F910F910C94D8180F934C
:103310001F93009144021091450220914602309182
:10332000470260277127822793271F910F910C94E2
:10333000D8180895990F990F990F890F982F9770A2
:1033400041E001C0440F9A95EAF7869586958695E7
:1033500095E0899FF0011124E45EFD4F30E020E00C
:1033600070E05191DF011197CB01022E02C09695BA
:1033700087950A94E2F781708195852784238527B4
:103380008C932F5F3F4F2530310559F70895990FE2
:10339000990F990F890F982F977086958695869526
:1033A00025E0829FF0011124E45EFD4F50E040E0F3
:1033B00080E0219130E0092E02C0369527950A94CD
:1033C000E2F721703327042E01C0220F0A94EAF796
:1033D000822B4F5F5F4F4530510559F70895BF92DB
:1033E000CF92DF92EF92FF920F931F93CF93DF93D1
:1033F0008C01C0904402D0904502E0904602F090CB
:1034000047028091480290914902A0914A02B091EE
:103410004B02C82AD92AEA2AFB2ACFE1D0E0BC2EE7
:10342000D701C6010C2E04C0B695A7959795879530
:103430000A94D2F780FD0EC0219788F7B12C8B2D0E
:10344000DF91CF911F910F91FF90EF90DF90CF9080
:10345000BF900895B8018C2F0E94DD04019761F39D
:10346000EECFCF93DF93EC010E94EF19BE01DF9105
:10347000CF910C94DD041F93CF93DF93EB019091D8
:10348000E301992331F0CB01DF91CF911F910C948F
:10349000311A882379F0CB010E94EF19182F682F79
:1034A000CE010E949A19BE01812FDF91CF911F9109
:1034B0000C94DD04CB010E94C719182FF4CF682F9C
:1034C00080910801909109010C949D1C682F8091B6
:1034D0000801909109010C94A81C80910801909119
:1034E00009010C94B31C80914C02859585958595B6
:1034F000089580914C028770089590914C029770C6
:1035000081E009F480E008959091960292FB2227D1
:1035100020F9281751F080FB92F990939602809140
:103520009502909196020C947E1B089580919602CC
:1035300082FB882780F991E089270C94841A81E026
:103540000C94841A80E00C94841A8091700208957F
:1035500090917002892B80937002089580959091CC
:10356000700298239093700208951092700208954B
:1035700090916F02892B80936F02089580959091AE
:103580006F02982390936F02089510926F0208952E
:1035900010926E02089580914D02089508950C9442
:1035A000CE1A9091960292FD08C090914D02981704
:1035B00021F080934D020C94CF1A089580914D0212
:1035C000882329F010924D0280E00C94CF1A0895C0
:1035D000E0910801F0910901809170028083E091EF
:1035E0000801F0910901808190916F02892B8083FD
:1035F000E0910801F0910901808190916E02892B80
:10360000808390914D02992381F0E0910801F0911F
:1036100009018081892B80838091080190910901A3
:103620000E94091C81110E94DE1A8091080190916C
:1036300009010C94891008950C941B1B909196021B
:1036400092FD10C098E0899F90011124622B609335
:103650004C020E94FE1880914C02859585958595B7
:103660000C941C1B0C94FE1810924C0280E00C94DD
:103670001C1B90914C028095892380934C02282F2B
:10368000277039F4282F082E000C330B92171306DD
:1036900021F49091960292FF07C0859585958595B6
:1036A0000E941F190C94341B089580E008956FEF59
:1036B0007FEF90E080E00C948B2590E080E00E940A
:1036C000672521E08A3E9E4F09F020E0822F089571
:1036D00082E090E00C945F2583E090E00C945F25FD
:1036E000CF9384E090E00E945F25C82F82E290E0B3
:1036F0000E945F25982F8C2FCF910895CF93C92FCB
:10370000682F84E090E00E946D256C2F82E290E0AB
:10371000CF910C946D25AB01BC018FE090E00C942F
:103720007F25AB01BC0183E190E00C947F2560E034
:1037300070E0CB010C94911B60E070E0CB010E9423
:103740008B1B0C94971B6AEE7EEF90E080E00E944A
:103750008B2560E082E090E00E946D2560E083E0D0
:1037600090E00E946D25109248021092490210923A
:103770004A0210924B0260E084E090E00E946D25C6
:1037800060E082E290E00E946D2560E085E090E0DC
:103790000E946D2560E086E090E00E946D256FEF4D
:1037A00087E090E00E946D2540E050E0BA0188E09B
:1037B00090E00E947F2560E08DE090E00E946D2502
:1037C00040E050E0BA0188E190E00E947F2560E08F
:1037D00087E190E00E946D2540E050E0BA018CE165
:1037E00090E00E947F2570E060E080E290E00E941F
:1037F0008B2540E050E0BA0188E190E00E947F25EF
:103800000C949C1B0C94A31B682F8EE090E00C94EE
:103810006D25FC01329680911401882321F080915E
:1038200095029EE187FF96E080E0915008F40895AC
:1038300021912223D1F38F5FF8CF662301F12091EC
:1038400014012223F1F02091950227FF1AC0462F80
:103850004695469546954E3190F4677021E030E0EC
:1038600002C0220F331F6A95E2F7840F911DFC01FD
:10387000828190E02823392381E0232B69F480E0C2
:103880000895FC01329608962191261721F0E81739
:10389000F907D1F7F4CF81E008959C01FC0132963D
:1038A0009FEF80E04191461751F09F3F19F441117D
:1038B00001C0982F8F5F8630A9F79F3F09F40895C4
:1038C000290F311D97FD3A95F90162830895FC0196
:1038D000329608962191261303C0DF0111971C929E
:1038E000E817F907B9F70895E62FE695E695E69506
:1038F000EE3168F4E80FF92FF11D677021E030E038
:1039000001C0220F6A95EAF78281822B8283089593
:10391000E62FE695E695E695EE3170F4E80FF92F7F
:10392000F11D677021E030E001C0220F6A95EAF7CF
:103930002095828128232283089520911401222337
:1039400029F02091950227FD0C94741C0C944D1CB9
:1039500020911401222329F02091950227FD0C9437
:10396000881C0C94671CFC013296809114018823FA
:1039700051F08091950287FF06C08EE1DF011D9214
:103980008A95E9F7089586E0F9CF089508950C9493
:10399000C61C8091AF02843049F10E94C71C80E0B0
:1039A0000E94D5041092720288E190E020E40FB6E4
:1039B000F894A895809360000FBE2093600083B7B1
:1039C000817F846083BF83B7816083BF789488954B
:1039D00083B78E7F83BF0FB6F894A895809160005F
:1039E000886180936000109260000FBE0895089572
:1039F000CF930E94C51C0E943E070E94F71CC0E0A6
:103A00008C2F0E94F306811105C0CF5FC830C1F72B
:103A1000CF91089581E0FCCF08950C940C1D0E9475
:103A20007C150E947D100E94D5040C940D1D1F92E0
:103A30001FB61F9211248F939F93AF93BF938091D2
:103A40007202811113C08091A7029091A802A091E7
:103A5000A902B091AA024196A11DB11D8093A702AF
:103A60009093A802A093A902B093AA02BF91AF912C
:103A70009F918F911F901FBE1F90189582E084BD6B
:103A800093E095BD9AEF97BD80936E0008952FB790
:103A9000F8948091A7029091A802A091A902B091F8
:103AA000AA022FBF08952FB7F8946091A7027091D2
:103AB000A8028091A9029091AA022FBF08959C01AB
:103AC0004FB7F8948091A7029091A802A091A90203
:103AD000B091AA024FBF821B930B089578941F9256
:103AE0001FB61F9211248F939F93AF93BF93809122
:103AF000A7029091A802A091A902B091AA020196F2
:103B0000A11DB11D8093A7029093A802A093A902C2
:103B1000B093AA02BF91AF919F918F911F901FBE4A
:103B20001F90189581E08093E00080E28093D80098
:103B30001092C9008FE19EE40197F1F700C00000E8
:103B400087E090EBDC018093B8029093B902A093D8
:103B5000BA02B093BB0288E19CE00FB6F894A89536
:103B6000809360000FBE90936000FFCF9093AD01F3
:103B70008093AC010895809193020895CF93DF93D1
:103B800000D00F92CDB7DEB79091AF02943011F50F
:103B900089837B836A839093E9008FEF9091E8009B
:103BA000815095FD06C095ED9A95F1F700008111C1
:103BB000F5CF8091E80085FF0DC050E040E063E064
:103BC00070E0CE0101960E944A208091E8008E7735
:103BD0008093E8000F900F900F90DF91CF910895A0
:103BE000BC0184E00C94BE1DBC0183E00C94BE1D9E
:103BF0009C0184E08093E9009FEF8091E800915060
:103C000085FD06C085ED8A95F1F700009111F5CF8D
:103C10008091E80085FF0CC050E040E066E070E075
:103C2000C9010E944A208091E8008E778093E800C5
:103C30000895CF93DF93EC01809114018823B1F1B3
:103C40008091950287FF32C060E284E08093E900B2
:103C50008FEF9091E800815095FD06C095ED9A9503
:103C6000F1F700008111F5CF8091E80085FF1BC0BE
:103C70008091140170E050E040E0811104C050E0F8
:103C800040E068E070E0CE010E944A208091E800A8
:103C90008E778093E80080E2FE01A3E7B2E0019016
:103CA0000D928A95E1F7DF91CF91089568E081E068
:103CB000CDCFCF93FC01603221F58091AF028430EB
:103CC00001F5C091E900CF702091EC00922F917026
:103CD00020FD90E8C92B82E08093E9008091E80004
:103CE00080FF0CC050E040E060E270E0CF010E9435
:103CF0004A208091E8008E778093E800CF70C093CF
:103D0000E900CF9108958091AE02811109C00E940F
:103D100029220E9486228091E20084608093E20042
:103D200008951092AE02089508950895089542E00E
:103D300061EC81E00E94A52142E261EC84E00E94F6
:103D4000A52142E261EC82E00E94A52142E260EC02
:103D500083E00C94A5218091B102833009F461C005
:103D600030F48130D1F1823009F49DC008958A3059
:103D700009F489C08B3009F46FC0893009F050C054
:103D80008091B002813209F04BC08091B4029091D1
:103D9000B502009719F0029709F042C08091E8003F
:103DA000877F8093E8008091E80082FF35C0909182
:103DB000F3008091F200029729F48091F1008B7F4B
:103DC000813021F48091F100809393028091E8008A
:103DD0008B778093E8000C94D9218091B002813ACE
:103DE000F9F48091E800877F8093E8008091B40225
:103DF0009091B502892B61F460E283E792E070E074
:103E00000E94E8208091E8008B778093E800089575
:103E100060E090E080E0F3CF8091AF028111C3CFEA
:103E200008958091B002813AD9F78091B4029091BF
:103E3000B502892BA9F78091E800877F8093E8007D
:103E40008091E80080FFFCCF809114018093F10005
:103E50008091E8008E77BDCF8091B002813201F76A
:103E60008091B4029091B502892BD1F68091E8003F
:103E7000877F8093E8000E94D9218091B2028093CD
:103E800014010C947C158091B002813249F6809126
:103E9000E800877F8093E8000E94D9218091B302D7
:103EA0008093940208958091B002813A09F0B8CFCE
:103EB0008091E800877F8093E8008091E80080FF90
:103EC000FCCF80919402C2CFCDB7DEB7A0970FB6DA
:103ED000F894DEBF0FBECDBF84B7877F84BF0FB617
:103EE000F894A8958091600088618093600010929A
:103EF00060000FBE80E890E00FB6F89480936100F8
:103F0000909361000FBE0E9411110E9429220E940D
:103F100086228091E20084608093E20078940E947F
:103F20000F250E9425118AE091E00E94781013E08D
:103F30008091AF028530B9F00E942F118091AF02BD
:103F40008430C1F00E942111F3CF0E94C91C8091DE
:103F5000AD02882341F00E94F81C882321F00E94C2
:103F600034200E947C158091AF02853071F30E944D
:103F70000F1DE2CF1093E9008091E80082FFE2CFAD
:103F80008091E80090E085FF09C050E040E060E2E9
:103F900070E0CE0101960E94992091E08091E800A6
:103FA0008B778093E800992369F260E2CE01019655
:103FB0000E94250CC7CF0C94DD1F292F33272330F7
:103FC000310521F168F42130310509F443C0223074
:103FD000310509F444C090E080E030E020E026C0E4
:103FE0002132310551F122323105A9F763307105D3
:103FF00090F7FB01EE0FFF1FE056FE4F208131814D
:1040000063567E4FFB01808190E010C0992781307C
:10401000910581F0009729F00297E9F6ECE5F3E0CD
:1040200002C0E2E9F3E0849190E09F01FA0131835C
:1040300020830895ECE6F3E0F6CF6330710558F67F
:10404000660F771FFB01EA55FE4F2081318189E021
:1040500090E0ECCF82E190E021EF33E0E7CF8BE519
:1040600090E026E933E0E2CF80E189BD82E189BDBD
:1040700009B400FEFDCF8091D8008F7D8093D800D9
:104080008091E00082608093E0008091E00081FDFB
:10409000FCCF0895AF92BF92CF92DF92FF920F9321
:1040A0001F93CF93DF936C01EB018A010E94F821EB
:1040B000F82E811123C00115110539F0F801808116
:1040C0009181C81BD90BC80ED91EB12CA12C2097E9
:1040D000A9F08091E80085FD22C08091E8008E77EC
:1040E0008093E80001151105A1F0F801808191810C
:1040F000A80EB91EB182A08285E0F82E8F2DDF9127
:10410000CF911F910F91FF90DF90CF90BF90AF9014
:1041100008950E94F8218823D1F2F82EEFCFF601FE
:1041200081916F018093F1002197FFEFAF1ABF0AD1
:10413000CECFAF92BF92CF92DF92FF920F931F9399
:10414000CF93DF936C01EB018A010E94F821F82ED6
:10415000811123C00115110539F0F8018081918189
:10416000C81BD90BC80ED91EB12CA12C2097A9F0C1
:104170008091E80085FD22C08091E8008B778093D4
:10418000E80001151105A1F0F80180819181A80EC8
:10419000B91EB182A08285E0F82E8F2DDF91CF91DC
:1041A0001F910F91FF90DF90CF90BF90AF90089537
:1041B0000E94F8218823D1F2F82EEFCF8091F100F0
:1041C000F60181936F012197FFEFAF1ABF0ACECF9F
:1041D000FC018091B6029091B70286179707A0F074
:1041E0006115710529F49091E8009E779093E8009D
:1041F00090E06115710551F4911108C08091E800BB
:1042000082FF34C080E00895BC01F2CF8091AF02FC
:104210008823C1F18530C1F18091E80083FD30C071
:104220008091E80082FDEACF8091E80080FFE1CF35
:104230008091F3002091F200382F6115710519F07B
:104240002830310558F091E02830310509F090E030
:104250002091E8002E772093E800CBCF81918093C6
:10426000F100615071092F5F3F4FE7CF8091AF029E
:10427000882341F0853041F08091E80083FFBECF74
:1042800081E0089582E0089583E00895FC01809123
:10429000B6029091B70286179707A0F061157105D5
:1042A00029F48091E8008E778093E80090E0611512
:1042B000710551F4911108C08091E80082FF35C06A
:1042C00080E00895BC01F2CF8091AF028823C9F14C
:1042D0008530C9F18091E80083FD31C08091E8000C
:1042E00082FDEACF8091E80080FFE1CF8091F3006A
:1042F0002091F200382F6115710519F02830310531
:1043000058F091E02830310509F090E08091E80004
:104310008E778093E800CBCF84918093F100319623
:10432000615071092F5F3F4FE6CF8091AF02882324
:1043300041F0853041F08091E80083FFBDCF81E0FE
:10434000089582E0089583E00895982F973028F02B
:104350008F708093E90081E008959093E900242F05
:10436000762F50E0981731F07091EC002091ED001D
:104370005091F00021FD02C09F5FE8CF3091EB002B
:104380003E7F3093EB003091ED003D7F3093ED00A8
:104390003091EB0031603093EB007093EC00209390
:1043A000ED005093F0002091EE0027FDE5CF80E076
:1043B00008958091B00287FF13C08091E80082FFCA
:1043C00006C08091E8008B778093E80004C080915C
:1043D000AF028111F2CF08958091AF028823D9F303
:1043E0008091E80080FFF8CF8091E8008E77ECCFD5
:1043F0002091E4003091E50095E6A9012091EC00C0
:10440000822F817020FF06C08091E80080FF06C0E7
:1044100080E008952091E80022FD1AC08091AF024B
:10442000882389F0853089F08091EB0085FD0FC0ED
:104430002091E4003091E50042175307F9F29150C2
:10444000E1F684E0089582E0089583E0089581E034
:1044500008950E9497220E949F22E0EEF0E0808162
:1044600081608083E8EDF0E080818F77808319BCE4
:10447000A7EDB0E08C918E7F8C9380818F7E8083BE
:104480001092AE0208950F931F93CF93DF930E9473
:1044900097220E949F22C8EDD0E088818F77888381
:1044A00088818068888388818F7D888319BC109279
:1044B000AF021092AB021092AD021092AC0200EE6D
:1044C00010E0F80180818B7F808388818160888300
:1044D00042E060E080E00E94A521E1EEF0E0808112
:1044E0008E7F8083E2EEF0E0808181608083808136
:1044F00088608083F80180818E7F808388818061DD
:104500008883DF91CF911F910F910895E8EDF0E03E
:1045100080818F7E8083E7EDF0E080818160808301
:1045200084E082BF81E08093AE020C944322E8EDE8
:10453000F0E080818E7F80831092E20008951092D7
:10454000DA001092E10008951F920F920FB60F92B9
:1045500011242F933F934F935F936F937F938F9388
:104560009F93AF93BF93EF93FF938091E10082FFFE
:104570000BC08091E20082FF07C08091E1008B7F39
:104580008093E1000E940E258091DA0080FF19C01F
:104590008091D80080FF15C08091DA008E7F8093D3
:1045A000DA008091D90080FF96C080E189BD82E168
:1045B00089BD09B400FEFDCF81E08093AF020E9467
:1045C000831E8091E10080FF19C08091E20080FF8E
:1045D00015C08091E2008E7F8093E2008091E2001E
:1045E00080618093E2008091D80080628093D8003F
:1045F00019BC85E08093AF020E94951E8091E10076
:1046000084FF2BC08091E20084FF27C080E189BD38
:1046100082E189BD89B5982F917080FFFBCF809191
:10462000D8008F7D8093D8008091E1008F7E8093A9
:10463000E1008091E2008F7E8093E2008091E200B1
:1046400081608093E2008091AB02882309F449C025
:1046500084E08093AF020E94961E8091E10083FF68
:1046600029C08091E20083FF25C08091E100877F0F
:104670008093E10082E08093AF021092AB028091C0
:10468000E1008E7F8093E1008091E2008E7F809335
:10469000E2008091E20080618093E20042E060E00D
:1046A00080E00E94A5218091F00088608093F00056
:1046B0000E94941EFF91EF91BF91AF919F918F91B6
:1046C0007F916F915F914F913F912F910F900FBE0E
:1046D0000F901F90189519BC1092AF020E94911E66
:1046E00070CF8091E30087FD93E09093AF02B3CF4A
:1046F0001F920F920FB60F9211242F933F934F9357
:104700005F936F937F938F939F93AF93BF93CF9359
:10471000DF93EF93FF93D091E900DF708091EC007D
:10472000C82FC17080FDC0E81092E9008091F000B0
:10473000877F8093F00078940E94BC231092E90058
:104740008091F00088608093F000CD2BCF70C093F3
:10475000E900FF91EF91DF91CF91BF91AF919F91D0
:104760008F917F916F915F914F913F912F910F901A
:104770000FBE0F901F9018951F93CF93DF93CDB767
:10478000DEB7AA970FB6F894DEBF0FBECDBF80EBA1
:1047900092E02091F100FC012193CF01F2E0883BEF
:1047A0009F07B9F70E94AB1E8091E80083FF1EC1EE
:1047B0008091B0029091B1029A3008F017C1E92FB0
:1047C000F0E0E053FA4D0C943E25803899F08238A1
:1047D00009F00CC18091B4028F70873008F006C1D7
:1047E0008093E9008091EB0085FB882780F9109287
:1047F000E90006C08091AC029091AD0291118260F7
:104800009091E800977F9093E8008093F1001092D8
:10481000F1008091E8008E77E5C0882309F4D3C0C9
:10482000823009F0E3C08091B2028111D6C080913C
:10483000B4028F702FEF280F263008F0D7C0809376
:10484000E9002091EB0020FFC8C0933031F4809143
:10485000EB0080628093EB00C0C09091EB00906110
:104860009093EB0021E030E001C0220F8A95EAF737
:104870002093EA001092EA008091EB008860EACF72
:104880008111B4C01091B2021F778091E30080784B
:10489000812B8093E3008091E800877F8093E8007C
:1048A0000E94D9218091E80080FFFCCF8091E30035
:1048B00080688093E30082E0111183E08093AF026F
:1048C00095C08058823008F091C08091B2029091DA
:1048D000B3028C3D23E09207A1F583E08A838AE24C
:1048E00089834FB7F894DE01139620E03EE051E251
:1048F000E32FF0E050935700E49120FF03C0E295CE
:10490000EF703F5FEF708E2F90E0EA30C0F0C796F7
:104910008D939D932F5F243159F74FBF8091E8000D
:10492000877F8093E8006AE270E0CE0101960E94E2
:10493000E8208091E8008B778093E80057C0C0960C
:10494000E7CF6091B4027091B502AE014F5F5F4F47
:104950000E94DB1FBC01892B09F448C09091E8003C
:10496000977F9093E80089819A810E944621E1CF48
:104970008038E1F58091E800877F8093E80080919E
:10498000AB028093F10045CF811130C09091B2020B
:10499000923060F58091E800877F8093E8009093E3
:1049A000AB020E94D9218091AB02882311F084E0F0
:1049B00005C08091E30087FDFACF81E08093AF02CC
:1049C0000E94971E13C08091B202813079F481E079
:1049D000933009F080E08093AD021092E90080915D
:1049E000E800877F8093E8000E94D9218091E80049
:1049F00083FF0AC08091E800877F8093E800809160
:104A0000EB0080628093EB00AA960FB6F894DEBFAD
:104A10000FBECDBFDF91CF911F9108950895CF9321
:104A20008091AF028823A1F0C091E900CF709091EE
:104A3000EC00892F817090FD80E8C82B1092E9006E
:104A40008091E80083FD0E94BC23CF70C093E900F1
:104A5000CF91089597FB072E16F4009407D077FDA9
:104A600009D00E944B2507FC05D03EF49095819516
:104A70009F4F0895709561957F4F0895EE0FFF1F2A
:104A80000590F491E02D09946927962769277827E6
:104A9000872778270895AA1BBB1B51E107C0AA1FCF
:104AA000BB1FA617B70710F0A61BB70B881F991FCF
:104AB0005A95A9F780959095BC01CD010895F99973
:104AC000FECF92BD81BDF89A992780B50895A8E1DF
:104AD000B0E042E050E00C949325262FF999FECFE8
:104AE00092BD81BDF89A019700B4021639F01FBA41
:104AF00020BD0FB6F894FA9AF99A0FBE089503965E
:104B0000272F0E946E250E946D25252F0E946E255D
:104B1000242F0C946E250196272F0E946E250C944D
:104B20006D25DC01CB01FC01F999FECF06C0F2BD79
:104B3000E1BDF89A319600B40D9241505040B8F75B
:104B40000895F894FFCF370C440C6B0C770C820C53
:104B50008D0C900C900C900C900C900C930C970C6E
:104B60009F0CAC0CB90CBC0CBF0CCC0C55135513E2
:104B7000AD13AD13FF131B14821382132614B2144A
:104B8000C114C1148B158B15941594159615941595
:104B9000941594158B158B159B15941594159B15D1
:104BA000E5230D24F6240D24F62440246124F62464
:044BB000B824C4243D
:104BB4002808641E140A321E4E02BB1D191EF81D5D
:104BC400F41DF01D01E200E900EA00B500B600B7EB
:104BD40000CD008301CC008A0192019401210223BB
:104BE4000224022502260227022A02B300B4006F1F
:104BF4000070008182839697343536943132F0F117
:104C0400F4F5F6F7676600FF0100010000FFFF00FE
:104C140000010001FF00040291939295E200E90073
:104C2400EA00B500B600B700CD008301CC008A01CC
:104C34009201940121022302240225022602270262
:104C44002A02B300B4006F0070008182834022B650
:0C4C5400DB0403042504A803C103E103F2
:00000001FF
