:100000000C9444020C948B020C948B020C948B0283
:100010000C948B020C948B020C948B020C948B022C
:100020000C948B020C948B020C94410D0C94150CC7
:100030000C9457130C948B020C948B020C948B022F
:100040000C948B020C948B020C948B020C948B02FC
:100050000C948B020C9400130C948B020C948B0266
:100060000C948B020C948B020C948B020C948B02DC
:100070000C948B020C948B020C948B020C948B02CC
:100080000C948B020C948B020C948B020C948B02BC
:100090000C948B020C948B020C948B020C948B02AC
:1000A0000C948B020C948B020C948B0204090409AF
:1000B0003E093E099109AD09760B760BEF09CD0A91
:1000C000DE0ADE0A3C163C164F164F1645164F1632
:1000D0004F164F163C163C164A164F164F164A1628
:1000E000DB1B021CA41D021CA41D4A1C6D1CA41DAC
:1000F000681D7B1DA800AC00AE00AB0029003A00D3
:100100003B003C003D003E003F00530054005500C2
:10011000560035001E001F00200021002200230091
:100120005F006000610057002B0014001A000800F7
:100130001500170000005C005D005E0067003900DC
:1001400004001600070009000A0000005A005B00C6
:100150005800E10064001D001B00060019000500A6
:10016000000062006200085D6300E000E300E2005E
:10017000A8002C00000000000000400041004200E8
:1001800043004400450046004700480000002400AA
:100190002500260027002D002E002A004C004A00D2
:1001A000490000001C0018000C00120013002F0072
:1001B000300031004D004C0000000B000D000E001F
:1001C0000F003300340028004B004E00590000009F
:1001D000000011001000360037003800E500015122
:1001E000520000000000000000002C006500E60046
:1001F000E700E400500051004F0000000100010042
:1002000001000100010001000100010001000100E6
:1002100001000100010001000100010001000100D6
:1002200001000100010001000100010001000100C6
:1002300001000100010001000100010000000100B7
:1002400001000100010001000100010001000100A6
:100250000100000001000100010001000100010097
:100260000100010001000100000001000100010087
:100270000100010001000100010001000000000078
:100280000000010001000100010001000100010067
:100290000100005C000001000100010001000100FC
:1002A0000100010001000100010000000100010047
:1002B0000100010001000100010001000100010036
:1002C0000000010001000100010001000100010027
:1002D0000100010001000000000001000100010018
:1002E0000100010001000100010000000000000009
:1002F00000000100010001000100010001000100F7
:100300000100000005010902A10185020901A10007
:1003100005091901290515002501950575018102B9
:100320009501750381010501093009311581257F8A
:1003300095027508810609381581257F9501750894
:100340008106050C0A38021581257F950175088103
:1003500006C0C005010980A101850319012AB70063
:10036000150126B700950175108100C0050C090123
:10037000A101850419012AA002150126A0029501F8
:1003800075108100C005010906A101850505071941
:10039000E029E71500250195087501810205071977
:1003A0000029EF1500250195F07501810205081956
:1003B000012905950575019102950175039101C00B
:1003C00005010906A101050719E029E71500250126
:1003D00095087501810295017508810105071900CD
:1003E00029FF150026FF00950675088100050819EC
:1003F000012905950575019102950175039101C0CB
:1004000009023B00020100A0FA09040000010301F7
:1004100001000921110100012240000705810308A4
:10042000000A090401000103000000092111010074
:100430000122BC000705820320000A1201100100FE
:100440000000084B54115101000102030104033064
:100450000000000C03530050003100310031000057
:1004600000200354006800650020004B00650079FF
:1004700000200043006F006D00700061006E007985
:10048000000000040309040011241FBECFEFDAE0CE
:10049000DEBFCDBF04B603FE27C08091A3029091BA
:1004A000A402A091A502B091A6028730904BA7406C
:1004B000B04BD1F41092A3021092A4021092A502A4
:1004C0001092A60214BE84B7877F84BF0FB6F8943B
:1004D000A895809160008861809360001092600010
:1004E0000FBEE0E0F8E3099511E0A0E0B1E0ECE137
:1004F000FFE302C005900D92A834B107D9F722E0BE
:10050000A8E4B1E001C01D92A33AB207E1F70E944E
:10051000820E0C948C1F0C9400009091560192FF57
:100520000DC0282F2871283019F4877F846006C0F9
:10053000282F2471243011F48B7F886093FF0DC025
:10054000282F2871283119F4877E846106C0282F4E
:100550002471243111F48B7E88612091570120FF92
:100560000DC0382F3871383019F4877F816006C08C
:10057000382F3171313011F48E7F886021FF0DC02A
:10058000282F2871283119F4877E816106C0282F11
:100590002171213111F48E7E886194FD877E08954A
:1005A0001F93CF93DF93CDB7DEB767970FB6F8945D
:1005B000DEBF0FBECDBF4B8B5C8B6D8B7E8B8F8B6D
:1005C00086E09E01235F3F4FD901E82F1D92EA95F7
:1005D000E9F795E0FE017396D90101900D929A9585
:1005E000E1F7F901DE01179601900D928A95E1F786
:1005F000CE0107960E94531681113EC086E0FE018F
:100600003796DE01119601900D928A95E1F7FF81F0
:10061000E8856A857B856115710531F0EF3F31F41E
:1006200081E0FF3F19F403C081E001C080E080FD5C
:1006300023C02091C10130E0C9010196877099273C
:100640004091F20150E08417950779F1F983EA832C
:100650007D836C8396E0929FD001939FB00D11240F
:10066000AE53BE4FFE01319601900D929A95E1F77F
:100670008093C1010E94B41516E08091F20190911F
:10068000C1018917F9F0189FC00111248E539E4FA4
:100690000E9453168823B1F08091F20190E00196F8
:1006A000877099278093F201E8CF0E941D1810925D
:1006B000C1011092F201EBEBF1E086E0DF011D9247
:1006C0008A95E9F767960FB6F894DEBF0FBECDBFE7
:1006D000DF91CF911F9108952091500130915101E8
:1006E0002817390771F09093510180935001E091E0
:1006F0005801F0915901309721F00084F185E02DE7
:100700000994089520914E0130914F01281739071F
:1007100071F090934F0180934E01E0915801F09158
:100720005901309721F00680F781E02D0994089552
:10073000E0915801F0915901309721F00190F0813A
:10074000E02D099480E00895CF93DF9324E8829F01
:10075000C0011124FC014BE0749FE00DF11D112438
:10076000E60FF11DEE0FFF1FEC50FF4FC591D49126
:10077000CE01C238D10569F1B0F4C133D10509F415
:1007800075C048F4C932D10509F469C0CA32D1052F
:1007900009F473C085C0C533D10509F459C0C93304
:1007A000D105B9F07DC0C33ED10571F138F4C03E2A
:1007B000D105B1F0C23ED10511F172C0C63ED105DE
:1007C000B9F1C73ED105C9F1C43ED10509F068C0F1
:1007D00024C02091560120FD5DC021FD5BC060C09A
:1007E0002091560120FD50C02091570120FF51C19A
:1007F0008091560184FD4BC183EE90E04AC1209167
:10080000560122FF46C1F4CF8091560182FD3FC0C0
:100810008091570180FD3EC0EBCF2091570121FF11
:1008200038C18091560184FD32C187EE90E031C11C
:100830002091560123FF2DC1F4CF8091560183FDF5
:100840002CC08091570181FFECCF84EE90E021C154
:100850002091560125FF1DC189E290E01AC1209127
:10086000560125FF16C185E390E013C12091560182
:1008700026FF0FC18AE290E00CC12091560126FFAD
:1008800008C181E390E005C189E390E002C182EEF6
:1008900090E0FFC080EE90E0FCC086EE90E0F9C0F2
:1008A000C11551E5D50708F06CC0C11520E5D20788
:1008B000F0F0CE01F4E096958795FA95E1F7282FB0
:1008C00023703C2F337081E090E002C0880F991FA5
:1008D0003A95E2F79C68922B2C2F2F70269526953F
:1008E00050E2259F90011124822B932BD2C0C83E49
:1008F000D10570F5C03ED10508F0CBC0C83AD1058E
:10090000B8F4C53AD10550F02C2F255AC22FD0E0AB
:10091000C55FDE4F888190E09064BBC0C130D105D7
:1009200009F4B7C008F4B3C0249708F4B0C0B1C04C
:10093000CF3BD10508F0ABC02C2F285AC22FD0E0F6
:10094000CC0FDD1FC25FDE4F888199819464A1C006
:10095000C11540E2D40760F4C11551E0D50708F095
:1009600098C0C03FD10508F492C0CE01906591C0F7
:10097000C11580E4D80708F48AC0CE019F70906A40
:1009800088C0C11525E5D20708F040C0C11544E56F
:10099000D40728F09C2F8827846F906A7AC0C115ED
:1009A00053E5D507A8F09E012370332781E090E03E
:1009B00002C0880F991F2A95E2F72C2F26952695BD
:1009C00050E2259F90011124822B932B9A6861C0DD
:1009D000C11582E5D80728F49C2F8827816F906A7B
:1009E00058C09E012370332781E090E002C0880F39
:1009F000991F2A95E2F72C2F2695269540E2249FF1
:100A000090011124822B932B9C6843C0C11529E5CA
:100A1000D207B0F4C11548E5D40728F09C2F8827E9
:100A2000806F906A36C0C11556E5D50780F58C2FCA
:100A30000E948D028F7190E0982F8827906229C0C4
:100A4000C1158AE5D80790F48C2F8F700E948D0213
:100A50009E0194E0369527959A95E1F72F7030E046
:100A6000322F22273069A901482B0FC0CE019056A2
:100A70008115904260F48D2F8F710E948D029E012E
:100A8000332730628F71A901582BCA0102C080E060
:100A900090E0DF91CF91089581FB222720F982FB1E
:100AA000992790F980FF02C0889A01C08898222374
:100AB00011F0899A01C08998992311F08C9A0895B0
:100AC0008C9808950F931F93CF93DF9300D0CDB7E9
:100AD000DEB78FEF898304E610E021E030E0AE015D
:100AE0004F5F5F4F60E080E40E94A31E892B11F1ED
:100AF00021E08091A202280F2093A20280E68A833F
:100B000004E610E021E030E0AE014E5F5F4F61E0AF
:100B100080E40E94A31E892BD9F021E08091A202DB
:100B2000280F2093A2020F900F90DF91CF911F9179
:100B30000F91089521E030E0AE014F5F5F4F6CE010
:100B400080E40E94A31E21E0892B99F620E0D1CFFA
:100B500021E030E0AE014E5F5F4F6DE080E40E9427
:100B6000A31E21E0892BD1F620E0D8CF8091480147
:100B700081110EC00E94CC1D2FEF83ED90E3215018
:100B800080409040E1F700C0000081E08093480180
:100B90002198299A55985D9A54985C9A56985E9A2D
:100BA00057985F9A24982C9A85988D9A86988E9A51
:100BB00087988F9A3F98479A3E98469A26982E9AF9
:100BC00025982D9A53985B9A52985A9A23982B9A63
:100BD00022982A9A0C9462050F931F93CF93DF9368
:100BE000C62FD42F122FFC0182818823C9F0609375
:100BF00052010E94351390934D0180934C0180E285
:100C00008C0F883008F057C0C77081E001C0880F92
:100C1000CA95EAF7DF91CF911F910F910C943D187F
:100C200080915201681330C080914C0190914D0128
:100C30000E942613883C910538F500E20D0FCD1770
:100C4000B9F080E28C0F883040F4C77081E001C0B9
:100C5000880FCA95EAF70E943218083028F581E01B
:100C60009D2F977001C0880F9A95EAF70E943D1852
:100C7000812F0E9472190830F0F4D77081E001C012
:100C8000880FDA95EAF70AC080E28C0F883098F472
:100C9000C77081E001C0880FCA95EAF7DF91CF9154
:100CA0001F910F910C943218812FDF91CF911F91DA
:100CB0000F910C947219DF91CF911F910F910895AC
:100CC0008F929F92AF92BF92CF92DF92EF92FF925C
:100CD0000F931F93CF93DF93CDB7DEB72A970FB64D
:100CE000F894DEBF0FBECDBFFC010081D1808381AF
:100CF0009481892B39F01FEFD11206C091E00F3F8C
:100D000019F403C091E001C090E090FD30C57F016F
:100D100085E0DE01169601900D928A95E1F7F701C4
:100D200022818E819F81222349F00E949D14182FD9
:100D3000682F8E819F810E94161503C00E94EA14BD
:100D4000182F24E8129FF00111243BE0D39EE00D00
:100D5000F11D1124E00FF11DEE0FFF1FEC50FF4FAE
:100D600005911491F70182818823E1F00830FDE5B7
:100D70001F07C1F482E60E94721982E62A960FB616
:100D8000F894DEBF0FBECDBFDF91CF911F910F91C1
:100D9000FF90EF90DF90CF90BF90AF909F908F909B
:100DA0000C947219033F2CE51207C1F426E241EEC0
:100DB00060EEC7012A960FB6F894DEBF0FBECDBF16
:100DC000DF91CF911F910F91FF90EF90DF90CF9027
:100DD000BF90AF909F908F900C94EC05043F3CE542
:100DE000130708F054C1083D9CE5190721F427E2D8
:100DF00045EE65EEDECF093DECE51E0719F428E26D
:100E000041E0F7CF073DFCE51F0721F426E241EE64
:100E100061EECFCF882309F469C1109252010230EC
:100E20002CE5120708F44CC106313CE5130738F0F5
:100E300098012A5F3C452930310508F041C10E94E4
:100E4000DD13909357018093560100318CE518070C
:100E500009F4C3C008F041C00830ECE51E0709F4EE
:100E60009AC0F0F404302CE5120709F487C068F446
:100E700002308CE5180709F477C003301C4509F0EF
:100E8000E5C080915601826076C00630ECE51E0711
:100E900009F46EC008F07BC08091560188606BC079
:100EA0000C302CE5120709F485C068F40A308CE593
:100EB000180709F474C008F079C00E941D188091C9
:100EC0005601806858C00E30ECE51E0709F476C064
:100ED00008F07FC0809156018BC00B3F2CE51207B4
:100EE00009F44FC018F503318CE5180709F47DC0EB
:100EF00078F40131ECE51E0709F473C002311C459A
:100F000009F0A4C00E941D18809156018F7733C04C
:100F100005312CE5120709F472C008F486C00A3FB7
:100F20001C4509F093C0809157013EC00F3F9CE5DE
:100F3000190709F45FC058F40D3FFCE51F0709F4D9
:100F400044C008F43FC08091570182602DC0013039
:100F50003DE5130709F475C008F45DC002301D4576
:100F600009F074C060E06EC080915601816003C0DA
:100F70008091560180618093560168C0809156012E
:100F800011C0809157018260809357015FC08091AA
:100F900056018062F0CF809156018064ECCF809141
:100FA000560188608460E7CF8160EECF8091560162
:100FB0008E7FE1CF809156018D7FDDCF80915601EC
:100FC000877FD9CF8091570118C0809157018D7FBD
:100FD000DBCF809156018F7ECECF809156018F7DE1
:100FE000CACF809156018F7BC6CF80915601877FF3
:100FF0008B7FC1CF809157018D7F8E7FC5CF809130
:10100000560182FB222720F991E0922790FB82F97A
:1010100090FB83F9B0CF80915701982F90959170F4
:101020008E7F892B90FB81F9AFCF0E941D18809194
:10103000560187FB222720F991E0922790FB87F940
:101040009ACF61E08EE090E00E942A1F60915601E5
:101050001091570184E090E00E942A1F612F81E2E5
:1010600090E00E942A1F2A960FB6F894DEBF0FBEAA
:10107000CDBFDF91CF911F910F91FF90EF90DF9047
:10108000CF90BF90AF909F908F900C941D18053F0C
:101090002CE5120721F426E241EE62EE8ACE053FEE
:1010A0003CE5130720F427E245EE64EE82CE063FCE
:1010B0009CE5190709F0AECE27E245EE66EE79CE43
:1010C0000631ECE51E07A1F580914F028A7A91E086
:1010D00009F490E090935301882311F065E301C077
:1010E00069E28BE991E00E94A8130EC006311C450D
:1010F00009F046C080915301882309F436C365E3A3
:101100008BE991E00E9480132A960FB6F894DEBF17
:101110000FBECDBFDF91CF911F910F91FF90EF9048
:10112000DF90CF90BF90AF909F908F900C9457140A
:101130000115ECE51E07B9F00E3D1C4509F52A9690
:101140000FB6F894DEBF0FBECDBFDF91CF911F91D8
:101150000F91FF90EF90DF90CF90BF90AF909F9056
:101160008F900C94EE130E941D180FEF14E32CE0E7
:10117000015010402040E1F700C000000E94DC1246
:10118000F70100811181882349F0C8010E949D1454
:10119000D82E682FC8010E94161504C0C8010E94ED
:1011A000EA14D82EB8018D2D0E94A4038C01982E2C
:1011B000F701A580A2942FE0A222D280D110109234
:1011C0004E0280914C02877079F0DD2069F080E258
:1011D000800F883048F082E00E94701580914C02A8
:1011E0008770CC24C3948111C12CB12EB2949FE09E
:1011F000B9228B2D90E08C30910508F077C2FC016C
:10120000EA5AFF4F0C94721F812F807F1F70882332
:1012100011F01295107FDD20B9F0112309F451C2AD
:1012200080E2800F883010F0911006C080914F024C
:10123000182B10934F0205C080914E02182B10936B
:101240004E020E9457143DC2802F0E94471811235E
:1012500009F44CC2005E1095083010F0911006C0E1
:1012600080914F02182310934F0205C080914E02C7
:10127000182310934E020E94571438C2812F807F8A
:101280001F70803211F01295107F992021F0F1E04B
:101290009F16E1F02AC0DD2081F080915002AA2043
:1012A00051F001E0A01207C0182B181709F41EC254
:1012B000109350021BC2812B10C0AA2021F021E004
:1012C000A21609F413C20E94511427C0DD2041F078
:1012D00035E03A1508F40AC2812F0E943D1806C273
:1012E00084E08A1508F402C218C0DD2049F0AA2063
:1012F00099F3F701858180FFE4C18F708583ECCF7E
:10130000AA2059F0093309F0EEC1FFEF17EE23E0F0
:10131000F15010402040E1F7E4C1812F0E943218C3
:10132000E5C1812F86958695837019F0813059F03B
:10133000DDC1DD2019F0C801937002C080E090E0AB
:101340000E948203DBC1DD2019F0C801937002C046
:1013500080E090E00E946C03D1C1DD20F9F0053FF0
:1013600051F0063F71F0043FA9F48091540190912F
:10137000550181600BC080915401909155018260AC
:1013800005C080915401909155018460909355015E
:1013900080935401802F0E9474121EC0053F51F0AB
:1013A000063F71F0043FA9F48091540190915501DA
:1013B0008E7F0BC080915401909155018D7F05C0A7
:1013C00080915401909155018B7F909355018093AA
:1013D0005401802F0E94AD110E9441138FC1812FB3
:1013E000837009F069C0D11085C1902F92959695B0
:1013F0009770990F990F802F8F70882E912CA12CA8
:10140000B12C092E04C0880C991CAA1CBB1C0A9480
:10141000D2F704FF12C04FE050E060E070E004C07B
:10142000440F551F661F771F9A95D2F7DB01CA013B
:1014300080959095A095B09503C080E090E0DC0188
:1014400016951695412F4370423019F1C8F400915A
:1014500051021091520220915302309154024130B6
:1014600059F088299929AA29BB29BC01CD016023FB
:101470007123822393230AC0802A912AA22AB32AA5
:10148000BC01CD01682979298A299B290E94AA15C6
:1014900031C188299929AA29BB29009151021091AB
:1014A00052022091530230915402BC01CD016027B9
:1014B000712782279327EACFDD2019F0812F8170D1
:1014C00001C08695882309F415C1902F92959695B1
:1014D0009770990F990F802F8F70882E912CA12CC7
:1014E000B12C092E04C0880C991CAA1CBB1C0A94A0
:1014F000D2F704FF12C04FE050E060E070E004C09B
:10150000440F551F661F771F9A95D2F7DB01CA015A
:1015100080959095A095B09503C080E090E0DC01A7
:1015200016951695412F43704230D9F068F5009119
:1015300048021091490220914A0230914B024130F9
:1015400059F088299929AA29BB29BC01CD0160231A
:101550007123822393231EC0802A912AA22AB32AB0
:1015600013C088299929AA29BB2900914802109102
:10157000490220914A0230914B02BC01CD01602703
:1015800071278227932706C0BC01CD0168297929DC
:101590008A299B290E944115ADC01F70DD2039F0BA
:1015A000812F0E948915802F0E943D18A3C0802F93
:1015B0000E943218812F0E944B159CC0802F32EF61
:1015C000931609F440C0391538F090EF991661F080
:1015D000E1EF9E1699F170C0F3EF9F16D9F124EF59
:1015E000921609F44EC068C0DD2019F134E03A15B6
:1015F00008F47CC01F7181E090E0A0E0B0E0AC0195
:10160000BD0104C0440F551F661F771F1A95D2F7FE
:101610008091480290914902A0914A02B0914B02F8
:101620008A019B01082719272A273B27C901B801EE
:1016300025C025E02A1508F459C0DCCFDD2029F0AB
:10164000812F8F712CC0DD20D9F3812F8F710E94E3
:101650004B154CC0DD2079F01F7181E090E0A0E0D7
:10166000B0E0BC01CD0104C0660F771F881F991F31
:101670001A95D2F703C060E070E0CB010E944115DB
:1016800035C0DD2079F01F71812F0E94891538E067
:10169000139FC0011124836080934C02812F0E940C
:1016A000891524C081E00E94701581E08A15F0F44C
:1016B00082E00E9470151AC0DD2039F0AA2009F4DA
:1016C000BFCF802F0E94AE1811C0AA2009F4BDCF51
:1016D000893349F49FEFE7EEF3E09150E040F040AA
:1016E000E1F700C00000802F0E94471888EF8B0DA3
:1016F000843020F40E9498030E944C05CC20A9F06D
:1017000080914C0280FD11C0F7011282859585956C
:1017100085950E948915C7010E94600680914C0240
:101720008595859585950E944B1585E0F701DE012D
:10173000119601900D928A95E1F789819A810E9414
:10174000EA149A8104E8809FF00111241BE0919F24
:10175000E00DF11D11248981E80FF11DEE0FFF1F2F
:10176000EC50FF4F8591949102C069E2C9CC2A9652
:101770000FB6F894DEBF0FBECDBFDF91CF911F91A2
:101780000F91FF90EF90DF90CF90BF90AF909F9020
:101790008F900895CF930E948519C82F882349F010
:1017A00081E080934B010E94351390934A0180930E
:1017B000490180914B018823B1F0809149019091BA
:1017C0004A010E942613069770F0E8E8F2E0ABE5C4
:1017D000B1E0819191918D939D9382E0E03AF80779
:1017E000C1F710924B018C2FCF910895E8EDF0E0F6
:1017F00080818E7F80831092E2001092DA00109236
:10180000E100A0EEB0E08C9181608C9380818F77B5
:10181000808319BCA7EDB0E08C918E7F8C93808182
:101820008F7E808310929A0108951F920F920FB6B7
:101830000F9211242F933F934F935F936F937F9356
:101840008F939F93AF93BF93CF93DF93EF93FF93C8
:10185000C091E900CF708091EC00D82FD17080FD4D
:10186000D0E81092E9008091F000877F8093F0002B
:1018700078940E94F71A1092E9008091F000886035
:101880008093F000CD2BCF70C093E900FF91EF91D2
:10189000DF91CF91BF91AF919F918F917F916F9188
:1018A0005F914F913F912F910F900FBE0F901F901E
:1018B00018952091E4003091E50095E64091EC0008
:1018C000842F817040FF23C08091E80080FD1DC0FF
:1018D00080917E02882399F0853099F08091EB0009
:1018E00085FD11C04091E4005091E50024173507B3
:1018F00029F3915011F09A01E1CF84E0089582E03C
:10190000089583E0089581E0089580E0089540916E
:10191000E80042FFDDCF08958091800287FF11C06B
:101920008091E80082FD05C080917E028111F8CF90
:1019300011C08091E8008B770BC080917E028823D4
:1019400049F08091E80080FFF8CF8091E8008E7721
:101950008093E8000895982F973068F59093E900F8
:10196000981739F07091EC002091ED005091F00043
:1019700003C0242F762F50E021FD02C09F5FECCFE3
:101980003091EB003E7F3093EB003091ED003D7FD6
:101990003093ED003091EB0031603093EB007093A9
:1019A000EC002093ED005093F0002091EE0027FD15
:1019B000E5CF80E008958F708093E90081E008957D
:1019C000CF92DF92EF92FF920F931F93CF93DF930B
:1019D000C8EDD0E088818F7E8883E7EDF0E08081DC
:1019E0008160808384E082BF81E080939A01888156
:1019F0008E7F888302EE10E0F80110821092DA00E8
:101A000081EEC82ED12CF601108288818F778883D1
:101A100088818068888388818F7D888319BC109233
:101A20007E0210927F0210927D0210927C0290EE54
:101A3000E92EF12CF70180818B7F80838881816082
:101A4000888342E060E080E00E94AB0CF601808178
:101A50008E7F8083F80180818160808380818860AF
:101A60008083F70180818E7F808388818061888375
:101A7000DF91CF911F910F91FF90EF90DF90CF906A
:101A800008951F920F920FB60F9211242F933F9338
:101A90004F935F936F937F938F939F93AF93BF9376
:101AA000EF93FF938091E10082FF09C08091E200F3
:101AB00082FF05C08091E1008B7F8093E1008091DF
:101AC000DA0080FF2AC08091D80080FF26C0809174
:101AD000DA008E7F8093DA008091D90080FF18C0F1
:101AE00080E189BD82E189BD09B400FEFDCF81E0BE
:101AF00080937E0280919A0181110FC00E94F60BA3
:101B00000E94E00C8091E20084608093E20005C0B6
:101B100019BC10927E0210929A018091E10080FF20
:101B200017C08091E20080FF13C08091E2008E7F99
:101B30008093E2008091E20080618093E2008091D6
:101B4000D80080628093D80019BC85E080937E0223
:101B50008091E10084FF34C08091E20084FF30C0B6
:101B600080E189BD82E189BD09B400FEFDCF80918D
:101B7000D8008F7D8093D8008091E1008F7E809384
:101B8000E1008091E2008F7E8093E2008091E2008C
:101B900081608093E20080917F02882311F084E0CD
:101BA00007C08091E30087FD02C081E001C083E0AF
:101BB00080937E020E941D180E9498030E944C058B
:101BC0008091E10083FF27C08091E20083FF23C062
:101BD0008091E100877F8093E10082E080937E0224
:101BE00010927F028091E1008E7F8093E1008091CE
:101BF000E2008E7F8093E2008091E200806180931A
:101C0000E20042E060E080E00E94AB0C8091F000D6
:101C100088608093F000FF91EF91BF91AF919F9109
:101C20008F917F916F915F914F913F912F910F9085
:101C30000FBE0F901F901895209186023091870259
:101C40002617370748F06115710539F42091E8002F
:101C50002E772093E80001C0B901FC0120E0611556
:101C6000710579F180917E028823F1F18530F1F1DF
:101C70008091E80083FD3CC08091E80082FD2EC089
:101C80008091E80080FFEBCF2091F3008091F2007B
:101C900090E0922B6115710551F08830910538F470
:101CA00021912093F100615071090196F3CF21E059
:101CB000089709F020E08091E8008E778093E80093
:101CC000CECF2111CFCF0AC080917E02882361F050
:101CD000853061F08091E80083FD0AC08091E800C2
:101CE00082FFF2CF80E0089582E0089583E00895B6
:101CF00081E0089580917E02843011F081E00895A2
:101D000082E00895CF93DF93CDB7DEB760970FB62B
:101D1000F894DEBF0FBECDBF84B7877F84BF0FB6F8
:101D2000F894A8958091600088618093600010927B
:101D300060000FBE90E080E80FB6F89480936100D9
:101D4000909361000FBE85B7806885BF85B78068B6
:101D500085BF5098589A5198599A0E94F60B0E9444
:101D6000E00C8091E20084608093E200789480919E
:101D70007E028823A1F01091E9001F709091EC0081
:101D8000892F817090FD80E8182B1092E9008091D6
:101D9000E80083FD0E94F71A1F701093E90082E0AB
:101DA00084BD93E095BD9AEF97BD80936E000E942D
:101DB000B605E8E8F2E0ABE5B1E0119211921D92B0
:101DC0001D9222E0E03AF207C1F70E94CA0B8FE3AE
:101DD0009CE90197F1F700C000000E94CA0B8091B6
:101DE0005B0180FF08C06FEF7FEF80E090E00E9412
:101DF000481F0E94DC1280E090E00E94241F8C3E6D
:101E00009E4F11F00E94EE13809A819A849A80E08E
:101E100090E00E94241F8C3E9E4F11F00E94EE1312
:101E200082E090E00E941C1F809381010E94DD13DC
:101E3000909357018093560183E090E00E941C1F0D
:101E4000682F70E080E090E00E94AA1580E091E0A9
:101E50009093590180935801DD24D394CC24CA94E3
:101E600053E7852E51E0952E60E1562E72E1672EE4
:101E7000E8E1AE2EB12CF0E47F2E80917E02853019
:101E800009F03AC080917E02843021F110925A010B
:101E90000FB6F894A895A09260000FBE70926000F3
:101EA00080E00E944C0583B7817F846083BF83B745
:101EB000816083BF7894889583B78E7F83BF0FB688
:101EC000F894A895809160008861809360001092DA
:101ED00060000FBE80917D02882309F4CECF0E945E
:101EE000CA0BEBE5F1E081919191892B09F059C181
:101EF0008E169F06C1F7C1CF0E94CA0BE2E8F1E03F
:101F0000ABE5B1E000E010E0702F2D913D918191A3
:101F1000919182279327009779F160E0EE24E39472
:101F2000F12CA70148235923452B09F16F837887AA
:101F30002E213F2181E0232B09F480E089870E9434
:101F400035138160782F9B878A874F8158856985F3
:101F50008B850E94D002000F111FF801EE57FE4F33
:101F600080819181E826F926F182E08219C06F5FB5
:101F7000EE0CFF1C6B30A9F60F5F1F4F0C301105E4
:101F800019F6CC86CD861E860E9435138160782F87
:101F9000988B8F874C855D856E8588890E94D002DD
:101FA00086E0EAE7F1E0DE01119601900D928A9554
:101FB000E1F780917C01811105C080917D0188232A
:101FC00009F46CC080917801909179010E942613E8
:101FD0009C0190917701992309F4F7C023333105CF
:101FE00008F45CC09F3F19F09F5F909377011092B7
:101FF0007E0110927F0180917C01181624F40E94CA
:10200000541280937C0180917C0187FF05C00E945F
:102010005412819580937C0180917D01181624F4DF
:102020000E94541280937D0180917D0187FF05C03D
:102030000E945412819580937D0130917C0133235D
:10204000D1F020917D012223B1F045EB3403C00192
:102050001124992319F090937C0102C0D0927C0145
:1020600035EB2303C0011124992319F090937D01CE
:1020700002C0D0927D010E94411380917501909120
:102080007601909379018093780186E0FE01319684
:10209000AAE7B1E001900D928A95E1F780917E0167
:1020A000811105C080917F01882309F46CC0809163
:1020B0007301909174010E9426139C019091770105
:1020C000992309F487C02536310508F45CC09F3F89
:1020D00019F09F5F9093770110927C0110927D011F
:1020E00080917E01181624F40E94321280937E01A2
:1020F00080917E0187FF05C00E94321281958093F6
:102100007E0180917F01181624F40E943212809380
:102110007F0180917F0187FF05C00E943212819567
:1021200080937F0130917E013323D1F020917F0194
:102130002223B1F045EB3403C0011124992319F097
:1021400090937E0102C0D0927E0135EB2303C00143
:102150001124992319F090937F0102C0D0927F013E
:102160000E944113809175019091760190937401C2
:102170008093730186E0FE013196AAE7B1E00190F9
:102180000D928A95E1F70E9498039091800189173A
:1021900009F473CE0E949803809380010E944C053D
:1021A0006CCE59BC69BC09B400FEFDCF8091D8004B
:1021B0008F7D8093D8008091E00082608093E00062
:1021C0008091E00081FDFCCF58CE2D32314008F0E7
:1021D0000BCF64CF2D32314008F07BCFD4CF80912C
:1021E0005B020895CF93DF9300D01F92CDB7DEB787
:1021F00090917E02943019F589837B836A8382E013
:102200008093E9008FEF9091E800815095FD06C022
:1022100095ED9A95F1F700008111F5CF8091E800D6
:1022200085FF0DC040E050E063E070E0CE01019614
:102230000E94CB1A8091E8008E778093E8000F907F
:102240000F900F90DF91CF910895CF93DF93EC0122
:102250000E947A0E823011F0843031F4BE0184E0A5
:10226000DF91CF910C94F210DF91CF910895BC01D2
:1022700083E00C94F210CF93DF93EC010E947A0E6E
:10228000823011F08430F9F482E08093E9008FEF1E
:102290009091E800815095FD06C095ED9A95F1F773
:1022A00000008111F5CF8091E80085FF0CC040E06F
:1022B00050E066E070E0CE010E94CB1A8091E80009
:1022C0008E778093E800DF91CF910895CF93DF93CD
:1022D000EC010E947A0E823011F08430D9F58091A1
:1022E0000A01882339F08091560187FF03C060E21C
:1022F00082E002C068E081E08093E9008FEF909176
:10230000E800815095FD06C095ED9A95F1F7000023
:102310008111F5CF8091E80085FF1CC080910A01F2
:10232000811105C040E050E068E070E003C070E05B
:1023300040E050E0CE010E94CB1A8091E8008E77F9
:102340008093E80080E2FE01ACE5B2E001900D92DE
:102350008A95E1F7DF91CF910895803F39F480911C
:102360007D0187FF6CC010927D0169C0813F29F417
:1023700080917D011816BCF362C090917C01823F70
:1023800029F497FF5CC010927C0159C0833F19F477
:102390001916CCF354C0893F41F480917E01181680
:1023A0000CF04DC010927E014AC08A3F29F4809102
:1023B0007E0187FF44C0F6CF8B3F39F480917F01C7
:1023C00087FF3DC010927F013AC08C3F29F4809175
:1023D0007F011816BCF333C0843F21F480917B0148
:1023E0008E7F17C0853F21F480917B018D7F11C0C6
:1023F000863F21F480917B018B7F0BC0873F21F4C6
:1024000080917B01877F05C0883F31F480917B01FB
:102410008F7E80937B0113C08D3F21F48091590200
:102420008E7F0BC08E3F21F4809159028D7F05C0B5
:102430008F3F29F4809159028B7F809359028091BC
:102440007C0181110EC080917D0181110AC08091B3
:102450007E01811106C080917F01811102C010921E
:10246000770108958091590280FD16C081FD16C044
:1024700082FD18C080917701882391F0883290F412
:1024800028E0829FC001112468E270E00E945E1F74
:10249000862F672B29F007C082E0089584E0089515
:1024A00081E0089588E008958091590280FD14C06C
:1024B00081FD14C082FD16C080917701882381F0D0
:1024C000843180F422E3829FC001112464E170E032
:1024D0000E945E1F862F08958CE0089589E108957B
:1024E00085E0089582E30895803F21F40E9454120C
:1024F000819504C0813F29F40E94541280937D018C
:102500000895823F21F40E945412819504C0833FB4
:1025100029F40E94541280937C010895893F19F494
:102520000E94321205C08A3F31F40E943212819516
:1025300080937E0108958B3F21F40E943212819591
:1025400004C08C3F29F40E94321280937F010895C9
:10255000843F21F480917B01816017C0853F21F485
:1025600080917B01826011C0863F21F480917B01C4
:1025700084600BC0873F21F480917B01886005C097
:10258000883F31F480917B01806180937B010895C5
:102590008D3F21F48091590281600BC08E3F21F460
:1025A00080915902826005C08F3F29F480915902C1
:1025B000846080935902089581E08093E00080E276
:1025C0008093D8001092C9008FE19EE40197F1F743
:1025D00000C0000087E090EBDC018093A3029093A1
:1025E000A402A093A502B093A6029CE088E10FB6D6
:1025F000F894A895809360000FBE90936000FFCF81
:1026000078941F920F920FB60F9211248F939F937D
:10261000AF93BF938091550290915602A0915702BB
:10262000B09158020196A11DB11D8093550290935F
:102630005602A0935702B0935802BF91AF919F9159
:102640008F910F900FBE0F901F9018959C014FB760
:10265000F8948091550290915602A0915702B09142
:1026600058024FBF821B930B08952FB7F8948091A7
:10267000550290915602A0915702B09158022FBF77
:102680000895E0915801F0915901309749F082E0A6
:1026900080937A010480F581E02D8AE791E0099525
:1026A0000E943513909376018093750108951F92CF
:1026B0000F920FB60F9211248F939F93AF93BF93F6
:1026C00080915A01811113C0809155029091560258
:1026D000A0915702B09158024196A11DB11D80935F
:1026E000550290935602A0935702B0935802BF919F
:1026F000AF919F918F910F900FBE0F901F901895E3
:1027000020910A012223C9F02091560127FF15C00C
:10271000262F2695269526952E31C8F4FC01E20F2A
:10272000F11D677081E090E001C0880F6A95EAF7BB
:1027300080959281892382830895FC0106962281E7
:10274000621301C012823196E817F907C1F70895A4
:1027500020910A012223C1F02091560127FF14C0C5
:10276000262F2695269526952E3130F5FC01E20F71
:10277000F11D677081E090E001C0880F6A95EAF76B
:102780009281892B82830895FC0132962FEF30E0ED
:102790004191641789F02F3F19F4411101C0232F93
:1027A0003F5F3630A9F72F3F39F0FC01E20FF11DF2
:1027B00027FDFA95628308950895CF9384E090E011
:1027C0000E941C1FC82F81E290E00E941C1F2C2F2A
:1027D00030E0A901582BCA01CF9108956CEE7EEF2D
:1027E00080E090E00E94481F60E082E090E00E945C
:1027F0002A1F60E083E090E00E942A1F109251029D
:1028000010925202109253021092540260E084E03F
:1028100090E00E942A1F60E081E290E00E942A1F5F
:1028200060E085E090E00E942A1F60E086E090E092
:102830000E942A1F6FEF87E090E00E942A1F40E06D
:1028400050E0BA0188E090E00E943C1F60E08DE01B
:1028500090E00E942A1F40E050E0BA0188E190E039
:102860000E943C1F60E087E190E00E942A1F40E048
:1028700050E0BA018CE190E00E943C1F60E080E2F1
:1028800090E00E942A1F40E050E0BA018FE090E003
:102890000E943C1F40E050E0BA0183E190E00C94BC
:1028A0003C1F809150028111109250020895909126
:1028B0004F0280914E02892B20914D02982F922B2E
:1028C00090939B01809150028823D9F0892B8093AB
:1028D0009B0180910A01882331F08091560187FF86
:1028E00002C08EE101C086E0EDE9F1E090E08150A8
:1028F00028F021912223D9F39F5FF9CF91110E94F3
:102900005114E0915801F09159013097A9F080914C
:102910000A01882359F08091560187FF07C08091F2
:102920009B0180939C0185E080939B010280F38151
:10293000E02D8BE991E009940895BF92CF92DF9248
:10294000EF92FF920F931F93CF93DF938C01C09070
:102950004802D0904902E0904A02F0904B028091E8
:10296000510290915202A0915302B0915402C82A90
:10297000D92AEA2AFB2ACFE1D0E0D701C6010C2EE2
:1029800004C0B695A795979587950A94D2F780FDD0
:1029900004C0219790F7B12C07C0BC2EB8018C2F32
:1029A0000E94A4030197A9F38B2DDF91CF911F9172
:1029B0000F91FF90EF90DF90CF90BF900895CF934D
:1029C000DF93EC010E949D14BE010E94A403DF91DD
:1029D000CF9108952BE0929F800D1124682F66956A
:1029E00066956695982F977085E0689FB0011124D1
:1029F00040E050E080E0FB01E40FF51FED50FE4F9A
:102A0000208130E0092E02C0369527950A94E2F71E
:102A100021703327042E01C0220F0A94EAF7822B7B
:102A20004F5F5F4F4530510531F708952BE0929F7E
:102A3000800D1124E82FE695E695E695877051E024
:102A400001C0550F8A95EAF785E0E89FF00111244F
:102A5000ED50FE4F20E030E070E04081CB01022ECF
:102A600002C0969587950A94E2F781708195842734
:102A70008523842781932F5F3F4F2530310569F7E8
:102A80000895609348027093490280934A0290939C
:102A90004B020C9402180F931F9341E050E060E04A
:102AA00070E004C0440F551F661F771F8A95D2F748
:102AB000409550956095709580914802909149029B
:102AC000A0914A02B0914B028A019B01082319236D
:102AD0002A233B23C901B8011F910F910C94411582
:102AE00020914C028095822380934C02982F9770FE
:102AF00079F430E0482F082E000C550B24173507C9
:102B000039F08595859585950E944B1510924C025C
:102B100008950F931F9341E050E060E070E004C01F
:102B2000440F551F661F771F8A95D2F78091480280
:102B300090914902A0914A02B0914B028A019B01F7
:102B4000082B192B2A2B3B2BC901B8011F910F9180
:102B50000C9441156093510270935202809353027A
:102B6000909354020C9402188091F2019091C1014B
:102B7000891719F08F5F8770FBCF08950F931F930C
:102B8000CF93DF938091C00182958F7009F05DC073
:102B90008091BD01882309F458C08091F201109101
:102BA000C1016091BB017091BC01C091BE01D09187
:102BB000BF0191E06F3F09F090E0292F06E08117F7
:102BC00009F443C0209721F07F3F21F030E003C09B
:102BD00031E001C0322F90E030FD34C0089FF00199
:102BE000099FF00D1124DF01AE53BE4F11963C91A9
:102BF0001197371327C03C91361324C012963C918D
:102C0000129731111FC013964D915C9114974C1B74
:102C10005D0B483C5105B0F48091C0018F7080611C
:102C20008093C001E953FE4F80818F708061808363
:102C30008BEB91E00E946006DF91CF911F910F9185
:102C40000C94B41501968770BACFDF91CF911F9184
:102C50000F9108950E94DF14292F2F70E92FE2951C
:102C6000EF704E2F50E0FA013297EE30F105B8F4D4
:102C7000EE59FF4F0C94721F803F99F018F4883E74
:102C800070F40FC0843F59F40CC0883E50F0813F6F
:102C900031F407C0822F869586958695089580E049
:102CA000089581E008959F92AF92BF92CF92DF92F4
:102CB000EF92FF920F931F93CF93DF93CDB7DEB7C1
:102CC00061970FB6F894DEBF0FBECDBF8C0185E0D3
:102CD000F801DE011D9601900D928A95E1F7F80149
:102CE00090818181E2803091BB016091BC01409173
:102CF000BE015091BF014115510531F06F3F31F4D4
:102D000021E03F3F19F403C021E001C020E0F22F91
:102D1000F1709F2E20FD23C1F801C380D4802BEBDE
:102D2000A22E21E0B22EF090BD01F601E41BF50BBE
:102D3000FF2009F4CEC02091C001E83CF10508F065
:102D400099C0422F407F09F051C0681311C0391358
:102D50000FC0FE2CE1100CC02F7020612093C00129
:102D6000C5010E9460068091C001F801858337C1CA
:102D7000CD2831F08F3F31F421E09F3F19F403C09B
:102D800021E001C020E020FD03C021E02E2502C08B
:102D900020E030E0F22FF170FF2E20FF1DC02091C7
:102DA000F2014091C10156E0241709F4F6C030E069
:102DB000529FF001539FF00D1124EE53FE4F61819D
:102DC000861306C06081961303C06281E61204C0B8
:102DD0002F5F3F4F2770E8CFFE2CEE2009F4FFC095
:102DE0008091C00181608093C00150C0681307C00A
:102DF000391305C0E11003C0F80125838DC09D87FC
:102E00008E878D859E850E942A16882369F1EE2083
:102E100059F12091C001822F82958F7090E0029726
:102E200074F08091BB019091BC0198878F831986C3
:102E3000DB86CA862C87CE0107960E94600686E054
:102E4000F801ABEBB1E001900D928A95E1F70E9499
:102E5000BE150DC06817E1F09D878E878D859E8514
:102E60000E942A1681111EC0C8010E946006FF241C
:102E7000F394B5C0422F407F69F78BEB91E00E943D
:102E8000600686E0F50111928A95E9F7F12CA7C05A
:102E90003913E2CFE110E0CFF8012583C8010E9489
:102EA000600657C0EE2001F32091C001822F829569
:102EB0008F7090E002971CF28091BB019091BC0151
:102EC0009A8389831B82DD82CC822E83CE01019678
:102ED000B4CFE83CF105E8F5FE2CEE2029F26813AA
:102EE00027C0391325C02091C00120FD18C0822FB2
:102EF00082958F70482F50E04115510581F0F801FF
:102F000025834F30510541F08F5F982F9295907F28
:102F1000822F8F70892B8583C8010E94600686E00E
:102F2000F801ABEBB1E001900D928A95E1F757C043
:102F30009D878E878D859E850E942A1681117FCF61
:102F40008091C00181608093C001C8010E94600629
:102F500046C086E0F50111928A95E9F740C0EE205F
:102F600009F482CF9D878E878D859E850E942A16C3
:102F7000F82E882309F478CF86E0F801ABEBB1E0B6
:102F800001900D928A95E1F78091BB019091BC016F
:102F90000E94DF140E94BE1522C09D878E878D85FA
:102FA0009E850E94DF14292F22952F70223028F44D
:102FB0009F7039F0811105C00BC0243028F49F7038
:102FC00049F4805E883020F0C8010E9460069F2C82
:102FD000F92C05C0F8019581907F99F7F9CF8F2DD5
:102FE00061960FB6F894DEBF0FBECDBFDF91CF91D3
:102FF0001F910F91FF90EF90DF90CF90BF90AF9017
:103000009F90089510924E0210924D020E94571404
:10301000EAE7F1E086E0DF011D928A95E9F7109278
:103020007701109259020E94411380E090E00E94C3
:10303000820380E090E00C946C0310924F02809128
:103040000A01882331F08091560187FF02C08EE18A
:1030500001C086E0EDE9F1E0DF011D928A95E9F714
:103060000C940218882341F0809590914F02892397
:1030700080934F020C9457140895882339F090914F
:103080004F02892B80934F020C9457140895882384
:1030900009F463C0823869F40E94980381FF5DC01F
:1030A00069E38BE991E00E94A8130E94571469E339
:1030B0000EC0833891F40E94980380FF4EC063E5F0
:1030C0008BE991E00E94A8130E94571463E58BE9F5
:1030D00091E00E9480130C945714843869F40E9484
:1030E000980382FF3AC067E48BE991E00E94A8133D
:1030F0000E94571467E4EBCF9CEF980F913A10F4BD
:10310000682FE5CF90E2980F983088F4877021E01F
:1031100030E0A90102C0440F551F8A95E2F7CA01A9
:10312000809590914F02892380934F02D4CF9BE5E5
:10313000980F933020F480E090E00C94820398E59F
:10314000980F973120F480E090E00C946C03803F5E
:1031500020F00E94AD110C9441130895CF93882361
:1031600009F4BEC0C82F8238B1F40E94980381FDD3
:10317000B7C069E38BE991E00E94A8130E9457143D
:103180002FEF81EE94E0215080409040E1F700C0A5
:10319000000069E317C08338E1F40E94980380FDC2
:1031A0009FC063E58BE991E00E94A8130E94571429
:1031B0002FEF81EE94E0215080409040E1F700C075
:1031C000000063E58BE991E00E948013CF910C949D
:1031D00057148438B1F40E94980382FD81C067E4DB
:1031E0008BE991E00E94A8130E9457142FEF81EE03
:1031F00094E0215080409040E1F700C0000067E477
:10320000E1CF8CEF8C0F813AC0F580910A018823C1
:10321000E1F08091560187FF18C0EC2FE695E69506
:10322000E695F0E0E556FE4F8281282F30E04C2FE6
:10323000477081E090E002C0880F991F4A95E2F73D
:1032400082239323892B61F412C0EDE9F1E083EA34
:1032500091E02191C21721F08E179F07D1F707C087
:103260006C2F8BE991E00E9480130E9457146C2F01
:103270008BE991E00E94A813A9CF80E28C0F8830DF
:1032800068F4C77081E090E001C0880FCA95EAF742
:1032900090914F02892B80934F0298CFEBE5EC0F72
:1032A000E33040F4F0E0E55FFE4F808190E0CF91A5
:1032B0000C948203E8E5EC0FE73150F4F0E0EE0FF8
:1032C000FF1FE25FFE4F80819181CF910C946C03D0
:1032D000C03F30F08C2F0E947412CF910C94411398
:1032E000CF910895CF93C82F0E94AE18C93349F4E7
:1032F0002FEF87EE93E0215080409040E1F700C02F
:1033000000008C2FCF910C9447188F929F92AF9210
:10331000BF92CF92DF92EF92FF920F931F93CF93C2
:10332000DF9300D01F92CDB7DEB728E8E22E22E06F
:10333000F22E02E411E0D701A12C88248394912C71
:103340005CC040E050E0422B532B2FB130E0220F05
:10335000232F221F330B232B09F492C020E030E0EF
:10336000422B532B26B130E0220F232F221F330B89
:10337000232B09F482C020E030E0422B532B369BF4
:1033800079C020E030E0422B532B1E9B70C020E020
:1033900030E0422B532B1D9B67C020E030E0422BD6
:1033A000532B4B9B5EC020E030E0422B532B4A9BBB
:1033B00055C020E030E0422B532B1B9B4CC020E03B
:1033C00030E0422B532B1A9B43C020E030E0242BEB
:1033D000352B91A1B922B1A292A1892B82A3C21649
:1033E000D30629F011963C932E93AA24A394129607
:1033F00052E0A439B50709F446C0CD90DC9011978E
:10340000F80181918F01E82FE295EF70F0E021A1A2
:103410008F70A40102C0440F551F8A95E2F7CA01BC
:10342000242B21A322A1B42EB0942B2122A35AE154
:103430005A95F1F700C02FB125FB662760F970E0BF
:103440009B0141E024277E997CCF42E050E07BCF76
:1034500020E034E0BCCF20E032E0B3CF20E031E028
:10346000AACF20E830E0A1CF20E430E098CF20E2DE
:1034700030E08FCF20E130E086CF28E030E07DCF14
:1034800024E030E06DCF8091A202811160C06CE336
:10349000C62E61E0D62E2BC029813A81C90188272A
:1034A0009076892F99278295869587703327220FEA
:1034B000331F220F331F822B932B8095909593708F
:1034C00020E03091A202230F2093A20288169906D1
:1034D00029F0F70195878487AA24A394F2E0EF0EE0
:1034E000F11C24E9E21622E0F20609F443C0F701D8
:1034F00084849584F60181916F0180958B8304E625
:1035000010E021E030E0AE014D5F5F4F63E180E409
:103510000E94A31E21E0892B09F420E08091A202E1
:10352000280F2093A2021A82198204E610E022E0FA
:1035300030E0AE014F5F5F4F62E180E40E94D01E39
:10354000892B09F4A9CF80E090E021E0BACF8091E7
:10355000A0029091A10201969093A1028093A002F3
:1035600097FF08C01092A1021092A0021092A2022E
:103570000E9462058A2D0F900F900F90DF91CF91DE
:103580001F910F91FF90EF90DF90CF90BF90AF9081
:103590009F908F900895EF92FF920F931F93CF9378
:1035A000DF937C018B010E94590C811119C0E70146
:1035B00001151105A1F08091E80085FD0AC08091F8
:1035C000E8008E778093E8000E94590C882381F3ED
:1035D00007C089918093F10001501109E9CF80E083
:1035E000DF91CF911F910F91FF90EF9008951F935E
:1035F000CF93DF93CDB7DEB7AA970FB6F894DEBFAF
:103600000FBECDBFE0E8F2E08091F100819322E0AF
:10361000E838F207C9F780918102833009F460C06D
:1036200030F4813071F0823009F49AC0B1C08A3030
:1036300009F486C08B3009F46BC0893009F0A8C04A
:1036400020C080918002813A09F0A2C08091E800F8
:10365000877F8093E8008091840290918502892B76
:1036600021F460E28CE592E003C060E080E090E04D
:1036700070E00E941C0E8091E8008B778093E80038
:1036800087C080918002813209F082C080918402DB
:1036900090918502029708F07BC08091E800877FB7
:1036A0008093E8008091E80082FD05C080917E0251
:1036B0008111F8CF6DC02091F3008091F20090E06D
:1036C000922B029729F48091F1008B7F813021F4B5
:1036D0008091F10080935B028091E8008B7754C069
:1036E00080918002813A09F053C0809184029091C8
:1036F0008502892B09F04CC08091E800877F809378
:10370000E8008091E80080FFFCCF80910A0137C07B
:10371000809180028132E1F580918402909185024E
:10372000892BB1F58091E800877F8093E8000E94A3
:103730008C0C8091820280930A010E941D1828C07F
:1037400080918002813221F58091E800877F80930B
:10375000E8000E948C0C8091830280935A0218C06A
:1037600080918002813AA1F48091E800877F809364
:10377000E8008091E80080FFFCCF80915A0280939E
:10378000F1008091E8008E778093E8000E948C0C15
:103790008091E80083FFD8C18091800290918102DE
:1037A000492F50E04A30510508F0CEC1FA01E059E6
:1037B000FF4F0C94721F803821F0823809F0C4C189
:1037C00008C080917C0290917D02992389F08260EB
:1037D0000FC0809184028F70873008F0B5C180934C
:1037E000E9008091EB0085FB882780F91092E900C1
:1037F0009091E800977F9093E8008093F1001092F9
:10380000F10071C1282F2D7F09F09EC1882319F086
:10381000823061F099C180918202813009F094C1B7
:10382000933009F080E080937D022EC08091820267
:1038300081112AC0809184028F702FEF280F2630CB
:1038400008F082C18093E9002091EB0020FF1CC0AA
:10385000933021F48091EB00806214C09091EB00D2
:1038600090619093EB0021E030E0A90102C0440F89
:10387000551F8A95E2F74093EA001092EA00809182
:10388000EB0088608093EB001092E9008091E800E3
:10389000877F2CC1811158C1109182021F778091BE
:1038A000E3008078812B8093E3008091E800877F9C
:1038B0008093E8000E948C0C8091E80080FFFCCF90
:1038C0008091E30080688093E300111102C082E0E0
:1038D00001C083E080937E0237C18058823008F0B7
:1038E00033C180918202909183028C3D53E0950711
:1038F00079F583E08A838AE289834FB7F894DE0101
:10390000139620E03EE051E2E32FF0E050935700A1
:10391000E49120FF03C0E295EF703F5FEF708E2FC0
:1039200090E0EA3010F0C79601C0C0968D939D9349
:103930002F5F243149F74FBF8091E800877F809344
:10394000E8006AE270E0CE0101960E941C0EBAC047
:103950004091840250918502292F3327233031056D
:10396000B1F068F42130310509F4FDC02230310591
:1039700009F0EAC08BE390E0E0E0F4E050C02132CF
:10398000310581F12232310509F439C0DDC09927B2
:1039900081309105B9F070F082309105D9F003972C
:1039A00009F0D2C0EDE4F4E0E4918E2F90E0EDE474
:1039B000F4E032C0E3E8F4E0E4918E2F90E0E3E835
:1039C000F4E02AC0E1E6F4E0E4918E2F90E0E1E635
:1039D000F4E022C0E3E5F4E0E4918E2F90E0E3E52B
:1039E000F4E01AC04115510509F4C2C04130510537
:1039F00009F0AAC089E090E0EBE2F4E010C04115C4
:103A0000510509F4BAC04130510509F09DC08CEB55
:103A100090E0E4E0F3E003C0009709F495C0209142
:103A2000E800277F2093E8002091860230918702EA
:103A30008217930708F49C0140E02115310589F1B4
:103A400080917E02882309F43DC08530D9F18091B0
:103A5000E80083FD37C08091E80082FD2FC080918F
:103A6000E80080FFEACF4091F3008091F20090E0FF
:103A7000942B2115310559F08830910540F444917B
:103A80004093F1003196215031090196F2CF41E087
:103A9000089709F040E08091E8008E778093E80075
:103AA000CCCF4111CDCF0AC080917E02882351F046
:103AB000853041F08091E80083FD04C08091E800EA
:103AC00082FFF2CF8091E8008B778093E8003CC0C2
:103AD0008038D1F58091E800877F8093E80080915D
:103AE0007F028093F1008091E8008E778093E80058
:103AF0000E948C0C29C0811127C080918202909174
:103B000083029927029704F58091E800877F8093CC
:103B1000E8001091820210937F020E948C0C111118
:103B200006C08091E30087FD02C081E001C084E00F
:103B300080937E0242E061EC81E00E94AB0C42E2A5
:103B400061EC82E00E94AB0C8091E80083FF1AC018
:103B50008091E800877F8093E8008091EB0080628D
:103B60008093EB000FC082E190E0EBE3F4E057CFED
:103B700089E090E0E2E1F4E052CF80E490E0E0EC14
:103B8000F3E04DCFAA960FB6F894DEBF0FBECDBFBF
:103B9000DF91CF911F9108951092B9008CE080932E
:103BA000B8000895EF92FF920F931F93CF93DF9386
:103BB000182FEB011092BC0084EA8093BC000E9495
:103BC00035137C018091BC0087FD0EC0CF3F8FEF85
:103BD000D807C1F30E9435138E199F098C179D07D2
:103BE00088F38EEF9FEF2EC08091B900887F8830D8
:103BF00041F08091B900887F803119F08FEF9FEFFD
:103C000021C01093BB0084E88093BC000E94351350
:103C10008C018091BC0087FD0CC0CF3F8FEFD8078F
:103C2000C1F30E943513801B910B8C179D0788F3FD
:103C3000D8CF8091B900887F883111F08034F1F6B7
:103C400080E090E0DF91CF911F910F91FF90EF9076
:103C500008950F931F93CF93DF93EB018093BB00E5
:103C600084E88093BC000E9435138C018091BC00D5
:103C700087FD0EC0CF3F8FEFD807C1F30E943513E9
:103C8000801B910B8C179D0788F38EEF9FEF0CC064
:103C90002091B900287F81E090E0283211F480E083
:103CA00090E0919581959109DF91CF911F910F91AE
:103CB00008950F931F93CF93DF93EC0184EC8093CF
:103CC000BC000E9435138C018091BC0087FD0EC0A2
:103CD000CF3F8FEFD807C1F30E943513801B910BA4
:103CE0008C179D0788F38EEF9FEF03C08091BB0078
:103CF00090E0DF91CF911F910F9108950F931F9343
:103D0000CF93DF93EC0184E88093BC000E943513CD
:103D10008C018091BC0087FD0EC0CF3F8FEFD8078C
:103D2000C1F30E943513801B910B8C179D0788F3FC
:103D30008EEF9FEF03C08091BB0090E0DF91CF91A9
:103D40001F910F910895CF92DF92EF92FF920F9300
:103D50001F93CF93DF93C62F6A017901B8010E94A8
:103D6000D21D97FD11C0B8018C2F0E94291EE601BB
:103D7000EC0CFD1CCE15DF0539F097FD05C0B80130
:103D800089910E94291EF6CF24E92093BC00DF917F
:103D9000CF911F910F91FF90EF90DF90CF900895FA
:103DA000CF92DF92EF92FF920F931F93CF93DF9307
:103DB000D82EC62E7A01E901B8010E94D21D97FDC6
:103DC0002AC0B8018C2D0E94291E97FD24C0B8017D
:103DD0008D2D81600E94D21D6701219796012E19B9
:103DE0003F092C173D0768F497FD15C0C8010E94D4
:103DF000591E97FD02C0F6018083FFEFCF1ADF0A3C
:103E0000EDCF97FD08C0C8010E947E1E97FD03C03C
:103E1000CE0DDF1D888324E92093BC0018161906F7
:103E200014F480E090E0DF91CF911F910F91FF900B
:103E3000EF90DF90CF900895F999FECF92BD81BDAC
:103E4000F89A992780B50895A8E1B0E042E050E0E3
:103E50000C94501F262FF999FECF92BD81BDF89A80
:103E6000019700B4021639F01FBA20BD0FB6F894BE
:103E7000FA9AF99A0FBE08950396272F0E942B1FD6
:103E80000E942A1F252F0E942B1F242F0C942B1FCA
:103E90000196272F0E942B1F0C942A1FDC01CB01B7
:103EA000FC01F999FECF06C0F2BDE1BDF89A31964A
:103EB00000B40D9241505040B8F7089597FB072E7B
:103EC00016F4009407D077FD09D00E94781F07FCF4
:103ED00005D03EF4909581959F4F0895709561951A
:103EE0007F4F0895EE0FFF1F0590F491E02D099488
:103EF000AA1BBB1B51E107C0AA1FBB1FA617B70710
:103F000010F0A61BB70B881F991F5A95A9F780952B
:0C3F10009095BC01CD010895F894FFCFFE
:103F1C00EF1066113B113711251101818283E200EC
:103F2C00E900EA00B500B600B700CD008301CC0073
:103F3C008A01920194012102230224022502260205
:103F4C0027022A02B300B4006F0070008001020443
:083F5C0008103195949697348A
:00000001FF
