:100000000C943A090C9481090C9481090C9481098F
:100010000C9481090C9481090C9481090C94810938
:100020000C9481090C9481090C94CD310C949F326D
:100030000C94C9230C9481090C9481090C948109B6
:100040000C9481090C9481090C9481090C94810908
:100050000C9481090C943D240C9481090C94810921
:100060000C9481090C9481090C9481090C948109E8
:100070000C9481090C9481090C9481090C948109D8
:100080000C9481090C9481090C9481090C948109C8
:100090000C9481090C9481090C9481090C948109B8
:1000A0000C9481090C9481090C948109121912197C
:1000B000441944199119B119111B111BF319901A04
:1000C000A11AA11A011B111B111B0A1B931B931BC5
:1000D000A51BA51B9C1BA51BA51BA51B931B931B4D
:1000E000A11BA51BA51BA11B1C2A0A2A2E2AA82876
:1000F000072B072B072A072B072B5B2A072B6F2AB7
:10010000E72A072B072B072B072BA32A072B072BE5
:100110008C2A072B472A072B072B012B012B012B9E
:10012000012B012B012B012B012B012B032B072B67
:100130001C2AFF29072B072B072B072B072B072B25
:10014000072B072B072B072B032B072B072B072A24
:10015000072BFF2AFF2AFF2AFF2AFF2AFF2AFF2A4E
:10016000FF2AFF2A032B0C33333325343333253452
:100170007F33A2332534F833073429001E001F00D3
:10018000200021002200230000004C002B0014005E
:100190001A0008001500170000004B003900040089
:1001A0001600070009000A0000004E00E1001D00D3
:1001B0001B0006001900050000000000E000000020
:1001C000E20000002C000151000000002E002D0074
:1001D00027002600250024002A0030002F001300ED
:1001E00012000C0018001C00310000003400330025
:1001F0000F000E000D000B002800E500380037004E
:1002000036001000110005000151E400000000005C
:10021000E60000002C0000000000005C0000000070
:1002200000000000000000000000A8000000000026
:1002300000005200000000000000A90000000000C3
:10024000500051004F0000000000AA000000000014
:10025000000000000000000000000000000000009E
:10026000000000000000010000000000000000008D
:10027000000000000000000000000000000000007E
:10028000000000000000000000000000000000006E
:10029000000000000000000000000000000000005E
:1002A000000000000000000001000000000000004D
:1002B0000000000000000000000044454255473A9D
:1002C0002064697361626C65642E0A00444542557E
:1002D000473A20656E61626C65642E0A000A00254B
:1002E000303862003A200025303258000A722F63FD
:1002F0002030313233343536370A007267626C6928
:100300006768742073657420687376205B4E4F4570
:100310004550524F4D5D3A2025752C25752C25757D
:100320000A007267626C696768742073657420687C
:100330007376205B454550524F4D5D3A2025752C14
:1003400025752C25750A007267626C6967687420D0
:1003500064697361626C65205B4E4F454550524F36
:100360004D5D3A207267626C696768745F636F6E97
:100370006669672E656E61626C65203D2025750A91
:10038000007267626C696768742064697361626C8B
:1003900065205B454550524F4D5D3A207267626C57
:1003A000696768745F636F6E6669672E656E616208
:1003B0006C65203D2025750A007267626C6967686C
:1003C0007420656E61626C65205B4E4F45455052EE
:1003D0004F4D5D3A207267626C696768745F636F46
:1003E0006E6669672E656E61626C65203D202575BD
:1003F0000A007267626C6967687420656E61626C7E
:1004000065205B454550524F4D5D3A207267626CE6
:10041000696768745F636F6E6669672E656E616297
:100420006C65203D2025750A007267626C696768FB
:100430007420746F67676C65205B454550524F4D63
:100440005D3A207267626C696768745F636F6E669D
:1004500069672E656E61626C65203D2025750A0016
:100460007267626C69676874206D6F6465205B4EAB
:100470004F454550524F4D5D3A2025750A00726731
:10048000626C69676874206D6F6465205B454550D8
:10049000524F4D5D3A2025750A007267626C69679C
:1004A00068745F696E6974207267626C69676874EA
:1004B0005F636F6E6669672E6D6F6465203D2030E7
:1004C0002E2057726974652064656661756C7420AE
:1004D00076616C75657320746F20454550524F4DA1
:1004E0002E0A007267626C696768745F696E69746E
:1004F000206565636F6E666967206973206E6F742F
:1005000020656E61626C65642E0A007267626C69B8
:100510006768745F696E6974207374617274210A0C
:10052000007267626C696768745F696E69742063E2
:10053000616C6C65642E0A007267626C696768742E
:100540005F636F6E6669672E7370656564203D201A
:1005500025640A007267626C696768745F636F6E16
:100560006669672E76616C203D2025640A007267FB
:10057000626C696768745F636F6E6669672E73612A
:1005800074203D2025640A007267626C6967687494
:100590005F636F6E6669672E687565203D20256410
:1005A0000A007267686C696768745F636F6E66697A
:1005B000672E6D6F6465203D2025640A00726762B6
:1005C0006C696768745F636F6E6669672E656E61DC
:1005D000626C65203D2025640A007267626C696761
:1005E00068745F636F6E66696720454550524F4D72
:1005F0003A0A0000010101010101010101020202A8
:1006000002020202020203030303030303030404BE
:100610000404040404050505050506060606060788
:100620000707070708080808090909090A0A0A0B41
:100630000B0B0C0C0C0D0D0D0E0E0E0F0F0F1010E2
:100640001111111212131314141515161617171869
:100650001819191A1A1B1B1C1D1D1E1E1F202021D4
:100660002222232424252626272829292A2B2C2D1B
:100670002D2E2F30313232333435363738393A3B3C
:100680003C3D3E3F404142434445464748494A4C31
:100690004D4E4F50515354555658595A5B5D5E5FFD
:1006A000616264656668696B6C6D6F707273757793
:1006B000787A7B7D7E8082838587888A8C8E8F91F5
:1006C000939596989A9C9EA0A2A3A5A7A9ABADAF1F
:1006D000B1B3B5B7BABCBEC0C2C4C6C9CBCDCFD109
:1006E000D4D6D8DBDDDFE2E4E7E9EBEEF0F3F5F8B2
:1006F000FAFDFF0A002530325820006B6579626FE1
:100700006172645F7265706F72743A20000A00252E
:10071000303258006B6579626F6172645F73657423
:100720005F6C65643A200064656C5F6B65795F623D
:1007300069743A2063616E27742064656C3A2025E1
:100740003032580A006164645F6B65795F62697476
:100750003A2063616E2774206164643A2025303248
:10076000580A00290A002575002F002575005D280C
:10077000002564002000256400200025640020007E
:100780002564007C0025303258006D6F7573656BF1
:100790006579205B62746E7C782079207620685DB4
:1007A000287265702F61636C293A205B006D6B5F66
:1007B000776865656C5F74696D655F746F5F6D61A7
:1007C00078203D2025640A006D6B5F776865656C55
:1007D0005F6D61785F7370656564203D2025640AF4
:1007E000006D6B5F74696D655F746F5F6D6178201C
:1007F0003D2025640A006D6B5F6D61785F737065E5
:100800006564203D2025640A006D6B5F696E746528
:100810007276616C203D2025640A006D6B5F646513
:100820006C6179203D2025640A006D6B5F776865F7
:10083000656C5F74696D655F746F5F6D6178203D95
:100840002025640A006D6B5F776865656C5F6D617C
:10085000785F7370656564203D2025640A006D6BC8
:100860005F74696D655F746F5F6D6178203D2025F1
:10087000640A006D6B5F6D61785F737065656420FD
:100880003D2025640A006D6B5F696E746572766148
:100890006C203D2025640A006D6B5F64656C617996
:1008A000203D2025640A000A00257500363A20778D
:1008B0006865656C5F74696D655F746F5F6D6178A5
:1008C0003A20000A00257500353A20776865656C86
:1008D0005F6D61785F73706565643A20000A00257A
:1008E0007500343A2074696D655F746F5F6D61786F
:1008F0003A20000A00257500333A206D61785F7355
:10090000706565643A20000A00257500323A206956
:100910006E74657276616C286D73293A20000A0046
:10092000257500313A2064656C6179282A31306D73
:1009300073293A20000A092D2056616C75657320D1
:100940002D0A004D3E004D25643E20003F0073659A
:10095000742064656661756C740A00433E200077FC
:10096000686572652064656C74613A2063757273A2
:100970006F723D25642C20776865656C3D25640A9F
:1009800053656520687474703A2F2F656E2E7769F1
:100990006B6970656469612E6F72672F77696B6927
:1009A0002F4D6F7573655F6B6579730A000A092DAA
:1009B000204D6F7573656B6579202D0A4553432F64
:1009C000713A09717569740A313A0964656C617923
:1009D000282A31306D73290A323A09696E746572BA
:1009E00076616C286D73290A333A096D61785F73FB
:1009F000706565640A343A0974696D655F746F5F88
:100A00006D61780A353A09776865656C5F6D617864
:100A10005F73706565640A363A09776865656C5F6F
:100A200074696D655F746F5F6D61780A0A703A0969
:100A30007072696E742076616C7565730A643A0928
:100A40007365742064656661756C74730A75703AB9
:100A5000092B310A646F776E3A092D310A70677578
:100A6000703A092B31300A7067646F776E3A092D3E
:100A700031300A0A7370656564203D2064656C74CA
:100A800061202A206D61785F7370656564202A207B
:100A900028726570656174202F2074696D655F74BC
:100AA0006F5F6D6178290A003F004D3E2000433E94
:100AB00020004C25640A0074696D65725F7265617F
:100AC00064333228293A202530346C580A006B658B
:100AD000796D61705F636F6E6669672E6E6B726FA2
:100AE0003A2025580A006B6579626F6172645F690C
:100AF000646C653A2025580A006B6579626F6172F3
:100B0000645F70726F746F636F6C3A2025580A00CF
:100B1000686F73745F6B6579626F6172645F6C6537
:100B2000647328293A2025580A000A092D20537495
:100B300061747573202D0A004743433A20342E39DF
:100B40002E32204156522D4C4942433A20312E3804
:100B50002E3073766E204156525F415243483A2000
:100B6000617672350A004F5054494F4E533A204C2B
:100B7000554641204D4F5553454B455920455854F6
:100B800052414B455920434F4E534F4C4520434F04
:100B90004D4D414E44204E4B524F20343039360A91
:100BA000004255494C443A2022302E372E33322D04
:100BB000322D676332333538312D6469727479228E
:100BC000202832313A30373A3430204F63742020B5
:100BD000352032303139290A005649443A203078DC
:100BE0004645454428537061636520436974792004
:100BF0004B6579626F6172647329205049443A20D1
:100C0000307830303030284F534129205645523A01
:100C1000203078303030310A00444553433A205078
:100C2000434220666F7220746865204F534120282C
:100C300041206E6F206C6F6E676572206F70656EFD
:100C400020736F757263652076657273696F6E20AD
:100C50006F66207468652054475220416C69636553
:100C6000290A000A092D2056657273696F6E202DBE
:100C70000A000A092D20436F6E736F6C65202D0AE0
:100C80004553432F713A09717569740A6D3A096DBC
:100C90006F7573656B65790A000A092D204D6167D0
:100CA0006963202D0A443A094465627567204D65E1
:100CB000737361676520546F67676C650A583A09FA
:100CC0004D6174726978204465627567204D6F6468
:100CD0006520546F67676C65202D2053686F7720FF
:100CE0006B65797072657373657320696E206D61D1
:100CF0007472697820677269640A4B3A094B6579A6
:100D0000626F61726420446562756720546F676723
:100D10006C65202D2053686F77206B657970726544
:100D20007373207265706F72740A4D3A094465627C
:100D30007567204D6F75736520546F67676C650A22
:100D4000563A0956657273696F6E0A533A095374BD
:100D5000617475730A433A09416374697661746515
:100D600020436F6E736F6C65204D6F64650A46316A
:100D70002D4631303A0953776974636820746F20C7
:100D80004C6179657220302D392028463130203D64
:100D9000204C30290A302D393A0953776974636839
:100DA00020746F204C6179657220302D390A4752CA
:100DB0004156453A0953776974636820746F204C33
:100DC0006179657220302028616C7465726E61747F
:100DD00065290A423A094A756D7020746F20426F86
:100DE0006F746C6F616465720A4553433A094A75C2
:100DF0006D7020746F20426F6F746C6F61646572E8
:100E00002028616C7465726E617465290A453A091F
:100E10005072696E7420454550524F4D2053657491
:100E200074696E67730A4253504143453A09436CF3
:100E300065617220454550524F4D0A4E3A094E4B5E
:100E4000524F20546F67676C650A000A00257500D1
:100E50002E6E6B726F3A20000A002575002E737794
:100E600061705F6261636B736C6173685F62616321
:100E70006B73706163653A20000A002575002E735C
:100E80007761705F67726176655F6573633A2000B2
:100E90000A002575002E6E6F5F6775693A20000A9B
:100EA000002575002E737761705F72616C745F72DC
:100EB0006775693A20000A002575002E7377617006
:100EC0005F6C616C745F6C6775693A20000A00257D
:100ED00075002E737761705F7263746C5F726775F3
:100EE000693A20000A002575002E737761705F6CE7
:100EF00063746C5F6C6775693A20000A00257500A1
:100F00002E636170736C6F636B5F746F5F636F6E82
:100F100074726F6C3A20000A002575002E73776199
:100F2000705F636F6E74726F6C5F636170736C6F10
:100F3000636B3A20000A0025303258006B65796DEA
:100F400061705F636F6E6669672E7261773A200029
:100F50000A002575002E6D6F7573653A20000A0032
:100F60002575002E6B6579626F6172643A20000A04
:100F7000002575002E6D61747269783A20000A00B0
:100F80002575002E656E61626C653A20000A0025A9
:100F90003032580064656275675F636F6E666967BB
:100FA0002E7261773A20000A00257500646566613B
:100FB000756C745F6C617965723A20003F004E4B2E
:100FC000524F3A206F66660A004E4B524F3A206FDE
:100FD0006E0A000A6D6F7573653A206F66660A00C7
:100FE0000A6D6F7573653A206F6E0A000A6B65793A
:100FF000626F6172643A206F66660A000A6B6579F7
:10100000626F6172643A206F6E0A000A6D617472D9
:1010100069783A206F66660A000A6D6174726978B1
:101020003A206F6E0A000A64656275673A206F663F
:10103000660A000A64656275673A206F6E0A000AE4
:101040000A4A756D70696E6720746F20626F6F74E5
:101050006C6F616465722E2E2E2000433E2000438B
:101060006C656172696E6720454550524F4D0A00AC
:101070006565636F6E6669673A0A005B735D004B76
:101080006579626F6172642073746172742E0A00F4
:101090005B575D005B535D005B525D005B445D0030
:1010A0005B435D0004033000000008034F00530061
:1010B000410000002A0353007000610063006500D6
:1010C0002000430069007400790020004B00650097
:1010D000790062006F00610072006400730000001C
:1010E0000403090409025B00030100A0FA090400DB
:1010F0000001030101000921110100012240000744
:1011000005810308000A0904010001030000000929
:10111000211101000122C0000705820320000A09F5
:101120000402000203000000092111010001222233
:1011300000070583032000010705030320000112B7
:1011400001100100000008EDFE0000010001020393
:10115000010631FF0974A1010975150026FF0095EC
:1011600020750881020976150026FF009520750874
:101170009102C005010902A10185020901A1000532
:1011800009190129051500250195057501810295AB
:1011900001750381010501093009311581257F950C
:1011A000027508810609381581257F95017508812A
:1011B00006050C0A38021581257F95017508810600
:1011C000C0C005010980A10185031A81002A83009E
:1011D000160100260300950175108100C0050C0959
:1011E00001A10185041A01002A9C02160100269C17
:1011F00002950175108100C005010906A101850550
:10120000050719E029E715002501950875018102F8
:101210000507190029EF1500250195F075018102D8
:1012200005081901290595057501910295017503B8
:101230009101C005010906A101050719E029E7157B
:101240000025019508750181029501750881010548
:1012500007190029FF150026FF0095067508810073
:101260000508190129059505750191029501750378
:101270009101C00011241FBECFEFDAE0DEBFCDBF69
:1012800004B603FE27C08091780290917902A09164
:101290007A02B0917B028730904BA740B04BD1F4DB
:1012A000109278021092790210927A0210927B02C8
:1012B00014BE84B7877F84BF0FB6F894A895809139
:1012C0006000886180936000109260000FBEE0E0D3
:1012D000F8E3099511E0A0E0B1E0E8EBF9E602C01F
:1012E00005900D92A234B107D9F722E0A2E4B1E053
:1012F00001C01D92A837B207E1F70E94E82E0C94B6
:10130000DA340C940000FF93EF93E0914201F091E6
:101310004301309709F00995EF91FF910895FC0181
:101320008591803011F0EFDFFBCF0895FF27E0E2D9
:1013300030E247FF0CC0419597FF09C0EDE2609590
:10134000709580959095611D711D811D911D27FFE0
:1013500002C0219530E350E2AA27660F771F881F4D
:10136000991FAA1FA41710F0A41B63955A95A9F7FB
:10137000AA3008F0A95FA05DAF93F39561157105E0
:101380008105910541F7ED3211F4EF93F395F217D2
:1013900018F43F93F395FBCF8F91B5DFFA95E1F702
:1013A0000895E991F9918591803021F0853219F005
:1013B000AADFF9CF089520E0E89455915532C1F3A2
:1013C000503311F4689455915A3348F4505390F3C4
:1013D000220F022E220F220F200D250FF4CF0EF424
:1013E000219589919991533619F3533729F1533542
:1013F00059F1BC0188279927E8945C3621F489913A
:10140000999168945591543639F446EF7EF077FF00
:101410000DC08FEF9FEF0AC055374AE039F05835BD
:1014200040E121F0523642E009F00895FF93EF9336
:101430007DDFEF91FF91B7CFFF93EF93FC01819197
:101440008030B9F360DFFBCFFF93EF9368DFF1CF1C
:10145000DF93CF93CDB7DEB72596A3DFCF91DF9192
:10146000089580FF02C0479A01C0479881FF02C0DB
:10147000469A01C0469882FF02C02E9A01C02E985B
:101480000C94A00A81E0089581E008950C94440A28
:101490001F93CF93DF9300D000D01F92CDB7DEB75C
:1014A00049835A832091750189819A81211112C043
:1014B000662349F00E94B820182F682F89819A81ED
:1014C0000E945D2003C00E948C20182F69817A81C0
:1014D000812F04C00E94B82069817A810F900F90FB
:1014E0000F900F900F90DF91CF911F910C94290DC9
:1014F000FC01408151816281738184810C94480A8E
:101500000E946D108FE39CE90197F1F700C0000085
:101510000E946D1080E00E94D80F80FF04C00E94DE
:1015200003220C94632408950E94800A0E940922D9
:10153000811102C00E94A9220C94D30F0C94D60FE3
:1015400008950C94310A08950E94831B0E94A30AF7
:101550002FEF84E39CE0215080409040E1F700C0F1
:1015600000000C9463240F931F93CF93DF938C019F
:101570000E94780AEC01B8010E94460A882309F407
:101580005DC2B801CE010E94A115882309F456C29C
:10159000C83CFCE5DF0741F4F801C281CC2309F423
:1015A0004EC20E94D2134AC2C93C8CE5D80708F04B
:1015B000D0C1C23CECE5DE0741F4F801C281CC2386
:1015C00009F43DC20E94621439C2C33CFCE5DF0746
:1015D00008F077C1C6318CE5D80708F048C1C230A1
:1015E000ECE5DE0708F413C1F8018281882309F4D1
:1015F00015C10E940922811102C00E94A9220E94E5
:101600001C2290936A0280936902C031FCE5DF07D7
:1016100009F4BFC008F03FC0C830ECE5DE0709F4AC
:1016200096C0F0F4C4308CE5D80709F483C068F4A0
:10163000C230FCE5DF0709F473C0C330DC4509F0B4
:10164000DDC080916902826072C0C630ECE5DE07C1
:1016500009F46AC008F077C080916902886067C0A9
:10166000CC308CE5D80709F481C058F4CA30FCE5C9
:10167000DF0709F470C008F075C0809169028068C6
:1016800056C0CE30ECE5DE0709F474C008F07DC02A
:101690008091690289C0CB3F8CE5D80709F44DC021
:1016A00008F5C331FCE5DF0709F47BC068F4C131FC
:1016B000ECE5DE0709F471C0C231DC4509F09EC0DB
:1016C000809169028F7733C0C5318CE5D80709F462
:1016D00072C008F486C0CA3FDC4509F08FC0809113
:1016E0006A023EC0CF3F8CE5D80709F45FC058F4CA
:1016F000CD3FFCE5DF0709F444C008F43FC080910A
:101700006A0282602DC0C130EDE5DE0709F473C0C6
:1017100008F45DC0C230DD4509F070C080E06CC0E7
:1017200080916902816003C0809169028061809329
:10173000690264C08091690211C080916A0282606E
:1017400080936A025BC0809169028062F0CF8091D1
:1017500069028064ECCF8091690288608460E7CF81
:101760008160EECF809169028E7FE1CF8091690226
:101770008D7FDDCF80916902877FD9CF80916A020A
:1017800018C080916A028D7FDBCF809169028F7EC5
:10179000CECF809169028F7DCACF809169028F7B05
:1017A000C6CF80916902877F8B7FC1CF80916A020B
:1017B0008D7F8E7FC5CF8091690282FB222720F921
:1017C00091E0922790FB82F990FB83F9B0CF809152
:1017D0006A02982F909591708E7F892B90FB81F9EA
:1017E000AFCF8091690287FB222720F991E09227F1
:1017F00090FB87F99CCF81E00E94AB228091690227
:1018000090916A020E942D220E94831B17C1C1156C
:10181000FCE5DF0751F0C130DC4579F0C801DF910C
:10182000CF911F910F910C94420AF801C281CC23F1
:1018300009F405C10E94A40A01C1F801C281CC23A8
:1018400009F4FDC080910D02C82FC095C170C0FB86
:1018500080F980930D02CC2329F08CEC92E00E9459
:101860008F09ECC08AEB92E00E948F09E8C0C63174
:10187000DC45A1F60E943821282FF8018281409191
:10188000020150910301882379F02A7A91E009F44A
:1018900090E090934401911102C069E201C065E3B8
:1018A000CA010E9437230AC080914401811102C0FD
:1018B00069E201C065E3CA010E9442230E948421BB
:1018C000BDC0C53CFCE5DF0741F4F801C281CC2373
:1018D00009F4B5C00E94A713B1C0C63C8CE5D80777
:1018E00000F5C33CECE5DE0761F4F801C281CC23CE
:1018F00009F4A5C00E943821827281F00E9441142F
:101900009DC0C43CDC4509F089CFF801C281CC23DD
:1019100009F495C00E943821827281F30E94341428
:101920008DC0C63C8CE5D80741F4F801C281CC23B8
:1019300009F485C00E94B41381C0C73CDC4509F09E
:101940006DCFF801C281CC2309F479C00E94C31382
:1019500075C0C63DFCE5DF0708F044C0CE3C8CE511
:10196000D80708F06BC0CB3CECE5DE0741F4F8018A
:10197000C281CC2309F463C00E9482125FC0CC3CB8
:10198000FCE5DF07C0F4C93C8CE5D80741F4F80159
:10199000C281CC2309F453C00E94E1134FC0CA3C5A
:1019A000DC4509F03BCFF801C281CC2309F447C0E4
:1019B0000E94F01343C0CC3CFCE5DF0739F4F8018A
:1019C000C281CC23E1F10E94931238C0CD3CDC45AA
:1019D00009F024CFF801C281CC2389F181E00E9473
:1019E00044142CC0CE3DECE5DE0739F4F801C28189
:1019F000CC2329F10E94A92221C0CF3DFCE5DF07BD
:101A0000B0F4CC3D8CE5D80731F4F801C281CC2389
:101A1000B1F080E009C0CD3DDC4509F0FFCEF80112
:101A2000C281CC2361F082E00E94902F07C0CE01DA
:101A30008A5F9C45099708F4D7CDF0CEC0E08C2F83
:101A4000DF91CF911F910F91089580E090E008956C
:101A50000895E72FF0E09AE0899FE00DF11D112431
:101A600083E0EE0FFF1F8A95E1F7E60FF11DEE0F01
:101A7000FF1FE658FE4F859194910895880F991F96
:101A8000FC01E352FD4F859194910895CF93DF932C
:101A90000E94290D0E94FB0EEC01811520E59207A2
:101AA000F0F5811530E4930708F024C1883E9105D4
:101AB00000F5803E910508F09AC1883A910570F4CE
:101AC000853A910508F09FC08130910509F48FC1D6
:101AD00008F440C1049708F08AC13CC18F3B9105CE
:101AE00008F49CC0803C910508F434C1805C9109E5
:101AF000F4C0811540E2940758F4C11581E0D8077D
:101B000008F075C1C03FD10508F424C1D0656FC18C
:101B1000811520E3920708F0E4C09F70DEC08115B4
:101B200035E5930708F044C0811544E5940708F0B3
:101B3000F8C0C11582E5D80708F5C11521E5D2071F
:101B400008F0DBC08C2F837021E030E002C0220F50
:101B5000331F8A95E2F73C68CE0174E0969587952D
:101B60007A95E1F78370382BCF70C695C69580E2E1
:101B7000C89FE0011124C22BD32B39C12C2F2695ED
:101B80002695CE0183709927C115D34508F0BAC0B8
:101B900040E2249F90011124C1E0D0E002C0CC0FAC
:101BA000DD1F8A95E2F72C2B3D2BE901DC681FC174
:101BB000811549E59407A0F4C11588E5D80708F018
:101BC000B5C0C11526E5D20708F0C4C08C2F0E940D
:101BD0008F0F8F71C82FD0E0DC2FCC27D06207C1C8
:101BE00081153AE5930708F4A6C0905681159042F6
:101BF00008F0B0C08D2F8F710E948F0FDD27D0624B
:101C00008F71D82BF4C0853A910509F4A6C0863AA5
:101C1000910509F0A5C0C2E8D0E4E9C0883A910571
:101C200009F4A1C0893A910509F4A0C08A3A910546
:101C300009F49FC08B3A910509F49EC08C3A910536
:101C400009F49DC08B3B910509F49CC08C3B910528
:101C500009F49BC08D3A910509F49AC0803B910527
:101C600009F499C08E3A910509F498C08F3A91050C
:101C700009F497C0813B910509F496C0823B910518
:101C800009F495C0833B910509F494C0843B910508
:101C900009F493C0853B910509F492C0863B9105F8
:101CA00009F491C0873B910509F490C0883B9105E8
:101CB00009F48FC0893B910509F48EC08D3B9105D5
:101CC00009F48DC08E3B910509F48CC08A3B9105C7
:101CD00009F48BC0C0E0D4E48AC00E943E0DEC0140
:101CE00086C09927D3FF03C0EC01D86C80C0EC01FB
:101CF000D06C7DC0DF70D06A7AC0DC2FCC27C16F7A
:101D0000D06A75C040E2249F90011124C1E0D0E068
:101D100002C0CC0FDD1F8A95E2F7C22BD32BDA6805
:101D200066C0D82FCC27C46FD06A61C0DC2FCC2707
:101D3000C06FD06A5CC08F700E948F0F94E0D69500
:101D4000C7959A95E1F7CF70D0E0DC2FCC27D0690A
:101D5000C82B4DC0C0E0D0E04AC0C1E8D0E447C0C5
:101D6000C3E8D0E444C0C2EED4E441C0C9EED4E438
:101D70003EC0CAEED4E43BC0C5EBD4E438C0C6EBE9
:101D8000D4E435C0C3EBD4E432C0C4EBD4E42FC0F8
:101D9000C7EBD4E42CC0CCECD4E429C0CDECD4E423
:101DA00026C0C3E8D5E423C0CAE8D5E420C0C2E910
:101DB000D5E41DC0C4E9D5E41AC0C1E2D6E417C019
:101DC000C3E2D6E414C0C4E2D6E411C0C5E2D6E44E
:101DD0000EC0C6E2D6E40BC0C7E2D6E408C0CFE628
:101DE000D4E405C0C0E7D4E402C0CAE2D6E4CE0120
:101DF000DF91CF9108958238910569F1B0F4813374
:101E0000910509F46DC048F48932910509F463C065
:101E10008A32910509F469C008958533910509F462
:101E200055C089339105B9F00895833E910569F154
:101E300038F4803E9105B1F0823E910509F1089594
:101E4000863E9105A9F1873E9105B9F1843E910541
:101E500009F064C023C02091690220FD4FC021FD1C
:101E60004DC008958091690280FD44C080916A024E
:101E700080FF44C08091690284FD42C083EE4DC062
:101E80008091690282FF38C0F5CF8091690282FD9E
:101E900033C080916A0280FD31C0ECCF80916A022C
:101EA00081FF32C08091690284FD2AC087EE35C06F
:101EB0008091690283FF26C0F5CF8091690283FD7E
:101EC00021C080916A0281FD1FC0ECCF8091690220
:101ED00085FD1CC01DC08091690285FD19C016C01A
:101EE0008091690286FD16C017C08091690286FD47
:101EF00013C010C089E311C082EE0FC080EE0DC088
:101F000080E00BC086EE09C084EE07C089E205C000
:101F100085E303C08AE201C081E390E008959091D7
:101F2000690292FF0DC0282F2871283019F4877F8D
:101F3000846006C0282F2471243011F48B7F8860C0
:101F400093FF0DC0282F2871283119F4877E8461F2
:101F500006C0282F2471243111F48B7E88612091D2
:101F60006A0220FF0DC0382F3871383019F4877F8E
:101F7000816006C0382F3171313011F48E7F886056
:101F800021FF0DC0282F2871283119F4877E816127
:101F900006C0282F2171213111F48E7E886194FDB5
:101FA000877E089508950C94D20F08950C94D50F50
:101FB000E82FF0E0EB5BFE4F80810895CF92DF9237
:101FC000EF92FF920F931F93CF93DF938CEE92E0EB
:101FD0000E948F0985E4E82E81E0F82EC0E0D0E071
:101FE00097EEC92E92E0D92E0FED12E0DF93CF933A
:101FF000DF92CF920E94280A84EE92E00E948F091D
:10200000F70181917F010E94ED211F928F931F9311
:102010000F930E94280A8DED92E00E948F0921966D
:102020008DB79EB708960FB6F8949EBF0FBE8DBFB2
:10203000CA30D105D9F6DF91CF911F910F91FF9052
:10204000EF90DF90CF900895ADE1B1E041E050E036
:102050002AE02A0F8D91E82FE295EF70F0E031A190
:102060008F70BA0102C0660F771F8A95E2F7CB0125
:10207000962F9095932391A392A1892B82A32A1343
:10208000E9CFA5E1B1E041E050E028E02A0F8D91D1
:10209000E82FE295EF70F0E031A18F70BA0102C035
:1020A000660F771F8A95E2F7CB01962F90959323C1
:1020B00091A392A1892B82A32A13E9CFA5E4B1E0D1
:1020C000EFE4F1E08AE08E0F11921D928E13FCCFA7
:1020D0008AE00E94F4100C94940A6F927F928F927F
:1020E0009F92AF92BF92CF92DF92EF92FF920F93A7
:1020F0001F93CF93DF936DE171E0AFE4B1E0712CFA
:1021000001E010E0DAE06D2E6A0E7D019C901C92D9
:10211000EB018991BE01E82FE295EF70F0E091A10B
:102120008F70A80101C0440F8A95EAF7892F842B8C
:1021300081A392A1842F8095982392A3D0EADA9567
:10214000F1F7C5E1CC2EC1E0DC2E20E030E0E60165
:1021500099916E01A92EA2945FE0A522B12CE50110
:10216000A8A08C90B12C9F7002C0B594A7949A95AA
:10217000E2F7A0FC07C0902F022E01C0990F0A942D
:10218000EAF701C090E098299C932F5F3F4F2830D9
:102190003105E9F691A1892381A382A1482B42A3AD
:1021A000119681E0F7019081991201C080E0782AB0
:1021B0006A12ABCF272D4AE065E471E08FE491E02D
:1021C0000E94F5100E949E0A872DDF91CF911F91EA
:1021D0000F91FF90EF90DF90CF90BF90AF909F90C6
:1021E0008F907F906F9008950895FF920F931F93A3
:1021F000CF93DF938C01F62ED72FC42F222349F0E3
:1022000081E080935B010E94FB2390935A018093AD
:10221000590180915B018823C1F08091590190910F
:102220005A010E941324069780F0EF2DFD2FD8014C
:102230004C2F50E0CD01801B910B841795071CF4A7
:102240008D918193F7CF10925B01DF91CF911F9118
:102250000F91FF900895AF92BF92CF92DF92FF92BD
:102260000F931F93CF93DF93D62E372FE82FF0E0F5
:10227000711106C0ED50FA4F6491762F862F75C00C
:10228000C72FD0E0ED50FA4F2491F22E022F10E02C
:1022900046E0649FC0011124EFEFF0E0BF010E940F
:1022A0006434AB016BEA6403C001659F900D112497
:1022B0008D0D911D8D0D911D982F990F890FDF01A7
:1022C000AC1BBD0B0A9FB0010B9F700D1A9F700DC8
:1022D0001124972F839FD0011124AB2FBB276F01AF
:1022E000CA1ADB0A0C9DD0010D9DB00D1C9DB00DCE
:1022F00011245F01A81AB108AC9E6001AD9ED00CFC
:10230000BC9ED00C1124CD2DDD27EC1BFD0B0E9FA8
:10231000E0010F9FD00D1E9FD00D1124ED2F4230F4
:10232000510591F04CF441155105E1F04130510552
:10233000B9F4E22F2B2F16C04430510569F044F058
:102340004630510579F00CC0E22F272F9D2F0AC08F
:10235000272F9F2DEB2F06C0E72F922F2D2F02C086
:10236000E72F9B2F6E2F722F892FDF91CF911F9117
:102370000F91FF90DF90CF90BF90AF900895CF93D3
:10238000DF93762FE901682F842F0E942B11798328
:1023900068838A83DF91CF91089580914302982FBB
:1023A0009695913021F08170826080934302089568
:1023B00088E090E00C949A34CF93DF9300D000D063
:1023C000CDB7DEB7AB01BC0149835A836B837C83F5
:1023D0000E94CD1149815A816B817C8188E090E017
:1023E0000F900F900F900F90DF91CF910C94B83415
:1023F000E3E4F2E083E0808311828FEF82838383C2
:10240000148260817181828193810C94DC118091AE
:102410000D0280FF08C08AED95E09F938F930E9484
:10242000280A0F900F9080910D0280FF0FC08091BD
:10243000430281701F928F938DEB95E09F938F9352
:102440000E94280A0F900F900F900F9080910D021C
:1024500080FF0FC08091430286951F928F9382EA7E
:1024600095E09F938F930E94280A0F900F900F90F2
:102470000F9080910D0280FF0EC0809144021F9248
:102480008F9388E895E09F938F930E94280A0F907E
:102490000F900F900F9080910D0280FF0EC08091E1
:1024A00045021F928F938EE695E09F938F930E9433
:1024B000280A0F900F900F900F9080910D0280FFCF
:1024C0000EC0809146021F928F9384E595E09F9302
:1024D0008F930E94280A0F900F900F900F90809179
:1024E0000D0280FF0EC0809147021F928F9388E3F8
:1024F00095E09F938F930E94280A0F900F900F9062
:102500000F90089580914702833018F48F5F809375
:10251000470260914302709144028091450290917C
:1025200046020C94DC1180914702882319F08150F7
:10253000809347026091430270914402809145026A
:10254000909146020C94DC116091010170E0809141
:10255000430280FF0AC080915D0123E0829FC00199
:102560001124885B9D4F0C94311580915C019091F2
:102570000001891780F7E82FF0E09F01220F331F39
:10258000E20FF31FE85BFD4F1182108212828F5F12
:10259000F0CF809143028E7F80934302609143028B
:1025A0007091440280914502909146020E94DC1194
:1025B00080910D0280FF0FC08091430281701F92B5
:1025C0008F9381E893E09F938F930E94280A0F9046
:1025D0000F900F900F902FEF80E792E021508040F6
:1025E0009040E1F700C000000C94A41280914302D7
:1025F0008E7F8093430280910D0280FF0CC01F925A
:102600001F9287E493E09F938F930E94280A0F9074
:102610000F900F900F902FEF80E792E021508040B5
:102620009040E1F700C000000C94A4129091430286
:1026300090FF16C090915C0120910001921770F4F8
:10264000E92FF0E0DF01AA0FBB1FEA0FFB1FE85BD9
:10265000FD4F8183608342839F5FF0CF0C94A4126F
:102660000895EF92FF920F931F93CF93DF9300D0C3
:102670001F92CDB7DEB79091430290FF54C0E22E77
:10268000F42E062F182FE92FE695F0E0E95DFE4FB6
:10269000808180935F019E7F923059F49E012F5F6D
:1026A0003F4F812F0E94BF114B8169818A810E9417
:1026B00016131093440200934502F0924602EE2056
:1026C000E9F060914302709144028091450290913B
:1026D00046020E94DC1180910D0280FF24C080918F
:1026E00046021F928F93809145021F928F93809193
:1026F00044021F928F9382E293E00CC080910D02FE
:1027000080FF11C01F92FF921F920F931F921F9381
:102710008BEF92E09F938F930E94280A0FB6F89454
:10272000DEBF0FBECDBF0F900F900F90DF91CF9106
:102730001F910F91FF90EF900895E3E4F2E09181F3
:10274000282F438162818AE0890F0C94311381E044
:102750000C949D13E3E4F2E09181282F4381628180
:1027600086EF890F0C94311381E00C94AA13E3E4F3
:10277000F2E0628121E1620F08F46FEF282F4381BC
:1027800081810C94311381E00C94B713E3E4F2E0FF
:10279000628121E1621B08F460E0282F438181817E
:1027A0000C94311381E00C94C613E3E4F2E043810E
:1027B00021E1420F08F44FEF282F628181810C94B0
:1027C000311381E00C94D513E3E4F2E0438121E17D
:1027D000421B08F440E0282F628181810C94311360
:1027E00081E00C94E41320E00C94311380914302B7
:1027F00080FF35C081708260809343026623B1F010
:10280000609143027091440280914502909146028A
:102810000E94DC1180910D0280FF19C0809143025B
:1028200086951F928F938EE794E009C080910D02E8
:1028300080FF0DC01F9281E08F9380E694E09F930C
:102840008F930E94280A0F900F900F900F90409145
:10285000460260914502809144020C94F31308955E
:10286000682F81E00C94F61381E00C943014682FEB
:102870009091430296958FEF890F09F481E00C94B3
:10288000F61381E00C94371461E00C94F6138091F8
:10289000430281608093430280910D0280FF0DC04E
:1028A0001F9281E08F9382EF93E09F938F930E941A
:1028B000280A0F900F900F900F90809143028695F9
:1028C0000C94441480910D0280FF10C0809143024B
:1028D000809581701F928F9389E294E09F938F93EC
:1028E0000E94280A0F900F900F900F908091430242
:1028F00080FD0C94C9120C94471460E00C94F613FC
:1029000080915E0181115FC080910D028160809392
:102910000D0281E295E09F938F930E94280A809197
:102920000D020F900F9080FF08C08BE095E09F9301
:102930008F930E94280A0F900F900E940922811104
:1029400010C080910D0280FF08C083EE94E09F9339
:102950008F930E94280A0F900F900E94A9220E9434
:10296000F8110E94D811609343027093440280933F
:102970004502909346026E7FC1F480910D0280FF64
:1029800008C08AE994E09F938F930E94280A0F90D1
:102990000F900E94F8110E94D81160934302709327
:1029A000440280934502909346020E94CD110E94FA
:1029B00007128091430280FF03C086950E947D1418
:1029C00081E080935E01089580914302816080934D
:1029D000430280910D0280FF0DC01F9281E08F9312
:1029E00089EB93E09F938F930E94280A0F900F909A
:1029F0000F900F908091430286950C947D142BB11B
:102A0000342F309523233BB1432B3FB7F894FC017F
:102A1000680F791FE617F70789F0819198E04BB9A5
:102A2000000000C087FF2BB9880F000000C000C065
:102A300000C02BB900C09A9591F7ECCF3FBF089525
:102A40002AB1242B2AB99B01220F331F620F731F57
:102A50000E94FF1487EC90E00197F1F700C000009E
:102A6000089540E10C9420150F931F93CF93DF93AB
:102A7000C62FD42F022FFC0182818823C9F06093D6
:102A800063010E94FB23909362018093610180E2C5
:102A90008C0F883008F050C0C77081E001C0880FEB
:102AA000CA95EAF7DF91CF911F910F910C94D2183C
:102AB00010916301161330C0809161019091620101
:102AC0000E941324883C910538F5C0E2CD0F1D17F4
:102AD000B9F080E2810F883040F4177081E001C0C6
:102AE000880F1A95EAF70E94D918C83048F481E097
:102AF0009D2F977001C0880F9A95EAF70E94D2180F
:102B0000802F0E94BF18C830B8F4D77081E001C090
:102B1000880FDA95EAF70AC080E28C0F883060F4FB
:102B2000C77081E001C0880FCA95EAF7DF91CF91A5
:102B30001F910F910C94D918DF91CF911F910F9194
:102B400008959C01CB01233F4CE53407F9F078F45C
:102B5000283DFCE53F07B9F0293D4CE5340711F16C
:102B6000273D3C4531F526E241EE61EE1EC0253F92
:102B7000FCE53F0799F070F0263F3C45D1F427E291
:102B800045EE66EE12C027E245EE0EC026E241EEAB
:102B900060EE0BC027E245EE64EE07C026E241EE90
:102BA00062EE03C028E241E065EE0E94341580E049
:102BB0000895FC018281882319F010926301089521
:102BC00081E0089590936901809368010895E091F0
:102BD0006801F0916901309721F00190F081E02DBA
:102BE000099480E00895EF92FF921F93CF93DF93B3
:102BF000FC01A0916801B0916901109709F442C0ED
:102C000080911401882341F08091690287FF04C0FC
:102C10008081818385E08083EF011296ED91FC91A4
:102C20001397CE01099580910D0282FF2BC080FF82
:102C300004C08BEF96E00E948F0918E085EFE82E24
:102C400086E0F82E80910D0280FF0BC088811F92D4
:102C50008F93FF92EF920E94280A0F900F900F908F
:102C60000F90115021961111EDCF80910D0280FF30
:102C700009C083EF96E0DF91CF911F91FF90EF9015
:102C80000C948F09DF91CF911F91FF90EF900895E1
:102C9000E0916801F0916901309739F022E0DC01A0
:102CA0002C930480F581E02D09940895209166010C
:102CB000309167018217930771F0909367018093B9
:102CC0006601E0916801F0916901309721F006807A
:102CD000F781E02D099408952091640130916501F8
:102CE0008217930771F09093650180936401E091DE
:102CF0006801F0916901309721F00084F185E02DA1
:102D00000994089585B7806885BF85B7806885BFB9
:102D10000895089508950C948A1608950C948D16BC
:102D20000E9482160E9489160C948B1681E00895E9
:102D30000E94F2230E9424100E9487240E94801483
:102D40000C948E16CF93C82F80910D0282FF1EC067
:102D500080FF04C084E197E00E948F0980910D02FA
:102D600080FF0CC01F92CF938FE097E09F938F93CB
:102D70000E94280A0F900F900F900F9080910D02E3
:102D800080FF04C08DE097E00E948F098C2FCF91C7
:102D90000C94A10ACF92DF92EF92FF920F931F93B0
:102DA000CF93DF93CDB7DEB72B970FB6F894DEBF86
:102DB0000FBECDBF0E946D100E949616811111C0EA
:102DC0008FEF89838A831B820E94FB238160782F87
:102DD0009D838C8349815A816B818D810E947217FA
:102DE00056C08BE6C82E81E0D82E00E010E0E02E21
:102DF000802F0E94D80FF60141916F01F42EF82622
:102E000031F40F5F1F4F0A30110589F7D9CF909128
:102E10000D0291FF04C08B870E94DE0F8B8520E09E
:102E200030E04F2D50E0922FBA01022E02C075956E
:102E300067950A94E2F760FF24C02E83EF8221E0B9
:102E400030E0690102C0CC0CDD1C9A95E2F790E0FD
:102E50008C219D21892B09F420E028870E94FB23E7
:102E60008160782F9A8789874E815F8168858A85FE
:102E70000E947217F801E559FE4F8081C826C08272
:102E800006C02F5F3F4F2830310569F6BACF0E9448
:102E90009B2610916A010E94E7151817A1F00E9465
:102EA000E71580936A012B960FB6F894DEBF0FBE2C
:102EB000CDBFDF91CF911F910F91FF90EF90DF90E9
:102EC000CF900C94A2162B960FB6F894DEBF0FBECF
:102ED000CDBFDF91CF911F910F91FF90EF90DF90C9
:102EE000CF900895CF93DF93CDB7DEB72B970FB672
:102EF000F894DEBF0FBECDBF4F83588769877A87AE
:102F00008B87DE01119686E0FD0111928A95E9F723
:102F100085E0FE01379601900D928A95E1F749818F
:102F20005A816B817C818D819E810E942D1E2B9602
:102F30000FB6F894DEBF0FBECDBFDF91CF910895DD
:102F4000FC01808191810E94F9200895CF93DF9345
:102F50001F92CDB7DEB7882309F4D9C0682F8CEF54
:102F6000860F813A70F4862F69830E941F2B698136
:102F70008111CDC080910201909103010E943723FD
:102F80000CC080E2860F883068F4677081E001C071
:102F9000880F6A95EAF70E943B210F90DF91CF914D
:102FA0000C9484218BE5860F833088F4653A29F0F0
:102FB000663A31F083E890E005C081E890E002C015
:102FC00082E890E00F90DF91CF910C94561688E53F
:102FD000860F873108F091C0683A09F445C0693A14
:102FE00009F445C06A3A09F445C06B3A09F445C092
:102FF0006C3A09F445C06B3B09F445C06C3B09F4DD
:1030000045C06D3A09F445C0603B09F445C06E3ACD
:1030100009F445C06F3A09F445C0613B09F445C065
:10302000623B09F445C0633B09F445C0643B09F4C5
:1030300045C0653B09F445C0663B09F445C0673BA4
:1030400009F445C0683B09F445C0693B09F445C033
:103050006D3B09F445C06E3B09F445C06A3B09F479
:1030600045C080E090E044C082EE90E041C089EE2F
:1030700090E03EC08AEE90E03BC085EB90E038C027
:1030800086EB90E035C083EB90E032C084EB90E0BB
:103090002FC087EB90E02CC08CEC90E029C08DEC29
:1030A00090E026C083E891E023C08AE891E020C048
:1030B00082E991E01DC084E991E01AC081E292E0CA
:1030C00017C083E292E014C084E292E011C085E26E
:1030D00092E00EC086E292E00BC087E292E008C068
:1030E0008FE690E005C080E790E002C08AE292E0BF
:1030F0000F90DF91CF910C946C16603F40F0862FBB
:103100000E9421250F90DF91CF910C940E260F90F5
:10311000DF91CF910895882389F19CEF980F913A20
:1031200040F4682F80910201909103010E94422394
:103130000DC090E2980F983058F4877091E001C06C
:10314000990F8A95EAF7892F0E9441210C948421D6
:103150009BE5980F933020F480E090E00C94561695
:1031600098E5980F973120F480E090E00C946C166D
:10317000803F20F00E9489250C940E260895CF935D
:10318000C82F0E94A617C93349F42FEF87EE93E0AA
:10319000215080409040E1F700C000008C2FCF917B
:1031A0000C948B18882321F00E943B210C948421DD
:1031B0000895882321F00E9441210C9484210895D0
:1031C000BF92CF92DF92EF92FF920F931F93CF9314
:1031D000DF937C01062FC72FFC01158112951F700C
:1031E000D281D1110E9458210E943121882379F087
:1031F000DD2369F080E2800F883048F082E00E9491
:10320000CF210E94312191E0B82EB92601C0B12C06
:10321000CC2EC2948FE0C822D12CF601EA5AFF4F7F
:103220000C948C348C2F807FCF70882311F0C29542
:10323000C07FDD2399F0CC2309F4CEC180E2800F5A
:10324000883010F0011104C08C2F0E943B2103C074
:103250008C2F0E944B210E948421BEC1802F0E948E
:103260008B18CC2309F4DDC180E2800F883010F088
:10327000011104C08C2F0E94412103C08C2F0E9499
:1032800051210E948421CDC18C2F807FCF7080324C
:1032900011F0C295C07F002319F00130C9F022C09F
:1032A000DD2371F0112341F0113031F40E946B21C4
:1032B0008C2B0E947121B5C10E946B218C2B1DC0EB
:1032C000112319F0113009F4ACC10E947A2125C0F4
:1032D000DD2321F0163008F0A4C10EC0153008F02F
:1032E000A0C11BC0DD2361F0112331F0F7018581FE
:1032F00080FF72C18F7085838C2F0E94D21891C17C
:10330000112359F0093309F078C1FFEF27EE83E06C
:10331000F15020408040E1F76EC18C2F0E94D918F7
:1033200080C18C2F86958695837090E0009719F068
:10333000019761F076C1DD2321F0802F9C2F9370DF
:1033400002C080E090E00E94561676C1DD2321F095
:10335000802F9C2F937002C080E090E00E946C163A
:103360006BC1DD23F9F0053F51F0063F71F0043FDA
:10337000A9F4809163029091640281600BC08091F6
:10338000630290916402826005C080916302909113
:10339000640284609093640280936302802F0E9491
:1033A00021251EC0053F51F0063F71F0043FA9F4EE
:1033B00080916302909164028E7F0BC080916302C2
:1033C000909164028D7F05C08091630290916402A8
:1033D0008B7F9093640280936302802F0E948925E3
:1033E0000E940E2629C18C2F837009F049C0D1118B
:1033F0001FC1402F429546954770440F440F602FE0
:103400006F70862F90E0A0E0B0E0042E04C0880F1B
:10341000991FAA1FBB1F0A94D2F704FF10C00FE028
:1034200010E020E030E004C0000F111F221F331F06
:103430004A95D2F7009510952095309503C000E08D
:1034400010E09801C695C695C370D0E0BC01CD01CF
:10345000602B712B822B932BC230D10559F0C330D6
:10346000D10559F0219719F00E94721FE1C00E9406
:10347000601FDEC00E94841FDBC00E945E1FD8C098
:10348000DD2319F08C2F817001C08695882309F403
:10349000CFC0402F429546954770440F440F602F90
:1034A0006F70862F90E0A0E0B0E0042E04C0880F7B
:1034B000991FAA1FBB1F0A94D2F704FF10C00FE088
:1034C00010E020E030E004C0000F111F221F331F66
:1034D0004A95D2F7009510952095309503C000E0ED
:1034E00010E09801C695C695C370D0E0BC01CD012F
:1034F000602B712B822B932BC230D10559F0C33036
:10350000D10559F0219719F00E94382091C00E94EE
:1035100026208EC00E944A208BC00E94991F88C01E
:10352000CF70DD2339F08C2F0E94BF1F802F0E94A7
:10353000D2187EC0802F0E94D9188C2F0E94E01FC5
:1035400077C0023F01F128F4003F41F0013FA1F0B4
:103550003FC0033FF9F0043F39F13AC0DD2341F0A9
:10356000153008F05EC08C2F8F710E94052059C065
:10357000163008F056C0F7CFDD2339F08C2F8F714D
:103580000E94BF1F4EC0DD23C9F38C2F8F710E9494
:10359000E01F47C0DD2329F08C2F8F710E94AA1FE6
:1035A00040C00E94A51F3DC0DD2349F0CF718C2F84
:1035B0000E94BF1F63E08C2F0E94BA2132C081E0BD
:1035C0000E94CF21123068F182E00E94CF2129C0F1
:1035D000DD2331F0112391F2802F0E94A61721C024
:1035E000112399F2093349F49FEFE7EEF3E091508C
:1035F000E040F040E1F700C00000802F0E948B18EF
:1036000010C04C2F4F70602FC7010E94250D0E94E3
:10361000D11E12C04C2F4F70602FC7010E94280D81
:103620000BC028E0C21AD10884E0C816D10420F4E7
:103630000E94E7150E94A10ABB20D1F00E942D2113
:1036400080FD16C0F70112820E9427210E94BF1F31
:10365000C7010E94421B0E942721DF91CF911F9139
:103660000F91FF90EF90DF90CF90BF900C94E01FF0
:10367000DF91CF911F910F91FF90EF90DF90CF904E
:10368000BF9008950F931F93CF93DF93EC01888130
:1036900099812B813C81232BB9F09F3F11F48F3FFF
:1036A00099F0CE010E94B30A882371F06881798174
:1036B0008A810E9404218C010E945C200E945D1F6F
:1036C000B801CE010E94E018DF91CF911F910F91B8
:1036D00008950E9458210E9468210E9484210E941E
:1036E00036270E940E2680E090E00E94561680E069
:1036F00090E00C946C1680910201909103010E945D
:103700004D230C94691B0E9448210C947B1BE92FCC
:10371000E295EF70F0E03297EE30F105B0F4EA593F
:10372000FF4F0C948C34803F91F018F4883E68F47D
:103730000EC0843F51F40BC0883E48F0813F29F40D
:1037400006C093FB882780F9089580E0089581E002
:1037500008950E94F9200E94871B0895CF93DF935C
:1037600000D000D01F92CDB7DEB70F900F900F9012
:103770000F900F90DF91CF910895CF93DF9300D0FA
:1037800000D000D0CDB7DEB726960FB6F894DEBFD6
:103790000FBECDBFDF91CF9108951F93CF93DF93DD
:1037A000C091760116E080917701C81799F0D0E0BA
:1037B0001C9FF0011D9FF00D1124E858FE4F408121
:1037C000518162817381848195810E94BD1B219604
:1037D000C770E9CFDF91CF911F9108954091A80163
:1037E0005091A9016091AA017091AB018091AC0147
:1037F0009091AD010C94BD1B8091AD0182958F70AD
:1038000009F054C08091AA01882309F44FC0809127
:103810007601A09177016091A8017091A901409172
:10382000AB015091AC01B6E08A1709F43FC090E0BB
:1038300041155105C1F17F3F11F46F3FA1F1B89FD0
:10384000F001B99FF00D1124E858FE4F2181721349
:103850002AC02081621327C02281211124C0238124
:1038600034812417350710F421503109241B350BFE
:10387000283C3105C0F42091AD012F7020612093C8
:10388000AD0126E0289FF001299FF00D1124E35897
:10389000FE4F80818F708061808388EA91E00E9472
:1038A000421B0C94CD1B01968770BECF0895CF921A
:1038B000DF92EF92FF920F931F93CF93DF93CDB7D9
:1038C000DEB762970FB6F894DEBF0FBECDBF8C0196
:1038D00085E0F801DE011D9601900D928A95E1F7D1
:1038E000D8014C9111965C91119712966C91129798
:1038F0001396CD90DC9014973091A8017091A90196
:103900008091AB019091AC01009709F46BC17F3FAE
:1039100019F43F3F09F466C1E090AA01EE2009F4D2
:10392000C0C02091AD01C816D90628F0F601E81BE9
:10393000F90BCF0104C0809590958C0D9D1DFF243F
:10394000F394883C910578F0F12C207F09F0C6C0F3
:103950007C2DD98AC88A89890E94AE1B88EA91E0A9
:103960000E94421BB1C0822F807F09F046C07513B0
:1039700014C0341312C0611110C02F702061209345
:10398000AD010E94EE1B88EA91E00E94421B8091EB
:10399000AD01D80115968C932EC0CD2819F15F3F4B
:1039A00011F44F3FF9F0F62E61111CC080917601A1
:1039B0002091770136E0821709F45AC090E0389FD1
:1039C000F001399FF00D1124E858FE4F7181571313
:1039D00006C07081471303C07281711103C0019644
:1039E0008770E9CFF62E662309F427C18091AD01D7
:1039F00081608093AD01F12C20C1751308C0341390
:103A000006C0611104C08091AD01D801C3C04D87CB
:103A10005E878D859E856A8B0E94A91B6A89882393
:103A2000E1F16623D1F12091AD01822F82958F7053
:103A300090E0029774F08091A8019091A901988775
:103A40008F831986DB86CA862C87CE0107960E9453
:103A5000421B86E0F801A8EAB1E001900D928A9538
:103A6000E1F70E94FC1B0E94EE1BFF24F394E5C0CB
:103A70004D875E878D859E850E94F920292F22958E
:103A80002F7030E0223031050CF0CBC09F7009F070
:103A9000C5C0805E883008F4D0C0C8010E94421BB7
:103AA000E4CFC816D90608F453C0F601E81BF90B99
:103AB000CF01883C910508F450C0F12C7C2DD98AA7
:103AC000C88A89890E94AE1BE8EAF1E086E0DF013E
:103AD0001D928A95E9F70E94EE1BAFC0751314C0C2
:103AE000341312C0611110C08091AD01F8018583BB
:103AF000C8010E94421B86E0E8EAF1E0DF011D9266
:103B00008A95E9F7FE2C99C04D875E878D859E8545
:103B10006A8B0E94A91B6A89882309F4BECF662399
:103B200009F4BBCF2091AD01822F82958F7090E078
:103B300002970CF48ECF8091A8019091A9019A83ED
:103B400089831B82DD82CC822E83CE0101967FCFBA
:103B5000809590958C0D9D1DACCFF62E662309F4B3
:103B60009CCF75132EC034132CC02091AD0120FDC5
:103B70001FC0822F82958F70D9F0D80115962C9393
:103B800015978F3049F08F5F982F9295907F822FF5
:103B90008F70892B15968C93C8010E94421B86E07A
:103BA000F801A8EAB1E001900D928A95E1F793CF70
:103BB00086E0F801A8EAB1E001900D928A95E1F75C
:103BC0003CC04D875E878D859E850E94A91B811113
:103BD00040CF8091AD0181608093AD01C8010E940A
:103BE000421B2BC0662309F458CF4D875E878D8515
:103BF0009E850E94A91BF82E882309F44ECF86E0EB
:103C0000F801A8EAB1E001900D928A95E1F788EAFF
:103C100091E00E94A0170E94FC1B5DCF811139CF5B
:103C20000CC0243031050CF038CF9F7009F431CF2F
:103C3000F8019581907F09F02CCF8F2D62960FB6F9
:103C4000F894DEBF0FBECDBFDF91CF911F910F91D2
:103C5000FF90EF90DF90CF9008951F93CF93DF9365
:103C6000CDB7DEB72C970FB6F894DEBF0FBECDBF31
:103C70004F83588769877A878B879C87CE01079601
:103C80000E94571C882369F08F8198852A853B857F
:103C9000232BF1F19F3F09F063C08F3F09F060C013
:103CA00037C086E0FE013796DE01119601900D9235
:103CB0008A95E1F76F817885EA85FB85309741F138
:103CC0007F3F11F46F3F21F12091770130E0C9016E
:103CD0000196877099274091760150E084179507E7
:103CE00009F447C069837A83FD83EC8396E0929F51
:103CF000D001939FB00D1124A858BE4FFE013196FC
:103D000001900D929A95E1F7809377010E94CD1B67
:103D100016E080917601909177018917C1F1189F83
:103D2000C001112488589E4F0E94571C882379F1A6
:103D3000E09176011E9FF0011124E858FE4F40816A
:103D4000518162817381848195810E94BD1B809124
:103D5000760190E001968770992780937601D9CFFC
:103D60004F81588569857A858B859C850E94BD1B0E
:103D7000CFCF0E94831B1092770110927601E8EA60
:103D8000F1E086E0DF011D928A95E9F7C1CF2C961C
:103D90000FB6F894DEBF0FBECDBFDF91CF911F915C
:103DA0000895EF92FF920F931F93CF93DF938C01AF
:103DB000892B09F46CC0F12CEE24E394E8012196E0
:103DC000F8018491843740F4843008F051C0813088
:103DD00081F0823019F15BC0853709F444C0A8F145
:103DE0009CE7980F903708F052C08F770E948B188D
:103DF00041C00E5F1F4FFE01C49180E28C0F8830DE
:103E000048F4C7708E2D01C0880FCA95EAF70E944A
:103E10005B2114C08C2F0E94A6172DC00E5F1F4F70
:103E2000FE01C49180E28C0F883058F4C7708E2D4B
:103E300001C0880FCA95EAF70E9461210E9484217F
:103E40001AC08C2F0E948B1816C00E5F1F4FFE01E8
:103E5000C491CC2381F08FE99FE00197F1F700C076
:103E60000000C150F6CF0E5F1F4FFE01F49003C05B
:103E70000E94A6178E018F2D882309F49FCFEFE9AA
:103E8000FFE03197F1F700C000008150F5CFDF91DE
:103E9000CF911F910F91FF90EF90089508950C948A
:103EA0004E1F0E944F1F6093E4017093E5018093C1
:103EB000E6019093E7010C94691B08950C94511F3F
:103EC0000F931F930091E4011091E5012091E60109
:103ED0003091E701602B712B822B932B1F910F9157
:103EE0000C94511F0F931F930091E4011091E50171
:103EF0002091E6013091E70160237123822393230F
:103F00001F910F910C94511F0F931F930091E40187
:103F10001091E5012091E6013091E70160277127BA
:103F2000822793271F910F910C94511F08950C9491
:103F3000961F0E94971F6093E0017093E1018093A8
:103F4000E2019093E3010C94691B60E070E0CB0107
:103F50000C94991F0F931F9341E050E060E070E0D4
:103F60008A019B0104C0000F111F221F331F8A9575
:103F7000D2F7C901B8011F910F910C94991F0F93AB
:103F80001F9341E050E060E070E004C0440F551F13
:103F9000661F771F8A95D2F78091E0019091E10129
:103FA000A091E201B091E3018A019B01082B192B3A
:103FB0002A2B3B2BC901B8011F910F910C94991F1B
:103FC0000F931F9341E050E060E070E004C0440FA5
:103FD000551F661F771F8A95D2F7409550956095BB
:103FE00070958091E0019091E101A091E201B09182
:103FF000E3018A019B01082319232A233B23C901DA
:10400000B8011F910F910C94991F0F931F9341E0DA
:1040100050E060E070E004C0440F551F661F771F3A
:104020008A95D2F78091E0019091E101A091E2019F
:10403000B091E3018A019B01082719272A273B2712
:10404000C901B8011F910F910C94991F0F931F93F1
:104050000091E0011091E1012091E2013091E30132
:10406000602B712B822B932B1F910F910C94991F16
:104070000F931F930091E0011091E1012091E20163
:104080003091E30160237123822393231F910F91C9
:104090000C94991F0F931F930091E0011091E1017F
:1040A0002091E2013091E301602771278227932755
:1040B0001F910F910C94991F089528E0929F800DF5
:1040C0001124A82FA695A695A695877051E001C04A
:1040D000550F8A95EAF785E0A89FD001112420E0CA
:1040E00030E070E0F901EA0FFB1FE255FE4F40811E
:1040F000CB01022E02C0969587950A94E2F7817053
:104100009927819584278523842780832F5F3F4FBC
:104110002530310539F7089528E0929F800D11244C
:10412000682F669566956695982F977085E0689FCD
:10413000B001112440E050E080E0FA01E60FF71FE3
:10414000E255FE4F208130E0092E02C036952795BA
:104150000A94E2F721703327042E01C0220F0A943B
:10416000EAF7822B4F5F5F4F4530510531F70895D5
:10417000BF92CF92DF92EF92FF920F931F93CF9354
:10418000DF938C01C090E401D090E501E090E6015E
:10419000F090E7018091E0019091E101A091E201AE
:1041A000B091E301C82AD92AEA2AFB2ACFE1D0E05C
:1041B000D701C6010C2E04C0B695A7959795879593
:1041C0000A94D2F780FF07C0BC2EB8018C2F0E9442
:1041D000460D019719F4219758F7B12C8B2DDF91DB
:1041E000CF911F910F91FF90EF90DF90CF90BF90F4
:1041F0000895CF93DF93EC010E94B820BE010E9486
:10420000460DDF91CF9108951F93CF93DF93EB017C
:1042100090917501992321F0CB010E94F92013C0E0
:10422000882349F0CB010E94B820182F682FCE01B7
:104230000E945D2004C0CB010E948C20182FBE017B
:10424000812F0E94460DDF91CF911F91089580919B
:10425000E80185958595859508958091E801877099
:1042600008959091E801977081E009F480E0089545
:1042700080910C02089590910C02892B80930C027E
:104280000895809590910C02892380930C020895E3
:1042900010920C02089590910B02892B80930B02CF
:1042A0000895809590910B02892380930B020895C5
:1042B00010920B02089590910A02892B80930A02B2
:1042C0000895809590910A02892380930A020895A7
:1042D00010920A0208958091E901089508950C94BE
:1042E0006E219091E901981721F08093E9010C94D7
:1042F0006F2108958091E901882329F01092E90146
:1043000080E00C946F210895E0910201F091030187
:1043100080910C028083E0910201F0910301908171
:1043200080910B02892B8083E0910201F0910301BF
:10433000908180910A02892B80838091E9018823F2
:1043400081F0E0910201F09103019081892B80833B
:1043500080910201909103010E94B02281110E947C
:104360007A2180910201909103010C94F315089534
:104370000C94B72198E0899F90011124262B20935B
:10438000E8010E94BF1F8091E8018595859585957C
:104390000C94B8211092E80180E00C94B82120918F
:1043A000E801809582238093E801982F977079F433
:1043B00030E0482F082E000C550B2417350739F034
:1043C0008595859585950E94E01F0C94CA210895D6
:1043D000909343018093420108958295982F9C7C8D
:1043E000392F36953695282F237344E0249FC0013A
:1043F0001124932F982B292F2A7A2695892F85759A
:10440000880F822B08956FEF7FEF80E090E00C948F
:10441000C43480E090E00E94A03421E08C3E9E4FA6
:1044200009F020E0822F089582E090E00C9492340D
:1044300083E090E00C949234CF9384E090E00E946B
:104440009234C82F81E290E00E9492342C2F30E009
:10445000A901582BCA01CF910895CF93C92F682F76
:1044600084E090E00E94A6346C2F81E290E0CF912E
:104470000C94A634AB01BC018FE090E00C94B834EE
:10448000AB01BC0183E190E00C94B83460E070E0D3
:10449000CB010C94402260E070E0CB010E943A22F4
:1044A0000C9446226CEE7EEF80E090E00E94C434D3
:1044B00060E082E090E00E94A63460E083E090E05B
:1044C0000E94A6341092E4011092E5011092E601D8
:1044D0001092E70160E084E090E00E94A63460E082
:1044E00081E290E00E94A63460E085E090E00E94C6
:1044F000A63460E086E090E00E94A6346FEF87E08B
:1045000090E00E94A63440E050E0BA0188E090E0DC
:104510000E94B83460E08DE090E00E94A63440E054
:1045200050E0BA0188E190E00E94B83460E087E191
:1045300090E00E94A63440E050E0BA018CE190E0A7
:104540000E94B83460E080E290E00E94A6340C94AF
:104550004B220C945222682F8EE090E00C94A634EB
:10456000FC01329680911401882331F08091690218
:1045700087FF02C09EE101C096E080E0915028F0E4
:1045800021912223D9F38F5FF9CF08959C01FC017B
:1045900032969FEF80E04191461789F09F3F19F4D2
:1045A000411101C0982F8F5F8630A9F79F3F39F0E6
:1045B000F901E90FF11D97FDFA95628308950895B9
:1045C000FC01329608962081261301C01082319694
:1045D000E817F907C1F70895262F26952695269501
:1045E0002E3170F4FC01E20FF11D677021E030E024
:1045F00001C0220F6A95EAF78281282B2283089551
:1046000080910D0280FF0CC01F926F9385E497E0AC
:104610009F938F930E94280A0F900F900F900F90F6
:104620000895262F2695269526952E3178F4FC019F
:10463000E20FF11D677021E030E001C0220F6A95A2
:10464000EAF72095828128232283089580910D0224
:1046500080FF0CC01F926F9387E297E09F938F9328
:104660000E94280A0F900F900F900F9008952091AC
:104670001401222329F02091690227FD0C94EC22D9
:104680000C94C62220911401222329F02091690262
:1046900027FD0C9411230C94E02220911401FC01BD
:1046A0003296222331F08091690287FF02C08EE1A9
:1046B00001C086E0DF011D928A95E9F7089508950B
:1046C0000C945F230E94602380916F02843009F470
:1046D00037C010920E0220E488E190E00FB6F89403
:1046E000A895809360000FBE2093600080E00E9438
:1046F000A10A80910F0281110AC081E080930F020C
:10470000809143028170809310020E94F6120E94F1
:10471000602383B7817F846083BF83B7816083BF59
:104720007894889583B78E7F83BF0FB6F894A89549
:1047300080916000886180936000109260000FBEDD
:10474000089508950895CF930E94A1230E946D10AB
:104750000E94A223C0E08C2F0E94D80F811104C0B8
:10476000CF5FCA30C1F701C081E0CF9108950895AD
:104770000C94B7230E94831B0E94E7150E94A10A94
:1047800010920F028091100281110E94E4140C9487
:10479000B8231F920F920FB60F9211248F939F93FD
:1047A000AF93BF9380910E02811113C08091650277
:1047B00090916602A0916702B09168024196A11D96
:1047C000B11D8093650290936602A0936702B09337
:1047D0006802BF91AF919F918F910F900FBE0F9084
:1047E0001F90189582E084BD93E095BD9AEF97BD28
:1047F00080936E0008952FB7F89480916502909190
:104800006602A0916702B09168022FBF08952FB78A
:10481000F8946091650270916602809167029091B0
:1048200068022FBF0895CF92DF92EF92FF920F930D
:104830001F932FB7F89440916502509166026091E2
:104840006702709168022FBF6A017B01EE24FF248A
:104850008C0120E030E0C016D106E206F30610F429
:10486000415051099A01281B390BC9011F910F9121
:10487000FF90EF90DF90CF90089578941F920F9261
:104880000FB60F9211248F939F93AF93BF93809194
:10489000650290916602A0916702B091680201964C
:1048A000A11DB11D8093650290936602A0936702DB
:1048B000B0936802BF91AF919F918F910F900FBEFF
:1048C0000F901F90189581E08093E00080E2809324
:1048D000D8001092C9008FE19EE40197F1F700C063
:1048E000000087E090EBDC018093780290937902DE
:1048F000A0937A02B0937B029CE088E10FB6F89413
:10490000A895809360000FBE90936000FFCF0E9437
:104910000922811102C00E94A9220E9414228093C0
:104920000D020E941C2290936A02809369020E94E9
:104930001822682F70E080E090E00C945E1F809158
:10494000140280FF0BC06091070185E0689FB001F1
:10495000112475956795759567952BC081FF09C0E2
:104960006091070185E0689FB001112475956795F6
:1049700020C082FF07C06091070185E0689FB001F9
:10498000112417C0909113029923D1F06091060170
:10499000961788F72091070185E0289F9001112440
:1049A000929FA001939F500D112470E0CA010E94B4
:1049B00078346038710540F46115710539F002C032
:1049C00065E070E0862F08958FE7089581E00895EF
:1049D0008091140280FF08C06091050170E0759518
:1049E00067957595679521C081FF06C060910501A7
:1049F00070E07595679519C082FF04C0609105014C
:104A000070E010C0909113029923C1F060910401ED
:104A10009617A0F780910501899FC001112470E0CD
:104A20000E9478346038710528F46115710521F011
:104A3000862F08958FE7089581E0089561E070E082
:104A4000F4CF803F21F40E949F24819504C0813FD0
:104A500029F40E949F24809318020895823F21F434
:104A60000E949F24819504C0833F29F40E949F24C3
:104A7000809317020895893F19F40E94E82405C025
:104A80008A3F31F40E94E8248195809319020895A9
:104A90008B3F21F40E94E824819504C08C3F29F4C7
:104AA0000E94E82480931A020895843F21F48091A3
:104AB0001602816017C0853F21F480911602826042
:104AC00011C0863F21F48091160284600BC0873F9D
:104AD00021F480911602886005C0883F31F48091EE
:104AE000160280618093160208958D3F21F4809113
:104AF000140281600BC08E3F21F480911402826009
:104B000005C08F3F29F480911402846080931402C1
:104B10000895803F39F48091180287FF6CC010928D
:104B2000180269C0813F29F4809118021816BCF35D
:104B300062C090911702823F29F497FF5CC01092E7
:104B4000170259C0833F19F41916CCF354C0893F9A
:104B500041F48091190218160CF04DC01092190200
:104B60004AC08A3F29F48091190287FF44C0F6CFDA
:104B70008B3F39F480911A0287FF3DC010921A02D0
:104B80003AC08C3F29F480911A021816BCF333C046
:104B9000843F21F4809116028E7F17C0853F21F457
:104BA000809116028D7F11C0863F21F480911602FC
:104BB0008B7F0BC0873F21F480911602877F05C051
:104BC000883F31F4809116028F7E8093160213C0C5
:104BD0008D3F21F4809114028E7F0BC08E3F21F413
:104BE000809114028D7F05C08F3F29F480911402BB
:104BF0008B7F809314028091170281110EC08091E7
:104C0000180281110AC080911902811106C0809199
:104C10001A02811102C010921302089580910D02B0
:104C200083FF7EC08AE897E00E948F098091160278
:104C30001F928F9385E897E09F938F930E94280A95
:104C400083E897E00E948F0980911702282F082E91
:104C5000000C330B3F938F9380E897E09F938F93E3
:104C60000E94280A8EE797E00E948F09809118021F
:104C7000282F082E000C330B3F938F938BE797E080
:104C80009F938F930E94280A89E797E00E948F09DB
:104C900080911902282F082E000C330B3F938F931D
:104CA00086E797E09F938F930E94280A84E797E016
:104CB0000E948F0980911A02282F082E000C330BB6
:104CC0003F938F9381E797E09F938F930E94280AE9
:104CD0008EE697E00E948F09809113021F928F93B6
:104CE0008BE697E09F938F930E94280A89E697E0CE
:104CF0000E948F09809114021F928F9386E697E09D
:104D00009F938F930E94280A83E697E00E948F0961
:104D10008DB79EB74C960FB6F8949EBF0FBE8DBF51
:104D200085E192E00E9448160E94FB2390931202B4
:104D30008093110208951F93CF93DF938091110206
:104D4000909112020E941324AC01909113029923B6
:104D500021F02091080130E006C0209109018AE08D
:104D6000289F900111244217530708F47BC08091BB
:104D70001702C0911802D091190210911A028111E4
:104D800007C0C1116BC0D11169C0111167C06AC0E1
:104D90009F3F19F09F5F90931302181624F40E940E
:104DA0009F24809317028091170287FF05C00E94FD
:104DB0009F248195809317021C1624F40E949F243F
:104DC000809318028091180287FF05C00E949F24DB
:104DD000819580931802309117023323E1F02091DE
:104DE00018022223C1F045EB3403C0011124892F9E
:104DF000990F990B009709F481E08093170235EB26
:104E00002303C0011124892F990F990B009709F4EE
:104E100081E0809318021D1624F40E94E8248093F8
:104E200019028091190287FF05C00E94E82481952C
:104E300080931902111624F40E94E82480931A0228
:104E400080911A0287FF05C00E94E8248195809313
:104E50001A02DF91CF911F910C940E269F3F09F00B
:104E600099CFA1CFDF91CF911F910895E5E1F2E0B5
:104E700086E0DF011D928A95E9F7109213021092E5
:104E8000140208958DEA99E00E948F091F9281E033
:104E90008F931F9285E08F938FE599E09F938F9377
:104EA0000E94280A0F900F900F900F900F900F9074
:104EB00008958330E9F128F4813061F0823009F1FE
:104EC0000895853009F462C008F449C0863009F4B9
:104ED00074C0089580910901262F30E0280F311DFC
:104EE0002F3F310524F4680F6093090103C08FEF51
:104EF00080930901809109011F928F9388E998E0BE
:104F000072C080910801262F30E0280F311D2F3FFD
:104F1000310524F4680F6093080103C08FEF80937C
:104F20000801809108011F928F9386E898E05BC08A
:104F300080910701262F30E0280F311D2F3F3105CA
:104F400024F4680F6093070103C08FEF809307017B
:104F5000809107011F928F9383E798E044C080916E
:104F60000601262F30E0280F311D2F3F310524F494
:104F7000680F6093060103C08FEF80930601809154
:104F800006011F928F938EE598E02DC08091050158
:104F9000262F30E0280F311D2F3F310524F4680FF4
:104FA0006093050103C08FEF809305018091050197
:104FB0001F928F9385E498E016C080910401262FFC
:104FC00030E0280F311D2F3F310524F4680F609326
:104FD000040103C08FEF80930401809104011F92AC
:104FE0008F938AE298E09F938F930E94280A0F90F4
:104FF0000F900F900F900895833081F128F4813045
:1050000059F08230D1F00895853009F449C0B8F1E3
:10501000863009F456C0089580910901681720F47C
:10502000861B8093090102C0109209018091090139
:105030001F928F938BE198E054C08091080168170C
:1050400020F4861B8093080102C010920801809111
:1050500008011F928F9389E098E043C08091070177
:10506000681720F4861B8093070102C01092070185
:10507000809107011F928F9386EF97E032C0809155
:105080000601681720F4861B8093060102C0109267
:105090000601809106011F928F9381EE97E021C057
:1050A00080910501681720F4861B8093050102C0DA
:1050B00010920501809105011F928F9388EC97E073
:1050C00010C080910401681720F4861B80930401AE
:1050D00002C010920401809104011F928F938DEA07
:1050E00097E09F938F930E94280A0F900F900F9044
:1050F0000F900895CF93C82F1F928F9382EB9AE061
:105100009F938F930E94280A81E090E0A0E0B0E096
:10511000BC01CD0104C0660F771F881F991FCA9577
:10512000D2F70E945E1F0F900F900F900F90CF91BB
:105130000C94831BCF93DF93482F50E0FA013597EF
:10514000EF33F10508F063C2EC58FF4F0C948C3438
:1051500080E790E10E948F098CEA9FE00E948F090E
:105160000E9418221F928F9389EA9FE09F938F934A
:105170000E94280A87EA9FE00E948F090E94142259
:10518000C82F84E99FE00E948F091F92CF938FE878
:105190009FE09F938F930E94280A8DE89FE00E94D2
:1051A0008F0983E89FE00E948F098C2F81701F92E6
:1051B0008F9380E89FE09F938F930E94280A8EE749
:1051C0009FE00E948F0984E79FE00E948F09C1FB46
:1051D000882780F91F928F9381E79FE09F938F9399
:1051E0000E94280A8FE69FE00E948F0983E69FE0D5
:1051F0000E948F09C2FB882780F91F928F9380E657
:105200009FE09F938F930E94280A8EE59FE00E9463
:105210008F0985E59FE00E948F09C3FBCC27C0F969
:105220001F92CF9382E59FE09F938F930E94280A5D
:1052300080E59FE00E948F090E941C22EC018CE314
:105240009FE00E948F09DF93CF9387E39FE09F93B6
:105250008F930E94280A85E39FE00E948F098CE1CA
:105260009FE00E948F098C2F81701F928F9389E19C
:105270009FE09F938F930E94280A8DB79EB78096D8
:105280000FB6F8949EBF0FBE8DBF87E19FE00E94CE
:105290008F0980E09FE00E948F09C1FB882780F979
:1052A0001F928F938DEF9EE09F938F930E94280A09
:1052B0008BEF9EE00E948F0989EE9EE00E948F098D
:1052C0008D2F81701F928F9386EE9EE09F938F9318
:1052D0000E94280A84EE9EE00E948F0982ED9EE0E3
:1052E0000E948F09D695D1701F92DF938FEC9EE0BC
:1052F0009F938F930E94280A8DEC9EE00E948F0955
:105300008BEB9EE00E948F09C2FB882780F91F92D9
:105310008F9388EB9EE09F938F930E94280A86EBE1
:105320009EE00E948F0984EA9EE00E948F09C3FBE1
:10533000882780F91F928F9381EA9EE09F938F9335
:105340000E94280A8FE99EE00E948F0985E99EE06D
:105350000E948F09C4FB882780F91F928F9382E9EE
:105360009EE09F938F930E94280A80E99EE00E940E
:105370008F098EE79EE00E948F09C5FB882780F980
:105380001F928F938BE79EE09F938F930E94280A32
:1053900089E79EE00E948F098DE59EE00E948F09BB
:1053A000C6FB882780F91F928F938AE59EE09F9322
:1053B0008F930E94280A8DB79EB780960FB6F894F7
:1053C0009EBF0FBE8DBF88E59EE00E948F0980E5DD
:1053D0009EE00E948F09C7FBCC27C0F91F92CF9394
:1053E0008DE49EE09F938F930E94280A8BE49EE0B9
:1053F0000E948F090F900F900F900F9006C08FE5BD
:1054000090E10E948F090E94A922C1E005C189E9AB
:105410009CE07FC080910D02817F8E7F80930D0282
:1054200082E79CE00E948F098BE590E10E948F0942
:1054300081E080931C02E9CF0E94831B8FE390E1FF
:105440000E948F099FEF23ED80E391502040804020
:10545000E1F700C000000E946324D7CF80910D02C5
:10546000C82FC095C170C0FB80F980930D02CC237A
:1054700019F083E390E1BDC086E290E10E948F09BC
:1054800080910D02897F877F80930D02BECF90911E
:105490000D0291FBCC27C0F981E0C827892FC0FB02
:1054A00081F980930D02CC2319F089E190E127C0A6
:1054B0008BE090E12EC090910D0292FBCC27C0F9B9
:1054C00081E0C827892FC0FB82F980930D02CC238D
:1054D00019F08CEF9FE013C08CEE9FE01AC0909102
:1054E0000D0293FBCC27C0F981E0C827892FC0FBB0
:1054F00083F980930D02CC2351F080EE9FE00E944F
:105500008F0980910D02816080930D0285C083ED2B
:105510009FE00E948F0979CF83E69CE00E948F096B
:1055200089E19CE00E948F0989ED9BE00E948F0930
:1055300081EA9BE00E948F0986E69BE00E948F092A
:1055400088E39BE0E6CF8AE29BE00E948F090E94FD
:10555000E7151F928F9380E19BE09F938F930E94AA
:10556000280A809114011F928F9389EF9AE09F93EC
:105570008F930E94280A809141021F928F9386EE9A
:105580009AE09F938F930E94280A8091690287FB7B
:10559000882780F91F928F938EEC9AE09F938F93C8
:1055A0000E94280A0E9407249F938F937F936F93F2
:1055B00087EB9AE09F938F930E94280A8DB79EB73E
:1055C00046960FB6F8949EBF0FBE8DBF1ECF0E94A9
:1055D000831B9091690297FBCC27C0F981E0C82713
:1055E000892FC0FB87F980936902CC2329F089ECCD
:1055F0009FE00E948F0910C08EEB9FE08ACF8953F5
:1056000003C08D5101C080E00E947A28FECE8CEB51
:105610009FE00E948F09C0E08C2FDF91CF91089509
:1056200080E0089580E008958E518A3030F4E82FAC
:10563000F0E0E75DFE4F8081089580E00895CF930C
:10564000C82F80911C02813059F020F0823009F47B
:1056500045C039C10E943821823209F036C104C0E8
:105660000E943821823261F48C2F0E94102B81110C
:1056700004C08C2F0E949A282FC081E090E02CC09B
:105680008C2F0E94122B811126C0C431E1F070F4DE
:10569000CB3081F0C031D1F40E9442278AEA9AE0EF
:1056A0000E948F0982E080931C0215C0C93259F014
:1056B000C83361F482E79CE00E948F098EEA9AE089
:1056C0000E948F0908C010921C0201C188EA9AE06A
:1056D0000E948F09FCC081E08170FBC0C43228F5B4
:1056E000CE3108F0C1C0CB30A1F1D0F4C73009F001
:1056F000D0C08EE18093090182E3809308018AE0A3
:105700008093070184E18093060188E0809305017E
:1057100088E2809304018EE499E00E948F09BCC066
:10572000C33149F1C431C1F0B4C0CB3409F4A6C0CF
:1057300028F4C93289F0C83361F0ABC0C13509F42F
:105740009BC0C23509F496C0CE3409F0A2C06AE00D
:105750009BC00E944227A0C080911B02882319F0A1
:1057600010921B0299C08BE599E00E948F0981E09D
:1057700080931C02AEC085E399E00E948F0983E20A
:1057800099E00E948F09809109011F928F9380E216
:1057900099E09F938F930E94280A8EE199E00E94DE
:1057A0008F098CE099E00E948F09809108011F9277
:1057B0008F9389E099E09F938F930E94280A87E056
:1057C00099E00E948F0988EF98E00E948F098091EC
:1057D00007011F928F9385EF98E09F938F930E940C
:1057E000280A83EF98E00E948F0982EE98E00E94D9
:1057F0008F09809106011F928F938FED98E09F9300
:105800008F930E94280A8DED98E00E948F0988EC02
:1058100098E00E948F09809105011F928F9385EC7B
:1058200098E09F938F930E94280A83EC98E00E944F
:105830008F098CEA98E00E948F09809104011F92E1
:105840008F9389EA98E09F938F930E94280A87EAB2
:1058500098E00E948F098DB79EB748960FB6F894CE
:105860009EBF0FBE8DBF18C08C2F0E94142B80933B
:105870001B0212C061E003C061E006C06AE08091D3
:105880001B020E94592708C080911B020E94FC271E
:1058900003C08CE499E013C080911B02882369F057
:1058A0001F928F9386E499E09F938F930E94280A1A
:1058B0000F900F900F900F9004C083E499E00E9426
:1058C0008F0981E006C010921C0280E002C080E0D7
:1058D00003CFCF9108958091400208959FB7F89427
:1058E00010921F029FBF90916F02943009F057C031
:1058F0009091E9009F703091EC00232F217030FDD2
:1059000020E8922B23E02093E9002091EB0020FF78
:1059100043C02091EE0027FF3FC020911D022223AB
:1059200021F02091E80025FF37C010921D0226E0EB
:105930003091E80035FD15C030916F02343061F5CB
:105940003091EB0035FD28C0215021F481E0809397
:105950001D0222C0EFE9FFE03197F1F700C000001F
:10596000E7CF8093F1008091E80085FD0AC0809127
:10597000E80080FFFCCF8091E8008E778093E800FC
:1059800006C08FB7F89421E020931F028FBF9F704D
:105990009093E90080E008959F709093E9008FEF65
:1059A00008950F931F93CF93DF9300D01F92CDB72D
:1059B000DEB78C010E94A02F823011F0843021F5D7
:1059C00084E089831B830A8382E08093E9008FEF60
:1059D0009091E800815095FD06C095ED9A95F1F7FC
:1059E00000008111F5CF8091E80085FF0DC040E0F7
:1059F00050E063E070E0CE0101960E94BD2F8091DF
:105A0000E8008E778093E8000F900F900F90DF9161
:105A1000CF911F910F910895CF93DF9300D01F92E4
:105A2000CDB7DEB720916F02243031F523E0298312
:105A3000805891099B838A8382E08093E9008FEFED
:105A40009091E800815095FD06C095ED9A95F1F78B
:105A500000008111F5CF8091E80085FF0DC040E086
:105A600050E063E070E0CE0101960E94BD2F80916E
:105A7000E8008E778093E8000F900F900F90DF91F1
:105A8000CF910895CF93DF93EC010E94A02F823035
:105A900011F08430F9F482E08093E9009FEF809167
:105AA000E800915085FD06C085ED8A95F1F700006C
:105AB0009111F5CF8091E80085FF0CC040E050E0E7
:105AC00066E070E0CE010E94BD2F8091E8008E77E5
:105AD0008093E800DF91CF910895CF93DF93EC019D
