:100000000C94B0010C94CD010C94CD010C94CD0155
:100010000C94CD010C94CD010C94CD010C94CD0128
:100020000C94CD010C94CD010C94DA170C94961716
:100030000C94D7180C94CD010C94CD010C94CD01E7
:100040000C94CD010C94CD010C94CD010C94CD01F8
:100050000C94CD010C94B3180C94CD010C94CD01EB
:100060000C94CD010C94CD010C94CD010C94CD01D8
:100070000C94CD010C94CD010C94CD010C94CD01C8
:100080000C94CD010C94CD010C94CD010C94CD01B8
:100090000C94CD010C94CD010C94CD010C94CD01A8
:1000A0000C94CD010C94CD010C94CD0105010902F5
:1000B000A10185020901A1000509190129081500FE
:1000C0002501950875018102050109300931158165
:1000D000257F95027508810609381581257F9501D0
:1000E00075088106050C0A38021581257F95017572
:1000F000088106C0C005010980A101850319012AF4
:10010000B700150126B700950175108100C0050CD8
:100110000901A101850419012AA002150126A002E6
:10012000950175108100C005010906A1018506052C
:100130000719E029E71500250195087501810205D9
:1001400007190029EF1500250195F07501810205B9
:10015000081901290595057501910295017503910D
:1001600001C00660FF0961A1010962150026FF00B8
:100170009520750881020963150026FF00952075FA
:10018000089102C005010906A101050719E029E748
:1001900015002501950875018102950175088101F9
:1001A0000507190029FF150026FF0095067508812F
:1001B000000508190129051500250195057501910E
:1001C00002950175039101C00000000000000000CD
:1001D000000000000000000000000000000000001F
:1001E0000000000000000000000000007E0F00D4AE
:1001F000FFFFFFC7000000780000000000000000C3
:100200002A2B280000000000000000000000000071
:1002100000000029000000002C1E3420212224347C
:100220002627252E362D3738271E1F20212223244E
:1002300025263333362E37381F0405060708090AEA
:100240000B0C0D0E0F101112131415161718191A86
:100250001B1C1D2F3130232D350405060708090A04
:100260000B0C0D0E0F101112131415161718191A66
:100270001B1C1D2F3130354C3A003B003C003D002B
:1002800053005400550056005F00600061005700A5
:100290005C005D005E00000059005A005B00000039
:1002A000000062006300580009025B00030100A027
:1002B000FA090400000103010100092111010001F4
:1002C000224400070581030800010904010002031C
:1002D000000000092111010001222200070582030C
:1002E00020000107050303200001090402000103A7
:1002F00000000009211101000122B6000705840356
:100300002000011201000200000008445658540069
:1003100001010200011E0354005800200052006F2A
:100320000075006E006400750070002000500061D0
:1003300000640000002403560069006B007400751F
:100340000073002000440065007300690067006EC0
:100350000020004C004C004300000004030904008E
:1003600011241FBECFEFDAE0DEBFCDBF11E0A0E069
:10037000B1E0E2EBFCE302C005900D92AE35B107AF
:10038000D9F722E0AEE5B1E001C01D92AF34B2076B
:10039000E1F70E94FE180C94051E0C940000482FF3
:1003A00020914B029091120257E0291302C080E085
:1003B000089530E0529FF001539FF00D1124ED5E3F
:1003C000FD4F8181681306C08081481303C0858179
:1003D0008111EECF2F5F3F4F2770E7CFE8EDF0E0C0
:1003E00080818E7F80831092E2001092DA0010925A
:1003F000E100A0EEB0E08C9181608C9380818F77DA
:10040000808319BCA7EDB0E08C918E7F8C938081A6
:100410008F7E80831092FB0108952091E40030913B
:10042000E50095E6A9012091EC00822F817020FF64
:1004300006C08091E80080FF06C080E0089520910A
:10044000E80022FD1AC080910802882389F08530D7
:1004500089F08091EB0085FD0FC02091E400309180
:10046000E50042175307F9F29150E1F684E0089550
:1004700082E0089583E0089581E0089580910A0262
:1004800087FF13C08091E80082FF06C08091E800DA
:100490008B778093E80004C0809108028111F2CF2D
:1004A0000895809108028823D9F38091E80080FFA5
:1004B000F8CF8091E8008E77ECCF982F9093E900E9
:1004C000242F762F50E0891731F07091EC002091A5
:1004D000ED005091F00021FD07C09F5F973071F74C
:1004E0008093E90081E008953091EB003E7F3093E6
:1004F000EB003091ED003D7F3093ED003091EB004B
:1005000031603093EB007093EC002093ED0050933A
:10051000F0002091EE0027FDE0CF80E00895B0E0EC
:10052000A0E0E5E9F2E00C94651DC8EDD0E088811B
:100530008F7E8883E7EDF0E080818160808384E0B6
:1005400082BF81E08093FB0188818E7F888302EEE9
:1005500010E0F80110821092DA0081EEC82ED12C42
:10056000F601108288818F778883888180688883EC
:1005700088818F7D888319BC10920802109209022D
:10058000109207021092060290EEE92EF12CF7016C
:1005900080818B7F808388818160888342E060E0F6
:1005A00080E00E945D02F60180818E7F8083F801E9
:1005B000808181608083808188608083F701808171
:1005C0008E7F8083888180618883CDB7DEB7E8E045
:1005D0000C94811DFC0180911002909111028617EC
:1005E0009707A0F06115710529F49091E8009E77B6
:1005F0009093E80090E06115710551F4911108C0E5
:100600008091E80082FF34C080E00895BC01F2CF01
:10061000809108028823C1F18530C1F18091E80002
:1006200083FD30C08091E80082FDEACF8091E80030
:1006300080FFE1CF8091F3002091F200382F611507
:10064000710519F02830310558F091E02830310556
:1006500009F090E02091E8002E772093E800CBCFBE
:1006600081918093F100615071092F5F3F4FE7CF77
:1006700080910802882341F0853041F08091E800A4
:1006800083FFBECF81E0089582E0089583E008955E
:100690008091FD01089587E797E790930108809383
:1006A000000888E19AE00FB6F894A895809360005E
:1006B0000FBE90936000FFCF9C014FB7F8948091DC
:1006C000F7019091F801A091F901B091FA014FBFA3
:1006D000821B930B08952FB7F8948091F7019091A6
:1006E000F801A091F901B091FA012FBF08959091FE
:1006F0000A019923D1F09091F40197FF16C0E82FD9
:10070000E695E695E695EE31E0F4F0E0E859FE4F27
:10071000282F277081E090E001C0880F2A95EAF722
:1007200080959281892382830895E2E6F1E0919198
:10073000891303C0DF0111971C9291E0E836F90795
:10074000B1F7089590910A019923C1F09091F401B5
:1007500097FF14C0E82FE695E695E695EE31F8F49C
:10076000F0E0E859FE4F877021E030E001C0220F31
:100770008A95EAF78281822B82830895A2E6B1E00E
:10078000EFEF90E02D91821751F0EF3F19F4211116
:1007900001C0E92F9F5F9630A9F7EF3F09F4089554
:1007A0000E2E000CFF0BE05AFE4FE6CFA3E0B0E0A8
:1007B000ECEDF3E00C946B1D2091F2013091F3010C
:1007C00028173907A1F09093F3018093F201E0918B
:1007D000F001F091F101309751F024E029839B83DF
:1007E0008A830084F185E02DCE0101960995239638
:1007F000E2E00C94871DA3E0B0E0E1E0F4E00C94AB
:100800006B1D2091EE013091EF0128173907A1F0FF
:100810009093EF018093EE01E091F001F091F101EE
:10082000309751F023E029839B838A830084F185EC
:10083000E02DCE01019609952396E2E00C94871DE8
:10084000E091F001F091F101309729F00190F081F1
:10085000E02D0995089580E008950E946B039C01A6
:100860009091EA018091EB01982B21F03093E70100
:100870002093E6019091EC018091ED01982B21F0FD
:100880003093E5012093E401E091F001F091F10152
:10089000309749F082E08093E8010680F781E02DEF
:1008A00088EE91E0099508958091E30180FD16C0DE
:1008B00081FD16C082FD16C08091E2018823A1F05F
:1008C000883280F428E0829FC001112468E270E041
:1008D0000E943A1D862F672B39F0089582E0089513
:1008E00084E0089588E0089581E008958091E3010F
:1008F00080FD14C081FD14C082FD16C08091E1010D
:10090000882381F08E3180F420E5829FC00111247C
:100910006EE170E00E943A1D862F089584E10895EB
:1009200088E2089588E0089580E50895282F35EB42
:100930002303C001112497FF04C080589109892F17
:10094000089580589F4FFBCF80E00895F894E82FDA
:10095000E295EF70F0E031A1282F2F7081E090E058
:1009600001C0880F2A95EAF7982F9095932391A3B9
:1009700092A1892B82A3789408959091F40192FF1B
:1009800010C041E0282F2471243009F040E031E00C
:10099000282F2871283009F030E0431711F02CE09F
:1009A000822793FF10C041E0282F2471243109F0E1
:1009B00040E031E0282F2871283109F030E043175A
:1009C00011F02CE082273091F50130FF10C051E08A
:1009D000282F2171213009F050E041E0282F2871A3
:1009E000283009F040E0541711F029E0822731FF48
:1009F00010C041E0282F2171213109F040E031E0A1
:100A0000282F2871283109F030E0431711F029E030
:100A1000822794FD877E089582389105B9F1B0F45C
:100A20008133910509F47DC048F48932910509F4B8
:100A30006DC08A32910509F47BC008958533910514
:100A400009F45FC08933910509F10895833E91054A
:100A5000D9F138F4803E910529F1823E910579F172
:100A60000895863E9105D9F1873E910509F43EC06F
:100A7000843E910541F52091F50121FF24C080912C
:100A8000F40184FD19C087EE90E008952091F401EF
:100A9000237009F05AC02091F50123FF14C089E2A8
:100AA00090E008952091F40120FD38C03091F501C7
:100AB00030FF09C024FF43C090E080E008952091FA
:100AC000F40122FDF7CF08952091F40122FD3AC0F0
:100AD0003091F50130FD39C024FFF5CFEDCF2091E5
:100AE000F40123FFF0CF24FDE7CFCDCF2091F40117
:100AF00023FD2EC03091F50131FFEECF84EE90E062
:100B000008952091F40125FFDECFC9CF2091F40193
:100B100025FD21C02091F50123FFD5CF89E390E089
:100B2000D2CF2091F40126FFCECF8AE290E0089543
:100B30002091F40126FFC7CF81E390E0089583EE72
:100B400090E0089582EE90E0089580EE90E00895A0
:100B500086EE90E0089585E390E008951F93CF938B
:100B6000DF930E940C05EC01C11580E5D807F0F574
:100B7000C11580E4D80708F09CC0C03ED10520F51F
:100B8000CD3CD10508F082C0C83AD10578F4C53A09
:100B9000D10508F073C0C130D10519F1209709F1D2
:100BA000C430D105F0F4D0E0C0E01BC0C33CD10597
:100BB000D0F7C85AD0E0CC0FDD1FC25FDE4F0990DE
:100BC000D881C02DD4640DC0C11580E2D80708F0CB
:100BD000D1C0C11581E0D80708F05AC0C83ED10580
:100BE00010F7CE01DF91CF911F910895C03682E5B5
:100BF000D80718F5C03482E5D80708F06BC0C032BA
:100C000082E5D80708F05FC0C11582E5D80708F46F
:100C100097C02C2F2695269580E2289F90011124BD
:100C20008C2F8370C1E0D0E002C0CC0FDD1F8A950D
:100C3000E2F7C22BD32BDD68D4CFC03A82E5D807C8
:100C400060F4C03882E5D80708F459C0CF71D0E00D
:100C5000DC2FCC27C46FD06AC4CFC03C82E5D80754
:100C600008F462C0C03E82E5D80708F09CCFDC2FB4
:100C7000CC27CC27DF71C06FD06AB3CFC55AD0E084
:100C8000C55FDE4FC881D0E0D064ABCFD065A9CFBF
:100C90008D2F0E94BD04182FCE0199270E940C05AC
:100CA000C12FD0E0DC2FCC27CC27DF71C82BD92B6C
:100CB00098CFCE0199270E940C05CC27DF70C82B56
:100CC000D92BD06A8ECFCF71D0E0DC2FCC27C16F6B
:100CD000D06A87CF2C2F26952695277080E2289FF3
:100CE000900111248C2F8370C1E0D0E002C0CC0FA2
:100CF000DD1F8A95E2F7C22BD32BDC6872CF2C2F35
:100D000026952695277080E2289F900111248C2F2C
:100D10008370C1E0D0E002C0CC0FDD1F8A95E2F7FE
:100D2000C22BD32BDA685DCF8C2F8F710E94BD044C
:100D3000C82FD0E0DC2FCC27CC27DF71D06251CF79
:100D40008C2F8F710E94BD0455E0D695C7955A959A
:100D5000E1F7CF70D0E0DC2FCC27282F30E084FFE4
:100D600005C044E0220F331F4A95E1F7C22BD32B75
:100D7000D06937CF8D2F8F710E94BD04182FCE01FF
:100D800099270E940C05C12FD0E0DC2FCC27CC275F
:100D9000DF71C82BD92BD2CF80959091C5019823B4
:100DA0009093C50108958091C50190919C01892B74
:100DB00090919B01992391F0892B90910A0199239D
:100DC00071F09091F40197FF0AC09EE12AE631E0AC
:100DD00040E0915040F4411110929B01089596E03B
:100DE00022E631E0F5CFF90151919F01552389F3B6
:100DF0004F5FEFCF80914B0290911202981301C088
:100E000008958F5F8770FACF963080F5843070F543
:100E100044E0949F90011124820F932F911D682F1D
:100E2000677023E0969587952A95E1F7FC01EE0F10
:100E3000FF1FE80FF91FE657FE4F50E040E080E04B
:100E4000219130E0062E02C0369527950A94E2F7EC
:100E500021703327042E01C0220F0A94EAF7822B57
:100E60004F5F5F4F4330510559F7089580E0089573
:100E7000963098F5843088F544E0949F90011124D1
:100E8000820F932F911D282F277041E001C0440F3E
:100E90002A95EAF723E0969587952A95E1F7FC01D4
:100EA000EE0FFF1FE80FF91FE657FE4F90E080E0BE
:100EB00070E05191DF0111979B01082E02C0369519
:100EC00027950A94E2F721702195252724232527C9
:100ED0002C9301968330910561F708958093D20198
:100EE00008959091D20121E030E0F90101C0EE0FA8
:100EF0008A95EAF7D90102C0AA0FBB1F6A95E2F7EB
:100F0000EA2B01C0220F4A95EAF7892F8E23E813B6
:100F100005C0292B822F0E946E0708952095292352
:100F2000F9CF21E030E001C0220F8A95EAF7209541
:100F30008091D20182230E946E07089590919A01B8
:100F40008095892380939A01282F277069F4891747
:100F500059F09091F50192FF07C086958695869588
:100F60000E94910710929A01089521E030E001C09B
:100F7000220F8A95EAF78091D201822B0E946E0798
:100F800008958093D10108954091EA019091EC0178
:100F90002091ED01662309F469C0942B922B2091D6
:100FA000EB01922B31F098E09093E10191E0909366
:100FB000E2018D3C41F40E94760481958093EB011F
:100FC0000E942D0408958E3C19F40E947604F6CFF9
:100FD0008F3C31F40E94760481958093EA01F0CF32
:100FE000803D19F40E947604F8CF893D29F40E94CF
:100FF00054048093EC01E4CF8A3D21F40E94540410
:101000008195F7CF8B3D31F40E94540481958093F4
:10101000ED01D6CF8C3D19F40E945404F8CF9FE225
:10102000980F983070F4815D990B21E030E001C099
:10103000220F8A95EAF78091E901822B8093E901DA
:10104000BFCF8D3D31F48091E30181608093E30156
:10105000B7CF8E3D21F48091E3018260F7CF8F3DC1
:1010600009F0AECF8091E3018460F0CF8D3C59F45C
:101070008091EB0187FF0DC01092EB0141110BC075
:101080001092E10108C08E3C81F48091EB011816AA
:101090009CF3442381F08091EC019091ED01892B28
:1010A00009F08ECF1092E2018BCF8F3C49F447FFBD
:1010B000F0CF1092EA018091EB018111ECCFE0CFEB
:1010C000803D19F41416ACF3E4CF893D29F41916C8
:1010D00004F71092EC01DDCF8A3D19F497FFD9CFC8
:1010E000F8CF8B3D29F427FFD4CF1092ED01D1CF5B
:1010F0008C3D19F41216CCF3CCCF9FE2980F9830A8
:1011000090F4815D990B21E030E0B90102C0660FD7
:10111000771F8A95E2F7CB0180959091E9018923A9
:101120008093E901B6CF8D3D31F48091E3018E7F4C
:101130008093E301AECF8E3D21F48091E3018D7F5A
:10114000F7CF8F3D09F0A5CF8091E3018B7FF0CFE2
:101150000F931F93CF93DF938B01EA0190910802C5
:10116000943061F58093E9008FEF9091E800815011
:1011700095FD06C095ED9A95F1F700008111F5CF28
:101180008091E80085FF1AC00E940D02811111C0F4
:101190008091E80085FD06C08091E8008E778093FD
:1011A000E800F2CFF80181918F018093F10021973F
:1011B00079F78091E8008E778093E800DF91CF91F6
:1011C0001F910F91089543E050E0BC0184E00E941C
:1011D000A808089546E050E0BC0184E00E94A808F9
:1011E000089540E250E0BC0184E00E94A808089500
:1011F000CF93DF93EC0148E050E0BC0181E00E9416
:10120000A80888E0FE01AEEFB1E001900D928A954A
:10121000E1F7DF91CF910895CF93C82F6FEF811140
:1012200064E285E290E00E94C41D6FEFC11164E0AA
:1012300086E290E00E94C41D6FEFC11162E287E276
:1012400090E00E94C41DCF910895CF93DF93C9EE23
:10125000D0E060E0CE010E94C41D2196C11584E05B
:10126000D807B9F7DF91CF9108951F93CF93DF93FC
:10127000122F8430E0F46630D0F44430C0F498E0AB
:10128000699FE001112450E0440F551FC40FD51F82
:1012900090E3899FC00DD11D1124632FCE01899643
:1012A0000E94C41D612FCE018A960E94C41DDF9149
:1012B000CF911F910895B0E0A0E0E1E6F9E00C9431
:1012C000651DD12CD0E0C0E01AC0402F21E030E0F5
:1012D000D11008C0F801EE0FFF1FEE0DFF1D859124
:1012E00094919C016C2D8D2D0E9435090F5F1F4F2D
:1012F0000430110551F72196C630D10571F0CE01A9
:1013000023E0880F991F2A95E1F79C0128583D4F4B
:10131000790110E000E0CC2ED8CFD39434E0D31282
:10132000D1CFCDB7DEB7E8E00C94811D80E00E94FC
:101330000C0960E088E290E00E94C41D0E945B09F5
:101340000E94250981E00E940C09089585E290E041
:101350000E94A61D843289F486E290E00E94A61DB8
:10136000843059F487E290E00E94A61D91E0823219
:1013700009F090E0892F8170089580E0FCCF0F93F1
:101380001F93CF93DF93843030F5663020F54430DF
:1013900010F528E0629F8001112450E0440F551F92
:1013A000040F151F30E3839F000D111D1124C80188
:1013B00089960E94A61DC82FD0E0DC2FCC27C8013B
:1013C0008A960E94A61D9E01282BC901DF91CF910C
:1013D0001F910F91089590E080E0F8CF462F76306E
:1013E00040F4643030F4843020F4672F0E94BF0949
:1013F000089590E080E00895CF92DF92FF920F93DE
:101400001F93CF93DF936C010091D2018091D101A2
:10141000082BC3E0D0E010E0FC2EC8010C2E02C067
:10142000959587950A94E2F780FD0CC02197A0F767
:10143000F12C8F2DDF91CF911F910F91FF90DF90B5
:10144000CF900895B6018C2F0E94EE090E94AE0540
:10145000019761F3EECFCF93DF93EC010E94FC097B
:10146000BE010E94EE090E94AE05DF91CF91089562
:10147000FC0124812223C1F0808191810E942B0AEA
:1014800092959F70963091F058F4925F9F709230D1
:1014900058F4803F19F030F4883E30F481E008952C
:1014A0009A5FF4CF843FD1F380E00895883EB0F393
:1014B000813FD1F7F3CFA6E0B0E0E1E6FAE00C948B
:1014C0006A1D49835A8349815A819923A1F02223B5
:1014D00091F0CA010E94FC09182F682F89819A8116
:1014E0000E94380769817A81812F0E94EE09269631
:1014F000E3E00C94861DCA010E940407182FF2CF66
:101500009091F50192FB222720F9281779F080FBB2
:1015100092F99093F5016091F4017091F50184E0E6
:1015200090E00E94E21D82E00E949E070895809153
:101530000A01882359F18091F40187FF27C00E9496
:10154000D3068093690140E250E06DE971E088E6DE
:1015500091E00E94F81D892BC1F080E2E8E6F1E0FD
:10156000ADE9B1E001900D928A95E1F7E091F001CB
:10157000F091F101309749F086E080936801048092
:10158000F581E02D88E691E0099508950E94D30643
:101590008093600148E050E06DEB71E080E691E0FF
:1015A0000E94F81D892B89F388E0E0E6F1E0ADEBBD
:1015B000B1E001900D928A95E1F7E091F001F09190
:1015C000F101309711F30280F381E02D80E691E084
:1015D000DBCF1092C50180910A01882339F18091F7
:1015E000F40187FF23C0EAE6F1E08EE1DF011D92FE
:1015F0008A95E9F790E080E00E94FB0390E080E0AC
:101600000E94D60310929C010E94970A86E0E8EEA1
:10161000F1E0DF011D928A95E9F71092E101109245
:10162000E2011092E3010E942D040895E2E6F1E048
:1016300086E0DCCFAAE2B0E0E0E2FBE00C946A1DB9
:101640008AE092E02091F100DC012D93CD01B2E01F
:1016500082319B07B9F780910B02833009F472C085
:10166000B8F4813009F449C0823009F4B3C08091E4
:10167000E80083FF8BC280910A0290910B029A309E
:1016800008F084C2E92FF0E0E95FF14E0C944E1DA2
:101690008A3009F48EC08B3009F471C0893039F773
:1016A00080910A02813219F780910E0290910F0207
:1016B000009711F00297D9F68091E800877F809318
:1016C000E8008091E80082FF38C09091F30080919B
:1016D000F200029731F48091F100813011F08630F0
:1016E00021F48091F1008093FD018091E8008B77D7
:1016F0008093E8000E943E02BACF80910A02813AAC
:1017000009F0B5CF8091E800877F8093E800809151
:101710000E0290910F02892B61F468E08EEF91E048
:1017200070E00E94EA028091E8008B778093E800E5
:101730009ECF60E090E080E0F3CF809108028111BD
:10174000C0CF95CF80910A02813A09F090CF809165
:101750000E0290910F02892B09F089CF8091E80049
:10176000877F8093E8008091E80080FFFCCF809124
:101770000A018093F1008091E8008E77B9CF8091C3
:101780000A02813209F073CF80910E0290910F020C
:10179000892B09F06CCF8091E800877F8093E80067
:1017A0000E943E0280910C0280930A010E94E90A85
:1017B0005ECF80910A02813209F059CF8091E80012
:1017C000877F8093E8000E943E0280910D02809303
:1017D000FC014DCF80910A02813A09F048CF8091F7
:1017E000E800877F8093E8008091E80080FFFCCFCD
:1017F0008091FC01BECF803899F0823809F0C6C1D3
:1018000080910E028F70873008F0C0C18093E9008C
:101810008091EB0085FB882780F91092E90006C0D3
:101820008091060290910702911182609091E800E8
:10183000977F9093E8008093F1001092F1008091DF
:10184000E8008E779FC1882309F48DC1823009F0AA
:101850009DC180910C02811190C180910E028F7008
:101860002FEF280F263008F091C18093E9002091D6
:10187000EB0020FF82C1933031F48091EB00806255
:101880008093EB007AC19091EB0090619093EB0014
:1018900021E030E001C0220F8A95EAF72093EA00A8
:1018A0001092EA008091EB008860EACF81116EC14E
:1018B00010910C021F778091E3008078812B809338
:1018C000E3008091E800877F8093E8000E943E0259
:1018D0008091E80080FFFCCF8091E30080688093D6
:1018E000E30082E0111183E0809308024FC1805829
:1018F000823008F04BC120910C0230910D022C3D3A
:10190000E3E03E07A1F583E08A838AE289834FB74B
:10191000F894DE01139620E03EE051E2E32FF0E080
:1019200050935700E49120FF03C0E295EF703F5FB2
:10193000EF708E2F90E0EA30C0F0C7968D939D93A4
:101940002F5F243159F74FBF8091E800877F809344
:10195000E8006AE270E0CE0101960E94EA028091FE
:10196000E8008B778093E80011C1C096E7CF8091A3
:101970000E0290910F02432F55274330510509F471
:101980004AC078F54130510509F47AC08BE590E002
:10199000E8EAF2E04230510509F0F8C02091E80091
:1019A000277F2093E80020911002309111028217C6
:1019B000930708F49C0140E02115310509F065C04A
:1019C000411163C08091E80082FDC9CF8091080277
:1019D000882329F2853019F28091E80083FFF2CF45
:1019E000BECF4132510509F43CC04232510509F0E5
:1019F000CDC08330910508F0C9C0FC01EE0FFF1F78
:101A0000EF5AFE4F0190F081E02D825B9E4FDC018A
:101A10008C9190E01AC0332721303105D1F0211587
:101A2000310561F02230310509F0B0C0E5E1F3E0A5
:101A3000E4918E2F90E0E5E1F3E007C0EBE5F3E001
:101A4000E4918E2F90E0EBE5F3E0009709F49EC05F
:101A5000A5CFE5E3F3E0E4918E2F90E0E5E3F3E03A
:101A6000F4CF8330910508F091C0880F991FFC01D5
:101A7000E95AFE4F0190F081E02D89E090E08ECF91
:101A800082E190E0E3E0F3E089CF809108028823CF
:101A900009F465CF853009F462CF8091E80083FDB9
:101AA0005ECF8091E80082FD8DCF8091E80080FFBD
:101AB00083CF9091F3008091F2002115310519F048
:101AC0008830910550F041E0089709F040E080919E
:101AD000E8008E778093E8006FCF44914093F10047
:101AE0003196215031090196E8CF803809F04EC077
:101AF0008091E800877F8093E800809109028093BD
:101B0000F1009DCE811142C010910C021230F0F50F
:101B10008091E800877F8093E800109309020E947B
:101B20003E02112311F084E005C08091E30087FD9F
:101B3000FACF81E08093080242E061EC81E00E94EC
:101B40005D0242E261EC84E00E945D0242E261ECEF
:101B500082E00E945D0242E260EC83E00E945D024E
:101B60008091080213C080910C02813079F481E0E9
:101B7000933009F080E0809307021092E900809191
:101B8000E800877F8093E8000E943E028091E80091
:101B900083FF0AC08091E800877F8093E8008091EE
:101BA000EB0080628093EB00AA96E3E00C94861D24
:101BB0000E94E90A2FEF84E39CE02150804090408E
:101BC000E1F700C0000088E19AE00FB6F894A8950C
:101BD000809360000FBE90936000FFCF882321F0B8
:101BE0000E94CC060E94970A0895882339F09091AC
:101BF000C501982B9093C5010E94970A08958823E8
:101C000081F19CEF980F913A28F40E9477030E948B
:101C1000970A089590E2980F983050F4877091E0F9
:101C200001C0990F8A95EAF7892F0E94CC06EFCF61
:101C30009BE5980F933028F490E080E00E94FB032E
:101C4000089598E5980F9B3128F490E080E00E9479
:101C5000D603089593E3980F933118F460E00E943F
:101C6000C4070895CF93C82F8823B1F18CEF8C0F50
:101C7000813AA0F580910A01882301F18091F40155
:101C800087FF1CC0EC2FE695E695E695F0E0E85955
:101C9000FE4F828190E04C2F477021E030E002C07F
:101CA000220F331F4A95E2F782239323892B79F081
:101CB0008C2F0E9477030E94970A09C0E2E6F1E0A8
:101CC0008191C817A9F381E0E836F807C9F78C2F8E
:101CD0000E94A2030E94970ACF91089580E28C0F80
:101CE000883068F4C77021E030E001C0220FCA9547
:101CF000EAF78091C501822B8093C501EBCFEBE51C
:101D0000EC0FE33040F4F0E0E55FFE4F808190E0BF
:101D10000E94FB03E1CFE8E5EC0FEB3150F4F0E07B
:101D2000EE0FFF1FE25FFE4F808191810E94D6037C
:101D3000D3CF83E38C0F833178F661E08C2F0E9440
:101D4000C407CACFA6E0B0E0E8EAFEE00C94621D4A
:101D50008E010F5F1F4F86E0F80111928A95E9F717
:101D600084E4C82E81E0D82EF12CE12CAA24A3947F
:101D7000B12CF60181916F018F3F09F443C0F894B3
:101D8000E82FE295EF70F0E021A18F70A50102C06D
:101D9000440F551F8A95E2F7CA01922F982B91A301
:101DA00092A18095892382A3789400C0EAE4F1E0AF
:101DB000912C31E021912F3F09F44CC0A22FA29524
:101DC000AF70B0E090968C9190E02F7002C0959526
:101DD00087952A95E2F780FD3DC0832F982A330F1F
:101DE00051E0EE34F50731F7F601319780818F3FEE
:101DF00011F00E94A60480EA8A95F1F7F801EE0D31
:101E0000FF1D9082EFEFEE1AFE0AF6E0EF16F104E6
:101E100009F0AFCF46E050E0B8018BEC91E00E94B2
:101E2000F81D892BD9F086E0F801ABECB1E0019008
:101E30000D928A95E1F781E08093CA010E946B03BD
:101E40009093C9018093C80110E0812F2696EBE0A2
:101E50000C947E1D80E0C2CF10E01FC01091CA011B
:101E6000112391F38091C8019091C9010E945C03F4
:101E7000059750F346E050E06BEC71E08BED91E09C
:101E80000E94F81D892B41F386E0EBECF1E0ABED0D
:101E9000B1E001900D928A95E1F71092CA01D5CF79
:101EA0001F93CF93DF93182FEB010E94320E2097E0
:101EB00039F4812F0E94FF0DDF91CF911F9108957A
:101EC0008FE99FE00197F1F700C000002197EFCF65
:101ED0000F931F93CF93DF93C62FD42F022FFC01B4
:101EE00085818823A9F060934E020E946B03909332
:101EF0004D0280934C02C77081E001C0880FCA95E3
:101F0000EAF70E94F50DDF91CF911F910F9108958F
:101F100080914E02681334C080914C0290914D0222
:101F20000E945C03883C910558F510E21D0FCD1707
:101F3000B9F080E28C0F883040F4C77081E001C0B6
:101F4000880FCA95EAF70E94EE0D183048F481E038
:101F50009D2F977001C0880F9A95EAF70E94F50DA2
:101F600070E060E0802F0E94500F183060F6D7704C
:101F700081E001C0880FDA95EAF70E94EE0DC3CF29
:101F8000C77081E001C0880FCA95EAF7F6CFA8E0D4
:101F9000B0E0EDECFFE00C945D1D8C01DC011496CB
:101FA0008C911497882309F4BDC021E04C911196BF
:101FB0005C91119712966C91129713967C911397DE
:101FC00015969C910E945B0A7C01F801858188230B
:101FD00009F447C1C70197578038910508F006C535
:101FE000FFE0FE1508F48EC08FEF93E00E94A61D5F
:101FF000811188C069EEA62EB12CE1104DC0FE0102
:10200000339686E0DF011D928A95E9F75AE0452E66
:102010007501BFEFEB1AFB0AC5010E94A61D89835B
:102020001A82882309F46EC0813009F07FC06501EF
:10203000E2E0CE0ED11CC7010E94A61D8A83882330
:1020400009F460C09FEF980F9330A0F5F3E0AF0E56
:10205000B11CC6010E94A61D8B83882309F452C0BF
:102060001C82DE0111967D01F7012081222381F27D
:10207000213009F09DC091818281913009F058C0D2
:10208000F2E0EF0EF11C70E060E0893311F460E5DE
:1020900070E00E94500F53C0A11424E0B20691F1E9
:1020A000C5010E94A61D811101C0EA943FEFA31A49
:1020B000B30AA3CF56018430A1F642E0E42EF12CFE
:1020C00056012FEFA21AB20AC6010E94A61DE1E036
:1020D000F0E0EC0FFD1FEE0DFF1D8083882391F0D3
:1020E0008C3741F4E2E0F0E0EC0FFD1FEE0DFF1D38
:1020F0001082B7CF3FEFE31AF30A650187E0E816D5
:10210000F104F1F680919A01877061F0D80115967B
:102110008C91882339F08091F50182FF03C082E021
:102120000E949E072896E0E10C94791D570199CFF3
:10213000923049F422E0E20EF11C0E94320E9FEF31
:10214000E91AF90A91CF933031F432E0E30EF11C31
:102150000E94FF0DF4CF943021F08FEFE81AF80AB7
:10216000EECF92E0E90EF11C30E020E0B7016F5FA6
:102170007F4FD70111964C918053990B8A3091056E
:1021800060F021153105D9F2EFE9FFE03197F1F761
:1021900000C0000021503109F4CF429EF001439E5F
:1021A000F00D11249C012E0F3F1F842F7B01DECFE9
:1021B000E22FF0E0E850FE4F5490822F86958695EE
:1021C000869590E0FC01E851FE4F64902770712CD9
:1021D000022E02C0759467940A94E2F7F1E06F2230
:1021E0007724FC01E852FE4F8490912C022E02C00D
:1021F000959487940A94E2F731E083229924FC01B4
:10220000E853FE4FC490D12C02C0D594C7942A95B0
:10221000E2F781E0C822DD246114710419F081EE37
:102220000E94320E8114910419F086EE0E94320E43
:1022300070E060E0852D0E94500F8114910419F028
:1022400086EE0E94FF0D6114710419F081EE0E9468
:10225000FF0DC114D10409F472CF70E060E08CE28C
:1022600018CFF701E851FC47E730F10508F0B1C39A
:10227000EF5EF14E0C944E1D26E241EE61EEC80178
:102280000E94680F3FCF27E245EE65EEF8CF26E2C9
:1022900041EE60EEF4CF27E245EE64EEF0CF26E2A9
:1022A00041EE62EEECCF27E245EE66EEE8CF28E2A3
:1022B00041E0EBCF8091F40181608093F40195C0FF
:1022C0008091F50188608093F5018FC08091F401C1
:1022D0008260F3CF8091F4018460EFCF8091F401AC
:1022E0008860EBCF8091F5018160EDCF8091F501A1
:1022F0008260E9CF8091F4018061DFCF8091F401A9
:102300008062DBCF8091F4018064D7CF0E94E90A1C
:102310008091F4018068D1CF8091F4018C60CDCFA1
:102320008091F5018360CFCF8091F4018E7FC5CF7E
:102330008091F501877FC7CF8091F4018D7FBDCF5C
:102340008091F4018B7FB9CF8091F401877FB5CF65
:102350008091F5018E7FB7CF8091F5018D7FB3CF4E
:102360008091F4018F7EA9CF8091F4018F7DA5CF5C
:102370008091F4018F7BA1CF0E94E90A8091F40142
:102380008F779BCF8091F401837F97CF8091F50168
:102390008C7F99CF8091F40182FB992790F921E0FD
:1023A000922790FB82F990FB83F987CF8091F5010A
:1023B000982F909591708E7F892B90FB81F983CF18
:1023C0009091F401892F8F7B96FF806476CF0E94D5
:1023D000E90A9091F401892F97FB87F980586DCF16
:1023E00061E08EE090E00E94C41D6091F401709164
:1023F000F50184E090E00E94E21D0E94E90A82CE8D
:1024000060E0EFCF9091F401892F8F7E94FF80617F
:1024100054CF9091F401892F8E7F90FF81604DCF32
:102420009091F501892F877F93FF88604CCF85E3DA
:10243000CBC285E3D8C2A7E7EA16ACE7FA0609F4EF
:102440006EC082E0B8E7EB16BCE7FB0609F468C093
:10245000E3E0EE16ECE7FE0609F48DC008F06CC070
:10246000E1142CE7F20609F479C031E0E3163CE709
:10247000F30609F486C0F8018581E080F1808823A5
:1024800009F48DC0C7010E94FC09D82E682FC7012E
:102490000E943807B7018D2D0E94EE090E94AE05FB
:1024A0007C01882ED8011596AC90159716969C90B5
:1024B00092943FE0932280919A01877009F1DA2C7F
:1024C000AA20F9F08F2D807F803469F080E28E0D94
:1024D0008830B0F08F2D807E803229F4B1E0BE15B7
:1024E00078F4992069F08091F50182FF09C082E0BB
:1024F0000E949E0780919A018770DD24D3948111F8
:10250000D12CCF2CC2942FE0C222EBE0EC1508F4C2
:10251000AEC0EC2DF0E0E85EF14E0C944E1D81E073
:102520000E94B50743E062E081E00E947107EACDB6
:1025300081E00E949107F6CF8BE5E8168CE7F8065C
:1025400061F19CE5E9169CE7F906E9F0AAE5EA16CF
:10255000ACE7FA0609F08FCF81E01CC00E94E90ABF
:10256000BFEFE4E3FCE0B150E040F040E1F700C031
:1025700000000E944B036FEF7FEF90E080E00E942D
:10258000E21D0E94D80D8091F50182FB882780F919
:1025900091E089270E94800A6ECF80E0FBCFC701BF
:1025A0000E940407D82E76CFFF2DFF70BF2E8F2DEF
:1025B000807F19F0B29490EFB922AA20B9F0BB2025
:1025C00069F080E28E0D883010F0811009C0809192
:1025D000C501B82AB092C5010E94970A8E2D45C048
:1025E00080919C01B82AB0929C01F6CF8E2D0E945A
:1025F000FF0DBB20E1F180E28E0D883010F08110DC
:1026000004C08B2D0E94CC0606C0B09480919C0122
:10261000B822B0929C010E94970A29C02F2D2F70DA
:10262000B22E8F2D807F803219F0B29480EFB822C5
:10263000882059F031E0831609F482C0AA2009F4F9
:102640008EC0992009F44FC0C9CF8091F50182FD59
:1026500046C0AA20F1F1BB2039F08091C5018B2939
:102660008093C5010E94970A80E00E94320EAC2D33
:10267000A850BB0B149710F40E942004DD20A9F091
:1026800080919A0180FD11C0F8011582869586958A
:1026900086950E94B507C8010E94C70F80919A01D4
:1026A0008695869586950E94910720E0D8014C91E9
:1026B00011965C91119712966C91129713967C91DA
:1026C000139714968C91149715969C910E945B0A0F
:1026D00029CD80E00E94FF0DBB2049F292CFAA20B5
:1026E000A1F0911004C08B2D0E94F50DC0CF81E0A8
:1026F0009812BDCF80919B019B2D9823B91609F4A8
:10270000B6CF8B2980939B01B2CF9110B0CF8B2D88
:102710000E94EE0D90919B018B2D892329F08B2D2A
:102720008095892380939B01909189018B2D89232A
:1027300009F49DCF8B2D809589238093890197CFB4
:10274000AA2029F095E0991508F491CFCCCFA4E008
:10275000A91508F48CCF8B2D0E94EE0D88CF9920FF
:10276000D1F3B9E38B1218C1EFEFF7EE23E0E1509C
:10277000F0402040E1F700C000000EC18F2D86958B
:102780008695837061F0813009F071CFC701937035
:10279000A11002C080E090E00E94D60368CFC7017C
:1027A0009370A11002C080E090E00E94FB035FCF15
:1027B0006A2D8E2D0E94C4075ACF8F2D837091F5FC
:1027C000A11055CF4E2D429546954770440F440FAA
:1027D0008E2D8F70042E01C0880F0A94EAF72E2DDB
:1027E0002071E4FE07C02FE030E001C0220F4A95BF
:1027F000EAF720953F2D369536953370323069F0E3
:1028000050F44091D101313029F0822B84230E9471
:10281000C1072DCF842B822BFACF282B8091D10199
:102820008227F5CF8695AA2011F08F2D81708823FD
:1028300009F41DCF4E2D429546954770440F440F25
:102840008E2D8F70042E01C0880F0A94EAF72E2D6A
:102850002071E4FE07C02FE030E001C0220F4A954E
:10286000EAF720953F2D369536953370323069F072
:1028700050F44091D201313029F0822B84230E9400
:102880006E07F5CE842B822BFACF282B8091D201B4
:102890008227F5CF3F2D3F70F32EAA2029F0832FFA
:1028A0000E94B5078E2D20CF8E2D0E94EE0D8F2D0C
:1028B0000E949107DCCE8E2D92EF8916B1F198150A
:1028C00070F0A0EF8A16D1F0B1EF8B1691F0AA202C
:1028D00009F45DC0911082CE8F2D8F712AC0E3EF75
:1028E0008E1651F1F4EF8F12F2CF8091F50182FD37
:1028F0002FC08F2D8F71AA20D9F21BC0AA2081F082
:1029000024E0291508F4B3CE2F2D2F7181E090E03B
:1029100001C0880F2A95EAF79091D2018927AFCF9D
:1029200035E0391508F4A3CEEFCF8F2D8F71A110AC
:10293000BFCF0E94B5079BCE80E0AA2009F49FCFAD
:102940009F2D9F7181E001C0880F9A95EAF797CF7C
:10295000AA2091F08F2D8F71F82E0E94B5078091DB
:10296000F50182FF07C0A8E0FA9EC0011124836030
:1029700080939A018F2DDDCF81E00E949E07B1E008
:10298000B91508F074CE82E00E949E0770CE99209F
:1029900039F0893309F4E8CE8E2D0E94FF0D67CE01
:1029A0008F2D8F7185CFB6E1EB16BCE7FB0609F0E2
:1029B00042CD8091C5018A7A91E009F490E090932C
:1029C0008801811134CD89E20E94A2030E94970AF6
:1029D00099CBE6E1EE16ECE7FE0641F58091880121
:1029E000811127CD89E20E947703F0CFF701E851EA
:1029F000FC47E730F10508F43BCC10924E02C701CA
:102A00009057839780F684E090E00E94AE1D9093EB
:102A1000F5018093F401F701E150F047E232F1054E
:102A200008F048CCEC5DF14E0C944E1DF7E7EF1624
:102A3000FCE7FF0609F47CCD28E7E2162CE7F20656
:102A400009F019CD82E075CDCF93DF938091990184
:102A5000807F09F04DC080919801882309F448C017
:102A6000E0914B0250911202C0919401D0919301D8
:102A7000609195017091960147E05E17C9F18E2F24
:102A800090E0E49FF0011124ED5EFD4F24812223AC
:102A900091F1489FF001499FF00D1124DF01AD5ED7
:102AA000BD4F11962C9111972C1325C02C912D13ED
:102AB00022C015962C91159721111DC012962D91AB
:102AC0003C91261B370B283C3105A8F480919901D5
:102AD0008F70806180939901E75EFD4F80818F70D8
:102AE0008061808383E991E00E94C70F0E94FA060B
:102AF000DF91CF910895FC013196E770BECFA4E13C
:102B0000B0E0E5E8F5E10C94611D8C0186E0F80188
:102B1000DE011F9601900D928A95E1F7F8018481FC
:102B2000E58093E9A92E91E0B92E9091970191113A
:102B300028C0882319F1EE20F1F0C8010E94380A5C
:102B4000F82E8823C1F087E0F801D50101900D929D
:102B50008A95E1F780919701813031F4809193015A
:102B6000909194010E942B0A0E9424158F2D649647
:102B7000ECE00C947D1DC8010E94C70FFF24F39464
:102B8000F5CFD080C18082809380F0909801209111
:102B9000950130919601A401421B530BFF2009F4CB
:102BA000D9C0483C510508F092C08823F9F29091B1
:102BB000940180919901282F207F09F056C0C912F5
:102BC00014C090919301D91210C0E11048C08F70C9
:102BD00080618093990183E991E00E94C70F809101
:102BE0009901F8018683F12CC1CFE11038C06C2D1A
:102BF0008D2D0E94CF016C2D8D2D0E94CF01E82ECE
:102C00008111F1CFDF86C88A8F8598890E942B0AAF
:102C1000292F22952F70243058F49F70223088F08D
:102C2000992399F0F8019681907F79F4FE2C9ECF3C
:102C30002A5F2F70223068F0C8010E94C70FEF2C66
:102C4000F5CF992311F0882389F3805E883070F3E3
:102C5000F3CF803F58F3815F833070F7E7CF8091E7
:102C60009901816080939901BECFC91207C09091EC
:102C70009301D91203C0EE2009F48DC0C8010E944F
:102C8000380A882309F477CFEE2009F474CF8091B5
:102C90009901803288F02091930130919401398715
:102CA00028879B868A86909197019C871D868E87B0
:102CB000CE0108960E94C70F87E0F801A3E9B1E0B2
:102CC00001900D928A95E1F70E94241557CF9091BB
:102CD0009901292F207F51F483E991E00E94C70FC9
:102CE00087E0F50111928A95E9F77DCF882309F4F1
:102CF0003DCF809194018C1110C080919301D81226
:102D00000CC0E1100AC09683C8010E94C70F87E07B
:102D1000F50111928A95E9F729CFC8010E94380A76
:102D2000882309F428CFEE2009F425CF809199015A
:102D3000803210F220919301309194013A832983DB
:102D40009C828B82909197019D831E828F83CE01FE
:102D50000196B0CF483C5105D0F6882309F40ECF38
:102D6000FE2CEE2009F407CF809194018C1120C035
:102D700080919301D8121CC08091990180FD0FC0F1
:102D8000982F907F61F08683903F31F0982F907F4D
:102D9000905F8F70892B8683C8010E94C70F87E0E0
:102DA000F801A3E9B1E001900D928A95E1F7DECE3A
:102DB000C8010E94380A81117FCF809199018160FA
:102DC00080939901C8010E94C70FD0CEABE1B0E05B
:102DD000ECEEF6E10C94691D4E8B5F8B688F798F5A
:102DE0008A8F9B8F192F911110929C011D8A86E06A
:102DF000FE017696DE011F9601900D928A95E1F70D
:102E00000A8D002341F021E04F85588969897A892C
:102E1000C8010E945B0A0B8B1C8B87E0FE013F966A
:102E2000DE01189601900D928A95E1F7CE01089681
:102E30000E947F1581110CC087E0FE013896DE01EB
:102E4000119601900D928A95E1F78C8581110BC046
:102E500017E080914B0290911202891331C06B965A
:102E6000E4E00C94851D2091120230E0C901019626
:102E70008770992740914B024817190699F097E0FF
:102E8000929FD001939FB00D1124AD5EBD4FFE0106
:102E9000319601900D929A95E1F7809312020E946B
:102EA000FA06D6CF0E94E90A1092120210924B0243
:102EB00087E0E3E9F1E0DF011D928A95E9F7C8CFE9
:102EC000819FC00111248D5E9D4F0E947F15882334
:102ED00031F280914B0290E00196877099278093A0
:102EE0004B02B7CFA6E0B0E0E8E7F7E10C94691D2C
:102EF0000E946B038C018091C6019091C7018017DD
:102F0000910781F019821A820E946B03682F498110
:102F10005A81792F80E090E00E94E6161093C70155
:102F20000093C6012696E4E00C94851D1F920F9233
:102F30000FB60F9211242F933F934F935F936F938C
:102F40007F938F939F93AF93BF93CF93DF93EF9331
:102F5000FF93D091E900DF708091EC00C82FC17021
:102F600080FDC0E81092E9008091F000877F809397
:102F7000F00078940E941A0B1092E9008091F00002
:102F800088608093F000CD2BCF70C093E900FF9153
:102F9000EF91DF91CF91BF91AF919F918F917F91F1
:102FA0006F915F914F913F912F910F900FBE0F90B6
:102FB0001F9018951F920F920FB60F9211242F9306
:102FC0003F934F935F936F937F938F939F93AF93B1
:102FD000BF93EF93FF938091E10082FF09C080913E
:102FE000E20082FF05C08091E1008B7F8093E100C9
:102FF0008091DA0080FF24C08091D80080FF20C03B
:103000008091DA008E7F8093DA008091D90080FF72
:103010009DC080E189BD82E189BD09B400FEFDCF7C
:1030200081E0809308028091FB01811109C00E9418
:10303000EE010E948F028091E20084608093E200A2
:103040008091E10080FF17C08091E20080FF13C0F3
:103050008091E2008E7F8093E2008091E2008061A7
:103060008093E2008091D80080628093D80019BCE0
:1030700085E0809308028091E10084FF2BC080915D
:10308000E20084FF27C080E189BD82E189BD89B566
:10309000982F917080FFFBCF8091D8008F7D809317
:1030A000D8008091E1008F7E8093E1008091E20062
:1030B0008F7E8093E2008091E20081608093E20045
:1030C00080910902882309F447C084E080930802B4
:1030D000809108028091E10083FF27C08091E20087
:1030E00083FF23C08091E100877F8093E10082E02D
:1030F00080930802109209028091E1008E7F8093F4
:10310000E1008091E2008E7F8093E2008091E200F6
:1031100080618093E20042E060E080E00E945D0216
:103120008091F00088608093F000FF91EF91BF9153
:10313000AF919F918F917F916F915F914F913F914F
:103140002F910F900FBE0F901F90189519BC1092E1
:1031500008021092FB0174CF8091E30087FD93E099
:1031600090930802B5CF78941F921FB61F92112436
:103170008F939F93AF93BF938091F7019091F80144
:10318000A091F901B091FA010196A11DB11D8093A2
:10319000F7019093F801A093F901B093FA01BF9160
:1031A000AF919F918F911F901FBE1F9018951F92F6
:1031B0001FB61F9211248F939F93AF93BF9380915B
:1031C000F601811113C08091F7019091F801A0914F
:1031D000F901B091FA014196A11DB11D8093F7014B
:1031E0009093F801A093F901B093FA01BF91AF91C8
:1031F0009F918F911F901FBE1F901895CDB7DEB77E
:10320000A6970FB6F894DEBF0FBECDBF85B7806816
:1032100085BF85B7806885BF84B7877F84BF0FB6B9
:10322000F894A89580916000886180936000109266
:1032300060000FBE80E890E00FB6F89480936100C4
:10324000909361000FBE84EA94E090935F018093B5
:103250005E010E94EE010E948F028091E200846074
:103260008093E2007894809108028823A1F0109165
:10327000E9001F709091EC00892F817090FD80E82B
:10328000182B1092E9008091E80083FD0E941A0B30
:103290001F701093E90082E084BD93E095BD9AEF22
:1032A00097BD80936E000E94A609811102C00E9402
:1032B000960904E411E0D8018D918D018F3F11F042
:1032C0000E94A604B1E00A341B07A9F787EF0E9409
:1032D000A60486EF0E94A60485EF0E94A60484EF50
:1032E0000E94A60486E0EBEDF1E0DF01282F1D929D
:1032F0002A95E9F7EBECF1E0DF011D928A95E9F7F9
:1033000090E080E00E94AE1D863E9E4F21F40E9418
:10331000A609811168C066EE7EEF90E080E00E9411
:10332000E21D60E082E090E00E94C41D81E0809395
:10333000D10161E083E090E00E94C41D60E074E18F
:1033400084E090E00E94E21D60E086E090E00E9450
:10335000C41D60E087E090E00E94C41D40E050E0A2
:10336000BA0188E090E00E94D61D60E084E290E01F
:103370000E94C41D60E087E190E00E94C41D60E0EF
:103380008CE090E00E94C41D60E08DE090E00E941F
:10339000C41D19821A821B821C821D821E821F82FA
:1033A000188648E050E068E170E0CE0101960E9486
:1033B000B41D40E050E0BA0180E290E00E94D61DCA
:1033C00080E00E940C090E94960940E050E0BA019A
:1033D0008FE090E00E94D61D40E050E0BA0183E10A
:1033E00090E00E94D61D82E090E00E94A61D80938E
:1033F000D30184E090E00E94AE1D9093F50180938C
:10340000F4010E94A20EEFEFF6E721E0E150F04058
:103410002040E1F700C000000E94A20E8091DB0175
:1034200080FF08C06FEF7FEF90E080E00E94E21D18
:103430000E944B0383E090E00E94A61D0E94C107FA
:1034400080E091E09093F1018093F00108E110E0B9
:103450008BED91E066E0B62EB80E7AEDE72E71E0C6
:10346000F72E8091080230E4A32E40E1C42E52E1F1
:10347000D52E853009F484C00E94A20E94ED892EC9
:1034800091E0992E2BED622E21E0722ED301F401F2
:1034900091918D91EE16FF0609F47CC09817C1F347
:1034A000D12C33243394D301CD903D01F4014190CC
:1034B0004F014C1419F14C24A12C55245394842D04
:1034C0008521A1F0A9A2DAA20E946B039CA38BA381
:1034D0003DA291E08C2D852109F490E09EA349A1A5
:1034E0005AA16BA17CA18DA10E94E616A394550C54
:1034F000F4E0AF12E4CFF4013197C082D39426E018
:10350000D212D1CF8FB7F8944091F7015091F801C2
:103510006091F9017091FA018FBF40C0809108025B
:10352000843009F11092F6010FB6F894A895009333
:1035300060000FBEA092600083B7817F846083BF6C
:1035400083B7816083BF7894889583B78E7F83BF6C
:103550000FB6F894A8958091600088618093600010
:10356000109260000FBE80910702882349F00E94EC
:10357000A20EEBEDF1E0819181114EC2BE12FBCFA4
:1035800080910802853009F4C9CF0E94E90A0E949F
:10359000200472CF981384CF0E94721786E0E8EE61
:1035A000F1E0DE01119601900D928A95E1F780908D
:1035B000E901C090EA019090EB01A090EC01D0905D
:1035C000ED011092EA011092EB011092EC011092C1
:1035D000ED018C2D892909F445C08091E601909177
:1035E000E7010E945C039C019091E101992309F499
:1035F0003CC225313105B0F19F3F19F09F5F909398
:10360000E101CC2059F00E9476049FEF1C140CF4C9
:1036100091E0899F802D11248093EA01992059F02F
:103620000E94760491E019140CF09FEF899F802D81
:1036300011248093EB018091EA01882399F0709026
:10364000EB01772079F00E949604882309F4B3C037
:103650008093EA01872D0E949604882309F4ADC067
:103660008093EB018A2D8D2909F445C08091E401F6
:103670009091E5010E945C039C019091E2019923E5
:1036800009F4EEC121353105B0F19F3F19F09F5F7C
:103690009093E201AA2059F00E9454049FEF1A145B
:1036A0000CF491E0899F802D11248093EC01DD20A2
:1036B00059F00E94540491E01D140CF09FEF899F73
:1036C000802D11248093ED018091EC01882399F0E5
:1036D000A090ED01AA2079F00E949604882309F4B5
:1036E0006EC08093EC018A2D0E949604882309F411
:1036F00068C08093ED018091E901881217C0809124
:10370000EA01882311F0C81211C02091EB01222395
:1037100011F092120BC09091ED01992311F0D91282
:1037200005C03091EC01332309F48CC10E942D04B3
:1037300086E0FE013196A8EEB1E001900D928A95E7
:10374000E1F70E9420049091DA01891769F08093D3
:10375000DA018FB7F8944091F7015091F801609128
:10376000F9017091FA018FBF80910802843009F04D
:1037700078CE83E08093E9008091E80082FF71CEEB
:103780008091E80090E085FF05C00E940D0288232B
:10379000D1F091E08091E8008B778093E800992345
:1037A00009F45FCEE981E150E331B0F5F0E0EA5B86
:1037B000F14E0C944E1D81E04BCF81E051CF81E062
:1037C00090CF81E096CF80E2C82ED12CCE01019619
:1037D0004C018091E80085FD0AC08091E8008B775C
:1037E0008093E8000E940D02882399F3D2CF809144
:1037F000F100D4018D934D01B1E0CB1AD10849F706
:10380000C8CF1A828CE08B8324C08A81823009F46D
:103810001EC128F4813061F08FEF89831AC0833094
:1038200009F18430C9F71B821C821D821E8211C0DF
:103830002FB7F8946091F7017091F8018091F90128
:103840009091FA012FBF0E94541D6B837C838D835E
:103850009E8340E250E0BE016F5F7F4F82E00E9496
:10386000A808FFCD2B81822F90E0FE013496245EC4
:103870008630910570F7DC01A552BE4F3C91319323
:1038800001962813F5CFE5CF8A81823019F0853073
:1038900001F3C2CF6B817C818D819E810E94541D7A
:1038A00088E290E00E94C41DD4CF4C816B818A8154
:1038B0000E94BF099827892798279E838D83C9CFA7
:1038C0002D813E813227232732274C816B818A81CB
:1038D0000E943509BECF0E945B09BBCF80E18A837D
:1038E000B8CF83E08A8387E18ECFCA80DB80DC2477
:1038F000CD24DC24FE0131963F018C80CF01880D60
:10390000911D4C01C60187519F4F8614970409F4FD
:10391000A0CFA7E1CA16A3E0DA0658F40E94A61DBC
:10392000F3018483BFEFCB1ADB0AEFEF6E1A7E0A36
:10393000E9CFD30114961C92F5CFCA80DB80DC243A
:10394000CD24DC24CE0101963C018C808C0C9D2C76
:10395000911CC60187519F4FC814D90409F479CF2F
:10396000A7E1CA16A3E0DA0620F4F30164810E94FD
:10397000C41DFFEF6F1A7F0A2FEFC21AD20AE9CFD8
:103980000E94250966CF84E0AACFCA80DB80DC24B0
:10399000CD24DC24CE0101963C018C80DC01A80DF5
:1039A000B11D4D01C60189966814790409F451CFFF
:1039B000B0ECCB16D10458F40E94A61DF301848309
:1039C000BFEFCB1ADB0AEFEF6E1A7E0AEBCFD30103
:1039D00014961C92F5CFCA80DB80DC24CD24DC2435
:1039E000CE0101963C018C808C0C9D2C911CC60153
:1039F00089968C149D0409F42CCFA0ECCA16D1042E
:103A000020F4F30164810E94C41DFFEF6F1A7F0A46
:103A10002FEFC21AD20AEBCFC9BCD9BC09B400FE41
:103A2000FDCF8091D8008F7D8093D8008091E000F9
:103A300082608093E0008091E00081FDFCCF0E94D5
:103A4000E90A9ECD822B892B09F472CE6FCE88E2D3
:103A500090E00E94A61D1B821C821D828E83F9CEDF
:103A60002B30310508F013CE46CE2B30310508F04F
:103A7000C5CDF8CD97FB072E16F4009407D077FD3F
:103A800009D00E94921D07FC05D03EF490958195C7
:103A90009F4F0895709561957F4F0895EE0FFF1F1A
:103AA0000590F491E02D09946927962769277827D6
:103AB0008727782708952F923F924F925F926F92B7
:103AC0007F928F929F92AF92BF92CF92DF92EF92AE
:103AD000FF920F931F93CF93DF93CDB7DEB7CA1B2F
:103AE000DB0B0FB6F894DEBF0FBECDBF09942A885A
:103AF000398848885F846E847D848C849B84AA8402
:103B0000B984C884DF80EE80FD800C811B81AA818E
:103B1000B981CE0FD11D0FB6F894DEBF0FBECDBF59
:103B2000ED010895AA1BBB1B51E107C0AA1FBB1FD3
:103B3000A617B70710F0A61BB70B881F991F5A9539
:103B4000A9F780959095BC01CD010895F999FECF14
:103B500092BD81BDF89A992780B50895A8E1B0E09B
:103B600042E050E00C94EA1DDC01A40FB51F415067
:103B7000504048F0CB01840F951F2E910E94C51D27
:103B800041505040D0F70895262FF999FECF92BDAD
:103B900081BDF89A019700B4021639F01FBA20BD12
:103BA0000FB6F894FA9AF99A0FBE08950396272F44
:103BB0000E94C51D0E94C41D252F0E94C51D242FD3
:103BC0000C94C51D0196272F0E94C51D0C94C41D81
:103BD000DC01CB01FC01F999FECF06C0F2BDE1BDCD
:103BE000F89A319600B40D9241505040B8F70895BC
:103BF000FB01DC0104C08D910190801921F441503A
:103C00005040C8F7881B990B0895F894FFCFFB0B21
:103C1000230CC60D230CC60D560C770CC60D750D66
:103C2000820D47114B113C1143114F115311571184
:103C3000D412D4120E130E13BE13D8133713371326
:103C4000DD134A145B145B14941109129C11661164
:103C50006A11A0116E11A411B0117A1102127E1115
:103C6000B4118211B811E0118611BC11E7118C1149
:103C7000C211CA117211A8117611AC119011C6119E
:103C8000D611F0110012601198111012011C051CC0
:103C9000441C551C601C6B1C0C1C0C1C0C1C0C1CB0
:103CA0000C1C6E1C711C751C9D1CC01CC31CC51CEF
:023CB000EB1C0B
:103CB2004803F808F108EA08E30801818283E20078
:103CC200E900EA00B500B600B700CD008301CC00E0
:103CD2008A01920194012102230224022502260272
:103CE20027022A02B300B4006F0070009F01CB01CB
:103CF2009F02A0023534C6976694F7F6F5F4442283
:0E3D0200B684016201AC00BA02D302F30200E3
:00000001FF
