:100000000C941B040C9453040C9453040C9453044C
:100010000C9453040C9453040C9453040C94530404
:100020000C9453040C9453040C943E220C94F92029
:100030000C9454240C9453040C9453040C945304C3
:100040000C9453040C9453040C9453040C945304D4
:100050000C9453040C9407240C9453040C945304F0
:100060000C9453040C9453040C9453040C945304B4
:100070000C9453040C9453040C9453040C945304A4
:100080000C9453040C9453040C9453040C94530494
:100090000C943F300C9453040C9453040C9453046C
:1000A0000C9453040C9453040C945304EA065E0716
:1000B000F206BC06C006F606C306F9060407CE061D
:1000C0005407D2060807D6060C073607DA061007CB
:1000D0004007E00616072007C706FD06CA06000708
:1000E000E5061B072C074C074E07B806EE06670708
:1000F00087078D077A068107930799079F07DA0715
:10010000E807ED07F207F707FC07010806080B08E8
:10011000100815081C081F082208250882068206F8
:100120008206820682068206A908A908DC08DC0885
:10013000560974097C0A7C0A7909ED09FE09FE0951
:10014000DE0EE10E1C0F340F3B0F460F490F490F17
:10015000490FDF10DF10471049104D107210941036
:1001600097109A10BE10DF0FE60FE90FEF0FF60F92
:10017000F90FFF0F061009101C1020102310291072
:100180002C102F10351038103B105D2884282D2A94
:1001900084282D2AD028F3282D2AE829F8290000C0
:1001A000000000000000000000000000000000004F
:1001B000000000000000000000000000000000003F
:1001C00000007E0F00D4FFFFFFC700000078000092
:1001D0000000000000002A2B2800000000000000A2
:1001E00000000000000000000029000000002C1E9C
:1001F0003420212224342627252E362D3738271E59
:100200001F202122232425263333362E37381F047E
:1002100005060708090A0B0C0D0E0F101112131416
:1002200015161718191A1B1C1D2F3130232D3504D4
:1002300005060708090A0B0C0D0E0F1011121314F6
:1002400015161718191A1B1C1D2F3130354C0001BB
:100250000101010101010101020202020202020286
:100260000203030303030303030404040404040458
:10027000050505050506060606060707070707081C
:10028000080808090909090A0A0A0B0B0B0C0C0CCF
:100290000D0D0D0E0E0E0F0F0F1010111111121269
:1002A00013131414151516161717181819191A1AE6
:1002B0001B1B1C1D1D1E1E1F202021222223242447
:1002C000252626272829292A2B2C2D2D2E2F303183
:1002D0003232333435363738393A3B3C3D3E3F4095
:1002E0004142434445464748494A4C4D4E4F505180
:1002F0005354555658595A5B5D5E5F61626465663A
:1003000068696B6C6D6F7072737577787A7B7D7EC0
:100310008082838587888A8C8E8F91939596989A10
:100320009C9EA0A2A3A5A7A9ABADAFB1B3B5B7BA28
:10033000BCBEC0C2C4C6C9CBCDCFD1D4D6D8DBDDFC
:10034000DFE2E4E7E9EBEEF0F3F5F8FAFDFFA800F1
:10035000AC00AE00AB0029003A003B003C003D0081
:100360003E003F00530054005500560035001E006B
:100370001F0020002100220023005F0060006100B8
:1003800056002B0014001A0008001500170000008A
:100390005C005D005E005700390004001600070095
:1003A00009000A00000059005A005B005700E100F4
:1003B00064001D001B0006001900050062006200B9
:1003C00063005800E000E3000000E200A8002C00F9
:1003D000000040004100000042004300440045008E
:1003E00046004700480000002400250026002700A2
:1003F0002D002E002A002A004A00490000001C009F
:1004000018000C00120013002F00300031004D00C6
:100410004C0000000B000D000E000F0033003400F4
:10042000320028004B004E000000000011001000B8
:10043000360037003800E50021525200000000006D
:10044000000000002C006500E600E700E40050001A
:1004500051004F00000001000100010001000100F7
:100460000100010001000100010001000100010084
:100470000100010001000100010001000100010074
:100480000100010001000100010001000100010064
:100490000100010001000000010001000100010055
:1004A0000100010001000100010001000000010045
:1004B0000100010001000100010001000100010034
:1004C0000100010001000100010001000100010024
:1004D0000000010001000100000001000100000017
:1004E000010001000100010001000100007C00008A
:1004F00001000100010001000100010001000100F4
:1005000001000100000001000100010001000100E4
:1005100001000100010001000100000001000100D4
:1005200001000100010001000100010001000100C3
:1005300000000000010001000100010001000100B5
:1005400001000100000000000000000001000100A7
:100550000100010001000100010001000000010094
:100560000100010001000100010001000100010083
:100570000100010001000100010001000100010073
:100580000100010001000100010001000100010063
:100590000100010001000100010001000100000054
:1005A0000100010001000100010001000100010043
:1005B0000100010000000100010001000100010034
:1005C0000100010001000100010001000100010023
:1005D0000100010001000100000001000100010014
:1005E0000000010001000000010001000100010005
:1005F00001000100007C0000010001000100010079
:1006000001000100010001000100010000000100E3
:1006100001000100010001000100010001000100D2
:1006200001000000010001000100010001000100C3
:1006300001000100010001000000000001000100B4
:1006400001000100010001000100010000000000A4
:100650000000000001000100010001000100010094
:1006600001000100000005010902A1018502090144
:10067000A100050919012908150025019508750132
:1006800081020501093009311581257F9502750820
:10069000810609381581257F950175088106050CAD
:1006A0000A38021581257F950175088106C0C005AD
:1006B000010980A101850319012AB700150126B798
:1006C00000950175108100C0050C0901A101850488
:1006D00019012AA002150126A002950175108100BA
:1006E000C005010906A1018506050719E029E715DE
:1006F0000025019508750181020507190029EF15EC
:1007000000250195F075018102050819012905955B
:100710000575019102950175039101C00660FF09FD
:1007200061A1010962150026FF009520750881026C
:100730000963150026FF00952075089102C0050188
:100740000906A101050719E029E71500250195080B
:10075000750181029501750881010507190029FFBE
:10076000150026FF00950675088100050819012966
:1007700005950575019102950175039101C0090266
:100780005B00030100A0FA0904000001030101005D
:100790000921110100012240000705810308000121
:1007A00009040100020300000009211101000122D7
:1007B0002200070582032000010705030320000132
:1007C00009040200010300000009211101000122B7
:1007D000B60007058403200001120100020000009A
:1007E00008445612510002010200012003760069FC
:1007F000006B007400750073002F007300700031EF
:1008000000310031005F0076003200000022034218
:10081000006C0069006E00640041007300730061A9
:10082000007300730069006E003100310031000078
:1008300000040309040011241FBECFEFDAE0DEBF7D
:10084000CDBF04B603FE18C080910104909102044C
:10085000A0910304B09104048730904BA740B04BA3
:1008600059F41092010410920204109203041092A1
:100870000404E0E0F8E3099524E0ACE2B2E001C052
:100880001D92A130B207E1F712E0A0E0B1E0E6E985
:10089000F3E602C005900D92AC32B107D9F70E9481
:1008A000D80A0C94C9310C9400000E94DE1A2FEF74
:1008B00084E39CE0215080409040E1F700C00000BC
:1008C0009CE088E10FB6F894A895809360000FBE75
:1008D00090936000FFCFA7E1B0E0E1E7F4E00C9473
:1008E00012314B8B5C8B6D8B7E8B8F8B61111092D9
:1008F000390386E09E01235F3F4FD901E82F1D9207
:10090000EA95E9F795E0FE017396D90101900D9201
:100910009A95E1F79C894E895F897B897D879E87BF
:100920006F87598B488BF901DE01179601900D9264
:100930008A95E1F7CE0107960E94691881113EC0A1
:1009400086E0FE013796DE01119601900D928A95A0
:10095000E1F7FF81E8856A857B856115710531F0D6
:10096000EF3F31F481E0FF3F19F403C081E001C0A3
:1009700080E080FD23C02091E60230E0C9010196AD
:10098000877099274091170350E08417950779F1F4
:10099000F983EA837D836C8396E0929FD001939FD5
:1009A000B00D1124A951BD4FFE01319601900D9259
:1009B0009A95E1F78093E6020E94831716E08091F2
:1009C00017039091E6028917F9F0189FC0011124CE
:1009D00089519D4F0E9469188823B1F080911703B7
:1009E00090E001968770992780931703E8CF0E94C3
:1009F000DE1A1092E60210921703E0EEF2E086E0B3
:100A0000DF011D928A95E9F76796E3E00C942E3199
:100A1000ADE0B0E0EEE0F5E00C940331FC01808144
:100A2000918123813481232B31F09F3F31F491E078
:100A30008F3F19F403C091E001C090E090FDB4C570
:100A40007F0185E0DE01199601900D928A95E1F70C
:100A5000F701228189859A85222349F00E94F617A1
:100A6000182F682F89859A850E94341A03C00E9426
:100A7000001A182F69857A85812F0E940A1E8C0121
:100A8000F7018281882309F42DC1C8019757803866
:100A9000910508F049C1003108F034C18FEF93E0AF
:100AA0000E944A3181112EC13AE4A32E33E0B32EC5
:100AB000002379F0A114F4E0BF0609F423C1C501B5
:100AC0000E944A31811101C001502FEFA21AB20ACF
:100AD000EFCFCE0101962C0188E0F20111928A95A8
:100AE000E9F72AE0322E85010F5F1F4FC5010E94F2
:100AF0004A3189831A82882309F404C1813009F0BC
:100B000041C06501F2E0CF0ED11CC8010E944A31FC
:100B10008A83882309F4F6C09FEF980F933060F41E
:100B200023E0A20EB11CC6010E944A318B838823A8
:100B300009F4E8C01C8229C0843031F54E0133E04D
:100B4000830E911C02E010E056018FEFA81AB80A3C
:100B5000C6010E944A31F40181934F01882309F4B0
:100B6000D1C08C3741F4E2E0F0E0EC0FFD1FE00F64
:100B7000F11F10820AC00F5F1F4F6501073011057A
:100B800019F7C0C0580101C056018201F801208147
:100B9000222309F4A8CF213009F04CC08181813093
:100BA00049F46801F2E0CF0ED11CF80182810E9465
:100BB0001E1B0AC0823051F46801F2E0CF0ED11C36
:100BC000F80182810E94642E860189C0833049F435
:100BD0006801F2E0CF0ED11CF80182810E942E2E16
:100BE000F3CF843019F00F5F1F4F79C0F8012281D5
:100BF0000E5F1F4F80E090E030E0205331092A3033
:100C0000310568F4389EA001399E500D1124C901A8
:100C1000840F951F0F5F1F4FF8012081EDCF0097C4
:100C200009F45DC0EFE9FFE03197F1F700C0000083
:100C30000197F5CFE22FF0E0E253FE4F2490822F90
:100C400086958695869590E0FC01E254FE4F64906F
:100C50002770712C022E02C0759467940A94E2F7F3
:100C6000F1E06F227724FC01E255FE4F8490912C35
:100C7000022E02C0959487940A94E2F731E0832211
:100C80009924FC01E256FE4FC490D12C02C0D594A9
:100C9000C7942A95E2F781E0C822DD24611471042B
:100CA00019F081EE0E94642E8114910419F086EEF1
:100CB0000E94642E822D0E941E1B8114910419F043
:100CC00086EE0E942E2E6114710419F081EE0E94AE
:100CD0002E2EC114D10419F08CE20E941E1B0F5F4E
:100CE0001F4F54CFF801E851FC47E730F10508F0F9
:100CF00041C103C106E221EE41EE6AE17CE7C70192
:100D00000E94352580911803877009F44DC4F701BE
:100D10008281882309F448C480916E0382FF44C411
:100D200082E00E949B1A40C4F801E851FC47E7307A
:100D3000F10508F4E2C010926103C801905783974F
:100D400008F003C184E090E00E94583190936E0354
:100D500080936D03F801E150F047E232F10520F491
:100D6000EA5AFF4F0C94A63180916D038160ACC0AC
:100D700080916E038860B4C080916D038260A4C0CE
:100D800080916D0320C080916D0388609DC080912B
:100D90006E031EC080916E038260A2C080916D03BD
:100DA000806192C080916D0380628EC080916D03DE
:100DB00080648AC00E94DE1A80916D03806884C0BE
:100DC00080916D03886084607FC080916E03826033
:100DD000816086C080916D038E7F76C080916E03A6
:100DE000877F7EC080916D038D7F6EC080916D0383
:100DF00020C080916D03877F67C080916E031EC005
:100E000080916E038D7F6CC080916D038F7E5CC07E
:100E100080916D038F7D58C080916D038F7B54C08E
:100E20000E94DE1A80916D038F774EC080916D0312
:100E3000877F8B7F49C080916E038D7F8E7F50C0EE
:100E400080916D0382FB222720F991E0922790FB8D
:100E500082F990FB83F938C080916E03982F9095AA
:100E600091708E7F892B90FB81F93AC080916D0340
:100E700086FB222720F991E0922790FB86F924C077
:100E80000E94DE1A80916D0387FB222720F991E0F2
:100E9000922790FB87F918C061E001C060E08EE006
:100EA00090E00E946E311EC080916D0384FB22276A
:100EB00020F991E0922790FB84F906C080916D03A0
:100EC000982F909590FB80F980936D030BC08091D3
:100ED0006E0383FB222720F991E0922790FB83F990
:100EE00080936E0360916D0370916E0384E090E0D7
:100EF0000E948C310E94DE1A05CFE858FF4F0C94F7
:100F0000A63107E225EE45EE6BE17CE7F8CE06E27E
:100F100021EE40EE68E17CE7F2CE07E225EE44EEFA
:100F200069E17CE7ECCE06E221EE42EE6CE17CE783
:100F3000E6CE07E225EE46EE6DE17CE7E0CE08E284
:100F400021E045EE6EE17CE7DACE0631FCE71F07D3
:100F500009F08EC080913A038A7A91E009F490E01A
:100F600090932E02811116C069E28DE892E00E94F2
:100F7000A5240DC006312CE7120771F480912E02D2
:100F80008111D9C269E28DE892E00E947D240E941D
:100F90002E17B8CE65E3E9CF80913A038272F8014B
:100FA000E052F847E531F10508F054C0E158FF4F31
:100FB0000C94A6319091A20381E089278093A2032B
:100FC000109242018091E20381608093E2039ACE05
:100FD00047E25CE262E37CE22CC042E35CE267E26F
:100FE0007CE227C048EF5BE263E07CE222C043E0A2
:100FF0005CE268EF7BE21DC04CED5BE26AEE7BE2F7
:1010000018C04AEE5BE26CED7BE213C040EC5BE2A1
:101010006EEC7BE20EC04EEC5BE260EC7BE209C062
:101020004DE55AE26BE67AE204C04BE65AE26DE522
:101030007AE20E94472B66CE61E081E008C061E061
:1010400085E005C061E08BE002C061E08EE00E94B7
:101050000E2C58CE0737FCE71F0711F481E005C0BE
:1010600008372CE7120711F582E00E948E1A08C09B
:1010700007373CE7130709F060C281E00E94CF1AEE
:1010800043E062E081E00E946C1A3CCE03309CE7B2
:10109000190709F475C208F057C20115FCE71F07CC
:1010A00009F460C201301C4709F470C2F701828163
:1010B00000811181882349F0C8010E94F617D82EBB
:1010C000682FC8010E94341A04C0C8010E94001A87
:1010D000D82EB8018D2D0E940A1E0E94181EB82E0F
:1010E000192F982EF7010281A580A2949FE0A922D2
:1010F000809118038770E9F00023D9F0812F807F59
:10110000803451F080E28B0D883098F0A11004C03B
:10111000812F807E803269F080916E0382FF09C04A
:1011200082E00E949B1A809118038770DD24D3947B
:101130008111D12CC12EC2948FE0C8228C2D90E059
:101140008C30910508F0D8C1FC01EC56FF4F0C948F
:10115000A631812F807F1F70882311F01295107F98
:101160000023B9F0112309F4B5C180E28B0D88305A
:1011700010F0911006C090913A03192B10933A0386
:1011800005C090913903192B109339030E942E1733
:10119000A1C18B2D0E942E2E112309F4ADC180E236
:1011A0008B0D883088F1992079F110959091390351
:1011B0001923109339032BC0812F807F1F70803239
:1011C00011F01295107F8B2D992029F0F1E09F16D8
:1011D00009F441C04FC080916E0382FD1BC0002303
:1011E00069F0112339F090913A03192B10933A03C7
:1011F0000E942E1780E00E94642E7EC180E00E9433
:101200002E2E112309F478C1812F0E9427170E94E6
:101210002E1772C1002381F080913B03AA2051F068
:1012200021E0A21207C0182B181709F465C110930A
:101230003B0362C1812B16C0A11003C00E9421177D
:1012400031C031E0A31609F457C1812F0E940D1B54
:101250000E94211751C1002341F085E08A1508F44E
:101260004BC1812F0E94141B47C194E09A1508F4CA
:1012700043C118C0002349F0AA2099F3F7018581E2
:1012800080FF28C18F708583ECCFAA2059F0893365
:1012900009F02FC1FFEF27EE33E0F150204030403E
:1012A000E1F725C1812F0E940D1B26C1812F869554
:1012B0008695837019F0813061F01EC1002321F002
:1012C0008B2D912F937002C080E090E00E94FF244C
:1012D00019C1002321F08B2D912F937002C080E063
:1012E00090E00E94DA240EC1602F8B2D0E94562DB3
:1012F00009C1812F8370A9F5011102C14B2D4295BF
:1013000046954770440F440F8B2D8F7090E09C01E1
:10131000042E01C0220F0A94EAF7B4FE08C08FE041
:1013200090E001C0880F4A95EAF7809501C080E0FF
:10133000169516951370123069F088F490913C035D
:10134000113019F0822B892302C0922B892B0E9425
:10135000DB1AD6C0822B90913C038927F8CF822BD1
:10136000F6CF002319F0812F817001C08695882364
:1013700009F4C6C04B2D429546954770440F440F63
:101380008B2D8F7090E09C01042E01C0220F0A94D7
:10139000EAF7B4FE08C08FE090E001C0880F4A95DC
:1013A000EAF7809501C080E016951695137012300B
:1013B00059F078F490914D02113019F0822B892365
:1013C00009C0922B892B06C0822B90914D02892750
:1013D00001C0822B0E94691A93C01F70002339F04C
:1013E000812F0E94CF1A8B2D0E94141B89C08B2D38
:1013F0000E940D1B812F0E948E1A82C08B2D92EFAE
:10140000991681F1991538F0E0EF9E1659F0F1EF39
:101410009F1619F15BC023EF921659F134EF931622
:10142000C1F054C0002381F084E08A1508F464C040
:101430001F7181E090E0012E01C0880F0A94EAF745
:1014400090914D02892720C095E09A1508F454C068
:10145000EFCF80916E0382FD1AC0002329F0812F07
:101460008F7127C00023D9F3812F8F710E948E1AAC
:1014700043C0002341F01F7181E0012E01C0880F9D
:101480000A94EAF701C080E00E94691A35C000237F
:1014900099F01F71812F0E94CF1A80916E0382FFF5
:1014A00007C0E8E01E9FC0011124836080931803E9
:1014B000812F0E94CF1A20C081E00E949B1AF1E088
:1014C000FA15D0F482E00E949B1A16C0002321F086
:1014D000AA2029F28B2D8FCEAA2031F2893349F42C
:1014E0002FEF37EE83E0215030408040E1F700C01D
:1014F00000008B2D0E942E2E88EF8C0D843010F46E
:101500000E942425DD2009F44FC08091180380FD3E
:101510004BC0F70112828595859585950E94CF1A5B
:10152000C7010E94080580911803859585958595CA
:101530000E948E1A39C065E326CD08378CE718075C
:1015400009F0A4CD82E09ACD0B353CE7130741F1B9
:101550000C358CE71807E1F00A351C4709F0A6CDD9
:1015600081E01FC00E94DE1AEFEFF4E32CE0E150AF
:10157000F0402040E1F700C000000E94E323C2CB0E
:101580006FEF7FEF80E090E00E948C310E94550465
:1015900080916E0382FB882780F991E0892701C042
:1015A00080E00E94B81A82CD2D96E2E10C941F31A2
:1015B000AEE2B0E0EEEDFAE00C94033185B780685E
:1015C00085BF85B7806885BF84B7877F84BF0FB626
:1015D000F894A895809160008861809360001092D3
:1015E00060000FBE90E080E80FB6F8948093610031
:1015F000909361000FBE8DE39BE190932D02809349
:101600002C025098589A5198599A0E943D210E9454
:10161000E3218091E20084608093E20078948091DD
:1016200094038823A1F01091E9001F709091EC00C1
:10163000892F817090FD80E8182B1092E90080912D
:10164000E80083FD0E947A271F701093E90082E072
:1016500084BD93E095BD9AEF97BD80936E00109284
:101660002F021092300210923102109232020E9428
:101670002E2B811102C00E941E2B0E94451D8093BB
:1016800011010E94451D81110E94DC2E80911101E3
:10169000811138C086E0E3E4F1E0DE01919601902B
:1016A0000D928A95E1F7FE01B196ABE0B1E0CE0173
:1016B000879621912D938E179F07D9F7FE013196BA
:1016C0008BE0DF011D928A95E9F786E6898381EF39
:1016D0008A8384E38B8385E38C8382E98D8383E92A
:1016E0008E8385E98F8384E9888786E9898787E9FE
:1016F0008A87A0E0B1E0CE010C9621912D938E1740
:101700009F07D9F780911101882311F090E001C063
:1017100096E090934C0286E0891B80934B020BE08D
:1017200011E0F80181918F018F3F11F00E94691D36
:10173000F1E001311F07A9F700E011E03BE0E32EE3
:1017400031E0F32ED8018D918D018F3F11F00E9471
:10175000691DE016F106B1F788E1E8E6F2E0DF0185
:10176000282F1D922A95E9F7E3E3F2E0DF011D92AD
:101770008A95E9F70E944A1F811102C00E94A816AB
:1017800082E090E00E944A3180934E0284E090E033
:101790000E94583190936E0380936D030E947E1FC8
:1017A000BFEFE6E7F1E0B150E040F040E1F700C004
:1017B00000000E947E1F8091680280FF08C06FEFCA
:1017C0007FEF80E090E00E948C310E94E32383E071
:1017D00090E00E944A310E94DB1A1092A803E1ECCB
:1017E000F3E081ED93E02FEF3FEF219331938E17DC
:1017F0009F07D9F70E944A1F811104C00E94A816B2
:101800000E94AE1281E08093E20346E050E06CE17A
:1018100070E082EA93E00E943A311092E2038091F4
:10182000A2038C7F11F40E94AE120E94451D81110B
:1018300003C082E30E9439308FE090E00E94523171
:101840006C3071058105910549F44CE050E062E28D
:1018500070E085ED93E00E943A3107C08CE0E5ED41
:10186000F3E0DF011D928A95E9F782E191E0909320
:101870006503809364038E010F5F1F4F8091940373
:10188000853009F064C0B0E4DB2E83E0C82E90E11F
:10189000E92E22E1F22E80919403853009F051C0A7
:1018A00080919403843009F439C00E943E2C8091C9
:1018B000E10381110DC00E949313109241018091A8
:1018C000A2038370809340010E94792AC092420152
:1018D000B1E0B093E10310926803E8E1F0E00FB6E5
:1018E000F894A895E09360000FBED092600083B793
:1018F000817F846083BF83B7816083BF789488953C
:1019000083B78E7F83BF0FB6F894A895809160004F
:10191000886180936000109260000FBE80919303F5
:10192000882309F4B8CF0E947E1FE8E6F2E0819197
:101930009191892B09F04CC422E0E038F207B9F705
:10194000AACF0E94DE1A0E9424251092E1030E9471
:101950007E1FAFE42A2EA2E03A2E48E652E05DA7B1
:101960004CA7DA01F101219131918D919D9182274E
:10197000932752E0E736F50719F0892BA1F305C04C
:10198000892B19F40E94561FD8C00E94451D8EA7AE
:101990008EE991E098A78FA3612CACA5BDA54D90D1
:1019A0005D90BDA7ACA7F1018081918192012827AC
:1019B00039273AA729A7232B09F4B1C0C12CD12C70
:1019C000AA24A394B12C89A59AA58A219B21892BAD
:1019D00009F498C07201EA20FB203EA53323A1F050
:1019E000C9A26AA281E0E114F10409F480E08BA3AA
:1019F0000E9448248160782F9DA38CA349A15AA1FD
:101A00006BA18DA10E946B040E94451D882309F4DF
:101A100079C0EF2859F0EFA1F8A5EC0DFD1D8081EC
:101A20008F3F21F08BA77724739401C0712CE72C92
:101A3000F12C8091A803A701480F511D4930510591
:101A4000ACF158E0852E912C8E189F08B7016F5F7E
:101A50007F4F68557C4FA40189EA93E00E94C03112
:101A6000B701675F7F4F68557C4FA40181EB93E01E
:101A70000E94C031A401440F551FB701660F771FA4
:101A8000675E7F4F68557C4F81EC93E00E94C031C8
:101A9000B7016F5E7F4F68557C4FA40189EB93E0DF
:101AA0000E94C03188E087198093A8038091A80321
:101AB00090E05BA5A52FB0E09D01220F331F2E5DA6
:101AC0003D4FAA0FBB1FBD016D5D7D4F41E0480F2B
:101AD0009715B0F490E0FC01E855FC4FD9015C91FA
:101AE0005183DB015C915187BBA5B18B880F991F96
:101AF000FC01E855FC4F128E118E91E0842FE6CF49
:101B00008093A803AA0CBB1CEFEFCE1ADE0AFBE001
:101B1000CF16D10409F057CFD1014D925C92639456
:101B2000B2E02B0E311CEFA1F8A53B96F8A7EFA36E
:101B3000FCE06F1232CF0E943C240E94451D0E949F
:101B40003E2C86E0E7E8F2E0D80101900D928A95FC
:101B5000E1F71092890210928A0210928B02109281
:101B60008C028B81811104C08C81882309F453C0BD
:101B700080918502909186020E942D249C01909173
:101B80008002992309F443C32531310508F443C089
:101B90009F3F19F09F5F90938002FB80FF2061F0D0
:101BA0000E943E161F1414F491E001C09FEF899F1C
:101BB000802D112480938902FC80FF2061F00E9417
:101BC0003E161F1414F491E001C09FEF899F802DF1
:101BD000112480938A02309189023323E1F020910D
:101BE0008A022223C1F045EB3403C001112499235A
:101BF00019F09093890203C051E05093890235EBAC
:101C00002303C0011124992319F090938A0203C081
:101C100041E040938A028D81811104C08E81882326
:101C200009F453C080918302909184020E942D2474
:101C30009C0190918102992309F4EEC2213531056E
:101C400008F443C09F3F19F09F5F90938102FD808D
:101C5000FF2061F00E941C161F1414F491E001C0D3
:101C60009FEF899F802D112480938B02FE80FF209F
:101C700061F00E941C161F1414F491E001C09FEF44
:101C8000899F802D112480938C0230918B02332305
:101C9000E1F020918C022223C1F055EB3503C00105
:101CA0001124992319F090938B0203C081E0809353
:101CB0008B0235EB2303C0011124992319F0909373
:101CC0008C0203C041E040938C0246E050E0B80132
:101CD00087E892E00E94B331892BA9F480918902B0
:101CE00081110FC080918A0281110BC080918B02FB
:101CF000811107C081E090918C02911103C080E0B6
:101D000001C081E080FD0E945E1686E0F801A7E830
:101D1000B2E001900D928A95E1F70E9424259091FE
:101D20006702891721F0809367020E943C2480910A
:101D30009403843009F0A2CD83E08093E900809180
:101D4000E80082FF9BCD8091E80085FF21C00E94C2
:101D50005C2181111BC050E2C52ED12C780109C035
:101D60008091F100D7018D937D01B1E0CB1AD108AC
:101D700069F08091E80085FDF3CF8091E8008B77D2
:101D80008093E8000E945C21882399F391E001C0D0
:101D900090E08091E8008B778093E800992309F424
:101DA0006DCD2981822F90E0FC013197E331F1055F
:101DB00008F005C2E056FF4F0C94A6311A828CE061
:101DC0006AC18A81823009F419C250F4813009F065
:101DD000F6C10E943C249B838C837D836E83F1C17A
:101DE000833041F0843009F0EAC11B821C821D82DD
:101DF0001E82E7C16B81D80180E090E0262F30E0A1
:101E0000A901480F591F4C30510508F0DAC1E62FDF
:101E1000E80FF0E0EE0FFF1FE859FD4F40815181C0
:101E200013965C93139714964C93149701961296FD
:101E30008E30910529F7C5C18A81823061F08530E5
:101E400009F0BDC18091A203E1E08E278093A20337
:101E500010924201B6C16B817C818D819E810E946E
:101E6000AC310E94FA2AADC14C816B818A810E94FB
:101E7000C92A9D83CAC12D813E813227232732275B
:101E80004C816B818A810E949F2A9BC10E94AE2552
:101E900098C18A81833009F07CC0283009F443C09E
:101EA000293009F46BC08B818230D1F070F481301D
:101EB00009F087C14C8126E9429F412D1124809170
:101EC000A30320E06091A4032AC0833021F1843071
:101ED00009F077C18C8120E04091A5036D811FC07E
:101EE0008C819091A203811109C0892F837011F018
:101EF000109242019C7F9093A20363C1292F23700B
:101F000011F4109242019C7F91609093A20360E0D3
:101F10000E940E2C56C18C818093A60352C190E082
:101F20000E94AD2B4EC18B818230D9F078F4813084
:101F300009F047C18091A503FFEF8F9FC0011124D5
:101F400066E970E00E94EF306C833BC1833099F00A
:101F5000843009F036C18091A3038C838091A4035F
:101F60008FC08091A203982F937019F08695869563
:101F700065C080E063C08091A60360C046E050E089
:101F80006CE170E082EA93E00E945E311092E2031D
:101F900018C1811114C1283009F441C0293009F455
:101FA00071C0EB818E2F90E0FC013197E930F10593
:101FB00008F007C1ED54FF4F8C810C94A63191E0DD
:101FC000811101C090E09093D803FBC08093D703A8
:101FD000F8C08093D5038D818093D603F2C091E041
:101FE000811101C090E09093DC03EBC08093DB0390
:101FF000E8C08093D9038D818093DA03E2C091E039
:10200000811101C090E09093E003DBC08093DF0377
:10201000D8C08093DD038D818093DE03D2C0EB8135
:102020008E2F90E0FC013197E930F10508F0C9C02E
:10203000E454FF4F0C94A6318091D8038C83C1C027
:102040008091D703FBCF8091D5038C838091D603F9
:1020500017C08091DC03F2CF8091DB03EFCF80913A
:10206000D9038C838091DA030BC08091E003E6CF23
:102070008091DF03E3CF8091DD038C838091DE03C9
:102080008D839FC085ED93E00E94351F9AC080E14B
:102090004FC01A8286EB8B8394C0EA80FB80FE24BB
:1020A000EF24FE24AC80B12C6801C701865B9C4FF5
:1020B0009601201B310B2A153B0508F082C026EB48
:1020C000E216F10430F40E944A31D60114968C9342
:1020D00002C0F6011482FFEFEF1AFF0A2FEFC21AB7
:1020E000D20AE3CFEA80FB80FE24EF24FE24AC80FA
:1020F000B12C6801C701865B9C4F9601201B310BF8
:102100002A153B0508F05DC036EBE316F10428F410
:10211000D60114966C910E946E31BFEFEB1AFB0A48
:10212000EFEFCE1ADE0AE6CF0E949E254AC083E07A
:102130008A8347C0EA80FB80FE24EF24FE24AC8023
:10214000B12C6801C701C2969601201B310B2A15DC
:102150003B05B8F5F8E1EF16F3E0FF0630F40E9416
:102160004A31D60114968C9302C0F6011482FFEF17
:10217000EF1AFF0A2FEFC21AD20AE4CFEA80FB80DF
:10218000FE24EF24FE24AC80B12C6801C701C29666
:102190009601201B310B2A153B0598F438E1E31614
:1021A00033E0F30628F4D60114966C910E946E3148
:1021B000BFEFEB1AFB0AEFEFCE1ADE0AE7CF8FEF85
:1021C000898340E250E0B80182E00E94732356CB3D
:1021D000E9BCF9BC09B400FEFDCF8091D8008F7D29
:1021E0008093D8008091E00082608093E00080912D
:1021F000E00081FDFCCF0E94DE1A4DCB81E390E030
:102200000E944A311B821C821D828E83DACF2B30C2
:10221000310508F0BFCCFFCC2B30310508F014CDD0
:1022200054CD0F931F9310E0F801EE0FFF1FEE5DEA
:10223000FD4F9081905797FD9195000F111FF80168
:10224000ED5DFD4FE081F0E0B097DF01AA0FBB1F0D
:102250008D010E0F1F1F2003D001219FB00D1124EF
:10226000E8E3F0E0E91BF10997FDF3959F01220FE8
:10227000331F89010E0F1F1F40039001419F300D36
:1022800011242A0F3B1F37FF02C021583F4F220F56
:10229000232F221F330B620F1F910F9108950F936D
:1022A0001F93522F10E0F801EE0FFF1FED5DFD4F61
:1022B000E081F0E0B097EE0FFF1F9F015203D001C5
:1022C000539FB00D1124000F111FF801EE5DFD4F5B
:1022D000008110E000571109000F111F4003900109
:1022E000419F300D11242A0F3B1F37FF02C0215898
:1022F0003F4F220F232F221F330B620F1F910F918D
:1023000008950F931F93522F10E0F801EE0FFF1F57
:10231000ED5DFD4FE081F0E0B0979F015203D001E9
:10232000539FB00D1124000F111FF801EE5DFD4FFA
:10233000008110E00057110940039001419F300DCA
:1023400011242A0F3B1F37FF02C021583F4F220F95
:10235000232F221F330B620F1F910F910895A22F7D
:1023600050E0FA01EE0FFF1FED5DFD4F908190529E
:1023700097FD9195440F551FFA01EE5DFD4F308199
:10238000232F30E02A1B3109290F311D97FD3A9583
:10239000620F0895E42FF0E0EE0FFF1FED5DFD4F9B
:1023A0006081621B0895E42FF0E0EE0FFF1FEE5DE9
:1023B000FD4F6081621B0895622F08950E94452A97
:1023C0000895FC019B01009721F477FF2BC080E862
:1023D0000895AC0197FF04C044275527481B590BAB
:1023E000B901640F751F37FD0CC0241B350BC901E3
:1023F000A5E0880F991FAA95E1F70E94923180E22B
:102400000CC0CB0165E0880F991F6A95E1F7BA010E
:10241000621B730B0E94923180E6861BF7FF03C09C
:102420008195089580E00895EF920F93CF93DF9305
:10243000D72FC82FC9010E19BA010E94E111602FD0
:10244000681B7D2F8C2FDF91CF910F91EF90089516
:102450000F93CF93DF93D72FC82FC901BA010E94E2
:10246000E111682F600F7D2F8C2FDF91CF910F919D
:102470000895EF920F931F93CF93DF93D62FC72F1B
:10248000182FC9010E19010FBA010E94E111081B92
:10249000202F219F212D1124822F6D2F7C2FDF9142
:1024A000CF911F910F91EF900895EF920F931F938B
:1024B000CF93DF93D62F172FC82FC9010E19070FFF
:1024C000BA010E94E111702F781B719F712D1124A8
:1024D0006D2F8C2FDF91CF911F910F91EF90089569
:1024E000FF920F931F93CF93DF93F62ED72F182FC2
:1024F000C901C12FC01BBA010E94E111982F990F89
:10250000890FC81B2C2F219F212D1124822F6F2D65
:102510007D2FCDB7DEB7E5E00C942C31FF920F9301
:102520001F93CF93DF93F62E172FD82FC901C72FF4
:10253000C01BBA010E94E111982F990F890F7C2FBF
:10254000781B719F712D11246F2D8D2FCDB7DEB7A4
:10255000E5E00C942C310E94512A0895E2EAF3E060
:102560008DE280838091490190914A01A0914B01B5
:1025700081839283A3838FE784838FEF858346E0F3
:1025800050E06CE170E0CF010E945E311092E203F6
:102590000895482F982F46FD9095E92FEF739F706F
:1025A00046FD9F5FE295EF70EE0FF0E0E45BFE4FBB
:1025B0002181299F802D212D112482958F702295B4
:1025C000207F822B3081982F930F892F47FD819593
:1025D0008058089540911A0150911B0125E038E080
:1025E000429FC001439F900D529F900D1124875E22
:1025F000994C90931B0180931A01890F089520E054
:1026000030E0869F212D969F200D311D1124C90198
:102610000895A0E0B0E0EFE0F3E10C940D31F62E68
:10262000472FE82FF0E0711106C0E25BFD4F849167
:10263000782F682F73C0272F30E0E25BFD4FE491C5
:10264000FE2F0E2F10E056E0659FC0011124CFEF42
:10265000D0E0BE010E94EF305BEA5603C001579FF5
:10266000900D11248F0D911D8F0D911D982F990F95
:10267000980F7E01E21AF30AE09ED001E19EB00DB0
:10268000F09EB00D11248B2F499FA0011124452FDE
:1026900055277E01E41AF50AE09EA001E19E500D47
:1026A000F09E500D11246E01C91AD108C29E70010E
:1026B000C39EF00CD29EF00C11242F2D3327C21B89
:1026C000D30BC09F9001C19F300DD09F300D1124BE
:1026D000932F6230710591F048F461157105E1F0B6
:1026E00061307105B9F49E2FE52F16C06430710575
:1026F00069F040F06630710579F00CC09E2FEB2F29
:10270000832F0AC0EB2F8F2F952F06C09B2F8E2F64
:10271000E32F02C09B2F852F7E2F692FCDB7DEB709
:10272000E8E00C942931A0E0B0E0E9E9F3E10C9491
:102730000C31C82F809141018C130DC02091A20350
:10274000237030E04091400150E081E024173507CC
:1027500019F480E001C081E0817080933F01809195
:10276000A70390913E01981739F080933E0140E015
:1027700060E080E00E94DE11CA3071F48CED91E1DE
:1027800008C0CE3008F096C1CB3009F08DC183ED82
:1027900091E10E941D2723C0CB3008F071C1C430E5
:1027A00091F108F00FC1C13009F067C0D0913D012F
:1027B00011E01D0F143008F013E06091A303709135
:1027C000A4038091A5030E940913062FF72EE82E7B
:1027D000D11708F45FC081E0133008F059C0909120
:1027E0003D019F5F90933D01811121C282E0809362
:1027F000420180913F0181111AC2C11118C283E0C8
:102800008093420114C2D0913D0111E01D0F14309C
:1028100008F013E0D090A403C090A5032091A60374
:1028200000E4029F012D1124D117A8F6ED2EF12C02
:10283000F701E85DFD4F908180913E018923D9F039
:10284000F701EE0FFF1FEE5DFD4F6081069FB001A7
:10285000112445E0759567954A95E1F78091A303AA
:10286000680F7D2D8C2D0E940913462F282F672F6E
:10287000C7010E94AB12DF5FD7CFC130E8F480916F
:102880003F01882329F040E060E080E00E94DE11F3
:1028900080E0A5CFED2FF0E0DF01A85DBD4F8C916A
:1028A00090913E01982331F02E2D402F6F2DCF01B6
:1028B0000E94AB12DF5F8CCFD0913D01C230B1F5E9
:1028C00011E01D0F143008F013E0F090A403009104
:1028D000A503E090A303B701802F0E940913D62E11
:1028E000C72EB82E6091A6036E0D7F2D802F0E94FB
:1028F0000913062FF72EE82ED11708F06CCF8D2F75
:1029000090E0FC01E85DFD4F308120913E012323E2
:1029100059F030FF04C02E2D402F6F2D03C02B2DFA
:102920004D2D6C2D0E94AB12DF5FE6CFC33009F056
:1029300043C011E01D0F143008F013E0D090A40341
:10294000C090A5032091A60300E4029F012D11244D
:10295000D11708F040CFED2EF12CF701E85DFD4FC7
:10296000908180913E018923B9F0F701EE0FFF1F9E
:10297000ED5DFD4F808182958F706091A303809FF4
:10298000600D11247D2D8C2D0E940913462F282FB8
:10299000672FC7010E94AB12DF5FDACFC13108F4A5
:1029A0007DC0C33109F491C008F470C0C43109F48A
:1029B000D1C0CF3F09F40AC180913D018F5F809360
:1029C0003D0114CFC73019F480E792E109C0C83047
:1029D00008F049C0C53039F0C63071F78EE892E191
:1029E0000E94CB26FCCED0913D0111E01D0F14308A
:1029F00008F013E0F090A3030091A403E090A50376
:102A00006091A60366956695669580919E03909168
:102A10009F030E94FF120E94C912805887FD819572
:102A2000880F282F3E2D239F212D1124822F6F2DBB
:102A3000702F0E940913062FF72EE82ED11708F0E9
:102A4000CACEED2FF0E0DF01A85DBD4F8C919091D3
:102A50003E01982331F02E2D402F6F2DCF010E9483
:102A6000AB12DF5FEBCFC83019F485E592E105C00A
:102A7000C93009F0A1CF89E392E10E943526AFCE9B
:102A8000C03109F08BCF81E891E105C0C13109F077
:102A90005BC08FE491E10E94E425A1CECD3009F026
:102AA00070CE8FEA91E175CECC3009F085CF8AECFB
:102AB00091E16FCECE3019F488E292E191CFCF3020
:102AC00009F07ACF84E192E1D8CF00913D01D1E0C5
:102AD000D00FD43008F0D3E080913F01811121C0A4
:102AE0006091A60320E1620F08F46FEF80919E03CE
:102AF00090919F030E94FF126AE070E00E94EF3005
:102B0000892BE9F40E94EA1293E0899F9001112435
:102B100060913E01832F932F990F990B0E94722B86
:102B20000EC010E0ED2EF12C0E151F0544F460913F
:102B30003E01C8010E94722B0F5F1F4FF5CF81E04D
:102B4000D33008F44CCEA4CEC23109F035CF81E1A8
:102B500091E1A1CF80913F01811122C06091A60334
:102B600020E1620F08F46FEF80919E0390919F0324
:102B70000E94FF1265E070E00E94EF30892B09F09F
:102B800087CE0E94EA1293E0899F90011124609100
:102B90003E01832F932F990F990B0E944E2B78CED5
:102BA00000913D01D1E0D00FD43008F0D3E010E027
:102BB000ED2EF12C0E151F050CF0C1CF60913E01DA
:102BC000C8010E944E2B0F5F1F4FF4CF80919E03D0
:102BD00090919F03A091A003B091A10388279C70BE
:102BE000AA27BB272AE0B695A795979587952A959A
:102BF000D1F782309105A105B10571F083309105BF
:102C0000A105B10569F040E00197A105B10511F0FA
:102C100060E008C064E102C044E160E080E003C01D
:102C200044E164E184E10E94DE1182E0E9CDCDB7A8
:102C3000DEB7E9E00C9428318091820280FD16C055
:102C400081FD16C082FD18C080918102882391F019
:102C5000883290F428E0829FC001112468E270E07D
:102C60000E949231862F672B29F007C082E00895D9
:102C700084E0089581E0089588E0089580918202BB
:102C800080FD14C081FD14C082FD16C080918002B9
:102C9000882381F08E3180F420E5829FC0011124C9
:102CA0006EE170E00E949231862F089584E10895CC
:102CB00088E2089588E0089580E508950E944824F8
:102CC00020918902211104C020918A02222321F03F
:102CD000909386028093850220918B02211104C07B
:102CE00020918C02222321F090938402809383020E
:102CF000E0916403F0916503309749F082E080939E
:102D000087020480F581E02D87E892E00995089517
:102D1000209117039091E60256E02917A9F030E0C0
:102D2000529FF001539FF00D1124E951FD4F718125
:102D3000761306C07081781303C07281741306C0C5
:102D40002F5F3F4F2770E9CF80E0089581E008951D
:102D5000ACE0B0E0EEEAF6E10C94133167EE7EEF02
:102D600080E090E00E948C3160E082E090E00E9480
:102D70006E3160E083E090E00E946E3110923C037F
:102D800060E074E184E090E00E948C3160E086E0D5
:102D900090E00E946E316FEF87E090E00E946E310C
:102DA00040E050E0BA0188E090E00E94803160E0AD
:102DB0008DE090E00E946E3140E050E0BA0188E181
:102DC00090E00E94803160E087E190E00E946E31E7
:102DD00040E050E0BA018CE190E00E94803160E078
:102DE00070E080E290E00E948C3140E050E0BA0157
:102DF00088E190E00E948031CE0101962CE0FC0138
:102E000011922A95E9F70E94351F80E00E94FF2A5F
:102E10000E941E2BE5EDF3E01082118296E9928369
:102E200081E08383148215829683878310861186BE
:102E300092878387CF010E94351F2C96E2E00C9485
:102E40002F3180913B03811110923B0308958095AF
:102E500090913A03892380933A03089590913A031D
:102E600080913903982B90938D0280913B038823A6
:102E7000D9F0892B80938D0280913C01882331F019
:102E800080916D0387FF02C08EE101C086E0EFE80C
:102E9000F2E090E0815028F021912223D9F39F5F46
:102EA000F9CF91110E94211740E250E069E173E0EF
:102EB0008DE892E00E94B331892B21F180E2EDE8A8
:102EC000F2E0A9E1B3E001900D928A95E1F7E0917B
:102ED0006403F09165033097A9F080913C01882349
:102EE00059F080916D0387FF07C080918D02809318
:102EF0008E0286E080938D020280F381E02D8DE8C2
:102F000092E009950895809117039091E602891740
:102F100019F08F5F8770FBCF08950F931F93CF93A6
:102F2000DF938091E50282958F7009F05AC08091FD
:102F3000E202882309F455C0809117031091E6023C
:102F40006091E0027091E102C091E302D091E4024D
:102F500091E06F3F09F090E0292F06E0811709F416
:102F600040C0209721F07F3F21F030E003C031E0E6
:102F700001C0322F90E030FD31C0089FF001099F61
:102F8000F00D1124DF01A951BD4F11963C9111970D
:102F9000371324C03C91361321C012963C911297EE
:102FA00031111CC013964D915C9114974C1B5D0B15
:102FB000483C510598F48091E5028F7080618093C0
:102FC000E502E451FD4F80818F708061808380EE47
:102FD00092E00E9408050E94831703C00196877043
:102FE000BDCFDF91CF911F910F910895CF92DF92C6
:102FF000FF920F931F93CF93DF936C0100914D02CB
:1030000080913C03082BC2E0D0E010E0C8010C2EF8
:1030100002C0959587950A94E2F780FD04C0219738
:10302000A8F7F12C09C0FC2EB6018C2F0E940A1EB5
:103030000E94181E019799F38F2DDF91CF911F9158
:103040000F91FF90DF90CF900895CF93DF93EC0125
:103050000E94F617BE010E940A1E0E94181EDF91F0
:10306000CF910895CF93FC01808191812381348198
:10307000232B31F09F3F31F491E08F3F19F403C0CF
:1030800091E001C090E0C92FC17090FD1CC080810B
:1030900091810E94251892959F70963079F010F4D6
:1030A000925001C09A50923088F4803F71F018F429
:1030B000883E60F40AC0843F49F407C0883E28F087
:1030C000813F21F402C0C0E001C0C1E08C2FCF914C
:1030D0000895A1E1B0E0EFE6F8E10C9409318C012C
:1030E00085E0F801DE011D9601900D928A95E1F7C9
:1030F000F801E2809091E0022091E1024091E30228
:103100005091E4024115510531F02F3F31F481E037
:103110009F3F19F403C081E001C080E080FD51C1F0
:10312000F801D080C180A380B48080EE882E82E038
:10313000982EF090E202B501641B750BFF2009F494
:10314000FDC08091E502382F307F683C710508F0A2
:10315000C7C0311188C02C1111C09D110FC0FE2CA9
:10316000E1100CC08F7080618093E502C4010E9461
:1031700008058091E502F80185833DC1A114B104E1
:1031800039F0FFEFCF1206C081E0DF1203C003C0A9
:1031900081E001C080E080FD03C081E08E2502C097
:1031A00080E090E080FF05C04E2D6C2D8D2D0E949B
:1031B0008816A114B10439F02FEFC21206C081E0C5
:1031C000D21203C003C081E001C080E080FD03C0D3
:1031D00081E08E2502C080E090E0682F6170B62EFD
:1031E00080FF37C04E2D6C2D8D2D0E948816F82E35
:1031F00081112FC0DD86CE868D859E850E94251883
:10320000292F22952F70243020F49F70223028F02F
:1032100009C02A50223088F017C0992351F081113B
:1032200008C0E9C0992329F0F8019581907F09F43D
:10323000E2C0805E883040F4DEC0803F08F4DBC02E
:10324000815F833008F4D7C0C8010E940805FB2CB9
:10325000D2C0FE2CEE2009F4CEC08091E502816040
:103260008093E50248C02C1106C09D1104C0E110F6
:1032700002C0F80185C0C8010E943218882351F1AC
:10328000EE2041F12091E502822F82958F7090E02F
:10329000029774F08091E0029091E10298878F8309
:1032A0001986BB86AA862C87CE0107960E94080540
:1032B00086E0F801A0EEB2E001900D928A95E1F768
:1032C0000E948D170AC02C15C1F0C8010E94321847
:1032D00081111DC0C8010E940805FF24F3948BC012
:1032E0003111F1CF80EE92E00E94080586E0F401F2
:1032F00011928A95E9F7F12C7EC09D11E6CFE1107D
:10330000E4CFF8018583C8010E94080554C0EE206F
:1033100009F32091E502822F82958F7090E0029749
:103320003CF28091E0029091E1029A8389831B82B2
:10333000BD82AC822E83CE010196B8CF683C710568
:10334000D0F5FE2CEE2031F22C1127C09D1125C0A6
:103350002091E50220FD18C0822F82958F70482FA2
:1033600050E04115510581F0F80125834F3051059A
:1033700041F08F5F982F9295907F822F8F70892BCD
:103380008583C8010E94080586E0F801A0EEB2E03E
:1033900001900D928A95E1F72EC0C8010E94321863
:1033A000811186CF8091E50281608093E502C8019A
:1033B0000E94080520C086E0F40111928A95E9F781
:1033C0001AC0EE2009F486CFC8010E943218F82EE8
:1033D000882309F47FCF86E0F801A0EEB2E00190E7
:1033E0000D928A95E1F78091E0029091E1020E94AE
:1033F00025180E948D178F2D6196ECE00C942531D5
:10340000292F9C3078F58B3068F590E03BE0239FC6
:10341000800D911D1124682F677023E09695879584
:103420002A95E1F7FC01EE0FFF1FE80FF91FE355A6
:10343000FD4F40E050E080E0219130E0062E02C0D8
:10344000369527950A94E2F721703327042E01C0A0
:10345000220F0A94EAF7822B4F5F5F4F43305105EA
:1034600059F7089580E00895292F9C3088F58B3016
:1034700078F590E03BE0239F800D911D1124282FCB
:10348000277051E001C0550F2A95EAF723E0969581
:1034900087952A95E1F7FC01EE0FFF1FE80FF91F52
:1034A000E355FD4F20E030E070E04081CB01022E7B
:1034B00002C0969587950A94E2F7817081958427DA
:1034C0008523842781932F5F3F4F2330310569F790
:1034D000089580934D02089590914D0221E030E0CF
:1034E000F90101C0EE0F8A95EAF7D90102C0AA0FCF
:1034F000BB1F6A95E2F7BD016E2B01C0220F4A95F2
:10350000EAF7892F8623681303C0892F822B03C013
:103510002095822F89230E94691A089521E030E0C6
:1035200001C0220F8A95EAF7209580914D028223EF
:103530000E94691A08952091180380958223809330
:103540001803982F977099F430E0482F082E000C3C
:10355000550B2417350759F090916E0392FF07C061
:103560008595859585950E948E1A10921803089569
:1035700090916E0392FB222720F9281779F080FBA7
:1035800092F990936E0360916D0370916E0384E0E5
:1035900090E00E948C3182E00E949B1A089521E005
:1035A00030E001C0220F8A95EAF780914D02822B0C
:1035B0000E94691A089580933C03089510923A037B
:1035C00080913C01882331F080916D0387FF02C018
:1035D0008EE101C086E0EFE8F2E0DF011D928A95FE
:1035E000E9F780E090E00E94FF2480E090E00E94F4
:1035F000DA24109239030E942E17E7E8F2E086E001
:10360000DF011D928A95E9F71092800210928102E3
:10361000109282020E945E160895882321F00E9473
:1036200027170E942E170895882339F090913A03A6
:10363000892B80933A030E942E1708951F93CF93EE
:10364000DF93182F893319F0C0E0D0E002C0C0E545
:10365000D0E0812F0E94642E209741F08FE99FE0F7
:103660000197F1F700C000002197F6CF812F0E944B
:103670002E2EDF91CF911F91089580E008959091B3
:103680006D0392FF0DC0282F2871283019F4877F11
:10369000846006C0282F2471243011F48B7F886049
:1036A00093FF0DC0282F2871283119F4877E84617B
:1036B00006C0282F2471243111F48B7E886120915B
:1036C0006E0320FF0DC0382F3871383019F4877F12
:1036D000816006C0382F3171313011F48E7F8860DF
:1036E00021FF0DC0282F2871283119F4877E8161B0
:1036F00006C0282F2171213111F48E7E886194FD3E
:10370000877E08958238910569F1B0F4813391057F
:1037100009F475C048F48932910509F467C08A320A
:10372000910509F471C008958533910509F459C0D4
:1037300089339105B9F00895833E910589F138F4F4
:10374000803E9105D1F0823E910529F10895863E93
:103750009105C9F1873E9105D9F1843E910509F0A3
:103760006CC027C020916D0320FD57C021FD55C0BE
:1037700020916E0323FD5BC0089580916D0380FD51
:1037800048C080916E0380FF48C080916D0384FD26
:1037900046C083EE51C080916D0382FF3CC0F5CFDF
:1037A00080916D0382FD37C080916E0380FD35C02E
:1037B000ECCF80916E0381FF36C080916D0384FD54
:1037C0002EC087EE39C080916D0383FF2AC0F5CFEC
:1037D00080916D0383FD25C080916E0381FD23C020
:1037E000ECCF80916D0385FD22C01FC080916D03D9
:1037F00085FD1BC080916E0383FF19C00AC08091B4
:103800006D0386FD16C017C080916D0386FD13C041
:1038100010C089E311C082EE0FC080EE0DC080E0C1
:103820000BC086EE09C084EE07C085E305C089E2BF
:1038300003C08AE201C081E390E00895A0E0B0E017
:10384000E4E2FCE10C940B317C015B016A018091A4
:103850005E038A3018F001E010E002C00AE010E0D8
:10386000C1E0D0E0B501C701F6010995811115C08D
:1038700021960C171D0794F0CC9F9001CD9F300D21
:10388000300D112480E090E045E34A95F1F7000007
:10389000019682179307C1F7E5CF81E0CDB7DEB778
:1038A000EAE00C942731A0E0B0E0E9E5FCE10C94FB
:1038B0000631582E6901580198E08902E00111246F
:1038C0004115510541F4FE01E45EFE4F868197816A
:1038D000892B11F534C0FE01E45EFE4FE080F12C2F
:1038E0004E155F0508F47A01FE01E45EFE4F81800B
:1038F0009280C40181519C4F3C01A7010E94C031BC
:1039000004E610E09701A301682D82E30E94CC2F0A
:1039100097FFD9CF80E037C05092EF0360911D012F
:1039200070911E0120911C0130E0AB0141515C4FB0
:1039300004E610E082E30E94CC2F97FDEBCFA114A8
:10394000B10401F1FE01E45EFE4FE380F12CAE1400
:10395000BF0408F47501C45EDE4F6C817D81AB014C
:1039600041515C4F04E610E0970182E30E94F32F7F
:1039700097FDD0CF6C817D8161517C4FA701C6013D
:103980000E94C03181E0CDB7DEB7EFE00C94223168
:10399000ADE0B0E0EEECFCE10C940F317B0101E016
:1039A00010E09E01235F3F4F40E050E060E070E098
:1039B00081E00E94531C182F882309F445C04091D0
:1039C00056035091570360915803709159032FB7D4
:1039D000F8948091690390916A03A0916B03B09170
:1039E0006C032FBF841B950BA60BB70B8436910578
:1039F000A105B10538F481EF93E00E9463279D850E
:103A0000891711F10CE010E09E012F5F3F4F40E05D
:103A100050E060E070E082E00E94531C182F81EFBC
:103A200093E00E94632791E02D85281390E01923ED
:103A3000F9F00E943C2460935603709357038093DF
:103A400058039093590309C08CE0E1EFF3E0DE01E5
:103A5000119601900D928A95E1F7112349F08CE0BF
:103A6000FE013196AAE4B3E001900D928A95E1F748
:103A70008CE0EAE4F3E0D70101900D928A95E1F73A
:103A8000812F2D96E6E00C942B3180914903811112
:103A900019C088EC90E02091E30027FD0AC0EFE315
:103AA000FCE93197F1F700C000000197A1F782E02F
:103AB00001C081E080934903823021F40E943D21BE
:103AC0001092940381E090914903913009F080E0D5
:103AD0000895F894E82FE295EF70F0E031A1282FD7
:103AE0002F7081E090E001C0880F2A95EAF7982FA7
:103AF0009095932391A392A1892B82A37894089502
:103B00000F931F930E94451D882319F00E943C24A7
:103B10000EC00E943C2400912F021091300220918F
:103B2000310230913202600F711F821F931F1F916B
:103B30000F910895A4E0B0E0E0EAFDE10C941131AA
:103B400040915A0350915B0360915C0370915D0357
:103B50002FB7F8948091690390916A03A0916B0349
:103B6000B0916C032FBF841B950BA60BB70B84364B
:103B70009105A105B10528F10E94801DDC01CB0152
:103B80000296A11DB11D89839A83AB83BC8300E09B
:103B900010E020E030E044E050E0BE016F5F7F4F76
:103BA00083E00E94531C182F882361F00E943C245C
:103BB00060935A0370935B0380935C0390935D035F
:103BC00001C011E0812F2496E4E00C942D31CF92B6
:103BD000DF92EF92FF926B017C010E94451D8823CA
:103BE00071F02FB7F8948091690390916A03A091C6
:103BF0006B03B0916C032FBFBC01CD0102C00E94CA
:103C0000801D6C197D098E099F09FF90EF90DF9050
:103C1000CF9008957C3048F46B3038F4833028F42A
:103C2000462F672F0E94C92A089580E090E00895EA
:103C30001F93CF93DF930E94821BEC01C11580E597
:103C4000D807E8F5C11590E4D90708F0A8C0C03E30
:103C5000D10530F5CD3CD10508F094C0C83AD10566
:103C600078F4C53AD10508F083C0C130D10509F414
:103C70007CC008F4F2C0C430D10508F0F1C0EDC03A
:103C8000C33CD10508F0E9C0C85AD0E0CC0FDD1F15
:103C9000C95ADE4F0990D881C02DCE019464E1C08D
:103CA000C11580E2D80708F0CBC0C11591E0D90753
:103CB00008F06BC0C83ED10508F4D2C0CEC0C036F3
:103CC00082E5D80728F5C03492E5D90708F079C015
:103CD000C03282E5D80708F06CC0C11592E5D9075B
:103CE00008F481C04C2F4695469580E2489FA0017C
:103CF0001124C37021E030E0C90102C0880F991F70
:103D0000CA95E2F7EA01C82BD92BCE019D68A9C05C
:103D1000C03A82E5D807B8F48C2F8F71C03892E58D
:103D2000D90708F07BC08695869590E2899F90011F
:103D30001124C37081E090E002C0880F991FCA95DA
:103D4000E2F79A6868C0C03C82E5D80708F46DC005
:103D5000C03E92E5D90708F080C0CF71DD27DC2F87
:103D6000CC27CE01806F906A7CC081E090E079C062
:103D7000C55AD0E0CC5ADE4F8881C82FD0E0CE01A2
:103D800090646FC0CE0190656CC08D2F0E943F1B68
:103D9000182FCE0199270E94821B1F715CC0CE0193
:103DA00099270E94821BCC27DF70D06A8C2B9D2B19
:103DB00058C0CF71D0E0DC2FCC27CE01816F906A44
:103DC00050C08C2F8F718695869590E2899F9001C7
:103DD0001124C37081E090E002C0880F991FCA953A
:103DE000E2F79C6818C08C2F8F710E943F1B95E0F2
:103DF000D695C7959A95E1F7CF70D0E0DC2FCC2708
:103E0000282F30E084FF05C084E0220F331F8A95FD
:103E1000E1F7D069CE01822B932B23C090E0D82FFD
:103E2000CC27CE01846F906A1CC08C2F8F710E94AA
:103E30003F1B8F7190E0D82FCC27CE01906211C02C
:103E40008D2F8F710E943F1B182FCE0199270E9442
:103E5000821B1F719062912B04C080E090E001C032
:103E6000CE01DF91CF911F910895CF93DF93EC01A5
:103E70004CE050E060E070E08FE090E00E94803124
:103E80004CE050E062E270E0CE010E945E31DF91D2
:103E9000CF91089580E090E00E945831873E9E4F78
:103EA00019F40E942E2B089580E00895A5E0B0E05B
:103EB000ECE5FFE10C9411310E9448248C018091C3
:103EC0003D0390913E0308171907A1F08FEF8983F6
:103ED0008A831B820E9448248160782F9D838C8373
:103EE00049815A816B818D810E946B0410933E033E
:103EF00000933D032596E4E00C942D31A4E2B0E05C
:103F0000E4E8FFE10C940531AE014F5F5F4F7A01A9
:103F100088E1DA011D928A95E9F70BE011E06A0168
:103F200061E1462E61E0562E66246394712CEBE02D
:103F30008E2EE1E09E2EF80180818F3F09F446C06D
:103F4000F894E82FE295EF70F0E021A18F70A301C3
:103F500002C0440F551F8A95E2F7CA01922F982B91
:103F600091A392A18095892382A3789400C0E0E078
:103F7000F1E021E030E0A12CB12C41914F3F89F0DC
:103F8000A42FA295AF70B0E090968C9190E04F7006
:103F900002C0959587954A95E2F780FD02C0C90158
:103FA00002C080E090E0A82AB92A220F331F8E16A3
:103FB0009F0619F7D8018C918F3F11F00E94691D5F
:103FC000B0EABA95F1F7F601B182A0820F5F1F4FF8
:103FD000F2E0CF0ED11C4016510609F0ACCF48E1FB
:103FE00050E0B70183E392E00E94B331009741F0C3
:103FF00028E1F701A3E3B2E001900D922A95E1F7E1
:1040000000914C02892B49F081E0809341030E948A
:1040100048249093400380933F0380914103811192
:1040200002C0F12C24C080913F03909140030E9474
:104030002D240597B0F310E0000F111F08591D4FF4
:104040004CE050E063E372E0C8010E94B331892B79
:1040500059F08CE0E3E3F2E0D80101900D928A95EB
:10406000E1F7FF24F39401C0F12C109241030E9468
:10407000451DE0914C02882309F45CC06E0129E1E2
:10408000C20ED11C8CE0D6011D928A95E9F70E2F45
:1040900010E0000F111F08591D4F80915E038A30F8
:1040A00048F448EC5CE1B601C8010E941E1C88235C
:1040B00099F00AC080914203909143030E942D24FD
:1040C000843F914070F71AC04AE95DE1B601C8012A
:1040D0000E941E1C811175C080915E038F3F19F0F4
:1040E0008F5F80935E0380915E038A3008F46BC01B
:1040F0000E94482490934303809342038091480395
:10410000882309F458C08CE0F60111928A95E9F7EA
:1041100010924803A0914B02B0E0AA0FBB1FA85910
:10412000BD4F8CE0FE01799601900D928A95E1F7E2
:1041300081E042C0F0E0EE0FFF1FE859FD4F8CE038
:10414000A1EFB3E001900D928A95E1F781EF93E042
:104150000E9463278093F0038090FD039090FE03FC
:10416000A090FF03B0900004809144039091450318
:10417000A0914603B091470388169906AA06BB068C
:10418000D1F08092440390924503A0924603B092EE
:1041900047030E94451D81110EC00E943C24861ACF
:1041A000970AA80AB90A80922F0290923002A09230
:1041B0003102B092320280E08F29A496E0E10C94A3
:1041C000213110925E0380914B0290E0880F991F7D
:1041D0004CE050E0B60188599D4F0E94B33121E078
:1041E00020934803892B09F095CFE5CF8091710387
:1041F00008951F920F920FB60F9211242F933F93A1
:104200004F935F936F937F938F939F93AF93BF93DE
:10421000CF93DF93EF93FF93C091E900CF7080912C
:10422000EC00D82FD17080FDD0E81092E900809189
:10423000F000877F8093F00078940E947A27109294
:10424000E9008091F00088608093F000CD2BCF7062
:10425000C093E900FF91EF91DF91CF91BF91AF91B2
:104260009F918F917F916F915F914F913F912F918E
:104270000F900FBE0F901F901895E8EDF0E0808131
:104280008E7F80831092E2001092DA001092E1009B
:10429000A0EEB0E08C9181608C9380818F778083D9
:1042A00019BCA7EDB0E08C918E7F8C9380818F7EBE
:1042B000808310926F0308952091E4003091E5000F
:1042C00095E64091EC00842F817040FF23C08091DF
:1042D000E80080FD1DC080919403882399F085300B
:1042E00099F08091EB0085FD11C04091E400509160
:1042F000E5002417350729F3915011F09A01E1CF19
:1043000084E0089582E0089583E0089581E00895AF
:1043100080E008954091E80042FFDDCF089580914C
:10432000960387FF11C08091E80082FD05C080914F
:1043300094038111F8CF11C08091E8008B770BC0F6
:1043400080919403882349F08091E80080FFF8CFA2
:104350008091E8008E778093E8000895982F973039
:1043600068F59093E900981739F07091EC0020916E
:10437000ED005091F00003C0242F762F50E021FD76
:1043800002C09F5FECCF3091EB003E7F3093EB009B
:104390003091ED003D7F3093ED003091EB003160C6
:1043A0003093EB007093EC002093ED005093F000FD
:1043B0002091EE0027FDE5CF80E008958F70809377
:1043C000E90081E00895A0E0B0E0E9EEF1E20C94AC
:1043D0000D31C8EDD0E088818F7E8883E7EDF0E075
:1043E00080818160808384E082BF81E080936F035D
:1043F00088818E7F888302EE10E0F801108210928F
:10440000DA0081EEC82ED12CF601108288818F77D8
:10441000888388818068888388818F7D888319BCA0
:1044200010929403109295031092930310929203AA
:1044300090EEE92EF12CF70180818B7F80838881BB
:104440008160888342E060E080E00E94AE21F60156
:1044500080818E7F8083F80180818160808380816C
:1044600088608083F70180818E7F8083888180616E
:104470008883CDB7DEB7E8E00C9429311F920F9204
:104480000FB60F9211242F933F934F935F936F9327
:104490007F938F939F93AF93BF93EF93FF938091FD
:1044A000E10082FF09C08091E20082FF05C0809197
:1044B000E1008B7F8093E1008091DA0080FF2AC0C9
:1044C0008091D80080FF26C08091DA008E7F809393
:1044D000DA008091D90080FF18C080E189BD82E1B7
:1044E00089BD09B400FEFDCF81E0809394038091E3
:1044F0006F0381110FC00E943D210E94E321809132
:10450000E20084608093E20005C019BC109294031D
:1045100010926F038091E10080FF17C08091E2004C
:1045200080FF13C08091E2008E7F8093E200809133
:10453000E20080618093E2008091D80080628093E5
:10454000D80019BC85E0809394038091E10084FF3A
:1045500030C08091E20084FF2CC080E189BD82E1FF
:1045600089BD09B400FEFDCF8091D8008F7D809376
:10457000D8008091E1008F7E8093E1008091E2007D
:104580008F7E8093E2008091E20081608093E20060
:1045900080919503882311F084E007C08091E300A7
:1045A00087FD02C081E001C083E080939403809185
:1045B00094038091E10083FF27C08091E20083FF94
:1045C00023C08091E100877F8093E10082E08093A7
:1045D0009403109295038091E1008E7F8093E10017
:1045E0008091E2008E7F8093E2008091E200806102
:1045F0008093E20042E060E080E00E94AE21809182
:10460000F00088608093F000FF91EF91BF91AF912F
:104610009F918F917F916F915F914F913F912F91DA
:104620000F900FBE0F901F90189520919C03309112
:104630009D032617370748F06115710539F420915D
:10464000E8002E772093E80001C0B901FC0120E0CA
:104650006115710579F1809194038823F1F185301A
:10466000F1F18091E80083FD3CC08091E80082FD7B
:104670002EC08091E80080FFEBCF2091F300809165
:10468000F20090E0922B6115710551F08830910590
:1046900038F421912093F100615071090196F3CF14
:1046A00021E0089709F020E08091E8008E77809360
:1046B000E800CECF2111CFCF0AC080919403882388
:1046C00061F0853061F08091E80083FD0AC080913F
:1046D000E80082FFF2CF80E0089582E0089583E051
:1046E000089581E008950F931F93CF93DF938B017B
:1046F000EA0190919403943079F58F708093E900EA
:104700008FEF9091E800815095FD06C095ED9A9548
:10471000F1F700008111F5CF8091E80085FF1CC002
:104720000E945C21882361F08091E8008E7780935D
:10473000E80012C0F80181918F018093F100219768
:10474000209791F38091E80085FDF4CF8091E800F7
:104750008E778093E800E4CFDF91CF911F910F9186
:10476000089543E050E0BC0184E00E947323089563
:1047700046E050E0BC0184E00E9473230895CF938B
:10478000DF93EC0180913C01811105C048E050E0CD
:10479000BE0181E00BC080916D0387FF03C040E242
:1047A00084E002C048E081E050E0BE010E94732333
:1047B00080E2FE01A2E7B3E001900D928A95E1F755
:1047C000DF91CF91089581E08093E00080E28093B3
:1047D000D8001092C9008FE19EE40197F1F700C064
:1047E000000087E090EBDC018093010490930204C9
:1047F000A0930304B09304049CE088E10FB6F894FE
:10480000A895809360000FBE90936000FFCF7894CE
:104810001F920F920FB60F9211248F939F93AF9315
:10482000BF938091690390916A03A0916B03B0914B
:104830006C030196A11DB11D8093690390936A03D7
:10484000A0936B03B0936C03BF91AF919F918F9135
:104850000F900FBE0F901F9018959C014FB7F894C2
:104860008091690390916A03A0916B03B0916C03EE
:104870004FBF821B930B08952FB7F8946091690383
:1048800070916A0380916B0390916C032FBF089520
:104890002FB7F8948091690390916A03A0916B03FC
:1048A000B0916C032FBF08951F920F920FB60F9215
:1048B00011248F939F93AF93BF93809168038111CD
:1048C00013C08091690390916A03A0916B03B0912A
:1048D0006C034196A11DB11D8093690390936A03F7
:1048E000A0936B03B0936C03BF91AF919F918F9195
:1048F0000F900FBE0F901F90189520913C0122231E
:10490000C9F020916D0327FF15C0262F2695269507
:1049100026952E31C8F4FC01E20FF11D677081E08D
:1049200090E001C0880F6A95EAF78095928189230B
:1049300082830895FC0106962281621301C01282CF
:104940003196E817F907C1F7089520913C01222319
:10495000C1F020916D0327FF14C0262F26952695C0
:1049600026952E3130F5FC01E20FF11D677081E0D4
:1049700090E001C0880F6A95EAF79281892B8283C3
:104980000895FC0132962FEF30E04191641789F0D1
:104990002F3F19F4411101C0232F3F5F3630A9F793
:1049A0002F3F39F0FC01E20FF11D27FDFA956283DC
:1049B00008950895A3E0B0E0E0EEF4E20C94133122
:1049C000209166033091670328173907A1F090936F
:1049D000670380936603E0916403F0916503309769
:1049E00051F024E029839B838A830680F781E02DA0
:1049F000CE01019609952396E2E00C942F31A3E0B5
:104A0000B0E0E5E0F5E20C941331209162033091BF
:104A1000630328173907A1F090936303809362031F
:104A2000E0916403F0916503309751F023E029830E
:104A30009B838A830680F781E02DCE01019609953C
:104A40002396E2E00C942F310E94451D882359F0F3
:104A5000E0916403F0916503309729F00190F081B3
:104A6000E02D0995089580E008950F931F93CF934B
:104A7000DF93C42FD22FFC0182818823B1F04093B1
:104A800061030E9448249093600380935F0380E257
:104A90008C0F883008F04DC0C77081E001C0880FCE
:104AA000CA95EAF70E94141B44C080916103481321
:104AB00030C080915F03909160030E942D24883C58
:104AC000910538F510E21D0FCD17B9F080E28C0F7B
:104AD000883040F4C77081E001C0880FCA95EAF7BA
:104AE0000E940D1B183010F581E09D2F977001C0BA
:104AF000880F9A95EAF70E94141B802F0E941E1BB4
:104B00001830B8F4D77081E001C0880FDA95EAF761
:104B10000AC080E28C0F883060F4C77081E001C069
:104B2000880FCA95EAF70E940D1B03C0802F0E94D0
:104B30001E1BDF91CF911F910F910895CF93DF93AB
:104B4000CAE4D3E060E0CE010E946E312196C11527
:104B500084E0D807B9F7DF91CF910895A0E0B0E0E5
:104B6000E4EBF5E20C940B31A12CE12CF12CB12CEF
:104B700000E010E0C0E0D0E06701C00ED11EFE01F1
:104B8000EE0FFF1FEC0DFD1DE25BFC4F25913491F4
:104B90004C2F6B2D8A2D0E949F2A2196CB30D10558
:104BA00071F70A5E1F4FB3948CE0B812E3CF88EF21
:104BB000E81A8EEFF80AA39483E0A812D8CFCDB7F5
:104BC000DEB7EAE00C942731A0E0B0E0EAEEF5E2CF
:104BD0000C940A316C01C0913D01D1E0DC0FD4305E
:104BE00008F0D3E06091A6036695669580919E03D8
:104BF00090919F030E94FF12182F80E4810F0E9462
:104C0000C91290E8F92EF80E812F0E94C91220E8EF
:104C1000922E980ECD1700F5AC2EB12CF501E85D63
:104C2000FD4F908180913E018923A1F06091A30303
:104C30007091A4038091A503E12E0C2F292D4F2DF7
:104C4000F60109950E940913462F282F672FC501E9
:104C50000E94AB12CF5FDECF81E0D33008F080E05E
:104C6000CDB7DEB7EBE00C942631A0E0B0E0EBE38B
:104C7000F6E20C940C316C0110913D01FF24F39489
:104C8000F10E83E08F1510F493E0F92E6091A603E6
:104C9000669580919E0390919F030E94FF12B82E0B
:104CA0001F1508F06EC0C12FD0E0FE01E85DFD4F7A
:104CB000908180913E01892309F461C0FE01EE0FCD
:104CC000FF1FEE5DFD4F408150E040575109FE014E
:104CD000EE0FFF1FED5DFD4FE081F0E0B097449FC8
:104CE000B001459F700D700D1124EE9FC001EF9F24
:104CF000900D900D1124680F791F6230710510F42A
:104D0000062F2BC0613E9EE1790748F4CB01B5E048
:104D100096958795BA95E1F728E0280F01C02FEF07
:104D200031E0822F90E0830F911D95958795889FA4
:104D3000D001899FB00DB00D11246A177B0718F4BC
:104D40002FEF280F04C08F3F39F031E0380F2317C1
:104D500040F70FEF030F01C00FEF6091A3037091B5
:104D6000A4038091A503EB2C9F01F60109950E94F5
:104D70000913462F282F672FCE010E94AB121F5F09
:104D80008FCF81E0F2E0FF1508F480E0CDB7DEB709
:104D9000E9E00C942831A0E0B0E0E1EDF6E20C94FB
:104DA0000D316C01C0913D01D1E0DC0FD43008F031
:104DB000D3E06091A603669580919E0390919F0336
:104DC0000E94FF12182FCD1778F5EC2EF12CF70169
:104DD000E85DFD4F908180913E01892319F1F70133
:104DE000EE0FFF1FED5DFD4F208130E020523109B5
:104DF000F701EE0FFF1FEE5DFD4F408150E0405781
:104E000051096091A3037091A4038091A503012F20
:104E1000F60109950E940913462F282F672FC70115
:104E20000E94AB12CF5FCFCF81E0D33008F080E09B
:104E3000CDB7DEB7E8E00C942931A0E0B0E0E3E2C2
:104E4000F7E20C940E318C01C0913D01D1E0DC0FF2
:104E5000D43008F0D3E06091A6036695669521E012
:104E6000620F08F46FEF80919E0390919F030E9460
:104E7000FF12D82ECD17F0F4EC2EF12CF701E85DDF
:104E8000FD4F908180913E01892391F06091A303B1
:104E90007091A4038091A5032D2D4C2FF801099545
:104EA0000E940913462F282F672FC7010E94AB12BB
:104EB000CF5FE0CF81E0D33008F080E0CDB7DEB740
:104EC000E7E00C942A31FC01AC01445F5F4F8FEFA7
:104ED00091E32191822728E030E087FF03C0880F0B
:104EE000892701C0880F21503109B9F7E417F50768
:104EF00081F70895AAE2B0E0E0E8F7E20C941231FD
:104F0000E6E9F3E08EE993E02091F10021938E171A
:104F10009F07D1F780919703833009F463C030F481
:104F2000813071F0823009F49DC0B4C08A3009F438
:104F300089C08B3009F46EC0893009F0ABC020C045
:104F400080919603813A09F0A5C08091E800877F9F
:104F50008093E80080919A0390919B03892B21F420
:104F600060E282E793E003C060E080E090E070E000
:104F70000E9415238091E8008B778093E8008AC017
:104F800080919603813209F085C080919A039091B7
:104F90009B03009719F0029709F07CC08091E8000C
:104FA000877F8093E8008091E80082FD05C08091B2
:104FB00094038111F8CF6EC02091F3008091F2002C
:104FC00090E0922B029731F48091F100813011F042
:104FD000863021F48091F100809371038091E80084
:104FE0008B7754C080919603813A09F053C0809129
:104FF0009A0390919B03892B09F04CC08091E800A3
:10500000877F8093E8008091E80080FFFCCF80914B
:105010003C0137C0809196038132E1F580919A037B
:1050200090919B03892BB1F58091E800877F809355
:10503000E8000E948F218091980380933C010E9498
:10504000DE1A28C080919603813221F58091E80014
:10505000877F8093E8000E948F218091990380933D
:10506000700318C080919603813AA1F48091E80002
:10507000877F8093E8008091E80080FFFCCF8091DB
:1050800070038093F1008091E8008E778093E800B0
:105090000E948F218091E80083FFDFC180919603F9
:1050A00090919703492F50E04A30510508F0D5C13F
:1050B000FA01EB53FF4F0C94A631803821F082386F
:1050C00009F0CBC108C0809192039091930399237A
:1050D00089F082600FC080919A038F70873008F04A
:1050E000BCC18093E9008091EB0085FB882780F9A3
:1050F0001092E9009091E800977F9093E8008093E8
:10510000F1001092F10070C1282F2D7F09F0A5C188
:10511000882319F0823061F0A0C18091980381301A
:1051200009F09BC1933009F080E0809393032EC077
:105130008091980381112AC080919A038F702FEF7C
:10514000280F263008F089C18093E9002091EB00F8
:1051500020FF1CC0933021F48091EB00806214C0CA
:105160009091EB0090619093EB0021E030E0A90179
:1051700002C0440F551F8A95E2F74093EA0010924F
:10518000EA008091EB0088608093EB001092E900C8
:105190008091E800877F8093E8000E948F215DC1A5
:1051A00081115BC1109198031F778091E300807893
:1051B000812B8093E3008091E800877F8093E80053
:1051C0000E948F218091E80080FFFCCF8091E30056
:1051D00080688093E300111102C082E001C083E087
:1051E000809394033AC18058823008F036C12091F0
:1051F0009803309199032C3D53E0350779F583E00E
:105200008A838AE289834FB7F894DE01139620E0FF
:105210003EE051E2E32FF0E050935700E49120FF8D
:1052200003C0E295EF703F5FEF708E2F90E0EA30A1
:1052300010F0C79601C0C0968D939D932F5F2431C7
:1052400049F74FBF8091E800877F8093E8006AE2CA
:1052500070E0CE0101960E941523B4C080919A039C
:1052600090919B03432F552743305105A9F068F4D3
:105270004130510509F400C14230510509F0EDC03B
:105280008BE590E0EEE7F7E04BC04132510529F1A4
:105290004232510589F1E1C0C90199278130910558
:1052A000A1F058F0029709F0D8C0EBEEF7E0E491D6
:1052B0008E2F90E0EBEEF7E030C0E1E3F8E0E49110
:1052C0008E2F90E0E1E3F8E028C0EDE0F8E0E49113
:1052D0008E2F90E0EDE0F8E020C08330910508F0DB
:1052E000BCC0880F991FFC01E856FE4F0190F08169
:1052F000E02D89E090E014C08330910508F0ADC046
:10530000FC01EE0FFF1FEE56FE4F0190F081E02DE5
:10531000DC01A157BE4F8C9190E0009709F49DC02D
:105320002091E800277F2093E80020919C03309192
:105330009D032817390708F4C90140E0009789F157
:1053400020919403222309F43DC02530D9F1209106
:10535000E80023FD37C02091E80022FD2FC02091F6
:10536000E80020FFEBCF4091F3002091F20030E005
:10537000342B009759F02830310540F44491409384
:10538000F100319601972F5F3F4FF3CF41E0283076
:10539000310509F040E02091E8002E772093E800E5
:1053A000CDCF4111CDCF0AC080919403882351F015
:1053B000853041F08091E80083FD04C08091E800D1
:1053C00082FFF2CF8091E8008B778093E80045C0A0
:1053D000803809F042C08091E800877F8093E80020
:1053E000809195038093F1008091E8008E77D3CE71
:1053F000811133C080919803909199039927029766
:1054000064F58091E800877F8093E800109198030D
:10541000109395030E948F21111106C08091E30023
:1054200087FD02C081E001C084E08093940342E0E4
:1054300061EC81E00E94AE2142E261EC84E00E94D6
:10544000AE2142E261EC82E00E94AE2142E260ECD9
:1054500083E00E94AE21809194038091E80083FF55
:1054600010C08091E800877F8093E8008091EB0076
:1054700080628093EB0005C082E190E0E9EDF7E007
:105480004FCFAA96E3E00C942E31E3EEF3E0818354
:1054900060834283848363834583878366834087F5
:1054A0000895FC01EE0FFF1F8E0F9F1FFC01ED51B1
:1054B000FC4F6183408322830895E2EAF3E0248174
:1054C00030E1231B08F420E024838091E203816013
:1054D0008093E2030895E2EAF3E0248130E1230FB0
:1054E00008F42FEF24838091E20381608093E2032C
:1054F0000895809A81B38E7F91B391602FB7F8940D
:10550000E3EEF3E033E0EC3EF30789F0319148E05D
:1055100091BB000000C037FF81BB330F000000C00B
:1055200000C000C081BB00C04A9591F7EBCF2FBFF0
:105530008FE594E00197F1F700C0000008951F93F4
:10554000CF93DF93962F833000F56C30F0F44B301F
:10555000E0F4632F122F50E0440F551F26E1929F75
:10556000400D511D112428E031E0829FE001839F0E
:10557000D00D1124C40FD51FCE01C2960E946E31EA
:10558000612FCE01C3960E946E31DF91CF911F91A2
:1055900008950F931F93CF93DF93833020F56C30E2
:1055A00010F54B3000F550E0440F551F26E1629F87
:1055B000400D511D112428E031E0829F8001839F1E
:1055C000100D1124040F151FC801C2960E944A3104
:1055D00090E0D82FCC27C801C3960E944A319E0183
:1055E000282BC90102C080E090E0DF91CF911F918C
:1055F0000F91089581E390E00E946E310895CF935A
:10560000C82F811102C06FEF01C063E28EE290E00B
:105610000E946E31C11102C06FEF01C065E08FE2E0
:1056200090E00E946E31C11102C06FEF01C069E2CB
:1056300080E390E00E946E31CF91089580E00E9457
:10564000FF2A60E070E0CB010E94FA2A0E94AE259A
:105650000E949E2581E00E94FF2A08958EE290E03C
:105660000E944A31833281F48FE290E00E944A31F5
:10567000853051F480E390E00E944A3191E0893214
:1056800009F090E0892F01C080E08170089588239F
:1056900011F0FA0101C0FB01099508951F93CF9302
:1056A000DF93FC01E85DFD4F20816223B9F0EC013E
:1056B0000E94EA12182F0E94EA1220E8829FC0017D
:1056C00011247FE7790F612F8091A5030E940913B0
:1056D000462F282F672FCE010E94AB12DF91CF916A
:1056E0001F910895A0E0B0E0E8E7FBE20C940E31D2
:1056F000EC01FC01E85DFD4F9081692349F1D090F8
:10570000A4030091A5031091A303E12EF12C0E94A4
:10571000EA12282FC7018C549F4F68E671E00E945F
:1057200092318E199F0997FD0396959587959595CA
:1057300087952370612F289F600D11247D2D802F68
:105740000E940913462F282F672FCE010E94AB120B
:10575000CDB7DEB7E7E00C942A319091A2039370A5
:1057600071F08093A3036093A403473908F046E9DE
:105770004093A5038091E203282B2093E203089530
:10578000E2EAF3E0438120E1421B08F440E081813A
:1057900021E0628190E00E94AD2B0895E2EAF3E0FF
:1057A000438120E1420F08F44FEF818121E06281C3
:1057B00090E00E94AD2B0895E2EAF3E0628120E1DF
:1057C000621B08F460E0818121E0438190E00E9447
:1057D000AD2B0895E2EAF3E0628120E1620F08F464
:1057E0006FEF818121E0438190E00E94AD2B08950D
:1057F000E2EAF3E0818190E021E043816281089751
:105800000E94AD2B0895E2EAF3E0818190E021E06F
:105810004381628108960E94AD2B08959091A20366
:105820009370A1F0811102C0946007C0853110F01F
:10583000906503C0880F880F982B9093A203109255
:1058400042018091E203682B6093E2030895809106
:10585000A20386958695815009F484E161E00E9457
:105860000E2C08958091A203869586958F5F8531D1
:1058700008F081E061E00E940E2C08954F925F9243
:105880006F927F928F929F92AF92BF92CF92DF9250
:10589000EF92FF921F93CF93DF936091D1037091AA
:1058A000D2038091D3039091D4030E94E71D6B0132
:1058B0007C010E94801D4B015C016093D1037093B9
:1058C000D2038093D3039093D403A091A803E8EA72
:1058D000F3E08A2F90E04FEF5FEF60E070E04C194B
:1058E0005D096E097F09A91799F0218D328D290173
:1058F000612C712C441555056605770510F481500F
:1059000004C02C0D3D1D328F218F9F5F3296EBCF4F
:105910008093A8038091E103811108C0C091A20384
:105920008C2F837019F0C695C69501C0C0E0809198
:1059300042018130A1F038F0823009F47BC083301D
:1059400009F485C0A3C010923D0180929E039092FD
:105950009F03A092A003B092A10381E075C08C2F99
:105960000E949313CC2309F491C0C0913D01DFEF55
:10597000DC0FC43008F0C3E06091D5037091D6030A
:10598000A090D903B090DA03C090DB03D090DD0380
:10599000E090DE03F090DF038091D7030E940913AB
:1059A0004B01182FB5018C2D0E940913B62EC72E5E
:1059B000A82E6D2D7E2D8F2D0E9409137B01D82ED0
:1059C0000E94242581FF04C0212F482D692D07C086
:1059D000D11109C0CC2339F020E040E060E080E044
:1059E00090E00E94AB120E94242582FF04C02A2D61
:1059F0004B2D6C2D07C0D23048F4C23038F020E077
:105A000040E060E081E090E00E94AB120E9424251B
:105A100080FF04C02D2D4E2D6F2D07C0D330B0F563
:105A2000C330A1F520E040E060E082E090E00E9419
:105A3000AB122CC0C09341018091A203837080936C
:105A400040010E94792A83E0809342011FC0809127
:105A5000E203882351F046E050E06CE170E082EA16
:105A600093E00E945E311092E20360919E03709178
:105A70009F038091A0039091A1030E94E71D6031D4
:105A800071058105910510F010924201DF91CF91CF
:105A90001F91FF90EF90DF90CF90BF90AF909F90BD
:105AA0008F907F906F905F904F900895662309F4D8
:105AB0005CC08D3C21F40E943E16819504C08E3C52
:105AC00029F40E943E1680938A02C5C08F3C21F4BF
:105AD0000E943E16819504C0803D29F40E943E1626
