:100000000C94E2020C941A030C941A030C941A0335
:100010000C941A030C941A030C941A030C941A03EC
:100020000C941A030C941A030C94001F0C94BC1E1D
:100030000C94FD1F0C941A030C941A030C941A03CD
:100040000C941A030C9452200C941A030C941A0367
:100050000C9424200C94D91F0C941A030C941A03AA
:100060000C941A030C941A030C941A030C941A039C
:100070000C941A030C941A030C941A030C941A038C
:100080000C941A030C941A030C941A030C941A037C
:100090000C941A030C941A030C941A030C941A036C
:1000A0000C941A030C941A030C941A030501090208
:1000B000A10185020901A1000509190129081500FE
:1000C0002501950875018102050109300931158165
:1000D000257F95027508810609381581257F9501D0
:1000E00075088106050C0A38021581257F95017572
:1000F000088106C0C005010980A101850319012AF4
:10010000B700150126B700950175108100C0050CD8
:100110000901A101850419012AA002150126A002E6
:10012000950175108100C005010906A1018506052C
:100130000719E029E71500250195087501810205D9
:1001400007190029EF1500250195F07501810205B9
:10015000081901290595057501910295017503910D
:1001600001C00660FF0961A1010962150026FF00B8
:100170009520750881020963150026FF00952075FA
:10018000089102C005010906A101050719E029E748
:1001900015002501950875018102950175088101F9
:1001A0000507190029FF150026FF0095067508812F
:1001B000000508190129059505750191029501753C
:1001C000039101C0000000000000000000000000DA
:1001D000000000000000000000000000000000001F
:1001E00000000000000000007E0F00D4FFFFFFC7EA
:1001F0000000007800000000000000002A2B28000A
:1002000000000000000000000000000000000029C5
:10021000000000002C1E3420212224342627252E05
:10022000362D3738271E1F2021222324252633333D
:10023000362E37381F0405060708090A0B0C0D0E69
:100240000F101112131415161718191A1B1C1D2F35
:100250003130232D350405060708090A0B0C0D0E55
:100260000F101112131415161718191A1B1C1D2F15
:100270003130354C1E0F056432141E140A0500017E
:100280000101010101010101020202020202020256
:100290000203030303030303030404040404040428
:1002A00005050505050606060606070707070708EC
:1002B000080808090909090A0A0A0B0B0B0C0C0C9F
:1002C0000D0D0D0E0E0E0F0F0F1010111111121239
:1002D00013131414151516161717181819191A1AB6
:1002E0001B1B1C1D1D1E1E1F202021222223242417
:1002F000252626272829292A2B2C2D2D2E2F303153
:100300003232333435363738393A3B3C3D3E3F4064
:100310004142434445464748494A4C4D4E4F50514F
:100320005354555658595A5B5D5E5F616264656609
:1003300068696B6C6D6F7072737577787A7B7D7E90
:100340008082838587888A8C8E8F91939596989AE0
:100350009C9EA0A2A3A5A7A9ABADAFB1B3B5B7BAF8
:10036000BCBEC0C2C4C6C9CBCDCFD1D4D6D8DBDDCC
:10037000DFE2E4E7E9EBEEF0F3F5F8FAFDFF222324
:10038000252628292A2C2D2F3032333536383A3B72
:100390003D3E4042434547494A4C4E5051535557C4
:1003A000595A5C5E6062646668696B6D6F717375E3
:1003B00077797B7D7F81838587898A8C8E909294E3
:1003C00096989A9C9E9FA1A3A5A7A8AAACAEAFB1F0
:1003D000B3B4B6B8B9BBBCBEBFC1C2C3C5C6C7C93A
:1003E000CACBCCCDCED0D1D2D2D3D4D5D6D7D7D8F4
:1003F000D9D9DADADBDBDBDCDCDCDCDCDDDDDDDD46
:10040000DCDCDCDCDCDBDBDBDADAD9D9D8D7D7D64D
:10041000D5D4D3D2D2D1D0CECDCCCBCAC9C7C6C504
:10042000C3C2C1BFBEBCBBB9B8B6B4B3B1AFAEAC4A
:10043000AAA8A7A5A3A19F9E9C9A98969492908EF5
:100440008C8A89878583817F7D7B79777573716FCE
:100450006D6B6968666462605E5C5A5957555351AA
:10046000504E4C4A4947454342403E3D3B3A383660
:10047000353332302F2D2C2A2928262523222900F6
:100480001E001F00200021002200230000004C005D
:100490002B0014001A0008001500170000004B0084
:1004A000E00004001600070009000A0000004E00EA
:1004B000E1001D001B0006001900050000000000FF
:1004C000E0000000E20000002C002152000031009A
:1004D0002E002D00270026002500240035023000C4
:1004E0002F00130012000C0018001C002A0000004E
:1004F000340033000F000E000D000B002800E50053
:100500003800370036001000110005002152E400C9
:1005100000000000E60000002C00000000000902BE
:100520005B00030100A0FA090400000103010100BF
:100530000921110100012240000705810308000183
:100540000904010002030000000921110100012239
:100550002200070582032000010705030320000194
:100560000904020001030000000921110100012219
:10057000B6000705840320000112010002000000FC
:1005800008445632561002010200010C034F00537A
:100590000041007600320000002403560069006B21
:1005A000007400750073002000440065007300694A
:1005B0000067006E0020004C004C00430000000467
:1005C0000309040011241FBECFEFDAE0DEBFCDBF68
:1005D00004B603FE18C080915E0390915F03A09162
:1005E0006003B09161038730904BA740B04B59F442
:1005F00010925E0310925F031092600310926103E9
:10060000E0E0F8E3099523E0AAE7B1E001C01D921C
:10061000AE35B207E1F711E0A0E0B1E0E6E9F0E5C0
:1006200002C005900D92AA37B107D9F70E94542055
:100630000C94E2270C940000482F20915A039091CB
:10064000210357E0291302C080E0089530E0529F53
:10065000F001539FF00D1124EE5DFC4F8181681372
:1006600006C08081481303C085818111EECF2F5FC2
:100670003F4F2770E7CFE8EDF0E080818E7F8083E9
:100680001092E2001092DA001092E100A0EEB0E0C9
:100690008C9181608C9380818F77808319BCA7EDCA
:1006A000B0E08C918E7F8C9380818F7E80831092BE
:1006B000F20208952091E4003091E50095E6A90149
:1006C0002091EC00822F817020FF06C08091E8000D
:1006D00080FF06C080E008952091E80022FD1AC046
:1006E00080911703882389F0853089F08091EB0091
:1006F00085FD0FC02091E4003091E50042175307BB
:10070000F9F29150E1F684E0089582E0089583E0E3
:10071000089581E008958091190387FF13C08091A7
:10072000E80082FF06C08091E8008B778093E800A4
:1007300004C0809117038111F2CF089580911703AF
:100740008823D9F38091E80080FFF8CF8091E800FA
:100750008E77ECCF982F9093E900242F762F50E0DE
:10076000891731F07091EC002091ED005091F0006C
:1007700021FD07C09F5F973071F78093E90081E00A
:1007800008953091EB003E7F3093EB003091ED0007
:100790003D7F3093ED003091EB0031603093EB0002
:1007A0007093EC002093ED005093F0002091EE0048
:1007B00027FDE0CF80E00895B0E0A0E0E2EEF3E0B6
:1007C0000C944E26C8EDD0E088818F7E8883E7EDBB
:1007D000F0E080818160808384E082BF81E080934B
:1007E000F20288818E7F888302EE10E0F801108289
:1007F0001092DA0081EEC82ED12CF6011082888189
:100800008F77888388818068888388818F7D8883BB
:1008100019BC10921703109218031092160310922D
:10082000150390EEE92EF12CF70180818B7F8083F8
:1008300088818160888342E060E080E00E94AA03B2
:10084000F60180818E7F8083F801808181608083C2
:10085000808188608083F70180818E7F808388819A
:1008600080618883CDB7DEB7E8E00C946A26FC018E
:1008700080911F039091200386179707A0F06115C0
:10088000710529F49091E8009E779093E80090E03C
:100890006115710551F4911108C08091E80082FF43
:1008A00034C080E00895BC01F2CF80911703882303
:1008B000C1F18530C1F18091E80083FD30C08091A5
:1008C000E80082FDEACF8091E80080FFE1CF8091CF
:1008D000F3002091F200382F6115710519F02830CE
:1008E000310558F091E02830310509F090E0209171
:1008F000E8002E772093E800CBCF81918093F10020
:10090000615071092F5F3F4FE7CF80911703882314
:1009100041F0853041F08091E80083FFBECF81E057
:10092000089582E0089583E008958091F402089587
:100930009C014FB7F8948091EC029091ED02A09148
:10094000EE02B091EF024FBF821B930B08952FB7B9
:10095000F8948091EC029091ED02A091EE02B0919A
:10096000EF022FBF089520910D012223C9F020919D
:10097000F00227FF15C0E62FE695E695E695EE31E5
:10098000D8F4E80FF92FF11D677021E030E001C0C5
:10099000220F6A95EAF72095828128232283089501
:1009A000FC01329608962191621303C0DF01119772
:1009B0001C92E817F907B9F7089520910D01222339
:1009C000C1F02091F00227FF14C0E62FE695E695CE
:1009D000E695EE31F8F4E80FF92FF11D677021E08C
:1009E00030E001C0220F6A95EAF78281822B828370
:1009F0000895FC0132962FEF30E04191641751F0D9
:100A00002F3F19F4411101C0232F3F5F3630A9F762
:100A10002F3F09F40895820F911D27FD9A95FC013F
:100A200062830895A3E0B0E0E8E1F5E00C94542679
:100A30002091E9023091EA0228173907A1F090933A
:100A4000EA028093E902E091E702F091E802309730
:100A500051F024E029839B838A830680F781E02D6F
:100A6000CE01019609952396E2E00C947026A3E04E
:100A7000B0E0EDE3F5E00C9454262091E5023091CE
:100A8000E60228173907A1F09093E6028093E50269
:100A9000E091E702F091E802309751F023E02983DA
:100AA0009B838A830680F781E02DCE01019609950C
:100AB0002396E2E00C947026E091E702F091E802C0
:100AC000309729F00190F081E02D0995089580E09C
:100AD0000895B0E0A0E0EFE6F5E00C944A268730F8
:100AE00008F042C0811141C02091880030918900F6
:100AF000232B51F090916F009D7F90936F00909108
:100B00006F009E7F90936F005E98A0918600B091D9
:100B10008700282F30E00E94D32726E030E040E015
:100B200050E00E94B127A0ECB0E00E949E27072F62
:100B3000182F292F332780918600909187006CE031
:100B400070E00E940F266017710700F1C80169E08C
:100B500070E00E940F267093890060938800CDB7E3
:100B6000DEB7ECE00C94662686E020918800309198
:100B70008900232B51F690916F00926090936F0043
:100B800090916F00916090936F00BFCF809186002D
:100B900090918700E0908600F0908700C0908600DA
:100BA000D0908700C6E0D0E0BE010E940F26060F5D
:100BB000171F211D311D4801590185E0880C991C22
:100BC000AA1CBB1C8A95D1F7C701BE010E940F2643
:100BD000F12CE12CA7019601260F371F411D511D55
:100BE000C501B4010E94B12769017A01E091860034
:100BF000F0918700CA01B9010E94F3259B01AC0165
:100C0000DF010E949E279B01AC01C701B6010E9433
:100C1000F3252FE096958795779567952A95D1F7D7
:100C2000009186001091870030E020E0061717073A
:100C30002807390708F08FCF6091860070918700F0
:100C40008ACF282F220F220F220F9091E402977053
:100C5000922B9093E402987F21E009F420E0909198
:100C6000E40220FB90F99093E4020E946905089544
:100C7000FA01811101C0FB01099508950895809141
:100C8000DC02982F9E7F61F4817082608093DC0289
:100C90008091DF02803C18F08FEB8093DF02089593
:100CA0008432B0F381708262F1CFAF92BF92DF9253
:100CB000EF92FF920F931F93CF93DF93082F162F7E
:100CC000E901E42FF0E0E258FD4F611110C0E4911A
:100CD0005E2F4E2F4983E8835A83DF91CF911F9176
:100CE0000F91FF90EF90DF90BF90AF900895E62EA8
:100CF000F12C4491D42EE42FF0E026E0829FC00135
:100D000011242FEF30E0B9010E940F26802F90E0D0
:100D1000880F991F55E5569FD001579FB00D11249C
:100D20008A1B9B0B982F990F890F5901AE18BF088A
:100D3000AE9ED001AF9EB00DBE9EB00D11245B2FB4
:100D4000189F80011124012F11275901A01AB10AFF
:100D5000AE9E8001AF9E100DBE9E100D1124590154
:100D6000A81AB108AE9CC001AF9C900DBE9C900D1E
:100D70001124892F9927281B390B2E9FC0012F9FE3
:100D8000900D3E9F900D1124E92F62307105A1F066
:100D900050F46115710509F49DCF6130710581F042
:100DA000EB2F512F97CF6430710569F080F06630DA
:100DB000710509F48FCFF4CFE42F4B2F592F8ACF31
:100DC000E42F412F87CFEB2F542F492F83CF4B2F69
:100DD0005D2DE12F7FCF0E94A7049C019091180206
:100DE00080911902982B21F0309315022093140260
:100DF00090911A0280911B02982B21F030931302DC
:100E000020931202E091E702F091E802309749F056
:100E100082E0809316020480F581E02D86E192E065
:100E2000099508958091110280FD16C081FD16C0BC
:100E300082FD16C0809110028823A1F0883280F4D0
:100E400028E0829FC001112468E270E00E942326FE
:100E5000862F672B39F0089582E0089584E0089585
:100E600088E0089581E008958091110280FD14C00A
:100E700081FD14C082FD16C080910F02882381F08D
:100E80008E3180F420E5829FC00111246EE170E074
:100E90000E942326862F089584E1089588E208950C
:100EA00088E0089580E5089580E00895F894E82F9B
:100EB000E295EF70F0E031A1282F2F7081E090E0F3
:100EC00001C0880F2A95EAF7982F9095932391A354
:100ED00092A1892B82A3789408959091F00292FFB9
:100EE00006C0282F28712830F9F4877F846093FF8B
:100EF00006C0282F28712831F1F4877E8461209163
:100F0000F10220FF06C0382F38713830D9F4877FBE
:100F1000816021FF06C0282F28712831D1F4877EF7
:100F2000816194FD877E0895282F24712430F9F67D
:100F30008B7F8860DCCF282F2471243101F78B7ED2
:100F40008861DDCF382F3171313019F78E7F88609D
:100F5000E0CF282F2171213121F78E7E8861E1CFEA
:100F600082389105B9F1B0F48133910509F47DC05F
:100F700048F48932910509F46DC08A32910509F46B
:100F80007BC008958533910509F45FC089339105CD
:100F900009F10895833E9105D9F138F4803E910519
:100FA00029F1823E910579F10895863E9105D9F1A6
:100FB000873E910509F43EC0843E910541F520919C
:100FC000F10221FF24C08091F00284FD19C087EE58
:100FD00090E008952091F002237009F05AC020910A
:100FE000F10223FF14C089E290E008952091F002FD
:100FF00020FD38C03091F10230FF09C024FF43C00A
:1010000090E080E008952091F00222FDF7CF08954E
:101010002091F00222FD3AC03091F10230FD39C03A
:1010200024FFF5CFEDCF2091F00223FFF0CF24FD78
:10103000E7CFCDCF2091F00223FD2EC03091F102F9
:1010400031FFEECF84EE90E008952091F00225FF6D
:10105000DECFC9CF2091F00225FD21C02091F10201
:1010600023FFD5CF89E390E0D2CF2091F00226FF75
:10107000CECF8AE290E008952091F00226FFC7CFFC
:1010800081E390E0089583EE90E0089582EE90E091
:10109000089580EE90E0089586EE90E0089585E34F
:1010A00090E008951F93CF93DF930E94B007EC0167
:1010B000C11580E5D807F0F5C11580E4D80708F020
:1010C0009CC0C03ED10520F5CD3CD10508F082C0C2
:1010D000C83AD10578F4C53AD10508F073C0C130DB
:1010E000D10519F1209709F1C430D105F0F4D0E011
:1010F000C0E01BC0C33CD105D0F7C85AD0E0CC0F2C
:10110000DD1FCF5EDE4F0990D881C02DD4640DC0A5
:10111000C11580E2D80708F0D1C0C11581E0D80719
:1011200008F05AC0C83ED10510F7CE01DF91CF912B
:101130001F910895C03682E5D80718F5C03482E5BE
:10114000D80708F06BC0C03282E5D80708F05FC04E
:10115000C11582E5D80708F497C02C2F269526954F
:1011600080E2289F900111248C2F8370C1E0D0E091
:1011700002C0CC0FDD1F8A95E2F7C22BD32BDD68AE
:10118000D4CFC03A82E5D80760F4C03882E5D807EA
:1011900008F459C0CF71D0E0DC2FCC27C46FD06ADF
:1011A000C4CFC03C82E5D80708F462C0C03E82E5E7
:1011B000D80708F09CCFDC2FCC27CC27DF71C06F7D
:1011C000D06AB3CFC55AD0E0C25FDE4FC881D0E04D
:1011D000D064ABCFD065A9CF8D2F0E946D07182F9B
:1011E000CE0199270E94B007C12FD0E0DC2FCC2779
:1011F000CC27DF71C82BD92B98CFCE0199270E941D
:10120000B007CC27DF70C82BD92BD06A8ECFCF7117
:10121000D0E0DC2FCC27C16FD06A87CF2C2F26954A
:101220002695277080E2289F900111248C2F8370CF
:10123000C1E0D0E002C0CC0FDD1F8A95E2F7C22BDF
:10124000D32BDC6872CF2C2F26952695277080E251
:10125000289F900111248C2F8370C1E0D0E002C040
:10126000CC0FDD1F8A95E2F7C22BD32BDA685DCF56
:101270008C2F8F710E946D07C82FD0E0DC2FCC27F8
:10128000CC27DF71D06251CF8C2F8F710E946D07F8
:1012900055E0D695C7955A95E1F7CF70D0E0DC2F91
:1012A000CC27282F30E084FF05C044E0220F331FF5
:1012B0004A95E1F7C22BD32BD06937CF8D2F8F7191
:1012C0000E946D07182FCE0199270E94B007C12FE9
:1012D000D0E0DC2FCC27CC27DF71C82BD92BD2CF85
:1012E00080959091E60198239093E601089580916E
:1012F0005A0390912103981301C008958F5F87705E
:10130000FACF9A3080F5883070F548E0949F9001CC
:101310001124820F932F911D682F677023E09695FB
:1013200087952A95E1F7FC01EE0FFF1FE80FF91FE3
:10133000E256FE4F50E040E080E0219130E0062E82
:1013400002C0369527950A94E2F721703327042EC0
:1013500001C0220F0A94EAF7822B4F5F5F4F4330A0
:10136000510559F7089580E008959A3098F588302E
:1013700088F548E0949F90011124820F932F911DCE
:10138000282F277041E001C0440F2A95EAF723E097
:10139000969587952A95E1F7FC01EE0FFF1FE80F60
:1013A000F91FE256FE4F90E080E070E05191DF01BE
:1013B00011979B01082E02C0369527950A94E2F7F3
:1013C000217021952527242325272C9301968330EE
:1013D000910561F708958093F70108959091F701C1
:1013E00021E030E0F90101C0EE0F8A95EAF7D9015A
:1013F00002C0AA0FBB1F6A95E2F7EA2B01C0220FB9
:101400004A95EAF7892F8E23E81305C0292B822FEE
:101410000E94EB09089520952923F9CF21E030E0BF
:1014200001C0220F8A95EAF720958091F701822367
:101430000E94EB0908959091C301809589238093C0
:10144000C301282F277069F4891759F09091F10290
:1014500092FF07C08695869586950E940E0A109287
:10146000C301089521E030E001C0220F8A95EAF718
:101470008091F701822B0E94EB0908958093E70188
:101480000895662309F45DC08D3C41F40E94340741
:101490008195809319020E94EB0608958E3C19F401
:1014A0000E943407F6CF8F3C31F40E9434078195B7
:1014B00080931802F0CF803D19F40E943407F8CFD2
:1014C000893D29F40E94120780931A02E4CF8A3DD5
:1014D00021F40E9412078195F7CF8B3D31F40E94D1
:1014E0001207819580931B02D6CF8C3D19F40E9480
:1014F0001207F8CF9FE2980F983070F4815D990B36
:1015000021E030E001C0220F8A95EAF780911702AE
:10151000822B80931702BFCF8D3D31F48091110251
:10152000816080931102B7CF8E3D21F4809111022A
:101530008260F7CF8F3D09F0AECF809111028460B9
:10154000F0CF409118028D3C59F48091190287FF29
:101550000DC01092190241110BC010920F0208C069
:101560008E3C81F48091190218169CF3442381F07B
:1015700080911A0290911B02892B09F08CCF109256
:10158000100289CF8F3C49F447FFF0CF1092180228
:10159000809119028111ECCFE0CF803D19F414162F
:1015A000ACF3E4CF90911A02893D29F41916F4F6B0
:1015B00010921A02DBCF8A3D19F497FFD7CFF8CFEC
:1015C00090911B028B3D29F497FFD0CF10921B0204
:1015D000CDCF8C3D19F41916CCF3C8CF9FE2980FEC
:1015E000983090F4815D990B21E030E0B90102C0A0
:1015F000660F771F8A95E2F7CB01809590911702CD
:10160000892380931702B2CF8D3D31F4809111026E
:101610008E7F80931102AACF8E3D21F4809111021A
:101620008D7FF7CF8F3D09F0A1CF809111028B7F85
:10163000F0CF80FF09C0479A81FF08C0469A82FF19
:1016400007C02E9A81E008954798F6CF4698F7CFC5
:101650002E98F8CF0F931F93CF93DF938B01EA015E
:1016600090911703943061F58093E9008FEF90918A
:10167000E800815095FD06C095ED9A95F1F70000C0
:101680008111F5CF8091E80085FF1AC00E945A03AE
:10169000811111C08091E80085FD06C08091E800AD
:1016A0008E778093E800F2CFF80181918F018093CB
:1016B000F100219779F78091E8008E778093E80018
:1016C000DF91CF911F910F91089543E050E0BC014D
:1016D00084E00E942A0B089546E050E0BC0184E0BB
:1016E0000E942A0B0895CF93DF93EC0180910D01A6
:1016F000811111C048E050E0BE0181E00E942A0B38
:1017000080E2FE01A5EFB2E001900D928A95E1F72B
:10171000DF91CF9108958091F00287FF05C040E2EC
:1017200084E050E0BE01EACF48E081E0FACF81E0FA
:101730008093E00080E28093D8001092C9008FE18E
:101740009EE40197F1F700C0000087E090EBDC0118
:1017500080935E0390935F03A0936003B093610353
:1017600088E19CE00FB6F894A895809360000FBEC6
:1017700090936000FFCF8091DC0280FD0AC0E4E21C
:10178000F2E0118210821282339652E0E936F507B8
:10179000C1F7549A3BB13F7E2BB120614FB7F8940B
:1017A00084E292E0FC015191CF0168E02BB9000086
:1017B00000C057FF3BB9550F000000C000C000C07B
:1017C0003BB900C06A9591F7F2E089369F0751F75F
:1017D0004FBF8FE594E00197F1F700C00000089536
:1017E000EF92FF921F93CF93DF93EC0184E2E82EF8
:1017F00082E0F82E10E04091DF02403C08F04FEB11
:101800008C8197016091DE02810F0E945506155F61
:1018100083E0E80EF11C1D3F71F70E94BB0B9A811B
:101820008C8190FF08C08F5F8C83DF91CF911F91D7
:10183000FF90EF9008958150F7CF9091DC0290FFD8
:101840000CC0E4E2F2E0818360834283339692E04D
:10185000E936F907C1F70E94BB0B0895A3E0B0E099
:10186000E4E3FCE00C9452268C01DC011496EC912C
:10187000F0E0E258FC4F44918091DC0280FF11C0FF
:10188000403C08F04FEB9E012F5F3F4F6091DE021E
:101890008091DD020E9455064B8169818A810E94F8
:1018A0001D0CF80184818F5F84832396E4E00C94FF
:1018B0006E26CF93DF93C9EAD2E060E0CE010E94AA
:1018C0004B272196C11584E0D807B9F7DF91CF9156
:1018D00008951F93CF93DF93122F8430E0F46A3082
:1018E000D0F44830C0F490E1699FE001112450E049
:1018F000440F551FC40FD51F90EA899FC00DD11DFD
:101900001124632FCE0189960E944B27612FCE01AF
:101910008A960E944B27DF91CF911F910895B0E0E6
:10192000A0E0E5E9FCE00C944F2610E000E08EE733
:10193000E82E84E0F82ED12C1AC001151105D1F43F
:10194000FE01EE0FFF1FEE0DFF1D259134914C2F70
:101950006D2D80E00E94690C2196C830D10569F791
:1019600080E1E80EF11CD3948AE0D81649F0D0E06B
:10197000C0E0E3CF21E030E04C2F6D2D802FEACF87
:101980000F5F1F4F0430110591F6CDB7DEB7E7E0CA
:101990000C946B26CF93C82F6FEF811163E285E221
:1019A00090E00E944B276FEFC11166E086E290E065
:1019B0000E944B276FEFC11161E187E290E00E9426
:1019C0004B27CF91089580E00E94CA0C60E088E226
:1019D00090E00E944B270E948F0C0E94590C81E0DE
:1019E0000E94CA0C0895682F86E090E00E944B2761
:1019F00008958091E40280FF08C08E7F8093E40206
:101A00000E94F30C80E00E94690508958091E40231
:101A100080FD13C081608093E402813019F489E075
:101A20008093E4028091E4020E94F30C8091E4022E
:101A30008695869586950E94690508950F931F9354
:101A4000CF93DF93843030F56A3020F5483010F5BD
:101A500020E1629F8001112450E0440F551F040FC4
:101A6000151F30EA839F000D111D1124C8018996AE
:101A70000E942727C82FD0E0DC2FCC27C8018A96E8
:101A80000E9427279E01282BC901DF91CF911F912A
:101A90000F91089590E080E0F8CF462F7A3040F41F
:101AA000683030F4843020F4672F0E941E0D0895B2
:101AB00090E080E00895CF92DF92FF920F931F9302
:101AC000CF93DF936C010091F7018091E701082B20
:101AD000C3E0D0E010E0FC2EC8010C2E02C09595AA
:101AE00087950A94E2F780FD0CC02197A0F7F12CAE
:101AF0008F2DDF91CF911F910F91FF90DF90CF90AD
:101B00000895B6018C2F0E944D0D0E945208019736
:101B100061F3EECFCF93DF93EC010E945B0DBE012A
:101B20000E944D0D0E945208DF91CF910895FC0153
:101B300024812223C1F0808191810E948A0D929597
:101B40009F70963091F058F4925F9F70923058F4E5
:101B5000803F19F030F4883E30F481E008959A5FB8
:101B6000F4CF843FD1F380E00895883EB0F3813F05
:101B7000D1F7F3CFA6E0B0E0E0ECFDE00C94532603
:101B800049835A8349815A819923A1F0222391F0F4
:101B9000CA010E945B0D182F682F89819A810E94CB
:101BA000B50969817A81812F0E944D0D2696E3E067
:101BB0000C946F26CA010E948109182FF2CF85E28A
:101BC00090E00E942727833289F486E290E00E9409
:101BD0002727863059F487E290E00E94272791E07A
:101BE000813109F090E0892F8170089580E0FCCF69
:101BF000B0E0A0E0EEEFFDE00C944626FC01628030
:101C0000448081E08483EEE7F3E07490EDEFF3E04D
:101C1000E4910091DF020695015810E0000F111FBA
:101C2000012F1127C9E6D2E024E2C22E22E0D22EF3
:101C30003CED832E32E0932EAA24AA94B12C552495
:101C40005A94E719EE2EF12C82E0861530F080913F
:101C5000DD0288838091DE028983411019C01B82D6
:101C60001A824A81403C08F04FEB960169818881D5
:101C70000E945506259683E0C80ED11C8C169D0641
:101C800019F70E94BB0BCDB7DEB7E0E10C946226DA
:101C90008B818823E9F081508B83859DC0011124BD
:101CA0006C8170E00E940F26FB01FF27E258FC4F79
:101CB0008491E82FE719E59DC0011124B7010E9426
:101CC0000F268091DF02689FB00111247A83C9CF6B
:101CD0000E94FD26B5010E942326801791070CF073
:101CE000C0CF82E0861588F40E94FD26B5010E94CF
:101CF000232688830E94FD262091DE022695622FEE
:101D000070E00E942326280F29831A828091DF0227
:101D1000893C20F088EC8C838B83A3CF8431D8F767
:101D200084E1F9CFB0E0A0E0E8E9FEE00C944A26B7
:101D300049015A016B017C010E943F068401A40104
:101D40006A2D7B2D88E090E00E945D2794014A2D4A
:101D50005B2DB601C70100E20E949626622F84E245
:101D600090E00E944B27CDB7DEB7ECE00C946626DE
:101D7000A3E0B0E0EEEBFEE00C945026082FF62E28
:101D8000142FE22E8091DC0280FF31C0E82FE6950F
:101D9000F0E0E75AFE4F9081909322028E7F8230CE
:101DA00051F5403C08F04FEB9E012F5F3F4F6F2DE8
:101DB000802F0E9455064B8169818A810E941D0CEB
:101DC0000093DD02F092DE021093DF02EE2079F044
:101DD0002091DC026091E0027091E102302F4F2DE2
:101DE000512F8091E2029091E3020E94920E23967D
:101DF000E6E00C946C26923019F41091DF02E0CFEB
:101E00009630F1F60091DD02DBCFECEDF2E043819C
:101E100021E1421B08F440E021E0628181810E94BF
:101E2000B80E0895ECEDF2E0438121E1420F08F491
:101E30004FEF21E0628181810E94B80E0895ECEDA0
:101E4000F2E0628121E1621B08F460E021E043815D
:101E500081810E94B80E0895ECEDF2E0628121E1EB
:101E6000620F08F46FEF21E0438181810E94B80E78
:101E70000895ECEDF2E0818121E043816281885098
:101E80000E94B80E0895ECEDF2E0818121E04381DB
:101E90006281885F0E94B80E08958091E0028823D5
:101EA00019F081508093E0022091DC023091DD0234
:101EB0004091DE025091DF026091E0027091E102F8
:101EC0008091E2029091E3020E94920E0895809127
:101ED000E002833018F48F5F8093E0022091DC02EF
:101EE0003091DD024091DE025091DF026091E0020C
:101EF0007091E1028091E2029091E3020E94920EC1
:101F000008959091DC0290FF34C09170811132C02D
:101F100092609093DC02662391F02091DC02309174
:101F2000DD024091DE025091DF026091E00270918B
:101F3000E1028091E2029091E3020E94920E609190
:101F4000DC02669570E041E050E08CE091E00E9498
:101F50000D27892BB1F01092230281E080931F029C
:101F600020E04091DF026091DE028091DD020E945C
:101F7000B80E0895823110F09262CBCF880F982B63
:101F8000C8CF81E0809323020E94A70490931D0292
:101F900080931C02E2CF8091DC028695815009F487
:101FA00081E161E00E94810F08958091DC028695B5
:101FB0008F5F823108F081E061E00E94810F089517
:101FC0009091DC0290FF08C09695981728F096171C
:101FD00018F40E94D50F089561E00E94810F0895C2
:101FE000ECEDF2E083E0808311828FEF82838FEB50
:101FF00083831482758123E030E04FEF5FEB60E074
:10200000868197810E94920E08958091E6019091B9
:10201000E501892B80937C019091E4019923A1F043
:10202000892B80937C0180910D018823E1F18091BF
:10203000F00287FF38C08EE1EEE7F1E090E08150DA
:10204000A0F591111092E40140E250E064EC71E0DF
:102050008CE791E00E941A27892B21F180E2ECE7BE
:10206000F1E0A4ECB1E001900D928A95E1F7E091E6
:10207000E702F091E8023097A9F080910D018823E2
:1020800059F08091F00287FF07C080917C01809316
:102090007D0186E080937C010280F381E02D8CE756
:1020A00091E00995089586E0C7CF2191222339F266
:1020B0009F5FC5CF882321F00E9470090E94051000
:1020C0000895882339F09091E601982B9093E601CA
:1020D0000E9405100895882399F19CEF980F913A7A
:1020E00040F4682F8CE791E00E94B3040E94051031
:1020F000089590E2980F983050F4877091E001C0F5
:10210000990F8A95EAF7892F0E947009EFCF9BE516
:10211000980F933028F490E080E00E9437050895EE
:1021200098E5980F9B3128F490E080E00E9412051A
:10213000089593E3980F933118F460E00E94410AE8
:102140000895CF93C82F8823D9F18CEF8C0F813A53
:10215000C8F580910D01882311F18091F00287FF6D
:102160001EC0EC2FE695E695E695F0E0E458FE4FAC
:10217000828190E04C2F477021E030E002C0220FB6
:10218000331F4A95E2F782239323892B91F06C2F1A
:102190008CE791E00E94B3040E9405100AC0EEE7AC
:1021A000F1E084E891E02191C21789F38E179F072F
:1021B000D1F76C2F8CE791E00E94DD040E9405109E
:1021C000CF91089580E28C0F883068F4C77021E0C9
:1021D00030E001C0220FCA95EAF78091E601822B18
:1021E0008093E601EBCFEBE5EC0FE33040F4F0E059
:1021F000E25FFE4F808190E00E943705E1CFE8E585
:10220000EC0FEB3150F4F0E0EE0FFF1FEF5EFE4FEE
:10221000808191810E941205D3CF83E38C0F83319B
:1022200078F661E08C2F0E94410ACACF1F93CF93AA
:10223000DF93182FD0E0C0E0893311F4C0E5D0E07F
:10224000812F0E94A110209739F4812F0E946B10DA
:10225000DF91CF911F9108958FE99FE00197F1F7EA
:1022600000C000002197EFCF0F931F93CF93DF9310
:10227000C62FD42F022FFC0185818823A9F06093FB
:102280005D030E94A70490935C0380935B03C77077
:1022900081E001C0880FCA95EAF70E946110DF91C2
:1022A000CF911F910F91089580915D03681332C003
:1022B00080915B0390915C030E949804883C910597
:1022C00048F510E21D0FCD17B9F080E28C0F883071
:1022D00040F4C77081E001C0880FCA95EAF70E94F8
:1022E0005A10183048F481E09D2F977001C0880F74
:1022F0009A95EAF70E946110802F0E9416111830FB
:1023000070F6D77081E001C0880FDA95EAF70E9475
:102310005A10C5CFC77081E001C0880FCA95EAF78F
:10232000F6CF9091F10292FB222720F9281779F03D
:1023300080FB92F99093F1026091F0027091F102AA
:1023400084E090E00E94692782E00E941B0A0895C1
:1023500090E080E00E943527863E9E4F19F40E944F
:10236000DF0D089580E008951092E60180910D013F
:10237000EEE7F1E0882329F18091F00287FF21C088
:102380008EE1DF011D928A95E9F790E080E00E94DE
:10239000370590E080E00E9412051092E5010E944E
:1023A000051086E0E6E1F2E0DF011D928A95E9F78B
:1023B00010920F0210921002109211020E94EB066E
:1023C000089586E0DECFAAE2B0E0E9EEF1E10C94F8
:1023D000532689E193E02091F100DC012D93CD019A
:1023E000B3E081329B07B9F780911A03833009F477
:1023F00072C0B8F4813009F449C0823009F4B3C026
:102400008091E80083FF8BC28091190390911A0399
:102410009A3008F084C2E92FF0E0EC51F84D0C94AA
:1024200037268A3009F48EC08B3009F471C08930A8
:1024300039F780911903813219F780911D0390912A
:102440001E03009711F00297D9F68091E800877F6C
:102450008093E8008091E80082FF38C09091F300FB
:102460008091F200029731F48091F100813011F0F7
:10247000863021F48091F1008093F4028091E8008D
:102480008B778093E8000E948B03BACF8091190369
:10249000813A09F0B5CF8091E800877F8093E8000A
:1024A00080911D0390911E03892B61F460E285EFFA
:1024B00092E070E00E9437048091E8008B7780936F
:1024C000E8009ECF60E090E080E0F3CF80911703BA
:1024D0008111C0CF95CF80911903813A09F090CF37
:1024E00080911D0390911E03892B09F089CF809163
:1024F000E800877F8093E8008091E80080FFFCCFB0
:1025000080910D018093F1008091E8008E77B9CF22
:1025100080911903813209F073CF80911D0390914E
:102520001E03892B09F06CCF8091E800877F809390
:10253000E8000E948B0380911B0380930D010E9491
:10254000B4115ECF80911903813209F059CF809187
:10255000E800877F8093E8000E948B0380911C0332
:102560008093F3024DCF80911903813A09F048CF4F
:102570008091E800877F8093E8008091E80080FFE9
:10258000FCCF8091F302BECF803899F0823809F0F9
:10259000C6C180911D038F70873008F0C0C1809341
:1025A000E9008091EB0085FB882780F91092E90013
:1025B00006C080911503909116039111826090914D
:1025C000E800977F9093E8008093F1001092F1006B
:1025D0008091E8008E779FC1882309F48DC18230F5
:1025E00009F09DC180911B03811190C180911D0351
:1025F0008F702FEF280F263008F091C18093E900EB
:102600002091EB0020FF82C1933031F48091EB00E8
:1026100080628093EB007AC19091EB00906190937F
:10262000EB0021E030E001C0220F8A95EAF7209309
:10263000EA001092EA008091EB008860EACF8111F5
:102640006EC110911B031F778091E3008078812B6E
:102650008093E3008091E800877F8093E8000E94E8
:102660008B038091E80080FFFCCF8091E3008068BD
:102670008093E30082E0111183E0809317034FC140
:102680008058823008F04BC120911B0330911C030D
:102690002C3DE3E03E07A1F583E08A838AE289834B
:1026A0004FB7F894DE01139620E03EE051E2E32FAD
:1026B000F0E050935700E49120FF03C0E295EF70E3
:1026C0003F5FEF708E2F90E0EA30C0F0C7968D9399
:1026D0009D932F5F243159F74FBF8091E800877F8A
:1026E0008093E8006AE270E0CE0101960E94370410
:1026F0008091E8008B778093E80011C1C096E7CF06
:1027000080911D0390911E03432F5527433051059F
:1027100009F44AC078F54130510509F47AC08BE5D7
:1027200090E0EEE1F5E04230510509F0F8C020916B
:10273000E800277F2093E80020911F0330912003B9
:102740008217930708F49C0140E02115310509F038
:1027500065C0411163C08091E80082FDC9CF8091BE
:102760001703882329F2853019F28091E80083FF4E
:10277000F2CFBECF4132510509F43CC0423251057F
:1027800009F0CDC08330910508F0C9C0FC01EE0FFF
:10279000FF1FE259FE4F0190F081E02D85599E4FB9
:1027A000DC018C9190E01AC0332721303105D1F043
:1027B0002115310561F02230310509F0B0C0EBE898
:1027C000F5E0E4918E2F90E0EBE8F5E007C0EFEB49
:1027D000F5E0E4918E2F90E0EFEBF5E0009709F43F
:1027E0009EC0A5CFE9E9F5E0E4918E2F90E0E9E9FC
:1027F000F5E0F4CF8330910508F091C0880F991F60
:10280000FC01EC58FE4F0190F081E02D89E090E052
:102810008ECF82E190E0E9E7F5E089CF8091170360
:10282000882309F465CF853009F462CF8091E800F0
:1028300083FD5ECF8091E80082FD8DCF8091E8001E
:1028400080FF83CF9091F3008091F2002115310534
:1028500019F08830910550F041E0089709F040E008
:102860008091E8008E778093E8006FCF4491409389
:10287000F1003196215031090196E8CF803809F0F6
:102880004EC08091E800877F8093E8008091180314
:102890008093F1009DCE811142C010911B03123034
:1028A000F0F58091E800877F8093E800109318038B
:1028B0000E948B03112311F084E005C08091E30096
:1028C00087FDFACF81E08093170342E061EC81E05D
:1028D0000E94AA0342E261EC84E00E94AA0342E261
:1028E00061EC82E00E94AA0342E260EC83E00E9475
:1028F000AA038091170313C080911B03813079F4E0
:1029000081E0933009F080E0809316031092E90093
:102910008091E800877F8093E8000E948B0380917C
:10292000E80083FF0AC08091E800877F8093E80079
:102930008091EB0080628093EB00AA96E3E00C9418
:102940006F260E94B4112FEF84E39CE02150804059
:102950009040E1F700C0000088E19CE00FB6F894D9
:10296000A895809360000FBE90936000FFCFA8E011
:10297000B0E0EDEBF4E10C9446268C01DC011496FA
:102980008C911497882309F4B8C021E04C911196DA
:102990005C91119712966C91129713967C911397F4
:1029A00015969C910E94BA0D7C01F80185818823BF
:1029B00009F40FC6970137572038310508F036C1A2
:1029C000FFE0FE1508F489C08FEF93E00E942727EF
:1029D000811183C069EAA62E62E0B62EE11047C0DD
:1029E000FE01339686E0DF011D928A95E9F75AE0F1
:1029F000452E7501BFEFEB1AFB0AC5010E94272780
:102A000089831A82882309F468C0813009F079C06B
:102A10006501E2E0CE0ED11CC7010E9427278A8300
:102A2000882309F45AC09FEF980F933070F5F3E0B4
:102A3000AF0EB11CC6010E9427278B83882309F49F
:102A40004CC01C82DE0111967D01F70120812223FA
:102A500081F2213009F095C091818281913009F095
:102A600052C0F2E0EF0EF11C0E94161153C0A114E7
:102A700024E0B20691F1C5010E942727811101C00F
:102A8000EA943FEFA31AB30AA9CF56018430D1F6D6
:102A900042E0E42EF12C56012FEFA21AB20AC60131
:102AA0000E942727E1E0F0E0EC0FFD1FEE0DFF1D77
:102AB0008083882391F08C3741F4E2E0F0E0EC0F62
:102AC000FD1FEE0DFF1D1082BDCF3FEFE31AF30A8D
:102AD000650187E0E816F104F1F68091C301877083
:102AE00061F0D80115968C91882339F08091F1021C
:102AF00082FF03C082E00E941B0A2896E0E10C944A
:102B0000622657019FCF923049F422E0E20EF11C79
:102B10000E94A110EFEFEE1AFE0A97CF933031F426
:102B200032E0E30EF11C0E946B10F4CF943021F0E0
:102B30008FEFE81AF80AEECF92E0E90EF11C30E0D0
:102B400020E0B7016F5F7F4FD70111964C91805302
:102B5000990B8A30910550F021503109D8F2EFE9F4
:102B6000FFE03197F1F700C00000F6CF429EF00180
:102B7000439EF00D11249C012E0F3F1F842F7B01DB
:102B8000E0CFE22FF0E0EC50FE4F5490822F86957C
:102B90008695869590E0FC01EC51FE4F649027707D
:102BA000712C022E02C0759467940A94E2F731E00A
:102BB00063227724FC01EC52FE4F8490912C022E6C
:102BC00002C0959487940A94E2F7A1E08A2299249E
:102BD000FC01EC53FE4FC490D12C02C0D594C79495
:102BE0002A95E2F7B1E0CB22DD246114710419F0DB
:102BF00081EE0E94A1108114910419F086EE0E94CA
:102C0000A110852D0E9416118114910419F086EEF1
:102C10000E946B106114710419F081EE0E946B1018
:102C2000C114D10409F476CF8CE21ECFF2E0EF1686
:102C3000F8E7FF0609F470C0A0F4E11438E7F306E2
:102C400089F191E0E91698E7F906A1F1F701E85159
:102C5000FC47E730F10508F08AC0E251F84D0C94CA
:102C60003726A4E0EA16A8E7FA0609F441C020F1E5
:102C7000E5E0EE16E8E7FE0649F79091E402892FB9
:102C80008695869586958F5F8F719770873008F04F
:102C90004DC0880F880F880F892B8093E4028091A4
:102CA000E40212C086E00E9421068091E4020E94A4
:102CB000F30C13CF80E0F7CF8091E402982F987F38
:102CC00079F088508093E402887F91E009F490E0E5
:102CD0008091E40290FB80F98093E4020E94F30C5F
:102CE0008091E4028695869586950E946905F5CEC9
:102CF0008091E402982F969596959695963040F49B
:102D00009F5F990F990F990F8770892B8093E40229
:102D10008091E4028160E0CF8091E40280FF03C0F3
:102D20000E94F90CDACE0E94060DD7CE9093E402F1
:102D3000B6CF26E241EE61EEC8010E943411CDCE3D
:102D400027E245EE65EEF8CF26E241EE60EEF4CFE5
:102D500027E245EE64EEF0CF26E241EE62EEECCFE4
:102D600027E245EE66EEE8CF28E241E0EBCF109295
:102D70005D03970130572332310508F0F2C384E038
:102D800090E00E9435279093F1028093F002F701C2
:102D9000E150F047E232F10520F4EB50F84D0C948D
:102DA00037268091F00281608093F00295C0809177
:102DB000F10288608093F1028FC08091F0028260FE
:102DC000F3CF8091F0028460EFCF8091F0028860B1
:102DD000EBCF8091F1028160EDCF8091F1028260B2
:102DE000E9CF8091F0028061DFCF8091F0028062B4
:102DF000DBCF8091F0028064D7CF0E94B411809124
:102E0000F0028068D1CF8091F0028C60CDCF8091AC
:102E1000F1028360CFCF8091F0028E7FC5CF809189
:102E2000F102877FC7CF8091F0028D7FBDCF809167
:102E3000F0028B7FB9CF8091F002877FB5CF809170
:102E4000F1028E7FB7CF8091F1028D7FB3CF809159
:102E5000F0028F7EA9CF8091F0028F7DA5CF809167
:102E6000F0028F7BA1CF0E94B4118091F0028F7786
:102E70009BCF8091F002837F97CF8091F1028C7F6E
:102E800099CF8091F00282FB992790F921E0922757
:102E900090FB82F990FB83F987CF8091F102982F04
:102EA000909591708E7F892B90FB81F983CF9091C3
:102EB000F002892F8F7B96FF806476CF0E94B41139
:102EC0009091F002892F97FB87F980586DCF61E0D0
:102ED0008EE090E00E944B276091F0027091F10229
:102EE00084E090E00E9469270E94B411F6CD60E072
:102EF000EFCF9091F002892F8F7E94FF806154CFA5
:102F00009091F002892F8E7F90FF81604DCF90913C
:102F1000F102892F877F93FF88604CCF80919C01BD
:102F200069E2811165E38CE791E00E94B3042DC34F
:102F30008091DC0280FF19C0282F2E7F2093DC02B5
:102F40003091DD024091DE025091DF026091E0029B
:102F50007091E1028091E2029091E3020E94920E50
:102F6000109223020E94BB0BB8CD81608093DC02DB
:102F700061E086950E94810FB0CD4BEC5FE065ED7E
:102F80007FE00E943806A9CD45ED5FE06BEC7FE065
:102F9000F8CF49E35FE063E47FE0F3CF43E45FE031
:102FA00069E37FE0EECF4FE15FE06CE27FE0E9CFE5
:102FB0004CE25FE06FE17FE0E4CF45E05FE062E19B
:102FC0007FE0DFCF42E15FE065E07FE0DACF4DE414
:102FD0005FE067E67FE0D5CF47E65FE06DE47FE046
:102FE000D0CF61E081E0C6CF65E082E00E94E00FD3
:102FF00074CD6BE086E0FACF61E18CE0F7CFF7E7C4
:10300000EF16FCE7FF0609F462C028E7E2162CE79A
:10301000F20609F464C0F8018581E080F18088231C
:1030200009F491C0C7010E945B0DD82E682FC7011B
:103030000E94B509B7018D2D0E944D0D0E945208C6
:103040007C01882ED8011596AC90159716969C9009
:1030500092943FE093228091C3018770F1F0CA2CD3
:10306000AA20E1F08F2D807F803451F080E28E0D18
:10307000883098F0911004C08F2D807E803269F0E6
:103080008091F10282FF09C082E00E941B0A8091B8
:10309000C3018770CC24C3948111C12CBF2CB2947E
:1030A0002FE0B222BBE0BB1508F4B6C0EB2DF0E078
:1030B000E95EF74D0C943726882349F081E00E94A1
:1030C000320A43E062E081E00E94EE0906CD81E031
:1030D0000E940E0AF6CF882311F082E0F0CF82E042
:1030E000F7CFBBE5EB16BCE7FB0659F1ECE5EE16B6
:1030F000ECE7FE06E1F0FAE5EF16FCE7FF0609F063
:103100008ACF81E01BC00E94B4112FEF34E38CE022
:10311000215030408040E1F700C000000E94970B32
:103120006FEF7FEF90E080E00E94692750C28091AE
:10313000F10282FB882780F991E089270E94911192
:103140006ACF80E0FBCFC7010E948109D82E72CFE1
:10315000EF2DEF70DE2E8F2D807F19F0D29490EF3F
:10316000D922AA20B9F0DD2069F080E28E0D8830E6
:1031700010F0811009C08091E601D82AD092E601B2
:103180000E9405108E2D46C08091E501D82AD0926C
:10319000E501F6CF8E2D0E946B10DD20E9F180E273
:1031A0008E0D883010F0811004C08D2D0E947009A2
:1031B00006C0D0948091E501D822D092E5010E940A
:1031C00005102AC0FF2DFF70DF2E8F2D807F8032EB
:1031D00019F0D29480EFD822882059F021E082168D
:1031E00009F484C0AA2009F490C0992009F452C0BF
:1031F000C9CF8091F10282FD49C0AA2009F440C0E4
:10320000DD2039F08091E601D82AD092E6010E94B3
:10321000051080E00E94A110AB2DA850BB0B1497A5
:1032200020F40E945C050E94190BCC20A9F080912B
:10323000C30180FD11C0F80115828695869586959B
:103240000E94320AC8010E94B7148091C30186957A
:10325000869586950E940E0A20E0D8014C91119621
:103260005C91119712966C91129713967C9113971B
:1032700014968C91149715969C910E94BA0D3DCC92
:1032800080E00E946B10DD2039F28FCFAA20A1F0E0
:10329000911004C08D2D0E946110BECF31E09312B9
:1032A000BBCF8091E4019D2D9823D91609F4B4CFAA
:1032B000D82AD092E401B0CF9110AECF8D2D0E94CC
:1032C0005A109091E4018D2D892329F08D2D809540
:1032D00089238093E40180919D019D2D982309F419
:1032E0009BCFD094D822D0929D0196CFAA2029F0CE
:1032F00085E0891508F490CFCDCF94E0991508F4B6
:103300008BCF8D2D0E945A1087CF9920D1F3A9E33E
:103310008A1209C0BFEFE7EEF3E0B150E040F040A1
:10332000E1F700C000008E2D0E946B1075CF8F2D2D
:1033300086958695837061F0813009F06DCFC70165
:103340009370A11002C080E090E00E94120564CF4B
:10335000C7019370A11002C080E090E00E94370581
:103360005BCF6A2D8E2D0E94410A56CF8F2D837020
:1033700091F5A11051CF4E2D429546954770440FBF
:10338000440F8E2D8F70042E01C0880F0A94EAF727
:103390002E2D2071E4FE07C02FE030E001C0220F87
:1033A0004A95EAF720953F2D3695369533703230A1
:1033B00069F050F44091E701313029F0822B8423E9
:1033C0000E943E0A29CF842B822BFACF282B809192
:1033D000E7018227F5CF8695AA2011F08F2D817005
:1033E000882309F419CF4E2D429546954770440F16
:1033F000440F8E2D8F70042E01C0880F0A94EAF7B7
:103400002E2D2071E4FE07C02FE030E001C0220F16
:103410004A95EAF720953F2D369536953370323030
:1034200069F050F44091F701313029F0822B842368
:103430000E94EB09F1CE842B822BFACF282B8091AE
:10344000F7018227F5CF2F2D2F70F22EAA2029F019
:10345000822F0E94320A8E2D1ECF8E2D0E945A106E
:103460008F2D0E940E0AD8CE8E2D32EF8316B1F129
:10347000381570F090EF8916D1F0A1EF8A1691F00F
:10348000AA2009F45EC091107DCE8F2D8F712AC0C5
:10349000B3EF8B1651F1E4EF8E12F2CF8091F1026F
:1034A00082FD2FC08F2D8F71AA20D9F21BC0AA20B8
:1034B00081F0F4E0F91508F4AFCE2F2D2F7181E0E3
:1034C00090E001C0880F2A95EAF79091F7018927CB
:1034D000AFCF25E0291508F49FCEEFCF8F2D8F7148
:1034E000A110BFCF0E94320A97CE80E0AA2009F433
:1034F0009FCF9F2D9F7181E001C0880F9A95EAF7B9
:1035000097CFAA2099F03F2D3F71F32E832F0E9471
:10351000320A8091F10282FF07C0A8E0FA9EC00142
:10352000112483608093C3018F2DDCCF81E00E9442
:103530001B0AB1E0B91508F06FCE82E00E941B0AA9
:103540006BCE992059F0893309F0EDCEEFEFF7EE0D
:1035500023E0E150F0402040E1F7E3CE8F2D8F7162
:1035600080CFB6E1EB16BCE7FB0691F48091E60153
:103570008A7A91E009F490E090939C0169E28111CC
:1035800065E38CE791E00E94DD040E940510A5CA66
:10359000F7E7EF16FCE7FF0609F48ECD28E7E21601
:1035A0002CE7F20609F497CD33E0E3163CE7F30687
:1035B00009F4B6CD08F095CDE1149CE7F90609F4BD
:1035C000A2CDA1E0EA16ACE7FA0609F024CD0E94EC
:1035D000A114F701E851FC47E730F10508F43DCBB1
:1035E000E6E1EE16ECE7FE0609F498CC8091E601E0
:1035F0008272F701E052F847E531F10508F0FFCC9F
:10360000ED5DF74D0C943726CF93DF938091C20187
:10361000807F09F04DC08091C101882309F448C022
:10362000E0915A0350912103C091BD01D091BC019A
:103630006091BE017091BF0147E05E17C9F18E2F06
:1036400090E0E49FF0011124EE5DFC4F24812223E1
:1036500091F1489FF001499FF00D1124DF01AE5D0B
:10366000BC4F11962C9111972C1325C02C912D1322
:1036700022C015962C91159721111DC012962D91DF
:103680003C91261B370B283C3105A8F48091C201E0
:103690008F7080618093C201E85DFC4F80818F70E4
:1036A000806180838CEB91E00E94B7140E947709BF
:1036B000DF91CF910895FC013196E770BECFA4E170
:1036C000B0E0E5E6FBE10C944A268C0186E0F801C7
:1036D000DE011F9601900D928A95E1F7F801848131
:1036E000E5809CEBA92E91E0B92E9091C00191113B
:1036F00028C0882319F1EE20F1F0C8010E94970D2F
:10370000F82E8823C1F087E0F801D50101900D92D1
:103710008A95E1F78091C001813031F48091BC013C
:103720009091BD010E948A0D0E94041B8F2D64960A
:10373000ECE00C946626C8010E94B714FF24F394B1
:10374000F5CFD080C18082809380F090C10120911C
:10375000BE013091BF01A401421B530BFF2009F4AD
:10376000D9C0483C510508F092C08823F9F29091E5
:10377000BD018091C201282F207F09F056C0C912D7
:1037800014C09091BC01D91210C0E11048C08F70D4
:1037900080618093C2018CEB91E00E94B71480910C
:1037A000C201F8018683F12CC1CFE11038C06C2D25
:1037B0008D2D0E941C036C2D8D2D0E941C03E82E64
:1037C0008111F1CFDF86C88A8F8598890E948A0D82
:1037D000292F22952F70243058F49F70223088F0C2
:1037E000992399F0F8019681907F79F4FE2C9ECF71
:1037F0002A5F2F70223068F0C8010E94B714EF2CA6
:10380000F5CF992311F0882389F3805E883070F317
:10381000F3CF803F58F3815F833070F7E7CF80911B
:10382000C20181608093C201BECFC91207C09091CE
:10383000BC01D91203C0EE2009F48DC0C8010E945A
:10384000970D882309F477CFEE2009F474CF809187
:10385000C201803288F02091BC013091BD013987CE
:1038600028879B868A869091C0019C871D868E87BB
:10387000CE0108960E94B71487E0F801ACEBB1E0E6
:1038800001900D928A95E1F70E94041B57CF909109
:10389000C201292F207F51F48CEB91E00E94B714D4
:1038A00087E0F50111928A95E9F77DCF882309F425
:1038B0003DCF8091BD018C1110C08091BC01D81208
:1038C0000CC0E1100AC09683C8010E94B71487E0BB
:1038D000F50111928A95E9F729CFC8010E94970D49
:1038E000882309F428CFEE2009F425CF8091C20166
:1038F000803210F22091BC013091BD013A832983BE
:103900009C828B829091C0019D831E828F83CE0109
:103910000196B0CF483C5105D0F6882309F40ECF6C
:10392000FE2CEE2009F407CF8091BD018C1120C040
:103930008091BC01D8121CC08091C20180FD0FC0D3
:10394000982F907F61F08683903F31F0982F907F81
:10395000905F8F70892B8683C8010E94B71487E01F
:10396000F801ACEBB1E001900D928A95E1F7DECE63
:10397000C8010E94970D81117FCF8091C2018160A3
:103980008093C201C8010E94B714D0CEABE1B0E071
:10399000ECECFCE10C9452264E8B5F8B688F798F98
:1039A0008A8F9B8F192F91111092E5011D8A86E055
:1039B000FE017696DE011F9601900D928A95E1F741
:1039C0000A8D002341F021E04F85588969897A8961
:1039D000C8010E94BA0D0B8B1C8B87E0FE013F963D
:1039E000DE01189601900D928A95E1F7CE010896B6
:1039F0000E945F1B81110CC087E0FE013896DE013A
:103A0000119601900D928A95E1F78C8581110BC07A
:103A100017E080915A0390912103891331C06B966E
:103A2000E4E00C946E262091210330E0C901019658
:103A30008770992740915A034817190699F097E023
:103A4000929FD001939FB00D1124AE5DBC4FFE013B
:103A5000319601900D929A95E1F7809321030E948F
:103A60007709D6CF0E94B4111092210310925A0305
:103A700087E0ECEBF1E0DF011D928A95E9F7C8CF12
:103A8000819FC00111248E5D9C4F0E945F1B882383
:103A900031F280915A0390E00196877099278093C4
:103AA0005A03B7CFA6E0B0E0E8E5FDE10C9452265A
:103AB0000E94A7048C018091E8019091E901801790
:103AC000910781F019821A820E94A704682F498108
:103AD0005A81792F80E090E00E94C61C1093E90182
:103AE0000093E8012696E4E00C946E26AAE0B0E08C
:103AF000ECE7FDE10C944B268E010F5F1F4F8AE02F
:103B0000F80111928A95E9F787E4C82E81E0D82E52
:103B1000F12CE12CAA24A394B12CF60181916F0120
:103B20008F3F09F443C0F894E82FE295EF70F0E07E
:103B300021A18F70A50102C0440F551F8A95E2F79D
:103B4000CA01922F982B91A392A18095892382A3D9
:103B5000789400C0E1E5F1E0912C31E021912F3F14
:103B600009F465C0A22FA295AF70B0E090968C9139
:103B700090E02F7002C0959587952A95E2F780FD19
:103B800056C0832F982A330F51E0E935F50731F7F6
:103B9000F601319780818F3F11F00E94560780EA2D
:103BA0008A95F1F7F801EE0DFF1D9082EFEFEE1A06
:103BB000FE0AFAE0EF16F10409F0AFCF4AE050E058
:103BC000B8018DEE91E00E941A27892B91F18AE0CD
:103BD000F801ADEEB1E001900D928A95E1F781E038
:103BE0008093EC010E94A7049093EB018093EA017B
:103BF0008091EA019091EB010E9498040597E8F00A
:103C00004AE050E06DEE71E085E092E00E941A27F4
:103C1000892BC1F08AE0EDEEF1E0A5E0B2E0019081
:103C20000D928A95E1F781E01092EC0107C080E0E7
:103C3000A9CF8091EC018111DBCF80E02A96EBE0E7
:103C40000C94672680E0F0CFA8E0B0E0EAE2FEE165
:103C50000C94542666EE7EEF90E080E00E94692787
:103C600060E082E090E00E944B2760E083E090E01B
:103C70000E944B271092E70160E074E184E090E03D
:103C80000E94692760E086E090E00E944B276FEF7A
:103C900087E090E00E944B2740E050E0BA0188E0C6
:103CA00090E00E945D2760E084E290E00E944B2754
:103CB00060E087E190E00E944B2760E08CE090E0BC
:103CC0000E944B2760E08DE090E00E944B27198214
:103CD0001A821B821C821D821E821F82188648E067
:103CE00050E068E170E0CE0101960E943B2740E081
:103CF00050E0BA0180E290E00E945D2780E00E94DF
:103D0000CA0C0E94E30C40E050E0BA018FE090E062
:103D10000E945D2740E050E0BA0183E190E00E94FC
:103D20005D272896E2E00C9470260E94A81181116C
:103D30000AC00E94241E8091E402847081638093F3
:103D4000E4020E94F30C86E090E00E942727809313
:103D5000E402883320F0877080638093E4029091BE
:103D6000E402892F817090FF04C0892F8695869583
:103D700086950E94690508951F920F920FB60F92C3
:103D800011242F933F934F935F936F937F938F9360
:103D90009F93AF93BF93CF93DF93EF93FF93D09114
:103DA000E900DF708091EC00C82FC17080FDC0E891
:103DB0001092E9008091F000877F8093F000789462
:103DC0000E94E3111092E9008091F00088608093D6
:103DD000F000CD2BCF70C093E900FF91EF91DF9100
:103DE000CF91BF91AF919F918F917F916F915F9193
:103DF0004F913F912F910F900FBE0F901F901895EC
:103E00001F920F920FB60F9211242F933F934F934F
:103E10005F936F937F938F939F93AF93BF93EF9332
:103E2000FF938091E10082FF09C08091E20082FF50
:103E300005C08091E1008B7F8093E1008091DA00E2
:103E400080FF24C08091D80080FF20C08091DA00DC
:103E50008E7F8093DA008091D90080FF9DC080E141
:103E600089BD82E189BD09B400FEFDCF81E0809368
:103E700017038091F202811109C00E943B030E9446
:103E8000DC038091E20084608093E2008091E10095
:103E900080FF17C08091E20080FF13C08091E20094
:103EA0008E7F8093E2008091E20080618093E20047
:103EB0008091D80080628093D80019BC85E08093FF
:103EC00017038091E10084FF2BC08091E20084FF02
:103ED00027C080E189BD82E189BD89B5982F9170A5
:103EE00080FFFBCF8091D8008F7D8093D800809198
:103EF000E1008F7E8093E1008091E2008F7E8093CD
:103F0000E2008091E20081608093E20080911803DA
:103F1000882309F447C084E0809317038091170336
:103F20008091E10083FF27C08091E20083FF23C0DE
:103F30008091E100877F8093E10082E08093170306
:103F4000109218038091E1008E7F8093E1008091B0
:103F5000E2008E7F8093E2008091E2008061809396
:103F6000E20042E060E080E00E94AA038091F0005D
:103F700088608093F000FF91EF91BF91AF919F9186
:103F80008F917F916F915F914F913F912F910F9002
:103F90000FBE0F901F90189519BC10921703109226
:103FA000F20274CF8091E30087FD93E090931703B2
:103FB000B5CF78941F921FB61F9211248F939F93B1
:103FC000AF93BF938091EC029091ED02A091EE022D
:103FD000B091EF020196A11DB11D8093EC02909368
:103FE000ED02A093EE02B093EF02BF91AF919F91CB
:103FF0008F911F901FBE1F9018951F921FB61F9282
:1040000011248F939F93AF93BF938091EB02811103
:1040100013C08091EC029091ED02A091EE02B0915C
:10402000EF024196A11DB11D8093EC029093ED0229
:10403000A093EE02B093EF02BF91AF919F918F9149
:104040001F901FBE1F9018950F920FB60F921F92D0
:1040500011242F933F935F936F937F938F939F933D
:10406000AF93BF93209188003091890080918600A2
:10407000909187006AEF70E00E940F266B5F7F4F80
:104080006217730708F45E9ABF91AF919F918F9169
:104090007F916F915F913F912F911F900F900FBE75
:1040A0000F9018955E981895CDB7DEB7A6970FB606
:1040B000F894DEBF0FBECDBF85B7806885BF85B7DA
:1040C000806885BF84B7877F84BF0FB6F894A895B2
:1040D00080916000886180936000109260000FBE44
:1040E00080E890E00FB6F8948093610090936100AF
:1040F0000FBE84E597E090937B0180937A010E9444
:104100003B030E94DC038091E20084608093E20024
:104110007894809117038823A1F01091E9001F7013
:104120009091EC00892F817090FD80E8182B1092FF
:10413000E9008091E80083FD0E94E3111F70109355
:10414000E90082E084BD93E095BD9AEF97BD80932E
:104150006E000E94DF0D811102C00E94E30C07E493
:1041600011E0A1E5EA2EA1E0FA2ED8018D918D0192
:104170008F3F11F00E945607E016F106B1F701E5F6
:1041800011E0F9E5EF2EF1E0FF2EF80181918F01AA
:104190008F3F11F00E945607E016F106B1F78AE052
:1041A000E5E0F2E0DF01282F1D922A95E9F7EDEE18
:1041B000F1E0DF011D928A95E9F70E94A8118111B3
:1041C00002C00E94241E82E090E00E942727809374
:1041D000F90184E090E00E9435279093F1028093EA
:1041E000F0020E94761DBFEFE6E7F1E0B150E0403B
:1041F000F040E1F700C000000E94761D80910602A9
:1042000080FF08C06FEF7FEF90E080E00E94692799
:104210000E94970B83E090E00E9427270E943E0AAD
:104220003F9A47983E9A4698269A2E98569A5E98B4
:1042300082E08093800089E1809381008FEF9FEF7F
:1042400090938700809386000E94951E0E94951E81
:104250008091F801811173C00E94A811811104C0DE
:104260000E94241E0E94F00F88E090E00E942F27F9
:104270004B015C0184E290E00E942727282F30E068
:1042800040E050E060E070E080E090E000E20E94FA
:104290007B26282939294A295B292093DC0230937F
:1042A000DD024093DE025093DF026093E0027093E0
:1042B000E1028093E2029093E3022E7F89F50E944F
:1042C000F00F88E090E00E942F276B017C0184E2D0
:1042D00090E00E942727282F30E040E050E060E087
:1042E00070E080E090E00E947B26B22FA32FF42F95
:1042F000E52F5B0197018601BC29A12BFE29E32B49
:10430000B093DC02A093DD02F093DE02E093DF02C3
:104310006093E002B092E1028093E2029093E302A4
:104320000E943F06109223028091DC0280FF04C0AD
:1043300060E086950E94810F81E08093F80184E01F
:1043400091E09093E8028093E70268E1662E712C79
:104350007FE0E72E72E0F72EE4E0CE2EE2E0DE2EE4
:104360008091170300E112E1853009F48AC00E94B0
:10437000761D0AEF11E055E0A52E52E0B52ED501CD
:10438000F80191918D91CE16DF0609F488C0981737
:10439000C1F3912C22242394D5018D905D01F80165
:1043A00031908F01381419F13824512C442443944E
:1043B000832D8421A1F059A29AA20E94A7049CA354
:1043C0008BA32DA291E0882D842109F490E09EA377
:1043D00049A15AA16BA17CA18DA10E94C61C539436
:1043E000440CF8E05F12E4CFF80131978082939497
:1043F0002AE09212D1CF8FB7F8944091EC025091FD
:10440000ED026091EE027091EF028FBF4CC080917F
:104410001703843041F180E00E94690580E00E942A
:10442000190B1092EB0220E40FB6F894A895609255
:1044300060000FBE2093600083B7817F846083BFDC
:1044400083B7816083BF7894889583B78E7F83BF5D
:104450000FB6F894A8958091600088618093600001
:10446000109260000FBE80911603882351F00E94C5
:10447000761DE5E0F2E0819181118CC3EE16FF0616
:10448000D1F780911703853009F4C1CF0E94B41190
:104490000E94951E0E945C050E94190B68CF98131C
:1044A00078CF0E94521D809123028823D1F19091F0
:1044B0002202E091DC02E695E91BE0931E029230B5
:1044C00009F03FC1F0E0E658FD4FE4910E2F10E0F7
:1044D0004EE2A42E4CE0B42E80911F02882361F09E
:1044E00010921F020E94A70490931D0280931C0249
:1044F00010922102109220020E94A704E0911C0257
:10450000F0911D028E1B9F0B8F3F9F4750F40E0FA3
:104510001F1F10931D0200931C028CE192E0F50115
:10452000099586E0E6E1F2E0DE01119601900D9238
:104530008A95E1F7109218021092190210921A024D
:1045400010921B028B819C81892B09F44AC08091B7
:104550001402909115020E9498049C0190910F0200
:10456000992309F43BC325313105D8F19F3F19F058
:104570009F5F90930F021B81112359F00E94340713
:104580009FEF11160CF491E0899F802D11248093E8
:1045900018021C81112359F00E9434079FEF111655
:1045A0000CF491E0899F802D1124809319023091A1
:1045B00018023323B1F020911902222391F045EB28
:1045C0003403C0011124992309F4E2C09093180226
:1045D00045EB240390011124332309F4DDC030930B
:1045E00019028D819E81892B09F44AC080911202A3
:1045F000909113020E9498049C01909110029923BB
:1046000009F4E7C221353105D8F19F3F19F09F5FCA
:10461000909310021D81112359F00E9412079FEF01
:1046200011160CF491E0899F802D112480931A02B9
:104630001E81112359F00E9412079FEF11160CF4EE
:1046400091E0899F802D112480931B0230911A02E2
:104650003323B1F020911B02222391F045EB340368
:10466000C0011124992309F49BC090931A0245EBD1
:10467000240390011124332309F496C030931B02C4
:1046800046E050E0BE016F5F7F4F86E192E00E94FE
:104690001A27892B61F48091180290911902892BB5
:1046A00090911A02892B90911B02892B11F00E9484
:1046B000EB0686E0FE013196A6E1B2E001900D9294
:1046C0008A95E1F70E945C0590910402891779F0C0
:1046D000809304029FB7F8944091EC025091ED0250
:1046E0006091EE027091EF029FBF0E94190B8091C2
:1046F0001703843009F034CE83E08093E900809181
:10470000E80082FF2DCE8091E80090E085FF06C092
:104710000E945A03882309F44BC091E08091E8007D
:104720008B778093E800992309F41ACE8981EFEF03
:10473000E80FE33108F065C0F0E0E85CF74D0C9459
:104740003726963061F4E695F0E0E958FD4FE491A4
:104750000E2F10E030EFA32E3BE0B32EBDCE9C30E9
:1047600081F48E2F63E00E940326E92FF0E0EC58DD
:10477000FD4FE4910E2F10E028EFA22E2DE0B22E77
:10478000ABCE00ED17E09EE3A92E96E0B92EA4CEA5
:1047900081E0809318021CCF81E08093190221CF21
:1047A00081E080931A0263CF81E080931B0268CF7F
:1047B00080E2A82EB12C8E010F5F1F4F8091E80080
:1047C00085FD0AC08091E8008B778093E8000E9405
:1047D0005A03882399F3A1CF8091F100D8018D93DA
:1047E0008D01B1E0AB1AB10849F797CF1A828CE07E
:1047F0008B8324C08A81823009F4E2C128F481309D
:1048000061F08FEF89831AC0833009F18430C9F7D2
:104810001B821C821D821E8211C02FB7F8946091EA
:10482000EC027091ED028091EE029091EF022FBFA9
:104830000E943D266B837C838D839E8340E250E003
:10484000BE016F5F7F4F82E00E942A0B89CD2B81D2
:10485000822F90E0FE013496245E8A30910570F735
:10486000DC01AB5FBD4F3C91319301962813F5CF2E
:10487000E5CF8A818230B1F0853019F68091E4026B
:1048800080FF1BC00E94F90C8091DC0280FF18C0E1
:104890008091DC028E7F8093DC02109223020E94C2
:1048A000BB0BCCCF6B817C818D819E810E943D268C
:1048B00088E290E00E944B27C1CF0E94060DE4CF12
:1048C00081608093DC0260E086950E94810FB6CF04
:1048D0004C816B818A810E941E0D98278927982719
:1048E0009E838D83ABCF2D813E81322723273227B4
:1048F0004C816B818A810E94690CA0CF0E948F0C31
:104900009DCF9A81913089F5883099F0893041F1B5
:104910008B81813009F092CF8C81E6E08E9FC001BF
:1049200011246FEF70E00E940F26862F0E9421064F
:1049300085CF8B81813029F0823009F07FCF1C82B6
:104940007DCF8091E402869586958695FFEF8F9FB7
:10495000C001112466E070E00E940F266C836ECFC8
:104960008091E4020E94F30C69CF923009F049CFA4
:104970008830D9F1893009F460C08B81823009F127
:10498000A8F4813009F05ACF8C812FEB829FC001AF
:1049900011246FEF70E00E940F26462F20E06091F7
:1049A000DE028091DD020E94B80E48CF8330C9F04C
:1049B000843009F043CF20E04091DF026D818C818B
:1049C000F2CF8C81882309F463CF8091DC0281606F
:1049D0008093DC0260E086950E94810F60E08C810C
:1049E00074CF8C818093E00229CF8B818230C9F013
:1049F00060F4813009F022CF8091DF024FEF849F75
:104A0000C00111246FEB70E0A7CF833099F08430A0
:104A100009F014CF8091DD028C838091DE028D83BA
:104A20000DCF8091DC0280FF03C086958C8306CF7A
:104A300080E0FCCF8091E002F9CF2091DC02309140
:104A4000DD024091DE025091DF026091E002709140
:104A5000E1028091E2029091E3020E94920EEECE7A
:104A600080E18A83EBCE81E08A8387E5C1CE0A812B
:104A70001B81102701271027CE0101965C018C8035
:104A8000DC01A80DB11D4D01C80187559D4FA8142B
:104A9000B90409F4D3CE0735B1E01B0750F40E94E6
:104AA0002727F50184830F5F1F4FBFEFAB1ABB0AA7
:104AB000EBCFD50114961C92F6CF0A811B811027EB
:104AC00001271027FE0131964F01AC80A00EB12EB8
:104AD000B11CC80187559D4F0A151B0509F4AECEC0
:104AE0000735F1E01F0728F4D40114966C910E9459
:104AF0004B27BFEF8B1A9B0A0F5F1F4FEACF0E9415
:104B0000590C9CCE84E0ADCF0A811B811027012770
:104B10001027FE0131965F018C80CF01880D911D19
:104B20004C01C80189968A149B0409F487CE003889
:104B3000A2E01A0750F40E942727F50184830F5F33
:104B40001F4FBFEFAB1ABB0AECCFD50114961C92D6
:104B5000F6CF0A811B81102701271027FE0131960D
:104B60004F01AC80A00EB12EB11CC8018996A016D1
:104B7000B10609F463CE0038F2E01F0728F4D4012F
:104B800014966C910E944B27BFEF8B1A9B0A0F5F04
:104B90001F4FEBCF09BD19BD09B400FEFDCF8091B9
:104BA000D8008F7D8093D8008091E0008260809350
:104BB000E0008091E00081FDFCCF0E94B41161CC47
:104BC00088E290E00E9427271B821C821D828E8330
:104BD00035CE2B30310508F01ACD52CD2B303105B2
:104BE00008F0C6CCFECCDB018F939F930E949E27DA
:104BF000BF91AF91A29F800D911DA39F900DB29F79
:104C0000900D11240895991B79E004C0991F9617FF
:104C100008F0961B881F7A95C9F780950895AA1BFE
:104C2000BB1B51E107C0AA1FBB1FA617B70710F097
:104C3000A61BB70B881F991F5A95A9F780959095C9
:104C4000BC01CD01089597FB072E16F4009407D000
:104C500077FD09D00E940F2607FC05D03EF4909501
:104C600081959F4F0895709561957F4F0895EE0F40
:104C7000FF1F0590F491E02D099469279627692775
:104C800078278727782708952F923F924F925F9237
:104C90006F927F928F929F92AF92BF92CF92DF924C
:104CA000EF92FF920F931F93CF93DF93CDB7DEB7B1
:104CB000CA1BDB0B0FB6F894DEBF0FBECDBF099445
:104CC0002A88398848885F846E847D848C849B849C
:104CD000AA84B984C884DF80EE80FD800C811B81AA
:104CE000AA81B981CE0FD11D0FB6F894DEBF0FBED9
:104CF000CDBFED010895002E083090F0982F872F3A
:104D0000762F652F542F432F322F22270850F4CFB0
:104D1000220F331F441F551F661F771F881F991FBF
:104D20000A95B2F7002D089597FD1094002E0830D3
:104D300098F00850232F342F452F562F672F782FA8
:104D4000892F912DF4CF1594979587957795679531
:104D500057954795379527950A95AAF71124002D61
:104D600008958F929F92AF92BF92CF92DF92EF926F
:104D7000FF92CF93DF93EC01688179818A819B81D7
:104D8000611571058105910521F464E279ED8BE5EA
:104D900097E02DE133EF41E050E00E947F27490189
:104DA0005A019B01AC01A7EAB1E40E949E276B0166
:104DB0007C01ACEEB4EFA50194010E94AC27DC01AC
:104DC000CB018C0D9D1DAE1DBF1DB7FF03C001970C
:104DD000A109B04888839983AA83BB839F77DF9119
:104DE000CF91FF90EF90DF90CF90BF90AF909F90CA
:104DF0008F9008950E94B126089580E091E00E946E
:104E0000B1260895B0E0A0E08093000190930101E5
:104E1000A0930201B09303010895FC01415050405A
:104E200030F001900616D1F73197CF010895882709
:104E300099270895FB01DC0104C08D910190801930
:104E400021F441505040C8F7881B990B0895F999F7
:104E5000FECF92BD81BDF89A992780B50895A6E14D
:104E6000B0E044E050E00C947127A8E1B0E042E0EB
:104E700050E00C947127DC01A40FB51F4150504045
:104E800048F0CB01840F951F2E910E944C27415072
:104E90005040D0F70895262FF999FECF92BD81BDDD
:104EA000F89A019700B4021639F01FBA20BD0FB668
:104EB000F894FA9AF99A0FBE08950396272F0E9444
:104EC0004C270E944B27252F0E944C27242F0C94FF
:104ED0004C270196272F0E944C270C944B27DC016E
:104EE000CB01FC01F999FECF06C0F2BDE1BDF89AF5
:104EF000319600B40D9241505040B8F70895052EF8
:104F000097FB1EF400940E94962757FD07D00E943D
:104F1000B12707FC03D04EF40C949627509540958A
:104F2000309521953F4F4F4F5F4F08959095809555
:104F3000709561957F4F8F4F9F4F08950E94D327A3
:104F4000A59F900DB49F900DA49F800D911D1124DD
:104F50000895B7FF0C949E270E949E27821B930BF7
:104F60000895A1E21A2EAA1BBB1BFD010DC0AA1FAA
:104F7000BB1FEE1FFF1FA217B307E407F50720F0C2
:104F8000A21BB30BE40BF50B661F771F881F991F3D
:104F90001A9469F760957095809590959B01AC0186
:104FA000BD01CF010895A29FB001B39FC001A39F8F
:104FB000700D811D1124911DB29F700D811D112452
:104FC000911D0895F894FFCFC412EC128F14EC12C7
:104FD0008F141F1340138F143E144B14A416A816DD
:104FE0009916A016AC16B016B4160B178017131727
:104FF000DD16E1161717E5161B172717F116791797
:10500000F5162B17F9162F175717FD1633175E17BE
:10501000031739174117E9161F17ED16231707173E
:105020003D174D1767177717D7160F178717A8184B
:10503000A818E218E2189719B1190C190C19B61929
:10504000231A341A341A9817BD17C417C917CE1764
:10505000D317D817DD17E217E717EC17F117F41776
:105060006D15F9176D156D156D156D156D15FC1711
:10507000F623FA233924682473247E24812481248E
:105080008124012401243025332537255D257F2502
:0650900082258425A925FC
:10509600010000009504730B6C0B650B0101818206
:1050A60083E200E900EA00B500B600B700CD008350
:1050B60001CC008A019201940121022302240225D7
:1050C60002260227022A02B300B4006F0070009F76
:1050D60001CB019F02A002F0F1F4F5F63031323334
:1050E6003734979593929190350001020202020699
:1050F60006060606060C0C0C0C0C0C4022B68401A7
:0A5106006201AC003005490569059F
:00000001FF
