:100000000C9400030C9438030C9438030C943803BC
:100010000C9438030C9438030C9438030C94380374
:100020000C9438030C9438030C94E11C0C949D1C24
:100030000C94481E0C9438030C9438030C94380329
:100040000C9438030C9438030C9438030C94380344
:100050000C9438030C94241E0C9438030C9438032D
:100060000C9438030C9438030C9438030C94380324
:100070000C9438030C9438030C9438030C94380314
:100080000C9438030C9438030C9438030C94380304
:100090000C9438030C9438030C9438030C943803F4
:1000A0000C9438030C9438030C9438030631FF0980
:1000B00074A1010975150026FF00952075088102BD
:1000C000C005010902A10185020901A10005091964
:1000D000012908150025019508750181020501090E
:1000E0003009311581257F9502750881060938157B
:1000F00081257F950175088106050C0A3802158156
:10010000257F950175088106C0C005010980A10100
:10011000850319012AB700150126B700950175104E
:100120008100C0050C0901A101850419012AA00262
:10013000150126A002950175108100C00501090670
:10014000A1018506050719E029E715002501950895
:10015000750181020507190029EF1500250195F0A9
:10016000750181020508190129059505750191029E
:10017000950175039101C00660FF0961A101096243
:10018000150026FF009520750881020963150026D9
:10019000FF00952075089102C005010906A101051F
:1001A0000719E029E71500250195087501810295D9
:1001B00001750881010507190029FF150026FF00B8
:1001C0009506750881000508190129051500250106
:1001D000950575019102950175039101C00000001C
:1001E000000000000000000000000000000000000F
:1001F00000000000000000000000000000000000FF
:10020000007E0F00D4FFFFFFC70000007800000051
:1002100000000000002A2B28000000000000000061
:10022000000000000000000029000000002C1E3427
:1002300020212224342627252E362D3738271E1F2D
:10024000202122232425263333362E37381F040558
:10025000060708090A0B0C0D0E0F101112131415C6
:10026000161718191A1B1C1D2F3130232D350405A4
:10027000060708090A0B0C0D0E0F101112131415A6
:10028000161718191A1B1C1D2F3130354C444542C6
:1002900055473A2064697361626C65642E0A0044B4
:1002A000454255473A20656E61626C65642E0A00CE
:1002B0004F6E6573686F743A206163746976653A4E
:1002C0002025640A000A002530325820006E6B7227
:1002D0006F5F7265706F72743A2025303258207CDF
:1002E00020000A002530325820006B6579626F616A
:1002F00072645F7265706F72743A202530325820D4
:100300007C20000A00253564000A0073757370654F
:100310006E64696E67206B6579626F6172640D0A45
:10032000000A002530313662003A2000253032586C
:10033000000A722F63203031323334353637383982
:100340004142434445460A006C65645F7461736BC7
:100350003A20253032580A004C0029001E001F00A8
:100360002000210022002300240025002600270071
:100370002D002E00310035004B002B0014001A0018
:1003800008001500170000001C0018000C001200E7
:1003900013002F0030002A004E0039000400160020
:1003A000070009000A0000000B000D000E000F00FE
:1003B00033003400000028000000E1001D001B0095
:1003C00006001900050000000500110010003600AD
:1003D00037003800E50021520000E000E200000094
:1003E0002C0000002152000000002C000000E6005C
:1003F000000000000000E400010001000100010015
:1004000001000100010001000100010001000100E4
:1004100001000100010001000100010001000100D4
:100420005200010001000000010001000100010074
:100430000100010001000100010001000100500065
:1004400051004F0001000000010001000100010007
:100450000100010000000100000001000100010096
:100460000100010001000000010001000100010085
:100470000100010001000100000001000100000076
:100480000100000001000000000001000000010068
:100490000000000000000100290A002575002F005F
:1004A0002575005D280025640020002564002000DB
:1004B00025640020002564007C0025303258006D42
:1004C0006F7573656B6579205B62746E7C782079DB
:1004D000207620685D287265702F61636C293A2050
:1004E0005B006164645F6B65795F6269743A206385
:1004F000616E2774206164643A20253032580A0006
:1005000064656C5F6B65795F6269743A2063616EE4
:1005100027742064656C3A20253032580A005B430A
:100520005D005B445D005B535D005B575D005B52AB
:100530005D0009027400040100A0FA090400000132
:100540000301010009211101000122440007058176
:100550000308000109040100020300000009211141
:100560000100012222000705820320000107050384
:100570000320000109040200010300000009211109
:1005800001000122B60007058403200001090403CD
:1005900000010300000009211101000122150007DC
:1005A00005850320000112010002000000084456E6
:1005B0006F446001010200011C034F005300410021
:1005C0007600320020002D00200054006F007000E3
:1005D0007200650000002403560069006B0074007F
:1005E0007500730020004400650073006900670017
:1005F0006E0020004C004C0043000000040309047E
:1006000011241FBECFEFDAE0DEBFCDBF04B603FE7C
:1006100018C08091310390913203A0913303B091BF
:1006200034038730904BA740B04B59F410923103FC
:10063000109232031092330310923403E0E0F8E397
:10064000099511E0A0E0B1E0E0E2FAE402C0059013
:100650000D92A637B107D9F723E0A6E7B1E001C0B4
:100660001D92A133B207E1F70E946F1E0C94BC24C7
:100670000C940000FF93EF93E0917601F0917701E5
:10068000309709F00995EF91FF910895FC0185914C
:10069000803011F0EFDFFBCF0895FF27E0E230E27A
:1006A00047FF0CC0419597FF09C0EDE2609570953A
:1006B00080959095611D711D811D911D27FF02C0C0
:1006C000219530E350E2AA27660F771F881F991FF4
:1006D000AA1FA41710F0A41B63955A95A9F7AA3076
:1006E00008F0A95FA05DAF93F395611571058105D1
:1006F000910541F7ED3211F4EF93F395F21718F4E9
:100700003F93F395FBCF8F91B5DFFA95E1F708950D
:10071000E991F9918591803021F0853219F0AADFB5
:10072000F9CF089520E0E89455915532C1F3503344
:1007300011F4689455915A3348F4505390F3220FB2
:10074000022E220F220F200D250FF4CF0EF421953B
:1007500089919991533619F3533729F1533559F14A
:10076000BC0188279927E8945C3621F489919991F6
:1007700068945591543639F446EF7EF077FF0DC0FA
:100780008FEF9FEF0AC055374AE039F0583540E106
:1007900021F0523642E009F00895FF93EF937DDF98
:1007A000EF91FF91B7CFFF93EF93FC0181918030E0
:1007B000B9F360DFFBCFFF93EF9368DFF1CFDF93F7
:1007C000CF93CDB7DEB72596A3DFCF91DF91089504
:1007D000482F20912D039091F40257E0291302C075
:1007E00080E0089530E0529FF001539FF00D1124F6
:1007F000EB50FD4F8181681306C08081481303C010
:1008000085818111EECF2F5F3F4F2770E7CFE8ED55
:10081000F0E080818E7F80831092E2001092DA00F7
:100820001092E100A0EEB0E08C9181608C93808109
:100830008F77808319BCA7EDB0E08C918E7F8C936D
:1008400080818F7E80831092DD0208952091E400E4
:100850003091E50095E6A9012091EC00822F81708E
:1008600020FF06C08091E80080FF06C080E0089568
:100870002091E80022FD1AC08091EA02882389F0C5
:10088000853089F08091EB0085FD0FC02091E40058
:100890003091E50042175307F9F29150E1F684E0F8
:1008A000089582E0089583E0089581E0089580919D
:1008B000EC0287FF13C08091E80082FF06C08091A0
:1008C000E8008B778093E80004C08091EA028111F0
:1008D000F2CF08958091EA028823D9F38091E8004D
:1008E00080FFF8CF8091E8008E77ECCF982F90931F
:1008F000E900242F762F50E0891731F07091EC0039
:100900002091ED005091F00021FD07C09F5F9730CE
:1009100071F78093E90081E008953091EB003E7F0C
:100920003093EB003091ED003D7F3093ED0030913E
:10093000EB0031603093EB007093EC002093ED00FE
:100940005093F0002091EE0027FDE0CF80E0089565
:10095000B0E0A0E0EEEAF4E00C941C24C8EDD0E096
:1009600088818F7E8883E7EDF0E0808181608083DD
:1009700084E082BF81E08093DD0288818E7F88835E
:1009800002EE10E0F80110821092DA0081EEC82E1B
:10099000D12CF601108288818F77888388818068C6
:1009A000888388818F7D888319BC1092EA02109217
:1009B000EB021092E9021092E80290EEE92EF12C7F
:1009C000F70180818B7F808388818160888342E00A
:1009D00060E080E00E947604F60180818E7F808353
:1009E000F801808181608083808188608083F70145
:1009F00080818E7F8083888180618883CDB7DEB7D8
:100A0000E8E00C943824FC018091F2029091F3020A
:100A100086179707A0F06115710529F49091E800F9
:100A20009E779093E80090E06115710551F4911163
:100A300008C08091E80082FF34C080E00895BC01C6
:100A4000F2CF8091EA028823C1F18530C1F1809113
:100A5000E80083FD30C08091E80082FDEACF8091FC
:100A6000E80080FFE1CF8091F3002091F200382F61
:100A70006115710519F02830310558F091E02830E2
:100A8000310509F090E02091E8002E772093E800EE
:100A9000CBCF81918093F100615071092F5F3F4F5F
:100AA000E7CF8091EA02882341F0853041F08091C0
:100AB000E80083FFBECF81E0089582E0089583E0DF
:100AC00008958091DF0208959C014FB7F8948091BA
:100AD000D6029091D702A091D802B091D9024FBF0F
:100AE000821B930B08952FB7F8948091D6029091B2
:100AF000D702A091D802B091D9022FBF0895A3E0E8
:100B0000B0E0E5E8F5E00C9422242091D002309189
:100B1000D10228173907A1F09093D1028093D00217
:100B2000E091CE02F091CF02309751F024E029837A
:100B30009B838A830084F185E02DCE01019609957F
:100B40002396E2E00C943E24A3E0B0E0EAEAF5E06C
:100B50000C9422242091CC023091CD022817390721
:100B6000A1F09093CD028093CC02E091CE02F0915F
:100B7000CF02309751F023E029839B838A8300843E
:100B8000F185E02DCE01019609952396E2E00C94C3
:100B90003E24E091CE02F091CF02309729F00190EF
:100BA000F081E02D0995089580E008958091C002BC
:100BB00080FD16C081FD16C082FD16C08091BF0267
:100BC0008823A1F0883280F428E0829FC00111249C
:100BD00068E270E00E94F123862F672B39F00895B8
:100BE00082E0089584E0089588E0089581E0089502
:100BF0008091C00280FD14C081FD14C082FD16C02A
:100C00008091C102882381F08E3180F420E5829F9B
:100C1000C00111246EE170E00E94F123862F089537
:100C200084E1089588E2089588E0089580E50895B4
:100C3000282F35EB2303C001112497FF04C08058EF
:100C40009109892F089580589F4FFBCF9091D3022F
:100C500092FF10C041E0282F2471243009F040E0B9
:100C600031E0282F2871283009F030E0431711F0C7
:100C70002CE0822793FF10C041E0282F24712431FB
:100C800009F040E031E0282F2871283109F030E0E8
:100C9000431711F02CE082273091D40230FF10C0AE
:100CA00051E0282F2171213009F050E041E0282F38
:100CB0002871283009F040E0541711F029E082270C
:100CC00031FF10C041E0282F2171213109F040E0AF
:100CD00031E0282F2871283109F030E0431711F056
:100CE00029E0822794FD877E089582389105B9F125
:100CF000B0F48133910509F47DC048F4893291053F
:100D000009F46DC08A32910509F47BC008958533DA
:100D1000910509F45FC08933910509F10895833E77
:100D20009105D9F138F4803E910529F1823E910573
:100D300079F10895863E9105D9F1873E910509F430
:100D40003EC0843E910541F52091D40221FF24C08C
:100D50008091D30284FD19C087EE90E00895209120
:100D6000D302237009F05AC02091D40223FF14C08B
:100D700089E290E008952091D30220FD38C030919F
:100D8000D40230FF09C024FF43C090E080E0089502
:100D90002091D30222FDF7CF08952091D30222FDA6
:100DA0003AC03091D40230FD39C024FFF5CFEDCFE9
:100DB0002091D30223FFF0CF24FDE7CFCDCF2091A8
:100DC000D30223FD2EC03091D40231FFEECF84EE4A
:100DD00090E008952091D30225FFDECFC9CF209166
:100DE000D30225FD21C02091D40223FFD5CF89E372
:100DF00090E0D2CF2091D30226FFCECF8AE290E0BE
:100E000008952091D30226FFC7CF81E390E0089593
:100E100083EE90E0089582EE90E0089580EE90E0F9
:100E2000089586EE90E0089585E390E008951F937D
:100E3000CF93DF930E947506EC01C11580E5D807BA
:100E4000F0F5C11580E4D80708F09CC0C03ED1057C
:100E500020F5CD3CD10508F082C0C83AD10578F420
:100E6000C53AD10508F073C0C130D10519F12097FA
:100E700009F1C430D105F0F4D0E0C0E01BC0C33CA0
:100E8000D105D0F7C85AD0E0CC0FDD1FCD5EDE4FC4
:100E90000990D881C02DD4640DC0C11580E2D80757
:100EA00008F0D1C0C11581E0D80708F05AC0C83E8B
:100EB000D10510F7CE01DF91CF911F910895C03673
:100EC00082E5D80718F5C03482E5D80708F06BC072
:100ED000C03282E5D80708F05FC0C11582E5D807A7
:100EE00008F497C02C2F2695269580E2289F900124
:100EF00011248C2F8370C1E0D0E002C0CC0FDD1F25
:100F00008A95E2F7C22BD32BDD68D4CFC03A82E5B5
:100F1000D80760F4C03882E5D80708F459C0CF710B
:100F2000D0E0DC2FCC27C46FD06AC4CFC03C82E5B0
:100F3000D80708F462C0C03E82E5D80708F09CCF0D
:100F4000DC2FCC27CC27DF71C06FD06AB3CFC55A56
:100F5000D0E0C05FDE4FC881D0E0D064ABCFD065B9
:100F6000A9CF8D2F0E942606182FCE0199270E9407
:100F70007506C12FD0E0DC2FCC27CC27DF71C82B22
:100F8000D92B98CFCE0199270E947506CC27DF7008
:100F9000C82BD92BD06A8ECFCF71D0E0DC2FCC27D5
:100FA000C16FD06A87CF2C2F26952695277080E2B7
:100FB000289F900111248C2F8370C1E0D0E002C0E3
:100FC000CC0FDD1F8A95E2F7C22BD32BDC6872CFE2
:100FD0002C2F26952695277080E2289F90011124BA
:100FE0008C2F8370C1E0D0E002C0CC0FDD1F8A954A
:100FF000E2F7C22BD32BDA685DCF8C2F8F710E9462
:101000002606C82FD0E0DC2FCC27CC27DF71D0629A
:1010100051CF8C2F8F710E94260655E0D695C7952B
:101020005A95E1F7CF70D0E0DC2FCC27282F30E0A5
:1010300084FF05C044E0220F331F4A95E1F7C22B1D
:10104000D32BD06937CF8D2F8F710E942606182F92
:10105000CE0199270E947506C12FD0E0DC2FCC2746
:10106000CC27DF71C82BD92BD2CF80959091F2017C
:1010700098239093F20108958091F2019091C90113
:10108000892B9091C801992391F0892B90910A01A5
:10109000992371F09091D30297FF0AC09EE122E854
:1010A00031E040E0915040F441111092C8010895A0
:1010B00096E02AE731E0F5CFF90151919F015523E0
:1010C00089F34F5FEFCF80912D039091F402981335
:1010D00001C008958F5F8770FACF953080F5803119
:1010E00070F540E1949F90011124820F932F911D80
:1010F000682F677023E0969587952A95E1F7FC01A4
:10110000EE0FFF1FE80FF91FEE55FE4F50E040E0D5
:1011100080E0219130E0062E02C0369527950A9492
:10112000E2F721703327042E01C0220F0A94EAF758
:10113000822B4F5F5F4F4330510559F7089580E090
:101140000895953098F5803188F540E1949F90019D
:101150001124820F932F911D282F277041E001C089
:10116000440F2A95EAF723E0969587952A95E1F7AB
:10117000FC01EE0FFF1FE80FF91FEE55FE4F90E048
:1011800080E070E05191DF0111979B01082E02C0B1
:10119000369527950A94E2F7217021952527242377
:1011A00025272C9301968330910561F7089580934C
:1011B000A90208959091A90221E030E0F90101C04F
:1011C000EE0F8A95EAF7D90102C0AA0FBB1F6A95F4
:1011D000E2F7EA2B01C0220F4A95EAF7892F8E2306
:1011E000E81305C0292B822F0E94D7080895209567
:1011F0002923F9CF21E030E001C0220F8A95EAF7D8
:1012000020958091A90282230E94D7080895909189
:10121000C701809589238093C701282F277069F41F
:10122000891759F09091D40292FF07C08695869550
:1012300086950E94FA081092C701089521E030E0D7
:1012400001C0220F8A95EAF78091A902822B0E94A1
:10125000D70808958093A802089580FF09C02C9AAA
:1012600081FF08C05F9A82FF07C05E9A81E00895FF
:101270002C98F6CF5F98F7CF5E98F8CF829590E0E4
:101280009C01220F331F220F331F2C7C95958795CD
:10129000959587958373282B30E0C901880F991F96
:1012A0008A7A359527952575822B089590910A01A4
:1012B000992359F19091D30297FF27C0E82FE69523
:1012C000E695E695EE3180F4F0E0E058FE4F282FE9
:1012D000277081E090E001C0880F2A95EAF7809599
:1012E00092818923828308959091D20290FF19C040
:1012F0001F928F9380E095E09F938F930E94DF036E
:101300000F900F900F900F900895EAE7F1E0919100
:10131000891303C0DF0111971C9291E0E038F907AF
:10132000B1F7089590910A01992349F19091D30260
:1013300097FF25C0E82FE695E695E695EE3170F427
:10134000F0E0E058FE4F877021E030E001C0220F4E
:101350008A95EAF78281822B828308959091D20246
:1013600090FF1EC01F928F9382EE94E09F938F9305
:101370000E94DF030F900F900F900F900895AAE73F
:10138000B1E0EFEF90E02D91821751F0EF3F19F4AB
:10139000211101C0E92F9F5F9630A9F7EF3F09F4B3
:1013A00008950E2E000CFF0BE858FE4FD5CF80910C
:1013B000D20283FF96C08FEB94E09F938F930E949D
:1013C000DF038091C7021F928F938AEB94E09F9373
:1013D0008F930E94DF0388EB94E09F938F930E948A
:1013E000DF038091C802282F082E000C330B3F9397
:1013F0008F9385EB94E09F938F930E94DF0383EBA1
:1014000094E09F938F930E94DF038091C902282F5D
:10141000082E000C330B3F938F9380EB94E09F9347
:101420008F930E94DF038EEA94E09F938F930E9434
:10143000DF038091CA02282F082E000C330B3F9344
:101440008F938BEA94E09F938F930E94DF0389EA46
:1014500094E09F938F930E94DF038091CB02282F0B
:10146000082E000C330B3F938F9386EA94E09F93F2
:101470008F930E94DF0383EA94E09F938F930E94EF
:10148000DF038DB79EB780960FB6F8949EBF0FBE50
:101490008DBF8091C1021F928F9380EA94E09F9349
:1014A0008F930E94DF038EE994E09F938F930E94B5
:1014B000DF038091C0021F928F938BE994E09F938A
:1014C0008F930E94DF0388E994E09F938F930E949B
:1014D000DF038DB79EB70C960FB6F8949EBF0FBE74
:1014E0008DBF0E9473059C019091C8028091C90232
:1014F000982B21F03093C5022093C4029091CA0228
:101500008091CB02982B21F03093C3022093C2022A
:10151000E091CE02F091CF02309749F082E08093C3
:10152000C6020680F781E02D86EC92E009950895C9
:101530004091C8029091CA022091CB02662309F41F
:1015400069C0942B922B2091C902922B31F098E024
:101550009093C10291E09093BF028D3C41F40E94B0
:10156000F80581958093C9020E94D70908958E3CA1
:1015700019F40E94F805F6CF8F3C31F40E94F8056B
:1015800081958093C802F0CF803D19F40E94F80540
:10159000F8CF893D29F40E94D6058093CA02E4CF92
:1015A0008A3D21F40E94D6058195F7CF8B3D31F419
:1015B0000E94D60581958093CB02D6CF8C3D19F43D
:1015C0000E94D605F8CF9FE2980F983070F4815DA5
:1015D000990B21E030E001C0220F8A95EAF7809153
:1015E000C702822B8093C702BFCF8D3D31F480911B
:1015F000C00281608093C002B7CF8E3D21F48091FC
:10160000C0028260F7CF8F3D09F0AECF8091C0025B
:101610008460F0CF8D3C59F48091C90287FF0DC0E2
:101620001092C90241110BC01092C10208C08E3C39
:1016300081F48091C90218169CF3442381F08091B3
:10164000CA029091CB02892B09F08ECF1092BF0273
:101650008BCF8F3C49F447FFF0CF1092C8028091A6
:10166000C9028111ECCFE0CF803D19F41416ACF320
:10167000E4CF893D29F4191604F71092CA02DDCF90
:101680008A3D19F497FFD9CFF8CF8B3D29F427FF76
:10169000D4CF1092CB02D1CF8C3D19F41216CCF3DB
:1016A000CCCF9FE2980F983090F4815D990B21E0A8
:1016B00030E0B90102C0660F771F8A95E2F7CB01CF
:1016C00080959091C70289238093C702B6CF8D3D44
:1016D00031F48091C0028E7F8093C002AECF8E3DE8
:1016E00021F48091C0028D7FF7CF8F3D09F0A5CF07
:1016F0008091C0028B7FF0CF9FB7F8941092DB02ED
:101700009FBF9091EA02943009F048C02091E9000F
:101710002F703091EC00932F917030FD90E8922B58
:1017200025E02093E9002091EB0020FF34C02091B8
:10173000EE0027FF30C02091DA02222321F0209111
:10174000E80025FF28C01092DA0226E03091E80078
:1017500035FF14C08093F1008091E80085FD27C01B
:101760008091E80080FFFCCF8091E8008E77809325
:10177000E8009F709093E90080E008953091EA02BC
:10178000343049F43091EB0035FD05C0215041F46F
:1017900081E08093DA029F709093E9008FEF0895C3
:1017A000EFE9FFE03197F1F700C00000CFCF8FB72E
:1017B000F89421E02093DB028FBFDBCF0F931F93C0
:1017C000CF93DF938B01EA019091EA02943061F5A7
:1017D0008093E9008FEF9091E800815095FD06C05D
:1017E00095ED9A95F1F700008111F5CF8091E80011
:1017F00085FF1AC00E942604811111C08091E80063
:1018000085FD06C08091E8008E778093E800F2CFD6
:10181000F80181918F018093F100219779F78091F0
:10182000E8008E778093E800DF91CF911F910F91B0
:10183000089543E050E0BC0184E00E94DE0B08956F
:1018400046E050E0BC0184E00E94DE0B089540E2D7
:1018500050E0BC0184E00E94DE0B0895CF93DF933B
:10186000EC0148E050E0BC0181E00E94DE0B88E022
:10187000FE01A0EEB2E001900D928A95E1F7DF91B2
:10188000CF91089581E08093E00080E28093D800BA
:101890001092C9008FE19EE40197F1F700C00000AB
:1018A00087E090EBDC018093310390933203A093A7
:1018B0003303B093340388E19CE00FB6F894A89505
:1018C000809360000FBE90936000FFCFCF93C82F2E
:1018D0006FEF811164E285E290E00E947B246FEF5C
:1018E000C11163E086E290E00E947B246FEFC1119A
:1018F00061E287E290E00E947B24CF910895CF932C
:10190000DF93C9EAD2E060E0CE010E947B242196F9
:10191000C11584E0D807B9F7DF91CF9108951F93DF
:10192000CF93DF93122F8430E0F46530D0F4403150
:10193000C0F490E2699FE001112450E0440F551F6C
:10194000C40FD51F90EA899FC00DD11D1124632FAC
:10195000CE0189960E947B24612FCE018A960E9437
:101960007B24DF91CF911F910895B0E0A0E0EBEBD5
:10197000FCE00C941C2498E5E92E93E0F92ED12C80
:101980008701C12C1CC04C2F81E021E030E08D1577
:1019900040F0FE01EE0FFF1FE00FF11F85919491C3
:1019A0009C016C2D8D2D0E948F0C2196C031D1058C
:1019B00051F7C394005E1F4F85E0C81619F0D0E0C0
:1019C000C0E0E1CFD39480EAE80EF11C84E0D812A5
:1019D000D7CFCDB7DEB7E8E00C94382480E00E9482
:1019E000660C60E088E290E00E947B240E94B50CC7
:1019F0000E947F0C81E00E94660C089585E290E0D1
:101A00000E945D24843289F486E290E00E945D2485
:101A1000833059F487E290E00E945D2491E08132A6
:101A200009F090E0892F8170089580E0FCCF0F933A
:101A30001F93CF93DF93843030F5653020F540312C
:101A400010F520E2629F8001112450E0440F551FE1
:101A5000040F151F30EA839F000D111D1124C801CA
:101A600089960E945D24C82FD0E0DC2FCC27C801C6
:101A70008A960E945D249E01282BC901DF91CF9197
:101A80001F910F91089590E080E0F8CF462F7530B8
:101A900040F4603130F4843020F4672F0E94170D39
:101AA000089590E080E00895CF92DF92FF920F9327
:101AB0001F93CF93DF936C010091A9028091A8023C
:101AC000082BC3E0D0E010E0FC2EC8010C2E02C0B1
:101AD000959587950A94E2F780FD0CC02197A0F7B1
:101AE000F12C8F2DDF91CF911F910F91FF90DF90FF
:101AF000CF900895B6018C2F0E94460D0E941707C3
:101B0000019761F3EECFCF93DF93EC010E94540D68
:101B1000BE010E94460D0E941707DF91CF910895E4
:101B2000FC0124812223C1F0808191810E94830DD8
:101B300092959F70963091F058F4925F9F7092301A
:101B400058F4803F19F030F4883E30F481E0089575
:101B50009A5FF4CF843FD1F380E00895883EB0F3DC
:101B6000813FD1F7F3CFA6E0B0E0E9EBFDE00C94C4
:101B7000212449835A8349815A819923A1F0222340
:101B800091F0CA010E94540D182F682F89819A8103
:101B90000E94A10869817A81812F0E94460D2696B4
:101BA000E3E00C943D24CA010E946D08182FF2CF87
:101BB000CF93C82F8091D40282FB992790F99C176C
:101BC000F9F0C0FB82F98093D4026091D302709146
:101BD000D40284E090E00E94992482E00E940709E8
:101BE0008091D20280FF0CC01F92CF9380EB92E0D5
:101BF0009F938F930E94DF030F900F900F900F9091
:101C0000CF9108950F931F93CF93DF9380910A0193
:101C1000882309F469C08091D30287FF65C00E94C0
:101C20003C088093810140E250E06AEC71E080E87A
:101C300091E00E94AF24892B09F451C080E2E0E8D2
:101C4000F1E0AAECB1E001900D928A95E1F7E09104
:101C5000CE02F091CF02309709F441C086E0809324
:101C600080010480F581E02D80E891E00995809164
:101C7000D20282FF34C080FF0EC0809181011F928A
:101C80008F938DEC92E09F938F930E94DF030F90D0
:101C90000F900F900F90C0E8D1E007EC12E0809118
:101CA000D20280FF0BC08A811F928F931F930F93E4
:101CB0000E94DF030F900F900F900F90219681E00C
:101CC000CE39D80761F78091D20280FF08C085EC39
:101CD00092E09F938F930E94DF030F900F90DF910C
:101CE000CF911F910F9108950E943C088093780135
:101CF00048E050E06AEE71E088E791E00E94AF248E
:101D0000892B69F388E0E8E7F1E0AAEEB1E0019001
:101D10000D928A95E1F7E091CE02F091CF023097D3
:101D2000F1F20280F381E02D88E791E0099580913E
:101D3000D20282FFD4CF80FF0EC0809178011F9223
:101D40008F938AEE92E09F938F930E94DF030F9010
:101D50000F900F900F90C8E7D1E004EE12E0809151
:101D6000D20280FF0BC08A811F928F931F930F9323
:101D70000E94DF030F900F900F900F90219681E04B
:101D8000CE37D80761F78091D20280FFA8CF82EECC
:101D900092E09FCF882321F00E9435080E94020E16
:101DA0000895882339F09091F201982B9093F201D5
:101DB0000E94020E0895882381F19CEF980F913ABA
:101DC00028F40E9456090E94020E089590E2980F8E
:101DD000983050F4877091E001C0990F8A95EAF726
:101DE000892F0E943508EFCF9BE5980F933028F498
:101DF00090E080E00E94A405089598E5980F9B313B
:101E000028F490E080E00E947F05089593E3980F06
:101E1000933118F460E00E94980A0895CF93C82F78
:101E20008823B1F18CEF8C0F813AA0F580910A01E3
:101E3000882301F18091D30287FF1CC0EC2FE69527
:101E4000E695E695F0E0E058FE4F828190E04C2F59
:101E5000477021E030E002C0220F331F4A95E2F7BD
:101E600082239323892B79F08C2F0E9456090E949C
:101E7000020E09C0EAE7F1E08191C817A9F381E0F9
:101E8000E038F807C9F78C2F0E9492090E94020ED1
:101E9000CF91089580E28C0F883068F4C77021E0FC
:101EA00030E001C0220FCA95EAF78091F201822B3F
:101EB0008093F201EBCFEBE5EC0FE33040F4F0E080
:101EC000E05FFE4F808190E00E94A405E1CFE8E54D
:101ED000EC0FEB3150F4F0E0EE0FFF1FED5EFE4F24
:101EE000808191810E947F05D3CF83E38C0F833162
:101EF00078F661E08C2F0E94980ACACF2F923F9209
:101F00004F925F927F928F929F92AF92BF92CF92A9
:101F1000DF92EF92FF920F931F93CF93DF93CDB792
:101F2000DEB728970FB6F894DEBF0FBECDBFE5EF42
:101F30004E2EE1E05E2EFEE9AF2EF2E0BF2E120142
:101F4000712C10E000E088248394912C3A8229823D
:101F50008EE491E09C838B8318861F82F801E75BF7
:101F6000FE4FFE83ED838DC0C0909A02D0909B02FD
:101F7000E0909C02F0909D020330110581F0043046
:101F8000110509F4C4C00115110571F48F819885FC
:101F90000E97029748F445E3E42EF12CD3C04F810D
:101FA00058854E305105B9F3539AED81FE818081F9
:101FB00080FFCCC0589A81FFCBC0599A82FFCAC01B
:101FC0005A9AAEE4B1E09D91E92FE295EF70F0E00E
:101FD00022A19F70A40102C0440F551F9A95E2F7F9
:101FE000CA018095822382A38EE591E08A179B0720
:101FF00051F7F89453985B98EB81FC818191FC83B5
:10200000EB83E82FE295EF70F0E092A18F709401DE
:1020100001C0220F8A95EAF7892F822B82A384E9D7
:102020000E94E0237894E981FA8191838083F5010D
:1020300020813181A9010F8002C0569547950A94ED
:10204000E2F740FF89C08C159D0508F092C0C401DD
:102050000F8002C0880F991F0A94E2F7809590952F
:10206000822393239183808381E0782A4F8158854E
:102070004F5F5F4F58874F8389819A810A969A8371
:102080008983EF81F885709709F06ECF0F5F1F4F3E
:10209000F2E02F0E311C42E0A40EB11C05301105F8
:1020A00009F054CF80919502909196029C012F5F88
:1020B0003F4F8C32914009F45EC0309396022093DA
:1020C0009502772009F4A5C081E0809399020E94CF
:1020D00073059093980280939702712C872D289610
:1020E0000FB6F894DEBF0FBECDBFDF91CF911F9129
:1020F0000F91FF90EF90DF90CF90BF90AF909F90A7
:102100008F907F905F904F903F902F9008958F8198
:102110009885873091056CF48530910584F4039798
:102120000CF442CF6CE3E62EF12C72E3C72ED12CD7
:102130003BCFEF81F8853E9709F42DCF35CF5AE399
:10214000E52EF12C30E3C32ED12C2ECF589833CF6F
:10215000599834CF5A9835CFE816F90650F4C4018F
:102160000F8002C0880F991F0A94E2F7822B932BED
:1021700079CF80E07ACF10929602109295028FEF7D
:10218000A82E81E0B82E95E0E92E93E0F92E23E009
:10219000C22E23E0D22E5A82498210E000E08091C4
:1021A000D20280FF0EC0E981FA8181818F93808104
:1021B0008F93FF92EF920E94DF030F900F900F908A
:1021C0000F900F5F1F4F49815A81465F5F4F5A83BF
:1021D00049830031110519F78091D20280FF06C0B2
:1021E000DF92CF920E94DF030F900F9052E0450ED6
:1021F000511CA414B50479F68091D20280FF61CFFE
:1022000089E093E09F938F930E94DF030F900F90DC
:1022100058CF809199028983882309F45FCF8091F8
:102220009702909198020E946405059708F456CF92
:102230004AE050E06EE972E085EB92E00E94AF2444
:10224000892B51F08AE0EEE9F2E0A5EBB2E00190D3
:102250000D928A95E1F77980109299023FCF109202
:10226000F20180910A01882339F18091D30287FF1E
:1022700023C0E2E8F1E08EE1DF011D928A95E9F7E3
:1022800090E080E00E94A40590E080E00E947F053D
:102290001092C9010E94020E86E0E6ECF2E0DF0136
:1022A0001D928A95E9F71092C1021092BF02109216
:1022B000C0020E94D7090895EAE7F1E086E0DCCF8A
:1022C000AAE2B0E0E6E6F1E10C9421248CEE92E083
:1022D0002091F100DC012D93CD01B2E0843F9B07FA
:1022E000B9F78091ED02833009F472C0B8F48130FF
:1022F00009F449C0823009F4B3C08091E80083FF3B
:1023000091C28091EC029091ED029A3008F08AC25D
:10231000E92FF0E0E254FB4D0C9405248A3009F4D7
:102320008EC08B3009F471C0893039F78091EC028E
:10233000813219F78091F0029091F102009711F02B
:102340000297D9F68091E800877F8093E80080911A
:10235000E80082FF38C09091F3008091F20002976C
:1023600031F48091F100813011F0863021F48091B8
:10237000F1008093DF028091E8008B778093E80082
:102380000E945704BACF8091EC02813A09F0B5CF90
:102390008091E800877F8093E8008091F00290911F
:1023A000F102892B61F468E080EE92E070E00E9417
:1023B00003058091E8008B778093E8009ECF60E072
:1023C00090E080E0F3CF8091EA028111C0CF95CFF9
:1023D0008091EC02813A09F090CF8091F0029091C7
:1023E000F102892B09F089CF8091E800877F8093E3
:1023F000E8008091E80080FFFCCF80910A01809383
:10240000F1008091E8008E77B9CF8091EC028132A3
:1024100009F073CF8091F0029091F102892B09F0BD
:102420006CCF8091E800877F8093E8000E9457047A
:102430008091EE0280930A010E942F115ECF80915D
:10244000EC02813209F059CF8091E800877F8093B8
:10245000E8000E9457048091EF028093DE024DCF86
:102460008091EC02813A09F048CF8091E800877FA3
:102470008093E8008091E80080FFFCCF8091DE022D
:10248000BECF803899F0823809F0CCC18091F0023B
:102490008F70873008F0C6C18093E9008091EB000F
:1024A00085FB882780F91092E90006C08091E80238
:1024B0009091E902911182609091E800977F90934A
:1024C000E8008093F1001092F1008091E8008E778F
:1024D000A5C1882309F493C1823009F0A3C180917A
:1024E000EE02811196C18091F0028F702FEF280FBC
:1024F000263008F097C18093E9002091EB0020FF7F
:1025000088C1933031F48091EB0080628093EB00BE
:1025100080C19091EB0090619093EB0021E030E05E
:1025200001C0220F8A95EAF72093EA001092EA0090
:102530008091EB008860EACF811174C11091EE02A6
:102540001F778091E3008078812B8093E300809156
:10255000E800877F8093E8000E9457048091E8009C
:1025600080FFFCCF8091E30080688093E30082E0ED
:10257000111183E08093EA0255C18058823008F03F
:1025800051C12091EE023091EF022C3DE3E03E0775
:10259000A1F583E08A838AE289834FB7F894DE014C
:1025A000139620E03EE051E2E32FF0E05093570015
:1025B000E49120FF03C0E295EF703F5FEF708E2F34
:1025C00090E0EA30C0F0C7968D939D932F5F243141
:1025D00059F74FBF8091E800877F8093E8006AE257
:1025E00070E0CE0101960E9403058091E8008B7790
:1025F0008093E80017C1C096E7CF8091F0029091D8
:10260000F102432F55274330510509F44AC078F5AC
:102610004130510509F47AC084E790E0E2E3F5E047
:102620004230510509F0FEC02091E800277F209339
:10263000E8002091F2023091F3028217930708F428
:102640009C0140E02115310509F065C0411163C0CE
:102650008091E80082FDC9CF8091EA02882329F2A7
:10266000853019F28091E80083FFF2CFBECF41326E
:10267000510509F43CC04232510509F0D3C0843001
:10268000910508F0CFC0FC01EE0FFF1FEB59FE4F84
:102690000190F081E02D8F599E4FDC018C9190E0EC
:1026A0001AC0332721303105D1F02115310561F0F1
:1026B0002230310509F0B6C0E8EBF5E0E4918E2F49
:1026C00090E0E8EBF5E007C0ECEFF5E0E4918E2F49
:1026D00090E0ECEFF5E0009709F4A4C0A5CFE6ED9B
:1026E000F5E0E4918E2F90E0E6EDF5E0F4CF843054
:1026F000910508F097C0880F991FFC01E359FE4F20
:102700000190F081E02D89E090E08ECF82E190E0B1
:10271000E6EAF5E089CF8091EA02882309F465CFE3
:10272000853009F462CF8091E80083FD5ECF80910F
:10273000E80082FD8DCF8091E80080FF83CF9091EB
:10274000F3008091F2002115310519F088309105D0
:1027500050F041E0089709F040E08091E8008E7762
:102760008093E8006FCF44914093F100319621505F
:1027700031090196E8CF803809F054C08091E80013
:10278000877F8093E8008091EB028093F1009DCEDB
:10279000811148C01091EE02123008F043C08091C0
:1027A000E800877F8093E8001093EB020E945704B3
:1027B000112311F084E005C08091E30087FDFACF7A
:1027C00081E08093EA0242E061EC81E00E947604BD
:1027D00042E261EC84E00E94760442E261EC82E035
:1027E0000E94760442E260EC83E00E94760442E2BA
:1027F00061EC85E00E9476048091EA0213C080912A
:10280000EE02813079F481E0933009F080E080932A
:10281000E9021092E9008091E800877F8093E80048
:102820000E9457048091E80083FF0AC08091E8006D
:10283000877F8093E8008091EB0080628093EB00BB
:10284000AA96E3E00C943D240E942F112FEF84E31D
:102850009CE0215080409040E1F700C0000088E1FA
:102860009CE00FB6F894A895809360000FBE9093FB
:102870006000FFCF1F93CF93DF93182FEB010E94CF
:102880000E0F209739F4812F0E94DB0EDF91CF913C
:102890001F9108958FE99FE00197F1F700C00000B4
:1028A0002197EFCF0F931F93CF93DF93C62FD42F92
:1028B000022FFC0185818823A9F0609330030E94D8
:1028C000730590932F0380932E03C77081E001C09E
:1028D000880FCA95EAF70E94D10EDF91CF911F9120
:1028E0000F91089580913003681334C080912E03B6
:1028F00090912F030E946405883C910558F510E2E1
:102900001D0FCD17B9F080E28C0F883040F4C770EE
:1029100081E001C0880FCA95EAF70E94CA0E1830FC
:1029200048F481E09D2F977001C0880F9A95EAF7CF
:102930000E94D10E70E060E0802F0E943A1418309F
:1029400060F6D77081E001C0880FDA95EAF70E943F
:10295000CA0EC3CFC77081E001C0880FCA95EAF7DD
:10296000F6CFA8E0B0E0E7EBF4E10C9414248C017E
:10297000DC0114968C911497882309F4BEC021E0E1
:102980004C9111965C91119712966C911297139637
:102990007C91139715969C910E94B30D7C01F801D0
:1029A0008581882309F448C1C7019757803891056C
:1029B00008F023C5FFE0FE1508F48FC08FEF93E009
:1029C0000E945D24811189C069EAA62E62E0B62EBC
:1029D000E1104DC0FE01339686E0DF011D928A951D
:1029E000E9F75AE0452E7501BFEFEB1AFB0AC50166
:1029F0000E945D2489831A82882309F46EC0813085
:102A000009F07FC06501E2E0CE0ED11CC7010E9433
:102A10005D248A83882309F460C09FEF980F933068
:102A2000A0F5F3E0AF0EB11CC6010E945D248B83BC
:102A3000882309F452C01C82DE0111967D01F70142
:102A40002081222381F2213009F09DC09181828171
:102A5000913009F058C0F2E0EF0EF11C70E060E038
:102A6000893311F460E570E00E943A1453C0A11458
:102A700024E0B20691F1C5010E945D24811101C0DC
:102A8000EA943FEFA31AB30AA3CF56018430A1F60C
:102A900042E0E42EF12C56012FEFA21AB20AC60131
:102AA0000E945D24E1E0F0E0EC0FFD1FEE0DFF1D44
:102AB0008083882391F08C3741F4E2E0F0E0EC0F62
:102AC000FD1FEE0DFF1D1082B7CF3FEFE31AF30A93
:102AD000650187E0E816F104F1F68091C70187707F
:102AE00061F0D80115968C91882339F08091D40239
:102AF00082FF03C082E00E9407092896E0E10C945F
:102B00003024570199CF923049F422E0E20EF11CB3
:102B10000E940E0F9FEFE91AF90A91CF933031F41A
:102B200032E0E30EF11C0E94DB0EF4CF943021F072
:102B30008FEFE81AF80AEECF92E0E90EF11C30E0D0
:102B400020E0B7016F5F7F4FD70111964C91805302
:102B5000990B8A30910560F021153105D9F2EFE922
:102B6000FFE03197F1F700C0000021503109F4CFA8
:102B7000429EF001439EF00D11249C012E0F3F1F39
:102B8000842F7B01DECFE22FF0E0E35FFD4F549016
:102B9000822F86958695869590E0FC01E350FE4F46
:102BA00064902770712C022E02C0759467940A9469
:102BB000E2F7F1E06F227724FC01E351FE4F8490AD
:102BC000912C022E02C0959487940A94E2F731E08A
:102BD00083229924FC01E352FE4FC490D12C02C001
:102BE000D594C7942A95E2F781E0C822DD246114C8
:102BF000710419F081EE0E940E0F8114910419F0F6
:102C000086EE0E940E0F70E060E0852D0E943A145F
:102C10008114910419F086EE0E94DB0E6114710498
:102C200019F081EE0E94DB0EC114D10409F472CFB9
:102C300070E060E08CE218CFF701E851FC47E73024
:102C4000F10508F0CDC3E853FB4D0C94052426E2B2
:102C500041EE61EEC8010E9452143FCF27E245EEDB
:102C600065EEF8CF26E241EE60EEF4CF27E245EEC6
:102C700064EEF0CF26E241EE62EEECCF27E245EEC5
:102C800066EEE8CF28E241E0EBCF8091D30281608D
:102C90008093D30295C08091D40288608093D4023F
:102CA0008FC08091D3028260F3CF8091D302846081
:102CB000EFCF8091D3028860EBCF8091D402816006
:102CC000EDCF8091D4028260E9CF8091D302806100
:102CD000DFCF8091D3028062DBCF8091D30280640A
:102CE000D7CF0E942F118091D3028068D1CF8091DD
:102CF000D3028C60CDCF8091D4028360CFCF8091FE
:102D0000D3028E7FC5CF8091D402877FC7CF8091B9
:102D1000D3028D7FBDCF8091D3028B7FB9CF8091BD
:102D2000D302877FB5CF8091D4028E7FB7CF8091B9
:102D3000D4028D7FB3CF8091D3028F7EA9CF8091B3
:102D4000D3028F7DA5CF8091D3028F7BA1CF0E942C
:102D50002F118091D3028F779BCF8091D302837FF5
:102D600097CF8091D4028C7F99CF8091D30282FB40
:102D7000992790F921E0922790FB82F990FB83F943
:102D800087CF8091D402982F909591708E7F892B58
:102D900090FB81F983CF9091D302892F8F7B96FF8F
:102DA000806476CF0E942F119091D302892F97FBD8
:102DB00087F980586DCF61E08EE090E00E947B241F
:102DC0006091D3027091D40284E090E00E94992433
:102DD0000E942F1182CE60E0EFCF9091D302892F15
:102DE0008F7E94FF806154CF9091D302892F8E7F84
:102DF00090FF81604DCF9091D402892F877F93FF00
:102E000088604CCF85E3E7C285E3F4C2A7E7EA1602
:102E1000ACE7FA0609F470C082E0B8E7EB16BCE74D
:102E2000FB0609F46AC0E3E0EE16ECE7FE0609F4DF
:102E3000A6C008F06EC021E0E2162CE7F20609F405
:102E4000A4C008F086C0E1148CE7F80609F474C049
:102E5000F8018581E080F180882309F4A4C0C701CE
:102E60000E94540DD82E682FC7010E94A108B701F7
:102E70008D2D0E94460D0E9417077C01882ED801D7
:102E80001596AC90159716969C9092943FE09322DD
:102E90008091C701877009F1DA2CAA20F9F08F2DF3
:102EA000807F803469F080E28E0D8830B0F08F2D05
:102EB000807E803229F4B1E0BE1578F4992069F063
:102EC0008091D40282FF09C082E00E9407098091AC
:102ED000C7018770DD24D3948111D12CCF2CC294EB
:102EE0002FE0C222EBE0EC1508F4C6C0EC2DF0E0B8
:102EF000E153FB4D0C94052481E00E941E0943E040
:102F000062E081E00E94DA08E8CD81E00E94FA08E0
:102F1000F6CF9BE5E9169CE7F90609F442C0ACE55B
:102F2000EA16ACE7FA0699F1BAE5EB16BCE7FB0640
:102F300009F08ECF81E032C00E942F11EFEFF4E351
:102F40002CE0E150F0402040E1F700C000000E947A
:102F5000420C9091D202892F8E7F90FF81608093E6
:102F6000D20280FF09C08FE992E09F938F930E9465
:102F7000DF030F900F90B1CD8DE892E0F6CF6FEFA9
:102F80007FEF90E080E00E9499240E9424148091B9
:102F9000D40282FB882780F991E089270E94D80D0E
:102FA00057CF80E0FBCFC7010E946D08D82E5FCFBE
:102FB000FF2DFF70BF2E8F2D807F19F0B29490EF00
:102FC000B922AA20B9F0BB2069F080E28E0D8830CA
:102FD00010F0811009C08091F201B82AB092F2017C
:102FE0000E94020E8E2D46C08091C901B82AB0926F
:102FF000C901F6CF8E2D0E94DB0EBB20E9F180E2E5
:103000008E0D883010F0811004C08B2D0E94350881
:1030100006C0B0948091C901B822B092C9010E9443
:10302000020E2AC02F2D2F70B22E8F2D807F80325E
:1030300019F0B29480EFB822882059F031E083165D
:1030400009F485C0AA2009F491C0992009F452C05E
:10305000C9CF8091D40282FD49C0AA2009F440C0A2
:10306000BB2039F08091F2018B298093F2010E94FC
:10307000020E80E00E940E0FAC2DA850BB0B1497DF
:1030800020F40E94C9050E942D09DD20A9F080913D
:10309000C70180FD11C0F801158286958695869539
:1030A0000E941E09C8010E94B1148091C701869533
:1030B000869586950E94FA0820E0D8014C911196D9
:1030C0005C91119712966C91129713967C911397BD
:1030D00014968C91149715969C910E94B30D0DCD6A
:1030E00080E00E94DB0EBB2039F28FCFAA20A1F036
:1030F000911004C08B2D0E94D10EBECF81E098129A
:10310000BBCF8091C8019B2D9823B91609F4B4CF89
:103110008B298093C801B0CF9110AECF8B2D0E9428
:10312000CA0E9091C8018B2D892329F08B2D809593
:1031300089238093C8019091A1018B2D892309F4E3
:103140009BCF8B2D809589238093A10195CFAA20B9
:1031500029F095E0991508F48FCFCCCFA4E0A915FC
:1031600008F48ACF8B2D0E94CA0E86CF9920D1F306
:10317000B9E38B1218C1EFEFF7EE23E0E150F04016
:103180002040E1F700C000000EC18F2D8695869586
:10319000837061F0813009F06FCFC7019370A11087
:1031A00002C080E090E00E947F0566CFC701937067
:1031B000A11002C080E090E00E94A4055DCF6A2DBE
:1031C0008E2D0E94980A58CF8F2D837091F5A110F3
:1031D00053CF4E2D429546954770440F440F8E2D88
:1031E0008F70042E01C0880F0A94EAF72E2D2071EB
:1031F000E4FE07C02FE030E001C0220F4A95EAF755
:1032000020953F2D369536953370323069F050F465
:103210004091A802313029F0822B84230E942A0990
:103220002BCF842B822BFACF282B8091A8028227C8
:10323000F5CF8695AA2011F08F2D8170882309F48F
:103240001BCF4E2D429546954770440F440F8E2D4F
:103250008F70042E01C0880F0A94EAF72E2D20717A
:10326000E4FE07C02FE030E001C0220F4A95EAF7E4
:1032700020953F2D369536953370323069F050F4F5
:103280004091A902313029F0822B84230E94D70873
:10329000F3CE842B822BFACF282B8091A902822790
:1032A000F5CF3F2D3F70F32EAA2029F0832F0E94E7
:1032B0001E098E2D20CF8E2D0E94CA0E8F2D0E94AA
:1032C000FA08DACE8E2D92EF8916B1F1981570F0CA
:1032D000A0EF8A16D1F0B1EF8B1691F0AA2009F475
:1032E0005DC091107FCE8F2D8F712AC0E3EF8E16B7
:1032F00051F1F4EF8F12F2CF8091D40282FD2FC0F2
:103300008F2D8F71AA20D9F21BC0AA2081F024E052
:10331000291508F4B1CE2F2D2F7181E090E001C066
:10332000880F2A95EAF79091A9028927AFCF35E057
:10333000391508F4A1CEEFCF8F2D8F71A110BFCF1B
:103340000E941E0999CE80E0AA2009F49FCF9F2DEC
:103350009F7181E001C0880F9A95EAF797CFAA2064
:1033600091F08F2D8F71F82E0E941E098091D4024A
:1033700082FF07C0A8E0FA9EC001112483608093F9
:10338000C7018F2DDDCF81E00E940709B1E0B9159B
:1033900008F072CE82E00E9407096ECE992039F0C3
:1033A000893309F4E8CE8E2D0E94DB0E65CE8F2D79
:1033B0008F7185CFB6E1EB16BCE7FB0609F026CD91
:1033C0008091F2018A7A91E009F490E09093A00153
:1033D000811118CD89E20E9492090E94020E7DCBD4
:1033E000E6E1EE16ECE7FE0641F58091A0018111C1
:1033F0000BCD89E20E945609F0CFF701E851FC4756
:10340000E730F10508F41FCC10923003C701905744
:10341000839780F684E090E00E9465249093D40224
:103420008093D302F701E150F047E232F10508F052
:103430002CCCE552FB4D0C940524F7E7EF16FCE786
:10344000FF0609F462CD28E7E2162CE7F20609F040
:10345000FFCC82E05BCDCF93DF938091C601807F6C
:1034600009F04DC08091C501882309F448C0E0915E
:103470002D035091F402C091C101D091C00160911F
:10348000C2017091C30147E05E17C9F18E2F90E031
:10349000E49FF0011124EB50FD4F2481222391F190
:1034A000489FF001499FF00D1124DF01AB50BD4F43
:1034B00011962C9111972C1325C02C912D1322C0FD
:1034C00015962C91159721111DC012962D913C91A6
:1034D000261B370B283C3105A8F48091C6018F705C
:1034E00080618093C601E550FD4F80818F708061BF
:1034F000808380EC91E00E94B1140E946308DF9108
:10350000CF910895FC013196E770BECFA4E1B0E001
:10351000ECE8FAE10C9418248C0186E0F801DE0155
:103520001F9601900D928A95E1F7F8018481E5805C
:1035300090ECA92E91E0B92E9091C401911128C070
:10354000882319F1EE20F1F0C8010E94900DF82EA9
:103550008823C1F087E0F801D50101900D928A958A
:10356000E1F78091C401813031F48091C0019091E4
:10357000C1010E94830D0E942B1A8F2D6496ECE0EE
:103580000C943424C8010E94B114FF24F394F5CFA5
:10359000D080C18082809380F090C5012091C201CB
:1035A0003091C301A401421B530BFF2009F4D9C081
:1035B000483C510508F092C08823F9F29091C1016E
:1035C0008091C601282F207F09F056C0C91214C06F
:1035D0009091C001D91210C0E11048C08F70806175
:1035E0008093C60180EC91E00E94B1148091C601E5
:1035F000F8018683F12CC1CFE11038C06C2D8D2DE0
:103600000E94E8036C2D8D2D0E94E803E82E8111A5
:10361000F1CFDF86C88A8F8598890E94830D292F74
:1036200022952F70243058F49F70223088F099230F
:1036300099F0F8019681907F79F4FE2C9ECF2A5F55
:103640002F70223068F0C8010E94B114EF2CF5CF22
:10365000992311F0882389F3805E883070F3F3CFCB
:10366000803F58F3815F833070F7E7CF8091C601C8
:1036700081608093C601BECFC91207C09091C0017E
:10368000D91203C0EE2009F48DC0C8010E94900D2C
:10369000882309F477CFEE2009F474CF8091C60116
:1036A000803288F02091C0013091C101398728878C
:1036B0009B868A869091C4019C871D868E87CE0149
:1036C00008960E94B11487E0F801A0ECB1E00190E7
:1036D0000D928A95E1F70E942B1A57CF9091C6015F
:1036E000292F207F51F480EC91E00E94B11487E0F3
:1036F000F50111928A95E9F77DCF882309F43DCF32
:103700008091C1018C1110C08091C001D8120CC0F1
:10371000E1100AC09683C8010E94B11487E0F50148
:1037200011928A95E9F729CFC8010E94900D88234C
:1037300009F428CFEE2009F425CF8091C60180320C
:1037400010F22091C0013091C1013A8329839C82FB
:103750008B829091C4019D831E828F83CE0101963E
:10376000B0CF483C5105D0F6882309F40ECFFE2C8B
:10377000EE2009F407CF8091C1018C1120C0809107
:10378000C001D8121CC08091C60180FD0FC0982FC7
:10379000907F61F08683903F31F0982F907F905F0B
:1037A0008F70892B8683C8010E94B11487E0F801CD
:1037B000A0ECB1E001900D928A95E1F7DECEC80150
:1037C0000E94900D81117FCF8091C601816080930E
:1037D000C601C8010E94B114D0CEABE1B0E0E3EF66
:1037E000FBE10C9420244E8B5F8B688F798F8A8F3E
:1037F0009B8F192F91111092C9011D8A86E0FE013D
:103800007696DE011F9601900D928A95E1F70A8D5A
:10381000002341F021E04F85588969897A89C801E0
:103820000E94B30D0B8B1C8B87E0FE013F96DE01DF
:10383000189601900D928A95E1F7CE0108960E94A4
:10384000861A81110CC087E0FE013896DE011196C0
:1038500001900D928A95E1F78C8581110BC017E0DC
:1038600080912D039091F402891331C06B96E4E0AE
:103870000C943C242091F40230E0C9010196877039
:10388000992740912D034817190699F097E0929FC8
:10389000D001939FB00D1124AB50BD4FFE01319666
:1038A00001900D929A95E1F78093F4020E946308CB
:1038B000D6CF0E942F111092F40210922D0387E0B0
:1038C000E0ECF1E0DF011D928A95E9F7C8CF819F16
:1038D000C00111248B509D4F0E94861A882331F21B
:1038E00080912D0390E001968770992780932D0396
:1038F000B7CFA6E0B0E0EFE7FCE10C9420240E94F3
:1039000073058C018091F3019091F4018017910768
:1039100081F019821A820E947305682F49815A81A9
:10392000792F80E090E00E94ED1B1093F40100934A
:10393000F3012696E4E00C943C241F920F920FB6FC
:103940000F9211242F933F934F935F936F937F9325
:103950008F939F93AF93BF93CF93DF93EF93FF9397
:10396000D091E900DF708091EC00C82FC17080FD1C
:10397000C0E81092E9008091F000877F8093F0000A
:1039800078940E9460111092E9008091F0008860A4
:103990008093F000CD2BCF70C093E900FF91EF91A1
:1039A000DF91CF91BF91AF919F918F917F916F9157
:1039B0005F914F913F912F910F900FBE0F901F90ED
:1039C00018951F920F920FB60F9211242F933F93C9
:1039D0004F935F936F937F938F939F93AF93BF9317
:1039E000EF93FF938091E10082FF15C08091E20088
:1039F00082FF11C08091E1008B7F8093E1002091D4
:103A0000DC022F5F822F62E30E94E523992309F4F1
:103A1000D0C02093DC028091DA0080FF2CC080911E
:103A2000D80080FF28C08091DA008E7F8093DA0072
:103A30008091D90080FFF3C080E189BD82E189BD1A
:103A400009B400FEFDCF81E08093EA028EE195E0AB
:103A50009F938F930E94DF038091DD020F900F9060
:103A6000811109C00E9407040E94A8048091E2000D
:103A700084608093E2008091E10080FF1FC080910C
:103A8000E20080FF1BC08091E2008E7F8093E20005
:103A90008091E20080618093E2008091D800806292
:103AA0008093D80019BC85E08093EA0286E295E015
:103AB0009F938F930E94DF030F900F908091E100FE
:103AC00084FF33C08091E20084FF2FC080E189BD74
:103AD00082E189BD89B5982F917080FFFBCF8091DD
:103AE000D8008F7D8093D8008091E1008F7E8093F5
:103AF000E1008091E2008F7E8093E2008091E200FD
:103B000081608093E2008091EB02882309F495C0E4
:103B100084E08093EA028AE295E09F938F930E946B
:103B2000DF038091EA020F900F908091E10083FF04
:103B30002FC08091E20083FF2BC08091E100877F3E
:103B40008093E10082E08093EA021092EB02809180
:103B5000E1008E7F8093E1008091E2008E7F809370
:103B6000E2008091E20080618093E20042E060E048
:103B700080E00E9476048091F00088608093F000DD
:103B80008EE295E09F938F930E94DF030F900F903A
:103B9000FF91EF91BF91AF919F918F917F916F9125
:103BA0005F914F913F912F910F900FBE0F901F90FB
:103BB00018951092DC028091DB02882309F42BCF48
:103BC0008091EA028430C1F49091E9009F702091C5
:103BD000EC00822F817020FD80E8892B95E0909386
:103BE000E9009091EB0090FF04C09091EE0097FDEA
:103BF00008C08F708093E9001092DB020CCF109206
:103C0000F1009091E80095FDFACF9091E80090FFC7
:103C1000F0CF9091E8009E779093E800EACF19BC2E
:103C20001092EA0282E295E09F938F930E94DF0355
:103C30001092DD020F900F901ECF8091E30087FD60
:103C400093E09093EA0267CF78941F921FB61F9279
:103C500011248F939F93AF93BF938091D60290913D
:103C6000D702A091D802B091D9020196A11DB11D31
:103C70008093D6029093D702A093D802B093D90232
:103C8000BF91AF919F918F911F901FBE1F9018956C
:103C90001F921FB61F9211248F939F93AF93BF93D0
:103CA0008091D502811113C08091D6029091D702E4
:103CB000A091D802B091D9024196A11DB11D809367
:103CC000D6029093D702A093D802B093D902BF91A5
:103CD000AF919F918F911F901FBE1F901895CDB7E8
:103CE000DEB7A8970FB6F894DEBF0FBECDBF85B77D
:103CF000806885BF85B7806885BF84B7877F84BFAC
:103D00000FB6F894A8958091600088618093600058
:103D1000109260000FBE80E890E00FB6F894809398
:103D20006100909361000FBE8CE79BE09093770158
:103D3000809376010E9407040E94A8048091E2000B
:103D400084608093E20078948091EA028823A1F055
:103D50001091E9001F709091EC00892F817090FD07
:103D600080E8182B1092E9008091E80083FD0E9402
:103D700060111F701093E90082E084BD93E095BD4F
:103D80009AEF97BD80936E000E94FE0C811102C0D5
:103D90000E94EE0C80910C0190910D01A0910E01FA
:103DA000B0910F0180939A0290939B02A0939C0282
:103DB000B0939D025B98539A80E40E948623AEE400
:103DC000B1E041E050E08D91E82FE295EF70F0E036
:103DD00021A18F70BA0102C0660F771F8A95E2F7A2
:103DE000CB01922F982B91A392A18095892382A336
:103DF00071E0AE35B70739F7AEE5B1E041E050E02C
:103E00008D91E82FE295EF70F0E091A18F709A010B
:103E100001C0220F8A95EAF7892F822B81A381E0C6
:103E2000A136B80769F753985B9810929F021092D9
:103E30009E021092B6021092B5021092A102109248
:103E4000A0021092B8021092B7021092A302109230
:103E5000A2021092BA021092B9021092A502109218
:103E6000A4021092BC021092BB021092A702109200
:103E7000A6021092BE021092BD0290E080E00E9465
:103E80006524863E9E4F21F40E94FE0C811168C07D
:103E900066EE7EEF90E080E00E94992460E082E090
:103EA00090E00E947B2481E08093A80261E083E09F
:103EB00090E00E947B2460E074E184E090E00E9446
:103EC000992460E086E090E00E947B2460E087E037
:103ED00090E00E947B2440E050E0BA0188E090E04E
:103EE0000E948D2460E084E290E00E947B2460E0E8
:103EF00087E190E00E947B2460E08CE090E00E94EB
:103F00007B2460E08DE090E00E947B2419821A827D
:103F10001B821C821D821E821F82188648E050E090
:103F200068E170E0CE0101960E946B2440E050E011
:103F3000BA0180E290E00E948D2480E00E94660C2D
:103F40000E94EE0C40E050E0BA018FE090E00E9449
:103F50008D2440E050E0BA0183E190E00E948D247E
:103F600082E090E00E945D248093D20284E090E0A1
:103F70000E9465249093D4028093D3020E947E0F06
:103F8000FFEF26E741E0F15020404040E1F700C05C
:103F900000000E947E0F8091B50280FF08C06FEF85
:103FA0007FEF90E080E00E9499240E94420C83E021
:103FB00090E00E945D240E942A09249A2C98579A26
:103FC0005F98569A5E988091D20283608093D20265
:103FD00080E091E09093CF028093CE0255245394D9
:103FE000222423948091EA028530C9F48091D20280
:103FF00080FF08C06BE073E07F936F930E94DF0344
:104000000F900F9000E112E18091EA02853009F4EF
:104010006BC00E942F110E94C9050E942D090E94A9
:104020007E0FAAEACA2EA2E0DA2E65EB72E078A72C
:104030006FA3DB01F601219131918D919D9172E089
:10404000E43BF70709F48EC028173907A1F38091E4
:10405000D20281FDB1C1912CEFA1F8A5019111917E
:10406000F8A7EFA3F601A190B1906F01A016B106D9
:1040700059F1A026B126812CEE24E394F12CC50140
:104080008E219F21892BB1F089A29AA20E947305EB
:104090009CA38BA32DA291E098012E213F21232BDD
:1040A00009F490E09EA349A15AA16BA17CA18DA126
:1040B0000E94ED1B8394EE0CFF1CF0E18F12DFCF0A
:1040C000F601329711830083939425E09212C4CFB6
:1040D0008FB7F8944091D6025091D7026091D802E0
:1040E0007091D9028FBF44C08091EA02843039F1C7
:1040F00080E00E942D091092D502E8E1F0E020E472
:104100000FB6F894A895E09360000FBE209360006E
:1041100083B7817F846083BF83B7816083BF7894D6
:10412000889583B78E7F83BF0FB6F894A89580914A
:104130006000886180936000109260000FBE8091E3
:10414000E902882309F460CF0E947E0FE5EBF2E0DC
:1041500081919191892B09F0ABC242E0EF3BF407CA
:10416000B9F752CF2817390709F071CF0E94791C8F
:1041700086E0E6ECF2E0DE01119601900D928A9560
:10418000E1F7D090C7020091C802F090C902E09018
:10419000CA021091CB021092C8021092C90210926A
:1041A000CA021092CB02802F8F2909F445C080915A
:1041B000C4029091C5020E9464059C019091C102C5
:1041C000992309F49EC225313105B0F19F3F19F0C2
:1041D0009F5F9093C102002359F00E94F8059FEF62
:1041E00010160CF491E0899F802D11248093C80251
:1041F000FF2059F00E94F80591E01F140CF09FEF8A
:10420000899F802D11248093C9028091C802882340
:1042100099F0C090C902CC2079F00E94180688233A
:1042200009F411C18093C8028C2D0E9418068823BE
:1042300009F40CC18093C9028E2D812B09F445C06D
:104240008091C2029091C3020E9464059C019091EA
:10425000BF02992309F450C221353105B0F19F3FC7
:1042600019F09F5F9093BF02EE2059F00E94D6058F
:104270009FEF1E140CF491E0899F802D11248093F0
:10428000CA02112359F00E94D60591E011160CF0D4
:104290009FEF899F802D11248093CB028091CA02C9
:1042A000882399F0E090CB02EE2079F00E94180666
:1042B000882309F4CEC08093CA028E2D0E9418066E
:1042C000882309F4C9C08093CB028091C702D81219
:1042D00017C08091C802882311F0081311C02091E3
:1042E000C902222311F0F2120BC09091CB02992344
:1042F00011F0191305C03091CA02332309F4EEC13D
:104300000E94D70986E0FE013196A6ECB2E001904A
:104310000D928A95E1F70E94C905182F8091B40289
:10432000181709F11093B4028FB7F8944091D60290
:104330005091D7026091D8027091D9028FBF8091BD
:10434000D2028570853061F41F921F9388E493E058
:104350009F938F930E94DF030F900F900F900F9009
:10436000812F0E942D098091EA02843009F03ACE13
:1043700083E08093E9008091E80082FF33CE809152
:10438000E80090E085FF06C00E942604882309F417
:1043900066C091E08091E8008B778093E8009923D4
:1043A00009F420CEE981E150E33108F080C0F0E06B
:1043B000E350FB4D0C94052481E393E09F938F938E
:1043C0000E94DF030F900F9065EBE62E62E0F62E61
:1043D00010E000E07CE2872E73E0972EE9E2AE2E3B
:1043E000E3E0BE2EF3E26F2EF3E07F2E1F930F93D8
:1043F0009F928F920E94DF03BF92AF920E94DF03D1
:10440000F70180813180F2E0EF0EF11C0E943E093D
:10441000482E832D0E943E094F928F937F926F9278
:104420000E94DF0361E273E07F936F930E94DF03DA
:104430000F5F1F4F0FB6F894DEBF0FBECDBF053024
:104440001105A1F608CE5092C802EECE5092C902D4
:10445000F3CE5092CA0231CF5092CB0236CF00E257
:1044600010E0BE016F5F7F4F7B018091E80085FD0A
:104470000AC08091E8008B778093E8000E942604B0
:10448000882399F386CF8091F100F70181937F0112
:104490000150110951F77DCF1A828CE08B8324C023
:1044A0008A81823009F41FC128F4813061F08FEFD6
:1044B00089831AC0833009F18430C9F71B821C82BA
:1044C0001D821E8211C02FB7F8946091D6027091A0
:1044D000D7028091D8029091D9022FBF0E940B245D
:1044E0006B837C838D839E8340E250E0BE016F5FCF
:1044F0007F4F82E00E94DE0B75CD2B81822F90E0F2
:10450000FE013196225F8530910570F7DC01AA0F1C
:10451000BB1FAB54BD4F3C9111964C9143833483E8
:10452000019632962813EFCFDFCF8A81823019F0BF
:104530008530D1F2BCCF6B817C818D819E810E94C0
:104540000B2488E290E00E947B24CECF4C816B81CB
:104550008A810E94170D9827892798279E838D832B
:10456000C3CF2D813E813227232732274C816B8197
:104570008A810E948F0CB8CF0E94B50CB5CF80E124
:104580008A83B2CF5A8287E589CF0A811B8110279F
:1045900001271027BE016F5F7F4F6B01EC80CB01BD
:1045A0008E0D911D7C01C80187559D4FEC14FD04B3
:1045B00009F49ACF0735E1E01E0750F40E945D240C
:1045C000F60184830F5F1F4FFFEFCF1ADF0AEBCF97
:1045D000F6011482F7CF0A811B81102701271027CB
:1045E000BE016F5F7F4F6B01EC80E00EF12EF11C7E
:1045F000C80187559D4FE016F10609F475CF0735C0
:1046000071E0170720F4F60164810E947B24FFEF1C
:10461000CF1ADF0A0F5F1F4FEBCF0E947F0C64CFD2
:1046200084E0AECF0A811B81102701271027BE012D
:104630006F5F7F4F6B01EC80CB018E0D911D7C0174
:10464000C8018996EC14FD0409F44ECF0038E2E06D
:104650001E0750F40E945D24F60184830F5F1F4FF4
:10466000FFEFCF1ADF0AECCFF6011482F7CF0A81F1
:104670001B81102701271027BE016F5F7F4F6B0141
:10468000EC80E00EF12EF11CC8018996E016F106CF
:1046900009F42ACF003872E0170720F4F60164818C
:1046A0000E947B24FFEFCF1ADF0A0F5F1F4FECCF72
:1046B00009BD19BD09B400FEFDCF8091D8008F7DE2
:1046C0008093D8008091E00082608093E000809128
:1046D000E00081FDFCCF0E942F1196CC822B892B0C
:1046E00009F410CE0DCE88E290E00E945D241B827A
:1046F0001C821D828E83F8CE2B30310508F0B1CD9F
:10470000E4CD2B30310508F063CD96CD807C8093CD
:104710000B010895873901F178F48633F9F030F40C
:104720008433F1F08533F1F08FE108958439E1F0BD
:104730008639D1F781E20895843FC1F030F4803F9B
:10474000B9F0813F89F781E00895863F99F0A0F0A4
:10475000873F51F787E0089582E2089585E2089542
:1047600083E2089584E2089580E2089584E0089544
:1047700080E0089586E0089585E0089596E8909396
:104780007A00982F9072906890937B008F7190912F
:104790000B01892B80937C0080917A008064809348
:1047A0007A0080917A0086FDFCCF8091780020917C
:1047B000790090917A009F7790937A00922F0895D4
:1047C0000E948A230E94BE230895991B79E004C0A9
:1047D000991F961708F0961B881F7A95C9F7809540
:1047E000089597FB072E16F4009407D077FD09D0A3
:1047F0000E94492407FC05D03EF4909581959F4F77
:104800000895709561957F4F0895EE0FFF1F0590F5
:10481000F491E02D0994692796276927782787273F
:10482000782708952F923F924F925F926F927F92D6
:104830008F929F92AF92BF92CF92DF92EF92FF92B0
:104840000F931F93CF93DF93CDB7DEB7CA1BDB0B5C
:104850000FB6F894DEBF0FBECDBF09942A88398801
:1048600048885F846E847D848C849B84AA84B98408
:10487000C884DF80EE80FD800C811B81AA81B98114
:10488000CE0FD11D0FB6F894DEBF0FBECDBFED0128
:104890000895AA1BBB1B51E107C0AA1FBB1FA61787
:1048A000B70710F0A61BB70B881F991F5A95A9F7D9
:1048B00080959095BC01CD010895F999FECF92BDE8
:1048C00081BDF89A992780B50895A8E1B0E042E04B
:1048D00050E00C94A124DC01A40FB51F41505040BE
:1048E00048F0CB01840F951F2E910E947C244150EB
:1048F0005040D0F70895262FF999FECF92BD81BD83
:10490000F89A019700B4021639F01FBA20BD0FB60D
:10491000F894FA9AF99A0FBE08950396272F0E94E9
:104920007C240E947B24252F0E947C24242F0C941D
:104930007C240196272F0E947C240C947B24DC018C
:10494000CB01FC01F999FECF06C0F2BDE1BDF89A9A
:10495000319600B40D9241505040B8F70895FB01D4
:10496000DC0104C08D910190801921F44150504028
:10497000C8F7881B990B0895F894FFCF411269126C
:104980001214691212149C12BD121214BB13C81314
:104990003216361627162E163A163E164216D81717
:1049A000D81712181218C518DF183C183C18E4184C
:1049B0005119621962197F16F41687165116551689
:1049C0008B1659168F169B166516ED1669169F16CF
:1049D0006D16A316CB167116A716D2167716AD163E
:1049E000B5165D169316611697167B16B116C1168D
:1049F000DB16EB164B168316FB164C225022952223
:104A0000A622B122BC2257225722572257225722D0
:104A1000BF22C222C522EB220D23102312233723EB
:104A200061052E0C270C200C190C014037004100A9
:104A3000818283E200E900EA00B500B600B700CD4C
:104A4000008301CC008A01920194012102230224F7
:104A5000022502260227022A02B300B4006F00706A
:104A6000009F01CB019F02A0020100030402353622
:104A70006667F7F6F5F437F1F0C6303132339091CE
:104A8000924422B61599017701C100AC0044055D3E
:064A9000057D05960500FE
:00000001FF
