:100000000C94E5010C941D020C941D020C941D022D
:100010000C941D020C941D020C941D020C941D02E4
:100020000C941D020C941D020C944A180C94061892
:100030000C9447190C941D020C941D020C941D0283
:100040000C941D020C941D020C941D020C941D02B4
:100050000C941D020C9423190C941D020C941D0287
:100060000C941D020C941D020C941D020C941D0294
:100070000C941D020C941D020C941D020C941D0284
:100080000C941D020C941D020C941D020C941D0274
:100090000C941D020C941D020C941D020C941D0264
:1000A0000C941D020C941D020C941D020501090202
:1000B000A10185020901A1000509190129081500FE
:1000C0002501950875018102050109300931158165
:1000D000257F95027508810609381581257F9501D0
:1000E00075088106050C0A38021581257F95017572
:1000F000088106C0C005010980A101850319012AF4
:10010000B700150126B700950175108100C0050CD8
:100110000901A101850419012AA002150126A002E6
:10012000950175108100C005010906A1018506052C
:100130000719E029E71500250195087501810205D9
:1001400007190029EF1500250195F07501810205B9
:10015000081901290595057501910295017503910D
:1001600001C00660FF0961A1010962150026FF00B8
:100170009520750881020963150026FF00952075FA
:10018000089102C005010906A101050719E029E748
:1001900015002501950875018102950175088101F9
:1001A0000507190029FF150026FF0095067508812F
:1001B000000508190129059505750191029501753C
:1001C000039101C0000000000000000000000000DA
:1001D000000000000000000000000000000000001F
:1001E00000000000000000007E0F00D4FFFFFFC7EA
:1001F0000000007800000000000000002A2B28000A
:1002000000000000000000000000000000000029C5
:10021000000000002C1E3420212224342627252E05
:10022000362D3738271E1F2021222324252633333D
:10023000362E37381F0405060708090A0B0C0D0E69
:100240000F101112131415161718191A1B1C1D2F35
:100250003130232D350405060708090A0B0C0D0E55
:100260000F101112131415161718191A1B1C1D2F15
:100270003130354C4C0029001E001F0020002100A9
:100280002200230024002500260027002D002E0038
:10029000310035024B002B0014001A000800150035
:1002A000170000001C0018000C00120013002F00A3
:1002B00030002A004E003900040016000700090033
:1002C0000A0000000B000D000E000F003300340088
:1002D000000028000000E1001D001B0006001900BE
:1002E000050000000500110010003600370038003E
:1002F000E50021520000E000E20000002C000000B8
:100300002152000000002C000000E6000000000068
:100310000000E40009025B00030100A0FA090400E8
:100320000001030101000921110100012240000721
:10033000058103080001090401000203000000090F
:10034000211101000122220007058203200001077C
:100350000503032000010904020001030000000955
:10036000211101000122B6000705840320000112BB
:100370000100020000000844566F446001010200C1
:10038000011C034F00530041007600320020002D75
:1003900000200054006F007000720065000000240F
:1003A00003560069006B0074007500730020004460
:1003B0000065007300690067006E0020004C004C6F
:1003C0000043000000040309040011241FBECFEF06
:1003D000DAE0DEBFCDBF04B603FE18C08091820212
:1003E00090918302A0918402B09185028730904B56
:1003F000A740B04B59F410928202109283021092DF
:10040000840210928502E0E0F8E3099511E0A0E093
:10041000B1E0E0EFFEE302C005900D92AE36B10709
:10042000D9F722E0AEE6B1E001C01D92A238B207D2
:10043000E1F70E946E190C94241F0C940000E8ED63
:10044000F0E080818E7F80831092E2001092DA00CB
:100450001092E100A0EEB0E08C9181608C938081DD
:100460008F77808319BCA7EDB0E08C918E7F8C9341
:1004700080818F7E80831092500208952091E40045
:100480003091E50095E6A9012091EC00822F817062
:1004900020FF06C08091E80080FF06C080E008953C
:1004A0002091E80022FD1AC080917502882389F00E
:1004B000853089F08091EB0085FD0FC02091E4002C
:1004C0003091E50042175307F9F29150E1F684E0CC
:1004D000089582E0089583E0089581E00895809171
:1004E000770287FF13C08091E80082FF06C08091E9
:1004F000E8008B778093E80004C080917502811139
:10050000F2CF0895809175028823D9F38091E80095
:1005100080FFF8CF8091E8008E77ECCF982F9093F2
:10052000E900242F762F50E0891731F07091EC000C
:100530002091ED005091F00021FD07C09F5F9730A2
:1005400071F78093E90081E008953091EB003E7FE0
:100550003093EB003091ED003D7F3093ED00309112
:10056000EB0031603093EB007093EC002093ED00D2
:100570005093F0002091EE0027FDE0CF80E0089539
:10058000B0E0A0E0E6ECF2E00C94941EC8EDD0E000
:1005900088818F7E8883E7EDF0E0808181608083B1
:1005A00084E082BF81E08093500288818E7F8883BF
:1005B00002EE10E0F80110821092DA0081EEC82EEF
:1005C000D12CF601108288818F778883888180689A
:1005D000888388818F7D888319BC10927502109260
:1005E0007602109274021092730290EEE92EF12CB2
:1005F000F70180818B7F808388818160888342E0DE
:1006000060E080E00E948E02F60180818E7F808310
:10061000F801808181608083808188608083F70118
:1006200080818E7F8083888180618883CDB7DEB7AB
:10063000E8E00C94B01EFC0180917D0290917E0256
:1006400086179707A0F06115710529F49091E800CD
:100650009E779093E80090E06115710551F4911137
:1006600008C08091E80082FF34C080E00895BC019A
:10067000F2CF809175028823C1F18530C1F180915C
:10068000E80083FD30C08091E80082FDEACF8091D0
:10069000E80080FFE1CF8091F3002091F200382F35
:1006A0006115710519F02830310558F091E02830B6
:1006B000310509F090E02091E8002E772093E800C2
:1006C000CBCF81918093F100615071092F5F3F4F33
:1006D000E7CF80917502882341F0853041F0809109
:1006E000E80083FFBECF81E0089582E0089583E0B3
:1006F00008958091520208959C014FB7F89480911B
:100700004A0290914B02A0914C02B0914D024FBF12
:10071000821B930B08952FB7F89480914A02909111
:100720004B02A0914C02B0914D022FBF0895209131
:1007300008012223C9F020914E0227FF15C0E62FA1
:10074000E695E695E695EE31D8F4E80FF92FF11D20
:10075000677021E030E001C0220F6A95EAF720952A
:100760008281282322830895FC01329608962191E4
:10077000621303C0DF0111971C92E817F907B9F75C
:100780000895209108012223C1F020914E0227FFF5
:1007900014C0E62FE695E695E695EE31F8F4E80FFD
:1007A000F92FF11D677021E030E001C0220F6A953A
:1007B000EAF78281822B82830895FC0132962FEF23
:1007C00030E04191641751F02F3F19F4411101C0FD
:1007D000232F3F5F3630A9F72F3F09F40895820F8A
:1007E000911D27FD9A95FC0162830895A3E0B0E076
:1007F000ECEFF3E00C949A1E2091470230914802EE
:1008000028173907A1F09093480280934702E0919E
:100810004502F0914602309751F024E029839B83F2
:100820008A830680F781E02DCE01019609952396F3
:10083000E2E00C94B61EA3E0B0E0E1E2F4E00C9438
:100840009A1E209143023091440228173907A1F0E3
:100850009093440280934302E0914502F091460256
:10086000309751F023E029839B838A830680F781A8
:10087000E02DCE01019609952396E2E00C94B61E78
:10088000E0914502F0914602309729F00190F08105
:10089000E02D0995089580E008950E948B039C0146
:1008A00090913F0280914002982B21F030933C02BE
:1008B00020933B029091410280914202982B21F0BB
:1008C00030933A0220933902E0914502F0914602BA
:1008D000309749F082E080933D020480F581E02D5D
:1008E0008DE392E0099508958091380280FD16C04D
:1008F00081FD16C082FD16C0809137028823A1F0C9
:10090000883280F428E0829FC001112468E270E000
:100910000E94691E862F672B39F0089582E00895A2
:1009200084E0089588E0089581E008958091380278
:1009300080FD14C081FD14C082FD16C08091360276
:10094000882381F08E3180F420E5829FC00111243C
:100950006EE170E00E94691E862F089584E108957B
:1009600088E2089588E0089580E5089580E008957C
:1009700090914E0292FF06C0282F28712830F9F47A
:10098000877F846093FF06C0282F28712831F1F4F7
:10099000877E846120914F0220FF06C0382F387176
:1009A0003830D9F4877F816021FF06C0282F287155
:1009B0002831D1F4877E816194FD877E0895282FA8
:1009C00024712430F9F68B7F8860DCCF282F2471C6
:1009D000243101F78B7E8861DDCF382F31713130C2
:1009E00019F78E7F8860E0CF282F2171213121F700
:1009F0008E7E8861E1CF82389105B9F1B0F4813300
:100A0000910509F47DC048F48932910509F46DC05F
:100A10008A32910509F47BC008958533910509F464
:100A20005FC08933910509F10895833E9105D9F19D
:100A300038F4803E910529F1823E910579F10895BF
:100A4000863E9105D9F1873E910509F43EC0843E6A
:100A5000910541F520914F0221FF24C080914E0263
:100A600084FD19C087EE90E0089520914E02237016
:100A700009F05AC020914F0223FF14C089E290E090
:100A8000089520914E0220FD38C030914F0230FF72
:100A900009C024FF43C090E080E0089520914E02F9
:100AA00022FDF7CF089520914E0222FD3AC03091E9
:100AB0004F0230FD39C024FFF5CFEDCF20914E021B
:100AC00023FFF0CF24FDE7CFCDCF20914E0223FDB1
:100AD0002EC030914F0231FFEECF84EE90E00895AA
:100AE00020914E0225FFDECFC9CF20914E0225FD79
:100AF00021C020914F0223FFD5CF89E390E0D2CFD0
:100B000020914E0226FFCECF8AE290E008952091F8
:100B10004E0226FFC7CF81E390E0089583EE90E078
:100B2000089582EE90E0089580EE90E0089586EEBC
:100B300090E0089585E390E008951F93CF93DF93AD
:100B40000E94FB04EC01C11580E5D807F0F5C11542
:100B500080E4D80708F09CC0C03ED10520F5CD3C0C
:100B6000D10508F082C0C83AD10578F4C53AD1055C
:100B700008F073C0C130D10519F1209709F1C430D4
:100B8000D105F0F4D0E0C0E01BC0C33CD105D0F7E4
:100B9000C85AD0E0CC0FDD1FCF5EDE4F0990D88160
:100BA000C02DD4640DC0C11580E2D80708F0D1C0B3
:100BB000C11581E0D80708F05AC0C83ED10510F72A
:100BC000CE01DF91CF911F910895C03682E5D807FD
:100BD00018F5C03482E5D80708F06BC0C03282E552
:100BE000D80708F05FC0C11582E5D80708F497C0A0
:100BF0002C2F2695269580E2289F900111248C2F7A
:100C00008370C1E0D0E002C0CC0FDD1F8A95E2F70F
:100C1000C22BD32BDD68D4CFC03A82E5D80760F46D
:100C2000C03882E5D80708F459C0CF71D0E0DC2F76
:100C3000CC27C46FD06AC4CFC03C82E5D80708F483
:100C400062C0C03E82E5D80708F09CCFDC2FCC27DD
:100C5000CC27DF71C06FD06AB3CFC55AD0E0C25F76
:100C6000DE4FC881D0E0D064ABCFD065A9CF8D2F47
:100C70000E94B804182FCE0199270E94FB04C12FAF
:100C8000D0E0DC2FCC27CC27DF71C82BD92B98CF15
:100C9000CE0199270E94FB04CC27DF70C82BD92BEB
:100CA000D06A8ECFCF71D0E0DC2FCC27C16FD06A55
:100CB00087CF2C2F26952695277080E2289F9001BC
:100CC00011248C2F8370C1E0D0E002C0CC0FDD1F57
:100CD0008A95E2F7C22BD32BDC6872CF2C2F269596
:100CE0002695277080E2289F900111248C2F837015
:100CF000C1E0D0E002C0CC0FDD1F8A95E2F7C22B25
:100D0000D32BDA685DCF8C2F8F710E94B804C82F67
:100D1000D0E0DC2FCC27CC27DF71D06251CF8C2FD5
:100D20008F710E94B80455E0D695C7955A95E1F7A2
:100D3000CF70D0E0DC2FCC27282F30E084FF05C017
:100D400044E0220F331F4A95E1F7C22BD32BD06921
:100D500037CF8D2F8F710E94B804182FCE0199279D
:100D60000E94FB04C12FD0E0DC2FCC27CC27DF7101
:100D7000C82BD92BD2CF80910A02811110920A027E
:100D800008958095909109029823909309020895FF
:100D90002091E6019091B50156E0291302C080E050
:100DA000089530E0529FF001539FF00D1124EA5452
:100DB000FE4F7181761306C07081781303C0728173
:100DC000741304C02F5F3F4F2770E7CF81E0089571
:100DD0008091E6019091B501981301C008958F5F4D
:100DE0008770FACF953080F5803170F540E1949F9F
:100DF00090011124820F932F911D682F677023E0BB
:100E0000969587952A95E1F7FC01EE0FFF1FE80FF5
:100E1000F91FEF56FE4F50E040E080E0219130E0B6
:100E2000062E02C0369527950A94E2F721703327E3
:100E3000042E01C0220F0A94EAF7822B4F5F5F4F06
:100E40004330510559F7089580E00895953098F59D
:100E5000803188F540E1949F90011124820F932FF7
:100E6000911D282F277041E001C0440F2A95EAF711
:100E700023E0969587952A95E1F7FC01EE0FFF1F79
:100E8000E80FF91FEF56FE4F90E080E070E05191BF
:100E9000DF0111979B01082E02C0369527950A9411
:100EA000E2F7217021952527242325272C930196ED
:100EB0008330910561F7089580931F020895909102
:100EC0001F0221E030E0F90101C0EE0F8A95EAF738
:100ED000D90102C0AA0FBB1F6A95E2F7EA2B01C035
:100EE000220F4A95EAF7892F8E23E81305C0292B94
:100EF000822F0E945C07089520952923F9CF21E0D5
:100F000030E001C0220F8A95EAF7209580911F02F8
:100F100082230E945C0708959091E70180958923C0
:100F20008093E701282F277091F4282F082E000CBA
:100F3000330B9217130659F090914F0292FF07C09E
:100F40008595859585950E947F071092E701089504
:100F500021E030E001C0220F8A95EAF780911F025C
:100F6000822B0E945C07089580931E0208956623D9
:100F700009F45DC08D3C41F40E94960481958093F4
:100F800040020E944D0408958E3C19F40E9496047C
:100F9000F6CF8F3C31F40E949604819580933F02F6
:100FA000F0CF803D19F40E949604F8CF893D29F4D2
:100FB0000E94740480934102E4CF8A3D21F40E9490
:100FC00074048195F7CF8B3D31F40E9474048195B0
:100FD00080934202D6CF8C3D19F40E947404F8CF5E
:100FE0009FE2980F983070F4815D990B21E030E01A
:100FF00001C0220F8A95EAF780913E02822B8093EE
:101000003E02BFCF8D3D31F48091380281608093E4
:101010003802B7CF8E3D21F4809138028260F7CF3D
:101020008F3D09F0AECF809138028460F0CF4091BF
:101030003F028D3C59F48091400287FF0DC0109211
:10104000400241110BC01092360208C08E3C81F460
:101050008091400218169CF3442381F08091410254
:1010600090914202892B09F08CCF1092370289CFE0
:101070008F3C49F447FFF0CF10923F02809140022D
:101080008111ECCFE0CF803D19F41416ACF3E4CF1E
:1010900090914102893D29F41916F4F6109241020B
:1010A000DBCF8A3D19F497FFD7CFF8CF909142025A
:1010B0008B3D29F497FFD0CF10924202CDCF8C3DCB
:1010C00019F41916CCF3C8CF9FE2980F983090F41A
:1010D000815D990B21E030E0B90102C0660F771FF6
:1010E0008A95E2F7CB01809590913E028923809307
:1010F0003E02B2CF8D3D31F4809138028E7F8093D5
:101100003802AACF8E3D21F4809138028D7FF7CF2F
:101110008F3D09F0A1CF809138028B7FF0CF80FF07
:1011200009C02C9A81FF08C05F9A82FF07C05E9AAF
:1011300081E008952C98F6CF5F98F7CF5E98F8CFAE
:101140000F931F93CF93DF938B01EA019091750268
:10115000943061F58093E9008FEF9091E800815021
:1011600095FD06C095ED9A95F1F700008111F5CF38
:101170008091E80085FF1AC00E943E02811111C0D3
:101180008091E80085FD06C08091E8008E7780930D
:10119000E800F2CFF80181918F018093F10021974F
:1011A00079F78091E8008E778093E800DF91CF9106
:1011B0001F910F91089543E050E0BC0184E00E942C
:1011C000A008089546E050E0BC0184E00E94A00819
:1011D0000895CF93DF93EC0180910801811111C034
:1011E00048E050E0BE0181E00E94A00880E2FE01DC
:1011F000A3E5B2E001900D928A95E1F7DF91CF91DE
:10120000089580914E0287FF05C040E284E050E0DF
:10121000BE01EACF48E081E0FACF81E08093E000B0
:1012200080E28093D8001092C9008FE19EE401977C
:10123000F1F700C0000087E090EBDC0180938202B0
:1012400090938302A0938402B093850288E19CE08E
:101250000FB6F894A895809360000FBE909360003D
:10126000FFCFCF93DF93C6EAD2E060E0CE010E94C9
:10127000E31E2196C11584E0D807B9F7DF91CF911D
:1012800008951F93CF93DF93122F8430E0F46530DD
:10129000D0F44031C0F490E2699FE001112450E0A5
:1012A000440F551FC40FD51F90EA899FC00DD11D53
:1012B0001124632FCE0186960E94E31E612FCE017A
:1012C00087960E94E31EDF91CF911F910895B0E0B1
:1012D000A0E0EDE6F9E00C94941E10E000E084E755
:1012E000E82E82E0F82EC0E017C001151105B9F410
:1012F000F601259134914D2F6C2F80E00E94410919
:1013000082E0C80ED11CDF5FD03179F7CF5F80E279
:10131000E80EF11CC53049F06701D0E0E6CF21E0CE
:1013200030E04D2F6C2F802FE9CF0F5F1F4F04301F
:101330001105A9F6CDB7DEB7E8E00C94B01ECF9347
:10134000C82F6FEF811163E282E290E00E94E31EFA
:101350006FEFC11165E083E290E00E94E31E6FEF42
:10136000C11167E284E290E00E94E31ECF910895EC
:1013700080E00E949F0960E085E290E00E94E31E09
:101380000E9467090E94310981E00E949F09089527
:101390000F931F93CF93DF93843030F5653020F5A2
:1013A000403110F520E2629F8001112450E0440F8B
:1013B000551F040F151F30EA839F000D111D1124C6
:1013C000C80186960E94D51EC82FD0E0DC2FCC27FE
:1013D000C80187960E94D51E9E01282BC901DF9166
:1013E000CF911F910F91089590E080E0F8CF462FA4
:1013F000753040F4603130F4843020F4672F0E945F
:10140000C809089590E080E00895CF92DF92FF929E
:101410000F931F93CF93DF936C0100911F02809174
:101420001E02082BC3E0D0E010E0FC2EC8010C2EF9
:1014300002C0959587950A94E2F780FD0CC021972C
:10144000A0F7F12C8F2DDF91CF911F910F91FF907D
:10145000DF90CF900895B6018C2F0E94F7090E946B
:101460009D05019761F3EECFCF93DF93EC010E94CE
:10147000050ABE010E94F7090E949D05DF91CF91E8
:101480000895FC0183819481892B29F080819181C9
:1014900089238F3F51F480E00895843FE1F717C01E
:1014A000883EA8F0813FB9F712C0808191810E94E7
:1014B000340A92959F70963099F358F4925F9F701A
:1014C000923048F7803F19F040F7883E20F781E0DE
:1014D00008959A5FF4CF82E290E00E94D51E833295
:1014E00089F483E290E00E94D51E853059F484E2AD
:1014F00090E00E94D51E91E0873209F090E0892F9C
:101500008170089580E0FCCF8091090290910802DB
:10151000892B8093700190910A029923A1F0892B65
:1015200080937001809108018823E1F180914E023F
:1015300087FF38C08EE1E2E7F1E090E08150A0F54E
:1015400091110E94BB0640E250E068EE71E080E736
:1015500091E00E94171F892B21F180E2E0E7F1E082
:10156000A8EEB1E001900D928A95E1F7E091450275
:10157000F09146023097A9F080910801882359F034
:1015800080914E0287FF07C08091700180937101A6
:1015900086E0809370010280F381E02D80E791E086
:1015A0000995089586E0C7CF2191222339F29F5FE4
:1015B000C5CF882321F00E94C1060E94840A0895A5
:1015C000882339F090910902982B909309020E9488
:1015D000840A0895882399F19CEF980F913A40F47A
:1015E000682F80E791E00E9497030E94840A089583
:1015F00090E2980F983050F4877091E001C0990FF5
:101600008A95EAF7892F0E94C106EFCF9BE5980FD4
:10161000933028F490E080E00E941B04089598E540
:10162000980F9B3128F490E080E00E94F603089523
:1016300093E3980F933118F460E00E94B707089580
:10164000CF93C82F8823D9F18CEF8C0F813AC8F53E
:1016500080910801882311F180914E0287FF1EC0FE
:10166000EC2FE695E695E695F0E0E059FE4F828195
:1016700090E04C2F477021E030E002C0220F331F72
:101680004A95E2F782239323892B91F06C2F80E710
:1016900091E00E9497030E94840A0AC0E2E7F1E009
:1016A00088E791E02191C21789F38E179F07D1F740
:1016B0006C2F80E791E00E94C1030E94840ACF91C1
:1016C000089580E28C0F883068F4C77021E030E024
:1016D00001C0220FCA95EAF780910902822B8093FC
:1016E0000902EBCFEBE5EC0FE33040F4F0E0E25F12
:1016F000FE4F808190E00E941B04E1CFE8E5EC0FF3
:10170000EB3150F4F0E0EE0FFF1FEF5EFE4F8081F3
:1017100091810E94F603D3CF83E38C0F833178F657
:1017200061E08C2F0E94B707CACF1F93CF93DF933E
:10173000182FD0E0C0E0893311F4C0E5D0E0812F4C
:101740000E94200B209739F4812F0E94EA0ADF9132
:10175000CF911F9108958FE99FE00197F1F700C0A5
:1017600000002197EFCF0F931F93CF93DF93C62FE6
:10177000D42F022FFC0182818823A9F0609381027B
:101780000E948B039093800280937F02C77081E058
:1017900001C0880FCA95EAF70E94E00ADF91CF9155
:1017A0001F910F91089580918102681332C080913A
:1017B0007F02909180020E947C03883C910548F54D
:1017C00010E21D0FCD17B9F080E28C0F883040F485
:1017D000C77081E001C0880FCA95EAF70E94D90A54
:1017E000183048F481E09D2F977001C0880F9A95BA
:1017F000EAF70E94E00A802F0E94950B183070F6DD
:10180000D77081E001C0880FDA95EAF70E94D90A03
:10181000C5CFC77081E001C0880FCA95EAF7F6CF3F
:1018200090914F0292FB222720F9281779F080FB34
:1018300092F990934F0260914E0270914F0284E0B2
:1018400090E00E94011F82E00E948C070895B0E0A2
:10185000A0E0EDE2FCE00C948B1EE4E1AE2EE2E0B1
:10186000BE2E312C10E000E088248394912C8CE46F
:10187000682E81E0782ED0E0C0E0A801495B5E4F81
:101880002A0179C0C0901002D0901102E09012029B
:10189000F09013020330110509F4B8C004301105AB
:1018A00009F4A3C00115110551F4CE010E9702975A
:1018B00030F460E3E62EF12C7CE2C72ED12C539A53
:1018C000F201808180FFB1C0589A81FFB0C0599A5F
:1018D00082FFAFC05A9AACE4B1E09D91E92FE29546
:1018E000EF70F0E022A19F70A40102C0440F551FC9
:1018F0009A95E2F7CA018095822382A351E0AC3524
:10190000B50759F7F89453985B98F30181913F011B
:10191000E82FE295EF70F0E092A18F70940101C082
:10192000220F8A95EAF7892F822B82A384E90E94ED
:10193000641E7894F50120813181A9010C2E02C02A
:10194000569547950A94E2F740FF75C08C159D05A2
:1019500008F07EC0C4010C2E02C0880F991F0A94A3
:10196000E2F78095909582239323F50191838083FC
:1019700081E0382A2196C031D10509F083CF0F5F6D
:101980001F4FF2E0AF0EB11C0530110509F06FCF0B
:10199000332009F45FC081E080930F020E948B0323
:1019A00090930E0280930D0280910D0290910E0291
:1019B0000E947C03059708F451C04AE050E064E1BE
:1019C00072E08CE292E00E94171F892B09F44CC050
:1019D0008AE0E4E1F2E0ACE2B2E001900D928A9597
:1019E000E1F781E010920F023AC0C730D10574F4DC
:1019F000C530D1059CF4C330D1050CF460CF4CE365
:101A0000E42EF12C52E3C52ED12C59CFCE30D10586
:101A100009F055CF25E3E22EF12C03C03AE3E32E83
:101A2000F12C90E3C92ED12C4ACF58984ECF59981B
:101A30004FCF5A9850CFE816F90650F4C4010C2E37
:101A400002C0880F991F0A94E2F7822B932B8DCF47
:101A500080E08FCF80910F028111A6CF80E0CDB7BB
:101A6000DEB7E1E10C94A71E80E0BCCF1092090222
:101A700080910801E2E7F1E0882329F180914E028C
:101A800087FF21C08EE1DF011D928A95E9F790E082
:101A900080E00E941B0490E080E00E94F603109218
:101AA00008020E94840A86E0EDE3F2E0DF011D9265
:101AB0008A95E9F710923602109237021092380296
:101AC0000E944D04089586E0DECFAAE2B0E0EBE686
:101AD000FDE00C94991E87E792E02091F100DC0173
:101AE0002D93CD01B2E08F379B07B9F78091780233
:101AF000833009F472C0B8F4813009F449C08230EF
:101B000009F4B3C08091E80083FF8BC28091770213
:101B1000909178029A3008F084C2E92FF0E0EA5DF3
:101B2000F04E0C947D1E8A3009F48EC08B3009F47F
:101B300071C0893039F780917702813219F780912D
:101B40007B0290917C02009711F00297D9F6809168
:101B5000E800877F8093E8008091E80082FF38C02A
:101B60009091F3008091F200029731F48091F1009E
:101B7000813011F0863021F48091F100809352027F
:101B80008091E8008B778093E8000E946F02BACFC3
:101B900080917702813A09F0B5CF8091E800877F84
:101BA0008093E80080917B0290917C02892B61F404
:101BB00060E283E592E070E00E941B038091E80000
:101BC0008B778093E8009ECF60E090E080E0F3CFD9
:101BD000809175028111C0CF95CF80917702813AB3
:101BE00009F090CF80917B0290917C02892B09F0C3
:101BF00089CF8091E800877F8093E8008091E8009A
:101C000080FFFCCF809108018093F1008091E80073
:101C10008E77B9CF80917702813209F073CF8091AE
:101C20007B0290917C02892B09F06CCF8091E800B7
:101C3000877F8093E8000E946F02809179028093F1
:101C400008010E94360D5ECF80917702813209F043
:101C500059CF8091E800877F8093E8000E946F024F
:101C600080917A02809351024DCF80917702813A20
:101C700009F048CF8091E800877F8093E800809149
:101C8000E80080FFFCCF80915102BECF803899F0F0
:101C9000823809F0C6C180917B028F70873008F0CE
:101CA000C0C18093E9008091EB0085FB882780F913
:101CB0001092E90006C08091730290917402911114
:101CC00082609091E800977F9093E8008093F10004
:101CD0001092F1008091E8008E779FC1882309F46B
:101CE0008DC1823009F09DC180917902811190C12E
:101CF00080917B028F702FEF280F263008F091C162
:101D00008093E9002091EB0020FF82C1933031F4F1
:101D10008091EB0080628093EB007AC19091EB00A0
:101D200090619093EB0021E030E001C0220F8A9592
:101D3000EAF72093EA001092EA008091EB008860B5
:101D4000EACF81116EC1109179021F778091E30073
:101D50008078812B8093E3008091E800877F8093D7
:101D6000E8000E946F028091E80080FFFCCF809124
:101D7000E30080688093E30082E0111183E08093A8
:101D800075024FC18058823008F04BC12091790212
:101D900030917A022C3DE3E03E07A1F583E08A838F
:101DA0008AE289834FB7F894DE01139620E03EE083
:101DB00051E2E32FF0E050935700E49120FF03C07D
:101DC000E295EF703F5FEF708E2F90E0EA30C0F049
:101DD000C7968D939D932F5F243159F74FBF809104
:101DE000E800877F8093E8006AE270E0CE01019608
:101DF0000E941B038091E8008B778093E80011C15B
:101E0000C096E7CF80917B0290917C02432F5527AB
:101E10004330510509F44AC078F54130510509F4C1
:101E20007AC08BE590E0E4E1F3E04230510509F03F
:101E3000F8C02091E800277F2093E80020917D02E0
:101E400030917E028217930708F49C0140E021152F
:101E5000310509F065C0411163C08091E80082FD41
:101E6000C9CF80917502882329F2853019F28091BB
:101E7000E80083FFF2CFBECF4132510509F43CC0E8
:101E80004232510509F0CDC08330910508F0C9C038
:101E9000FC01EE0FFF1FEE59FE4F0190F081E02D87
:101EA000815A9E4FDC018C9190E01AC0332721307B
:101EB0003105D1F02115310561F02230310509F0ED
:101EC000B0C0E1E8F3E0E4918E2F90E0E1E8F3E0C8
:101ED00007C0E5ECF3E0E4918E2F90E0E5ECF3E051
:101EE000009709F49EC0A5CFEFE9F3E0E4918E2FAF
:101EF00090E0EFE9F3E0F4CF8330910508F091C072
:101F0000880F991FFC01E859FE4F0190F081E02DE8
:101F100089E090E08ECF82E190E0EFE6F3E089CFB8
:101F200080917502882309F465CF853009F462CF6A
:101F30008091E80083FD5ECF8091E80082FD8DCF27
:101F40008091E80080FF83CF9091F3008091F200B0
:101F50002115310519F08830910550F041E00897BE
:101F600009F040E08091E8008E778093E8006FCF21
:101F700044914093F1003196215031090196E8CF08
:101F8000803809F04EC08091E800877F8093E80098
:101F9000809176028093F1009DCE811142C0109114
:101FA00079021230F0F58091E800877F8093E80095
:101FB000109376020E946F02112311F084E005C095
:101FC0008091E30087FDFACF81E08093750242E0C3
:101FD00061EC81E00E948E0242E261EC84E00E94AA
:101FE0008E0242E261EC82E00E948E0242E260ECEC
:101FF00083E00E948E028091750213C08091790265
:10200000813079F481E0933009F080E080937402AC
:102010001092E9008091E800877F8093E8000E9499
:102020006F028091E80083FF0AC08091E800877FFB
:102030008093E8008091EB0080628093EB00AA9689
:10204000E3E00C94B51E0E94360D2FEF84E39CE074
:10205000215080409040E1F700C0000088E19CE002
:102060000FB6F894A895809360000FBE909360001F
:10207000FFCFA8E0B0E0EFE3F0E10C948C1E8C0100
:10208000DC0113968D919C911497892B39F08C91DA
:1020900011969C9189238F3F09F0E1C42896E0E1D5
:1020A0000C94A81E0E94050AF82E682F89819A8137
:1020B0000E94260769817A818F2D0E94F7097C0191
:1020C000F8018281882309F43BC1C7019757803802
:1020D000910508F0FEC4FFE0FE1508F489C08FEFFB
:1020E00093E00E94D51E811183C066EAA62E62E0AD
:1020F000B62EE11047C0FE01339686E0DF011D9247
:102100008A95E9F75AE0452E7501BFEFEB1AFB0AF5
:10211000C5010E94D51E89831A82882309F468C0EC
:10212000813009F078C06501E2E0CE0ED11CC70114
:102130000E94D51E8A83882309F45AC09FEF980F06
:10214000933070F5F3E0AF0EB11CC6010E94D51EAE
:102150008B83882309F44CC01C82DE0111967D011B
:10216000F7012081222381F2213009F094C091816E
:102170008281913009F051C0F2E0EF0EF11C0E9413
:10218000950B52C0A11424E0B20691F1C5010E9442
:10219000D51E811101C0EA943FEFA31AB30AA9CF5B
:1021A00056018430D1F642E0E42EF12C56012FEF97
:1021B000A21AB20AC6010E94D51EE1E0F0E0EC0FBF
:1021C000FD1FEE0DFF1D8083882391F08C3741F4B5
:1021D000E2E0F0E0EC0FFD1FEE0DFF1D1082BDCF21
:1021E0003FEFE31AF30A650187E0E816F104F1F620
:1021F0008091E701877009F451CFD80112968C9134
:10220000882309F44BCF80914F0282FF47CF82E0B1
:102210000E948C0743CF5701A0CF923049F422E0AF
:10222000E20EF11C0E94200BEFEFEE1AFE0A98CF8F
:10223000933031F432E0E30EF11C0E94EA0AF4CF4D
:10224000943021F08FEFE81AF80AEECF92E0E90E11
:10225000F11C30E020E0B7016F5F7F4FD70111968E
:102260004C918053990B8A30910550F021503109DF
:10227000D8F2EFE9FFE03197F1F700C00000F6CFA8
:10228000429EF001439EF00D11249C012E0F3F1F32
:10229000842F7B01E0CFE22FF0E0EC50FE4F549012
:1022A000822F86958695869590E0FC01EC51FE4F35
:1022B00064902770712C022E02C0759467940A9462
:1022C000E2F731E063227724FC01EC52FE4F849068
:1022D000912C022E02C0959487940A94E2F7A1E013
:1022E0008A229924FC01EC53FE4FC490D12C02C0E9
:1022F000D594C7942A95E2F7B1E0CB22DD2461148E
:10230000710419F081EE0E94200B8114910419F0E0
:1023100086EE0E94200B852D0E94950B811491045E
:1023200019F086EE0E94EA0A6114710419F081EE38
:102330000E94EA0AC114D10409F476CF8CE21FCFBF
:10234000F701E851FC47E730F10508F0B3C3E05D61
:10235000F04E0C947D1E26E241EE61EEC8010E9413
:10236000B30B46CF27E245EE65EEF8CF26E241EE0D
:1023700060EEF4CF27E245EE64EEF0CF26E241EEC8
:1023800062EEECCF27E245EE66EEE8CF28E241E0D0
:10239000EBCF80914E02816080934E0295C0809178
:1023A0004F02886080934F028FC080914E028260FE
:1023B000F3CF80914E028460EFCF80914E0288600F
:1023C000EBCF80914F028160EDCF80914F02826010
:1023D000E9CF80914E028061DFCF80914E02806212
:1023E000DBCF80914E028064D7CF0E94360D809162
:1023F0004E028068D1CF80914E028C60CDCF80910B
:102400004F028360CFCF80914E028E7FC5CF8091E7
:102410004F02877FC7CF80914E028D7FBDCF8091C5
:102420004E028B7FB9CF80914E02877FB5CF8091CE
:102430004F028E7FB7CF80914F028D7FB3CF8091B7
:102440004E028F7EA9CF80914E028F7DA5CF8091C5
:102450004E028F7BA1CF0E94360D80914E028F7766
:102460009BCF80914E02837F97CF80914F028C7FCC
:1024700099CF80914E0282FB992790F921E0922713
:1024800090FB82F990FB83F987CF80914F02982FC0
:10249000909591708E7F892B90FB81F983CF9091DD
:1024A0004E02892F8F7B96FF806476CF0E94360D77
:1024B00090914E02892F97FB87F980586DCF61E08C
:1024C0008EE090E00E94E31E60914E0270914F02F8
:1024D00084E090E00E94011F0E94360D89CE60E0EA
:1024E000EFCF90914E02892F8F7E94FF806154CF61
:1024F00090914E02892F8E7F90FF81604DCF9091F9
:102500004F02892F877F93FF88604CCFF7E7EF1644
:10251000FCE7FF0609F46AC028E7E2162CE7F2069A
:1025200009F471C033E0E3163CE7F30609F48CC00C
:1025300008F06BC0E1149CE7F90609F478C0A1E04B
:10254000EA16ACE7FA0609F485C0F8018281E0805A
:10255000F180882309F48CC0C7010E94050AD82E97
:10256000682FC7010E942607B7018D2D0E94F70929
:102570000E949D057C01882ED8011296AC9012977E
:1025800015969C9092943FE093228091E70187708A
:10259000F1F0CA2CAA20E1F08F2D807F803451F019
:1025A00080E28E0D883098F0911004C08F2D807ECF
:1025B000803269F080914F0282FF09C082E00E9460
:1025C0008C078091E7018770CC24C3948111C12CC2
:1025D000BF2CB2942FE0B222BBE0BB1508F4B7C009
:1025E000EB2DF0E0E95CF04E0C947D1E81E00E9442
:1025F000A80743E062E081E00E945F07F9CD81E037
:102600000E947F07F6CF82E0F2CFBBE5EB16BCE776
:10261000FB0661F1ECE5EE16ECE7FE06E9F0FAE503
:10262000EF16FCE7FF0609F090CF81E01CC00E9486
:10263000360D2FEF34E38CE0215030408040E1F73D
:1026400000C000000E940D096FEF7FEF90E080E076
:102650000E94011F0E94231080914F0282FB882755
:1026600080F991E089270E94100C6FCF80E0FBCFAA
:10267000C7010E94F206D82E77CFEF2DEF70DE2E25
:102680008F2D807F19F0D29490EFD922AA20B9F033
:10269000DD2069F080E28E0D883010F0811009C0D5
:1026A00080910902D82AD09209020E94840A8E2DB4
:1026B0004CC080910802D82AD0920802F6CF8E2D05
:1026C0000E94EA0ADD2009F442C080E28E0D8830C3
:1026D00010F0811004C08D2D0E94C10606C0D09458
:1026E00080910802D822D09208020E94840A2FC04A
:1026F000FF2DFF70DF2E8F2D807F803219F0D29456
:1027000080EFD822882089F021E0821609F46EC07B
:10271000AA2009F478C0992009F46EC0F8018581D7
:1027200080FFC5CF8F70858367C020914F0222FD47
:1027300036C0AA2071F1DD2039F080910902D82A33
:10274000D09209020E94840A80E00E94200BAB2DE7
:10275000A850BB0B149720F40E9440040E948F08DD
:10276000CC2009F49BCC8091E70180FD97CCF80147
:1027700012828595859585950E94A807C8010E94BB
:1027800039108091E7018595859585950E947F0791
:1027900085CC80E00E94EA0ADD20C9F29CCFAA2005
:1027A00099F090910A028D2D892B911003C00E94FF
:1027B000E00ACDCF31E09312FACF22FFC8CF8917BC
:1027C00031F280930A02C3CF911006C00E94BB066B
:1027D0008D2D0E94D90ABBCF81E0981609F4B7CF9E
:1027E0008D2D0E94D90A0E94BB06B1CFAA2031F0DC
:1027F00095E0991508F4ABCF8D2DD9CFA4E0A9159C
:1028000008F4A5CFE5CF992019F3F9E38F1209C099
:102810002FEF37EE83E0215030408040E1F700C0D9
:1028200000008E2D0E94EA0A92CF8F2D8695869504
:10283000837061F0813009F08ACFC7019370A110D5
:1028400002C080E090E00E94F60381CFC701937040
:10285000A11002C080E090E00E941B0478CF6A2D96
:102860008E2D0E94B70773CF8F2D837091F5A11025
:102870006ECF4E2D429546954770440F440F8E2DD6
:102880008F70042E01C0880F0A94EAF72E2D207154
:10289000E4FE07C02FE030E001C0220F4A95EAF7BE
:1028A00020953F2D369536953370323069F050F4CF
:1028B00040911E02313029F0822B84230E94B407FC
:1028C00046CF842B822BFACF282B80911E028227A1
:1028D000F5CF8695AA2011F08F2D8170882309F4F9
:1028E00036CF4E2D429546954770440F440F8E2D9E
:1028F0008F70042E01C0880F0A94EAF72E2D2071E4
:10290000E4FE07C02FE030E001C0220F4A95EAF74D
:1029100020953F2D369536953370323069F050F45E
:1029200040911F02313029F0822B84230E945C07E2
:102930000ECF842B822BFACF282B80911F02822767
:10294000F5CF9F2D9F70F92EAA2029F0892F0E9484
:10295000A8078E2D2CCF8E2D0E94D90A8F2D0E9474
:102960007F07F5CE8E2DA2EF8A16B1F1A81570F073
:10297000B0EF8B16D1F0E1EF8E1691F0AA2009F49A
:102980005EC0911094CE8F2D8F712AC0F3EF8F16F9
:1029900051F124EF8212F2CF80914F0282FD2FC0BD
:1029A0008F2D8F71AA20D9F21BC0AA2081F034E0AC
:1029B000391508F4CCCE2F2D2F7181E090E001C0A5
:1029C000880F2A95EAF790911F028927AFCF85E0FB
:1029D000891508F4BCCEEFCF8F2D8F71A110BFCF1A
:1029E0000E94A807B4CE80E0AA2009F49FCF9F2DB3
:1029F0009F7181E001C0880F9A95EAF797CFAA20CE
:102A000099F09F2D9F71F92E892F0E94A807809120
:102A10004F0282FF07C0A8E0FA9EC0011124836024
:102A20008093E7018F2DDCCF81E00E948C07B1E01D
:102A3000B91508F08CCE82E00E948C0788CE9920D0
:102A400059F0893309F0EDCEEFEFF7EE23E0E150D6
:102A5000F0402040E1F7E3CE8F2D8F7180CF85E0ED
:102A6000F801DE01119601900D928A95E1F7D801E7
:102A700012962C9189819A81211114CB0E94F20621
:102A8000F82E18CBB6E1EB16BCE7FB0609F03ECDFD
:102A9000809109028A7A91E009F490E09093900184
:102AA00069E2811165E380E791E00E94C1030E9421
:102AB000840A9ECBE6E1EE16ECE7FE0651F5809126
:102AC000900169E2811165E380E791E00E9497033C
:102AD000EECFF701E851FC47E730F10508F437CCB9
:102AE00010928102C7019057839760F684E090E0CE
:102AF0000E94DD1E90934F0280934E02F701E15039
:102B0000F047E232F10508F044CCED5BF04E0C9456
:102B10007D1EF7E7EF16FCE7FF0609F470CD82E0B3
:102B200028E7E2162CE7F20609F46ACD0ECD1F93D2
:102B3000CF93DF938091B401807F09F04BC08091E7
:102B4000B101882309F446C08091E601C091B50126
:102B50004091AF015091B0016091B2017091B30109
:102B6000D42FD52316E0C817A9F190E0611571059F
:102B7000A9F1DF3F99F1189FF001199FF00D112481
:102B8000DF01AA54BE4F11962C911197251326C030
:102B90002C91241323C012962C91129721111EC040
:102BA00013962D913C91261B370B283C3105B0F430
:102BB0008091B4018F7080618093B401E554FE4F21
:102BC00080818F70806180838FEA91E00E9439104C
:102BD0000E94E806DF91CF911F91089501968770BA
:102BE000C2CFA1E1B0E0E7EFF5E10C94901E8C01BB
:102BF00085E0F801DE011D9601900D928A95E1F7BE
:102C0000F801E2808FEA882E81E0982E4091B2018F
:102C10005091B3014115510509F430C19091AF01B4
:102C20002091B001892F82238F3F09F427C1D080E2
:102C3000C180A380B480F090B101B501641B750B15
:102C4000FF2009F4E7C08091B401382F307F683C41
:102C5000710508F0ABC0311178C0FE2C2C1114C0E6
:102C60009D1112C0E11010C08F7080618093B4017B
:102C7000C4010E9439108091B401F80185838F2D21
:102C80006196ECE00C94AC1EA114B104C9F18D2D39
:102C90008C218F3FA9F181E08E2580FF05C04E2D4C
:102CA0006C2D8D2D0E94C806A114B10459F18D2DF3
:102CB0008C218F3F39F181E08E25F82FF170BF2EE6
:102CC00080FF39C04E2D6C2D8D2D0E94C806A82E78
:102CD000811131C0DD86CE868D859E850E94340AA5
:102CE000292F22952F70243078F49F702230A8F07D
:102CF0009923B9F0F8019581907F99F4FA2CBFCF10
:102D000080E0CBCF80E0D9CF2A5F2F70223068F0EF
:102D1000C8010E943910AB2CF1CF992311F0882300
:102D200069F3805E883050F3F3CF803F38F3815FE2
:102D3000833070F7E3CFEE2009F4A1CF8091B40186
:102D400081608093B401F12C9ACF2C1105C09D11A4
:102D500003C0EE2009F477C0C8010E94410A88230D
:102D600009F1EE20F9F08091B401803270F02091E9
:102D7000AF013091B00138872F831986BB86AA86B0
:102D80008C87CE0107960E94391086E0F801AFEAE1
:102D9000B1E001900D928A95E1F70E949715FF240A
:102DA000F3946DCFC8010E943910F9CF31110AC0D8
:102DB0008FEA91E00E94391086E0F40111928A9521
:102DC000E9F7C1CF2C110EC09D110CC0E1100AC053
:102DD0008583C8010E94391086E0F40111928A951A
:102DE000E9F74DCFC8010E94410A8823D9F2EE20AD
:102DF000C9F28091B401803240F22091AF0130914C
:102E0000B0013A8329831B82BD82AC828E83CE01BE
:102E10000196B9CF683C7105F8F6FE2CEE2011F250
:102E20002C111EC09D111CC08091B40180FD0FC0EB
:102E3000982F907F61F08583903F31F0982F907F9D
:102E4000905F8F70892B8583C8010E94391086E0BE
:102E5000F801AFEAB1E001900D928A95E1F70FCF4A
:102E6000C8010E94410A811190CF8091B401816014
:102E70008093B401C8010E94391001CFEE2009F4FB
:102E800091CFC8010E94410AF82E882309F48ACF05
:102E900086E0F801AFEAB1E001900D928A95E1F782
:102EA0008091AF019091B0010E94340A0E94971561
:102EB000E6CEA7E1B0E0EFE5F7E10C94991E4B8B6D
:102EC0005C8B6D8B7E8B8F8B6111109208021A8A3E
:102ED000198A85E0FE017396DE011D9601900D9220
:102EE0008A95E1F786E0FE013D96DE011796019096
:102EF0000D928A95E1F7CE0107960E94F11588237D
:102F000059F016E08091E6019091B501891343C014
:102F10006796E3E00C94B51E86E0FE013796DE016D
:102F2000119601900D928A95E1F78A859B85892BF0
:102F300041F38F81988589238F3F19F32091B50143
:102F400030E0C9010196877099274091E601481742
:102F5000190671F40E94360D1092B5011092E60127
:102F600086E0EFEAF1E0DF011D928A95E9F7C9CF2B
:102F700096E0929FD001939FB00D1124AA54BE4FAA
:102F8000FE01319601900D929A95E1F78093B5017B
:102F90000E94E806B6CF819FC00111248A549E4F3B
:102FA0000E94F115882309F4B3CF8091E60190E0E7
:102FB0000196877099278093E601A4CFA5E0B0E041
:102FC000E4EEF7E10C94981E0E948B038C01809133
:102FD0000B0290910C0280179107A1F08FEF89836B
:102FE0008A831B820E948B038160782F9D838C8350
:102FF00049815A816B818D810E94591710930C026F
:1030000000930B022596E4E00C94B41E1F920F92DD
:103010000FB60F9211242F933F934F935F936F93AB
:103020007F938F939F93AF93BF93CF93DF93EF9350
:10303000FF93D091E900DF708091EC00C82FC17040
:1030400080FDC0E81092E9008091F000877F8093B6
:10305000F00078940E94650D1092E9008091F000D4
:1030600088608093F000CD2BCF70C093E900FF9172
:10307000EF91DF91CF91BF91AF919F918F917F9110
:103080006F915F914F913F912F910F900FBE0F90D5
:103090001F9018951F920F920FB60F9211242F9325
:1030A0003F934F935F936F937F938F939F93AF93D0
:1030B000BF93EF93FF938091E10082FF09C080915D
:1030C000E20082FF05C08091E1008B7F8093E100E8
:1030D0008091DA0080FF24C08091D80080FF20C05A
:1030E0008091DA008E7F8093DA008091D90080FF92
:1030F0009DC080E189BD82E189BD09B400FEFDCF9C
:1031000081E08093750280915002811109C00E9474
:103110001F020E94C0028091E20084608093E2005E
:103120008091E10080FF17C08091E20080FF13C012
:103130008091E2008E7F8093E2008091E2008061C6
:103140008093E2008091D80080628093D80019BCFF
:1031500085E0809375028091E10084FF2BC080910F
:10316000E20084FF27C080E189BD82E189BD89B585
:10317000982F917080FFFBCF8091D8008F7D809336
:10318000D8008091E1008F7E8093E1008091E20081
:103190008F7E8093E2008091E20081608093E20064
:1031A00080917602882309F447C084E080937502F9
:1031B000809175028091E10083FF27C08091E20039
:1031C00083FF23C08091E100877F8093E10082E04C
:1031D00080937502109276028091E1008E7F809339
:1031E000E1008091E2008E7F8093E2008091E20016
:1031F00080618093E20042E060E080E00E948E0205
:103200008091F00088608093F000FF91EF91BF9172
:10321000AF919F918F917F916F915F914F913F916E
:103220002F910F900FBE0F901F90189519BC109200
:1032300075021092500274CF8091E30087FD93E0F5
:1032400090937502B5CF78941F921FB61F921124E8
:103250008F939F93AF93BF9380914A0290914B02BB
:10326000A0914C02B0914D020196A11DB11D809319
:103270004A0290934B02A0934C02B0934D02BF912F
:10328000AF919F918F911F901FBE1F9018951F9215
:103290001FB61F9211248F939F93AF93BF9380917A
:1032A0004902811113C080914A0290914B02A09172
:1032B0004C02B0914D024196A11DB11D80934A026E
:1032C00090934B02A0934C02B0934D02BF91AF91EB
:1032D0009F918F911F901FBE1F901895CDB7DEB79D
:1032E000A5970FB6F894DEBF0FBECDBF85B7806837
:1032F00085BF85B7806885BF84B7877F84BF0FB6D9
:10330000F894A89580916000886180936000109285
:1033100060000FBE80E890E00FB6F89480936100E3
:10332000909361000FBE86EB94E090936F018093C1
:103330006E010E941F020E94C0028091E200846020
:103340008093E2007894809175028823A1F0109117
:10335000E9001F709091EC00892F817090FD80E84A
:10336000182B1092E9008091E80083FD0E94650D02
:103370001F701093E90082E084BD93E095BD9AEF41
:1033800097BD80936E000E946B0A811102C00E945B
:10339000B80980910A0190910B01A0910C01B091A4
:1033A0000D018093100290931102A0931202B0932A
:1033B00013025B98539A80E40E940A1EACE4B1E0C9
:1033C00041E050E08D91E82FE295EF70F0E021A10F
:1033D0008F70BA0102C0660F771F8A95E2F7CB01A2
:1033E000922F982B91A392A18095892382A371E0BB
:1033F000AC35B70739F7ACE5B1E02FE531E061E076
:1034000070E08D91E82FE295EF70F0E091A18F7060
:10341000AB0101C0440F8A95EAF7892F842B81A361
:103420002A173B0771F753985B9810921502109278
:10343000140210922D0210922C0210921702109278
:10344000160210922F0210922E0210921902109260
:103450001802109231021092300210921B02109248
:103460001A02109233021092320210921D02109230
:103470001C02109235021092340290E080E00E940B
:10348000DD1E873E9E4F21F40E946B0A811161C0B0
:1034900067EE7EEF90E080E00E94011F60E082E036
:1034A00090E00E94E31E60E083E090E00E94E31E53
:1034B00010921E0260E074E184E090E00E94011F1F
:1034C00060E086E090E00E94E31E6FEF87E090E00E
:1034D0000E94E31E40E050E0BA0188E090E00E94C4
:1034E000F51E60E08DE090E00E94E31E40E050E0B9
:1034F000BA0188E190E00E94F51E60E087E190E06B
:103500000E94E31E40E050E0BA018CE190E00E948E
:10351000F51E70E060E080E290E00E94011F40E054
:1035200050E0BA0188E190E00E94F51E80E00E9420
:103530009F090E94B80940E050E0BA018FE090E096
:103540000E94F51E40E050E0BA0183E190E00E9445
:10355000F51E82E090E00E94D51E8093200284E058
:1035600090E00E94DD1E90934F0280934E020E94D5
:10357000270CFFEF26E741E0F15020404040E1F703
:1035800000C000000E94270C80912C0280FF08C020
:103590006FEF7FEF90E080E00E94011F0E940D0915
:1035A00083E090E00E94D51E0E94B407249A2C98D4
:1035B000579A5F98569A5E9880E091E09093460201
:1035C00080934502E8E14E2E512CF6E36F2EF2E097
:1035D0007F2E8091750212E1853009F498C00E9417
:1035E000270C61E2A62E62E0B62E7CE2872E72E006
:1035F000972ED401F501219131918D919D9172E029
:10360000EB32F70709F48FC028173907A1F3312CE3
:10361000F401019111914F01F501C190D1905F0129
:10362000C016D10659F1C026D126212CEE24E394F0
:10363000F12CC6018E219F21892BB1F029A23AA23B
:1036400021E0C8018E219F21892B09F420E02BA3C2
:103650000E948B038160782F9DA38CA349A15AA15E
:103660006BA18DA10E9459172394EE0CFF1CF0E171
:103670002F12DFCFF501329711830083339425E0B9
:103680003212C6CF8FB7F89440914A0250914B0244
:1036900060914C0270914D028FBF4BC080917502BA
:1036A000843029F180E00E948F081092490260E482
:1036B0000FB6F894A895409260000FBE609360002A
:1036C00083B7817F846083BF83B7816083BF789431
:1036D000889583B78E7F83BF0FB6F894A8958091A5
:1036E0006000886180936000109260000FBE80913E
:1036F0007402882361F00E94270CECE2F2E08191D1
:103700009191892B09F05CC26E167F06C1F78091FA
:103710007502853009F4C2CF0E94360D0E94400424
:103720000E948F085CCF2817390709F070CF0E94DC
:10373000DE1786E0EDE3F2E0DE01119601900D92D6
:103740008A95E1F710923F021092400210924102D6
:10375000109242021B810C81812F802B09F448C0FA
:1037600080913B0290913C020E947C039C019091CD
:103770003602992309F449C225313105C8F19F3F2A
:1037800019F09F5F90933602112359F00E9496041E
:103790009FEF11160CF491E0899F802D11248093E6
:1037A0003F02002359F00E9496049FEF10160CF47C
:1037B00091E0899F802D11248093400230913F0237
:1037C0003323B1F020914002222391F045EB3403E2
:1037D000C0011124992309F4B8C090933F0265EB0E
:1037E000260390011124332309F4B3C0309340021F
:1037F0001D810E81812F802B09F448C080913902F0
:1038000090913A020E947C039C0190913702992387
:1038100009F4F6C121353105C8F19F3F19F09F5FCA
:1038200090933702112359F00E9474049FEF1116F0
:103830000CF491E0899F802D112480934102002394
:1038400059F00E9474049FEF10160CF491E0899FC8
:10385000802D112480934202309141023323B1F034
:1038600020914202222391F075EB3703C00111240D
:10387000992309F472C09093410245EB240390010F
:103880001124332309F46DC03093420246E050E026
:10389000BE016F5F7F4F8DE392E00E94171F892B5F
:1038A00061F480913F0290914002892B90914102F6
:1038B000892B90914202892B11F00E944D0486E0E1
:1038C000FE013196ADE3B2E001900D928A95E1F7E9
:1038D0000E94400490912B02891779F080932B026B
:1038E0009FB7F89440914A0250914B0260914C026C
:1038F00070914D029FBF0E948F08809175028430A5
:1039000009F067CE83E08093E9008091E80082FFB0
:1039100060CE8091E80090E085FF05C00E943E02E5
:10392000882319F191E08091E8008B778093E8007B
:10393000992309F44ECEE981E150E33108F03DC00E
:10394000F0E0EB59F04E0C947D1E81E080933F0235
:1039500046CF81E0809340024BCF81E080934102CB
:103960008CCF81E08093420291CF00E210E0BE0153
:103970006F5F7F4F7B018091E80085FD0AC08091D9
:10398000E8008B778093E8000E943E02882399F339
:10399000C9CF8091F100F70181937F010150110996
:1039A00051F7C0CF1A828CE08B8324C08A81823089
:1039B00009F41DC128F4813061F08FEF89831AC0AA
:1039C000833009F18430C9F71B821C821D821E825C
:1039D00011C02FB7F89460914A0270914B02809108
:1039E0004C0290914D022FBF0E94831E6B837C83FB
:1039F0008D839E8340E250E0BE016F5F7F4F82E087
:103A00000E94A008E6CD2B81822F90E0FE01319626
:103A1000225F8530910570F7DC01AA0FBB1FA45D02
:103A2000BD4F3C9111964C9143833483019632965D
:103A30002813EFCFDFCF8A81823019F08530D1F2A1
:103A4000BCCF6B817C818D819E810E94831E85E22B
:103A500090E00E94E31ECECF4C816B818A810E9450
:103A6000C8099827892798279E838D83C3CF2D81E6
:103A70003E813227232732274C816B818A810E9425
:103A80004109B8CF0E946709B5CFF0E1FA83B2CF00
:103A900081E08A838AE588CF0A811B81102701276C
:103AA0001027BE016F5F7F4F6B01EC80CB018E0D45
:103AB000911D7C01C8018A559D4FEC14FD0409F449
:103AC00099CF0A35E1E01E0750F40E94D51EF60199
:103AD00084830F5F1F4FFFEFCF1ADF0AEBCFF60192
:103AE0001482F7CF0A811B81102701271027BE01FE
:103AF0006F5F7F4F6B01EC80E00EF12EF11CC8016F
:103B00008A559D4F0E151F0509F474CF0A3571E0D3
:103B1000170720F4F60164810E94E31EFFEFCF1A1D
:103B2000DF0A0F5F1F4FEBCF0E94310963CF84E0A4
:103B30008A8360CF0A811B81102701271027BE01CD
:103B40006F5F7F4F6B01EC80CB018E0D911D7C016F
:103B5000C8018696EC14FD0409F44CCF0038E2E06D
:103B60001E0750F40E94D51EF60184830F5F1F4F7D
:103B7000FFEFCF1ADF0AECCFF6011482F7CF0A81EC
:103B80001B81102701271027BE016F5F7F4F6B013C
:103B9000EC80E00EF12EF11CC8018696E016F106CD
:103BA00009F428CF003872E0170720F4F601648189
:103BB0000E94E31EFFEFCF1ADF0A0F5F1F4FECCF0B
:103BC00020E129BD19BD09B400FEFDCF8091D800C8
:103BD0008F7D8093D8008091E00082608093E00028
:103BE0008091E00081FDFCCF0E94360D90CD85E2F2
:103BF00090E00E94D51E1B821C821D828E83FACE0D
:103C00002B30310508F00BCE41CE2B30310508F0BA
:103C1000B8CDEECD807C809309010895873901F1FC
:103C200078F48633F9F030F48433F1F08533F1F031
:103C30008FE108958439E1F08639D1F781E2089562
:103C4000843FC1F030F4803FB9F0813F89F781E0D3
:103C50000895863F99F0A0F0873F51F787E00895D7
:103C600082E2089585E2089583E2089584E208954A
:103C700080E2089584E0089580E0089586E0089544
:103C800085E0089596E890937A00982F9072906856
:103C900090937B008F7190910901892B80937C0018
:103CA00080917A00806480937A0080917A0086FD0A
:103CB000FCCF809178002091790090917A009F77D5
:103CC00090937A00922F08950E940E1E0E94421E29
:103CD000089597FB072E16F4009407D077FD09D0BE
:103CE0000E94C11E07FC05D03EF4909581959F4F20
:103CF0000895709561957F4F0895EE0FFF1F059011
:103D0000F491E02D0994692796276927782787275A
:103D1000782708952F923F924F925F926F927F92F1
:103D20008F929F92AF92BF92CF92DF92EF92FF92CB
:103D30000F931F93CF93DF93CDB7DEB7CA1BDB0B77
:103D40000FB6F894DEBF0FBECDBF09942A8839881C
:103D500048885F846E847D848C849B84AA84B98423
:103D6000C884DF80EE80FD800C811B81AA81B9812F
:103D7000CE0FD11D0FB6F894DEBF0FBECDBFED0143
:103D80000895AA1BBB1B51E107C0AA1FBB1FA617A2
:103D9000B70710F0A61BB70B881F991F5A95A9F7F4
:103DA00080959095BC01CD010895F999FECF92BD03
:103DB00081BDF89A992780B50895A8E1B0E042E066
:103DC00050E00C94091F262FF999FECF92BD81BDBA
:103DD000F89A019700B4021639F01FBA20BD0FB649
:103DE000F894FA9AF99A0FBE08950396272F0E9425
:103DF000E41E0E94E31E252F0E94E41E242F0C9433
:103E0000E41E0196272F0E94E41E0C94E31EDC01A1
:103E1000CB01FC01F999FECF06C0F2BDE1BDF89AD5
:103E2000319600B40D9241505040B8F70895FB010F
:103E3000DC0104C08D910190801921F44150504063
:103E4000C8F7881B990B0895F894FFCF460E6E0EA5
:103E500011106E0E1110A10EC20E1110C00FCD0F59
:103E6000B611BA11AB11B211BE11C211C6113D1378
:103E70003D137813781315142F14A713A7133414B4
:103E8000A114B214B214031278120B12D511D91165
:103E90000F12DD1113121F12E9117112ED1123120D
:103EA000F11127124F12F5112B125612FB1131127C
:103EB0003912E1111712E5111B12FF1135124512CB
:103EC0005F126F12CF1107127F12D21CD61C1B1D5E
:103ED0002C1D371D421DDD1CDD1CDD1CDD1CDD1C09
:103EE000451D481D4C1D721D941D971D9A1DBF1D1B
:103EF0007903E908E208DB080140370041008182CC
:103F000083E200E900EA00B500B600B700CD008307
:103F100001CC008A0192019401210223022402258E
:103F200002260227022A02B300B4006F0070009F2D
:103F300001CB019F02A0020100030402353666672F
:103F4000F7F6F5F437F1F0C6303132339091924004
:0E3F500022B684016201AC0026033F035F032A
:00000001FF
