:100000000C9435020C946D020C946D020C946D02EC
:100010000C946D020C946D020C946D020C946D02A4
:100020000C946D020C946D020C94AB180C94671830
:100030000C94A8190C946D020C946D020C946D0232
:100040000C946D020C946D020C946D020C946D0274
:100050000C946D020C9484190C946D020C946D0236
:100060000C946D020C946D020C946D020C946D0254
:100070000C946D020C946D020C946D020C946D0244
:100080000C946D020C946D020C946D020C946D0234
:100090000C946D020C946D020C946D020C946D0224
:1000A0000C946D020C946D020C946D020501090212
:1000B000A10185020901A1000509190129081500FE
:1000C0002501950875018102050109300931158165
:1000D000257F95027508810609381581257F9501D0
:1000E00075088106050C0A38021581257F95017572
:1000F000088106C0C005010980A101850319012AF4
:10010000B700150126B700950175108100C0050CD8
:100110000901A101850419012AA002150126A002E6
:10012000950175108100C005010906A1018506052C
:100130000719E029E71500250195087501810205D9
:1001400007190029EF1500250195F07501810205B9
:10015000081901290595057501910295017503910D
:1001600001C00660FF0961A1010962150026FF00B8
:100170009520750881020963150026FF00952075FA
:10018000089102C005010906A101050719E029E748
:1001900015002501950875018102950175088101F9
:1001A0000507190029FF150026FF0095067508812F
:1001B000000508190129059505750191029501753C
:1001C000039101C0000000000000000000000000DA
:1001D000000000000000000000000000000000001F
:1001E00000000000000000007E0F00D4FFFFFFC7EA
:1001F0000000007800000000000000002A2B28000A
:1002000000000000000000000000000000000029C5
:10021000000000002C1E3420212224342627252E05
:10022000362D3738271E1F2021222324252633333D
:10023000362E37381F0405060708090A0B0C0D0E69
:100240000F101112131415161718191A1B1C1D2F35
:100250003130232D350405060708090A0B0C0D0E55
:100260000F101112131415161718191A1B1C1D2F15
:100270003130354C4C0029001E001F0020002100A9
:100280002200230024002500260027002D002E0038
:10029000310035024B002B0014001A000800150035
:1002A000170000001C0018000C00120013002F00A3
:1002B00030002A004E003900040016000700090033
:1002C0000A0000000B000D000E000F003300340088
:1002D000000028000000E1001D001B0006001900BE
:1002E000050000000500110010003600370038003E
:1002F000E50021520000E000E20000002C000000B8
:100300002152000000002C000000E6000000000068
:100310000000E400010001000100010001000100F3
:1003200001000100010001000100010001000100C5
:100330000100010001000100010001005200010064
:1003400001000000010001000100010001000100A6
:1003500001000100010001000100500051004F00A8
:100360000100000001000100010001000100010086
:100370000000010000000100010001000100010077
:100380000100000001000100010001000100010066
:100390000100010000000100010000000100000058
:1003A000010000000000010000000100000000004A
:1003B0000000010009025B00030100A0FA0904002B
:1003C0000001030101000921110100012240000781
:1003D000058103080001090401000203000000096F
:1003E00021110100012222000705820320000107DC
:1003F00005030320000109040200010300000009B5
:10040000211101000122B60007058403200001121A
:100410000100020000000844566F44600101020020
:10042000011C034F00530041007600320020002DD4
:1004300000200054006F007000720065000000246E
:1004400003560069006B00740075007300200044BF
:100450000065007300690067006E0020004C004CCE
:100460000043000000040309040011241FBECFEF65
:10047000DAE0DEBFCDBF04B603FE18C080918C0267
:1004800090918D02A0918E02B0918F028730904B97
:10049000A740B04B59F410928C0210928D0210922A
:1004A0008E0210928F02E0E0F8E3099511E0A0E0DF
:1004B000B1E0ECEDFFE302C005900D92AE36B1075E
:1004C000D9F722E0AEE6B1E001C01D92AC38B20728
:1004D000E1F70E94CF190C949A1F0C940000482F4A
:1004E0002091880290914F0257E0291302C080E0CA
:1004F000089530E0529FF001539FF00D1124E05B0E
:10050000FD4F8181681306C08081481303C0858137
:100510008111EECF2F5F3F4F2770E7CFE8EDF0E07E
:1005200080818E7F80831092E2001092DA00109218
:10053000E100A0EEB0E08C9181608C9380818F7798
:10054000808319BCA7EDB0E08C918E7F8C93808165
:100550008F7E80831092200208952091E4003091D4
:10056000E50095E6A9012091EC00822F817020FF23
:1005700006C08091E80080FF06C080E008952091C9
:10058000E80022FD1AC080914502882389F0853059
:1005900089F08091EB0085FD0FC02091E40030913F
:1005A000E50042175307F9F29150E1F684E008950F
:1005B00082E0089583E0089581E0089580914702E4
:1005C00087FF13C08091E80082FF06C08091E80099
:1005D0008B778093E80004C0809145028111F2CFAF
:1005E0000895809145028823D9F38091E80080FF27
:1005F000F8CF8091E8008E77ECCF982F9093E900A8
:10060000242F762F50E0891731F07091EC00209163
:10061000ED005091F00021FD07C09F5F973071F70A
:100620008093E90081E008953091EB003E7F3093A4
:10063000EB003091ED003D7F3093ED003091EB0009
:1006400031603093EB007093EC002093ED005093F9
:10065000F0002091EE0027FDE0CF80E00895B0E0AB
:10066000A0E0E5E3F3E00C94FA1EC8EDD0E0888149
:100670008F7E8883E7EDF0E080818160808384E075
:1006800082BF81E08093200288818E7F888302EE82
:1006900010E0F80110821092DA0081EEC82ED12C01
:1006A000F601108288818F778883888180688883AB
:1006B00088818F7D888319BC109245021092460272
:1006C000109244021092430290EEE92EF12CF701B1
:1006D00080818B7F808388818160888342E060E0B5
:1006E00080E00E94FD02F60180818E7F8083F80108
:1006F000808181608083808188608083F701808130
:100700008E7F8083888180618883CDB7DEB7E8E003
:100710000C94161FFC0180914D0290914E02861799
:100720009707A0F06115710529F49091E8009E7774
:100730009093E80090E06115710551F4911108C0A3
:100740008091E80082FF34C080E00895BC01F2CFC0
:10075000809145028823C1F18530C1F18091E80084
:1007600083FD30C08091E80082FDEACF8091E800EF
:1007700080FFE1CF8091F3002091F200382F6115C6
:10078000710519F02830310558F091E02830310515
:1007900009F090E02091E8002E772093E800CBCF7D
:1007A00081918093F100615071092F5F3F4FE7CF36
:1007B00080914502882341F0853041F08091E80026
:1007C00083FFBECF81E0089582E0089583E008951D
:1007D0008091220208959C014FB7F89480911A02EB
:1007E00090911B02A0911C02B0911D024FBF821B71
:1007F000930B08952FB7F89480911A0290911B02E1
:10080000A0911C02B0911D022FBF089520910801F4
:100810002223C9F020911E0227FF15C0E62FE6957E
:10082000E695E695EE31D8F4E80FF92FF11D6770E3
:1008300021E030E001C0220F6A95EAF7209582811D
:10084000282322830895FC01329608962191621391
:1008500003C0DF0111971C92E817F907B9F7089553
:10086000209108012223C1F020911E0227FF14C00D
:10087000E62FE695E695E695EE31F8F4E80FF92FC8
:10088000F11D677021E030E001C0220F6A95EAF7A0
:100890008281822B82830895FC0132962FEF30E013
:1008A0004191641751F02F3F19F4411101C0232FDA
:1008B0003F5F3630A9F72F3F09F40895820F911D4D
:1008C00027FD9A95FC0162830895A3E0B0E0EBE672
:1008D000F4E00C94001F20911702309118022817A1
:1008E0003907A1F09093180280931702E091150246
:1008F000F0911602309751F024E029839B838A837C
:100900000680F781E02DCE01019609952396E2E05D
:100910000C941C1FA3E0B0E0E0E9F4E00C94001F8D
:10092000209113023091140228173907A1F09093F7
:10093000140280931302E0911502F0911602309791
:1009400051F023E029839B838A830680F781E02D81
:10095000CE01019609952396E2E00C941C1FE091CC
:100960001502F0911602309729F00190F081E02DE8
:100970000995089580E008950E94FA039C019091E2
:100980000F0280911002982B21F030930C022093DB
:100990000B029091110280911202982B21F030935A
:1009A0000A0220930902E0911502F0911602309795
:1009B00049F082E080930D020480F581E02D8DE006
:1009C00092E0099508958091080280FD16C081FD8E
:1009D00016C082FD16C0809107028823A1F08832DC
:1009E00080F428E0829FC001112468E270E00E9438
:1009F000CF1E862F672B39F0089582E0089584E09A
:100A0000089588E0089581E008958091080280FDAE
:100A100014C081FD14C082FD16C080910602882397
:100A200081F08E3180F420E5829FC00111246EE1B7
:100A300070E00E94CF1E862F089584E1089588E219
:100A4000089588E0089580E5089580E008959091E4
:100A50001E0292FF06C0282F28712830F9F4877FE4
:100A6000846093FF06C0282F28712831F1F4877E17
:100A7000846120911F0220FF06C0382F3871383062
:100A8000D9F4877F816021FF06C0282F2871283183
:100A9000D1F4877E816194FD877E0895282F24718B
:100AA0002430F9F68B7F8860DCCF282F2471243125
:100AB00001F78B7E8861DDCF382F3171313019F726
:100AC0008E7F8860E0CF282F2171213121F78E7E23
:100AD0008861E1CF82389105B9F1B0F48133910595
:100AE00009F47DC048F48932910509F46DC08A3259
:100AF000910509F47BC008958533910509F45FC021
:100B00008933910509F10895833E9105D9F138F4AF
:100B1000803E910529F1823E910579F10895863E46
:100B20009105D9F1873E910509F43EC0843E9105B7
:100B300041F520911F0221FF24C080911E0284FDF7
:100B400019C087EE90E0089520911E02237009F0ED
:100B50005AC020911F0223FF14C089E290E008953B
:100B600020911E0220FD38C030911F0230FF09C0C5
:100B700024FF43C090E080E0089520911E0222FDF2
:100B8000F7CF089520911E0222FD3AC030911F0236
:100B900030FD39C024FFF5CFEDCF20911E0223FF99
:100BA000F0CF24FDE7CFCDCF20911E0223FD2EC034
:100BB00030911F0231FFEECF84EE90E00895209136
:100BC0001E0225FFDECFC9CF20911E0225FD21C0C8
:100BD00020911F0223FFD5CF89E390E0D2CF20914F
:100BE0001E0226FFCECF8AE290E0089520911E02D9
:100BF00026FFC7CF81E390E0089583EE90E008954B
:100C000082EE90E0089580EE90E0089586EE90E008
:100C1000089585E390E008951F93CF93DF930E949A
:100C20006A05EC01C11580E5D807F0F5C11580E42F
:100C3000D80708F09CC0C03ED10520F5CD3CD105B9
:100C400008F082C0C83AD10578F4C53AD10508F059
:100C500073C0C130D10519F1209709F1C430D10515
:100C6000F0F4D0E0C0E01BC0C33CD105D0F7C85AB7
:100C7000D0E0CC0FDD1FCF5EDE4F0990D881C02DB4
:100C8000D4640DC0C11580E2D80708F0D1C0C115E9
:100C900081E0D80708F05AC0C83ED10510F7CE0150
:100CA000DF91CF911F910895C03682E5D80718F5DE
:100CB000C03482E5D80708F06BC0C03282E5D8079F
:100CC00008F05FC0C11582E5D80708F497C02C2F43
:100CD0002695269580E2289F900111248C2F837001
:100CE000C1E0D0E002C0CC0FDD1F8A95E2F7C22B35
:100CF000D32BDD68D4CFC03A82E5D80760F4C03882
:100D000082E5D80708F459C0CF71D0E0DC2FCC279A
:100D1000C46FD06AC4CFC03C82E5D80708F462C073
:100D2000C03E82E5D80708F09CCFDC2FCC27CC272B
:100D3000DF71C06FD06AB3CFC55AD0E0C25FDE4F5B
:100D4000C881D0E0D064ABCFD065A9CF8D2F0E94F1
:100D50002705182FCE0199270E946A05C12FD0E0E0
:100D6000DC2FCC27CC27DF71C82BD92B98CFCE0115
:100D700099270E946A05CC27DF70C82BD92BD06A2F
:100D80008ECFCF71D0E0DC2FCC27C16FD06A87CF58
:100D90002C2F26952695277080E2289F90011124FC
:100DA0008C2F8370C1E0D0E002C0CC0FDD1F8A958C
:100DB000E2F7C22BD32BDC6872CF2C2F2695269519
:100DC000277080E2289F900111248C2F8370C1E04E
:100DD000D0E002C0CC0FDD1F8A95E2F7C22BD32BE7
:100DE000DA685DCF8C2F8F710E942705C82FD0E065
:100DF000DC2FCC27CC27DF71D06251CF8C2F8F71A5
:100E00000E94270555E0D695C7955A95E1F7CF7012
:100E1000D0E0DC2FCC27282F30E084FF05C044E051
:100E2000220F331F4A95E1F7C22BD32BD06937CF5E
:100E30008D2F8F710E942705182FCE0199270E94B0
:100E40006A05C12FD0E0DC2FCC27CC27DF71C82B5F
:100E5000D92BD2CF80959091DA0198239093DA0123
:100E600008958091880290914F02981301C00895CF
:100E70008F5F8770FACF953080F5803170F540E153
:100E8000949F90011124820F932F911D682F6770FA
:100E900023E0969587952A95E1F7FC01EE0FFF1F59
:100EA000E80FF91FEE56FE4F50E040E080E0219140
:100EB00030E0062E02C0369527950A94E2F721709D
:100EC0003327042E01C0220F0A94EAF7822B4F5FCA
:100ED0005F4F4330510559F7089580E008959530EC
:100EE00098F5803188F540E1949F90011124820F9C
:100EF000932F911D282F277041E001C0440F2A95A0
:100F0000EAF723E0969587952A95E1F7FC01EE0F25
:100F1000FF1FE80FF91FEE56FE4F90E080E070E0F3
:100F20005191DF0111979B01082E02C0369527953C
:100F30000A94E2F7217021952527242325272C9355
:100F400001968330910561F708958093EF0108952C
:100F50009091EF0121E030E0F90101C0EE0F8A9598
:100F6000EAF7D90102C0AA0FBB1F6A95E2F7EA2B84
:100F700001C0220F4A95EAF7892F8E23E81305C096
:100F8000292B822F0E94A507089520952923F9CFA8
:100F900021E030E001C0220F8A95EAF72095809188
:100FA000EF0182230E94A50708959091B7018095D3
:100FB00089238093B701282F277069F4891759F086
:100FC00090911F0292FF07C08695869586950E9494
:100FD000C8071092B701089521E030E001C0220F48
:100FE0008A95EAF78091EF01822B0E94A507089568
:100FF0008093EE010895662309F45DC08D3C41F4B1
:101000000E9405058195809310020E94BC040895FA
:101010008E3C19F40E940505F6CF8F3C31F40E94F6
:101020000505819580930F02F0CF803D19F40E9451
:101030000505F8CF893D29F40E94E304809311024D
:10104000E4CF8A3D21F40E94E3048195F7CF8B3DE4
:1010500031F40E94E304819580931202D6CF8C3D37
:1010600019F40E94E304F8CF9FE2980F983070F4CF
:10107000815D990B21E030E001C0220F8A95EAF7EB
:1010800080910E02822B80930E02BFCF8D3D31F4F2
:1010900080910802816080930802B7CF8E3D21F4D1
:1010A000809108028260F7CF8F3D09F0AECF80912A
:1010B00008028460F0CF40910F028D3C59F480917A
:1010C000100287FF0DC01092100241110BC0109248
:1010D000060208C08E3C81F48091100218169CF321
:1010E000442381F08091110290911202892B09F022
:1010F0008CCF1092070289CF8F3C49F447FFF0CF85
:1011000010920F02809110028111ECCFE0CF803D50
:1011100019F41416ACF3E4CF90911102893D29F42F
:101120001916F4F610921102DBCF8A3D19F497FFDD
:10113000D7CFF8CF909112028B3D29F497FFD0CFF3
:1011400010921202CDCF8C3D19F41916CCF3C8CFF2
:101150009FE2980F983090F4815D990B21E030E088
:10116000B90102C0660F771F8A95E2F7CB0180951F
:1011700090910E02892380930E02B2CF8D3D31F4FF
:10118000809108028E7F80930802AACF8E3D21F4C1
:10119000809108028D7FF7CF8F3D09F0A1CF80911C
:1011A00008028B7FF0CF80FF09C02C9A81FF08C016
:1011B0005F9A82FF07C05E9A81E008952C98F6CF6F
:1011C0005F98F7CF5E98F8CF0F931F93CF93DF937D
:1011D0008B01EA0190914502943061F58093E9001A
:1011E0008FEF9091E800815095FD06C095ED9A959E
:1011F000F1F700008111F5CF8091E80085FF1AC05A
:101200000E94AD02811111C08091E80085FD06C0E9
:101210008091E8008E778093E800F2CFF801819109
:101220008F018093F100219779F78091E8008E7704
:101230008093E800DF91CF911F910F91089543E0D3
:1012400050E0BC0184E00E94E408089546E050E0CC
:10125000BC0184E00E94E4080895CF93DF93EC0181
:1012600080910801811111C048E050E0BE0181E089
:101270000E94E40880E2FE01A3E2B2E001900D9238
:101280008A95E1F7DF91CF91089580911E0287FF43
:1012900005C040E284E050E0BE01EACF48E081E0D2
:1012A000FACF81E08093E00080E28093D800109232
:1012B000C9008FE19EE40197F1F700C0000087E0CC
:1012C00090EBDC0180938C0290938D02A0938E02B0
:1012D000B0938F0288E19CE00FB6F894A8958093B4
:1012E00060000FBE90936000FFCFCF93DF93C9EAF9
:1012F000D2E060E0CE010E94591F2196C11584E022
:10130000D807B9F7DF91CF9108951F93CF93DF935B
:10131000122F8430E0F46530D0F44031C0F490E214
:10132000699FE001112450E0440F551FC40FD51FE1
:1013300090EA899FC00DD11D1124632FCE0189969B
:101340000E94591F612FCE018A960E94591FDF917A
:10135000CF911F910895B0E0A0E0E1EBF9E00C948B
:10136000F81E84E7C82E82E0D82ED0E0C0E07601D7
:1013700010E019C021E030E0C230D1051CF4F501C5
:1013800025913491402F612F8C2F0E94850982E096
:10139000A80EB11C0F5F003169F71F5F80E2E80EF5
:1013A000F11C153019F0570100E0E4CF219680EAD6
:1013B000C80ED11CC430D105D1F6CDB7DEB7EAE0F6
:1013C0000C94141FCF93C82F6FEF811163E285E255
:1013D00090E00E94591F6FEFC11166E086E290E035
:1013E0000E94591F6FEFC11161E187E290E00E94F6
:1013F000591FCF91089580E00E94E20960E088E2E1
:1014000090E00E94591F0E94AB090E94750981E07B
:101410000E94E20908950F931F93CF93DF938430C6
:1014200030F5653020F5403110F520E2629F8001F3
:10143000112450E0440F551F040F151F30EA839FFD
:10144000000D111D1124C80189960E943B1FC82F51
:10145000D0E0DC2FCC27C8018A960E943B1F9E015A
:10146000282BC901DF91CF911F910F91089590E032
:1014700080E0F8CF462F753040F4603130F484308E
:1014800020F4672F0E940B0A089590E080E00895F1
:10149000CF92DF92FF920F931F93CF93DF936C0154
:1014A0000091EF018091EE01082BC3E0D0E010E045
:1014B000FC2EC8010C2E02C0959587950A94E2F780
:1014C00080FD0CC02197A0F7F12C8F2DDF91CF91DB
:1014D0001F910F91FF90DF90CF900895B6018C2F50
:1014E0000E943A0A0E940C06019761F3EECFCF9357
:1014F000DF93EC010E94480ABE010E943A0A0E9452
:101500000C06DF91CF910895FC0124812223C1F0C4
:10151000808191810E94770A92959F70963091F018
:1015200058F4925F9F70923058F4803F19F030F475
:10153000883E30F481E008959A5FF4CF843FD1F380
:1015400080E00895883EB0F3813FD1F7F3CFA6E065
:10155000B0E0EDEAFAE00C94FF1E49835A8349811A
:101560005A819923A1F0222391F0CA010E94480ACE
:10157000182F682F89819A810E946F0769817A816B
:10158000812F0E943A0A2696E3E00C941B1FCA01A1
:101590000E943B07182FF2CF85E290E00E943B1F8C
:1015A000833289F486E290E00E943B1F863059F432
:1015B00087E290E00E943B1F91E0813109F090E0CA
:1015C000892F8170089580E0FCCF8091DA0190919D
:1015D000D901892B809370019091D8019923A1F0B2
:1015E000892B80937001809108018823E1F180911B
:1015F0001E0287FF38C08EE1E2E7F1E090E0815003
:10160000A0F591111092D80140E250E068EB71E032
:1016100080E791E00E948D1F892B21F180E2E0E7B5
:10162000F1E0A8EBB1E001900D928A95E1F7E0912D
:101630001502F09116023097A9F0809108018823D5
:1016400059F080911E0287FF07C08091700180933E
:10165000710186E0809370010280F381E02D80E7C4
:1016600091E00995089586E0C7CF2191222339F2B0
:101670009F5FC5CF882321F00E942A070E94E50AB8
:101680000895882339F09091DA01982B9093DA012C
:101690000E94E50A0895882399F19CEF980F913AEA
:1016A00040F4682F80E791E00E9406040E94E50A5A
:1016B000089590E2980F983050F4877091E001C03F
:1016C000990F8A95EAF7892F0E942A07EFCF9BE5A9
:1016D000980F933028F490E080E00E948A040895E7
:1016E00098E5980F9B3128F490E080E00E94650413
:1016F000089593E3980F933118F460E00E94FB077C
:101700000895CF93C82F8823D9F18CEF8C0F813A9D
:10171000C8F580910801882311F180911E0287FF8E
:101720001EC0EC2FE695E695E695F0E0E059FE4FF9
:10173000828190E04C2F477021E030E002C0220F00
:10174000331F4A95E2F782239323892B91F06C2F64
:1017500080E791E00E9406040E94E50A0AC0E2E7E1
:10176000F1E088E791E02191C21789F38E179F0776
:10177000D1F76C2F80E791E00E9430040E94E50AC7
:10178000CF91089580E28C0F883068F4C77021E013
:1017900030E001C0220FCA95EAF78091DA01822B6E
:1017A0008093DA01EBCFEBE5EC0FE33040F4F0E0AF
:1017B000E25FFE4F808190E00E948A04E1CFE8E57D
:1017C000EC0FEB3150F4F0E0EE0FFF1FEF5EFE4F39
:1017D000808191810E946504D3CF83E38C0F833194
:1017E00078F661E08C2F0E94FB07CACF1F93CF933E
:1017F000DF93182FD0E0C0E0893311F4C0E5D0E0CA
:10180000812F0E94810B209739F4812F0E944B0B6E
:10181000DF91CF911F9108958FE99FE00197F1F734
:1018200000C000002197EFCF0F931F93CF93DF935A
:10183000C62FD42F022FFC0185818823A9F0609345
:101840008B020E94FA0390938A0280938902C770E8
:1018500081E001C0880FCA95EAF70E94410BDF9131
:10186000CF911F910F91089580918B02681332C020
:101870008091890290918A020E94EB03883C910535
:1018800048F510E21D0FCD17B9F080E28C0F8830BB
:1018900040F4C77081E001C0880FCA95EAF70E9442
:1018A0003A0B183048F481E09D2F977001C0880FE3
:1018B0009A95EAF70E94410B802F0E94F60B183090
:1018C00070F6D77081E001C0880FDA95EAF70E94C0
:1018D0003A0BC5CFC77081E001C0880FCA95EAF7FF
:1018E000F6CF90911F0292FB222720F9281779F05A
:1018F00080FB92F990931F0260911E0270911F026B
:1019000084E090E00E94771F82E00E94D50708954E
:10191000B0E0A0E0EEE8FCE00C94F11EE4EEAE2EA8
:10192000E1E0BE2E312C10E000E088248394912C5D
:101930008CE4682E81E0782ED0E0C0E0A801495BFD
:101940005E4F2A0179C0C090E001D090E101E090A3
:10195000E201F090E3010330110509F4B8C004304E
:10196000110509F4A3C00115110551F4CE010E971C
:10197000029730F460E3E62EF12C7CE2C72ED12CE6
:10198000539AF201808180FFB1C0589A81FFB0C0A4
:10199000599A82FFAFC05A9AACE4B1E09D91E92F09
:1019A000E295EF70F0E022A19F70A40102C0440F05
:1019B000551F9A95E2F7CA018095822382A351E0D0
:1019C000AC35B50759F7F89453985B98F3018191BA
:1019D0003F01E82FE295EF70F0E092A18F70940143
:1019E00001C0220F8A95EAF7892F822B82A384E90E
:1019F0000E94CA1E7894F50120813181A9010C2E24
:101A000002C0569547950A94E2F740FF75C08C15C1
:101A10009D0508F07EC0C4010C2E02C0880F991FDE
:101A20000A94E2F78095909582239323F5019183A0
:101A3000808381E0382A2196C031D10509F083CF17
:101A40000F5F1F4FF2E0AF0EB11C0530110509F01A
:101A50006FCF332009F45FC081E08093DF010E94E3
:101A6000FA039093DE018093DD018091DD01909176
:101A7000DE010E94EB03059708F451C04AE050E0F4
:101A800064EE71E08CEF91E00E948D1F892B09F4C8
:101A90004CC08AE0E4EEF1E0ACEFB1E001900D92D1
:101AA0008A95E1F781E01092DF013AC0C730D10595
:101AB00074F4C530D1059CF4C330D1050CF460CF6B
:101AC0004CE3E42EF12C52E3C52ED12C59CFCE306D
:101AD000D10509F055CF25E3E22EF12C03C03AE3FE
:101AE000E32EF12C90E3C92ED12C4ACF58984ECF3B
:101AF00059984FCF5A9850CFE816F90650F4C401C0
:101B00000C2E02C0880F991F0A94E2F7822B932BA8
:101B10008DCF80E08FCF8091DF018111A6CF80E053
:101B2000CDB7DEB7E1E10C940D1F80E0BCCF109281
:101B3000DA0180910801E2E7F1E0882329F1809140
:101B40001E0287FF21C08EE1DF011D928A95E9F711
:101B500090E080E00E948A0490E080E00E946504AA
:101B60001092D9010E94E50A86E0EDE0F2E0DF0183
:101B70001D928A95E9F710920602109207021092C0
:101B800008020E94BC04089586E0DECFAAE2B0E01D
:101B9000ECECFDE00C94FF1E87E492E02091F10054
:101BA000DC012D93CD01B2E08F349B07B9F7809112
:101BB0004802833009F472C0B8F4813009F449C096
:101BC000823009F4B3C08091E80083FF8BC280911A
:101BD0004702909148029A3008F084C2E92FF0E061
:101BE000E456F04E0C94E31E8A3009F48EC08B301C
:101BF00009F471C0893039F780914702813219F7B1
:101C000080914B0290914C02009711F00297D9F607
:101C10008091E800877F8093E8008091E80082FF50
:101C200038C09091F3008091F200029731F48091D6
:101C3000F100813011F0863021F48091F100809321
:101C400022028091E8008B778093E8000E94DE02F8
:101C5000BACF80914702813A09F0B5CF8091E80070
:101C6000877F8093E80080914B0290914C02892BF2
:101C700061F460E283E292E070E00E948A03809166
:101C8000E8008B778093E8009ECF60E090E080E0F2
:101C9000F3CF809145028111C0CF95CF809147024B
:101CA000813A09F090CF80914B0290914C02892BA0
:101CB00009F089CF8091E800877F8093E8008091C8
:101CC000E80080FFFCCF809108018093F1008091B3
:101CD000E8008E77B9CF80914702813209F073CF47
:101CE00080914B0290914C02892B09F06CCF80912E
:101CF000E800877F8093E8000E94DE02809149021D
:101D0000809308010E94970D5ECF80914702813237
:101D100009F059CF8091E800877F8093E8000E9406
:101D2000DE0280914A02809321024DCF80914702CA
:101D3000813A09F048CF8091E800877F8093E800DE
:101D40008091E80080FFFCCF80912102BECF8038D7
:101D500099F0823809F0C6C180914B028F708730AC
:101D600008F0C0C18093E9008091EB0085FB8827D3
:101D700080F91092E90006C08091430290914402DC
:101D8000911182609091E800977F9093E800809392
:101D9000F1001092F1008091E8008E779FC18823B6
:101DA00009F48DC1823009F09DC1809149028111F1
:101DB00090C180914B028F702FEF280F263008F0D2
:101DC00091C18093E9002091EB0020FF82C1933004
:101DD00031F48091EB0080628093EB007AC19091A6
:101DE000EB0090619093EB0021E030E001C0220F06
:101DF0008A95EAF72093EA001092EA008091EB00BE
:101E00008860EACF81116EC1109149021F778091DD
:101E1000E3008078812B8093E3008091E800877F46
:101E20008093E8000E94DE028091E80080FFFCCFF2
:101E30008091E30080688093E30082E0111183E0E9
:101E4000809345024FC18058823008F04BC12091E9
:101E5000490230914A022C3DE3E03E07A1F583E0C0
:101E60008A838AE289834FB7F894DE01139620E0D3
:101E70003EE051E2E32FF0E050935700E49120FF61
:101E800003C0E295EF703F5FEF708E2F90E0EA3075
:101E9000C0F0C7968D939D932F5F243159F74FBFA4
:101EA0008091E800877F8093E8006AE270E0CE01CD
:101EB00001960E948A038091E8008B778093E80066
:101EC00011C1C096E7CF80914B0290914C02432FF5
:101ED00055274330510509F44AC078F54130510582
:101EE00009F47AC08BE590E0E4EBF3E04230510571
:101EF00009F0F8C02091E800277F2093E8002091A6
:101F00004D0230914E028217930708F49C0140E085
:101F10002115310509F065C0411163C08091E800C9
:101F200082FDC9CF80914502882329F2853019F2BC
:101F30008091E80083FFF2CFBECF4132510509F412
:101F40003CC04232510509F0CDC08330910508F004
:101F5000C9C0FC01EE0FFF1FEE59FE4F0190F0814A
:101F6000E02D815A9E4FDC018C9190E01AC03327FE
:101F700021303105D1F02115310561F022303105D4
:101F800009F0B0C0E1E2F4E0E4918E2F90E0E1E2EC
:101F9000F4E007C0E5E6F4E0E4918E2F90E0E5E69A
:101FA000F4E0009709F49EC0A5CFEFE3F4E0E491DC
:101FB0008E2F90E0EFE3F4E0F4CF8330910508F04A
:101FC00091C0880F991FFC01E859FE4F0190F081E4
:101FD000E02D89E090E08ECF82E190E0EFE0F4E048
:101FE00089CF80914502882309F465CF853009F4B3
:101FF00062CF8091E80083FD5ECF8091E80082FD92
:102000008DCF8091E80080FF83CF9091F300809185
:10201000F2002115310519F08830910550F041E0AA
:10202000089709F040E08091E8008E778093E800FF
:102030006FCF44914093F1003196215031090196C0
:10204000E8CF803809F04EC08091E800877F809308
:10205000E800809146028093F1009DCE811142C03C
:10206000109149021230F0F58091E800877F80934B
:10207000E800109346020E94DE02112311F084E072
:1020800005C08091E30087FDFACF81E0809345028F
:1020900042E061EC81E00E94FD0242E261EC84E0FA
:1020A0000E94FD0242E261EC82E00E94FD0242E2F7
:1020B00060EC83E00E94FD028091450213C0809194
:1020C0004902813079F481E0933009F080E0809317
:1020D00044021092E9008091E800877F8093E80035
:1020E0000E94DE028091E80083FF0AC08091E80030
:1020F000877F8093E8008091EB0080628093EB0003
:10210000AA96E3E00C941B1F0E94970D2FEF84E327
:102110009CE0215080409040E1F700C0000088E141
:102120009CE00FB6F894A895809360000FBE909342
:102130006000FFCFA8E0B0E0E0EAF0E10C94F21E0E
:102140008C01DC0114968C911497882309F4B8C093
:1021500021E04C9111965C91119712966C91129717
:1021600013967C91139715969C910E94A70A7C0167
:10217000F8018581882309F43CC1C701975780384D
:10218000910508F004C5FFE0FE1508F489C08FEF43
:1021900093E00E943B1F811183C069EAA62E62E092
:1021A000B62EE11047C0FE01339686E0DF011D9296
:1021B0008A95E9F75AE0452E7501BFEFEB1AFB0A45
:1021C000C5010E943B1F89831A82882309F468C0D5
:1021D000813009F079C06501E2E0CE0ED11CC70163
:1021E0000E943B1F8A83882309F45AC09FEF980FEF
:1021F000933070F5F3E0AF0EB11CC6010E943B1F97
:102200008B83882309F44CC01C82DE0111967D016A
:10221000F7012081222381F2213009F095C09181BC
:102220008281913009F052C0F2E0EF0EF11C0E9461
:10223000F60B53C0A11424E0B20691F1C5010E942F
:102240003B1F811101C0EA943FEFA31AB30AA9CF43
:1022500056018430D1F642E0E42EF12C56012FEFE6
:10226000A21AB20AC6010E943B1FE1E0F0E0EC0FA7
:10227000FD1FEE0DFF1D8083882391F08C3741F404
:10228000E2E0F0E0EC0FFD1FEE0DFF1D1082BDCF70
:102290003FEFE31AF30A650187E0E816F104F1F66F
:1022A0008091B701877061F0D80115968C918823D1
:1022B00039F080911F0282FF03C082E00E94D5079F
:1022C0002896E0E10C940E1F57019FCF923049F4FD
:1022D00022E0E20EF11C0E94810BEFEFEE1AFE0AE3
:1022E00097CF933031F432E0E30EF11C0E944B0B98
:1022F000F4CF943021F08FEFE81AF80AEECF92E095
:10230000E90EF11C30E020E0B7016F5F7F4FD7018D
:1023100011964C918053990B8A30910550F02150C1
:102320003109D8F2EFE9FFE03197F1F700C0000082
:10233000F6CF429EF001439EF00D11249C012E0F1A
:102340003F1F842F7B01E0CFE22FF0E0EC50FE4FE7
:102350005490822F86958695869590E0FC01EC51ED
:10236000FE4F64902770712C022E02C07594679402
:102370000A94E2F731E063227724FC01EC52FE4F2D
:102380008490912C022E02C0959487940A94E2F7CF
:10239000A1E08A229924FC01EC53FE4FC490D12C79
:1023A00002C0D594C7942A95E2F7B1E0CB22DD2490
:1023B0006114710419F081EE0E94810B8114910463
:1023C00019F086EE0E94810B852D0E94F60B811478
:1023D000910419F086EE0E944B0B6114710419F000
:1023E00081EE0E944B0BC114D10409F476CF8CE22C
:1023F0001ECFF701E851FC47E730F10508F0B8C3FC
:10240000EA55F04E0C94E31E26E241EE61EEC8015F
:102410000E94140C45CF27E245EE65EEF8CF26E288
:1024200041EE60EEF4CF27E245EE64EEF0CF26E217
:1024300041EE62EEECCF27E245EE66EEE8CF28E211
:1024400041E0EBCF80911E02816080931E0295C017
:1024500080911F02886080931F028FC080911E02AE
:102460008260F3CF80911E028460EFCF80911E02C4
:102470008860EBCF80911F028160EDCF80911F02B9
:102480008260E9CF80911E028061DFCF80911E02C1
:102490008062DBCF80911E028064D7CF0E94970DAF
:1024A00080911E028068D1CF80911E028C60CDCFBA
:1024B00080911F028360CFCF80911E028E7FC5CF97
:1024C00080911F02877FC7CF80911E028D7FBDCF75
:1024D00080911E028B7FB9CF80911E02877FB5CF7E
:1024E00080911F028E7FB7CF80911F028D7FB3CF67
:1024F00080911E028F7EA9CF80911E028F7DA5CF75
:1025000080911E028F7BA1CF0E94970D80911E02A9
:102510008F779BCF80911E02837F97CF80911F0280
:102520008C7F99CF80911E0282FB992790F921E040
:10253000922790FB82F990FB83F987CF80911F024D
:10254000982F909591708E7F892B90FB81F983CF86
:1025500090911E02892F8F7B96FF806476CF0E9418
:10256000970D90911E02892F97FB87F980586DCFA8
:1025700061E08EE090E00E94591F60911E02709110
:102580001F0284E090E00E94771F0E94970D88CE82
:1025900060E0EFCF90911E02892F8F7E94FF8061C3
:1025A00054CF90911E02892F8E7F90FF81604DCF76
:1025B00090911F02892F877F93FF88604CCFF7E7A8
:1025C000EF16FCE7FF0609F46AC028E7E2162CE7DD
:1025D000F20609F471C033E0E3163CE7F30609F4B0
:1025E0008CC008F06BC0E1149CE7F90609F478C0D0
:1025F000A1E0EA16ACE7FA0609F485C0F801858186
:10260000E080F180882309F48CC0C7010E94480A49
:10261000D82E682FC7010E946F07B7018D2D0E9429
:102620003A0A0E940C067C01882ED8011596AC90BF
:10263000159716969C9092943FE093228091B70153
:102640008770F1F0DA2CAA20E1F08F2D807F8034A2
:1026500051F080E28E0D883098F0911004C08F2DDB
:10266000807E803269F080911F0282FF09C082E083
:102670000E94D5078091B7018770DD24D394811122
:10268000D12CCF2CC2942FE0C222BBE0BC1508F4A1
:10269000B1C0EC2DF0E0E355F04E0C94E31E81E068
:1026A0000E94EC0743E062E081E00E94A807F8CDB9
:1026B00081E00E94C807F6CF82E0F2CFBBE5EB16BF
:1026C000BCE7FB0661F1ECE5EE16ECE7FE06E9F08F
:1026D000FAE5EF16FCE7FF0609F090CF81E01CC099
:1026E0000E94970D2FEF34E38CE021503040804062
:1026F000E1F700C000000E9451096FEF7FEF90E00A
:1027000080E00E94771F0E94841080911F0282FB4C
:10271000882780F991E089270E94710C6FCF80E0B3
:10272000FBCFC7010E943B07D82E77CFEF2DEF706C
:10273000BE2E8F2D807F19F0B29490EFB922AA207F
:10274000B9F0BB2069F080E28E0D883010F0811066
:1027500009C08091DA01B82AB092DA010E94E50A34
:102760008E2D46C08091D901B82AB092D901F6CFFA
:102770008E2D0E944B0BBB20E9F180E28E0D88303C
:1027800010F0811004C08B2D0E942A0706C0B0945F
:102790008091D901B822B092D9010E94E50A2AC0DD
:1027A000FF2DFF70BF2E8F2D807F803219F0B294E5
:1027B00080EFB822882059F021E0821609F485C004
:1027C000AA2009F491C0992009F452C0C9CF809180
:1027D0001F0282FD49C0AA2009F440C0BB2039F085
:1027E0008091DA018B298093DA010E94E50A80E06A
:1027F0000E94810BAC2DA850BB0B149720F40E94B3
:10280000AF040E94D308DD20A9F08091B70180FDBC
:1028100011C0F80115828695869586950E94EC0771
:10282000C8010E949A108091B70186958695869579
:102830000E94C80720E0D8014C9111965C91119735
:1028400012966C91129713967C91139714968C9113
:10285000149715969C910E94A70A32CD80E00E94A1
:102860004B0BBB2039F28FCFAA20A1F0911004C0EE
:102870008B2D0E94410BBECF31E09312BBCF8091D4
:10288000D8019B2D9823B91609F4B4CF8B298093D6
:10289000D801B0CF9110AECF8B2D0E943A0B909102
:1028A000D8018B2D892329F08B2D80958923809346
:1028B000D801909191018B2D892309F49BCF8B2D09
:1028C000809589238093910195CFAA2029F085E0F6
:1028D000891508F48FCFCCCF94E0991508F48ACFEE
:1028E0008B2D0E943A0B86CF9920D1F3A9E38A124F
:1028F00009C0BFEFE7EEF3E0B150E040F040E1F790
:1029000000C000008E2D0E944B0B74CF8F2D86953A
:102910008695837061F0813009F06CCFC7019370A8
:10292000A11002C080E090E00E94650463CFC7015F
:102930009370A11002C080E090E00E948A045ACFF8
:102940006A2D8E2D0E94FB0755CF8F2D837091F538
:10295000A11050CF4E2D429546954770440F440F1D
:102960008E2D8F70042E01C0880F0A94EAF72E2D49
:102970002071E4FE07C02FE030E001C0220F4A952D
:10298000EAF720953F2D369536953370323069F051
:1029900050F44091EE01313029F0822B84230E94C3
:1029A000F80728CF842B822BFACF282B8091EE01B9
:1029B0008227F5CF8695AA2011F08F2D817088236C
:1029C00009F418CF4E2D429546954770440F440F99
:1029D0008E2D8F70042E01C0880F0A94EAF72E2DD9
:1029E0002071E4FE07C02FE030E001C0220F4A95BD
:1029F000EAF720953F2D369536953370323069F0E1
:102A000050F44091EF01313029F0822B84230E9451
:102A1000A507F0CE842B822BFACF282B8091EF01D3
:102A20008227F5CF2F2D2F70F22EAA2029F0822F8A
:102A30000E94EC078E2D1DCF8E2D0E943A0B8F2DFC
:102A40000E94C807D7CE8E2D32EF8316B1F138150C
:102A500070F090EF8916D1F0A1EF8A1691F0AA20BC
:102A600009F45EC091107CCE8F2D8F712AC0B3EF18
:102A70008B1651F1E4EF8E12F2CF80911F0282FD8E
:102A80002FC08F2D8F71AA20D9F21BC0AA2081F0F0
:102A9000F4E0F91508F4AECE2F2D2F7181E090E00F
:102AA00001C0880F2A95EAF79091EF018927AFCFEF
:102AB00025E0291508F49ECEEFCF8F2D8F71A11040
:102AC000BFCF0E94EC0796CE80E0AA2009F49FCFEA
:102AD0009F2D9F7181E001C0880F9A95EAF797CFEB
:102AE000AA2099F03F2D3F71F32E832F0E94EC070F
:102AF00080911F0282FF07C0A8E0FA9EC001112446
:102B000083608093B7018F2DDCCF81E00E94D507D1
:102B1000B1E0B91508F06ECE82E00E94D5076ACE0A
:102B2000992059F0893309F0EDCEEFEFF7EE23E06D
:102B3000E150F0402040E1F7E3CE8F2D8F7180CF40
:102B4000B6E1EB16BCE7FB0609F039CD8091DA015E
:102B50008A7A91E009F490E09093900169E2811102
:102B600065E380E791E00E9430040E94E50A98CB7B
:102B7000E6E1EE16ECE7FE0651F58091900169E280
:102B8000811165E380E791E00E940604EECFF70132
:102B9000E851FC47E730F10508F432CC10928B0283
:102BA000C7019057839760F684E090E00E94431F2E
:102BB00090931F0280931E02F701E150F047E2322A
:102BC000F10508F03FCCE754F04E0C94E31EF7E714
:102BD000EF16FCE7FF0609F46BCD82E028E7E2166A
:102BE0002CE7F20609F465CD09CDCF93DF938091F0
:102BF000B601807F09F04DC08091B501882309F4AA
:102C000048C0E091880250914F02C091B101D0912B
:102C1000B0016091B2017091B30147E05E17C9F154
:102C20008E2F90E0E49FF0011124E05BFD4F2481A2
:102C3000222391F1489FF001499FF00D1124DF01FB
:102C4000A05BBD4F11962C9111972C1325C02C9190
:102C50002D1322C015962C91159721111DC0129687
:102C60002D913C91261B370B283C3105A8F480910F
:102C7000B6018F7080618093B601EA5AFD4F808162
:102C80008F708061808380EB91E00E949A100E9497
:102C90003107DF91CF910895FC013196E770BECFE7
:102CA000A4E1B0E0E6E5F6E10C94F61E8C0186E0C6
:102CB000F801DE011F9601900D928A95E1F7F80167
:102CC0008481E58090EBA92E91E0B92E9091B4011A
:102CD000911128C0882319F1EE20F1F0C8010E945B
:102CE000840AF82E8823C1F087E0F801D50101900D
:102CF0000D928A95E1F78091B401813031F4809191
:102D0000B0019091B1010E94770A0E94F5158F2DB4
:102D10006496ECE00C94121FC8010E949A10FF24E4
:102D2000F394F5CFD080C18082809380F090B5017C
:102D30002091B2013091B301A401421B530BFF203B
:102D400009F4D9C0483C510508F092C08823F9F233
:102D50009091B1018091B601282F207F09F056C0D3
:102D6000C91214C09091B001D91210C0E11048C02E
:102D70008F7080618093B60180EB91E00E949A1081
:102D80008091B601F8018683F12CC1CFE11038C0E3
:102D90006C2D8D2D0E946F026C2D8D2D0E946F0267
:102DA000E82E8111F1CFDF86C88A8F8598890E942D
:102DB000770A292F22952F70243058F49F702230E3
:102DC00088F0992399F0F8019681907F79F4FE2C90
:102DD0009ECF2A5F2F70223068F0C8010E949A109F
:102DE000EF2CF5CF992311F0882389F3805E88308A
:102DF00070F3F3CF803F58F3815F833070F7E7CFF4
:102E00008091B60181608093B601BECFC91207C020
:102E10009091B001D91203C0EE2009F48DC0C80111
:102E20000E94840A882309F477CFEE2009F474CF36
:102E30008091B601803288F02091B0013091B101CB
:102E4000398728879B868A869091B4019C871D8646
:102E50008E87CE0108960E949A1087E0F801A0EBB9
:102E6000B1E001900D928A95E1F70E94F51557CFD8
:102E70009091B601292F207F51F480EB91E00E94C0
:102E80009A1087E0F50111928A95E9F77DCF8823A2
:102E900009F43DCF8091B1018C1110C08091B00137
:102EA000D8120CC0E1100AC09683C8010E949A1083
:102EB00087E0F50111928A95E9F729CFC8010E94B0
:102EC000840A882309F428CFEE2009F425CF8091C5
:102ED000B601803210F22091B0013091B1013A83F5
:102EE00029839C828B829091B4019D831E828F8363
:102EF000CE010196B0CF483C5105D0F6882309F4A5
:102F00000ECFFE2CEE2009F407CF8091B1018C1179
:102F100020C08091B001D8121CC08091B60180FD04
:102F20000FC0982F907F61F08683903F31F0982FEB
:102F3000907F905F8F70892B8683C8010E949A10C2
:102F400087E0F801A0EBB1E001900D928A95E1F7DE
:102F5000DECEC8010E94840A81117FCF8091B60124
:102F600081608093B601C8010E949A10D0CEABE177
:102F7000B0E0EDEBF7E10C94FE1E4E8B5F8B688F9B
:102F8000798F8A8F9B8F192F91111092D9011D8AE9
:102F900086E0FE017696DE011F9601900D928A95DD
:102FA000E1F70A8D002341F021E04F8558896989B6
:102FB0007A89C8010E94A70A0B8B1C8B87E0FE014F
:102FC0003F96DE01189601900D928A95E1F7CE01A9
:102FD00008960E94501681110CC087E0FE013896B9
:102FE000DE01119601900D928A95E1F78C85811191
:102FF0000BC017E08091880290914F02891331C075
:103000006B96E4E00C941A1F20914F0230E0C90146
:10301000019687709927409188024817190699F000
:1030200097E0929FD001939FB00D1124A05BBD4FFC
:10303000FE01319601900D929A95E1F780934F022F
:103040000E943107D6CF0E94970D10924F02109226
:10305000880287E0E0EBF1E0DF011D928A95E9F755
:10306000C8CF819FC0011124805B9D4F0E945016E4
:10307000882331F28091880290E001968770992729
:1030800080938802B7CFA6E0B0E0E9E4F8E10C94C1
:10309000FE1E0E94FA038C018091DB019091DC01FD
:1030A0008017910781F019821A820E94FA03682F13
:1030B00049815A81792F80E090E00E94B7171093E0
:1030C000DC010093DB012696E4E00C941A1F1F92AA
:1030D0000F920FB60F9211242F933F934F935F934C
:1030E0006F937F938F939F93AF93BF93CF93DF9310
:1030F000EF93FF93D091E900DF708091EC00C82F2F
:10310000C17080FDC0E81092E9008091F000877FD7
:103110008093F00078940E94C60D1092E90080918F
:10312000F00088608093F000CD2BCF70C093E90051
:10313000FF91EF91DF91CF91BF91AF919F918F91CF
:103140007F916F915F914F913F912F910F900FBEA3
:103150000F901F9018951F920F920FB60F92112487
:103160002F933F934F935F936F937F938F939F938F
:10317000AF93BF93EF93FF938091E10082FF09C06B
:103180008091E20082FF05C08091E1008B7F8093F7
:10319000E1008091DA0080FF24C08091D80080FF98
:1031A00020C08091DA008E7F8093DA008091D90070
:1031B00080FF9DC080E189BD82E189BD09B400FE28
:1031C000FDCF81E08093450280912002811109C0EA
:1031D0000E948E020E942F038091E20084608093FF
:1031E000E2008091E10080FF17C08091E20080FF43
:1031F00013C08091E2008E7F8093E2008091E20014
:1032000080618093E2008091D80080628093D80032
:1032100019BC85E0809345028091E10084FF2BC0BA
:103220008091E20084FF27C080E189BD82E189BDF1
:1032300089B5982F917080FFFBCF8091D8008F7D4A
:103240008093D8008091E1008F7E8093E10080918F
:10325000E2008F7E8093E2008091E20081608093A3
:10326000E20080914602882309F447C084E08093FD
:103270004502809145028091E10083FF27C0809143
:10328000E20083FF23C08091E100877F8093E1000B
:1032900082E080934502109246028091E1008E7F89
:1032A0008093E1008091E2008E7F8093E200809124
:1032B000E20080618093E20042E060E080E00E94F2
:1032C000FD028091F00088608093F000FF91EF9103
:1032D000BF91AF919F918F917F916F915F914F912E
:1032E0003F912F910F900FBE0F901F90189519BC12
:1032F000109245021092200274CF8091E30087FD66
:1033000093E090934502B5CF78941F921FB61F9219
:1033100011248F939F93AF93BF9380911A02909142
:103320001B02A0911C02B0911D020196A11DB11DAE
:1033300080931A0290931B02A0931C02B0931D026B
:10334000BF91AF919F918F911F901FBE1F901895B5
:103350001F921FB61F9211248F939F93AF93BF9319
:1033600080911902811113C080911A0290911B0261
:10337000A0911C02B0911D024196A11DB11D809328
:103380001A0290931B02A0931C02B0931D02BF91DE
:10339000AF919F918F911F901FBE1F901895CDB731
:1033A000DEB7A6970FB6F894DEBF0FBECDBF85B7C8
:1033B000806885BF85B7806885BF84B7877F84BFF5
:1033C0000FB6F894A89580916000886180936000A2
:1033D000109260000FBE80E890E00FB6F8948093E2
:1033E0006100909361000FBE85E295E090936F01BC
:1033F00080936E010E948E020E942F038091E20052
:1034000084608093E2007894809145028823A1F043
:103410001091E9001F709091EC00892F817090FD50
:1034200080E8182B1092E9008091E80083FD0E944B
:10343000C60D1F701093E90082E084BD93E095BD36
:103440009AEF97BD80936E000E94CC0A811102C052
:103450000E94FB0980910A0190910B01A0910C013F
:10346000B0910D018093E0019093E101A093E201FE
:10347000B093E3015B98539A80E40E94701EACE421
:10348000B1E041E050E08D91E82FE295EF70F0E07F
:1034900021A18F70BA0102C0660F771F8A95E2F7EB
:1034A000CB01922F982B91A392A18095892382A37F
:1034B00071E0AC35B70739F7ACE5B1E02FE531E0A5
:1034C00061E070E08D91E82FE295EF70F0E091A15E
:1034D0008F70AB0101C0440F8A95EAF7892F842BC6
:1034E00081A32A173B0771F753985B981092E50167
:1034F0001092E4011092FD011092FC011092E7017C
:103500001092E6011092FF011092FE011092E90163
:103510001092E80110920102109200021092EB0149
:103520001092EA0110920302109202021092ED0131
:103530001092EC01109205021092040290E080E0DB
:103540000E94431F863E9E4F21F40E94CC0A8111A7
:1035500067C066EE7EEF90E080E00E94771F60E03B
:1035600082E090E00E94591F60E083E090E00E94BA
:10357000591F1092EE0160E074E184E090E00E9437
:10358000771F60E086E090E00E94591F6FEF87E0B0
:1035900090E00E94591F40E050E0BA0188E090E0BE
:1035A0000E946B1F60E084E290E00E94591F60E07F
:1035B00087E190E00E94591F60E08CE090E00E945B
:1035C000591F60E08DE090E00E94591F19821A8215
:1035D0001B821C821D821E821F82188648E050E0DA
:1035E00068E170E0CE0101960E94491F40E050E082
:1035F000BA0180E290E00E946B1F80E00E94E20925
:103600000E94FB0940E050E0BA018FE090E00E9488
:103610006B1F40E050E0BA0183E190E00E946B1F15
:1036200082E090E00E943B1F8093F00184E090E0F4
:103630000E94431F90931F0280931E020E94880CD9
:10364000FFEF26E741E0F15020404040E1F700C0A5
:1036500000000E94880C8091FC0180FF08C06FEF81
:103660007FEF90E080E00E94771F0E94510983E085
:1036700090E00E943B1F0E94F807249A2C98579ACA
:103680005F98569A5E9880E091E09093160280933E
:103690001502E8E14E2E512CF6E06F2EF2E07F2E5F
:1036A0008091450212E1853009F499C00E94880C8E
:1036B00061EFA62E61E0B62E7CEF872E71E0972E8B
:1036C000D401F501219131918D919D9171E0EB3FF4
:1036D000F70709F490C028173907A1F3312CF4013A
:1036E000019111914F01F501C190D1905F01C01678
:1036F000D10661F1C026D126212CEE24E394F12CD1
:10370000C6018E219F21892BB9F029A23AA20E94DD
:10371000FA039CA38BA3F1E0FDA391E098012E2175
:103720003F21232B09F490E09EA349A15AA16BA14C
:103730007CA18DA10E94B7172394EE0CFF1C20E101
:103740002212DECFF501329711830083339445E0D6
:103750003412C5CF8FB7F89440911A0250911B02D2
:1037600060911C0270911D028FBF4BC08091450279
:10377000843029F180E00E94D3081092190260E49D
:103780000FB6F894A895409260000FBE6093600059
:1037900083B7817F846083BF83B7816083BF789460
:1037A000889583B78E7F83BF0FB6F894A8958091D4
:1037B0006000886180936000109260000FBE80916D
:1037C0004402882361F00E94880CECEFF1E08191C3
:1037D0009191892B09F05AC26E167F06C1F780912C
:1037E0004502853009F4C2CF0E94970D0E94AF04B4
:1037F0000E94D3085BCF2817390709F06FCF0E94CA
:10380000431886E0EDE0F2E0DE01119601900D92A2
:103810008A95E1F710920F02109210021092110295
:10382000109212021B810C81812F802B09F448C059
:1038300080910B0290910C020E94EB039C019091ED
:103840000602992309F447C225313105C8F19F3F8B
:1038500019F09F5F90930602112359F00E9405050D
:103860009FEF11160CF491E0899F802D1124809315
:103870000F02002359F00E9405059FEF10160CF46B
:1038800091E0899F802D11248093100230910F02C6
:103890003323B1F020911002222391F065EB36031F
:1038A000C0011124992309F4B7C090930F0275EB5E
:1038B000270390011124332309F4B2C0309310027E
:1038C0001D810E81812F802B09F448C0809109024F
:1038D00090910A020E94EB039C01909107029923A8
:1038E00009F4F4C121353105C8F19F3F19F09F5FFC
:1038F00090930702112359F00E94E3049FEF1116E1
:103900000CF491E0899F802D1124809311020023F3
:1039100059F00E94E3049FEF10160CF491E0899F88
:10392000802D112480931202309111023323B1F0C3
:1039300020911202222391F045EB3403C00111249F
:10394000992309F471C09093110265EB260390014D
:103950001124332309F46CC03093120246E050E086
:10396000BE016F5F7F4F8DE092E00E948D1F892B1B
:1039700061F480910F0290911002892B90911102B5
:10398000892B90911202892B11F00E94BC0486E0D1
:10399000FE013196ADE0B2E001900D928A95E1F71B
:1039A0000E94AF049091FB01891779F08093FB018D
:1039B0009FB7F89440911A0250911B0260911C022B
:1039C00070911D029FBF0E94D308809145028430F0
:1039D00009F066CE83E08093E9008091E80082FFE1
:1039E0005FCE8091E80090E085FF05C00E94AD02A7
:1039F000882311F191E08091E8008B778093E800B3
:103A0000992309F44DCEE981E150E331E0F5F0E08E
:103A1000E552F04E0C94E31E81E080930F0247CFF5
:103A200081E0809310024CCF81E0809311028DCF12
:103A300081E08093120292CF00E210E0CE01019665
:103A40007C018091E80085FD0AC08091E8008B77B9
:103A50008093E8000E94AD02882399F3CBCF809138
:103A6000F100F70181937F010150110951F7C2CF95
:103A70001A828CE08B8324C08A81823009F41DC1B4
:103A800028F4813061F08FEF89831AC0833009F107
:103A90008430C9F71B821C821D821E8211C02FB781
:103AA000F89460911A0270911B0280911C0290910F
:103AB0001D022FBF0E94E91E6B837C838D839E8332
:103AC00040E250E0BE016F5F7F4F82E00E94E40859
:103AD000E7CD2B81822F90E0FE013196225F853069
:103AE000910570F7DC01AA0FBB1FA450BE4F3C919B
:103AF00011964C9143833483019632962813EFCF6D
:103B0000DFCF8A81823019F08530D1F2BCCF6B8152
:103B10007C818D819E810E94E91E88E290E00E9456
:103B2000591FCECF4C816B818A810E940B0A982746
:103B3000892798279E838D83C3CF2D813E8132278D
:103B4000232732274C816B818A810E948509B8CF57
:103B50000E94AB09B5CFF0E1FA83B2CF81E08A834E
:103B600087E588CF0A811B81102701271027BE0116
:103B70006F5F7F4F6B01EC80CB018E0D911D7C013F
:103B8000C80187559D4FEC14FD0409F499CF073502
:103B9000E1E01E0750F40E943B1FF60184830F5F93
:103BA0001F4FFFEFCF1ADF0AEBCFF6011482F7CFDA
:103BB0000A811B81102701271027BE016F5F7F4FED
:103BC0006B01EC80E00EF12EF11CC80187559D4F72
:103BD0000E151F0509F474CF073571E0170720F49F
:103BE000F60164810E94591FFFEFCF1ADF0A0F5FB1
:103BF0001F4FEBCF0E94750963CF84E08A8360CFAB
:103C00000A811B81102701271027BE016F5F7F4F9C
:103C10006B01EC80CB018E0D911D7C01C801899652
:103C2000EC14FD0409F44CCF0038E2E01E0750F418
:103C30000E943B1FF60184830F5F1F4FFFEFCF1AD7
:103C4000DF0AECCFF6011482F7CF0A811B8110271F
:103C500001271027BE016F5F7F4F6B01EC80E00EE4
:103C6000F12EF11CC8018996E016F10609F428CF5F
:103C7000003872E0170720F4F60164810E94591F92
:103C8000FFEFCF1ADF0A0F5F1F4FECCF20E129BDF6
:103C900019BD09B400FEFDCF8091D8008F7D8093BF
:103CA000D8008091E00082608093E0008091E00085
:103CB00081FDFCCF0E94970D92CD88E290E00E949A
:103CC0003B1F1B821C821D828E83FACE2B30310556
:103CD00008F00DCE43CE2B30310508F0BACDF0CD33
:103CE000807C809309010895873901F178F4863347
:103CF000F9F030F48433F1F08533F1F08FE1089579
:103D00008439E1F08639D1F781E20895843FC1F02A
:103D100030F4803FB9F0813F89F781E00895863F14
:103D200099F0A0F0873F51F787E0089582E2089567
:103D300085E2089583E2089584E2089580E208957B
:103D400084E0089580E0089586E0089585E0089570
:103D500096E890937A00982F9072906890937B00E9
:103D60008F7190910901892B80937C0080917A005A
:103D7000806480937A0080917A0086FDFCCF8091E8
:103D800078002091790090917A009F7790937A0043
:103D9000922F08950E94741E0E94A81E089597FBFA
:103DA000072E16F4009407D077FD09D00E94271F34
:103DB00007FC05D03EF4909581959F4F089570952E
:103DC00061957F4F0895EE0FFF1F0590F491E02D50
:103DD00009946927962769277827872778270895E0
:103DE0002F923F924F925F926F927F928F929F920B
:103DF000AF92BF92CF92DF92EF92FF920F931F93F9
:103E0000CF93DF93CDB7DEB7CA1BDB0B0FB6F894A9
:103E1000DEBF0FBECDBF09942A88398848885F84E9
:103E20006E847D848C849B84AA84B984C884DF805A
:103E3000EE80FD800C811B81AA81B981CE0FD11D3E
:103E40000FB6F894DEBF0FBECDBFED010895AA1BDB
:103E5000BB1B51E107C0AA1FBB1FA617B70710F075
:103E6000A61BB70B881F991F5A95A9F780959095A7
:103E7000BC01CD010895F999FECF92BD81BDF89A9C
:103E8000992780B50895A8E1B0E042E050E00C9495
:103E90007F1FDC01A40FB51F4150504048F0CB01FB
:103EA000840F951F2E910E945A1F41505040D0F709
:103EB0000895262FF999FECF92BD81BDF89A0197FA
:103EC00000B4021639F01FBA20BD0FB6F894FA9A62
:103ED000F99A0FBE08950396272F0E945A1F0E9439
:103EE000591F252F0E945A1F242F0C945A1F0196E8
:103EF000272F0E945A1F0C94591FDC01CB01FC0193
:103F0000F999FECF06C0F2BDE1BDF89A319600B432
:103F10000D9241505040B8F70895FB01DC0104C0F8
:103F20008D910190801921F441505040C8F7881BB1
:103F3000990B0895F894FFCFA70ECF0E7210CF0EF5
:103F40007210020F230F721021102E100F12131275
:103F500004120B1217121B121F1296139613D01372
:103F6000D0138614A014FA13FA13A51412152315EE
:103F700023155C12D11264122E12321268123612FC
:103F80006C1278124212CA1246127C124A12801225
:103F9000A8124E128412AF1254128A1292123A12BE
:103FA00070123E12741258128E129E12B812C8125B
:103FB00028126012D812381D3C1D811D921D9D1DB6
:103FC000A81D431D431D431D431D431DAB1DAE1DB9
:0C3FD000B21DD81DFA1DFD1D001E251E8F
:103FDC00E8032D0926091F090140370041008182A1
:103FEC0083E200E900EA00B500B600B700CD00831B
:103FFC0001CC008A019201940121022302240225A2
:10400C0002260227022A02B300B4006F0070009F40
:10401C0001CB019F02A00201000304023536666742
:10402C00F7F6F5F437F1F0C6303132339091924017
:0E403C0022B684016201AC00C603DF03FF035D
:00000001FF
