:100000000C94AD020C94E5020C94E5020C94E5020C
:100010000C94E5020C94E5020C94E5020C94E502C4
:100020000C94E5020C94E5020C94151D0C94D11C63
:100030000C94121E0C94E5020C94E5020C94E5025B
:100040000C94E5020C94E5020C94E5020C94E50294
:100050000C94E5020C94EE1D0C94E5020C94E50260
:100060000C94E5020C94E5020C94E5020C94E50274
:100070000C94E5020C94E5020C94E5020C94E50264
:100080000C94E5020C94E5020C94E5020C94E50254
:100090000C94E5020C94E5020C94E5020C94E50244
:1000A0000C94E5020C94E5020C94E50205010902AA
:1000B000A10185020901A1000509190129081500FE
:1000C0002501950875018102050109300931158165
:1000D000257F95027508810609381581257F9501D0
:1000E00075088106050C0A38021581257F95017572
:1000F000088106C0C005010980A101850319012AF4
:10010000B700150126B700950175108100C0050CD8
:100110000901A101850419012AA002150126A002E6
:10012000950175108100C005010906A1018506052C
:100130000719E029E71500250195087501810205D9
:1001400007190029EF1500250195F07501810205B9
:10015000081901290595057501910295017503910D
:1001600001C00660FF0961A1010962150026FF00B8
:100170009520750881020963150026FF00952075FA
:10018000089102C005010906A101050719E029E748
:1001900015002501950875018102950175088101F9
:1001A0000507190029FF150026FF0095067508812F
:1001B000000508190129059505750191029501753C
:1001C000039101C0000000000000000000000000DA
:1001D000000000000000000000000000000000001F
:1001E00000000000000000007E0F00D4FFFFFFC7EA
:1001F0000000007800000000000000002A2B28000A
:1002000000000000000000000000000000000029C5
:10021000000000002C1E3420212224342627252E05
:10022000362D3738271E1F2021222324252633333D
:10023000362E37381F0405060708090A0B0C0D0E69
:100240000F101112131415161718191A1B1C1D2F35
:100250003130232D350405060708090A0B0C0D0E55
:100260000F101112131415161718191A1B1C1D2F15
:100270003130354C1E0F056432141E140A0500017E
:100280000101010101010101020202020202020256
:100290000203030303030303030404040404040428
:1002A00005050505050606060606070707070708EC
:1002B000080808090909090A0A0A0B0B0B0C0C0C9F
:1002C0000D0D0D0E0E0E0F0F0F1010111111121239
:1002D00013131414151516161717181819191A1AB6
:1002E0001B1B1C1D1D1E1E1F202021222223242417
:1002F000252626272829292A2B2C2D2D2E2F303153
:100300003232333435363738393A3B3C3D3E3F4064
:100310004142434445464748494A4C4D4E4F50514F
:100320005354555658595A5B5D5E5F616264656609
:1003300068696B6C6D6F7072737577787A7B7D7E90
:100340008082838587888A8C8E8F91939596989AE0
:100350009C9EA0A2A3A5A7A9ABADAFB1B3B5B7BAF8
:10036000BCBEC0C2C4C6C9CBCDCFD1D4D6D8DBDDCC
:10037000DFE2E4E7E9EBEEF0F3F5F8FAFDFF222324
:10038000252628292A2C2D2F3032333536383A3B72
:100390003D3E4042434547494A4C4E5051535557C4
:1003A000595A5C5E6062646668696B6D6F717375E3
:1003B00077797B7D7F81838587898A8C8E909294E3
:1003C00096989A9C9E9FA1A3A5A7A8AAACAEAFB1F0
:1003D000B3B4B6B8B9BBBCBEBFC1C2C3C5C6C7C93A
:1003E000CACBCCCDCED0D1D2D2D3D4D5D6D7D7D8F4
:1003F000D9D9DADADBDBDBDCDCDCDCDCDDDDDDDD46
:10040000DCDCDCDCDCDBDBDBDADAD9D9D8D7D7D64D
:10041000D5D4D3D2D2D1D0CECDCCCBCAC9C7C6C504
:10042000C3C2C1BFBEBCBBB9B8B6B4B3B1AFAEAC4A
:10043000AAA8A7A5A3A19F9E9C9A98969492908EF5
:100440008C8A89878583817F7D7B79777573716FCE
:100450006D6B6968666462605E5C5A5957555351AA
:10046000504E4C4A4947454342403E3D3B3A383660
:10047000353332302F2D2C2A2928262523225300CC
:100480005400550056005F006000610057005C009A
:100490005D005E00670059005A005B004C0062007E
:1004A00062006300580009025B00030100A0FA0922
:1004B0000400000103010100092111010001224093
:1004C0000007058103080001090401000203000080
:1004D00000092111010001222200070582032000EA
:1004E00001070503032000010904020001030000C5
:1004F0000009211101000122B60007058403200034
:1005000001120100020000000844564E4F00010194
:100510000200011A034F0053004100760032002010
:10052000004E0075006D0070006100640000002442
:1005300003560069006B00740075007300200044CE
:100540000065007300690067006E0020004C004CDD
:100550000043000000040309040011241FBECFEF74
:10056000DAE0DEBFCDBF04B603FE18C08091C10241
:100570009091C202A091C302B091C4028730904B07
:10058000A740B04B59F41092C1021092C2021092CF
:10059000C3021092C402E0E0F8E3099522E0A2E76A
:1005A000B1E001C01D92A13CB207E1F711E0A0E06B
:1005B000B1E0EAE7FBE402C005900D92A237B10773
:1005C000D9F70E94391E0C9454250C940000482F32
:1005D0002091BD029091840257E0291302C080E06F
:1005E000089530E0529FF001539FF00D1124EB5716
:1005F000FD4F8181681306C08081481303C0858147
:100600008111EECF2F5F3F4F2770E7CFE8EDF0E08D
:1006100080818E7F80831092E2001092DA00109227
:10062000E100A0EEB0E08C9181608C9380818F77A7
:10063000808319BCA7EDB0E08C918E7F8C93808174
:100640008F7E80831092550208952091E4003091AE
:10065000E50095E6A9012091EC00822F817020FF32
:1006600006C08091E80080FF06C080E008952091D8
:10067000E80022FD1AC080917A02882389F0853033
:1006800089F08091EB0085FD0FC02091E40030914E
:10069000E50042175307F9F29150E1F684E008951E
:1006A00082E0089583E0089581E0089580917C02BE
:1006B00087FF13C08091E80082FF06C08091E800A8
:1006C0008B778093E80004C080917A028111F2CF89
:1006D000089580917A028823D9F38091E80080FF01
:1006E000F8CF8091E8008E77ECCF982F9093E900B7
:1006F000242F762F50E0891731F07091EC00209173
:10070000ED005091F00021FD07C09F5F973071F719
:100710008093E90081E008953091EB003E7F3093B3
:10072000EB003091ED003D7F3093ED003091EB0018
:1007300031603093EB007093EC002093ED00509308
:10074000F0002091EE0027FDE0CF80E00895B0E0BA
:10075000A0E0EDEAF3E00C94C023C8EDD0E088817E
:100760008F7E8883E7EDF0E080818160808384E084
:1007700082BF81E08093550288818E7F888302EE5C
:1007800010E0F80110821092DA0081EEC82ED12C10
:10079000F601108288818F778883888180688883BA
:1007A00088818F7D888319BC10927A0210927B0217
:1007B000109279021092780290EEE92EF12CF70156
:1007C00080818B7F808388818160888342E060E0C4
:1007D00080E00E947503F60180818E7F8083F8019E
:1007E000808181608083808188608083F70180813F
:1007F0008E7F8083888180618883CDB7DEB7E8E013
:100800000C94DC23FC018091820290918302861774
:100810009707A0F06115710529F49091E8009E7783
:100820009093E80090E06115710551F4911108C0B2
:100830008091E80082FF34C080E00895BC01F2CFCF
:1008400080917A028823C1F18530C1F18091E8005E
:1008500083FD30C08091E80082FDEACF8091E800FE
:1008600080FFE1CF8091F3002091F200382F6115D5
:10087000710519F02830310558F091E02830310524
:1008800009F090E02091E8002E772093E800CBCF8C
:1008900081918093F100615071092F5F3F4FE7CF45
:1008A00080917A02882341F0853041F08091E80000
:1008B00083FFBECF81E0089582E0089583E008952C
:1008C0008091570208959C014FB7F89480914F0290
:1008D00090915002A0915102B09152024FBF821BE1
:1008E000930B08952FB7F89480914F029091500286
:1008F000A0915102B09152022FBF089520910D0195
:100900002223C9F02091530227FF15C0E62FE69558
:10091000E695E695EE31D8F4E80FF92FF11D6770F2
:1009200021E030E001C0220F6A95EAF7209582812C
:10093000282322830895FC013296089621916213A0
:1009400003C0DF0111971C92E817F907B9F7089562
:1009500020910D012223C1F02091530227FF14C0E2
:10096000E62FE695E695E695EE31F8F4E80FF92FD7
:10097000F11D677021E030E001C0220F6A95EAF7AF
:100980008281822B82830895FC0132962FEF30E022
:100990004191641751F02F3F19F4411101C0232FE9
:1009A0003F5F3630A9F72F3F09F40895820F911D5C
:1009B00027FD9A95FC0162830895A3E0B0E0E3EE81
:1009C000F4E00C94C62320914C0230914D0228177C
:1009D0003907A1F090934D0280934C02E0914A02B6
:1009E000F0914B02309751F024E029839B838A8356
:1009F0000680F781E02DCE01019609952396E2E06D
:100A00000C94E223A3E0B0E0E8E0F5E00C94C62308
:100A1000209148023091490228173907A1F090939C
:100A2000490280934802E0914A02F0914B023097CC
:100A300051F023E029839B838A830680F781E02D90
:100A4000CE01019609952396E2E00C94E223E09111
:100A50004A02F0914B02309729F00190F081E02D8D
:100A60000995089580E00895FA01811101C0FB0104
:100A700009950895089580914002982F9E7F61F412
:100A8000817082608093400280914302803C18F024
:100A90008FEB8093430208958432B0F381708262B9
:100AA000F1CFAF92BF92DF92EF92FF920F931F931D
:100AB000CF93DF93082F162FE901E42FF0E0E258DF
:100AC000FD4F611110C0E4915E2F4E2F4983E883E2
:100AD0005A83DF91CF911F910F91FF90EF90DF909C
:100AE000BF90AF900895E62EF12C4491D42EE42FC0
:100AF000F0E026E0829FC00111242FEF30E0B90121
:100B00000E948123802F90E0880F991F55E5569F02
:100B1000D001579FB00D11248A1B9B0B982F990F62
:100B2000890F5901AE18BF08AE9ED001AF9EB00D1F
:100B3000BE9EB00D11245B2F189F80011124012F40
:100B400011275901A01AB10AAE9E8001AF9E100D67
:100B5000BE9E100D11245901A81AB108AE9CC00107
:100B6000AF9C900DBE9C900D1124892F9927281BB6
:100B7000390B2E9FC0012F9F900D3E9F900D112489
:100B8000E92F62307105A1F050F46115710509F487
:100B90009DCF6130710581F0EB2F512F97CF6430DD
:100BA000710569F080F06630710509F48FCFF4CFDC
:100BB000E42F4B2F592F8ACFE42F412F87CFEB2FD4
:100BC000542F492F83CF4B2F5D2DE12F7FCF0E94D4
:100BD00072049C019091EC018091ED01982B21F021
:100BE0003093E9012093E8019091EE018091EF01AB
:100BF000982B21F03093E7012093E601E0914A021F
:100C0000F0914B02309749F082E08093EA01048032
:100C1000F581E02D8AEE91E0099508958091E50136
:100C200080FD16C081FD16C082FD16C08091E401D2
:100C30008823A1F0883280F428E0829FC00111242B
:100C400068E270E00E949523862F672B39F00895A3
:100C500082E0089584E0089588E0089581E0089591
:100C60008091E50180FD14C081FD14C082FD16C095
:100C70008091E301882381F08E3180F420E5829F0A
:100C8000C00111246EE170E00E949523862F089523
:100C900084E1089588E2089588E0089580E5089544
:100CA00080E00895F894E82FE295EF70F0E031A12C
:100CB000282F2F7081E090E001C0880F2A95EAF775
:100CC000982F9095932391A392A1892B82A3789436
:100CD00008959091530292FF06C0282F2871283062
:100CE000F9F4877F846093FF06C0282F287128318C
:100CF000F1F4877E84612091540220FF06C0382FD2
:100D000038713830D9F4877F816021FF06C0282FE1
:100D100028712831D1F4877E816194FD877E089502
:100D2000282F24712430F9F68B7F8860DCCF282FA0
:100D30002471243101F78B7E8861DDCF382F31712A
:100D4000313019F78E7F8860E0CF282F2171213153
:100D500021F78E7E8861E1CF82389105B9F1B0F438
:100D60008133910509F47DC048F48932910509F475
:100D70006DC08A32910509F47BC0089585339105D1
:100D800009F45FC08933910509F10895833E910507
:100D9000D9F138F4803E910529F1823E910579F12F
:100DA0000895863E9105D9F1873E910509F43EC02C
:100DB000843E910541F52091540221FF24C0809189
:100DC000530284FD19C087EE90E0089520915302EC
:100DD000237009F05AC02091540223FF14C089E205
:100DE00090E008952091530220FD38C030915402C4
:100DF00030FF09C024FF43C090E080E008952091B7
:100E0000530222FDF7CF08952091530222FD3AC0EC
:100E10003091540230FD39C024FFF5CFEDCF209141
:100E2000530223FFF0CF24FDE7CFCDCF2091530213
:100E300023FD2EC03091540231FFEECF84EE90E0BE
:100E400008952091530225FFDECFC9CF2091530290
:100E500025FD21C02091540223FFD5CF89E390E0E6
:100E6000D2CF2091530226FFCECF8AE290E00895A0
:100E70002091530226FFC7CF81E390E0089583EECF
:100E800090E0089582EE90E0089580EE90E008955D
:100E900086EE90E0089585E390E008951F93CF9348
:100EA000DF930E94AC06EC01C11580E5D807F0F590
:100EB000C11580E4D80708F09CC0C03ED10520F5DC
:100EC000CD3CD10508F082C0C83AD10578F4C53AC6
:100ED000D10508F073C0C130D10519F1209709F18F
:100EE000C430D105F0F4D0E0C0E01BC0C33CD10554
:100EF000D0F7C85AD0E0CC0FDD1FCF5EDE4F09908F
:100F0000D881C02DD4640DC0C11580E2D80708F087
:100F1000D1C0C11581E0D80708F05AC0C83ED1053C
:100F200010F7CE01DF91CF911F910895C03682E571
:100F3000D80718F5C03482E5D80708F06BC0C03276
:100F400082E5D80708F05FC0C11582E5D80708F42C
:100F500097C02C2F2695269580E2289F900111247A
:100F60008C2F8370C1E0D0E002C0CC0FDD1F8A95CA
:100F7000E2F7C22BD32BDD68D4CFC03A82E5D80785
:100F800060F4C03882E5D80708F459C0CF71D0E0CA
:100F9000DC2FCC27C46FD06AC4CFC03C82E5D80711
:100FA00008F462C0C03E82E5D80708F09CCFDC2F71
:100FB000CC27CC27DF71C06FD06AB3CFC55AD0E041
:100FC000C25FDE4FC881D0E0D064ABCFD065A9CF7F
:100FD0008D2F0E946906182FCE0199270E94AC061A
:100FE000C12FD0E0DC2FCC27CC27DF71C82BD92B29
:100FF00098CFCE0199270E94AC06CC27DF70C82B72
:10100000D92BD06A8ECFCF71D0E0DC2FCC27C16F27
:10101000D06A87CF2C2F26952695277080E2289FAF
:10102000900111248C2F8370C1E0D0E002C0CC0F5E
:10103000DD1F8A95E2F7C22BD32BDC6872CF2C2FF1
:1010400026952695277080E2289F900111248C2FE9
:101050008370C1E0D0E002C0CC0FDD1F8A95E2F7BB
:10106000C22BD32BDA685DCF8C2F8F710E9469065B
:10107000C82FD0E0DC2FCC27CC27DF71D06251CF36
:101080008C2F8F710E94690655E0D695C7955A95A9
:10109000E1F7CF70D0E0DC2FCC27282F30E084FFA1
:1010A00005C044E0220F331F4A95E1F7C22BD32B32
:1010B000D06937CF8D2F8F710E946906182FCE010E
:1010C00099270E94AC06C12FD0E0DC2FCC27CC277B
:1010D000DF71C82BD92BD2CF80959091C90198236D
:1010E0009093C90108958091BD0290918402981354
:1010F00001C008958F5F8770FACF953080F58430F6
:1011000070F544E0949F90011124820F932F911D5C
:10111000682F677023E0969587952A95E1F7FC0183
:10112000EE0FFF1FE80FF91FEA56FE4F50E040E0B8
:1011300080E0219130E0062E02C0369527950A9472
:10114000E2F721703327042E01C0220F0A94EAF738
:10115000822B4F5F5F4F4330510559F7089580E070
:101160000895953098F5843088F544E0949F900177
:101170001124820F932F911D282F277041E001C069
:10118000440F2A95EAF723E0969587952A95E1F78B
:10119000FC01EE0FFF1FE80FF91FEA56FE4F90E02B
:1011A00080E070E05191DF0111979B01082E02C091
:1011B000369527950A94E2F7217021952527242357
:1011C00025272C9301968330910561F7089580932C
:1011D000D50108959091D50121E030E0F90101C0D9
:1011E000EE0F8A95EAF7D90102C0AA0FBB1F6A95D4
:1011F000E2F7EA2B01C0220F4A95EAF7892F8E23E6
:10120000E81305C0292B822F0E94E7080895209536
:101210002923F9CF21E030E001C0220F8A95EAF7B7
:1012200020958091D50182230E94E708089590912E
:10123000A601809589238093A601282F277069F441
:10124000891759F09091540292FF07C086958695B0
:1012500086950E940A091092A601089521E030E0C7
:1012600001C0220F8A95EAF78091D501822B0E9456
:10127000E70808958093CA010895662309F45DC0C4
:101280008D3C41F40E94300681958093ED010E94CF
:10129000E70508958E3C19F40E943006F6CF8F3C86
:1012A00031F40E94300681958093EC01F0CF803DAF
:1012B00019F40E943006F8CF893D29F40E940E06E9
:1012C0008093EE01E4CF8A3D21F40E940E068195C1
:1012D000F7CF8B3D31F40E940E0681958093EF018C
:1012E000D6CF8C3D19F40E940E06F8CF9FE2980FDE
:1012F000983070F4815D990B21E030E001C0220F3D
:101300008A95EAF78091EB01822B8093EB01BFCFA6
:101310008D3D31F48091E50181608093E501B7CF87
:101320008E3D21F48091E5018260F7CF8F3D09F079
:10133000AECF8091E5018460F0CF4091EC018D3C0F
:1013400059F48091ED0187FF0DC01092ED0141111C
:101350000BC01092E30108C08E3C81F48091ED0136
:1013600018169CF3442381F08091EE019091EF01D7
:10137000892B09F08CCF1092E40189CF8F3C49F47E
:1013800047FFF0CF1092EC018091ED018111ECCF7D
:10139000E0CF803D19F41416ACF3E4CF9091EE0148
:1013A000893D29F41916F4F61092EE01DBCF8A3D3F
:1013B00019F497FFD7CFF8CF9091EF018B3D29F427
:1013C00097FFD0CF1092EF01CDCF8C3D19F41916B5
:1013D000CCF3C8CF9FE2980F983090F4815D990BC1
:1013E00021E030E0B90102C0660F771F8A95E2F76D
:1013F000CB0180959091EB0189238093EB01B2CFD3
:101400008D3D31F48091E5018E7F8093E501AACF77
:101410008E3D21F48091E5018D7FF7CF8F3D09F05E
:10142000A1CF8091E5018B7FF0CF0F931F93CF93D6
:10143000DF938B01EA0190917A02943061F58093F9
:10144000E9008FEF9091E800815095FD06C095ED81
:101450009A95F1F700008111F5CF8091E80085FFA2
:101460001AC00E942503811111C08091E80085FDFA
:1014700006C08091E8008E778093E800F2CFF801F3
:1014800081918F018093F100219779F78091E80095
:101490008E778093E800DF91CF911F910F9108958F
:1014A00043E050E0BC0184E00E94150A089546E044
:1014B00050E0BC0184E00E94150A0895CF93DF93A9
:1014C000EC0180910D01811111C048E050E0BE0196
:1014D00081E00E94150A80E2FE01A8E5B2E00190D9
:1014E0000D928A95E1F7DF91CF9108958091530293
:1014F00087FF05C040E284E050E0BE01EACF48E04B
:1015000081E0FACF81E08093E00080E28093D80010
:101510001092C9008FE19EE40197F1F700C000002E
:1015200087E090EBDC018093C1029093C202A0930C
:10153000C302B093C40288E19CE00FB6F894A8956A
:10154000809360000FBE90936000FFCF80914002B7
:1015500080FD0AC0E8EFF1E011821082128233961A
:1015600052E0E331F507C1F73F9A38B13F7728B130
:1015700020684FB7F89488EF91E0FC015191CF01BA
:1015800068E028B9000000C057FF38B9550F0000C7
:1015900000C000C000C038B900C06A9591F7F2E001
:1015A00083319F0751F74FBF8FE594E00197F1F723
:1015B00000C000000895EF92FF921F93CF93DF9336
:1015C000EC0188EFE82E81E0F82E10E04091430214
:1015D000403C08F04FEB8C81970160914202810FF3
:1015E0000E945105145E83E0E80EF11C1C3F71F768
:1015F0000E94A60A9A818C8190FF08C08F5F8C831D
:10160000DF91CF911F91FF90EF9008958150F7CF18
:101610009091400290FF0CC0E8EFF1E0818360837D
:101620004283339692E0E331F907C1F70E94A60A9C
:101630000895A3E0B0E0EFE1FBE00C94C4238C013B
:10164000DC011496EC91F0E0E258FC4F449180915B
:10165000400280FF11C0403C08F04FEB9E012F5F1D
:101660003F4F60914202809141020E9451054B819F
:1016700069818A810E94080BF80184818F5F8483CD
:101680002396E4E00C94E023CF93DF93C9ECD0E001
:1016900060E0CE010E94BD242196C11584E0D807E8
:1016A000B9F7DF91CF9108951F93CF93DF93122F56
:1016B0008430E0F46530D0F44430C0F498E0699FA1
:1016C000E001112450E0440F551FC40FD51F98E2CC
:1016D000899FC00DD11D1124632FCE0189960E94D0
:1016E000BD24612FCE018A960E94BD24DF91CF9147
:1016F0001F910895B0E0A0E0E0E8FBE00C94C02367
:1017000010E000E08EE7E82E84E0F82EC0E017C07D
:1017100001151105B9F4F601259134914D2F6C2F67
:1017200080E00E94540B82E0C80ED11CDF5FD430F1
:1017300079F7CF5F88E0E80EF11CC53049F067010A
:10174000D0E0E6CF21E030E04D2F6C2F802FE9CFA5
:101750000F5F1F4F04301105A9F6CDB7DEB7E8E0E3
:101760000C94DC23CF93C82F6FEF811163E285E2E5
:1017700090E00E94BD246FEFC11166E086E290E028
:101780000E94BD246FEFC11161E187E290E00E94E9
:10179000BD24CF91089580E00E94B20B60E088E202
:1017A00090E00E94BD240E947A0B0E94440B81E0CD
:1017B0000E94B20B08950F931F93CF93DF93843051
:1017C00030F5653020F5443010F528E0629F800147
:1017D000112450E0440F551F040F151F38E2839F5A
:1017E000000D111D1124C80189960E949924C82F4B
:1017F000D0E0DC2FCC27C8018A960E9499249E0154
:10180000282BC901DF91CF911F910F91089590E08E
:1018100080E0F8CF462F753040F4643030F48430E7
:1018200020F4672F0E94DB0B089590E080E008957C
:10183000CF92DF92FF920F931F93CF93DF936C01B0
:101840000091D5018091CA01082BC3E0D0E010E0DF
:10185000FC2EC8010C2E02C0959587950A94E2F7DC
:1018600080FD0CC02197A0F7F12C8F2DDF91CF9137
:101870001F910F91FF90DF90CF900895B6018C2FAC
:101880000E940A0C0E944E07019761F3EECFCF939E
:10189000DF93EC010E94180CBE010E940A0C0E940A
:1018A0004E07DF91CF910895FC0124812223C1F0DE
:1018B000808191810E94470C92959F70963091F0A3
:1018C00058F4925F9F70923058F4803F19F030F4D2
:1018D000883E30F481E008959A5FF4CF843FD1F3DD
:1018E00080E00895883EB0F3813FD1F7F3CFA6E0C2
:1018F000B0E0EDE7FCE00C94C52349835A834981AD
:101900005A819923A1F0222391F0CA010E94180C58
:10191000182F682F89819A810E94B10869817A8184
:10192000812F0E940A0C2696E3E00C94E123CA0161
:101930000E947D08182FF2CF85E290E00E94992442
:10194000833289F486E290E00E949924863059F42B
:1019500087E290E00E94992491E0813109F090E0C3
:10196000892F8170089580E0FCCFB0E0A0E0EBEB20
:10197000FCE00C94B823FC016280448081E0848305
:10198000EEE7F3E07490EDEFF3E0E49100914302B1
:101990000695015810E0000F111F012F1127C3E118
:1019A000D2E028EFC22E21E0D22E30E4832E32E0A6
:1019B000932EAA24AA94B12C55245A94E719EE2EFA
:1019C000F12C82E0861530F080914102888380916D
:1019D00042028983411019C01B821A824A81403C0D
:1019E00008F04FEB9601698188810E945105259688
:1019F00083E0C80ED11C8C169D0619F70E94A60A1A
:101A0000CDB7DEB7E0E10C94D4238B818823E9F0D5
:101A100081508B83859DC00111246C8170E00E94F0
:101A20008123FB01FF27E258FC4F8491E82FE7193F
:101A3000E59DC0011124B7010E94812380914302DA
:101A4000689FB00111247A83C9CF0E946F24B50129
:101A50000E949523801791070CF0C0CF82E0861575
:101A600088F40E946F24B5010E94952388830E9408
:101A70006F24209142022695622F70E00E949523E8
:101A8000280F29831A8280914302893C20F088EC38
:101A90008C838B83A3CF8431D8F784E1F9CFB0E076
:101AA000A0E0E5E5FDE00C94BC2349015A016B017F
:101AB0007C010E943B058401A4016A2D7B2D88E0F6
:101AC00090E00E94CF2494014A2D5B2DB601C701FE
:101AD00000E20E940824622F84E290E00E94BD246C
:101AE000CDB7DEB7ECE00C94D823A3E0B0E0EBE791
:101AF000FDE00C94C223082FF62E142FE22E8091C5
:101B0000400280FF31C0E82FE695F0E0E05BFE4F39
:101B100090819093F6018E7F823051F5403C08F021
:101B20004FEB9E012F5F3F4F6F2D802F0E9451057D
:101B30004B8169818A810E94080B00934102F092D7
:101B4000420210934302EE2079F02091400260910E
:101B5000440270914502302F4F2D512F8091460243
:101B6000909147020E944F0D2396E6E00C94DE23ED
:101B7000923019F410914302E0CF9630F1F60091C3
:101B80004102DBCFE0E4F2E0438121E1421B08F4B3
:101B900040E021E0628181810E94750D0895E0E4BA
:101BA000F2E0438121E1420F08F44FEF21E062812E
:101BB00081810E94750D0895E0E4F2E0628121E1E7
:101BC000621B08F460E021E0438181810E94750D71
:101BD0000895E0E4F2E0628121E1620F08F46FEF22
:101BE00021E0438181810E94750D0895E0E4F2E0D7
:101BF000818121E04381628188500E94750D0895A2
:101C0000E0E4F2E0818121E043816281885F0E940B
:101C1000750D089580914402882319F081508093B6
:101C20004402209140023091410240914202509181
:101C30004302609144027091450280914602909166
:101C400047020E944F0D089580914402833018F49A
:101C50008F5F809344022091400230914102409175
:101C6000420250914302609144027091450280917A
:101C70004602909147020E944F0D089590914002B4
:101C800090FF34C09170811132C0926090934002F5
:101C9000662391F02091400230914102409142022E
:101CA0005091430260914402709145028091460236
:101CB000909147020E944F0D60914002669570E03E
:101CC00041E050E08CE091E00E947F24892BB1F04C
:101CD0001092F70181E08093F30120E040914302EC
:101CE00060914202809141020E94750D08958231F7
:101CF00010F09262CBCF880F982BC8CF81E08093F1
:101D0000F7010E9472049093F1018093F001E2CFF9
:101D1000809140028695815009F481E161E00E9442
:101D20003E0E08958091400286958F5F823108F0C3
:101D300081E061E00E943E0E08959091400290FF84
:101D400008C09695981728F0961718F40E94920EDE
:101D5000089561E00E943E0E0895E0E4F2E083E021
:101D6000808311828FEF82838FEB8383148275814E
:101D700023E030E04FEF5FEB60E0868197810E94C7
:101D80004F0D08958091C9019091C801892B8093CE
:101D900074019091C7019923A1F0892B809374015C
:101DA00080910D018823E1F18091530287FF38C0B3
:101DB0008EE1E6E7F1E090E08150A0F591111092FC
:101DC000C70140E250E067EA71E084E791E00E94D9
:101DD0008C24892B21F180E2E4E7F1E0A7EAB1E06D
:101DE00001900D928A95E1F7E0914A02F0914B0241
:101DF0003097A9F080910D01882359F0809153020A
:101E000087FF07C0809174018093750186E08093FD
:101E100074010280F381E02D84E791E00995089533
:101E200086E0C7CF2191222339F29F5FC5CF882357
:101E300021F00E946C080E94C20E0895882339F098
:101E40009091C901982B9093C9010E94C20E0895E8
:101E5000882399F19CEF980F913A40F4682F84E71A
:101E600091E00E947E040E94C20E089590E2980FB5
:101E7000983050F4877091E001C0990F8A95EAF785
:101E8000892F0E946C08EFCF9BE5980F933028F4C0
:101E900090E080E00E940205089598E5980F9B313C
:101EA00028F490E080E00E94DD04089593E3980F09
:101EB000933118F460E00E943D090895CF93C82F34
:101EC0008823D9F18CEF8C0F813AC8F580910D01F0
:101ED000882311F18091530287FF1EC0EC2FE695F5
:101EE000E695E695F0E0EC58FE4F828190E04C2FAD
:101EF000477021E030E002C0220F331F4A95E2F71D
:101F000082239323892B91F06C2F84E791E00E9428
:101F10007E040E94C20E0AC0E6E7F1E08CE791E081
:101F20002191C21789F38E179F07D1F76C2F84E791
:101F300091E00E94A8040E94C20ECF91089580E211
:101F40008C0F883068F4C77021E030E001C0220FA8
:101F5000CA95EAF78091C901822B8093C901EBCF22
:101F6000EBE5EC0FE33040F4F0E0E25FFE4F808100
:101F700090E00E940205E1CFE8E5EC0FEB3150F470
:101F8000F0E0EE0FFF1FEF5EFE4F808191810E9417
:101F9000DD04D3CF83E38C0F833178F661E08C2F9F
:101FA0000E943D09CACF1F93CF93DF93182FD0E033
:101FB000C0E0893311F4C0E5D0E0812F0E945E0FAC
:101FC000209739F4812F0E94280FDF91CF911F9124
:101FD00008958FE99FE00197F1F700C00000219775
:101FE000EFCF0F931F93CF93DF93C62FD42F022FE2
:101FF000FC0185818823A9F06093C0020E947204CD
:102000009093BF028093BE02C77081E001C0880F29
:10201000CA95EAF70E941E0FDF91CF911F910F9191
:1020200008958091C002681332C08091BE029091E1
:10203000BF020E946304883C910548F510E21D0F21
:10204000CD17B9F080E28C0F883040F4C77081E082
:1020500001C0880FCA95EAF70E94170F183048F49C
:1020600081E09D2F977001C0880F9A95EAF70E9432
:102070001E0F802F0E94D30F183070F6D77081E0AA
:1020800001C0880FDA95EAF70E94170FC5CFC77015
:1020900081E001C0880FCA95EAF7F6CF909154020B
:1020A00092FB222720F9281779F080FB92F9909370
:1020B0005402609153027091540284E090E00E94B7
:1020C000DB2482E00E941709089590E080E00E94DE
:1020D000A724863E9E4F19F40E949C0C089580E030
:1020E00008951092C90180910D01E6E7F1E088237F
:1020F00029F18091530287FF21C08EE1DF011D92FB
:102100008A95E9F790E080E00E94020590E080E087
:102110000E94DD041092C8010E94C20E86E0EAEE21
:10212000F1E0DF011D928A95E9F71092E301109228
:10213000E4011092E5010E94E705089586E0DECFF4
:10214000AAE2B0E0E6EAF0E10C94C5238CE792E065
:102150002091F100DC012D93CD01B2E084389B0782
:10216000B9F780917D02833009F472C0B8F48130F0
:1021700009F449C0823009F4B3C08091E80083FFBC
:102180008BC280917C0290917D029A3008F084C2CB
:10219000E92FF0E0EA5AFA4D0C94A9238A3009F4A9
:1021A0008EC08B3009F471C0893039F780917C0280
:1021B000813219F78091800290918102009711F08D
:1021C0000297D9F68091E800877F8093E80080919C
:1021D000E80082FF38C09091F3008091F2000297EE
:1021E00031F48091F100813011F0863021F480913A
:1021F000F100809357028091E8008B778093E8008C
:102200000E945603BACF80917C02813A09F0B5CF83
:102210008091E800877F8093E80080918002909110
:102220008102892B61F460E288E592E070E00E940F
:1022300002048091E8008B778093E8009ECF60E0F5
:1022400090E080E0F3CF80917A028111C0CF95CFEA
:1022500080917C02813A09F090CF80918002909128
:102260008102892B09F089CF8091E800877F8093D4
:10227000E8008091E80080FFFCCF80910D01809301
:10228000F1008091E8008E77B9CF80917C02813295
:1022900009F073CF8091800290918102892B09F01F
:1022A0006CCF8091E800877F8093E8000E945603FE
:1022B00080917E0280930D010E9471105ECF80910B
:1022C0007C02813209F059CF8091E800877F8093AA
:1022D000E8000E94560380917F02809356024DCF02
:1022E00080917C02813A09F048CF8091E800877F95
:1022F0008093E8008091E80080FFFCCF8091560237
:10230000BECF803899F0823809F0C6C18091800232
:102310008F70873008F0C0C18093E9008091EB0096
:1023200085FB882780F91092E90006C08091780229
:1023300090917902911182609091E800977F90933B
:10234000E8008093F1001092F1008091E8008E7710
:102350009FC1882309F48DC1823009F09DC180910D
:102360007E02811190C1809180028F702FEF280F23
:10237000263008F091C18093E9002091EB0020FF06
:1023800082C1933031F48091EB0080628093EB0046
:102390007AC19091EB0090619093EB0021E030E0E6
:1023A00001C0220F8A95EAF72093EA001092EA0012
:1023B0008091EB008860EACF81116EC110917E029E
:1023C0001F778091E3008078812B8093E3008091D8
:1023D000E800877F8093E8000E9456038091E80020
:1023E00080FFFCCF8091E30080688093E30082E06F
:1023F000111183E080937A024FC18058823008F037
:102400004BC120917E0230917F022C3DE3E03E07DC
:10241000A1F583E08A838AE289834FB7F894DE01CD
:10242000139620E03EE051E2E32FF0E05093570096
:10243000E49120FF03C0E295EF703F5FEF708E2FB5
:1024400090E0EA30C0F0C7968D939D932F5F2431C2
:1024500059F74FBF8091E800877F8093E8006AE2D8
:1024600070E0CE0101960E9402048091E8008B7713
:102470008093E80011C1C096E7CF809180029091CF
:102480008102432F55274330510509F44AC078F59E
:102490004130510509F47AC08BE590E0E6EAF4E0BA
:1024A0004230510509F0F8C02091E800277F2093C1
:1024B000E80020918202309183028217930708F48A
:1024C0009C0140E02115310509F065C0411163C050
:1024D0008091E80082FDC9CF80917A02882329F299
:1024E000853019F28091E80083FFF2CFBECF4132F0
:1024F000510509F43CC04232510509F0CDC083308A
:10250000910508F0C9C0FC01EE0FFF1FEB59FE4F0B
:102510000190F081E02D8E599E4FDC018C9190E06E
:102520001AC0332721303105D1F02115310561F072
:102530002230310509F0B0C0E3E1F5E0E4918E2FDF
:1025400090E0E3E1F5E007C0E5E5F5E0E4918E2FEA
:1025500090E0E5E5F5E0009709F49EC0A5CFEFE235
:10256000F5E0E4918E2F90E0EFE2F5E0F4CF8330D8
:10257000910508F091C0880F991FFC01E559FE4FA5
:102580000190F081E02D89E090E08ECF82E190E033
:10259000E1E0F5E089CF80917A02882309F465CFE4
:1025A000853009F462CF8091E80083FD5ECF809191
:1025B000E80082FD8DCF8091E80080FF83CF90916D
:1025C000F3008091F2002115310519F08830910552
:1025D00050F041E0089709F040E08091E8008E77E4
:1025E0008093E8006FCF44914093F10031962150E1
:1025F00031090196E8CF803809F04EC08091E8009B
:10260000877F8093E80080917B028093F1009DCECC
:10261000811142C010917E021230F0F58091E800E5
:10262000877F8093E80010937B020E94560311235A
:1026300011F084E005C08091E30087FDFACF81E0CE
:1026400080937A0242E061EC81E00E94750342E2ED
:1026500061EC84E00E94750342E261EC82E00E943A
:10266000750342E260EC83E00E94750380917A0278
:1026700013C080917E02813079F481E0933009F0BB
:1026800080E0809379021092E9008091E800877FD2
:102690008093E8000E9456038091E80083FF0AC0FF
:1026A0008091E800877F8093E8008091EB00806252
:1026B0008093EB00AA96E3E00C94E1230E94711052
:1026C0002FEF84E39CE0215080409040E1F700C070
:1026D000000088E19CE00FB6F894A8958093600014
:1026E0000FBE90936000FFCFA8E0B0E0EAE7F3E10F
:1026F0000C94B8238C01DC0114968C9114978823D8
:1027000009F4B7C021E04C9111965C911197129693
:102710006C91129713967C91139715969C910E9439
:10272000770C7C01F8018581882309F43BC1C7013E
:1027300097578038910508F083C5FFE0FE1508F42F
:1027400088C08FEF93E00E949924811182C069ECC8
:10275000A62EB12CE11047C0FE01339686E0DF01C2
:102760001D928A95E9F75AE0452E7501BFEFEB1AE5
:10277000FB0AC5010E94992489831A82882309F4DF
:1027800068C0813009F079C06501E2E0CE0ED11C4D
:10279000C7010E9499248A83882309F45AC09FEFB5
:1027A000980F933070F5F3E0AF0EB11CC6010E9494
:1027B00099248B83882309F44CC01C82DE01119676
:1027C0007D01F7012081222381F2213009F095C09B
:1027D00091818281913009F052C0F2E0EF0EF11C3C
:1027E0000E94D30F53C0A11424E0B20691F1C50199
:1027F0000E949924811101C0EA943FEFA31AB30A01
:10280000A9CF56018430D1F642E0E42EF12C5601D6
:102810002FEFA21AB20AC6010E949924E1E0F0E06B
:10282000EC0FFD1FEE0DFF1D8083882391F08C3788
:1028300041F4E2E0F0E0EC0FFD1FEE0DFF1D108211
:10284000BDCF3FEFE31AF30A650187E0E816F10414
:10285000F1F68091A601877061F0D80115968C91F0
:10286000882339F08091540282FF03C082E00E94E5
:1028700017092896E0E10C94D42357019FCF92309A
:1028800049F422E0E20EF11C0E945E0FEFEFEE1A17
:10289000FE0A97CF933031F432E0E30EF11C0E9430
:1028A000280FF4CF943021F08FEFE81AF80AEECF1A
:1028B00092E0E90EF11C30E020E0B7016F5F7F4F3E
:1028C000D70111964C918053990B8A30910550F0A5
:1028D00021503109D8F2EFE9FFE03197F1F700C05C
:1028E0000000F6CF429EF001439EF00D11249C01A2
:1028F0002E0F3F1F842F7B01E0CFE22FF0E0EC5042
:10290000FE4F5490822F86958695869590E0FC0127
:10291000EC51FE4F64902770712C022E02C075940A
:1029200067940A94E2F731E063227724FC01EC52C9
:10293000FE4F8490912C022E02C0959487940A94A5
:10294000E2F7A1E08A229924FC01EC53FE4FC490E7
:10295000D12C02C0D594C7942A95E2F7B1E0CB22DE
:10296000DD246114710419F081EE0E945E0F811460
:10297000910419F086EE0E945E0F852D0E94D30F00
:102980008114910419F086EE0E94280F61147104DD
:1029900019F081EE0E94280FC114D10409F476CFFA
:1029A0008CE21ECFF701E851FC47E730F10508F053
:1029B00033C4E05AFA4D0C94A92326E241EE61EEAD
:1029C000C8010E94F10F45CF27E245EE65EEF8CF32
:1029D00026E241EE60EEF4CF27E245EE64EEF0CF62
:1029E00026E241EE62EEECCF27E245EE66EEE8CF5E
:1029F00028E241E0EBCF8091530281608093530243
:102A000095C0809154028860809354028FC0809159
:102A100053028260F3CF809153028460EFCF8091A4
:102A200053028860EBCF809154028160EDCF80919A
:102A300054028260E9CF809153028061DFCF8091A0
:102A400053028062DBCF809153028064D7CF0E9413
:102A50007110809153028068D1CF809153028C60B5
:102A6000CDCF809154028360CFCF809153028E7F6F
:102A7000C5CF80915402877FC7CF809153028D7F4D
:102A8000BDCF809153028B7FB9CF80915302877F56
:102A9000B5CF809154028E7FB7CF809154028D7F45
:102AA000B3CF809153028F7EA9CF809153028F7D47
:102AB000A5CF809153028F7BA1CF0E94711080918E
:102AC00053028F779BCF80915302837F97CF809162
:102AD00054028C7F99CF8091530282FB992790F901
:102AE00021E0922790FB82F990FB83F987CF8091B8
:102AF0005402982F909591708E7F892B90FB81F9CD
:102B000083CF90915302892F8F7B96FF806476CF7D
:102B10000E94711090915302892F97FB87F980587A
:102B20006DCF61E08EE090E00E94BD246091530281
:102B30007091540284E090E00E94DB240E947110A6
:102B400088CE60E0EFCF90915302892F8F7E94FF63
:102B5000806154CF90915302892F8E7F90FF8160C6
:102B60004DCF90915402892F877F93FF88604CCF7F
:102B70008091940169E2811165E384E791E00E940C
:102B80007E0447C3F7E7EF16FCE7FF0609F010C322
:102B900081E00E942E0943E062E081E00E94EA08A1
:102BA00058CE8091400280FF19C0282F2E7F20939D
:102BB00040023091410240914202509143026091A3
:102BC00044027091450280914602909147020E9412
:102BD0004F0D1092F7010E94A60A3BCE81608093B0
:102BE000400261E086950E943E0E33CE48E85EE0EA
:102BF00062E97EE00E9434052CCE42E95EE068E89E
:102C00007EE0F8CF46EF5DE060E07EE0F3CF40E0AD
:102C10005EE066EF7DE0EECF4CED5DE069EE7DE0DD
:102C2000E9CF49EE5DE06CED7DE0E4CF42EC5DE0A4
:102C30006FEC7DE0DFCF4FEC5DE062EC7DE0DACF62
:102C40004AE05EE064E27EE0D5CF44E25EE06AE026
:102C50007EE0D0CF61E081E0C6CF65E082E00E94F7
:102C60009D0EF7CD6BE086E0FACF61E18CE0F7CF07
:102C700027E7E2162CE7F20609F457C038E7E31617
:102C80003CE7F30609F455C0F8018581E080F18046
:102C9000882309F482C0C7010E94180CD82E682F1F
:102CA000C7010E94B108B7018D2D0E940A0C0E9435
:102CB0004E077C01882ED8011596AC901597169674
:102CC0009C9092943FE093228091A6018770F1F04E
:102CD000CA2CAA20E1F08F2D807F803451F080E251
:102CE0008E0D883098F0911004C08F2D807E803238
:102CF00069F08091540282FF09C082E00E941709A6
:102D00008091A6018770CC24C3948111C12CBF2C63
:102D1000B2942FE0B222BBE0BB1508F4A6C0EB2DA5
:102D2000F0E0E959FA4D0C94A92381E00E940A09C8
:102D300032CF82E0FBCFEBE5EE16ECE7FE0659F171
:102D4000FCE5EF16FCE7FF06E1F02AE5E2162CE7CA
:102D5000F20609F099CF81E01BC00E9471103FEF8D
:102D600084E39CE0315080409040E1F700C00000D7
:102D70000E94820A6FEF7FEF90E080E00E94DB24E8
:102D800031C28091540282FB882780F991E0892723
:102D90000E944E1079CF80E0FBCFC7010E947D08D2
:102DA000D82E81CFEF2DEF70DE2E8F2D807F19F082
:102DB000D29490EFD922AA20B9F0DD2069F080E208
:102DC0008E0D883010F0811009C08091C901D82A79
:102DD000D092C9010E94C20E8E2D45C08091C801BB
:102DE000D82AD092C801F6CF8E2D0E94280FDD2060
:102DF000E1F180E28E0D883010F0811004C08D2D3D
:102E00000E946C0806C0D0948091C801D822D0924C
:102E1000C8010E94C20E29C0FF2DFF70DF2E8F2D2A
:102E2000807F803219F0D29480EFD822882059F028
:102E300021E0821609F481C0AA2009F48DC09920EE
:102E400009F44FC0C9CF8091540282FD46C0AA2028
:102E5000F1F1DD2039F08091C901D82AD092C90161
:102E60000E94C20E80E00E945E0FAB2DA850BB0BEB
:102E7000149710F40E942705CC20A9F08091A60198
:102E800080FD11C0F80115828695869586950E9471
:102E90002E09C8010E9474138091A601869586951B
:102EA00086950E940A0920E0D8014C9111965C9108
:102EB000119712966C91129713967C911397149612
:102EC0008C91149715969C910E94770CD2CC80E03F
:102ED0000E94280FDD2049F292CFAA20A1F0911084
:102EE00004C08D2D0E941E0FC0CF31E09312BDCFC4
:102EF0008091C7019D2D9823D91609F4B6CFD82A01
:102F0000D092C701B2CF9110B0CF8D2D0E94170F74
:102F10009091C7018D2D892329F08D2D80958923CE
:102F20008093C701809195019D2D982309F49DCF31
:102F3000D094D822D092950198CFAA2029F085E08C
:102F4000891508F492CFCDCF94E0991508F48DCF70
:102F50008D2D0E94170F89CF9920D1F3A9E38A12F2
:102F600009C0BFEFE7EEF3E0B150E040F040E1F719
:102F700000C000008E2D0E94280F77CF8F2D8695E0
:102F80008695837061F0813009F06FCFC70193702F
:102F9000A11002C080E090E00E94DD0466CFC7016E
:102FA0009370A11002C080E090E00E9402055DCF06
:102FB0006A2D8E2D0E943D0958CF8F2D837091F57B
:102FC000A11053CF4E2D429546954770440F440FA4
:102FD0008E2D8F70042E01C0880F0A94EAF72E2DD3
:102FE0002071E4FE07C02FE030E001C0220F4A95B7
:102FF000EAF720953F2D369536953370323069F0DB
:1030000050F44091CA01313029F0822B84230E9470
:103010003A092BCF842B822BFACF282B8091CA011F
:103020008227F5CF8695AA2011F08F2D81708823F5
:1030300009F41BCF4E2D429546954770440F440F1F
:103040008E2D8F70042E01C0880F0A94EAF72E2D62
:103050002071E4FE07C02FE030E001C0220F4A9546
:10306000EAF720953F2D369536953370323069F06A
:1030700050F44091D501313029F0822B84230E94F5
:10308000E708F3CE842B822BFACF282B8091D50131
:103090008227F5CF2F2D2F70F22EAA2029F0822F14
:1030A0000E942E098E2D1ECF8E2D0E94170F8F2D60
:1030B0000E940A09DACE8E2D32EF8316B1F138154F
:1030C00070F090EF8916D1F0A1EF8A1691F0AA2046
:1030D00009F45EC0911080CE8F2D8F712AC0B3EF9E
:1030E0008B1651F1E4EF8E12F2CF8091540282FDE3
:1030F0002FC08F2D8F71AA20D9F21BC0AA2081F07A
:10310000F4E0F91508F4B1CE2F2D2F7181E090E095
:1031100001C0880F2A95EAF79091D5018927AFCF92
:1031200025E0291508F4A1CEEFCF8F2D8F71A110C6
:10313000BFCF0E942E0999CE80E0AA2009F49FCF2C
:103140009F2D9F7181E001C0880F9A95EAF797CF74
:10315000AA2099F03F2D3F71F32E832F0E942E0954
:103160008091540282FF07C0A8E0FA9EC00111249A
:1031700083608093A6018F2DDCCF81E00E94170928
:10318000B1E0B91508F071CE82E00E9417096DCE4A
:10319000992059F0893309F0EDCEEFEFF7EE23E0F7
:1031A000E150F0402040E1F7E3CE8F2D8F7180CFCA
:1031B00082E0B8E7EB16BCE7FB0609F4EACC83E053
:1031C000E8168CE7F80609F4D5CD08F0B4CDE11483
:1031D000ACE7FA0609F4C1CDB1E0EB16BCE7FB069B
:1031E00009F052CD0E945E13E6E1EE16ECE7FE0612
:1031F00009F0C8CC8091C9018A7A91E009F490E085
:103200009093940169E2811165E384E791E00E9463
:10321000A8040E94C20E1DCBF6E1EF16FCE7FF06E4
:1032200009F4A6CC8091C9018272F701E052F847F7
:10323000E531F10508F01CCDED58FA4D0C94A923A9
:10324000F701E851FC47E730F10508F4B2CB1092E2
:10325000C002C7019057839738F684E090E00E943F
:10326000A7249093540280935302F701E150F04752
:10327000E232F10508F0BFCBE857FA4D0C94A923D0
:10328000CF93DF938091A501807F09F04DC080919D
:10329000A401882309F448C0E091BD025091840242
:1032A000C091A001D0919F016091A1017091A201F4
:1032B00047E05E17C9F18E2F90E0E49FF0011124E2
:1032C000EB57FD4F2481222391F1489FF001499F44
:1032D000F00D1124DF01AB57BD4F11962C911197C2
:1032E0002C1325C02C912D1322C015962C911597C7
:1032F00021111DC012962D913C91261B370B283CA5
:103300003105A8F48091A5018F7080618093A5019B
:10331000E557FD4F80818F70806180838FE991E058
:103320000E9474130E947308DF91CF910895FC01ED
:103330003196E770BECFA4E1B0E0E1EAF9E10C9488
:10334000BC238C0186E0F801DE011F9601900D92EE
:103350008A95E1F7F8018481E5809FE9A92E91E043
:10336000B92E9091A301911128C0882319F1EE2064
:10337000F1F0C8010E94540CF82E8823C1F087E0B8
:10338000F801D50101900D928A95E1F78091A30192
:10339000813031F480919F019091A0010E94470CEF
:1033A0000E9440198F2D6496ECE00C94D823C8013C
:1033B0000E947413FF24F394F5CFD080C1808280E3
:1033C0009380F090A4012091A1013091A201A40169
:1033D000421B530BFF2009F4D9C0483C510508F0AB
:1033E00092C08823F9F29091A0018091A501282F25
:1033F000207F09F056C0C91214C090919F01D912C4
:1034000010C0E11048C08F7080618093A5018FE9E2
:1034100091E00E9474138091A501F8018683F12C3C
:10342000C1CFE11038C06C2D8D2D0E94E7026C2DAC
:103430008D2D0E94E702E82E8111F1CFDF86C88A28
:103440008F8598890E94470C292F22952F70243050
:1034500058F49F70223088F0992399F0F8019681F2
:10346000907F79F4FE2C9ECF2A5F2F70223068F077
:10347000C8010E947413EF2CF5CF992311F0882313
:1034800089F3805E883070F3F3CF803F58F3815F1B
:10349000833070F7E7CF8091A50181608093A5010B
:1034A000BECFC91207C090919F01D91203C0EE2070
:1034B00009F48DC0C8010E94540C882309F477CF09
:1034C000EE2009F474CF8091A501803288F020911C
:1034D0009F013091A001398728879B868A86909129
:1034E000A3019C871D868E87CE0108960E947413C7
:1034F00087E0F801AFE9B1E001900D928A95E1F71C
:103500000E94401957CF9091A501292F207F51F497
:103510008FE991E00E94741387E0F50111928A957A
:10352000E9F77DCF882309F43DCF8091A0018C116C
:1035300010C080919F01D8120CC0E1100AC0968380
:10354000C8010E94741387E0F50111928A95E9F78A
:1035500029CFC8010E94540C882309F428CFEE20FB
:1035600009F425CF8091A501803210F220919F01AE
:103570003091A0013A8329839C828B829091A30190
:103580009D831E828F83CE010196B0CF483C5105AA
:10359000D0F6882309F40ECFFE2CEE2009F407CFD5
:1035A0008091A0018C1120C080919F01D8121CC075
:1035B0008091A50180FD0FC0982F907F61F08683D8
:1035C000903F31F0982F907F905F8F70892B86838A
:1035D000C8010E94741387E0F801AFE9B1E00190DF
:1035E0000D928A95E1F7DECEC8010E94540C81113C
:1035F0007FCF8091A50181608093A501C8010E94C1
:103600007413D0CEABE1B0E0E8E0FBE10C94C4234E
:103610004E8B5F8B688F798F8A8F9B8F192F9111BB
:103620001092C8011D8A86E0FE017696DE011F9683
:1036300001900D928A95E1F70A8D002341F021E077
:103640004F85588969897A89C8010E94770C0B8B4C
:103650001C8B87E0FE013F96DE01189601900D92CB
:103660008A95E1F7CE0108960E949B1981110CC042
:1036700087E0FE013896DE01119601900D928A9541
:10368000E1F78C8581110BC017E08091BD0290910C
:103690008402891331C06B96E4E00C94E0232091FE
:1036A000840230E0C9010196877099274091BD02DC
:1036B0004817190699F097E0929FD001939FB00D9B
:1036C0001124AB57BD4FFE01319601900D929A9592
:1036D000E1F7809384020E947308D6CF0E94711094
:1036E000109284021092BD0287E0EFE9F1E0DF0161
:1036F0001D928A95E9F7C8CF819FC00111248B578D
:103700009D4F0E949B19882331F28091BD0290E069
:103710000196877099278093BD02B7CFA6E0B0E0ED
:10372000E4E9FBE10C94C4230E9472048C018091B3
:10373000CB019091CC018017910781F019821A82F8
:103740000E947204682F49815A81792F80E090E0AD
:103750000E94021B1093CC010093CB012696E4E05B
:103760000C94E023A5E0B0E0E8EBFBE10C94BD2372
:103770008E010F5F1F4F85E0F80111928A95E9F7DE
:1037800087E4C82E81E0D82EF12CE12CAA24A39442
:10379000B12CF60181916F018F3F09F443C0F89479
:1037A000E82FE295EF70F0E021A18F70A50102C033
:1037B000440F551F8A95E2F7CA01922F982B91A3C7
:1037C00092A18095892382A3789400C0ECE4F1E073
:1037D000912C31E021912F3F09F465C0A22FA295D1
:1037E000AF70B0E090968C9190E02F7002C09595EC
:1037F00087952A95E2F780FD56C0832F982A330FCC
:1038000051E0E035F50731F7F601319780818F3FC0
:1038100011F00E94520680EA8A95F1F7F801EE0D48
:10382000FF1D9082EFEFEE1AFE0AF5E0EF16F104AD
:1038300009F0AFCF45E050E0B80180ED91E00E9483
:103840008C24892B91F185E0F801A0EDB1E0019085
:103850000D928A95E1F781E08093CF010E94720476
:103860009093CE018093CD018091CD019091CE01B6
:103870000E9463040597E8F045E050E060ED71E0D8
:103880008EED91E00E948C24892BC1F085E0E0ED63
:10389000F1E0AEEDB1E001900D928A95E1F781E0A3
:1038A0001092CF0107C080E0A9CF8091CF01811194
:1038B000DBCF80E02596EBE00C94D92380E0F0CFBD
:1038C000A8E0B0E0E6E6FCE10C94C62366EE7EEFED
:1038D00090E080E00E94DB2460E082E090E00E94C3
:1038E000BD2460E083E090E00E94BD241092CA01F4
:1038F00060E074E184E090E00E94DB2460E086E018
:1039000090E00E94BD246FEF87E090E00E94BD240C
:1039100040E050E0BA0188E090E00E94CF2460E0EF
:1039200084E290E00E94BD2460E087E190E00E9484
:10393000BD2460E08CE090E00E94BD2460E08DE05A
:1039400090E00E94BD2419821A821B821C821D8273
:103950001E821F82188648E050E068E170E0CE01C8
:1039600001960E94AD2440E050E0BA0180E290E070
:103970000E94CF2480E00E94B20B0E94CB0B40E05B
:1039800050E0BA018FE090E00E94CF2440E050E088
:10399000BA0183E190E00E94CF242896E2E00C94E3
:1039A000E2231F920F920FB60F9211242F933F9391
:1039B0004F935F936F937F938F939F93AF93BF9337
:1039C000CF93DF93EF93FF93D091E900DF70809165
:1039D000EC00C82FC17080FDC0E81092E900809112
:1039E000F000877F8093F00078940E94A0101092DE
:1039F000E9008091F00088608093F000CD2BCF70BB
:103A0000C093E900FF91EF91DF91CF91BF91AF910A
:103A10009F918F917F916F915F914F913F912F91E6
:103A20000F900FBE0F901F9018951F920F920FB618
:103A30000F9211242F933F934F935F936F937F9334
:103A40008F939F93AF93BF93EF93FF938091E10088
:103A500082FF09C08091E20082FF05C08091E100F1
:103A60008B7F8093E1008091DA0080FF24C08091F9
:103A7000D80080FF20C08091DA008E7F8093DA002A
:103A80008091D90080FF9DC080E189BD82E189BD20
:103A900009B400FEFDCF81E080937A028091550247
:103AA000811109C00E9406030E94A7038091E200D1
:103AB00084608093E2008091E10080FF17C08091D4
:103AC000E20080FF13C08091E2008E7F8093E200CD
:103AD0008091E20080618093E2008091D800806252
:103AE0008093D80019BC85E080937A028091E10030
:103AF00084FF2BC08091E20084FF27C080E189BD54
:103B000082E189BD89B5982F917080FFFBCF8091AC
:103B1000D8008F7D8093D8008091E1008F7E8093C4
:103B2000E1008091E2008F7E8093E2008091E200CC
:103B300081608093E20080917B02882309F447C072
:103B400084E080937A0280917A028091E10083FF81
:103B500027C08091E20083FF23C08091E100877F2E
:103B60008093E10082E080937A0210927B02809140
:103B7000E1008E7F8093E1008091E2008E7F809350
:103B8000E2008091E20080618093E20042E060E028
:103B900080E00E9475038091F00088608093F000BF
:103BA000FF91EF91BF91AF919F918F917F916F9115
:103BB0005F914F913F912F910F900FBE0F901F90EB
:103BC000189519BC10927A021092550274CF809108
:103BD000E30087FD93E090937A02B5CF78941F922B
:103BE0001FB61F9211248F939F93AF93BF93809121
:103BF0004F0290915002A0915102B0915202019651
:103C0000A11DB11D80934F0290935002A0935102C9
:103C1000B0935202BF91AF919F918F911F901FBEA1
:103C20001F9018951F921FB61F9211248F939F9378
:103C3000AF93BF9380914E02811113C080914F02C8
:103C400090915002A0915102B09152024196A11D53
:103C5000B11D80934F0290935002A0935102B093F4
:103C60005202BF91AF919F918F911F901FBE1F90E5
:103C70001895CDB7DEB7A6970FB6F894DEBF0FBE86
:103C8000CDBF85B7806885BF85B7806885BF84B79D
:103C9000877F84BF0FB6F894A895809160008861F3
:103CA00080936000109260000FBE80E890E00FB635
:103CB000F89480936100909361000FBE80E596E0D8
:103CC00090937301809372010E9406030E94A703E0
:103CD0008091E20084608093E200789480917A027F
:103CE0008823A1F01091E9001F709091EC00892FBA
:103CF000817090FD80E8182B1092E9008091E80017
:103D000083FD0E94A0101F701093E90082E084BD23
:103D100093E095BD9AEF97BD80936E000E949C0C36
:103D2000811102C00E94CB0B07E411E0ACE4EA2E43
:103D3000A1E0FA2ED8018D918D018F3F11F00E94E4
:103D40005206E016F106B1F785EF0E94520680EFA9
:103D50000E94520683E90E94520685E90E9452069B
:103D600085E0EEEDF1E0DF01282F1D922A95E9F7BD
:103D7000E0EDF1E0DF011D928A95E9F70E94651000
:103D8000811102C00E94601C82E090E00E94992490
:103D90008093D70184E090E00E94A724909354027E
:103DA000809353020E94B21BBFEFE6E7F1E0B150EF
:103DB000E040F040E1F700C000000E94B21B80919B
:103DC000DE0180FF08C06FEF7FEF90E080E00E948F
:103DD000DB240E94820A83E090E00E9499240E94E2
:103DE0003A098091D601811173C00E94651081113A
:103DF00004C00E94601C0E94AD0E88E090E00E940A
:103E0000A1244B015C0184E290E00E949924282FB8
:103E100030E040E050E060E070E080E090E000E200
:103E20000E94ED23282939294A295B292093400241
:103E30003093410240934202509343026093440204
:103E40007093450280934602909347022E7F89F536
:103E50000E94AD0E88E090E00E94A1246B017C01DD
:103E600084E290E00E949924282F30E040E050E066
:103E700060E070E080E090E00E94ED23B22FA32F7D
:103E8000F42FE52F5B0197018601BC29A12BFE29A8
:103E9000E32BB0934002A0934102F0934202E093DF
:103EA000430260934402B09245028093460290938D
:103EB00047020E943B051092F7018091400280FF6B
:103EC00004C060E086950E943E0E81E08093D6019A
:103ED00084E091E090934B0280934A0278E1E72ED0
:103EE000F12C8EED91E0E5E0BE2EB80EFDEDCF2E6B
:103EF000F1E0DF2E80917A0260E4A62E00E112E16B
:103F0000853009F483C00E94B21B48ED842E41E045
:103F1000942E5EED652E51E0752ED301F401919142
:103F20008D91CE16DF0609F47BC09817C1F310E01F
:103F300033243394D3010D913D01F40141904F019D
:103F4000401619F14026A12C55245394842D852127
:103F5000A1F0A9A21AA30E9472049CA38BA33DA264
:103F600091E0802F852109F490E09EA349A15AA1F8
:103F70006BA17CA18DA10E94021BA394550CF4E0BF
:103F8000AF12E4CFF401319700831F5F153091F633
:103F90008FB7F89440914F025091500260915102B6
:103FA000709152028FBF40C080917A02843009F133
:103FB00010924E020FB6F894A895E09260000FBEE2
:103FC000A092600083B7817F846083BF83B78160E4
:103FD00083BF7894889583B78E7F83BF0FB6F8949C
:103FE000A8958091600088618093600010926000C5
:103FF0000FBE80917902882349F00E94B21BEEED3A
:10400000F1E08191811148C3BE12FBCF80917A0209
:10401000853009F4C9CF0E9471100E94270573CF23
:10402000981385CF0E948E1B8091F7018823D1F1D0
:104030009091F601E0914002E695E91BE093F201D0
:10404000923009F03DC1F0E0E658FD4FE4910E2FAB
:1040500010E039E1832E3BE0932E8091F301882319
:1040600061F01092F3010E9472049093F101809329
:10407000F0011092F5011092F4010E947204E09197
:10408000F001F091F1018E1B9F0B8F3F9F4750F481
:104090000E0F1F1F1093F1010093F00180EF91E0CC
:1040A000F401099586E0EAEEF1E0DE011196019057
:1040B0000D928A95E1F71092EC011092ED011092A9
:1040C000EE011092EF018B819C81892B09F44AC08B
:1040D0008091E8019091E9010E9463049C01909114
:1040E000E301992309F4FCC225313105D8F19F3F42
:1040F00019F09F5F9093E3011B81112359F00E94F7
:1041000030069FEF11160CF491E0899F802D112449
:104110008093EC011C81112359F00E9430069FEF1F
:1041200011160CF491E0899F802D11248093ED01EC
:104130003091EC013323B1F02091ED01222391F075
:1041400045EB3403C0011124992309F4E0C0909396
:10415000EC0145EB240390011124332309F4DBC067
:104160003093ED018D819E81892B09F44AC08091A5
:10417000E6019091E7010E9463049C019091E401A3
:10418000992309F4A8C221353105D8F19F3F19F0D0
:104190009F5F9093E4011D81112359F00E940E0648
:1041A0009FEF11160CF491E0899F802D11248093CC
:1041B000EE011E81112359F00E940E069FEF111689
:1041C0000CF491E0899F802D11248093EF013091B0
:1041D000EE013323B1F02091EF01222391F045EB62
:1041E0003403C0011124992309F499C09093EE017E
:1041F00045EB240390011124332309F494C0309338
:10420000EF0146E050E0BE016F5F7F4F8AEE91E024
:104210000E948C24892B61F48091EC019091ED0136
:10422000892B9091EE01892B9091EF01892B11F050
:104230000E94E70586E0FE013196AAEEB1E001900A
:104240000D928A95E1F70E9427059091DD0189176B
:1042500069F08093DD018FB7F89440914F0250913F
:10426000500260915102709152028FBF80917A0288
:10427000843009F03FCE83E08093E9008091E8002C
:1042800082FF38CE8091E80090E085FF06C00E9452
:104290002503882309F44BC091E08091E8008B77D7
:1042A0008093E800992309F425CE8981EFEFE80F88
:1042B000E33108F063C0F0E0E655FA4D0C94A92311
:1042C000963061F4E695F0E0E958FD4FE4910E2F49
:1042D00010E02BED822E2AE0922EBFCE00ED17E0EB
:1042E0008AE3882E85E0982E9C3009F0B6CE8E2F7A
:1042F00063E00E947523E92FF0E0EC58FD4FE49154
:104300000E2F10E095EB892E9CE0992EA6CE81E031
:104310008093EC011ECF81E08093ED0123CF81E0FB
:104320008093EE0165CF81E08093EF016ACF00E2D8
:1043300010E0CE0101964C018091E80085FD0AC095
:104340008091E8008B778093E8000E942503882302
:1043500099F3A2CF8091F100D4018D934D010150CA
:10436000110951F799CF1A828CE08B8324C08A817E
:10437000823009F4A7C128F4813061F08FEF89837E
:104380001AC0833009F18430C9F71B821C821D8258
:104390001E8211C02FB7F89460914F0270915002A5
:1043A00080915102909152022FBF0E94AF236B83E4
:1043B0007C838D839E8340E250E0BE016F5F7F4F20
:1043C00082E00E94150A96CD2B81822F90E0FE019B
:1043D0003496245E8530910570F7DC01A252BE4F01
:1043E0003C91319301962813F5CFE5CF8A81823035
:1043F00081F0853019F68091400280FF15C08091D0
:1044000040028E7F809340021092F7010E94A60A1C
:10441000D2CF6B817C818D819E810E94AF2388E207
:1044200090E00E94BD24C7CF81608093400260E08D
:1044300086950E943E0EBFCF4C816B818A810E947F
:10444000DB0B9827892798279E838D83B4CF2D81F6
:104450003E813227232732274C816B818A810E943B
:10446000540BA9CF0E947A0BA6CF9A81923009F003
:1044700085CF8830D9F1893009F463C08B818230CF
:1044800009F1A8F4813009F096CF8C81BFEB8B9FA6
:10449000C00111246FEF70E00E948123462F20E0BD
:1044A00060914202809141020E94750D84CF833059
:1044B000C9F0843009F07FCF20E0409143026D8144
:1044C0008C81F2CF8C81882309F499CF80914002AE
:1044D00081608093400260E086950E943E0E60E01D
:1044E0008C81A7CF8C818093440265CF8B818230F1
:1044F000E1F078F4813009F05ECF80914302EFEF74
:104500008E9FC00111246FEB70E00E9481236C83A9
:1045100052CF833099F0843009F04DCF8091410221
:104520008C83809142028D8346CF8091400280FF30
:1045300003C086958C833FCF80E0FCCF80914402FE
:10454000F9CF2091400230914102409142025091B6
:10455000430260914402709145028091460290911D
:1045600047020E944F0D27CF80E18A8324CF83E04A
:104570008A8387E3FACE0A811B811027012710273F
:10458000CE0101963C018C80DC01A80DB11D4D01CE
:10459000C80187539F4F8614970409F40CCF073343
:1045A000B3E01B0750F40E949924F30184830F5F4A
:1045B0001F4FBFEF6B1A7B0AEBCFD30114961C92EF
:1045C000F6CF0A811B81102701271027FE013196A3
:1045D0003F018C80800E912E911CC80187539F4F04
:1045E0008016910609F4E7CE0733F3E01F0728F49D
:1045F000D30114966C910E94BD24BFEF6B1A7B0A05
:104600000F5F1F4FEACF0E94440BD5CE84E0ADCFA1
:104610000A811B81102701271027FE0131963F01D7
:104620008C80CF01880D911D4C01C801899686149C
:10463000970409F4C0CE003A110558F40E94992459
:10464000D30114968C930F5F1F4FFFEF6F1A7F0AF1
:10465000ECCFF3011482F7CF0A811B8110270127C9
:104660001027CE0101963C018C80800E912E911C6A
:10467000C80189968016910609F49DCE003A11056D
:1046800028F4D30114966C910E94BD24BFEF6B1ADD
:104690007B0A0F5F1F4FECCF09BD19BD09B400FEA7
:1046A000FDCF8091D8008F7D8093D8008091E0006D
:1046B00082608093E0008091E00081FDFCCF0E9449
:1046C0007110A4CC88E290E00E9499241B821C8285
:1046D0001D828E8370CE2B30310508F059CD91CDDF
:1046E0002B30310508F005CD3DCD991B79E004C094
:1046F000991F961708F0961B881F7A95C9F7809521
:104700000895AA1BBB1B51E107C0AA1FBB1FA61718
:10471000B70710F0A61BB70B881F991F5A95A9F76A
:1047200080959095BC01CD01089597FB072E16F456
:10473000009407D077FD09D00E94812307FC05D0A3
:104740003EF4909581959F4F0895709561957F4FA8
:104750000895EE0FFF1F0590F491E02D099469274D
:104760009627692778278727782708952F923F92E1
:104770004F925F926F927F928F929F92AF92BF9271
:10478000CF92DF92EF92FF920F931F93CF93DF931D
:10479000CDB7DEB7CA1BDB0B0FB6F894DEBF0FBE7A
:1047A000CDBF09942A88398848885F846E847D84C7
:1047B0008C849B84AA84B984C884DF80EE80FD80C9
:1047C0000C811B81AA81B981CE0FD11D0FB6F8943F
:1047D000DEBF0FBECDBFED010895002E083090F072
:1047E000982F872F762F652F542F432F322F222774
:1047F0000850F4CF220F331F441F551F661F771F29
:10480000881F991F0A95B2F7002D089597FD1094FF
:10481000002E083098F00850232F342F452F562FA4
:10482000672F782F892F912DF4CF15949795879521
:104830007795679557954795379527950A95AAF7E0
:104840001124002D08958F929F92AF92BF92CF9224
:10485000DF92EF92FF92CF93DF93EC016881798131
:104860008A819B81611571058105910521F464E2BE
:1048700079ED8BE597E02DE133EF41E050E00E94C8
:10488000F12449015A019B01AC01A7EAB1E40E945D
:1048900010256B017C01ACEEB4EFA50194010E94E0
:1048A0001E25DC01CB018C0D9D1DAE1DBF1DB7FF6C
:1048B00003C00197A109B04888839983AA83BB8369
:1048C0009F77DF91CF91FF90EF90DF90CF90BF90D7
:1048D000AF909F908F9008950E942324089580E0C8
:1048E00091E00E9423240895B0E0A0E080930001AD
:1048F00090930101A0930201B09303010895FC017C
:104900004150504030F001900616D1F73197CF0159
:104910000895882799270895FB01DC0104C08D9133
:104920000190801921F441505040C8F7881B990B21
:104930000895F999FECF92BD81BDF89A992780B567
:104940000895A6E1B0E044E050E00C94E324A8E12F
:10495000B0E042E050E00C94E324DC01A40FB51F6A
:104960004150504048F0CB01840F951F2E910E947A
:10497000BE2441505040D0F70895262FF999FECF1C
:1049800092BD81BDF89A019700B4021639F01FBAA2
:1049900020BD0FB6F894FA9AF99A0FBE08950396BF
:1049A000272F0E94BE240E94BD24252F0E94BE24D2
:1049B000242F0C94BE240196272F0E94BE240C9411
:1049C000BD24DC01CB01FC01F999FECF06C0F2BD8C
:1049D000E1BDF89A319600B40D9241505040B8F7BD
:1049E0000895052E97FB1EF400940E94082557FD9C
:1049F00007D00E94232507FC03D04EF40C94082511
:104A000050954095309521953F4F4F4F5F4F0895FA
:104A100090958095709561957F4F8F4F9F4F08952A
:104A20000E944525A59F900DB49F900DA49F800DD9
:104A3000911D11240895B7FF0C9410250E94102594
:104A4000821B930B0895A1E21A2EAA1BBB1BFD012A
:104A50000DC0AA1FBB1FEE1FFF1FA217B307E4075D
:104A6000F50720F0A21BB30BE40BF50B661F771FB5
:104A7000881F991F1A9469F7609570958095909595
:104A80009B01AC01BD01CF010895A29FB001B39F6E
:104A9000C001A39F700D811D1124911DB29F700D47
:104AA000811D1124911D0895F894FFCF8111A91142
:104AB0004C13A9114C13DC11FD114C13FB120813FC
:104AC000E814EC14DD14E414F014F414F814D21601
:104AD000D2160C170C17BE17D81735173517DD1758
:104AE0004A185B185B18D115F615FD150216071646
:104AF0000C16111616161B16201625162A162D161C
:104B000029143216291429142914291429143516A4
:104B10003515AA153D1507150B1541150F1545152A
:104B200051151B15A3151F1555152315591581155D
:104B300027155D1588152D1563156B15131549156A
:104B400017154D153115671577159115A115011517
:104B50003915B115B321B721F6211C2227223222A3
:104B6000352235223522BE21BE21B422B722BB22F6
:0A4B7000E1220323062308232C236F
:104B7A000100000060045E0A570A500A010181829E
:104B8A0083E200E900EA00B500B600B700CD008371
:104B9A0001CC008A019201940121022302240225F8
:104BAA0002260227022A02B300B4006F0070009F97
:104BBA0001CB019F02A002F1F4949796F5F0939528
:104BCA000001020202020606060606060C0C0C0C7E
:104BDA000C0C4022B684016201AC00B804D104F185
:024BEA000400C5
:00000001FF
