:100000000C94CC010C9404020C9404020C94040291
:100010000C9404020C9404020C9404020C94040248
:100020000C9404020C9404020C9408180C94C41749
:100030000C9405190C9404020C9404020C94040210
:100040000C9404020C9404020C9404020C94040218
:100050000C9404020C94E1180C9404020C94040215
:100060000C9404020C9404020C9404020C940402F8
:100070000C9404020C9404020C9404020C940402E8
:100080000C9404020C9404020C9404020C940402D8
:100090000C9404020C9404020C9404020C940402C8
:1000A0000C9404020C9404020C940402050109024D
:1000B000A10185020901A1000509190129081500FE
:1000C0002501950875018102050109300931158165
:1000D000257F95027508810609381581257F9501D0
:1000E00075088106050C0A38021581257F95017572
:1000F000088106C0C005010980A101850319012AF4
:10010000B700150126B700950175108100C0050CD8
:100110000901A101850419012AA002150126A002E6
:10012000950175108100C005010906A1018506052C
:100130000719E029E71500250195087501810205D9
:1001400007190029EF1500250195F07501810205B9
:10015000081901290595057501910295017503910D
:1001600001C00660FF0961A1010962150026FF00B8
:100170009520750881020963150026FF00952075FA
:10018000089102C005010906A101050719E029E748
:1001900015002501950875018102950175088101F9
:1001A0000507190029FF150026FF0095067508812F
:1001B000000508190129059505750191029501753C
:1001C000039101C0000000000000000000000000DA
:1001D000000000000000000000000000000000001F
:1001E00000000000000000007E0F00D4FFFFFFC7EA
:1001F0000000007800000000000000002A2B28000A
:1002000000000000000000000000000000000029C5
:10021000000000002C1E3420212224342627252E05
:10022000362D3738271E1F2021222324252633333D
:10023000362E37381F0405060708090A0B0C0D0E69
:100240000F101112131415161718191A1B1C1D2F35
:100250003130232D350405060708090A0B0C0D0E55
:100260000F101112131415161718191A1B1C1D2F15
:100270003130354C290014001A0008001500170011
:100280001C0018000C00120013002A002B000400B0
:100290001600070009000A000B000D000E000F00F9
:1002A00033002800E1001D001B00060019000500B6
:1002B0001100100036003700E50021520000E00078
:1002C000E20000002C002C0000002C000000E600E2
:1002D000E400000009025B00030100A0FA09040029
:1002E0000001030101000921110100012240000762
:1002F0000581030800010904010002030000000950
:1003000021110100012222000705820320000107BC
:100310000503032000010904020001030000000995
:10032000211101000122B6000705840320000112FB
:10033000010002000000084456544D300101020043
:10034000012A03560069006B0074007500730020D9
:10035000004D0069006E006E00650020002D002039
:100360000054006F00700072006500000024035606
:100370000069006B00740075007300200044006584
:10038000007300690067006E0020004C004C0043C1
:10039000000000040309040011241FBECFEFDAE0BF
:1003A000DEBFCDBF04B603FE18C0809176029091E7
:1003B0007702A0917802B09179028730904BA740E4
:1003C000B04B59F410927602109277021092780294
:1003D00010927902E0E0F8E3099511E0A0E0B1E0C5
:1003E000E4E6FEE302C005900D92AA36B107D9F704
:1003F00022E0AAE6B1E001C01D92A637B207E1F7FC
:100400000E942C190C94DE1E0C940000482F2091A1
:1004100072029091390257E0291302C080E00895DA
:1004200030E0529FF001539FF00D1124E65CFD4F28
:100430008181681306C08081481303C085818111C2
:10044000EECF2F5F3F4F2770E7CFE8EDF0E08081E0
:100450008E7F80831092E2001092DA001092E10009
:10046000A0EEB0E08C9181608C9380818F77808347
:1004700019BCA7EDB0E08C918E7F8C9380818F7E2C
:10048000808310920A0208952091E4003091E500E3
:1004900095E6A9012091EC00822F817020FF06C013
:1004A0008091E80080FF06C080E008952091E80078
:1004B00022FD1AC080912F02882389F0853089F0AF
:1004C0008091EB0085FD0FC02091E4003091E500A4
:1004D00042175307F9F29150E1F684E0089582E063
:1004E000089583E0089581E008958091310287FFA7
:1004F00013C08091E80082FF06C08091E8008B77EE
:100500008093E80004C080912F028111F2CF0895FA
:1005100080912F028823D9F38091E80080FFF8CFE3
:100520008091E8008E77ECCF982F9093E900242FEC
:10053000762F50E0891731F07091EC002091ED009A
:100540005091F00021FD07C09F5F973071F78093B5
:10055000E90081E008953091EB003E7F3093EB009D
:100560003091ED003D7F3093ED003091EB00316034
:100570003093EB007093EC002093ED005093F0006B
:100580002091EE0027FDE0CF80E00895B0E0A0E0EC
:10059000ECECF2E00C943E1EC8EDD0E088818F7E3A
:1005A0008883E7EDF0E080818160808384E082BF12
:1005B00081E080930A0288818E7F888302EE10E0BA
:1005C000F80110821092DA0081EEC82ED12CF601CB
:1005D000108288818F77888388818068888388816A
:1005E0008F7D888319BC10922F02109230021092D6
:1005F0002E0210922D0290EEE92EF12CF70180814F
:100600008B7F808388818160888342E060E080E026
:100610000E949402F60180818E7F8083F8018081A0
:1006200081608083808188608083F70180818E7FF4
:100630008083888180618883CDB7DEB7E8E00C9441
:100640005A1EFC0180913702909138028617970755
:10065000A0F06115710529F49091E8009E779093C0
:10066000E80090E06115710551F4911108C0809186
:10067000E80082FF34C080E00895BC01F2CF809191
:100680002F028823C1F18530C1F18091E80083FDFC
:1006900030C08091E80082FDEACF8091E80080FFC1
:1006A000E1CF8091F3002091F200382F61157105A0
:1006B00019F02830310558F091E02830310509F063
:1006C00090E02091E8002E772093E800CBCF819135
:1006D0008093F100615071092F5F3F4FE7CF809108
:1006E0002F02882341F0853041F08091E80083FF9C
:1006F000BECF81E0089582E0089583E0089580915F
:100700000C0208959C014FB7F894809104029091D7
:100710000502A0910602B09107024FBF821B930B06
:1007200008952FB7F8948091040290910502A0914A
:100730000602B09107022FBF0895209108012223DD
:10074000C9F02091080227FF15C0E62FE695E6952F
:10075000E695EE31D8F4E80FF92FF11D677021E02E
:1007600030E001C0220F6A95EAF7209582812823A4
:1007700022830895FC01329608962191621303C0EA
:10078000DF0111971C92E817F907B9F70895209136
:1007900008012223C1F02091080227FF14C0E62F90
:1007A000E695E695E695EE31F8F4E80FF92FF11DA0
:1007B000677021E030E001C0220F6A95EAF782817C
:1007C000822B82830895FC0132962FEF30E0419115
:1007D000641751F02F3F19F4411101C0232F3F5FDF
:1007E0003630A9F72F3F09F40895820F911D27FD98
:1007F0009A95FC0162830895A3E0B0E0E2E0F4E0A2
:100800000C94441E209101023091020228173907EE
:10081000A1F09093020280930102E091FF01F09118
:100820000002309751F024E029839B838A8306805D
:10083000F781E02DCE01019609952396E2E00C9414
:10084000601EA3E0B0E0E7E2F4E00C94441E2091C7
:10085000FD013091FE0128173907A1F09093FE01A8
:100860008093FD01E091FF01F0910002309751F07B
:1008700023E029839B838A830680F781E02DCE01C4
:10088000019609952396E2E00C94601EE091FF0129
:10089000F0910002309729F00190F081E02D099548
:1008A000089580E008950E9491039C019091F901C0
:1008B0008091FA01982B21F03093F6012093F501F5
:1008C0009091FB018091FC01982B21F03093F40171
:1008D0002093F301E091FF01F0910002309749F07D
:1008E00082E08093F7010480F581E02D87EF91E0AD
:1008F000099508958091F20180FD16C081FD16C012
:1009000082FD16C08091F1018823A1F0883280F425
:1009100028E0829FC001112468E270E00E94131E4B
:10092000862F672B39F0089582E0089584E00895BA
:1009300088E0089581E008958091F20180FD14C05F
:1009400081FD14C082FD16C08091F001882381F0E2
:100950008E3180F420E5829FC00111246EE170E0A9
:100960000E94131E862F089584E1089588E2089559
:1009700088E0089580E5089580E008959091080248
:1009800092FF06C0282F28712830F9F4877F8460F1
:1009900093FF06C0282F28712831F1F4877E8461E7
:1009A0002091090220FF06C0382F38713830D9F461
:1009B000877F816021FF06C0282F28712831D1F45C
:1009C000877E816194FD877E0895282F24712430CD
:1009D000F9F68B7F8860DCCF282F2471243101F752
:1009E0008B7E8861DDCF382F3171313019F78E7FE2
:1009F0008860E0CF282F2171213121F78E7E886118
:100A0000E1CF82389105B9F1B0F48133910509F451
:100A10007DC048F48932910509F46DC08A32910590
:100A200009F47BC008958533910509F45FC08933CB
:100A3000910509F10895833E9105D9F138F4803E7E
:100A4000910529F1823E910579F10895863E91053F
:100A5000D9F1873E910509F43EC0843E910541F5E8
:100A60002091090221FF24C08091080284FD19C051
:100A700087EE90E0089520910802237009F05AC093
:100A80002091090223FF14C089E290E0089520918B
:100A9000080220FD38C03091090230FF09C024FF50
:100AA00043C090E080E008952091080222FDF7CF36
:100AB00008952091080222FD3AC03091090230FDCC
:100AC00039C024FFF5CFEDCF2091080223FFF0CFEE
:100AD00024FDE7CFCDCF2091080223FD2EC0309119
:100AE000090231FFEECF84EE90E0089520910802D4
:100AF00025FFDECFC9CF2091080225FD21C020911E
:100B0000090223FFD5CF89E390E0D2CF20910802DC
:100B100026FFCECF8AE290E008952091080226FFBA
:100B2000C7CF81E390E0089583EE90E0089582EED0
:100B300090E0089580EE90E0089586EE90E00895AC
:100B400085E390E008951F93CF93DF930E94010502
:100B5000EC01C11580E5D807F0F5C11580E4D80790
:100B600008F09CC0C03ED10520F5CD3CD10508F071
:100B700082C0C83AD10578F4C53AD10508F073C0EF
:100B8000C130D10519F1209709F1C430D105F0F435
:100B9000D0E0C0E01BC0C33CD105D0F7C85AD0E0BC
:100BA000CC0FDD1FCF5EDE4F0990D881C02DD464FD
:100BB0000DC0C11580E2D80708F0D1C0C11581E091
:100BC000D80708F05AC0C83ED10510F7CE01DF9112
:100BD000CF911F910895C03682E5D80718F5C0342B
:100BE00082E5D80708F06BC0C03282E5D80708F06C
:100BF0005FC0C11582E5D80708F497C02C2F269551
:100C0000269580E2289F900111248C2F8370C1E0EB
:100C1000D0E002C0CC0FDD1F8A95E2F7C22BD32BA8
:100C2000DD68D4CFC03A82E5D80760F4C03882E5E9
:100C3000D80708F459C0CF71D0E0DC2FCC27C46F9F
:100C4000D06AC4CFC03C82E5D80708F462C0C03E79
:100C500082E5D80708F09CCFDC2FCC27CC27DF71AA
:100C6000C06FD06AB3CFC55AD0E0C25FDE4FC88133
:100C7000D0E0D064ABCFD065A9CF8D2F0E94BE0449
:100C8000182FCE0199270E940105C12FD0E0DC2F3B
:100C9000CC27CC27DF71C82BD92B98CFCE01992731
:100CA0000E940105CC27DF70C82BD92BD06A8ECFCC
:100CB000CF71D0E0DC2FCC27C16FD06A87CF2C2F2B
:100CC00026952695277080E2289F900111248C2F6D
:100CD0008370C1E0D0E002C0CC0FDD1F8A95E2F73F
:100CE000C22BD32BDC6872CF2C2F2695269527702C
:100CF00080E2289F900111248C2F8370C1E0D0E006
:100D000002C0CC0FDD1F8A95E2F7C22BD32BDA6825
:100D10005DCF8C2F8F710E94BE04C82FD0E0DC2FD6
:100D2000CC27CC27DF71D06251CF8C2F8F710E94DE
:100D3000BE0455E0D695C7955A95E1F7CF70D0E03F
:100D4000DC2FCC27282F30E084FF05C044E0220FA1
:100D5000331F4A95E1F7C22BD32BD06937CF8D2FA4
:100D60008F710E94BE04182FCE0199270E940105A1
:100D7000C12FD0E0DC2FCC27CC27DF71C82BD92B9B
:100D8000D2CF80959091CA0198239093CA0108957B
:100D90008091720290913902981301C008958F5F7B
:100DA0008770FACF292F943078F58C3068F590E071
:100DB0003CE0239F800D911D1124682F677023E074
:100DC000969587952A95E1F7FC01EE0FFF1FE80F36
:100DD000F91FE257FE4F50E040E080E0219130E003
:100DE000062E02C0369527950A94E2F72170332724
:100DF000042E01C0220F0A94EAF7822B4F5F5F4F47
:100E00004330510559F7089580E00895292F943013
:100E100098F58C3088F590E03CE0239F800D911D83
:100E20001124282F277041E001C0440F2A95EAF7CA
:100E300023E0969587952A95E1F7FC01EE0FFF1FB9
:100E4000E80FF91FE257FE4F30E020E070E05191CB
:100E5000DF011197CB01022E02C0969587950A9467
:100E6000E2F7817081958527842385278C932F5FF6
:100E70003F4F2330310559F708958093DD010895E0
:100E80009091DD0121E030E0F90101C0EE0F8A957B
:100E9000EAF7D90102C0AA0FBB1F6A95E2F7EA2B55
:100EA00001C0220F4A95EAF7892F8E23E81305C067
:100EB000292B822F0E943D07089520952923F9CFE1
:100EC00021E030E001C0220F8A95EAF72095809159
:100ED000DD0182230E943D0708959091A70180952E
:100EE00089238093A701282F277069F4891759F067
:100EF0009091090292FF07C08695869586950E947B
:100F000060071092A701089521E030E001C0220F90
:100F10008A95EAF78091DD01822B0E943D070895B2
:100F20008093DC010895662309F45DC08D3C41F493
:100F30000E949C0481958093FA010E9453040895B5
:100F40008E3C19F40E949C04F6CF8F3C31F40E9431
:100F50009C0481958093F901F0CF803D19F40E94A3
:100F60009C04F8CF893D29F40E947A048093FB0108
:100F7000E4CF8A3D21F40E947A048195F7CF8B3D1E
:100F800031F40E947A0481958093FC01D6CF8C3D88
:100F900019F40E947A04F8CF9FE2980F983070F409
:100FA000815D990B21E030E001C0220F8A95EAF7BC
:100FB0008091F801822B8093F801BFCF8D3D31F4F1
:100FC0008091F20181608093F201B7CF8E3D21F4D0
:100FD0008091F2018260F7CF8F3D09F0AECF809112
:100FE000F2018460F0CF4091F9018D3C59F4809179
:100FF000FA0187FF0DC01092FA0141110BC0109247
:10100000F00108C08E3C81F48091FA0118169CF31F
:10101000442381F08091FB019091FC01892B09F020
:101020008CCF1092F10189CF8F3C49F447FFF0CF6C
:101030001092F9018091FA018111ECCFE0CF803D4F
:1010400019F41416ACF3E4CF9091FB01893D29F417
:101050001916F4F61092FB01DBCF8A3D19F497FFC5
:10106000D7CFF8CF9091FC018B3D29F497FFD0CFDB
:101070001092FC01CDCF8C3D19F41916CCF3C8CFDA
:101080009FE2980F983090F4815D990B21E030E059
:10109000B90102C0660F771F8A95E2F7CB018095F0
:1010A0009091F80189238093F801B2CF8D3D31F4FE
:1010B0008091F2018E7F8093F201AACF8E3D21F4C0
:1010C0008091F2018D7FF7CF8F3D09F0A1CF809104
:1010D000F2018B7FF0CF0F931F93CF93DF938B01A0
:1010E000EA0190912F02943061F58093E9008FEF2F
:1010F0009091E800815095FD06C095ED9A95F1F725
:1011000000008111F5CF8091E80085FF1AC00E9490
:101110004402811111C08091E80085FD06C08091D4
:10112000E8008E778093E800F2CFF80181918F017B
:101130008093F100219779F78091E8008E77809372
:10114000E800DF91CF911F910F91089543E050E0A7
:10115000BC0184E00E946B08089546E050E0BC01A9
:1011600084E00E946B080895CF93DF93EC01809197
:101170000801811111C048E050E0BE0181E00E94E9
:101180006B0880E2FE01ADE0B2E001900D928A951D
:10119000E1F7DF91CF9108958091080287FF05C0A4
:1011A00040E284E050E0BE01EACF48E081E0FACFBF
:1011B00081E08093E00080E28093D8001092C90023
:1011C0008FE19EE40197F1F700C0000087E090EB0B
:1011D000DC018093760290937702A0937802B0931B
:1011E000790288E19CE00FB6F894A895809360009E
:1011F0000FBE90936000FFCFCF93DF93C9EAD1E099
:1012000060E0CE010E949D1E2196C11584E0D807A2
:10121000B9F7DF91CF9108951F93CF93DF93122FEA
:101220008430E0F46430D0F44C30C0F4C42FD0E00B
:10123000CC0FDD1F98E1699FC00DD11D112490E6F0
:10124000899FC00DD11D1124632FCE0189960E9464
:101250009D1E612FCE018A960E949D1EDF91CF9127
:101260001F910895B0E0A0E0E8E3F9E00C943F1E80
:1012700010E000E084E7E82E82E0F82ED12C1AC0BE
:1012800001151105D1F4FE01EE0FFF1FEE0DFF1D3C
:10129000259134914C2F6D2D80E00E940C092196F0
:1012A000CC30D10569F788E1E80EF11CD39484E0D5
:1012B000D81649F0D0E0C0E0E3CF21E030E04C2F79
:1012C0006D2D802FEACF0F5F1F4F0430110591F66F
:1012D000CDB7DEB7E7E00C945B1ECF93C82F6FEF5E
:1012E000811163E285E290E00E949D1E6FEFC111C3
:1012F00066E086E290E00E949D1E6FEFC11161E101
:1013000087E290E00E949D1ECF91089580E00E94A8
:101310006D0960E088E290E00E949D1E0E94320903
:101320000E94FC0881E00E946D0908950F931F93AD
:10133000CF93DF93843030F5643020F54C3010F5D6
:10134000C42FD0E0CC0FDD1F28E1629FC00DD11D5E
:10135000112430E6839FC00DD11D1124CE01899642
:101360000E947F1E082F10E0102F0027CE018A96C2
:101370000E947F1E9801282BC901DF91CF911F91F8
:101380000F91089590E080E0F8CF462F743040F43C
:101390006C3030F4843020F4672F0E949609089551
:1013A00090E080E00895CF92DF92FF920F931F9319
:1013B000CF93DF936C010091DD018091DC01082B5C
:1013C000C3E0D0E010E0FC2EC8010C2E02C09595C1
:1013D00087950A94E2F780FD0CC02197A0F7F12CC5
:1013E0008F2DDF91CF911F910F91FF90DF90CF90C4
:1013F0000895B6018C2F0E94C5090E94A30501978C
:1014000061F3EECFCF93DF93EC010E94D309BE01CD
:101410000E94C5090E94A305DF91CF910895FC01A8
:1014200024812223C1F0808191810E94020A929539
:101430009F70963091F058F4925F9F70923058F4FC
:10144000803F19F030F4883E30F481E008959A5FCF
:10145000F4CF843FD1F380E00895883EB0F3813F1C
:10146000D1F7F3CFA6E0B0E0E8E3FAE00C94431E36
:1014700049835A8349815A819923A1F0222391F00B
:10148000CA010E94D309182F682F89819A810E946E
:10149000060769817A81812F0E94C5092696E3E0BB
:1014A0000C945F1ECA010E94D206182FF2CF85E26B
:1014B00090E00E947F1E833289F486E290E00E94D1
:1014C0007F1E863059F487E290E00E947F1E91E0F3
:1014D000813109F090E0892F8170089580E0FCCF80
:1014E0008091CA019091C901892B80936C019091E0
:1014F000C8019923A1F0892B80936C018091080188
:101500008823E1F18091080287FF38C08EE1EEE682
:10151000F1E090E08150A0F591111092C80140E2F5
:1015200050E068EA71E08CE691E00E94D11E892BC0
:1015300021F180E2ECE6F1E0A8EAB1E001900D9241
:101540008A95E1F7E091FF01F09100023097A9F050
:1015500080910801882359F08091080287FF07C015
:1015600080916C0180936D0186E080936C01028014
:10157000F381E02D8CE691E00995089586E0C7CFD0
:101580002191222339F29F5FC5CF882321F00E9449
:10159000C1060E94700A0895882339F09091CA010B
:1015A000982B9093CA010E94700A0895882399F19C
:1015B0009CEF980F913A40F4682F8CE691E00E94DE
:1015C0009D030E94700A089590E2980F983050F49D
:1015D000877091E001C0990F8A95EAF7892F0E94E0
:1015E000C106EFCF9BE5980F933028F490E080E0A0
:1015F0000E942104089598E5980F9B3128F490E00B
:1016000080E00E94FC03089593E3980F933118F44F
:1016100060E00E9493070895CF93C82F8823D9F1E3
:101620008CEF8C0F813AC8F580910801882311F165
:101630008091080287FF1EC0EC2FE695E695E6959F
:10164000F0E0E459FE4F828190E04C2F477021E09A
:1016500030E002C0220F331F4A95E2F78223932322
:10166000892B91F06C2F8CE691E00E949D030E94E3
:10167000700A0AC0EEE6F1E084E791E02191C2171A
:1016800089F38E179F07D1F76C2F8CE691E00E94AB
:10169000C7030E94700ACF91089580E28C0F8830B2
:1016A00068F4C77021E030E001C0220FCA95EAF764
:1016B0008091CA01822B8093CA01EBCFEBE5EC0F3E
:1016C000E33040F4F0E0E25FFE4F808190E00E9462
:1016D0002104E1CFE8E5EC0FEB3150F4F0E0EE0F40
:1016E000FF1FEF5EFE4F808191810E94FC03D3CFEC
:1016F00083E38C0F833178F661E08C2F0E9493078F
:10170000CACF1F93CF93DF93182FD0E0C0E0893367
:1017100011F4C0E5D0E0812F0E940C0B209739F422
:10172000812F0E94D60ADF91CF911F9108958FE9F2
:101730009FE00197F1F700C000002197EFCF0F93D2
:101740001F93CF93DF93C62FD42F022FFC018581E7
:101750008823A9F0609375020E949103909374020C
:1017600080937302C77081E001C0880FCA95EAF7C1
:101770000E94CC0ADF91CF911F910F910895809123
:101780007502681332C080917302909174020E94B6
:101790008203883C910548F510E21D0FCD17B9F082
:1017A00080E28C0F883040F4C77081E001C0880F60
:1017B000CA95EAF70E94C50A183048F481E09D2FC7
:1017C000977001C0880F9A95EAF70E94CC0A802F83
:1017D0000E94810B183070F6D77081E001C0880F2D
:1017E000DA95EAF70E94C50AC5CFC77081E001C04B
:1017F000880FCA95EAF7F6CF9091090292FB22274B
:1018000020F9281779F080FB92F9909309026091F2
:1018100008027091090284E090E00E94BB1E82E001
:101820000E946D070895B0E0A0E0E9E1FCE00C94AF
:10183000341E34EDE32E31E0F32E312C10E000E0C5
:10184000CC24C394D12C8BE4682E81E0782ED0E098
:10185000C0E0A801495B5E4F2A0171C08090D001B1
:101860009090D101A090D201B090D3010330110526
:1018700061F4C130D10519F0CA30D10531F492E3D9
:10188000A92EB12C2DE2822E912C559AF201808145
:1018900080FF8DC0599A81FF8CC05A9A82FF8BC0FD
:1018A0005B9AABE4B1E09D91E92FE295EF70F0E037
:1018B00022A19F70A60102C0440F551F9A95E2F71E
:1018C000CA018095822382A351E0A735B50759F755
:1018D000F89455985D98F30181913F01E82FE295C6
:1018E000EF70F0E092A18F70960101C0220F8A95EF
:1018F000EAF7892F822B82A384E90E940E1E789436
:10190000F70120813181A901022C02C0569547952B
:101910000A94E2F740FF51C08815990508F059C0B4
:10192000C60102C0880F991F2A94E2F7809590950E
:10193000822393239183808381E0382A21962C2E61
:10194000CC30D10509F08ACF0F5F1F4FF2E0EF0EC8
:10195000F11C0430110509F076CF3320E1F181E06C
:101960008093CF010E9491039093CE018093CD018B
:101970008091CD019091CE010E948203059778F16C
:1019800048E050E064ED71E088EE91E00E94D11EE5
:10199000892B59F188E0E4EDF1E0A8EEB1E0019087
:1019A0000D928A95E1F781E01092CF0119C0599804
:1019B00072CF5A9873CF5B9874CFA816B90648F4C3
:1019C000C60102C0880F991F2A94E2F7822B932B3D
:1019D000B1CF80E0B2CF8091CF018111C9CF80E03B
:1019E000CDB7DEB7E2E10C94501E80E0DDCF10925F
:1019F000CA0180910801EEE6F1E0882329F1809187
:101A0000080287FF21C08EE1DF011D928A95E9F768
:101A100090E080E00E94210490E080E00E94FC03BE
:101A20001092C9010E94700A86E0E7EFF1E0DF0141
:101A30001D928A95E9F71092F0011092F10110922F
:101A4000F2010E945304089586E0DECFAAE2B0E0DE
:101A5000ECE2FDE00C94431E81E392E02091F10062
:101A6000DC012D93CD01B2E089339B07B9F780915A
:101A70003202833009F472C0B8F4813009F449C0ED
:101A8000823009F4B3C08091E80083FF8BC280915B
:101A90003102909132029A3008F084C2E92FF0E0CE
:101AA000E052F14E0C94271E8A3009F48EC08B3020
:101AB00009F471C0893039F780913102813219F708
:101AC0008091350290913602009711F00297D9F675
:101AD0008091E800877F8093E8008091E80082FF92
:101AE00038C09091F3008091F200029731F4809118
:101AF000F100813011F0863021F48091F100809363
:101B00000C028091E8008B778093E8000E947502B8
:101B1000BACF80913102813A09F0B5CF8091E800C7
:101B2000877F8093E8008091350290913602892B5F
:101B300061F460E28DE092E070E00E942103809108
:101B4000E8008B778093E8009ECF60E090E080E033
:101B5000F3CF80912F028111C0CF95CF80913102B8
:101B6000813A09F090CF8091350290913602892B0D
:101B700009F089CF8091E800877F8093E800809109
:101B8000E80080FFFCCF809108018093F1008091F4
:101B9000E8008E77B9CF80913102813209F073CF9E
:101BA0008091350290913602892B09F06CCF80919B
:101BB000E800877F8093E8000E94750280913302DD
:101BC000809308010E94F70C5ECF80913102813230
:101BD00009F059CF8091E800877F8093E8000E9448
:101BE00075028091340280930B024DCF80913102B7
:101BF000813A09F048CF8091E800877F8093E80020
:101C00008091E80080FFFCCF80910B02BECF80382E
:101C100099F0823809F0C6C1809135028F70873003
:101C200008F0C0C18093E9008091EB0085FB882714
:101C300080F91092E90006C080912D0290912E0249
:101C4000911182609091E800977F9093E8008093D3
:101C5000F1001092F1008091E8008E779FC18823F7
:101C600009F48DC1823009F09DC180913302811148
:101C700090C1809135028F702FEF280F263008F029
:101C800091C18093E9002091EB0020FF82C1933045
:101C900031F48091EB0080628093EB007AC19091E7
:101CA000EB0090619093EB0021E030E001C0220F47
:101CB0008A95EAF72093EA001092EA008091EB00FF
:101CC0008860EACF81116EC1109133021F77809135
:101CD000E3008078812B8093E3008091E800877F88
:101CE0008093E8000E9475028091E80080FFFCCF9D
:101CF0008091E30080688093E30082E0111183E02B
:101D000080932F024FC18058823008F04BC1209140
:101D10003302309134022C3DE3E03E07A1F583E02D
:101D20008A838AE289834FB7F894DE01139620E014
:101D30003EE051E2E32FF0E050935700E49120FFA2
:101D400003C0E295EF703F5FEF708E2F90E0EA30B6
:101D5000C0F0C7968D939D932F5F243159F74FBFE5
:101D60008091E800877F8093E8006AE270E0CE010E
:101D700001960E9421038091E8008B778093E80010
:101D800011C1C096E7CF8091350290913602432F62
:101D900055274330510509F44AC078F541305105C3
:101DA00009F47AC08BE590E0E4EDF2E042305105B1
:101DB00009F0F8C02091E800277F2093E8002091E7
:101DC0003702309138028217930708F49C0140E0F3
:101DD0002115310509F065C0411163C08091E8000B
:101DE00082FDC9CF80912F02882329F2853019F214
:101DF0008091E80083FFF2CFBECF4132510509F454
:101E00003CC04232510509F0CDC08330910508F045
:101E1000C9C0FC01EE0FFF1FE35AFE4F0190F08195
:101E2000E02D865A9E4FDC018C9190E01AC033273A
:101E300021303105D1F02115310561F02230310515
:101E400009F0B0C0E1E4F3E0E4918E2F90E0E1E42A
:101E5000F3E007C0E3E9F3E0E4918E2F90E0E3E9DB
:101E6000F3E0009709F49EC0A5CFEDE6F3E0E4911E
:101E70008E2F90E0EDE6F3E0F4CF8330910508F08B
:101E800091C0880F991FFC01ED59FE4F0190F08120
:101E9000E02D89E090E08ECF82E190E0EFE2F3E088
:101EA00089CF80912F02882309F465CF853009F40A
:101EB00062CF8091E80083FD5ECF8091E80082FDD3
:101EC0008DCF8091E80080FF83CF9091F3008091C7
:101ED000F2002115310519F08830910550F041E0EC
:101EE000089709F040E08091E8008E778093E80041
:101EF0006FCF44914093F100319621503109019602
:101F0000E8CF803809F04EC08091E800877F809349
:101F1000E800809130028093F1009DCE811142C093
:101F2000109133021230F0F58091E800877F8093A2
:101F3000E800109330020E947502112311F084E032
:101F400005C08091E30087FDFACF81E080932F02E6
:101F500042E061EC81E00E94940242E261EC84E0A4
:101F60000E94940242E261EC82E00E94940242E20A
:101F700060EC83E00E94940280912F0213C0809154
:101F80003302813079F481E0933009F080E080936E
:101F90002E021092E9008091E800877F8093E8008C
:101FA0000E9475028091E80083FF0AC08091E800DA
:101FB000877F8093E8008091EB0080628093EB0044
:101FC000AA96E3E00C945F1E0E94F70C2FEF84E3C7
:101FD0009CE0215080409040E1F700C0000088E183
:101FE0009CE00FB6F894A895809360000FBE909384
:101FF0006000FFCFA8E0B0E0E0E0F0E10C94361E16
:102000008C01DC0114968C911497882309F4B8C0D4
:1020100021E04C9111965C91119712966C91129758
:1020200013967C91139715969C910E94320A7C011D
:10203000F8018581882309F43CC1C701975780388E
:10204000910508F001C5FFE0FE1508F489C08FEF87
:1020500093E00E947F1E811183C069EAA62EBB24F3
:10206000B394E11047C0FE01339686E0DF011D9274
:102070008A95E9F75AE0452E7501BFEFEB1AFB0A86
:10208000C5010E947F1E89831A82882309F468C0D3
:10209000813009F079C06501E2E0CE0ED11CC701A4
:1020A0000E947F1E8A83882309F45AC09FEF980FED
:1020B000933070F5F3E0AF0EB11CC6010E947F1E95
:1020C0008B83882309F44CC01C82DE0111967D01AC
:1020D000F7012081222381F2213009F095C09181FE
:1020E0008281913009F052C0F2E0EF0EF11C0E94A3
:1020F000810B53C0A11424E0B20691F1C5010E94E6
:102100007F1E811101C0EA943FEFA31AB30AA9CF41
:1021100056018430D1F642E0E42EF12C56012FEF27
:10212000A21AB20AC6010E947F1EE1E0F0E0EC0FA5
:10213000FD1FEE0DFF1D8083882391F08C3741F445
:10214000E2E0F0E0EC0FFD1FEE0DFF1D1082BDCFB1
:102150003FEFE31AF30A650187E0E816F104F1F6B0
:102160008091A701877061F0D80115968C91882322
:1021700039F08091090282FF03C082E00E946D075E
:102180002896E0E10C94521E57019FCF923049F4FB
:1021900022E0E20EF11C0E940C0BEFEFEE1AFE0A99
:1021A00097CF933031F432E0E30EF11C0E94D60A4F
:1021B000F4CF943021F08FEFE81AF80AEECF92E0D6
:1021C000E90EF11C30E020E0B7016F5F7F4FD701CF
:1021D00011964C918053990B8A30910550F0215003
:1021E0003109D8F2EFE9FFE03197F1F700C00000C4
:1021F000F6CF429EF001439EF00D11249C012E0F5C
:102200003F1F842F7B01E0CFE22FF0E0EC50FE4F28
:102210005490822F86958695869590E0FC01EC512E
:10222000FE4F64902770712C022E02C07594679443
:102230000A94E2F731E063227724FC01EC52FE4F6E
:102240008490912C022E02C0959487940A94E2F710
:10225000A1E08A229924FC01EC53FE4FC490D12CBA
:1022600002C0D594C7942A95E2F7B1E0CB22DD24D1
:102270006114710419F081EE0E940C0B8114910419
:1022800019F086EE0E940C0B852D0E94810B8114A3
:10229000910419F086EE0E94D60A6114710419F0B7
:1022A00081EE0E94D60AC114D10409F476CF8CE2E3
:1022B0001ECFF701E851FC47E730F10508F0B5C340
:1022C000E651F14E0C94271E26E241EE61EEC80164
:1022D0000E949F0B45CF27E245EE65EEF8CF26E240
:1022E00041EE60EEF4CF27E245EE64EEF0CF26E259
:1022F00041EE62EEECCF27E245EE66EEE8CF28E253
:1023000041E0EBCF8091080281608093080295C084
:10231000809109028860809309028FC08091080231
:102320008260F3CF809108028460EFCF8091080231
:102330008860EBCF809109028160EDCF8091090226
:102340008260E9CF809108028061DFCF809108022E
:102350008062DBCF809108028064D7CF0E94F70CA7
:10236000809108028068D1CF809108028C60CDCF27
:10237000809109028360CFCF809108028E7FC5CF04
:1023800080910902877FC7CF809108028D7FBDCFE2
:10239000809108028B7FB9CF80910802877FB5CFEB
:1023A000809109028E7FB7CF809109028D7FB3CFD4
:1023B000809108028F7EA9CF809108028F7DA5CFE2
:1023C000809108028F7BA1CF0E94F70C80910802B8
:1023D0008F779BCF80910802837F97CF80910902EE
:1023E0008C7F99CF8091080282FB992790F921E098
:1023F000922790FB82F990FB83F987CF80910902A5
:10240000982F909591708E7F892B90FB81F983CFC7
:1024100090910802892F8F7B96FF806476CF0E946F
:10242000F70C90910802892F97FB87F980586DCFA0
:1024300061E08EE090E00E949D1E60910802709124
:10244000090284E090E00E94BB1E0E94F70C88CE37
:1024500060E0EFCF90910802892F8F7E94FF80611A
:1024600054CF90910802892F8E7F90FF81604DCFCD
:1024700090910902892F877F93FF88604CCFF7E7FF
:10248000EF16FCE7FF0609F46AC028E7E2162CE71E
:10249000F20609F471C033E0E3163CE7F30609F4F1
:1024A0008CC008F06BC0E1149CE7F90609F478C011
:1024B000A1E0EA16ACE7FA0609F485C0F8018581C7
:1024C000E080F180882309F48CC0C7010E94D30901
:1024D000D82E682FC7010E940607B7018D2D0E94D4
:1024E000C5090E94A3057C01882ED8011596AC90E1
:1024F000159716969C9092943FE093228091A701A5
:102500008770F1F0DA2CAA20E1F08F2D807F8034E3
:1025100051F080E28E0D883098F0911004C08F2D1C
:10252000807E803269F08091090282FF09C082E0DA
:102530000E946D078091A7018770DD24D3948111DB
:10254000D12CCF2CC2942FE0C222BBE0BC1508F4E2
:10255000B0C0EC2DF0E0EF50F14E0C94271E81E05E
:102560000E94840743E062E081E00E944007F8CDCA
:1025700081E00E946007F6CF82E0F2CFBBE5EB1668
:10258000BCE7FB0661F1ECE5EE16ECE7FE06E9F0D0
:10259000FAE5EF16FCE7FF0609F090CF81E01CC0DA
:1025A0000E94F70C2FEF34E38CE021503040804044
:1025B000E1F700C000000E94D8086FEF7FEF90E0C5
:1025C00080E00E94BB1E0E94E40F8091090282FB02
:1025D000882780F991E089270E94FC0B6FCF80E06B
:1025E000FBCFC7010E94D206D82E77CFEF2DEF7018
:1025F000BE2E8F2D807F19F0B29490EFB922AA20C1
:10260000B9F0BB2069F080E28E0D883010F08110A7
:1026100009C08091CA01B82AB092CA010E94700A0A
:102620008E2D45C08091C901B82AB092C901F6CF5C
:102630008E2D0E94D60ABB20E1F180E28E0D8830FB
:1026400010F0811004C08B2D0E94C10606C0B0940A
:102650008091C901B822B092C9010E94700A29C0B4
:10266000FF2DFF70BF2E8F2D807F803219F0B29426
:1026700080EFB822882059F021E0821609F482C048
:10268000AA2009F48EC0992009F44FC0C9CF8091C7
:10269000090282FD46C0AA20F1F1BB2039F08091E9
:1026A000CA018B298093CA010E94700A80E00E94AF
:1026B0000C0BAC2DA850BB0B149710F40E944604D1
:1026C000DD20A9F08091A70180FD11C0F8011582DD
:1026D0008695869586950E948407C8010E94FA0F08
:1026E0008091A7018695869586950E94600720E0D7
:1026F000D8014C9111965C91119712966C9112979A
:1027000013967C91139714968C91149715969C911F
:102710000E94320A35CD80E00E94D60ABB2049F2E1
:1027200092CFAA20A1F0911004C08B2D0E94CC0A58
:10273000C0CF31E09312BDCF8091C8019B2D98236B
:10274000B91609F4B6CF8B298093C801B2CF911086
:10275000B0CF8B2D0E94C50A9091C8018B2D892383
:1027600029F08B2D809589238093C80190918D014C
:102770008B2D892309F49DCF8B2D80958923809300
:102780008D0197CFAA2029F085E0891508F491CF13
:10279000CCCF94E0991508F48CCF8B2D0E94C50AFC
:1027A00088CF9920D1F3A9E38A1209C0BFEFE7EEE1
:1027B000F3E0B150E040F040E1F700C000008E2DA2
:1027C0000E94D60A76CF8F2D86958695837061F00C
:1027D000813009F06ECFC7019370A11002C080E074
:1027E00090E00E94FC0365CFC7019370A11002C066
:1027F00080E090E00E9421045CCF6A2D8E2D0E9423
:10280000930757CF8F2D837091F5A11052CF4E2D86
:10281000429546954770440F440F8E2D8F70042EBD
:1028200001C0880F0A94EAF72E2D2071E4FE07C03C
:102830002FE030E001C0220F4A95EAF720953F2DA6
:10284000369536953370323069F050F44091DC01A2
:10285000313029F0822B84230E9490072ACF842BC9
:10286000822BFACF282B8091DC018227F5CF869529
:10287000AA2011F08F2D8170882309F41ACF4E2DD4
:10288000429546954770440F440F8E2D8F70042E4D
:1028900001C0880F0A94EAF72E2D2071E4FE07C0CC
:1028A0002FE030E001C0220F4A95EAF720953F2D36
:1028B000369536953370323069F050F44091DD0131
:1028C000313029F0822B84230E943D07F2CE842BE5
:1028D000822BFACF282B8091DD018227F5CF2F2D77
:1028E0002F70F22EAA2029F0822F0E9484078E2DAD
:1028F0001DCF8E2D0E94C50A8F2D0E946007D9CE54
:102900008E2D32EF8316B1F1381570F090EF8916E5
:10291000D1F0A1EF8A1691F0AA2009F45EC09110BF
:102920007FCE8F2D8F712AC0B3EF8B1651F1E4EF5C
:102930008E12F2CF8091090282FD2FC08F2D8F71F0
:10294000AA20D9F21BC0AA2081F0F4E0F91508F4FE
:10295000B0CE2F2D2F7181E090E001C0880F2A9515
:10296000EAF79091DD018927AFCF25E0291508F41A
:10297000A0CEEFCF8F2D8F71A110BFCF0E94840703
:1029800098CE80E0AA2009F49FCF9F2D9F7181E00F
:1029900001C0880F9A95EAF797CFAA2099F03F2DAA
:1029A0003F71F32E832F0E9484078091090282FFDA
:1029B00007C0A8E0FA9EC001112483608093A7019C
:1029C0008F2DDCCF81E00E946D07B1E0B91508F0D2
:1029D00070CE82E00E946D076CCE992059F0893349
:1029E00009F0EDCEEFEFF7EE23E0E150F0402040AC
:1029F000E1F7E3CE8F2D8F7180CFB6E1EB16BCE708
:102A0000FB0609F03CCD8091CA018A7A91E009F475
:102A100090E090938C0169E2811165E38CE691E08E
:102A20000E94C7030E94700A9BCBE6E1EE16ECE71A
:102A3000FE0651F580918C0169E2811165E38CE617
:102A400091E00E949D03EECFF701E851FC47E7308B
:102A5000F10508F435CC10927502C70190578397A1
:102A600060F684E090E00E94871E909309028093B4
:102A70000802F701E150F047E232F10508F042CCDC
:102A8000E350F14E0C94271EF7E7EF16FCE7FF0624
:102A900009F46ECD82E028E7E2162CE7F20609F48D
:102AA00068CD0CCDCF93DF938091A601807F09F094
:102AB0004DC08091A501882309F448C0E0917202BD
:102AC00050913902C091A101D091A0016091A20161
:102AD0007091A30147E05E17C9F18E2F90E0E49F4B
:102AE000F0011124E65CFD4F2481222391F1489FDF
:102AF000F001499FF00D1124DF01A65CBD4F119636
:102B00002C9111972C1325C02C912D1322C01596B2
:102B10002C91159721111DC012962D913C91261BC9
:102B2000370B283C3105A8F48091A6018F70806195
:102B30008093A601E05CFD4F80818F70806180836F
:102B400080EA91E00E94FA0F0E94C806DF91CF91BF
:102B50000895FC013196E770BECFA4E1B0E0E3EB4D
:102B6000F5E10C943A1E8C0186E0F801DE011F9617
:102B700001900D928A95E1F7F8018481E58090EA51
:102B8000A92E91E0B92E9091A401911128C088231B
:102B900019F1EE20F1F0C8010E940F0AF82E8823E7
:102BA000C1F087E0F801D50101900D928A95E1F717
:102BB0008091A401813031F48091A0019091A10114
:102BC0000E94020A0E9452158F2D6496ECE00C942C
:102BD000561EC8010E94FA0FFF24F394F5CFD0804F
:102BE000C18082809380F090A5012091A201309154
:102BF000A301A401421B530BFF2009F4D9C0483C98
:102C0000510508F092C08823F9F29091A1018091BA
:102C1000A601282F207F09F056C0C91214C0909138
:102C2000A001D91210C0E11048C08F70806180935C
:102C3000A60180EA91E00E94FA0F8091A601F801B6
:102C40008683F12CC1CFE11038C06C2D8D2D0E94F0
:102C500006026C2D8D2D0E940602E82E8111F1CF07
:102C6000DF86C88A8F8598890E94020A292F2295BB
:102C70002F70243058F49F70223088F0992399F0F7
:102C8000F8019681907F79F4FE2C9ECF2A5F2F70F9
:102C9000223068F0C8010E94FA0FEF2CF5CF99237B
:102CA00011F0882389F3805E883070F3F3CF803F82
:102CB00058F3815F833070F7E7CF8091A601816080
:102CC0008093A601BECFC91207C09091A001D9126E
:102CD00003C0EE2009F48DC0C8010E940F0A8823AA
:102CE00009F477CFEE2009F474CF8091A6018032E9
:102CF00088F02091A0013091A101398728879B8617
:102D00008A869091A4019C871D868E87CE010896A5
:102D10000E94FA0F87E0F801A0EAB1E001900D925D
:102D20008A95E1F70E94521557CF9091A601292F5D
:102D3000207F51F480EA91E00E94FA0F87E0F501CC
:102D400011928A95E9F77DCF882309F43DCF8091D0
:102D5000A1018C1110C08091A001D8120CC0E1100B
:102D60000AC09683C8010E94FA0F87E0F50111920C
:102D70008A95E9F729CFC8010E940F0A882309F430
:102D800028CFEE2009F425CF8091A601803210F2E1
:102D90002091A0013091A1013A8329839C828B82EA
:102DA0009091A4019D831E828F83CE010196B0CFA6
:102DB000483C5105D0F6882309F40ECFFE2CEE20B6
:102DC00009F407CF8091A1018C1120C08091A0014E
:102DD000D8121CC08091A60180FD0FC0982F907F53
:102DE00061F08683903F31F0982F907F905F8F70D5
:102DF000892B8683C8010E94FA0F87E0F801A0EAB8
:102E0000B1E001900D928A95E1F7DECEC8010E94F3
:102E10000F0A81117FCF8091A60181608093A60166
:102E2000C8010E94FA0FD0CEABE1B0E0EAE1F7E1D1
:102E30000C94421E4E8B5F8B688F798F8A8F9B8F8D
:102E4000192F91111092C9011D8A86E0FE01769614
:102E5000DE011F9601900D928A95E1F70A8D0023FD
:102E600041F021E04F85588969897A89C8010E941B
:102E7000320A0B8B1C8B87E0FE013F96DE01189611
:102E800001900D928A95E1F7CE0108960E94AD154A
:102E900081110CC087E0FE013896DE011196019089
:102EA0000D928A95E1F78C8581110BC017E0809116
:102EB000720290913902891331C06B96E4E00C9450
:102EC0005E1E2091390230E0C90101968770992772
:102ED000409172024817190699F097E0929FD0012D
:102EE000939FB00D1124A65CBD4FFE013196019059
:102EF0000D929A95E1F7809339020E94C806D6CFC9
:102F00000E94F70C109239021092720287E0E0EAF8
:102F1000F1E0DF011D928A95E9F7C8CF819FC001DA
:102F20001124865C9D4F0E94AD15882331F280915B
:102F3000720290E001968770992780937202B7CF52
:102F4000A6E0B0E0E6EAF7E10C94421E0E9491038D
:102F50008C018091CB019091CC018017910781F079
:102F600019821A820E949103682F49815A81792F10
:102F700080E090E00E9414171093CC010093CB01E5
:102F80002696E4E00C945E1E1F920F920FB60F92ED
:102F900011242F933F934F935F936F937F938F935E
:102FA0009F93AF93BF93CF93DF93EF93FF93D09112
:102FB000E900DF708091EC00C82FC17080FDC0E88F
:102FC0001092E9008091F000877F8093F000789460
:102FD0000E94260D1092E9008091F0008860809395
:102FE000F000CD2BCF70C093E900FF91EF91DF91FE
:102FF000CF91BF91AF919F918F917F916F915F9191
:103000004F913F912F910F900FBE0F901F901895E9
:103010001F920F920FB60F9211242F933F934F934D
:103020005F936F937F938F939F93AF93BF93EF9330
:10303000FF938091E10082FF09C08091E20082FF4E
:1030400005C08091E1008B7F8093E1008091DA00E0
:1030500080FF24C08091D80080FF20C08091DA00DA
:103060008E7F8093DA008091D90080FF9DC080E13F
:1030700089BD82E189BD09B400FEFDCF81E0809366
:103080002F0280910A02811109C00E9425020E942C
:10309000C6028091E20084608093E2008091E100AA
:1030A00080FF17C08091E20080FF13C08091E20092
:1030B0008E7F8093E2008091E20080618093E20045
:1030C0008091D80080628093D80019BC85E08093FD
:1030D0002F028091E10084FF2BC08091E20084FFE9
:1030E00027C080E189BD82E189BD89B5982F9170A3
:1030F00080FFFBCF8091D8008F7D8093D800809196
:10310000E1008F7E8093E1008091E2008F7E8093CA
:10311000E2008091E20081608093E20080913002C1
:10312000882309F447C084E080932F0280912F0206
:103130008091E10083FF27C08091E20083FF23C0DC
:103140008091E100877F8093E10082E080932F02ED
:10315000109230028091E1008E7F8093E100809197
:10316000E2008E7F8093E2008091E2008061809394
:10317000E20042E060E080E00E9494028091F00072
:1031800088608093F000FF91EF91BF91AF919F9184
:103190008F917F916F915F914F913F912F910F9000
:1031A0000FBE0F901F90189519BC10922F0210920D
:1031B0000A0274CF8091E30087FD93E090932F0281
:1031C000B5CF78941F921FB61F9211248F939F93AF
:1031D000AF93BF938091040290910502A0910602E3
:1031E000B09107020196A11DB11D80930402909336
:1031F0000502A0930602B0930702BF91AF919F9181
:103200008F911F901FBE1F9018951F921FB61F927F
:1032100011248F939F93AF93BF93809103028111E9
:1032200013C08091040290910502A0910602B09112
:1032300007024196A11DB11D8093040290930502DF
:10324000A0930602B0930702BF91AF919F918F9117
:103250001F901FBE1F901895CDB7DEB7A6970FB66B
:10326000F894DEBF0FBECDBF85B7806885BF85B738
:10327000806885BF84B7877F84BF0FB6F894A89510
:1032800080916000886180936000109260000FBEA2
:1032900080E890E00FB6F89480936100909361000D
:1032A0000FBE8CEB94E090936B0180936A010E94B7
:1032B00025020E94C6028091E20084608093E200B1
:1032C000789480912F028823A1F01091E9001F705B
:1032D0009091EC00892F817090FD80E8182B10925E
:1032E000E9008091E80083FD0E94260D1F70109375
:1032F000E90082E084BD93E095BD9AEF97BD80938D
:103300006E000E94570A811102C00E9486098091B6
:103310000A0190910B01A0910C01B0910D018093D5
:10332000D0019093D101A093D201B093D3015D98C5
:10333000559A80E40E94B41DABE4B1E047E551E04A
:1033400061E070E08D91E82FE295EF70F0E021A14F
:103350008F708B0102C0000F111F8A95E2F7C80120
:10336000922F982B91A392A18095892382A34A172B
:103370005B0741F7A7E5B1E041E050E08D91E82F10
:10338000E295EF70F0E091A18F709A0101C0220FD9
:103390008A95EAF7892F822B81A311E0AA35B1071C
:1033A00069F755985D981092D5011092D40110924A
:1033B000E9011092E8011092D7011092D601109203
:1033C000EB011092EA011092D9011092D8011092EB
:1033D000ED011092EC011092DB011092DA011092D3
:1033E000EF011092EE0190E080E00E94871E863E81
:1033F0009E4F21F40E94570A811167C066EE7EEF4E
:1034000090E080E00E94BB1E60E082E090E00E94BD
:103410009D1E60E083E090E00E949D1E1092DC0102
:1034200060E074E184E090E00E94BB1E60E086E012
:1034300090E00E949D1E6FEF87E090E00E949D1E2D
:1034400040E050E0BA0188E090E00E94AF1E60E0EA
:1034500084E290E00E949D1E60E087E190E00E947F
:103460009D1E60E08CE090E00E949D1E60E08DE07B
:1034700090E00E949D1E19821A821B821C821D826E
:103480001E821F82188648E050E068E170E0CE019D
:1034900001960E948D1E40E050E0BA0180E290E06B
:1034A0000E94AF1E80E00E946D090E94860940E0E4
:1034B00050E0BA018FE090E00E94AF1E40E050E083
:1034C000BA0183E190E00E94AF1E82E090E00E948A
:1034D0007F1E8093DE0184E090E00E94871E90931F
:1034E0000902809308020E94130C4FEF86E791E0D7
:1034F000415080409040E1F700C000000E94130C52
:103500008091E80180FF08C06FEF7FEF90E080E0DE
:103510000E94BB1E0E94D80883E090E00E947F1E9C
:103520000E94900780E091E0909300028093FF0159
:10353000E8E14E2E512CF0EF6F2EF1E07F2E8091BE
:103540002F0212E1853009F496C00E94130C6FED32
:10355000A62E61E0B62E78EE872E71E0972ED4016C
:10356000F501219131918D919D9101E0E73EF007A8
:1035700009F48BC028173907A1F3312CF40101910C
:1035800011914F01F501C190D1905F01C016D10694
:1035900061F1C026D126212CEE24E394F12CC60142
:1035A0008E219F21892BB9F029A23AA20E94910372
:1035B0009CA38BA3F1E0FDA391E098012E213F2174
:1035C000232B09F490E09EA349A15AA16BA17CA1F1
:1035D0008DA10E9414172394EE0CFF1C2CE02212E4
:1035E000DECFF501329711830083339444E0341227
:1035F000C5CF8FB7F89440910402509105026091B5
:103600000602709107028FBF46C080912F0284305E
:1036100011F110920302E0E40FB6F894A8954092DD
:1036200060000FBEE093600083B7817F846083BF3A
:1036300083B7816083BF7894889583B78E7F83BF7B
:103640000FB6F894A895809160008861809360001F
:10365000109260000FBE80912E02882361F00E94BC
:10366000130CE8EEF1E081919191892B09F052C29F
:103670006E167F06C1F780912F02853009F4C5CF01
:103680000E94F70C0E94460460CF2817390709F002
:1036900074CF0E94A01786E0E7EFF1E0DE011196FB
:1036A00001900D928A95E1F71092F9011092FA01BA
:1036B0001092FB011092FC011B810C81812F802B49
:1036C00009F448C08091F5019091F6010E948203AF
:1036D0009C019091F001992309F441C225313105F3
:1036E000C8F19F3F19F09F5F9093F001112359F0AB
:1036F0000E949C049FEF11160CF491E0899F802D8D
:1037000011248093F901002359F00E949C049FEF3B
:1037100010160CF491E0899F802D11248093FA01FA
:103720003091F9013323B1F02091FA01222391F075
:1037300005EB3003C0011124992309F4B5C090931F
:10374000F90115EB210390011124332309F4B0C0D2
:103750003093FA011D810E81812F802B09F448C01E
:103760008091F3019091F4010E9482039C01909159
:10377000F101992309F4EEC121353105C8F19F3FCC
:1037800019F09F5F9093F101112359F00E947A0480
:103790009FEF11160CF491E0899F802D11248093E6
:1037A000FB01002359F00E947A049FEF10160CF4DD
:1037B00091E0899F802D11248093FC013091FB01C1
:1037C0003323B1F02091FC01222391F045EB340327
:1037D000C0011124992309F46FC09093FB0105EBFC
:1037E000200390011124332309F46AC03093FC01B3
:1037F00046E050E0BE016F5F7F4F87EF91E00E948F
:10380000D11E892B61F48091F9019091FA01892BE5
:103810009091FB01892B9091FC01892B11F00E9462
:10382000530486E0FE013196A7EFB1E001900D92BE
:103830008A95E1F70E9446049091E701891769F0A3
:103840008093E7018FB7F8944091040250910502EC
:1038500060910602709107028FBF80912F02843021
:1038600009F06DCE83E08093E9008091E80082FF4B
:1038700066CE8091E80090E085FF05C00E9444027A
:10388000882311F191E08091E8008B778093E80024
:10389000992309F454CEE981E150E331E0F5F0E0F9
:1038A000E15EF04E0C94271E81E08093F90149CF30
:1038B00081E08093FA014ECF81E08093FB018FCFAE
:1038C00081E08093FC0194CF00E210E0CE010196EC
:1038D0007C018091E80085FD0AC08091E8008B772B
:1038E0008093E8000E944402882399F3CBCF809113
:1038F000F100F70181937F010150110951F7C2CF07
:103900001A828CE08B8324C08A81823009F419C129
:1039100028F4813061F08FEF89831AC0833009F178
:103920008430C9F71B821C821D821E8211C02FB7F2
:10393000F8946091040270910502809106029091C2
:1039400007022FBF0E942D1E6B837C838D839E8375
:1039500040E250E0BE016F5F7F4F82E00E946B0843
:10396000EECD2B81822F90E0FE013196225F8430D4
:10397000910570F7DC01AA0FBB1FA851BE4F3C9107
:1039800011964C9143833483019632962813EFCFDE
:10399000DFCF8A81823019F08530D1F2BCCF6B81C4
:1039A0007C818D819E810E942D1E88E290E00E9484
:1039B0009D1ECECF4C816B818A810E9496099827EB
:1039C000892798279E838D83C3CF2D813E813227FF
:1039D000232732274C816B818A810E940C09B8CF42
:1039E0000E943209B5CFF0E1FA83B2CF82E08A8338
:1039F00087E588CF0A811B81102701271027CE0178
:103A000001966C01EC80FC01EE0DF11D7F01C801F7
:103A100087559E4FCE14DF0409F49ACF0735F2E0A4
:103A20001F0750F40E947F1EF60184830F5F1F4F13
:103A3000FFEFCF1ADF0AEBCFF6011482F7CF0A812E
:103A40001B81102701271027CE0101966C01EC8005
:103A5000E00EF12EF11CC80187559E4FE016F106CD
:103A600009F476CF0735E2E01E0720F4F601648101
:103A70000E949D1EFFEFCF1ADF0A0F5F1F4FEBCF93
:103A80000E94FC0865CF84E08A8362CF0A811B8193
:103A9000102701271027CE0101966C01EC80FC0154
:103AA000EE0DF11D7F01C8018996EC14FD0409F4A7
:103AB0004FCF0038F1E01F0750F40E947F1EF6013F
:103AC00084830F5F1F4FFFEFCF1ADF0AECCFF601A1
:103AD0001482F7CF0A811B81102701271027CE01FE
:103AE00001966C01EC80E00EF12EF11CC801899664
:103AF0000E151F0509F42CCF0038E1E01E0720F455
:103B0000F60164810E949D1EFFEFCF1ADF0A0F5F4E
:103B10001F4FECCF00E109BD19BD09B400FEFDCF78
:103B20008091D8008F7D8093D8008091E0008260E2
:103B30008093E0008091E00081FDFCCF0E94F70CB3
:103B40009ACD88E290E00E947F1E1B821C821D821B
:103B50008E83FECE2B30310508F013CE49CE2B30AC
:103B6000310508F0C0CDF6CD807C80930901089521
:103B7000873901F178F48633F9F030F48433F1F0C9
:103B80008533F1F08FE108958439E1F08639D1F77A
:103B900081E20895843FC1F030F4803FB9F0813F65
:103BA00089F781E00895863F99F0A0F0873F51F7AB
:103BB00087E0089582E2089585E2089583E20895FA
:103BC00084E2089580E2089584E0089580E00895F5
:103BD00086E0089585E0089596E890937A00982FFE
:103BE0009072906890937B008F7190910901892B5E
:103BF00080937C0080917A00806480937A00809129
:103C00007A0086FDFCCF8091780020917900909118
:103C10007A009F7790937A00922F08950E94B81DA2
:103C20000E94EC1D089597FB072E16F4009407D010
:103C300077FD09D00E946B1E07FC05D03EF49095DD
:103C400081959F4F0895709561957F4F0895EE0F70
:103C5000FF1F0590F491E02D0994692796276927A5
:103C600078278727782708952F923F924F925F9267
:103C70006F927F928F929F92AF92BF92CF92DF927C
:103C8000EF92FF920F931F93CF93DF93CDB7DEB7E1
:103C9000CA1BDB0B0FB6F894DEBF0FBECDBF099475
:103CA0002A88398848885F846E847D848C849B84CC
:103CB000AA84B984C884DF80EE80FD800C811B81DA
:103CC000AA81B981CE0FD11D0FB6F894DEBF0FBE09
:103CD000CDBFED010895AA1BBB1B51E107C0AA1F70
:103CE000BB1FA617B70710F0A61BB70B881F991F9D
:103CF0005A95A9F780959095BC01CD010895F99941
:103D0000FECF92BD81BDF89A992780B50895A8E1AC
:103D1000B0E042E050E00C94C31EDC01A40FB51FDC
:103D20004150504048F0CB01840F951F2E910E94C6
:103D30009E1E41505040D0F70895262FF999FECF8E
:103D400092BD81BDF89A019700B4021639F01FBAEE
:103D500020BD0FB6F894FA9AF99A0FBE089503960B
:103D6000272F0E949E1E0E949D1E252F0E949E1E90
:103D7000242F0C949E1E0196272F0E949E1E0C94A9
:103D80009D1EDC01CB01FC01F999FECF06C0F2BDFE
:103D9000E1BDF89A319600B40D9241505040B8F709
:103DA0000895FB01DC0104C08D910190801921F47C
:103DB00041505040C8F7881B990B0895F894FFCFE5
:103DC000070E2F0ED20F2F0ED20F620E830ED20FC0
:103DD000810F8E0F6F11731164116B1177117B11AD
:103DE0007F11F612F61230133013E313FD1359133B
:103DF000591302146F1480148014BC113112C411B1
:103E00008E119211C8119611CC11D811A2112A123B
:103E1000A611DC11AA11E0110812AE11E4110F1263
:103E2000B411EA11F2119A11D0119E11D411B811E6
:103E3000EE11FE11181228128811C0113812801CC0
:103E4000841CC91CDA1CE51CF01C8B1C8B1C8B1CF5
:103E50008B1C8B1CF31CF61CFA1C1F1D401D431DE4
:043E6000461D6A1D74
:103E64007F03B408AD08A6080140370041008182F1
:103E740083E200E900EA00B500B600B700CD008394
:103E840001CC008A0192019401210223022402251B
:103E940002260227022A02B300B4006F0070009FBA
:103EA40001CB019F02A002000103043790369666FD
:103EB4006797F734F6F5359192934022B684016200
:0A3EC40001AC00E602FF021F03003C
:00000001FF
