:100000000C9465020C949D020C949D020C949D022C
:100010000C949D020C949D020C949D020C949D02E4
:100020000C949D020C949D020C944E1B0C940A1B84
:100030000C94A11C0C949D020C949D020C949D02A6
:100040000C949D020C949D020C949D020C949D02B4
:100050000C949D020C947D1C0C949D020C949D02AA
:100060000C949D020C949D020C949D020C949D0294
:100070000C949D020C949D020C949D020C949D0284
:100080000C949D020C949D020C949D020C949D0274
:100090000C949D020C949D020C949D020C949D0264
:1000A0000C949D020C949D020C949D020631FF0954
:1000B00074A1010975150026FF00952075088102BD
:1000C0000976150026FF00952075089102C00501EC
:1000D0000902A10185020901A100050919012908E8
:1000E00015002501950875018102050109300931C6
:1000F0001581257F95027508810609381581257FB0
:10010000950175088106050C0A38021581257F9531
:100110000175088106C0C005010980A10185031988
:10012000012AB700150126B700950175108100C09E
:10013000050C0901A101850419012AA00215012657
:10014000A002950175108100C005010906A1018575
:1001500006050719E029E7150025019508750181B5
:10016000020507190029EF1500250195F075018199
:10017000020508190129059505750191029501757A
:10018000039101C00660FF0961A101096215002603
:10019000FF009520750881020963150026FF009570
:1001A0002075089102C005010906A101050719E0A3
:1001B00029E715002501950875018102950175084B
:1001C00081010507190029FF150026FF0095067516
:1001D0000881000508190129059505750191029509
:1001E0000175039101C00000000000000000000044
:1001F00000000000000000000000000000000000FF
:10020000000000000000000000007E0F00D4FFFF8F
:10021000FFC70000007800000000000000002A2B4B
:1002200028000000000000000000000000000000A6
:100230000029000000002C1E34202122243426270F
:10024000252E362D3738271E1F2021222324252630
:100250003333362E37381F0405060708090A0B0CFE
:100260000D0E0F101112131415161718191A1B1C46
:100270001D2F3130232D350405060708090A0B0C04
:100280000D0E0F101112131415161718191A1B1C26
:100290001D2F3130354C44454255473A206469732F
:1002A00061626C65642E0A0044454255473A2065F8
:1002B0006E61626C65642E0A004F6E6573686F74C0
:1002C0003A206163746976653A2025640A000A0061
:1002D0002530325820006B6579626F6172645F72FD
:1002E00065706F72743A20000A00253564000A00B8
:1002F0005B735D000A0025303862003A200025302B
:100300003258000A722F6320303132333435363799
:100310000A000A0025303258006C65645F7461730E
:100320006B3A2000290A002575002F002575005D15
:10033000280025640020002564002000256400209A
:10034000002564007C0025303258006D6F757365A0
:100350006B6579205B62746E7C78207920762068EA
:100360005D287265702F61636C293A205B00530031
:100370005400550056005F006000610067005C009B
:100380005D005E00570059005A005B005800620093
:10039000620063004C006164645F6B65795F626951
:1003A000743A2063616E2774206164643A202530BA
:1003B00032580A0064656C5F6B65795F6269743AF4
:1003C0002063616E27742064656C3A2025303258B2
:1003D0000A005B435D005B445D005B535D005B575F
:1003E0005D005B525D0009027B00040100A0FA0978
:1003F0000400000103010100092111010001224054
:100400000007058103080001090401000203000040
:1004100000092111010001222200070582032000AA
:100420000107050303200001090402000103000085
:100430000009211101000122B600070584032000F4
:100440000109040300020300000009211101000159
:10045000222200070585032000010705050320006F
:100460000112010002000000084456544E10010120
:100470000200012A034F00530041007600320020A1
:10048000004E0075006D0070006100640020002DBA
:1004900000200054006F007000720065000000240E
:1004A00003560069006B007400750073002000445F
:1004B0000065007300690067006E0020004C004C6E
:1004C0000043000000040309040011241FBECFEF05
:1004D000DAE0DEBFCDBF04B603FE18C080918F0204
:1004E00090919002A0919102B09192028730904B2E
:1004F000A740B04B59F410928F02109290021092C4
:10050000910210929202E0E0F8E3099511E0A0E078
:10051000B1E0E2E4F6E402C005900D92A836B1071E
:10052000D9F722E0A8E6B1E001C01D92AF38B207CA
:10053000E1F70E94C81C0C94CD220C940000FF939C
:10054000EF93E0916801F0916901309709F0099506
:10055000EF91FF910895FC018591803011F0EFDF5C
:10056000FBCF0895FF27E0E230E247FF0CC0419542
:1005700097FF09C0EDE26095709580959095611D9B
:10058000711D811D911D27FF02C0219530E350E2AE
:10059000AA27660F771F881F991FAA1FA41710F09C
:1005A000A41B63955A95A9F7AA3008F0A95FA05D2E
:1005B000AF93F395611571058105910541F7ED3212
:1005C00011F4EF93F395F21718F43F93F395FBCFE3
:1005D0008F91B5DFFA95E1F70895E991F991859149
:1005E000803021F0853219F0AADFF9CF089520E09C
:1005F000E89455915532C1F3503311F468945591F4
:100600005A3348F4505390F3220F022E220F220F38
:10061000200D250FF4CF0EF4219589919991533631
:1006200019F3533729F1533559F1BC01882799271C
:10063000E8945C3621F489919991689455915436E7
:1006400039F446EF7EF077FF0DC08FEF9FEF0AC0C1
:1006500055374AE039F0583540E121F0523642E052
:1006600009F00895FF93EF937DDFEF91FF91B7CFEE
:10067000FF93EF93FC0181918030B9F360DFFBCFF2
:10068000FF93EF9368DFF1CFDF93CF93CDB7DEB762
:100690002596A3DFCF91DF910895482F20918B02FB
:1006A0009091520257E0291302C080E0089530E093
:1006B000529FF001539FF00D1124ED5AFD4F81819F
:1006C000681306C08081481303C085818111EECF75
:1006D0002F5F3F4F2770E7CFE8EDF0E080818E7FFE
:1006E00080831092E2001092DA001092E100A0EEF6
:1006F000B0E08C9181608C9380818F77808319BC6E
:10070000A7EDB0E08C918E7F8C9380818F7E80836B
:100710001092230208952091E4003091E50095E6BF
:10072000A9012091EC00822F817020FF06C08091EA
:10073000E80080FF06C080E008952091E80022FDD7
:100740001AC080914802882389F0853089F0809111
:10075000EB0085FD0FC02091E4003091E5004217C9
:100760005307F9F29150E1F684E0089582E008958C
:1007700083E0089581E0089580914A0287FF13C0C5
:100780008091E80082FF06C08091E8008B7780931B
:10079000E80004C0809148028111F2CF0895809151
:1007A00048028823D9F38091E80080FFF8CF809138
:1007B000E8008E77ECCF982F9093E900242F762FC6
:1007C00050E0891731F07091EC002091ED005091CC
:1007D000F00021FD07C09F5F973071F78093E9001B
:1007E00081E008953091EB003E7F3093EB00309133
:1007F000ED003D7F3093ED003091EB0031603093A0
:10080000EB007093EC002093ED005093F0002091EA
:10081000EE0027FDE0CF80E00895B0E0A0E0E3E146
:10082000F4E00C942D22C8EDD0E088818F7E88837F
:10083000E7EDF0E080818160808384E082BF81E029
:100840008093230288818E7F888302EE10E0F80176
:1008500010821092DA0081EEC82ED12CF60110829F
:1008600088818F77888388818068888388818F7D5D
:10087000888319BC109248021092490210924702D4
:100880001092460290EEE92EF12CF70180818B7FC9
:10089000808388818160888342E060E080E00E94FC
:1008A000DB03F60180818E7F8083F8018081816087
:1008B0008083808188608083F70180818E7F808340
:1008C000888180618883CDB7DEB7E8E00C94492247
:1008D000FC01809150029091510286179707A0F079
:1008E0006115710529F49091E8009E779093E800D6
:1008F00090E06115710551F4911108C08091E800F4
:1009000082FF34C080E00895BC01F2CF809148029C
:100910008823C1F18530C1F18091E80083FD30C0AA
:100920008091E80082FDEACF8091E80080FFE1CF6E
:100930008091F3002091F200382F6115710519F0B4
:100940002830310558F091E02830310509F090E069
:100950002091E8002E772093E800CBCF81918093FF
:10096000F100615071092F5F3F4FE7CF809148023E
:10097000882341F0853041F08091E80083FFBECFAD
:1009800081E0089582E0089583E008958091250232
:1009900008959C014FB7F89480911A0290911B0220
:1009A000A0911C02B0911D024FBF821B930B0895B2
:1009B0002FB7F89480911A0290911B02A0911C020B
:1009C000B0911D022FBF0895A3E0B0E0EAEEF4E07D
:1009D0000C94332220911602309117022817390700
:1009E000A1F09093170280931602E0911402F09107
:1009F0001502309751F024E029839B838A83068077
:100A0000F781E02DCE01019609952396E2E00C9442
:100A10004F22A3E0B0E0EFE0F5E00C943322209108
:100A200012023091130228173907A1F09093130294
:100A300080931202E0911402F0911502309751F068
:100A400023E029839B838A830680F781E02DCE01F2
:100A5000019609952396E2E00C944F22E09114024E
:100A6000F0911502309729F00190F081E02D099561
:100A7000089580E008958091060280FD16C081FDF2
:100A800016C082FD16C0809105028823A1F088322D
:100A900080F428E0829FC001112468E270E00E9487
:100AA0000222862F672B39F0089582E0089584E0B2
:100AB000089588E0089581E008958091060280FD00
:100AC00014C081FD14C082FD16C0809107028823E6
:100AD00081F08E3180F420E5829FC00111246EE107
:100AE00070E00E940222862F089584E1089588E232
:100AF000089588E0089580E5089590911E0292FF80
:100B000006C0282F28712830F9F4877F846093FF6E
:100B100006C0282F28712831F1F4877E8461209146
:100B20001F0220FF06C0382F38713830D9F4877F74
:100B3000816021FF06C0282F28712831D1F4877EDB
:100B4000816194FD877E0895282F24712430F9F661
:100B50008B7F8860DCCF282F2471243101F78B7EB6
:100B60008861DDCF382F3171313019F78E7F886081
:100B7000E0CF282F2171213121F78E7E8861E1CFCE
:100B800082389105B9F1B0F48133910509F47DC043
:100B900048F48932910509F46DC08A32910509F44F
:100BA0007BC008958533910509F45FC089339105B1
:100BB00009F10895833E9105D9F138F4803E9105FD
:100BC00029F1823E910579F10895863E9105D9F18A
:100BD000873E910509F43EC0843E910541F5209180
:100BE0001F0221FF24C080911E0284FD19C087EEE0
:100BF00090E0089520911E02237009F05AC02091C0
:100C00001F0223FF14C089E290E0089520911E0284
:100C100020FD38C030911F0230FF09C024FF43C0BF
:100C200090E080E0089520911E0222FDF7CF089504
:100C300020911E0222FD3AC030911F0230FD39C0C2
:100C400024FFF5CFEDCF20911E0223FFF0CF24FD2E
:100C5000E7CFCDCF20911E0223FD2EC030911F0281
:100C600031FFEECF84EE90E0089520911E0225FF23
:100C7000DECFC9CF20911E0225FD21C020911F0289
:100C800023FFD5CF89E390E0D2CF20911E0226FF2B
:100C9000CECF8AE290E0089520911E0226FFC7CFB2
:100CA00081E390E0089583EE90E0089582EE90E075
:100CB000089580EE90E0089586EE90E0089585E333
:100CC00090E008951F93CF93DF930E94C005EC013D
:100CD000C11580E5D807F0F5C11580E4D80708F004
:100CE0009CC0C03ED10520F5CD3CD10508F082C0A6
:100CF000C83AD10578F4C53AD10508F073C0C130BF
:100D0000D10519F1209709F1C430D105F0F4D0E0F4
:100D1000C0E01BC0C33CD105D0F7C85AD0E0CC0F0F
:100D2000DD1FCF5EDE4F0990D881C02DD4640DC089
:100D3000C11580E2D80708F0D1C0C11581E0D807FD
:100D400008F05AC0C83ED10510F7CE01DF91CF910F
:100D50001F910895C03682E5D80718F5C03482E5A2
:100D6000D80708F06BC0C03282E5D80708F05FC032
:100D7000C11582E5D80708F497C02C2F2695269533
:100D800080E2289F900111248C2F8370C1E0D0E075
:100D900002C0CC0FDD1F8A95E2F7C22BD32BDD6892
:100DA000D4CFC03A82E5D80760F4C03882E5D807CE
:100DB00008F459C0CF71D0E0DC2FCC27C46FD06AC3
:100DC000C4CFC03C82E5D80708F462C0C03E82E5CB
:100DD000D80708F09CCFDC2FCC27CC27DF71C06F61
:100DE000D06AB3CFC55AD0E0C25FDE4FC881D0E031
:100DF000D064ABCFD065A9CF8D2F0E947D05182F71
:100E0000CE0199270E94C005C12FD0E0DC2FCC274E
:100E1000CC27DF71C82BD92B98CFCE0199270E9400
:100E2000C005CC27DF70C82BD92BD06A8ECFCF71ED
:100E3000D0E0DC2FCC27C16FD06A87CF2C2F26952E
:100E40002695277080E2289F900111248C2F8370B3
:100E5000C1E0D0E002C0CC0FDD1F8A95E2F7C22BC3
:100E6000D32BDC6872CF2C2F26952695277080E235
:100E7000289F900111248C2F8370C1E0D0E002C024
:100E8000CC0FDD1F8A95E2F7C22BD32BDA685DCF3A
:100E90008C2F8F710E947D05C82FD0E0DC2FCC27CE
:100EA000CC27DF71D06251CF8C2F8F710E947D05CE
:100EB00055E0D695C7955A95E1F7CF70D0E0DC2F75
:100EC000CC27282F30E084FF05C044E0220F331FD9
:100ED0004A95E1F7C22BD32BD06937CF8D2F8F7175
:100EE0000E947D05182FCE0199270E94C005C12FB1
:100EF000D0E0DC2FCC27CC27DF71C82BD92BD2CF69
:100F000080959091BF0198239093BF01089580919F
:100F10008B0290915202981301C008958F5F8770E1
:100F2000FACF953080F5843070F544E0949F9001BD
:100F30001124820F932F911D682F677023E09695DF
:100F400087952A95E1F7FC01EE0FFF1FE80FF91FC7
:100F5000E457FE4F50E040E080E0219130E0062E63
:100F600002C0369527950A94E2F721703327042EA4
:100F700001C0220F0A94EAF7822B4F5F5F4F433084
:100F8000510559F7089580E00895953098F584301B
:100F900088F544E0949F90011124820F932F911DB6
:100FA000282F277041E001C0440F2A95EAF723E07B
:100FB000969587952A95E1F7FC01EE0FFF1FE80F44
:100FC000F91FE457FE4F90E080E070E05191DF019F
:100FD00011979B01082E02C0369527950A94E2F7D7
:100FE000217021952527242325272C9301968330D2
:100FF000910561F708958093F90108959091F901A1
:1010000021E030E0F90101C0EE0F8A95EAF7D9013D
:1010100002C0AA0FBB1F6A95E2F7EA2B01C0220F9C
:101020004A95EAF7892F8E23E81305C0292B822FD2
:101030000E94FB07089520952923F9CF21E030E095
:1010400001C0220F8A95EAF720958091F901822349
:101050000E94FB07089590919C01809589238093BD
:101060009C01282F277069F4891759F090911F026D
:1010700092FF07C08695869586950E941E0810925D
:101080009C01089521E030E001C0220F8A95EAF723
:101090008091F901822B0E94FB0708958093F8014B
:1010A0000895829590E09C01220F331F220F331F79
:1010B0002C7C95958795959587958373282B30E0A3
:1010C000C901880F991F8A7A359527952575822B36
:1010D00008959FB7F894109221029FBF9091480203
:1010E000943009F048C02091E9002F703091EC0055
:1010F000932F917030FD90E8922B25E02093E9002A
:101100002091EB0020FF34C02091EE0027FF30C07B
:1011100020912002222321F02091E80025FF28C001
:101120001092200226E03091E80035FF14C0809331
:10113000F1008091E80085FD27C08091E80080FFE4
:10114000FCCF8091E8008E778093E8009F709093A9
:10115000E90080E0089530914802343049F430913C
:10116000EB0035FD05C0215041F481E08093200261
:101170009F709093E9008FEF0895EFE9FFE03197BA
:10118000F1F700C00000CFCF8FB7F89421E0209393
:1011900021028FBFDBCF0F931F93CF93DF938B0180
:1011A000EA0190914802943061F58093E9008FEF55
:1011B0009091E800815095FD06C095ED9A95F1F764
:1011C00000008111F5CF8091E80085FF1AC00E94D0
:1011D0008B03811111C08091E80085FD06C08091CC
:1011E000E8008E778093E800F2CFF80181918F01BB
:1011F0008093F100219779F78091E8008E778093B2
:10120000E800DF91CF911F910F91089543E050E0E6
:10121000BC0184E00E94CB08089546E050E0BC0188
:1012200084E00E94CB080895CF93DF93EC01809176
:101230000801811111C048E050E0BE0181E00E9428
:10124000CB0880E2FE01A6E2B2E001900D928A9501
:10125000E1F7DF91CF91089580911E0287FF05C0CD
:1012600040E284E050E0BE01EACF48E081E0FACFFE
:1012700081E08093E00080E28093D8001092C90062
:101280008FE19EE40197F1F700C0000087E090EB4A
:10129000DC0180938F0290939002A0939102B0930F
:1012A000920288E19CE00FB6F894A89580936000C4
:1012B0000FBE90936000FFCF20910801222351F1CF
:1012C00020911E0227FF26C0E62FE695E695E695BB
:1012D000EE3178F4E80FF92FF11D677021E030E06E
:1012E00001C0220F6A95EAF7209582812823228384
:1012F00008958091180280FF19C01F926F9384EBAC
:1013000093E09F938F930E9444030F900F900F9050
:101310000F900895FC01329608962191621303C044
:10132000DF0111971C92E817F907B9F7089520918A
:101330000801222349F120911E0227FF25C0E62F34
:10134000E695E695E695EE3170F4E80FF92FF11D7C
:10135000677021E030E001C0220F6A95EAF78281D0
:10136000822B828308958091180280FF1EC01F92F5
:101370006F9386E993E09F938F930E9444030F90AD
:101380000F900F900F900895FC0132962FEF30E0F0
:101390004191641751F02F3F19F4411101C0232FDF
:1013A0003F5F3630A9F72F3F09F40895820F911D52
:1013B00027FD9A95FC01628308958091180283FFAE
:1013C0007EC08BE493E00E94AB0280910D021F92DD
:1013D0008F9386E493E09F938F930E94440384E469
:1013E00093E00E94AB0280910E02282F082E000C81
:1013F000330B3F938F9381E493E09F938F930E94ED
:1014000044038FE393E00E94AB0280910F02282FE8
:10141000082E000C330B3F938F938CE393E09F9344
:101420008F930E9444038AE393E00E94AB02809171
:101430001002282F082E000C330B3F938F9387E365
:1014400093E09F938F930E94440385E393E00E946F
:10145000AB0280911102282F082E000C330B3F9312
:101460008F9382E393E09F938F930E9444038FE2D4
:1014700093E00E94AB02809107021F928F938CE24F
:1014800093E09F938F930E9444038AE293E00E942B
:10149000AB02809106021F928F9387E293E09F93A5
:1014A0008F930E94440384E293E00E94AB028DB7C5
:1014B0009EB74C960FB6F8949EBF0FBE8DBF0E948C
:1014C000D8049C0190910E0280910F02982B21F07C
:1014D00030930B0220930A02909110028091110226
:1014E000982B21F03093090220930802E091140216
:1014F000F0911502309749F082E080930C0204804D
:10150000F581E02D8CE092E009950895662309F4B9
:101510005DC08D3C41F40E945D05819580930F0272
:101520000E94DD0908958E3C19F40E945D05F6CFF6
:101530008F3C31F40E945D05819580930E02F0CFBF
:10154000803D19F40E945D05F8CF893D29F40E9481
:101550003B0580931002E4CF8A3D21F40E943B05B5
:101560008195F7CF8B3D31F40E943B0581958093A7
:101570001102D6CF8C3D19F40E943B05F8CF9FE2B3
:10158000980F983070F4815D990B21E030E001C034
:10159000220F8A95EAF780910D02822B80930D022B
:1015A000BFCF8D3D31F480910602816080930602A9
:1015B000B7CF8E3D21F4809106028260F7CF8F3D38
:1015C00009F0AECF809106028460F0CF40910E0208
:1015D0008D3C59F480910F0287FF0DC010920F02CD
:1015E00041110BC01092070208C08E3C81F480911B
:1015F0000F0218169CF3442381F080911002909101
:101600001102892B09F08CCF1092050289CF8F3CF3
:1016100049F447FFF0CF10920E0280910F02811122
:10162000ECCFE0CF803D19F41416ACF3E4CF9091E9
:101630001002893D29F41916F4F610921002DBCF3E
:101640008A3D19F497FFD7CFF8CF909111028B3DC7
:1016500029F497FFD0CF10921102CDCF8C3D19F411
:101660001916CCF3C8CF9FE2980F983090F4815DA3
:10167000990B21E030E0B90102C0660F771F8A950F
:10168000E2F7CB01809590910D02892380930D02A2
:10169000B2CF8D3D31F4809106028E7F8093060299
:1016A000AACF8E3D21F4809106028D7FF7CF8F3D2A
:1016B00009F0A1CF809106028B7FF0CFCF93DF930B
:1016C000C9ECD0E060E0CE010E948C222196C115C9
:1016D00084E0D807B9F7DF91CF9108951F93CF9396
:1016E000DF93122F8430E0F46530D0F44430C0F43E
:1016F00098E0699FE001112450E0440F551FC40F8A
:10170000D51F98E2899FC00DD11D1124632FCE01F2
:1017100089960E948C22612FCE018A960E948C228B
:10172000DF91CF911F910895B0E0A0E0EAE9FBE0DE
:101730000C942D2210E000E08EE6E82E83E0F82ED7
:10174000C0E017C001151105B9F4F60125913491D7
:101750004D2F6C2F80E00E946E0B82E0C80ED11CD2
:10176000DF5FD43079F7CF5F88E0E80EF11CC53039
:1017700049F06701D0E0E6CF21E030E04D2F6C2F3B
:10178000802FE9CF0F5F1F4F04301105A9F6CDB7A9
:10179000DEB7E8E00C944922CF93C82F6FEF811198
:1017A00063E285E290E00E948C226FEFC11166E057
:1017B00086E290E00E948C226FEFC11162E187E225
:1017C00090E00E948C22CF91089580E00E94CC0B83
:1017D00060E088E290E00E948C220E94940B0E94BC
:1017E0005E0B81E00E94CC0B08950F931F93CF9363
:1017F000DF93843030F5653020F5443010F528E073
:10180000629F8001112450E0440F551F040F151FE3
:1018100038E2839F000D111D1124C80189960E9492
:101820006E22C82FD0E0DC2FCC27C8018A960E94F8
:101830006E229E01282BC901DF91CF911F910F913C
:10184000089590E080E0F8CF462F753040F4643082
:1018500030F4843020F4672F0E94F50B089590E057
:1018600080E00895CF92DF92FF920F931F93CF9362
:10187000DF936C010091F9018091F801082BC3E01E
:10188000D0E010E0FC2EC8010C2E02C09595879583
:101890000A94E2F780FD0CC02197A0F7F12C8F2D60
:1018A000DF91CF911F910F91FF90DF90CF9008951E
:1018B000B6018C2F0E94240C0E946206019761F3EE
:1018C000EECFCF93DF93EC010E94320CBE010E9459
:1018D000240C0E946206DF91CF910895FC012481BF
:1018E0002223C1F0808191810E94610C92959F70AA
:1018F000963091F058F4925F9F70923058F4803F88
:1019000019F030F4883E30F481E008959A5FF4CF06
:10191000843FD1F380E00895883EB0F3813FD1F752
:10192000F3CFA6E0B0E0E7E9FCE00C943222498373
:101930005A8349815A819923A1F0222391F0CA0147
:101940000E94320C182F682F89819A810E94C50746
:1019500069817A81812F0E94240C2696E3E00C9401
:101960004E22CA010E949107182FF2CF85E290E023
:101970000E946E22833289F486E290E00E946E22F9
:10198000863059F487E290E00E946E2291E0823125
:1019900009F090E0892F8170089580E0FCCF0F93CB
:1019A0001F93CF93DF938091BF019091BE01892B4C
:1019B00080936A019091BD019923B1F0892B8093A6
:1019C0006A0180910801882309F46FC080911E028A
:1019D00087FF6BC08EE1ECE6F1E090E0815008F00B
:1019E00066C091111092BD0140E250E06DE971E0D6
:1019F0008AE691E00E94C022892B09F451C080E25E
:101A0000EAE6F1E0ADE9B1E001900D928A95E1F7E7
:101A1000E0911402F0911502309709F441C08091D1
:101A20000801882359F080911E0287FF07C080912A
:101A30006A0180936B0186E080936A010280F381E2
:101A4000E02D8AE691E009958091180282FF28C076
:101A500080FF04C086ED92E00E94AB02D0E0C0E0BF
:101A600000ED12E08091180280FF0EC0FE01E659E1
:101A7000FE4F80811F928F931F930F930E94440308
:101A80000F900F900F900F902196C830D10551F70D
:101A90008091180280FF04C08EEC92E00E94AB029D
:101AA000DF91CF911F910F91089586E094CF2191FE
:101AB000222309F493CF9F5F91CF882321F00E94C6
:101AC00080070E94CF0C0895882339F09091BF01C0
:101AD000982B9093BF010E94CF0C0895882399F111
:101AE0009CEF980F913A40F4682F8AE691E00E94AB
:101AF0005C090E94CF0C089590E2980F983050F442
:101B0000877091E001C0990F8A95EAF7892F0E94AA
:101B10008007EFCF9BE5980F933028F490E080E0AA
:101B20000E940905089598E5980F9B3128F490E0EC
:101B300080E00E94E404089593E3980F933118F431
:101B400060E00E94860A0895CF93C82F8823D9F1B8
:101B50008CEF8C0F813AC8F580910801882311F130
:101B600080911E0287FF1EC0EC2FE695E695E69554
:101B7000F0E0E659FE4F828190E04C2F477021E063
:101B800030E002C0220F331F4A95E2F782239323ED
:101B9000892B91F06C2F8AE691E00E945C090E94EB
:101BA000CF0C0AC0ECE6F1E082E791E02191C21788
:101BB00089F38E179F07D1F76C2F8AE691E00E9478
:101BC00097090E94CF0CCF91089580E28C0F883046
:101BD00068F4C77021E030E001C0220FCA95EAF72F
:101BE0008091BF01822B8093BF01EBCFEBE5EC0F1F
:101BF000E33040F4F0E0E25FFE4F808190E00E942D
:101C00000905E1CFE8E5EC0FEB3150F4F0E0EE0F21
:101C1000FF1FEF5EFE4F808191810E94E404D3CFCD
:101C200083E38C0F833178F661E08C2F0E94860A63
:101C3000CACF1F93CF93DF93182FD0E0C0E0893332
:101C400011F4C0E5D0E0812F0E94A40D209739F453
:101C5000812F0E946E0DDF91CF911F9108958FE922
:101C60009FE00197F1F700C000002197EFCF0F939D
:101C70001F93CF93DF93C62FD42F022FFC018581B2
:101C80008823A9F060938E020E94D80490938D025D
:101C900080938C02C77081E001C0880FCA95EAF773
:101CA0000E94640DDF91CF911F910F910895809153
:101CB0008E02681332C080918C0290918D020E9436
:101CC000C904883C910548F510E21D0FCD17B9F005
:101CD00080E28C0F883040F4C77081E001C0880F2B
:101CE000CA95EAF70E945D0D183048F481E09D2FF7
:101CF000977001C0880F9A95EAF70E94640D802FB3
:101D00000E94190E183070F6D77081E001C0880F5C
:101D1000DA95EAF70E945D0DC5CFC77081E001C07A
:101D2000880FCA95EAF7F6CFCF93C82F80911F028C
:101D300082FB992790F99C17F9F0C0FB82F98093F8
:101D40001F0260911E0270911F0284E090E00E94C9
:101D5000AA2282E00E942B088091180280FF0CC00A
:101D60001F92CF9389EB92E09F938F930E9444033D
:101D70000F900F900F900F90CF910895A7E0B0E0D3
:101D8000E4ECFEE00C94232203EF11E037E4432E51
:101D900031E0532E42ECE42E41E0F42E1701CC2426
:101DA000CA94DC2C1982AA24A394B12C31012CE40E
:101DB000822E21E0922E1F821E824091EF015091CF
:101DC000F0015B834A838091F1019091F2019D8340
:101DD0008C8394E0C916D10468F4EFE48E16E1E038
:101DE0009E0641F44DE250E05D834C8388E290E032
:101DF0009B838A83259AF201808180FFB5C05E9A19
:101E000081FFB4C05F9A82FFB3C02C9AACE4B1E00A
:101E10009D91E92FE295EF70F0E022A19F70A5015E
:101E200002C0440F551F9A95E2F7CA01809582239C
:101E300082A351E0A035B50759F7F89425982D985D
:101E4000F40181914F01E82FE295EF70F0E092A14B
:101E50008F70950101C0220F8A95EAF7892F822B96
:101E600082A386E30E94F1219C017894F30191837F
:101E70008083F8019081492F50E00E8002C0559573
:101E800047950A94E2F740FF75C04A815B812417A9
:101E9000350708F07EC095010E8002C0220F331F67
:101EA0000A94E2F720959223908381E0F981F82B40
:101EB000F9834E815F814F5F5F4F5F834E835AE0AE
:101EC000650E711C8E819F81049709F076CF0F5F9C
:101ED0001F4F9FEF491A590AE2E02E0E311CFFEF07
:101EE000CF1ADF0A44E0C416D10409F05FCF809115
:101EF000EA019091EB019C012F5F3F4F883E934098
:101F000009F449C03093EB012093EA0199819923A8
:101F100009F48FC081E08093EE010E94D804909371
:101F2000ED018093EC018091EC019091ED010E9414
:101F3000C904059708F481C045E050E063EF71E003
:101F400080E092E00E94C022892B09F47BC085E0EA
:101F5000E3EFF1E0A0E0B2E001900D928A95E1F7A5
:101F600081E01092EE016AC05E984ACF5F984BCF35
:101F70002C984CCFEC81FD81E217F30750F49501CA
:101F80000E8002C0220F331F0A94E2F7922BF80151
:101F90008BCF80E08BCF1092EB011092EA018CEC9A
:101FA000A82E81E0B82E0AEE12E098EEC92E92E03B
:101FB000D92EFB82EA82912C812C8091180280FF1D
:101FC0000EC0EA81FB8181818F9380818F931F9363
:101FD0000F930E9444030F900F900F900F90FFEF0C
:101FE0008F1A9F0A4A815B81465F5F4F5B834A83FA
:101FF00054E08516910409F78091180280FF06C00D
:10200000DF92CF920E9444030F900F9082E0E80E7F
:10201000F11CAE14BF0469F68091180280FF76CFE0
:102020008EEE92E09F938F930E9444030F900F9047
:102030006DCF8091EE01811176CF80E02796E2E1AD
:102040000C943F2280E08DCF1092BF018091080157
:10205000ECE6F1E0882329F180911E0287FF21C080
:102060008EE1DF011D928A95E9F790E080E00E9401
:10207000090590E080E00E94E4041092BE010E94F5
:10208000CF0C86E0ECE0F2E0DF011D928A95E9F7E3
:102090001092070210920502109206020E94DD09BA
:1020A000089586E0DECFAAE2B0E0E9E5F0E10C9425
:1020B00032228AE492E02091F100DC012D93CD01DF
:1020C000B2E082359B07B9F780914B02833009F467
:1020D00072C0B8F4813009F449C0823009F4B3C049
:1020E0008091E80083FF91C280914A0290914B0257
:1020F0009A3008F08AC2E92FF0E0E153FD4D0C94CC
:1021000016228A3009F48EC08B3009F471C08930F0
:1021100039F780914A02813219F780914E029091ED
:102120004F02009711F00297D9F68091E800877F5F
:102130008093E8008091E80082FF38C09091F3001E
:102140008091F200029731F48091F100813011F01A
:10215000863021F48091F100809325028091E8007F
:102160008B778093E8000E94BC03BACF80914A022B
:10217000813A09F0B5CF8091E800877F8093E8002D
:1021800080914E0290914F02892B61F460E286E2C9
:1021900092E070E00E9468048091E8008B77809361
:1021A000E8009ECF60E090E080E0F3CF80914802AD
:1021B0008111C0CF95CF80914A02813A09F090CF2A
:1021C00080914E0290914F02892B09F089CF809126
:1021D000E800877F8093E8008091E80080FFFCCFD3
:1021E000809108018093F1008091E8008E77B9CF4B
:1021F00080914A02813209F073CF80914E02909112
:102200004F02892B09F06CCF8091E800877F809383
:10221000E8000E94BC0380914C02809308010E9458
:1022200024105ECF80914A02813209F059CF80910B
:10223000E800877F8093E8000E94BC0380914D02F4
:10224000809324024DCF80914A02813A09F048CF11
:102250008091E800877F8093E8008091E80080FF0C
:10226000FCCF80912402BECF803899F0823809F0EB
:10227000CCC180914E028F70873008F0C6C1809328
:10228000E9008091EB0085FB882780F91092E90036
:1022900006C0809146029091470291118260909110
:1022A000E800977F9093E8008093F1001092F1008E
:1022B0008091E8008E77A5C1882309F493C182300C
:1022C00009F0A3C180914C02811196C180914E0208
:1022D0008F702FEF280F263008F097C18093E90008
:1022E0002091EB0020FF88C1933031F48091EB0006
:1022F00080628093EB0080C19091EB00906190939D
:10230000EB0021E030E001C0220F8A95EAF720932C
:10231000EA001092EA008091EB008860EACF811118
:1023200074C110914C021F778091E3008078812B5B
:102330008093E3008091E800877F8093E8000E940B
:10234000BC038091E80080FFFCCF8091E3008068AF
:102350008093E30082E0111183E08093480255C12D
:102360008058823008F051C120914C0230914D02CA
:102370002C3DE3E03E07A1F583E08A838AE289836E
:102380004FB7F894DE01139620E03EE051E2E32FD0
:10239000F0E050935700E49120FF03C0E295EF7006
:1023A0003F5FEF708E2F90E0EA30C0F0C7968D93BC
:1023B0009D932F5F243159F74FBF8091E800877FAD
:1023C0008093E8006AE270E0CE0101960E94680402
:1023D0008091E8008B778093E80017C1C096E7CF23
:1023E00080914E0290914F02432F55274330510563
:1023F00009F44AC078F54130510509F47AC08BE7F9
:1024000090E0E6EEF3E04230510509F0FEC0209185
:10241000E800277F2093E80020915002309151027C
:102420008217930708F49C0140E02115310509F05B
:1024300065C0411163C08091E80082FDC9CF8091E1
:102440004802882329F2853019F28091E80083FF41
:10245000F2CFBECF4132510509F43CC042325105A2
:1024600009F0D3C08430910508F0CFC0FC01EE0F15
:10247000FF1FE95AFE4F0190F081E02D8D5A9E4FCB
:10248000DC018C9190E01AC0332721303105D1F066
:102490002115310561F02230310509F0B6C0E3E7BE
:1024A000F4E0E4918E2F90E0E3E7F4E007C0E5EC80
:1024B000F4E0E4918E2F90E0E5ECF4E0009709F46D
:1024C000A4C0A5CFEFE9F4E0E4918E2F90E0EFE90E
:1024D000F4E0F4CF8430910508F097C0880F991F7D
:1024E000FC01E15AFE4F0190F081E02D89E090E07F
:1024F0008ECF82E190E0E1E6F4E089CF809148025E
:10250000882309F465CF853009F462CF8091E80013
:1025100083FD5ECF8091E80082FD8DCF8091E80041
:1025200080FF83CF9091F3008091F2002115310557
:1025300019F08830910550F041E0089709F040E02B
:102540008091E8008E778093E8006FCF44914093AC
:10255000F1003196215031090196E8CF803809F019
:1025600054C08091E800877F8093E8008091490201
:102570008093F1009DCE811148C010914C02123021
:1025800008F043C08091E800877F8093E8001093B3
:1025900049020E94BC03112311F084E005C0809120
:1025A000E30087FDFACF81E08093480242E061ECCE
:1025B00081E00E94DB0342E261EC84E00E94DB03E5
:1025C00042E261EC82E00E94DB0342E260EC83E0E5
:1025D0000E94DB0342E261EC85E00E94DB03809114
:1025E000480213C080914C02813079F481E093302D
:1025F00009F080E0809347021092E9008091E800A2
:10260000877F8093E8000E94BC038091E80083FFED
:102610000AC08091E800877F8093E8008091EB00FA
:1026200080628093EB00AA96E3E00C944E220E9415
:1026300024102FEF84E39CE0215080409040E1F78C
:1026400000C0000088E19CE00FB6F894A895809344
:1026500060000FBE90936000FFCFA8E0B0E0E3E31E
:10266000F3E10C9425228C01DC0114968C911497D3
:10267000882309F4B7C021E04C9111965C91119721
:1026800012966C91129713967C91139715969C91C4
:102690000E94910C7C01F8018581882309F43BC1DB
:1026A000C70197578038910508F014C5FFE0FE1563
:1026B00008F488C08FEF93E00E946E22811182C0DF
:1026C00069ECA62EB12CE11047C0FE01339686E0DE
:1026D000DF011D928A95E9F75AE0452E7501BFEF9B
:1026E000EB1AFB0AC5010E946E2289831A82882395
:1026F00009F468C0813009F079C06501E2E0CE0ECE
:10270000D11CC7010E946E228A83882309F45AC013
:102710009FEF980F933070F5F3E0AF0EB11CC60138
:102720000E946E228B83882309F44CC01C82DE0138
:1027300011967D01F7012081222381F2213009F0D9
:1027400095C091818281913009F052C0F2E0EF0E84
:10275000F11C0E94190E53C0A11424E0B20691F19D
:10276000C5010E946E22811101C0EA943FEFA31AB5
:10277000B30AA9CF56018430D1F642E0E42EF12C01
:1027800056012FEFA21AB20AC6010E946E22E1E0A2
:10279000F0E0EC0FFD1FEE0DFF1D8083882391F00C
:1027A0008C3741F4E2E0F0E0EC0FFD1FEE0DFF1D71
:1027B0001082BDCF3FEFE31AF30A650187E0E81608
:1027C000F104F1F680919C01877061F0D8011596B3
:1027D0008C91882339F080911F0282FF03C082E030
:1027E0000E942B082896E0E10C94412257019FCFCC
:1027F000923049F422E0E20EF11C0E94A40DEFEFAA
:10280000EE1AFE0A97CF933031F432E0E30EF11C5A
:102810000E946E0DF4CF943021F08FEFE81AF80A81
:10282000EECF92E0E90EF11C30E020E0B7016F5FDF
:102830007F4FD70111964C918053990B8A309105A7
:1028400050F021503109D8F2EFE9FFE03197F1F76C
:1028500000C00000F6CF429EF001439EF00D11240F
:102860009C012E0F3F1F842F7B01E0CFE22FF0E071
:10287000EA5EFD4F5490822F86958695869590E06E
:10288000FC01EA5FFD4F64902770712C022E02C09C
:10289000759467940A94E2F731E063227724FC018F
:1028A000EA50FE4F8490912C022E02C0959487949A
:1028B0000A94E2F7A1E08A229924FC01EA51FE4F32
:1028C000C490D12C02C0D594C7942A95E2F7B1E008
:1028D000CB22DD246114710419F081EE0E94A40D55
:1028E0008114910419F086EE0E94A40D852D0E949A
:1028F000190E8114910419F086EE0E946E0D611478
:10290000710419F081EE0E946E0DC114D10409F416
:1029100076CF8CE21ECFF701E851FC47E730F10596
:1029200008F0C9C3E752FD4D0C94162226E241EE91
:1029300061EEC8010E94370E45CF27E245EE65EEF5
:10294000F8CF26E241EE60EEF4CF27E245EE64EEEA
:10295000F0CF26E241EE62EEECCF27E245EE66EEE6
:10296000E8CF28E241E0EBCF80911E0281608093A6
:102970001E0295C080911F02886080931F028FC045
:1029800080911E028260F3CF80911E028460EFCF9F
:1029900080911E028860EBCF80911F028160EDCF95
:1029A00080911F028260E9CF80911E028061DFCF9B
:1029B00080911E028062DBCF80911E028064D7CF9F
:1029C0000E94241080911E028068D1CF80911E0247
:1029D0008C60CDCF80911F028360CFCF80911E028B
:1029E0008E7FC5CF80911F02877FC7CF80911E0247
:1029F0008D7FBDCF80911E028B7FB9CF80911E024B
:102A0000877FB5CF80911F028E7FB7CF80911F0245
:102A10008D7FB3CF80911E028F7EA9CF80911E0241
:102A20008F7DA5CF80911E028F7BA1CF0E942410A5
:102A300080911E028F779BCF80911E02837F97CF5C
:102A400080911F028C7F99CF80911E0282FB992773
:102A500090F921E0922790FB82F990FB83F987CFD0
:102A600080911F02982F909591708E7F892B90FBFB
:102A700081F983CF90911E02892F8F7B96FF80640E
:102A800076CF0E94241090911E02892F97FB87F920
:102A900080586DCF61E08EE090E00E948C226091C2
:102AA0001E0270911F0284E090E00E94AA220E9400
:102AB000241088CE60E0EFCF90911E02892F8F7E88
:102AC00094FF806154CF90911E02892F8E7F90FFDA
:102AD00081604DCF90911F02892F877F93FF88607F
:102AE0004CCFF7E7EF16FCE7FF0609F46CC028E7C8
:102AF000E2162CE7F20609F473C033E0E3163CE774
:102B0000F30609F4A0C008F06DC091E0E9169CE757
:102B1000F90609F49EC008F084C0E114BCE7FB0686
:102B200009F472C0F8018581E080F180882309F4FE
:102B30009EC0C7010E94320CD82E682FC7010E9488
:102B4000C507B7018D2D0E94240C0E9462067C01EE
:102B5000882ED8011596AC90159716969C90929455
:102B60003FE0932280919C018770F1F0DA2CAA203B
:102B7000E1F08F2D807F803451F080E28E0D88301F
:102B800098F0911004C08F2D807E803269F0809182
:102B90001F0282FF09C082E00E942B0880919C01E5
:102BA0008770DD24D3948111D12CCF2CC2942FE0D7
:102BB000C222BBE0BC1508F4C2C0EC2DF0E0E0522C
:102BC000FD4D0C94162281E00E94420843E062E031
:102BD00081E00E94FE07F6CD81E00E941E08F6CF3C
:102BE00082E0F2CFEBE5EE16ECE7FE06F1F1FCE554
:102BF000EF16FCE7FF0679F12AE5E2162CE7F2066C
:102C000009F090CF81E02EC00E9424103FEF84E3B2
:102C10009CE0315080409040E1F700C000000E94ED
:102C2000380990911802892F8E7F90FF81608093E0
:102C3000180280FF05C088EA92E00E94AB02C2CD74
:102C400086E992E0FACF6FEF7FEF90E080E00E949C
:102C5000AA220E94171380911F0282FB882780F905
:102C600091E089270E94940E5DCF80E0FBCFC701E1
:102C70000E949107D82E65CFEF2DEF70BE2E8F2DBD
:102C8000807F19F0B29490EFB922AA20B9F0BB204E
:102C900069F080E28E0D883010F0811009C08091BB
:102CA000BF01B82AB092BF010E94CF0C8E2D45C043
:102CB0008091BE01B82AB092BE01F6CF8E2D0E943F
:102CC0006E0DBB20E1F180E28E0D883010F0811096
:102CD00004C08B2D0E94800706C0B0948091BE0175
:102CE000B822B092BE010E94CF0C29C0FF2DFF7008
:102CF000BF2E8F2D807F803219F0B29480EFB822E2
:102D0000882059F021E0821609F482C0AA2009F433
:102D10008EC0992009F44FC0C9CF80911F0282FD57
:102D200046C0AA20F1F1BB2039F08091BF018B2968
:102D30008093BF010E94CF0C80E00E94A40DAC2DB7
:102D4000A850BB0B149710F40E942E05DD20A9F0AB
:102D500080919C0180FD11C0F801158286958695B1
:102D600086950E944208C8010E942D1380919C0103
:102D70008695869586950E941E0820E0D8014C9184
:102D800011965C91119712966C91129713967C9103
:102D9000139714968C91149715969C910E94910C00
:102DA00021CD80E00E946E0DBB2049F292CFAA2077
:102DB000A1F0911004C08B2D0E94640DC0CF31E0B2
:102DC0009312BDCF8091BD019B2D9823B91609F4B4
:102DD000B6CF8B298093BD01B2CF9110B0CF8B2D90
:102DE0000E945D0D9091BD018B2D892329F08B2DC3
:102DF000809589238093BD0190918B018B2D892330
:102E000009F49DCF8B2D8095892380938B0197CFDB
:102E1000AA2029F085E0891508F491CFCCCF94E061
:102E2000991508F48CCF8B2D0E945D0D88CF9920C9
:102E3000D1F3A9E38A1209C0BFEFE7EEF3E0B15086
:102E4000E040F040E1F700C000008E2D0E946E0DC2
:102E500076CF8F2D86958695837061F0813009F04D
:102E60006ECFC7019370A11002C080E090E00E9475
:102E7000E40465CFC7019370A11002C080E090E028
:102E80000E9409055CCF6A2D8E2D0E94860A57CFBD
:102E90008F2D837091F5A11052CF4E2D42954695FE
:102EA0004770440F440F8E2D8F70042E01C0880F81
:102EB0000A94EAF72E2D2071E4FE07C02FE030E0DF
:102EC00001C0220F4A95EAF720953F2D3695369599
:102ED0003370323069F050F44091F801313029F00C
:102EE000822B84230E944E082ACF842B822BFACF78
:102EF000282B8091F8018227F5CF8695AA2011F022
:102F00008F2D8170882309F41ACF4E2D4295469556
:102F10004770440F440F8E2D8F70042E01C0880F10
:102F20000A94EAF72E2D2071E4FE07C02FE030E06E
:102F300001C0220F4A95EAF720953F2D3695369528
:102F40003370323069F050F44091F901313029F09A
:102F5000822B84230E94FB07F2CE842B822BFACF94
:102F6000282B8091F9018227F5CF2F2D2F70F22E7B
:102F7000AA2029F0822F0E9442088E2D1DCF8E2D6F
:102F80000E945D0D8F2D0E941E08D9CE8E2D32EF2E
:102F90008316B1F1381570F090EF8916D1F0A1EFDA
:102FA0008A1691F0AA2009F45EC091107FCE8F2D71
:102FB0008F712AC0B3EF8B1651F1E4EF8E12F2CF6E
:102FC00080911F0282FD2FC08F2D8F71AA20D9F210
:102FD0001BC0AA2081F0F4E0F91508F4B0CE2F2D23
:102FE0002F7181E090E001C0880F2A95EAF7909157
:102FF000F9018927AFCF25E0291508F4A0CEEFCF3E
:103000008F2D8F71A110BFCF0E94420898CE80E013
:10301000AA2009F49FCF9F2D9F7181E001C0880FE6
:103020009A95EAF797CFAA2099F03F2D3F71F32E9A
:10303000832F0E94420880911F0282FF07C0A8E0F0
:10304000FA9EC0011124836080939C018F2DDCCFF8
:1030500081E00E942B08B1E0B91508F070CE82E043
:103060000E942B086CCE992059F0893309F0EDCEDF
:10307000EFEFF7EE23E0E150F0402040E1F7E3CE40
:103080008F2D8F7180CFB6E1EB16BCE7FB0609F000
:1030900028CD8091BF018A7A91E009F490E0909365
:1030A0008A0169E2811165E38AE691E00E9497094D
:1030B0000E94CF0C87CBE6E1EE16ECE7FE0651F559
:1030C00080918A0169E2811165E38AE691E00E94BC
:1030D0005C09EECFF701E851FC47E730F10508F451
:1030E00021CC10928E02C7019057839760F684E03E
:1030F00090E00E94762290931F0280931E02F701B7
:10310000E150F047E232F10508F02ECCE451FD4DDC
:103110000C941622F7E7EF16FCE7FF0609F45CCDE6
:1031200082E028E7E2162CE7F20609F456CDFACC45
:10313000CF93DF9380919B01807F09F04DC08091F8
:103140009A01882309F448C0E0918B025091520201
:10315000C0919601D091950160919701709198016D
:1031600047E05E17C9F18E2F90E0E49FF001112433
:10317000ED5AFD4F2481222391F1489FF001499F90
:10318000F00D1124DF01AD5ABD4F11962C9111970E
:103190002C1325C02C912D1322C015962C91159718
:1031A00021111DC012962D913C91261B370B283CF6
:1031B0003105A8F480919B018F70806180939B0101
:1031C000E75AFD4F80818F708061808385E991E0AF
:1031D0000E942D130E948707DF91CF910895FC0173
:1031E0003196E770BECFA4E1B0E0E9EFF8E10C94CE
:1031F00029228C0186E0F801DE011F9601900D92D4
:103200008A95E1F7F8018481E58095E9A92E91E09E
:10321000B92E90919901911128C0882319F1EE20BF
:10322000F1F0C8010E946E0CF82E8823C1F087E0EF
:10323000F801D50101900D928A95E1F780919901ED
:10324000813031F480919501909196010E94610C3A
:103250000E9498188F2D6496ECE00C944522C801CA
:103260000E942D13FF24F394F5CFD080C18082807B
:103270009380F0909A012091970130919801A401D8
:10328000421B530BFF2009F4D9C0483C510508F0FC
:1032900092C08823F9F29091960180919B01282F8A
:1032A000207F09F056C0C91214C090919501D9121F
:1032B00010C0E11048C08F70806180939B0185E948
:1032C00091E00E942D1380919B01F8018683F12CDF
:1032D000C1CFE11038C06C2D8D2D0E944D036C2D97
:1032E0008D2D0E944D03E82E8111F1CFDF86C88A13
:1032F0008F8598890E94610C292F22952F70243088
:1033000058F49F70223088F0992399F0F801968143
:10331000907F79F4FE2C9ECF2A5F2F70223068F0C8
:10332000C8010E942D13EF2CF5CF992311F08823AB
:1033300089F3805E883070F3F3CF803F58F3815F6C
:10334000833070F7E7CF80919B01816080939B0170
:10335000BECFC91207C090919501D91203C0EE20CB
:1033600009F48DC0C8010E946E0C882309F477CF40
:10337000EE2009F474CF80919B01803288F0209177
:10338000950130919601398728879B868A8690918E
:1033900099019C871D868E87CE0108960E942D1369
:1033A00087E0F801A5E9B1E001900D928A95E1F777
:1033B0000E94981857CF90919B01292F207F51F49C
:1033C00085E991E00E942D1387E0F50111928A951D
:1033D000E9F77DCF882309F43DCF809196018C11C8
:1033E00010C080919501D8120CC0E1100AC09683DC
:1033F000C8010E942D1387E0F50111928A95E9F723
:1034000029CFC8010E946E0C882309F428CFEE2032
:1034100009F425CF80919B01803210F22091950113
:10342000309196013A8329839C828B8290919901F5
:103430009D831E828F83CE010196B0CF483C5105FB
:10344000D0F6882309F40ECFFE2CEE2009F407CF26
:10345000809196018C1120C080919501D8121CC0DA
:1034600080919B0180FD0FC0982F907F61F0868333
:10347000903F31F0982F907F905F8F70892B8683DB
:10348000C8010E942D1387E0F801A5E9B1E0019081
:103490000D928A95E1F7DECEC8010E946E0C811173
:1034A0007FCF80919B01816080939B01C8010E9426
:1034B0002D13D0CEABE1B0E0E0E6FAE10C9431227E
:1034C0004E8B5F8B688F798F8A8F9B8F192F91110D
:1034D0001092BE011D8A86E0FE017696DE011F96DF
:1034E00001900D928A95E1F70A8D002341F021E0C9
:1034F0004F85588969897A89C8010E94910C0B8B84
:103500001C8B87E0FE013F96DE01189601900D921C
:103510008A95E1F7CE0108960E94F31881110CC03C
:1035200087E0FE013896DE01119601900D928A9592
:10353000E1F78C8581110BC017E080918B0290918F
:103540005202891331C06B96E4E00C944D22209115
:10355000520230E0C90101968770992740918B0291
:103560004817190699F097E0929FD001939FB00DEC
:103570001124AD5ABD4FFE01319601900D929A95DE
:10358000E1F7809352020E948707D6CF0E94241051
:103590001092520210928B0287E0E5E9F1E0DF0120
:1035A0001D928A95E9F7C8CF819FC00111248D5AD9
:1035B0009D4F0E94F318882331F280918B0290E096
:1035C00001968770992780938B02B7CFA6E0B0E071
:1035D000ECEEFAE10C9431220E94D8048C01809127
:1035E000C0019091C1018017910781F019821A8260
:1035F0000E94D804682F49815A81792F80E090E099
:103600000E945A1A1093C1010093C0012696E4E06B
:103610000C944D221F920F920FB60F9211242F93EC
:103620003F934F935F936F937F938F939F93AF934A
:10363000BF93CF93DF93EF93FF93D091E900DF70B7
:103640008091EC00C82FC17080FDC0E81092E900A5
:103650008091F000877F8093F00078940E9453104F
:103660001092E9008091F00088608093F000CD2BEB
:10367000CF70C093E900FF91EF91DF91CF91BF919F
:10368000AF919F918F917F916F915F914F913F91FA
:103690002F910F900FBE0F901F9018951F920F92B1
:1036A0000FB60F9211242F933F934F935F936F9315
:1036B0007F938F939F93AF93BF93EF93FF938091EB
:1036C000E10082FF15C08091E20082FF11C080916D
:1036D000E1008B7F8093E100209122022F5F822FF7
:1036E00062E30E94F621992309F4C0C020932202CC
:1036F0008091DA0080FF28C08091D80080FF24C02C
:103700008091DA008E7F8093DA008091D90080FF6B
:10371000E3C080E189BD82E189BD09B400FEFDCF2F
:1037200081E08093480282ED93E00E94AB02809199
:103730002302811109C00E946C030E940D04809134
:10374000E20084608093E2008091E10080FF1BC072
:103750008091E20080FF17C08091E2008E7F80930D
:10376000E2008091E20080618093E2008091D800C5
:1037700080628093D80019BC85E0809348028AED6E
:1037800093E00E94AB028091E10084FF2FC0809102
:10379000E20084FF2BC080E189BD82E189BD89B54B
:1037A000982F917080FFFBCF8091D8008F7D809300
:1037B000D8008091E1008F7E8093E1008091E2004B
:1037C0008F7E8093E2008091E20081608093E2002E
:1037D00080914902882309F489C084E080934802DB
:1037E0008EED93E00E94AB02809148028091E1004F
:1037F00083FF2BC08091E20083FF27C08091E1000E
:10380000877F8093E10082E0809348021092490212
:103810008091E1008E7F8093E1008091E2008E7FB5
:103820008093E2008091E20080618093E20042E0B8
:1038300060E080E00E94DB038091F000886080936C
:10384000F00082EE93E00E94AB02FF91EF91BF91F6
:10385000AF919F918F917F916F915F914F913F9128
:103860002F910F900FBE0F901F901895109222026B
:1038700080912102882309F43BCF80914802843053
:10388000C1F49091E9009F702091EC00822F81702B
:1038900020FD80E8892B95E09093E9009091EB0062
:1038A00090FF04C09091EE0097FD08C08F70809348
:1038B000E900109221021CCF1092F1009091E800D3
:1038C00095FDFACF9091E80090FFF0CF9091E8003D
:1038D0009E779093E800EACF19BC1092480286EDDB
:1038E00093E00E94AB02109223022ECF8091E3005E
:1038F00087FD93E09093480273CF78941F921FB690
:103900001F9211248F939F93AF93BF9380911A02BC
:1039100090911B02A0911C02B0911D020196A11D65
:10392000B11D80931A0290931B02A0931C02B093C6
:103930001D02BF91AF919F918F911F901FBE1F904D
:1039400018951F921FB61F9211248F939F93AF93C8
:10395000BF9380911902811113C080911A02909136
:103960001B02A0911C02B0911D024196A11DB11D28
:1039700080931A0290931B02A0931C02B0931D0225
:10398000BF91AF919F918F911F901FBE1F9018956F
:10399000CDB7DEB7A7970FB6F894DEBF0FBECDBF89
:1039A00085B7806885BF85B7806885BF84B7877F06
:1039B00084BF0FB6F894A8958091600088618093C9
:1039C0006000109260000FBE80E890E00FB6F8949F
:1039D00080936100909361000FBE89E698E0909318
:1039E0006901809368010E946C030E940D0480911C
:1039F000E20084608093E2007894809148028823FA
:103A0000A1F01091E9001F709091EC00892F817056
:103A100090FD80E8182B1092E9008091E80083FD6A
:103A20000E9453101F701093E90082E084BD93E060
:103A300095BD9AEF97BD80936E000E94B60C8111E0
:103A400002C00E94E50B80910A0190910B01A091A8
:103A50000C01B0910D018093EF019093F001A093C0
:103A6000F101B093F2012D98259A80E40E949721EC
:103A7000ACE4B1E040E551E061E070E08D91E82F09
:103A8000E295EF70F0E021A18F708B0102C0000F72
:103A9000111F8A95E2F7C801922F982B91A392A14A
:103AA0008095892382A34A175B0741F7A0E5B1E01F
:103AB00023E531E061E070E08D91E82FE295EF7051
:103AC000F0E091A18F70AB0101C0440F8A95EAF735
:103AD000892F842B81A32A173B0771F725982D98EE
:103AE0001092F301109200021092F4011092010260
:103AF0001092F501109202021092F6011092030248
:103B00001092F7011092040290E080E00E94762269
:103B1000863E9E4F21F40E94B60C811167C066EE6E
:103B20007EEF90E080E00E94AA2260E082E090E0D8
:103B30000E948C2260E083E090E00E948C22109230
:103B4000F80160E074E184E090E00E94AA2260E065
:103B500086E090E00E948C226FEF87E090E00E9468
:103B60008C2240E050E0BA0188E090E00E949E2262
:103B700060E084E290E00E948C2260E087E190E0C7
:103B80000E948C2260E08CE090E00E948C2260E039
:103B90008DE090E00E948C2219821A821B821C8286
:103BA0001D821E821F82188648E050E068E170E0A6
:103BB000CE0101960E947C2240E050E0BA0180E2F2
:103BC00090E00E949E2280E00E94CC0B0E94E50BB8
:103BD00040E050E0BA018FE090E00E949E2240E079
:103BE00050E0BA0183E190E00E949E2282E090E0E2
:103BF0000E946E228093180284E090E00E94762258
:103C000090931F0280931E020E94BE0E2FEF46E784
:103C100081E0215040408040E1F700C000000E9458
:103C2000BE0E8091000280FF08C06FEF7FEF90E032
:103C300080E00E94AA220E94380983E090E00E945E
:103C40006E220E944E0880911802836080931802B1
:103C500080E091E0909315028093140268E1262E93
:103C6000312C80E092E005E0080F0FA37FEF472E94
:103C700071E0572E80914802853089F480EF92E000
:103C80000E94AB0250E4F52E00E112E1809148025F
:103C9000853009F459C00E9424100E942E050E940C
:103CA000BE0E3AEFE32E31E0F32E40E0642E42E008
:103CB000742ED301F70191918D914E165F0609F490
:103CC00078C09817C1F38091180281FDA4C110E05B
:103CD000AA24A394F30101913F01F701B1907F0160
:103CE000B01619F1B026D12CCC24C3948B2D8C2185
:103CF000A1F0D9A21AA30E94D8049CA38BA3ADA2C1
:103D000091E0802F8C2109F490E09EA349A15AA153
:103D10006BA17CA18DA10E945A1AD394CC0CF4E023
:103D2000DF12E4CFF701319700831F5F153091F662
:103D30008FB7F89440911A0250911B0260911C02B7
:103D400070911D028FBF39C080914802843009F103
:103D5000109219020FB6F894A895209260000FBE39
:103D6000F092600083B7817F846083BF83B78160F6
:103D700083BF7894889583B78E7F83BF0FB6F894FE
:103D8000A895809160008861809360001092600027
:103D90000FBE80914702882309F478CF0E94BE0E9F
:103DA000E0E0F2E08191811199C22FA12E13FACFA8
:103DB0006DCF981388CF0E94E61A86E0ECE0F2E01F
:103DC000DE01119601900D928A95E1F710920E0294
:103DD00010920F0210921002109211021B810C819E
:103DE000812F802B09F448C080910A0290910B0228
:103DF0000E94C9049C0190910702992309F492C280
:103E000025313105C8F19F3F19F09F5F909307025C
:103E1000112359F00E945D059FEF11160CF491E0FB
:103E2000899F802D112480930E02002359F00E9457
:103E30005D059FEF10160CF491E0899F802D1124F1
:103E400080930F0230910E023323B1F020910F02C4
:103E5000222391F005EB3003C0011124992309F4CA
:103E600010C190930E0215EB21039001112433230E
:103E700009F40BC130930F021D810E81812F802B1D
:103E800009F448C080910802909109020E94C90477
:103E90009C0190910502992309F43FC22135310517
:103EA000C8F19F3F19F09F5F90930502112359F0CD
:103EB0000E943B059FEF11160CF491E0899F802D25
:103EC000112480931002002359F00E943B059FEFBC
:103ED00010160CF491E0899F802D1124809311021B
:103EE000309110023323B1F020911102222391F07E
:103EF00045EB3403C0011124992309F4CAC09093FF
:103F0000100205EB200390011124332309F4C5C0EE
:103F10003093110246E050E0BE016F5F7F4F8CE0AE
:103F200092E00E94C022892B61F480910E02909150
:103F30000F02892B90911002892B90911102892BED
:103F400011F00E94DD0986E0FE013196ACE0B2E09E
:103F500001900D928A95E1F70E942E05182F80910D
:103F6000FF01181779F11093FF018FB7F894409172
:103F70001A0250911B0260911C0270911D028FBFAA
:103F80008091180282FF1EC080FF1CC089E193E06F
:103F90000E94AB028091180280FF14C01F921F93F1
:103FA00084E193E09F938F930E94440380911802D1
:103FB0000F900F900F900F9080FF04C082E193E06C
:103FC0000E94AB0280914802843009F053CE83E016
:103FD0008093E9008091E80082FF4CCE8091E80058
:103FE00090E085FF06C00E948B03882309F459C026
:103FF00091E08091E8008B778093E800992309F4A1
:1040000039CEE981E150E33108F072C0F0E0E25FBF
:10401000FC4D0C94162283E093E00E94AB0280E0FA
:10402000A82E82E0B82E10E000E09EEF892E92E0EC
:10403000992E26EFC22E22E0D22E1F930F939F922D
:104040008F920E9444038BEF92E00E94AB02F50135
:1040500081915F010E9451081F928F93DF92CF924E
:104060000E94440384EF92E00E94AB020F5F1F4F57
:104070000FB6F894DEBF0FBECDBF05301105E9F6CF
:1040800026CE81E080930E02EECE81E080930F0277
:10409000F3CE81E08093100234CF81E0809311024F
:1040A00039CF00E210E0CE0101967C018091E8005A
:1040B00085FD0AC08091E8008B778093E8000E941C
:1040C0008B03882399F394CF8091F100F7018193BA
:1040D0007F010150110951F78BCF1A828CE08B833D
:1040E00024C08A81823009F40FC128F4813061F044
:1040F0008FEF89831AC0833009F18430C9F71B829E
:104100001C821D821E8211C02FB7F89460911A0282
:1041100070911B0280911C0290911D022FBF0E9482
:104120001C226B837C838D839E8340E250E0BE0122
:104130006F5F7F4F82E00E94CB089CCD2B81822F46
:1041400090E0FE013496245E8530910570F7DC0125
:10415000A050BE4F3C91319301962813F5CFE5CF87
:104160008A81823019F0853001F3C2CF6B817C8166
:104170008D819E810E941C2288E290E00E948C2208
:10418000D4CF4C816B818A810E94F50B98278927B7
:1041900098279E838D83C9CF2D813E813227232787
:1041A00032274C816B818A810E946E0BBECF0E94A8
:1041B000940BBBCF80E18A83B8CF83E08A8387E307
:1041C0008ECF0A811B81102701271027CE0101966F
:1041D0006C01EC80FC01EE0DF11D7F01C8018753DD
:1041E0009F4FEC14FD0409F4A0CF0733F3E01F0741
:1041F00050F40E946E22F60184830F5F1F4FFFEF81
:10420000CF1ADF0AEBCFF6011482F7CF0A811B81A8
:10421000102701271027CE0101966C01EC80E00EDB
:10422000F12EF11CC80187539F4F0E151F0509F48D
:104230007CCF0733E3E01E0720F4F60164810E947F
:104240008C22FFEFCF1ADF0A0F5F1F4FEBCF0E94C8
:104250005E0B6BCF84E0AFCF0A811B811027012753
:104260001027CE0101966C01EC80FC01EE0DF11DD2
:104270007F01C8018996EC14FD0409F456CF003A79
:10428000110550F40E946E22F60184830F5F1F4FC8
:10429000FFEFCF1ADF0AEDCFF6011482F7CF0A81C4
:1042A0001B81102701271027CE0101966C01EC809D
:1042B000E00EF12EF11CC8018996E016F10609F412
:1042C00034CF003A110520F4F60164810E948C225B
:1042D000FFEFCF1ADF0A0F5F1F4FEDCF09BD19BDEA
:1042E00009B400FEFDCF8091D8008F7D8093D80067
:1042F0008091E00082608093E0008091E00081FD89
:10430000FCCF0E942410C2CC88E290E00E946E2272
:104310001B821C821D828E8308CF2B30310508F052
:10432000C2CDF8CD2B30310508F06FCDA5CD807C06
:10433000809309010895873901F178F48633F9F003
:1043400030F48433F1F08533F1F08FE1089584394E
:10435000E1F08639D1F781E20895843FC1F030F46D
:10436000803FB9F0813F89F781E00895863F99F059
:10437000A0F0873F51F787E0089582E2089585E233
:10438000089583E2089584E2089580E2089584E028
:10439000089580E0089586E0089585E0089596E800
:1043A00090937A00982F9072906890937B008F7111
:1043B00090910901892B80937C0080917A00806420
:1043C00080937A0080917A0086FDFCCF80917800FE
:1043D0002091790090917A009F7790937A00922FA4
:1043E00008950E949B210E94CF210895991B79E096
:1043F00004C0991F961708F0961B881F7A95C9F775
:104400008095089597FB072E16F4009407D077FD4A
:1044100009D00E945A2207FC05D03EF49095819560
:104420009F4F0895709561957F4F0895EE0FFF1F80
:104430000590F491E02D099469279627692778273C
:104440008727782708952F923F924F925F926F921D
:104450007F928F929F92AF92BF92CF92DF92EF9214
:10446000FF920F931F93CF93DF93CDB7DEB7CA1B95
:10447000DB0B0FB6F894DEBF0FBECDBF09942A88C0
:10448000398848885F846E847D848C849B84AA8468
:10449000B984C884DF80EE80FD800C811B81AA81F5
:1044A000B981CE0FD11D0FB6F894DEBF0FBECDBFC0
:1044B000ED010895AA1BBB1B51E107C0AA1FBB1F3A
:1044C000A617B70710F0A61BB70B881F991F5A95A0
:1044D000A9F780959095BC01CD010895F999FECF7B
:1044E00092BD81BDF89A992780B50895A8E1B0E002
:1044F00042E050E00C94B222DC01A40FB51F415001
:10450000504048F0CB01840F951F2E910E948D22C0
:1045100041505040D0F70895262FF999FECF92BD13
:1045200081BDF89A019700B4021639F01FBA20BD78
:104530000FB6F894FA9AF99A0FBE08950396272FAA
:104540000E948D220E948C22252F0E948D22242FD2
:104550000C948D220196272F0E948D220C948C2280
:10456000DC01CB01FC01F999FECF06C0F2BDE1BD33
:10457000F89A319600B40D9241505040B8F7089522
:10458000FB01DC0104C08D910190801921F44150A0
:104590005040C8F7881B990B0895F894FFCF341149
:1045A0005C1105135C1105138F11B0110513AE12C8
:1045B000BB12A114A51496149D14A914AD14B11422
:1045C0003C163C1676167616291743179F169F162B
:1045D0004817B517C617C617EE146315F614C0149E
:1045E000C414FA14C814FE140A15D4145C15D81493
:1045F0000E15DC1412153A15E01416154115E614C3
:104600001C152415CC140215D0140615EA14201517
:1046100030154A155A15BA14F2146A156D20712016
:10462000B020C120CC20D720782078207820782096
:104630007820DA20DD20E120062127212A212C21E3
:024640004F2108
:10464200C60414090D0906090140370041008182A0
:1046520083E200E900EA00B500B600B700CD0083AE
:1046620001CC008A01920194012102230224022535
:1046720002260227022A02B300B4006F0070009FD4
:1046820001CB019F02A0020100030204F5F69392FE
:104692009697344022B622A6018401CE00AC00F8DF
:0846A20003110431044A040075
:00000001FF
