:100000000C943A030C9481030C9481030C948103A7
:100010000C9481030C9481030C9481030C94810350
:100020000C9481030C9481030C945D290C94312A67
:100030000C941D240C9481030C9481030C94810373
:100040000C9481030C9481030C9481030C94810320
:100050000C9481030C9474240C9481030C948103FC
:100060000C9481030C9481030C9481030C94810300
:100070000C9481030C9481030C9481030C948103F0
:100080000C9481030C9481030C9481030C948103E0
:100090000C94E1160C9481030C9481030C9481035D
:1000A0000C9481030C9481030C94810301000100E2
:1000B00001000100010001000100000001512900C0
:1000C00014001A00080015001700000002512B0050
:1000D00004001600070009000A0000000100E1000A
:1000E0001D001B0006001900050000000100E000D3
:1000F000E200E30001512C4100000000010001007A
:100100000100010001007300010001001C00180043
:100110000C00120013004C002A0001000B000D001F
:100120000E000F0034000000280001000000110044
:10013000100036003700E50052000000000000000B
:100140002A42E6000251500051004F000100005CBD
:100150000100010001000100010000000100350064
:100160001E001F0020002100220000000100C35CCF
:10017000C65CC85CCA5CA9002F0000000100C45C1A
:10018000C75CC95CCB5CAA002F0200000100010023
:100190000100010001000100000000000100010059
:1001A0000100010001000100010001002300240002
:1001B0002500260027002D002E0001003000210020
:1001C0002200230033000000010001000000300283
:1001D0001E001F002000010052000000000000006F
:1001E0004C0027000100500051004F0001000100A9
:1001F00001000100010001000100000001003502C2
:100200001E021F0220022102220200000100010042
:100210000100010049004B004A00000001000100FC
:10022000010001004C004E004D00000001000100E3
:100230000100010001004C0000000000010001006D
:10024000010001000100010001000100230224025D
:100250002502260227022D022E02010001000100C4
:100260000100010033020000010001000000010054
:100270000100010001000100520000000000000028
:10028000010001000100500051004F000100010079
:1002900001000100010001000100000001512900DE
:1002A00014001A00080015001700000002512B006E
:1002B00004001600070009000A0000000100E10028
:1002C0001D001B0006001900050000000100E000F1
:1002D000E200E30001512C41000000000100010098
:1002E0000100010001007300010001001C00180062
:1002F0000C00120013004C002A0001000B000D003E
:100300000E000F0034000000280001000000110062
:10031000100036003700E500520000000000000029
:100320002A42E6000251500051004F001E0F050006
:10033000047F3F1F643214643214783C1E1E140A7A
:10034000052223252628292A2C2D2F303233353615
:10035000383A3B3D3E4042434547494A4C4E505156
:10036000535557595A5C5E6062646668696B6D6F7D
:1003700071737577797B7D7F81838587898A8C8E80
:1003800090929496989A9C9E9FA1A3A5A7A8AAAC88
:10039000AEAFB1B3B4B6B8B9BBBCBEBFC1C2C3C5C2
:1003A000C6C7C9CACBCCCDCED0D1D2D2D3D4D5D664
:1003B000D7D7D8D9D9DADADBDBDBDCDCDCDCDCDD97
:1003C000DDDDDDDCDCDCDCDCDBDBDBDADAD9D9D87B
:1003D000D7D7D6D5D4D3D2D2D1D0CECDCCCBCAC913
:1003E000C7C6C5C3C2C1BFBEBCBBB9B8B6B4B3B142
:1003F000AFAEACAAA8A7A5A3A19F9E9C9A989694DD
:1004000092908E8C8A89878583817F7D7B797775B1
:1004100073716F6D6B6968666462605E5C5A595790
:10042000555351504E4C4A4947454342403E3D3B4F
:100430003A3836353332302F2D2C2A2928262523D9
:1004400022FFAA7F554000010101010101010101C4
:100450000202020202020202020303030303030375
:100460000304040404040404050505050506060642
:100470000606070707070708080808090909090AFF
:100480000A0A0B0B0B0C0C0C0D0D0D0E0E0E0F0FA4
:100490000F10101111111212131314141515161632
:1004A0001717181819191A1A1B1B1C1D1D1E1E1FA1
:1004B0002020212222232424252626272829292AF0
:1004C0002B2C2D2D2E2F3031323233343536373818
:1004D000393A3B3C3D3E3F40414243444546474814
:1004E000494A4C4D4E4F50515354555658595A5BEA
:1004F0005D5E5F616264656668696B6C6D6F70728A
:10050000737577787A7B7D7E8082838587888A8CF5
:100510008E8F91939596989A9C9EA0A2A3A5A7A929
:10052000ABADAFB1B3B5B7BABCBEC0C2C4C6C9CB20
:10053000CDCFD1D4D6D8DBDDDFE2E4E7E9EBEEF0D6
:10054000F3F5F8FAFDFF1003530050005F004D0073
:1005500069006E00690000001C03560069006B0012
:100560007400750073005F0044006500730069004B
:1005700067006E0000000403090409023B00020149
:1005800000A0FA0904000001030101000921110182
:1005900000012240000705810308000A0904010048
:1005A0000103000000092111010001226D0007056F
:1005B000820320000A120110010000000844564D79
:1005C0005301000102000105010980A10185031901
:1005D000012AB700150126B700950175108100C0EA
:1005E000050C0901A101850419012AA002150126A3
:1005F000A002950175108100C005010906A10185C1
:1006000005050719E029E715002501950875018101
:10061000020507190029EF1500250195F0750181E4
:1006200002050819012905950575019102950175C5
:10063000039101C005010906A101050719E029E799
:100640001500250195087501810295017508810144
:100650000507190029FF150026FF0095067508817A
:100660000005081901290595057501910295017587
:10067000039101C011241FBECFEFDAE0DEBFCDBF72
:1006800004B603FE27C08091EA039091EB03A0918A
:10069000EC03B091ED038730904BA740B04BD1F401
:1006A0001092EA031092EB031092EC031092ED0308
:1006B00014BE84B7877F84BF0FB6F894A895809145
:1006C0006000886180936000109260000FBEE0E0DF
:1006D000F8E3099511E0A0E0B1E0E8E1FBE502C034
:1006E00005900D92AC3DB107D9F723E0ACEDB1E038
:1006F00001C01D92AA3EB207E1F70E9497260C9412
:100700004E2D0C9400005098589A5198599A0C9478
:100710008903859A869A879A0895CF92DF92EF92FD
:10072000FF926B017C010E940B05823081F020F466
:10073000813051F08D9809C0833069F08337D1F74B
:100740008F9A8D9A8E9A0AC08D9A8E9802C08E9A30
:100750008D988F9803C08F9A8D988E98C701B60197
:10076000FF90EF90DF90CF900895811106C08EE446
:10077000611101C08BE40C94AF19813029F489EA2E
:100780006111F9CF8AEAF7CF0895CF93C091DF01C5
:10079000CC23E1F09C01245031092A313105B0F419
:1007A000FB012281222359F0C091DE0121E0C22702
:1007B000C093DE01C11106C092600E9455048C2FC7
:1007C000CF9108950E94AF19C0E0F9CF833791050A
:1007D00049F4FB0182818823B9F381E0C827C093E3
:1007E000DF01F2CFC1E0EBCFCF93DF939C013A95CD
:1007F00021153F4168F5EC01CC27D170DC01AA2717
:10080000B270AC01442754709C012227387094FFC9
:1008100011C080E1CD2B09F480E0AB2B09F08062A0
:10082000452B09F08064232B09F08068FB01DF91E0
:10083000CF91099481E0CD2B09F480E0AB2B09F036
:100840008260452B09F08460232B81F38860EECF12
:10085000DF91CF910895CF93DF93EC01805E9109F2
:10086000089720F06FE07CE1209711F467EB79E1C5
:10087000CE010E94F4038C2FDF91CF910C94BF180E
:10088000CF93DF93EC010E944919CE01805E91095C
:10089000089720F066E17CE1209711F46EEB79E196
:1008A000CE01DF91CF910C94F403CF93DF93EC0151
:1008B0000E942B04CE01DF91CF910C94400481E083
:1008C00008950C94C50308950C9463041F93CF936B
:1008D000DF9300D000D00F92CDB7DEB749835A83A3
:1008E0006B833091960289819A8131111DC06623F4
:1008F000B9F02223A9F00E941821182F682F8981AE
:100900009A810E94C32069817A81812F0F900F9074
:100910000F900F900F90DF91CF911F910C946B056A
:100920000E94F020182FEFCF0E94182169817A8150
:10093000EDCFFC01262F408151816281738184813A
:100940000C946604CF93DF93EC0160E00E9499045D
:10095000BE01DF91CF910C9464040E940D250E948A
:100960006422811102C00E9408230C946F070C942A
:10097000720708950E942F1C0E94B9042FEF84E390
:100980009CE0215080409040E1F700C000000C94B2
:10099000E2240F931F93CF93DF93EC0161E00E9459
:1009A00099048C01BE010E946104882359F1BE01A3
:1009B000C8010E946313882329F1BE01C8010E9467
:1009C000B5138823F9F0BE01C8010E94D81488230A
:1009D000C9F0BE01C8010E94A511882399F08A813F
:1009E000882339F001158CE5180751F00F3D1C459F
:1009F00079F0CE01DF91CF911F910F910C945F049C
:100A00000E94BA0480E0DF91CF911F910F91089569
:100A10000E940823F7CFCF92DF92EF92FF926C01F2
:100A2000EE24FF2420E0C114D104E104F10419F004
:100A3000C701B60120E1C72ED82EE92EFF24C1142C
:100A4000D104E104F10419F0285FC701B6016B017C
:100A50007C0154E0F694E794D794C7945A95D1F763
:100A6000C114D104E104F10419F02C5FC701B601EF
:100A70006B017C0142E0F694E794D794C7944A95C1
:100A8000D1F7C114D104E104F10419F02E5FC701BC
:100A9000B6019695879577956795672B682B692B97
:100AA00009F02F5F822FFF90EF90DF90CF90089595
:100AB00008950C94580581E008950C945B05CF933C
:100AC000C82F0E9459058C2FCF910C945D0590E0A2
:100AD00080E008950895E72FF0E09AE0899FE00D07
:100AE000F11D112483E0EE0FFF1F8A95E1F7E60F59
:100AF000F11DEE0FFF1FE455FF4F8591949108956E
:100B0000FC01EE0FFF1FE45DFC4F85919491089569
:100B1000CF93DF930E946B050E949406EC01811530
:100B200020E5920708F041C0811530E4930708F0F2
:100B3000B4C0803E910518F5803C910508F09DC039
:100B4000883A910570F4853A910508F08EC081309D
:100B50009105F9F00097E9F00497D8F4D0E0C0E0EF
:100B600018C08F3B9105D0F7C85AD0E0CC0FDD1FDD
:100B7000C15CDE4F0990D881C02DD4640AC08115B4
:100B8000904258F4C11581E0D80718F4C83ED10549
:100B900028F7CE01DF91CF910895C11590E3D907D1
:100BA00008F071C0CE019F706AC0811525E59207DB
:100BB00058F5811534E5930708F09EC0811542E58C
:100BC000940750F4C11581E5D80708F469C0DC2FFB
:100BD000CC27C16FD06ADDCF982F969596959E0150
:100BE00023703327C115D34508F077C0C1E0D0E0AA
:100BF00002C0CC0FDD1F2A95E2F720E2929FC001D0
:100C00001124C82BD92B67C0C11589E5D807A8F4D2
:100C1000C11598E5D90708F074C0C11526E5D207BB
:100C200008F09CCF8C2F0E942B07C82FD0E0DC2F20
:100C3000CC27CC27DF71D062ACCFC1153AE5D30702
:100C400008F464C0CE0190568115904208F086CF1A
:100C50008D2F8F710E942B0790E0982F882788276F
:100C60009F719C012C2BE901E6CFC55AD0E0C359F6
:100C7000DE4FC881D0E0D0648CCF805C91090E94A7
:100C80008005EC0186CFCE019927D3FF03C0EC018C
:100C9000D86C7FCFEC01D06C7CCFDF70D06A79CF7D
:100CA000CE01E4E096958795EA95E1F783702C2FC5
:100CB00026952695237090E2299F90011124382BC8
:100CC0008C2F8370C1E0D0E002C0CC0FDD1F8A956D
:100CD000E2F7C22BD32BDC685CCFC1E0D0E002C0CE
:100CE000CC0FDD1F2A95E2F730E2939FC00111245B
:100CF000C82BD92BDA684DCFD82FCC27C46FD06A38
:100D000048CFDC2FCC27C06FD06A43CF8C2F8F7099
:100D10000E942B0734E0D695C7953A95E1F7CF703E
:100D20009C2FEC01D06935CF82389105B1F1B0F438
:100D30008133910509F475C048F48932910509F4AD
:100D400069C08A32910509F473C00895853391050D
:100D500009F459C08933910501F10895833E910545
:100D6000A9F138F4803E9105F9F0823E910549F1F0
:100D70000895863E9105A9F1873E9105C9F1843E0B
:100D8000910519F52091DC0321FF1FC08091DB0341
:100D900084FD14C087EE90E008952091DB0323705A
:100DA000A1F080EE90E008952091DB0320FD47C084
:100DB0003091DC0330FF09C024FF44C090E080E0A4
:100DC00004C02091DB0322FDF7CF08952091DB03BF
:100DD00022FD3BC03091DC0330FDE3CF24FFF5CF93
:100DE000EDCF2091DB0323FFF0CF24FDE7CFD2CF5F
:100DF0002091DB0323FD2CC03091DC0331FFEECFCB
:100E000084EE90E008952091DB0325FFDECF89E298
:100E100090E008952091DB0325FFD7CF85E390E094
:100E200008952091DB0326FFD0CF8AE290E0089559
:100E30002091DB0326FFC9CF81E390E0089589E389
:100E400090E0089583EE90E0089582EE90E008959A
:100E500086EE90E008959091DB0392FF06C0282F64
:100E600028712830F9F4877F846093FF06C0282F0B
:100E700028712831F1F4877E84612091DC0320FF02
:100E800006C0382F38713830D9F4877F816021FF50
:100E900006C0282F28712831D1F4877E816194FD06
:100EA000877E0895282F24712430F9F68B7F88607F
:100EB000DCCF282F2471243101F78B7E8861DDCFB0
:100EC000382F3171313019F78E7F8860E0CF282FAD
:100ED0002171213121F78E7E8861E1CF08950C9434
:100EE0006E0708950C947107E82FF0E0E45AFC4F68
:100EF00080810895089580EA8A95F1F7089500C0E9
:100F000008950C947B07F894E82FE295EF70F0E0D9
:100F100031A1282F2F7081E090E001C0880F2A9521
:100F2000EAF7982F9095932391A392A1892B82A3FE
:100F30007894089508950F931F93CF93DF93CDB7BF
:100F4000DEB762970FB6F894DEBF0FBECDBF0E942A
:100F5000750980911601811132C0FE01359686E037
:100F6000DF011D928A95E9F780EF898385E38A8303
:100F700084E38B8387E98C8386E98D83CE01019698
:100F8000ECE0F1E09E01255F3F4FDC014D91CD018A
:100F90004193A217B307C9F728E0E7E3F1E0DE01C8
:100FA0001B9601900D922A95E1F7FC01A4E0B1E0B7
:100FB000CE01439621912D93E817F907D9F7809137
:100FC000160195E0811190E09093670385E0891BFD
:100FD000809366030CE011E0F80181918F010E947B
:100FE0008307F1E001311F07B9F704E011E0D801F0
:100FF0008D918D010E948307B1E00C301B07B9F77A
:10100000E2E5F3E0ACE5B3E011921D9283E0EC354C
:10101000F807D1F785E00E9413090E94AD0462969B
:101020000FB6F894DEBF0FBECDBFDF91CF911F91F9
:101030000F910C948A09FF920F931F93CF93DF9324
:1010400000D000D00F92CDB7DEB70E945F09F82E16
:1010500060916703882309F450C08E010F5F1F4F12
:1010600085E0F80111928A95E9F7862F90E0B801A2
:10107000845A9C4F0E940215811122C08091E00188
:101080008F5F8093E0018630B0F1E0916603F0E07D
:10109000E45AFC4FD801CE01069611921D92A81772
:1010A000B907D9F70E94B7048F2D0F900F900F90BA
:1010B0000F900F90DF91CF911F910F91FF900895A6
:1010C0001092E001A0916603B0E0A45ABC4F9E01CB
:1010D0002A5F3F4FF12C4D91F80191918F014917F3
:1010E00031F0AD0141505109FA019083F82E0217F9
:1010F000130789F7D7CFF12CD5CF70E0645A7C4F16
:101100008091660390E0845A9C4F0E945B150E9478
:101110009A07CACFAF92BF92CF92DF92EF92FF921F
:101120000F931F93CF93DF930CE011E082E5E82E3D
:1011300083E0F82E91E1A92E91E0B92EC0E0CC24F5
:10114000C394D12CF80181918F01F894E82FE29596
:10115000EF70F0E021A18F70A60102C0440F551F6F
:101160008A95E2F7CA01922F982B91A392A18095BC
:10117000892382A378940E947F07E4E0F1E030E0C5
:1011800020E0D0E04191A42FA295AF70B0E09096FE
:101190008C9190E04F7002C0959587954A95E2F743
:1011A00080FD3DC08C2D022E01C0880F0A94EAF705
:1011B000D82B2F5F3F4F2830310521F7F8013197A9
:1011C00080810E9483070E948107F7018081D817E0
:1011D00041F1D08381E0C82BFFEFEF1AFF0AA01680
:1011E000B10609F0AFCF6091670370E0645A7C4F9D
:1011F0002C2F45E082E593E00E9414090E941B0811
:10120000C11101C0C82F8C2FDF91CF911F910F9179
:10121000FF90EF90DF90CF90BF90AF90089580E067
:10122000C7CF80E0D8CF0895FF920F931F93CF933D
:10123000DF93F82E092F162FD72FC42F222349F022
:1012400081E08093E3010E944D249093E20180931A
:10125000E1018091E3018823A1F08091E101909167
:10126000E2010E946524069760F0EF2DF02FA12F78
:10127000BD2FCE0FDF2FD11DEC17FD0741F41092CB
:10128000E301DF91CF911F910F91FF90089581911C
:101290008D93F2CF88EC9091E30097FD0EC0EFE3C1
:1012A000FCE93197F1F700C000008150A1F70E94DE
:1012B000E2281092E10380E0089581E00895809192
:1012C000E401811107C00E944A0981110AC082E02D
:1012D0008093E40181E09091E401913009F080E095
:1012E000089581E0F5CF0C945F090E947309809303
:1012F0001601809116016CE0882349F080E00E947D
:101300002A0A0E945F09882321F00C9481158CE041
:10131000F6CF08950E945F09811102C00C948315D5
:101320000895EF92FF920F931F93CF93DF93EB01FA
:10133000E82FD11110C0442321F0F0E0EA5BFB4F0D
:10134000E4916E2F7E2F8E2FDF91CF911F910F9101
:10135000FF90EF9008950D2F10E0282F30E04423E8
:1013600029F02A5B3B4FF901249130E0F6E0CF9F52
:10137000C0011124EFEFF0E0BF010E94FD2BAB0193
:101380008C2F90E0880F991FA5E5A49FB001A59F21
:10139000700D1124861B970B982F990F980FBF0182
:1013A000601B710B629FD001639FB00D729FB00DE7
:1013B00011248B2F9D9FB0011124672F7727EF01F8
:1013C000C61BD70BBE01629FE001639FD00D729FC9
:1013D000D00D11247F01E91AF108E09EB001E19ED1
:1013E000700DF09E700D1124672F7727E61BF70B09
:1013F000E29F8001E39F100DF29F100D1124E12F59
:10140000722F4230510599F048F44115510569F0A9
:101410004130510581F0EB2F8D2F07C0443051052D
:1014200069F080F046305105B1F76E2F8DCFE22F75
:101430007B2F812FFACFE22F7D2FF7CFEB2F822F3B
:10144000712FF3CF7B2F822FED2FEFCF41E00C9444
:1014500091090895EAE1F1E08083618308950C9495
:10146000260ACF93DF93762FE901682F842F0E94FD
:101470002F0A798368838A83DF91CF9108958091C1
:101480006803982F9E7F29F481708260809368039F
:1014900008958635E8F381708465F8CF88E090E0A0
:1014A0000C94EF2CCF92DF92EF92FF926B017C01B4
:1014B0000E943F0AB701A60188E090E0FF90EF90FC
:1014C000DF90CF900C940D2DE8E6F3E083E080836D
:1014D00011828FEF828383831482AAE6B2E0129690
:1014E0008C911297836012968C93608171818281B6
:1014F00093810C94520A8091680380FF02C0869504
:10150000089580E0089590916C03933018F49F5FE4
:1015100090936C03882351F0609168037091690384
:1015200080916A0390916B030C94520A089581E0B4
:101530000C94830A90916C03992319F09150909325
:101540006C03882351F06091680370916903809166
:101550006A0390916B030C94520A089581E00C94F5
:101560009A0A70E00C94141260911B018091680338
:1015700080FF0AC080911A0123E0829FC0011124DC
:1015800083599C4F0C94B10A80911C0190911D01CC
:1015900023E0829FF0011124E359FC4F891750F793
:1015A0001182108212828F5F3396F8CF9091680378
:1015B00090FF14C090911C0120911D0133E0939F76
:1015C000F0011124E359FC4F921710F00C94B40A67
:1015D0008183608342839F5F3396F6CF0895CF93D4
:1015E000DF9300D00F92CDB7DEB79091680390FFE4
:1015F0000AC09E012F5F3F4F0E94310A4B816981D3
:101600008A810E94D60A0F900F900F90DF91CF91A0
:101610000895CF93DF93EC01EC81F0E0EF5BFC4F9A
:101620004491E8E6F3E0628181810E94EF0A8C81B7
:101630008F5F8C83DF91CF910895CF93DF93EC017F
:10164000E8E6F3E0438162818C810E94EF0A8C819D
:101650008F5F8C83DF91CF9108950F931F93CF936A
:10166000DF9300D00F92CDB7DEB78C018091E501FA
:1016700081110AC09E012F5F3F4F4FEF6FEF0E9415
:10168000310A8A818093E501F8016481613069F053
:101690008091E50140E0662361F040E0623011F4A2
:1016A0004091E50180E060E004C06091E50140E028
:1016B00080E00E94D60AF801848190E0019663E000
:1016C00070E00E94112C84830F900F900F90DF9197
:1016D000CF911F910F910895AF92BF92CF92DF9259
:1016E000EF92FF920F931F93CF93DF9300D00F924F
:1016F000CDB7DEB7182FF62E042FE22E9091680397
:1017000090FF3AC0E92FE695AE2FB0E0A059BE4F4A
:101710008C9180936A029E7F9230E1F59E012F5F4B
:101720003F4F812F0E94310A4B8169818A810E943B
:10173000D60A80916903811308C080916A038F11D2
:1017400004C080916B03801729F080916C02826045
:1017500080936C0210936903F0926A0300936B0309
:10176000EE2051F0609168037091690380916A03E3
:1017700090916B030E94520A0F900F900F90DF918F
:10178000CF911F910F91FF90EF90DF90CF90BF907E
:10179000AF900895823019F400916B03CACF863060
:1017A00019F410916903C5CF8930D9F3893109F64D
:1017B000E9518E2F8170D82EE695F0E0EF5BFB4F5C
:1017C000A590B490C12CBB2460911E01C61618F0E0
:1017D0000E94B40AAECF2C2D30E0A29EC001A39E81
:1017E000900DB29E900D112470E00E94FD2B812F70
:1017F000D11013C0860F40911C01420F532F511D71
:101800009A01220F331F240F351F23593C4F402FBD
:101810006F2D0E94310AC394D7CF861BECCFE8E628
:10182000F3E09181282F4381628188E0890F0C9435
:101830006C0B81E00C940F0CE8E6F3E09181282F0B
:101840004381628188EF890F0C946C0B81E00C94CA
:101850001C0CE8E6F3E0628121E1620F08F46FEF0F
:10186000282F438181810C946C0B81E00C94290C0E
:10187000E8E6F3E0628121E1621B08F460E0282FD2
:10188000438181810C946C0B81E00C94380CE8E668
:10189000F3E0438121E1420F08F44FEF282F6281EA
:1018A00081810C946C0B81E00C94470CE8E6F3E02A
:1018B000438121E1421B08F440E0282F62818181AD
:1018C0000C946C0B81E00C94560C20E00C946C0B87
:1018D000EF92FF921F93CF93DF93EC0110E0EE2481
:1018E000EA94F12C60911E01161770F00E94B40A60
:1018F0009A818C8190FF27C08F5F8C83DF91CF917D
:101900001F91FF90EF90089520911C01422F410FED
:101910005527551FCA019A01220F331F280F391F5F
:1019200023593C4F70E0C7010E94112C962F8C81E7
:1019300040916B0360916A03199F800D11240E94EE
:10194000310A1F5FCFCF8150D8CF8F929F92AF9235
:10195000BF92CF92DF92EF92FF920F931F93CF939C
:10196000DF93EC018A81BB24BA9480FD02C0BB24C2
:10197000B3948C8181110AC081E0B8122AC0809191
:101980001E0181508093E70181E08C83A12C48E106
:10199000942E80911E01A816F8F00E94B40A80913E
:1019A000E70191E0B91261C081115AC080911E0116
:1019B00081508093E7011C82DF91CF911F910F919D
:1019C000FF90EF90DF90CF90BF90AF909F908F905F
:1019D00008951092E701D8CF00911C01CA2CD12C98
:1019E0000C0D1D2D111DC801880F991F080F191FFF
:1019F00003591C4FF80111821082128234E0E32E49
:101A0000F12C812C8091E701880D89311CF1692D21
:101A10000E94EF2B892F082E000C990BC816D906AF
:101A200091F480916B038E9DA0018F9D500D112428
:101A30005595479555954795980160916A03809112
:101A400069030E94310A8B0CF1E0EF1AF108D1F61C
:101A5000A3949FCF87FFDFCF90911E01890FDBCF2B
:101A600081508093E701BC82A7CF90E001966091FE
:101A70001E0170E00E94112C8093E7018C839CCFA3
:101A8000EF92FF920F931F93CF93DF93EC018C8122
:101A9000811109C081E08C831092E60192E090935D
:101AA00019018093180180911C0190911D0123E080
:101AB000829FF0011124E359FC4F891768F110E06F
:101AC00003E060911E01161768F10E94B40A80912C
:101AD00018012091E601280F2093E6019091190149
:101AE000980F90931901191654F4022E000C330B21
:101AF00040911E014150550B2417350734F0819554
:101B000080931801813009F41C82DF91CF911F91DD
:101B10000F91FF90EF9008951182108212828F5FD3
:101B20003396CBCFE12EF12C70E0C7010E94112C2F
:101B300020911C01820F482F50E02091E601022ED7
:101B4000000C330BE216F306BCF020911901022EB3
:101B5000000C330B2E153F057CF0809F9001112463
:101B600023593C4F40916B0360916A038091690354
:101B70000E94310A1F5FA5CFFA01EE0FFF1FE40F8D
:101B8000F51FE359FC4F118210821282F3CF8F921E
:101B90009F92AF92BF92CF92DF92EF92FF920F93FC
:101BA0001F93CF93DF93EC014C81042F10E0980139
:101BB000D8010E94552C9B01AC010E946B2C4B015B
:101BC0005C01E0E2F0E0E01BF10BA5E5B0E0AC0168
:101BD0009B010E946B2C6B017C019F01DF010E9425
:101BE0004D2C9B01AC010E94762C9B01AC01280D71
:101BF000391D4A1D5B1DC701B6010E94252CF22E1E
:101C0000822F90E039E23F1560F143E0249F90017C
:101C1000112435952795122F109500E085E5E82EC3
:101C2000EF1880911E01081758F10E94B40A9C8198
:101C300081E0992319F0903219F48FEF8093170106
:101C400080911701890F8C83DF91CF911F910F91A4
:101C5000FF90EF90DF90CF90BF90AF909F908F90CC
:101C6000089525E530E0B901681B790B9B01220F2F
:101C7000331F260F371F37FFCCCF2F5F3F4FC9CF02
:101C80008E2D01FD8F2D20911C01622F600F772773
:101C9000771F9B01220F331F260F371F23593C4FFD
:101CA000412F60916A030E94310A0F5FBACF0F93F0
:101CB0001F93CF93DF93EC0110E000E090911E01A1
:101CC0009017110609F06CF40E94B40A8C8190E020
:101CD0000196817099278C83DF91CF911F910F918D
:101CE000089520911C01A801420F511D9A01220F55
:101CF000331F240F351F23593C4F4C8160916A03D9
:101D00008091690396959017110651F04CF0442389
:101D100049F040916B030E94310A0F5F1F4FCECFF5
:101D20004423B9F340E0F7CF4F925F926F927F92D6
:101D30008F929F92AF92BF92CF92DF92EF92FF92DB
:101D40000F931F93CF93DF93FC016280448081E067
:101D50008483E1E4F3E07490E0ECF3E0E491812C1F
:101D600075E0972EF2E0CF2EDD24D394AA24AA9416
:101D7000B12C55245A94E7190E2F10E080911E01C2
:101D8000881690F0DF91CF911F910F91FF90EF9007
:101D9000DF90CF90BF90AF909F908F907F906F908B
:101DA0005F904F900C94B40AE82CF12C82E08615D9
:101DB00068F09E9CF0019F9CF00D1124E551FE4FB0
:101DC00080916903808380916A038183411023C0DD
:101DD0009E9CF0019F9CF00D1124E551FE4F138253
:101DE000128220911C01C701820F911D9C01220FBC
:101DF000331F280F391F23593C4F9E9CF0019F9C95
:101E0000F00D1124E551FE4F4281618180810E94D5
:101E1000310A8394B3CF9E9CE0019F9CD00D112486
:101E2000C551DE4F8B818823E9F081508B83859DDE
:101E3000C00111246C8170E00E94FD2BFB01FF2783
:101E4000EF5BFC4F8491E82FE719E59DC001112459
:101E5000B8010E94FD2B80916B03689FB001112493
:101E60007A83BFCF0E94CA2C20916B0326952158FC
:101E70002C9DA0012D9D500D1124452F5527841711
:101E800095070CF0AECF82E0861588F40E94CA2C2C
:101E9000B5010E94112C88830E94CA2C20916A03EC
:101EA0002695622F70E00E94112C280F29839E9C9A
:101EB000F0019F9CF00D1124E551FE4F128280919C
:101EC0006B03893C58F088EC9E9CF0019F9CF00DC0
:101ED0001124E551FE4F8483838383CF8431A0F79F
:101EE00084E1F2CF80916C02089510926C02089503
:101EF00025E0E8E6F3E0DC0101900D922A95E1F798
:101F000020916A0230916B0240916C02FC012583A2
:101F1000368347830895EAE6F2E011828281846085
:101F200082830895E8E6F3E080818E7F80830E94BB
:101F30008B0FEAE6F2E08281816082832FEF80E7F7
:101F400092E0215080409040E1F700C000000C94E6
:101F5000B40AE8E6F3E080818E7F8083608171813E
:101F6000828193810E94520A0E948B0FEAE6F2E07E
:101F70008281816082832FEF80E792E02150804050
:101F80009040E1F700C000000C94B40A609168032F
:101F9000669570E04BE050E08FE191E00E94DA2C12
:101FA000892B19F481E080936B020E94D9249093CD
:101FB00064028093630280916C02846080936C025F
:101FC00008959091680390FF3AC0917081112DC0DF
:101FD00092609093680380916C02816080936C02A0
:101FE000662351F0609168037091690380916A03E0
:101FF00090916B030E94520A60916803669570E0AD
:102000004BE050E08FE191E00E94DA2C892BA1F0A7
:102010000E948B0F81E08093660240916B03609178
:102020006A03809169030C94650C8B3210F09465FF
:10203000D0CF880F982BCDCF0E94C60FEBCF08953D
:10204000682F90916803969581E0890F8B3208F094
:1020500081E00C94E10F81E00C942010682F9091A6
:10206000680396958FEF890F09F48AE20C94E10FCB
:1020700081E00C942E1061E00C94E10FE8E6F3E0AF
:1020800080818160808386950C943B1080916803E9
:1020900080FD0C94A90F0C943E1060E00C94E10FAD
:1020A00080916902811133C00E946422811104C0B1
:1020B0000E9408230E94640A0E944E0A60936803EB
:1020C0007093690380936A0390936B0380916C0211
:1020D000836080936C026E7F61F40E94640A0E94A8
:1020E0004E0A609368037093690380936A03909328
:1020F0006B030E943F0A0E948B0F8091680380FF50
:1021000003C086950E944D1081E080936902089576
:102110001F93CF93DF93EC01162F8F8180FF0CC0AC
:10212000888180FF24C08091680381608093680368
:10213000888186950E94E10F8F8181FF06C0212F43
:102140004B816A8189810E946C0B8F8182FF05C05F
:102150008E81882379F00E94C60F8F8183FF03C090
:1021600081E080936602DF91CF911F9108950E94D4
:10217000920FE2CF0E948B0FF0CFEF92FF920F935E
:102180001F93CF93DF9380916B02882309F462C081
:1021900080916A02E0916803E695E81BE09365028E
:1021A000823009F05EC0F0E0E35CFC4FE491CE2F9A
:1021B000D0E009E01BE080916602882361F0109274
:1021C00066020E94D9249093640280936302109265
:1021D0006802109267020E94D924E0916302F09194
:1021E00064029C012E1B3F0B2F3F3F4798F5209127
:1021F000EA012223B1F01092EA012091E801309126
:10220000E901821B930B8F3F9F4758F4205D3A48AA
:102210003093E9012093E80180916C0288608093FB
:102220006C02E0906702F0906802EC0FFD1FF093E3
:102230006402E093630283E692E0F80109958091DD
:10224000670290916802892B29F4EF2819F081E048
:102250008093EA01DF91CF911F910F91FF90EF9052
:102260000895863049F4F0E0E65CFC4FE491CE2F0F
:10227000D0E00DE11BE09FCF893051F4E695F0E00E
:10228000E95CFC4FE491CE2FD0E008E61CE093CF50
:102290008F3051F4E695F0E0EC5CFC4FE491CE2FEA
:1022A000D0E005EA1CE087CF853149F4F0E0EF5C2F
:1022B000FC4FE491CE2FD0E000E41DE07CCFC8E2DB
:1022C000D0E007EC1DE0883109F475CF833239F492
:1022D000EFE2F3E0C591D4910DE21BE06CCFC4EFC7
:1022E000D1E007E51EE0843209F465CFC0EDD7E008
:1022F00009E21AE0853209F05ECF8E2F63E00E947A
:10230000E32BE92FF0E0E45DFC4FE491CE2FD0E029
:1023100004E91EE050CFFA01811101C0FB010994CC
:10232000CF93DF93C82FD62F0E947B0A8C1740F0E3
:102330000E947B0A8D1720F4DF91CF910C942B1013
:102340008C2FDF91CF910C943B101F93CF93DF9391
:10235000EC01FB011281111110C00E94AD218272AB
:10236000FE01E35CFC45E431F10508F05BC0E05B95
:10237000F24D0C94472C0E944610812FDF91CF9193
:102380001F91089548E350E16BE270E10E948B11C8
:10239000F4CF4BE250E168E370E1F8CF46E25CE055
:1023A00069E17CE0F3CF49E15CE066E27CE0EECFFE
:1023B00044E45CE065E37CE0E9CF45E35CE064E4B1
:1023C0007CE0E4CF42E65CE063E57CE0DFCF43E520
:1023D0005CE062E67CE0DACF4EEA5AE067E97AE058
:1023E000D5CF47E95AE06EEA7AE0D0CF81E00E948B
:1023F0003B10C3CF65E082E00E949011BECF68E041
:1024000086E0FACF6EE089E0F7CF64E18FE0F4CFA9
:1024100067E185E1F1CF88E1EACF62E289E1ECCFC3
:1024200083E2E5CF11E0A9CF6E9A4EB14F7B5EB14A
:102430005064EFB7F8949B01220F331F260F371F0C
:10244000280F391F2817390741F4EFBF8FE594E0B3
:102450000197F1F700C000000895DC016D91CD01F6
:1024600078E05EB9000000C067FF4EB9660F00005B
:1024700000C000C000C04EB900C07A9591F7E2CF0D
:102480000C94B50384988C9A8198899A8FB182951F
:10249000817079990EC090E0892B8093720290919F
:1024A000160181E0982790936E02891B80936D023C
:1024B000089592E0F1CFCF93E0917202EE0FEE0F0C
:1024C000E09372024FB144FB882780F94FB141FB82
:1024D000222720F941FF02C022E030E0822BE82BC6
:1024E000E0937202C0916E02EF70F0E0E556FE4F8D
:1024F000808190917102890F8093710220E0883071
:1025000074F0EC2F0C2E000CFF0BE159FD4F808175
:102510008F5F808360E08C2F0E94401221E08091C9
:102520007102893F74F4EC2F0C2E000CFF0BE15963
:10253000FD4F80818150808361E08C2F0E9440128A
:1025400021E080917102082E000C990B68E070E088
:102550000E94112C80937102822FCF910895E091F7
:102560006E02F0E0E159FD4F2081FC0120830895C7
:10257000FF920F931F93CF93DF93D0916D020D2F96
:1025800010E001591D4FFC01C081F8018081C81B7A
:10259000FC2E80E01F147CF09C2FC7FD90E0C91B2F
:1025A000C11114C08823E9F0DF91CF911F910F91E1
:1025B000FF900C94A717FA94F80180818F5F8083B5
:1025C00060E08D2F0E94401281E0E4CFCF5FF801E0
:1025D00080818150808361E08D2F0E94401281E0D4
:1025E000DFCFDF91CF911F910F91FF9008950F934F
:1025F0001F93CF93DF93C42FD22FFC0182818823B6
:10260000C9F0409375020E944D2490937402809308
:10261000730280E28C0F883008F050C0C77081E0F0
:1026200001C0880FCA95EAF7DF91CF911F910F91F2
:102630000C94B71910917502141335C08091730270
:10264000909174020E946524883C910560F5C0E277
:10265000CD0F1D17B9F080E2810F883040F417705C
:1026600081E001C0880F1A95EAF70E94BE19C830B0
:1026700048F481E09D2F977001C0880F9A95EAF782
:102680000E94B719802F0E94AF19C830B8F4D770D4
:1026900081E001C0880FDA95EAF7DF91CF911F91B1
:1026A0000F910C94BE1980E28C0F883038F4C770FB
:1026B00081E001C0880FCA95EAF7EFCFDF91CF9193
:1026C0001F910F9108950F939C01CB01243F4CE57E
:1026D000340759F1A8F4293DFCE53F0701F12A3DF3
:1026E0004CE53407D1F1283D3C4591F406E221EE5A
:1026F00041EE68ED7CE50E94F71280E00F910895AD
:10270000263FFCE53F07E9F0B0F0273F3C45F9F0F4
:10271000FC018281882339F110927502EFCF07E224
:1027200025EE45EE69ED7CE5E6CF06E221EE40EED2
:1027300064EF7CE5E0CF07E225EE44EE65EF7CE553
:10274000DACF06E221EE42EE66EF7CE5D4CF07E277
:1027500025EE46EE67EF7CE5CECF08E221E045EEC0
:102760006AED7CE5C8CF81E0C9CFCF93DF93EC0160
:10277000FB018281882309F419C1C230FCE5DF071F
:10278000C0F1C6319CE5D90730F09E012B5F3C4576
:102790002930310570F50E9477229093DC038093F5
:1027A000DB03C031ECE5DE0709F4CFC008F05BC005
:1027B000C8308CE5D80709F4B6C088F5C430ECE51C
:1027C000DE0709F4A8C0C0F4C2308CE5D80709F4CC
:1027D0009CC08091DB038260C330DC4509F498C063
:1027E0008091DB039091DC030E9485220E942F1CC4
:1027F00080E0DF91CF9108958091DB038061C63046
:10280000ECE5DE0709F484C08091DB038860C73003
:10281000DC4508F47DC08091DB03806279C0CC3058
:102820008CE5D80709F489C070F48091DB038C60D3
:10283000CA30ECE5DE0709F46BC008F478C080917B
:10284000DB038E7F65C0CE308CE5D80709F479C0F4
:102850008091DB038B7FCF30DC4508F459C0809139
:10286000DB038F7E55C0CC3FECE5DE0709F457C093
:1028700030F5C3318CE5D80709F46FC078F4C13165
:10288000ECE5DE0709F465C0C231DC4509F0A8CFEC
:102890000E942F1C8091DB038F773AC0C5318CE5F5
:1028A000D80709F462C008F476C08091DC03816027
:1028B000CB3FDC4509F094CF8093DC0391CFC11569
:1028C000FDE5DF0709F44DC088F48091DC038D7FBE
:1028D000CE3F9CE5D90781F38091DC038E7FCF3F0B
:1028E000DC4550F38091DC038360E6CFC230FDE528
:1028F000DF0709F459C008F444C080E0C330DD4567
:1029000009F06ECF0E940A236BCF8091DB038160B8
:102910008093DB0365CF8091DB038460F9CF8091E6
:10292000DC038260C9CF8091DB038064F1CF0E9419
:102930002F1C8091DB038068EBCF8091DB038D7FC0
:10294000E7CF8091DB03877FE3CF8091DB038F7D2F
:10295000DFCF8091DB038F7BDBCF8091DB03837F35
:10296000D7CF8091DC038C7FA7CF8091DB0382FBE4
:10297000992790F921E0922790FB82F990FB83F947
:10298000C7CF8091DC03982F909591708E7F892B13
:1029900090FB81F991CF0E942F1C9091DB03892F2E
:1029A00097FB87F98058B4CF81E0ACCF81E021CF8D
:1029B000CF93DF93EB0186319C4511F50E94AD2149
:1029C0009A81992399F08A7A91E009F490E09093A2
:1029D0007602811109C089E20E9488210E94F921B2
:1029E00080E0DF91CF91089585E3F6CF8091760264
:1029F000811104C089E20E948F21F0CF85E3FBCFD3
:102A000081E0EFCF0F931F93CF93DF93CDB7DEB766
:102A100028970FB6F894DEBF0FBECDBFAB0104E61A
:102A200010E025E030E064E082E30E948C160E9412
:102A3000720F882381F0CE0101960E94780F28E062
:102A400030E0AE014F5F5F4F69E082E30E945F16A6
:102A500097FF0E94750F04E610E021E030E046EC9D
:102A600053E061E182E30E948C1686EC93E00E94C1
:102A7000B8120E94BE246E5F7F4F8F4F9F4F6093AE
:102A8000B5037093B6038093B7039093B80324E023
:102A900030E045EB53E060E082E30E945F1681E0A6
:102AA00028960FB6F894DEBF0FBECDBFDF91CF9151
:102AB0001F910F910895CF93DF93EB016091B503C0
:102AC0007091B6038091B7039091B8030E94A1243E
:102AD00085E0FE01A9EBB3E001900D928A95E1F744
:102AE0008091C503882339F060E08EEB93E00E946B
:102AF00088101092C50386EC93E0DF91CF910C947F
:102B0000AF120C94861582E30C94DB161092B90078
:102B100088E48093B8000895EF92FF920F931F937B
:102B2000CF93DF93182FEB011092BC0084EA8093BF
:102B3000BC000E944D247C018091BC0087FF27C00F
:102B40008091B900887F883029F08091B900887F12
:102B50008031D9F51093BB0084E88093BC000E94BB
:102B60004D248C018091BC0087FF24C02091B900C6
:102B7000287F90E080E02831B1F081E090E02034BF
:102B800011F490E080E09195819591090CC0CF3FC0
:102B9000DC0791F20E944D248E199F098C179D0726
:102BA00058F28EEF9FEFDF91CF911F910F91FF9021
:102BB000EF900895CF3FDC07A9F20E944D24801BBF
:102BC000910B8C179D0770F2ECCF8FEF9FEFEBCF3F
:102BD0000F931F93CF93DF93EB018093BB0084E8A7
:102BE0008093BC000E944D248C018091BC0087FF23
:102BF00011C02091B900287F81E090E0283211F4C3
:102C000090E080E0919581959109DF91CF911F919E
:102C10000F910895CF3FDC0741F30E944D24801BA4
:102C2000910B8C179D0708F38EEF9FEFEECF0F935C
:102C30001F93CF93DF93EC0184EC8093BC000E9440
:102C40004D248C018091BC0087FF08C08091BB009F
:102C500090E0DF91CF911F910F910895CF3FDC0756
:102C600089F30E944D24801B910B8C179D0750F314
:102C70008EEF9FEFEECF0F931F93CF93DF93EC0177
:102C800084E88093BC000E944D248C018091BC009C
:102C900087FF08C08091BB0090E0DF91CF911F912A
:102CA0000F910895CF3FDC0789F30E944D24801BCC
:102CB000910B8C179D0750F38EEF9FEFEECFCF92C5
:102CC000DF92EF92FF920F931F93CF93DF93C62F64
:102CD0006A017901B8010E948C1597FD0CC0B801FA
:102CE0008C2F0E94E815E601EC0CFD1CCE15DF05CB
:102CF00011F097FF0CC024E92093BC00DF91CF9125
:102D00001F910F91FF90EF90DF90CF900895B80141
:102D100089910E94E815EACFCF92DF92EF92FF925D
:102D20000F931F93CF93DF93F82EE62EEA016901EC
:102D3000B8010E948C1597FD15C0B8018E2D0E9418
:102D4000E81597FD0FC0B8018F2D81600E948C158A
:102D5000F12CE12C21E0C21AD108EC14FD0400F59D
:102D600097FF11C024E92093BC001816190614F42B
:102D700090E080E0DF91CF911F910F91FF90EF9055
:102D8000DF90CF900895C8010E94171697FD04C0E8
:102D9000FE01EE0DFF1D80832FEFE21AF20ADDCF58
:102DA00097FDE0CFC8010E943B1697FDDBCFCC0D0D
:102DB000DD1D8883D7CF8093BA0085EC8093BC005B
:102DC00008951F921FB61F9211248F939F93EF9324
:102DD000FF938091B900887F8038C1F038F4882350
:102DE00009F448C0803679F081E022C0883A11F0B9
:102DF000883BD1F7E0917802F0E0EB54FC4F808102
:102E00008093BB0031C010927702EECF80917702A1
:102E1000811122C08091BB0080937802809178025A
:102E20008E31C0F01092780280E091E090937702AA
:102E30009091BC008295880F880F807C892B8568D3
:102E40008093BC00FF91EF919F918F911F901FBEC7
:102E50001F90189581E0E9CFE0917802F0E0809131
:102E6000BB00EB54FC4F8083809178028F5F80938E
:102E70007802BACF1092BC00B7CF90937E028093B5
:102E80007D020895E0917D02F0917E02309721F05D
:102E90000190F081E02D099480E00895E0917D0299
:102EA000F0917E02309799F020913601222359F05B
:102EB0002091DB0327FF07C0DC012C9111962C9396
:102EC000119725E02C930280F381E02D0994089559
:102ED00020917B0230917C022817390771F0909382
:102EE0007C0280937B02E0917D02F0917E0230971C
:102EF00021F00680F781E02D099408952091790250
:102F000030917A022817390771F090937A028093F2
:102F10007902E0917D02F0917E02309721F00084E9
:102F2000F185E02D099408950E945924609392023E
:102F300070939302809394029093950260938E0213
:102F400070938F02809390029093910208950E9453
:102F50005924609392027093930280939402909309
:102F6000950260938A0270938B0280938C029093F7
:102F70008D02089585B7806885BF85B7806885BF55
:102F80000895089508950C94C2170E94BA178CE50D
:102F900092E20E9406250E94C1170C9483030C94B0
:102FA0005F09089508950E9444240E9498240E9475
:102FB0009B070E9421250E9450100E9442120C94EF
:102FC000C317AF92BF92CF92DF92EF92FF920F930F
:102FD0001F93CF93DF93CDB7DEB72A970FB6F89440
:102FE000DEBF0FBECDBF0E94D1170E94D2170E9434
:102FF0008A0881110E94941780E8A82E82E0B82EDA
:1030000010E000E0C02E802F0E947407E82EF5012A
:10301000F1905F01F81609F453C080912E0381FDF1
:103020000E947A078F2D8E25D12CFF24F394982FA0
:103030009F2109F440C00E94CF17882399F0DE82B7
:10304000CF82EF2081E009F480E088870E944D2440
:103050008160782F9A8789874E815F8168858A850C
:103060000E948818F801E058FD4F8081F826F08210
:103070000E94BD100E945B1281110E94A7170E943E
:10308000421790917F02891791F10E944217809315
:103090007F022A960FB6F894DEBF0FBECDBFDF9138
:1030A000CF911F910F91FF90EF90DF90CF90BF9045
:1030B000AF900C945F05D394FF0CF8E0DF12B7CF0C
:1030C0000F5F1F4F0A30110509F09CCF8FEF8983E6
:1030D0008A831B820E944D248160782F9D838C837C
:1030E00049815A816B818D810E948818C1CF2A96AF
:1030F0000FB6F894DEBF0FBECDBFDF91CF911F9109
:103100000F91FF90EF90DF90CF90BF90AF90089518
:10311000DF92EF92FF920F931F93CF93DF93CDB780
:10312000DEB72B970FB6F894DEBF0FBECDBF7A8700
:103130008B87F42E052F162FE72ED82E61110E94B3
:10314000CD211E821D827E2DEC82DD824F2D502FDF
:10315000612F8D2D9E812B960FB6F894DEBF0FBE8A
:10316000CDBFDF91CF911F910F91FF90EF90DF9036
:103170000C94A51EFC01808191810C945A21CF935F
:10318000C82F882309F483C08238C1F40E944217F3
:1031900081FD7DC089E30E9488210E94F9212FEFE3
:1031A00081EE94E0215080409040E1F700C00000A3
:1031B00089E30E948F21CF910C94F9218338A1F4E7
:1031C0000E94421780FD63C083E50E9488210E940F
:1031D000F9212FEF81EE94E0215080409040E1F7FB
:1031E00000C0000083E5E5CF8438A1F40E944217B7
:1031F00082FD4DC087E40E9488210E94F9212FEFB3
:1032000081EE94E0215080409040E1F700C0000042
:1032100087E4CFCF8CEF8C0F813A90F46C2F8091A4
:103220002A0190912B010E942323882329F08C2FBF
:103230000E948F210E94F9218C2F0E948821BBCFF0
:1032400080E28C0F883048F4C77081E001C0880F9D
:10325000CA95EAF70E94B021AECFEBE5EC0FE33060
:1032600040F4F0E0E752FE4F808190E0CF910C9463
:103270006817C85AC73158F4EC2FF0E0EE0FFF1F63
:10328000E555FE4F80819181CF910C947E17CF91AF
:103290000895882309F44BC0823871F40E944217C4
:1032A00081FF45C089E30E9488210E94F92189E3BA
:1032B0000E948F210C94F921833859F40E944217FF
:1032C00080FF35C083E50E9488210E94F92183E5B3
:1032D000EFCF843859F40E94421782FF28C087E458
:1032E0000E9488210E94F92187E4E2CF9CEF980F89
:1032F000913AF0F290E2980F983050F4877091E094
:1033000001C0990F8A95EAF7892F0E94B621D2CF82
:103310009BE5980F933020F490E080E00C946817C0
:10332000885A873120F490E080E00C947E1708954D
:103330001F93CF93DF93182FEB010E94BF182097A4
:1033400031F4812FDF91CF911F910C9449198FE9AE
:103350009FE00197F1F700C000002197F0CF70E0E7
:1033600060E0893311F460E570E00C9498198823CB
:1033700021F00E94B0210C94F9210895882321F0B6
:103380000E94B6210C94F9210895BF92CF92DF924A
:10339000EF92FF920F931F93CF93DF936C01D62F81
:1033A000C72FFC011281058102950F700E94A62192
:1033B000E82E8823A1F0E12E112389F08C2F807F45
:1033C000803429F080E28D0FE12C883040F082E0DB
:1033D0000E9444220E94A62191E0E82EE926BC2EFC
:1033E000B2949FE0B922EB2DF0E0EC59F24D0C9431
:1033F000472C0C2F0F70C07F11F00295007F112316
:10340000A9F0002359F080E28D0F883010F0D1111F
:1034100009C0802F0E94B0210E94F9218D2F0E94A7
:10342000BF1814C0802F0E94C021F6CF8D2F0E949C
:103430004919002359F080E28D0F883010F0D11126
:103440002CC0802F0E94B6210E94F9212B2D2850DC
:10345000330B2430310520F40E9442170E945F058F
:10346000EE2009F493C10E94A22180FD8FC1F601D4
:1034700012820E949C210E942720C6010E94E71B05
:103480000E949C21DF91CF911F910F91FF90EF90AF
:10349000DF90CF90BF900C944820802F0E94C621CF
:1034A000D3CFFC2FFF70FF2EC07FC03219F0F294F3
:1034B00080EFF822DD2369F0D13049F1112391F139
:1034C000002351F1F601858180FFA8CF8F7085839D
:1034D00023C0112381F0011106C00E94E0218F2931
:1034E0000E94B719B3CF0130C1F70E94E0218F29A4
:1034F0000E94E621ABCF011106C00E94EF218F2D63
:103500000E94BE19A3CF013009F4A0CFF6CF11233A
:1035100029F0063008F09ACF8F2DE2CF053008F061
:1035200095CFEDCF002359F3D93349F4FFEF27EEC0
:1035300033E0F15020403040E1F700C000008D2F13
:103540000E94491983CF8C2F86958695837069F0E8
:10355000813009F07BCF8D2F9C2F9370111102C009
:1035600090E080E00E947E1771CF8D2F9C2F93708A
:10357000111102C090E080E00E94681767CF8C2F85
:10358000837009F041C0111161CF4D2F42954695CE
:103590004770440F440F0D2F0F7010E030E020E013
:1035A000042E04C0000F111F221F331F0A94D2F7EC
:1035B00060E070E0CB01D4FF0FC06FE070E080E00E
:1035C00090E004C0660F771F881F991F4A95D2F7B5
:1035D0006095709580959095C695C695C370602B43
:1035E000712B822B932BC23049F058F4C13019F063
:1035F0000E94DB1F2BCF0E94C91F28CF0E94ED1F06
:1036000025CF0E94C71F22CF8695112311F08C2F42
:103610008170882309F41ACF4D2F42954695477043
:10362000440F440F0D2F0F7010E030E020E0042E07
:1036300004C0000F111F221F331F0A94D2F760E04D
:1036400070E0CB01D4FF0FC06FE070E080E090E04D
:1036500004C0660F771F881F991F4A95D2F760959F
:10366000709580959095C695C695C370602B712B0B
:10367000822B932BC23049F058F4C13019F00E94CC
:103680009E20E4CE0E948C20E1CE0E94B020DECEAF
:103690000E940120DBCECF70112329F08C2F0E94D5
:1036A00027208D2F1DCF8D2F0E94BE198C2F0E9499
:1036B0004820CCCED23F89F160F4D03FC9F0D13F51
:1036C00029F1112309F442C00111A8CE8C2F8F716A
:1036D00021C0D33F39F1D43FA1F7112369F1CF7154
:1036E0008C2F0E94272063E08C2F0E942F22AECEC9
:1036F000112341F0053008F0A9CE8C2F8F710E9464
:103700006B20A4CE063008F0A1CEF7CF8C2F8F719E
:10371000112369F20E94272099CE8C2F8F711123DB
:10372000C9F3C5CF112329F08C2F8F710E9412206D
:103730008DCE0E940D208ACE81E00E94442202306C
:1037400008F484CE82E00E94442280CE002359F007
:10375000D93309F0F4CE8FEF97EEE3E0815090403B
:10376000E040E1F7EACE8C2F8F71A1CF4C2F4F7044
:103770006D2FC6010E9467050E943F1F67CE4C2F28
:103780004F706D2FC6010E946A0560CEDF91CF9108
:103790001F910F91FF90EF90DF90CF90BF90089511
:1037A0000F931F93CF93DF93EC01688179818A8116
:1037B0000E9464218C010E94C2200E94C61FB80191
:1037C000CE01DF91CF911F910F910C94C519CF932A
:1037D000DF93EC018B819C81892B29F08881998171
:1037E00089238F3F59F4DF91CF910895CE010E9434
:1037F000D01BCE01DF91CF910C94A204CE010E9488
:10380000C9048111F3CF0E94A621882361F38A8124
:10381000882349F382E0DF91CF910C9444228823DE
:1038200021F00E94C0210C94F9210895882321F0F1
:103830000E94C6210C94F921089590E080E00E9436
:10384000681790E080E00E947E170E94CD210E94C0
:10385000DD210C94F9210E9496210C941D1C0E94DC
:10386000BD210C942B1CE92FE295EF70E250EE3055
:1038700070F4F0E0EC58F24D0C94472C803F19F0B6
:1038800020F4883E20F481E00895843FE1F380E055
:103890000895883EC0F3813FD1F7F5CF93FB882789
:1038A00080F908950E945A210C94331CCF93DF9322
:1038B00000D000D00F92CDB7DEB70F900F900F90D1
:1038C0000F900F90DF91CF910895CF93DF9300D0A9
:1038D00000D000D0CDB7DEB726960FB6F894DEBF85
:1038E0000FBECDBFDF91CF9108951F93CF93DF938C
:1038F000C091970216E0809198028C1304C0DF916A
:10390000CF911F910895D0E01C9FF0011D9FF00DF5
:103910001124E756FD4F408151816281738184817A
:1039200095810E94651C2196C770E5CF4091C90220
:103930005091CA026091CB027091CC028091CD026D
:103940009091CE020C94651C1F93CF93DF938091CE
:10395000CE02807FA9F48091CB02882389F08091E8
:103960009702C09198026091C9027091CA02A09119
:10397000CC02B091CD02D62FD72316E0C81304C0D5
:10398000DF91CF911F91089590E0109711F0DF3FE4
:1039900019F401968770F2CF189F9001199F300D8E
:1039A0001124F901E756FD4F41814713F2CF4081C1
:1039B0004613EFCF42814111ECCF438154814A1B22
:1039C0005B0B483C510528F78091CE028F708061D7
:1039D0008093CE02F901E256FD4F80818F708061A5
:1039E000808389EC92E00E94E71BDF91CF911F91C9
:1039F0000C94751CAF92BF92CF92DF92EF92FF9220
:103A00000F931F93CF93DF93CDB7DEB761970FB6B8
:103A1000F894DEBF0FBECDBF8C0185E0F801DE015A
:103A20001D9601900D928A95E1F7F8014081518130
:103A3000E28089ECC82E82E0D82E6091CC02709191
:103A4000CD026115710509F461C19091C9022091FF
:103A5000CA02892F82238F3F09F458C1A380B48002
:103A6000F090CB02F501E61BF70BFF2009F4FCC038
:103A70008091CE02382F307FE83CF10508F0B2C0CB
:103A8000311179C0FE2C251323C0941321C0E110FD
:103A90001FC08F7080618093CE020E94961CC60169
:103AA0000E94E71B8091CE02F80185838F2D6196DD
:103AB0000FB6F894DEBF0FBECDBFDF91CF911F913F
:103AC0000F91FF90EF90DF90CF90BF90AF9008954F
:103AD000AB2829F0842F85238F3F09F033C180E084
:103AE000F82FF170DF2E80FF3CC08091970220916B
:103AF000980236E0821315C04D875E878D859E85BE
:103B00000E945A21292F22952F702230F0F0243064
:103B100018F59F70F1F0F8019581907FD1F4D12CC8
:103B20001EC090E0389FF001399FF00D1124E75638
:103B3000FD4F6181651306C06081641303C062811B
:103B40006E110FC001968770D5CF9F7011F088233A
:103B500031F3805E883018F3C8010E94E71BFD2C0A
:103B6000A5CFEE2009F4A2CF8091CE028160809390
:103B7000CE02F12C9BCF251306C0941304C0F8018C
:103B8000EE2009F48DC04D875E878D859E850E944D
:103B9000521C882319F1EE2009F18091CE02803267
:103BA00070F02091C9023091CA0238872F8319869C
:103BB000BB86AA868C87CE0107960E94E71B86E00B
:103BC000F801A9ECB2E001900D928A95E1F70E940C
:103BD000A41C0E94961CFF24F39468CFC8010E9485
:103BE000E71BF9CF311113C07A2DB98AA88A6E2D3F
:103BF00089890E94561C89EC92E00E94E71B86E0AE
:103C0000F60111928A95E9F70E94961CB2CF25130E
:103C10000FC094130DC0E1100BC0F8018583C801DB
:103C20000E94E71B86E0F60111928A95E9F73ECFE4
:103C30004D875E878D859E850E94521C882371F278
:103C4000EE2061F28091CE02803208F4B8CF20914C
:103C5000C9023091CA023A8329831B82BD82AC8299
:103C60008E83CE010196A9CFE83CF10508F041C052
:103C7000FE2CEE2009F4B2CF25132AC0941328C0DD
:103C80008091CE0280FD1BC0982F907FC1F0F8017B
:103C90008583903F31F0982F907F905F8F70892BB4
:103CA0008583C8010E94E71B86E0F801A9ECB2E019
:103CB00001900D928A95E1F70E94961CF7CE86E05E
:103CC000F801A9ECB2E001900D928A95E1F7EECEF1
:103CD0004D875E878D859E850E94521C81116FCF16
:103CE0008091CE0281608093CE02C8010E94E71BC2
:103CF000DDCE7A2DB98AA88A6E2D89890E94561C3C
:103D000086E0F60111928A95E9F7D6CFEE2009F404
:103D100065CF4D875E878D859E850E94521CF82E4B
:103D2000882309F45BCF86E0F801A9ECB2E00190AA
:103D30000D928A95E1F789EC92E00E94BA180E94F0
:103D4000A41CBACF81E08E25CBCE1F93CF93DF93F7
:103D5000CDB7DEB72C970FB6F894DEBF0FBECDBF40
:103D60004F83588769877A878B879C87CE01079610
:103D70000E94FA1C882369F08A859B85892B39F07B
:103D80004F815885842F85238F3F09F071C016E03D
:103D90005FC086E0FE013796DE01119601900D921C
:103DA0008A95E1F78A859B85892B89F38F81988590
:103DB00089238F3F61F32091980230E0C901019679
:103DC00087709927409197024817190671F40E944D
:103DD0002F1C109298021092970286E0E9ECF2E014
:103DE000DF011D928A95E9F7D2CF96E0929FD0012C
:103DF000939FB00D1124A756BD4FFE01319601903F
:103E00000D929A95E1F7809398020E94751CBFCF9E
:103E1000819FC001112487569D4F0E94FA1C882360
:103E2000E9F0E09197021E9FF0011124E756FD4F43
:103E30004081518162817381848195810E94651CDA
:103E40008091970290E0019687709927809397025E
:103E500080919702909198028913DACF2C960FB631
:103E6000F894DEBF0FBECDBFDF91CF911F910895B3
:103E700069857A858B859C850E94651C88CFEF9229
:103E8000FF920F931F93CF93DF938C01892B81F0C7
:103E9000F12CEE24E394E8012196F8018491843713
:103EA00070F4843008F05FC08130B1F08230A1F14D
:103EB000DF91CF911F910F91FF90EF90089585377B
:103EC00009F44CC008F43DC09CE7980F903780F788
:103ED0008F770E94491949C00E5F1F4FFE018491E0
:103EE00090E2980F983060F48770FE2D01C0FF0FAC
:103EF0008A95EAF78F2F0E94D0210E94F92102C0F3
:103F00000E94BF188F2D815030F2EFE9FFE031970A
:103F1000F1F700C00000F7CF0E5F1F4FFE01849144
:103F200090E2980F983050F48770FE2D01C0FF0F7B
:103F30008A95EAF78F2F0E94D621DFCF0E94491978
:103F4000E1CF0E5F1F4FFE01C491C150D8F28FE93F
:103F50009FE00197F1F700C00000F7CF0E5F1F4F01
:103F6000FE01F490CFCF0E94BF188E01CBCF0895F1
:103F70000C94B71F0E94B81F60930503709306034B
:103F800080930703909308030C941D1C08950C94D0
:103F9000BA1F0F931F930091050310910603209100
:103FA000070330910803602B712B822B932B1F91F9
:103FB0000F910C94BA1F0F931F930091050310915A
:103FC00006032091070330910803602371238223A5
:103FD00093231F910F910C94BA1F0F931F9300917D
:103FE0000503109106032091070330910803602711
:103FF0007127822793271F910F910C94BA1F0C945D
:104000008D030E94FF1F609301037093020380934E
:104010000303909304030C941D1C60E070E0CB013B
:104020000C9401200F931F9341E050E060E070E09A
:104030008A019B0104C0000F111F221F331F8A95A4
:10404000D2F7C901B8011F910F910C9401200F9371
:104050001F9341E050E060E070E004C0440F551F42
:10406000661F771F8A95D2F7809101039091020312
:10407000A0910303B09104038A019B01082B192B23
:104080002A2B3B2BC901B8011F910F910C940120E1
:104090000F931F9341E050E060E070E004C0440FD4
:1040A000551F661F771F8A95D2F7CB01BA0160951D
:1040B00070958095909500910103109102032091D5
:1040C00003033091040360237123822393231F9100
:1040D0000F910C9401200F931F9341E050E060E09A
:1040E00070E004C0440F551F661F771F8A95D2F7F2
:1040F0008091010390910203A0910303B091040306
:104100008A019B01082719272A273B27C901B801E3
:104110001F910F910C9401200F931F9300910103A5
:10412000109102032091030330910403602B712B43
:10413000822B932B1F910F910C9401200F931F93AF
:1041400000910103109102032091030330910403B5
:1041500060237123822393231F910F910C940120DC
:104160000F931F9300910103109102032091030309
:104170003091040360277127822793271F910F91A5
:104180000C9401200895990F990F990F890F982F7A
:10419000977041E001C0440F9A95EAF7869586959D
:1041A000869595E0899FF0011124E153FD4F30E0A1
:1041B00020E070E05191DF011197CB01022E02C087
:1041C000969587950A94E2F78170819585278423D7
:1041D00085278C932F5F3F4F2530310559F7089580
:1041E000990F990F990F890F982F9770869586953B
:1041F000869525E0829FF0011124E153FD4F50E0A8
:1042000040E080E0219130E0092E02C036952795EC
:104210000A94E2F721703327042E01C0220F0A947A
:10422000EAF7822B4F5F5F4F4530510559F70895EC
:10423000BF92CF92DF92EF92FF920F931F93CF9393
:10424000DF938C01C0900103D0900203E090030340
:10425000F09004038091050390910603A091070359
:10426000B0910803C82AD92AEA2AFB2ACFE1D0E074
:10427000BC2ED701C6010C2E04C0B695A795979504
:1042800087950A94D2F780FD0EC0219788F7B12C4C
:104290008B2DDF91CF911F910F91FF90EF90DF90C9
:1042A000CF90BF900895B8018C2F0E948805019788
:1042B00061F3EECFCF93DF93EC010E941821BE0192
:1042C000DF91CF910C9488051F93CF93DF93EB017F
:1042D00090919602992331F0CB01DF91CF911F91FC
:1042E0000C945A21882379F0CB010E941821182FB1
:1042F000682FCE010E94C320BE01812FDF91CF9194
:104300001F910C948805CB010E94F020182FF4CF48
:10431000682F80912A0190912B010C94A323682F80
:1043200080912A0190912B010C94AE2380912A0157
:1043300090912B010C94B923809109038595859563
:1043400085950895809109038770089590910903D8
:10435000977081E009F480E0089580912D0308951D
:1043600090912D03892B80932D0308958095909132
:104370002D03982390932D03089510922D030895F3
:1043800090912C03892B80932C0308958095909114
:104390002C03982390932C03089510922C030895D6
:1043A00090912B03892B80932B03089580959091F6
:1043B0002B03982390932B03089510922B030895B9
:1043C00080910A03089508950C94E32190910A03C3
:1043D000981721F080930A030C94E42108958091AA
:1043E0000A03882329F010920A0380E00C94E42148
:1043F0000895E0912A01F0912B0180912D03808393
:10440000E0912A01F0912B01808190912C03892B5E
:104410008083E0912A01F0912B01808190912B0300
:10442000892B808390910A03992381F0E0912A01DE
:10443000F0912B018081892B808380912A019091BA
:104440002B010E940F2381110E94EF2180912A01EC
:1044500090912B010C944E1708950C942C2298E007
:10446000899F90011124622B609309030E942720E9
:10447000809109038595859585950C942D22109240
:10448000090380E00C942D229091090380958923E3
:1044900080930903282F277071F4282F082E000C11
:1044A000330B9217130639F08595859585950E94F3
:1044B00048200C943F22089580E008956FEF7FEF2D
:1044C00090E080E00C94192D90E080E00E94F52CA3
:1044D00021E08B3E9E4F09F020E0822F089582E07C
:1044E00090E00C94E72C83E090E00C94E72CCF93C1
:1044F00084E090E00E94E72CC82F81E290E00E94C7
:10450000E72C982F8C2FCF910895CF93C92F682F28
:1045100084E090E00E94FB2C6C2F81E290E0CF9130
:104520000C94FB2CAB01BC018FE090E00C940D2DA2
:10453000AB01BC0183E190E00C940D2D60E070E0D4
:10454000CB010C94982260E070E0CB010E94922293
:104550000C949E226BEE7EEF90E080E00E94192D7D
:1045600060E082E090E00E94FB2C60E083E090E05D
:104570000E94FB2C10920503109206031092070371
:104580001092080360E084E090E00E94FB2C60E061
:1045900081E290E00E94FB2C60E085E090E00E94C8
:1045A000FB2C60E086E090E00E94FB2C6FEF87E040
:1045B00090E00E94FB2C40E050E0BA0188E090E0DF
:1045C0000E940D2D60E08DE090E00E94FB2C40E009
:1045D00050E0BA0188E190E00E940D2D60E087E193
:1045E00090E00E94FB2C40E050E0BA018CE190E0AA
:1045F0000E940D2D60E080E290E00E94FB2C40E0E4
:1046000050E0BA0188E190E00E940D2D0C94A322A5
:104610000C94AA22682F8EE090E00C94FB2CFC01F5
:10462000329680913601882321F08091DB039EE150
:1046300087FF96E080E0915008F4089521912223AD
:10464000D1F38F5FF8CF662301F120913601222349
:10465000F1F02091DB0327FF1AC0462F46954695BF
:1046600046954E3190F4677021E030E002C0220F91
:10467000331F6A95E2F7840F911DFC01828190E05F
:104680002823392381E0232B69F480E00895FC017D
:10469000329608962191261721F0E817F907D1F7ED
:1046A000F4CF81E008959C01FC0132969FEF80E0F9
:1046B0004191461751F09F3F19F4411101C0982FC5
:1046C0008F5F8630A9F79F3F09F40895290F311DA8
:1046D00097FD3A95F90162830895FC013296089698
:1046E0002191261303C0DF0111971C92E817F907E7
:1046F000B9F70895E62FE695E695E695EE3168F46C
:10470000E80FF92FF11D677021E030E001C0220FA2
:104710006A95EAF78281822B82830895E62FE695D7
:10472000E695E695EE3170F4E80FF92FF11D67700C
:1047300021E030E001C0220F6A95EAF720958281DE
:1047400028232283089520913601222329F02091E5
:10475000DB0327FD0C947A230C945323209136011C
:10476000222329F02091DB0327FD0C948E230C9447
:104770006D23FC01329680913601882351F080919F
:10478000DB0387FF06C08EE1DF011D928A95E9F702
:10479000089586E0F9CF089508950C94CC23809174
:1047A000E103843049F10E94CD2380E00E945F053F
:1047B00010922F0388E190E020E40FB6F894A895BA
:1047C000809360000FBE2093600083B7817F846078
:1047D00083BF83B7816083BF7894889583B78E7FCA
:1047E00083BF0FB6F894A89580916000886180938C
:1047F0006000109260000FBE08950895CF930E944C
:10480000CB230E948A080E94FD23C0E08C2F0E94C7
:104810007407811105C0CF5FCA30C1F7CF910895E9
:1048200081E0FCCF08950C9412240E942F1C0E945A
:1048300042170E945F050C9413241F921FB61F920B
:1048400011248F939F93AF93BF9380912F03811176
:1048500013C08091D3039091D403A091D503B0915C
:10486000D6034196A11DB11D8093D3039093D40329
:10487000A093D503B093D603BF91AF919F918F9131
:104880001F901FBE1F90189582E084BD93E095BDD8
:104890009AEF97BD80936E0008952FB7F89480919A
:1048A000D3039091D403A091D503B091D6032FBF29
:1048B00008952FB7F8946091D3037091D403809139
:1048C000D5039091D6032FBF08959C014FB7F8945C
:1048D0008091D3039091D403A091D503B091D603D6
:1048E0004FBF821B930B089578941F921FB61F929F
:1048F00011248F939F93AF93BF938091D303909193
:10490000D403A091D503B091D6030196A11DB11D8A
:104910008093D3039093D403A093D503B093D6038D
:10492000BF91AF919F918F911F901FBE1F901895BF
:104930001092D7031092D8031092D9031092DA0381
:104940000895CF92DF92EF92FF926B017C010E945B
:104950005F0981110EC00E945924C61AD70AE80ABD
:10496000F90AC092D703D092D803E092D903F0920B
:10497000DA03FF90EF90DF90CF9008950F931F938D
:104980000E945F09882321F01F910F910C945924F4
:104990000E9459240091D7031091D8032091D90384
:1049A0003091DA03600F711F821F931F1F910F91C7
:1049B00008950E945F0981110C944D240E94BE2429
:1049C000CB01089581E08093E00080E28093D800DD
:1049D0001092C9008FE19EE40197F1F700C000003A
:1049E00087E090EBDC018093EA039093EB03A093C4
:1049F000EC03B093ED0388E19CE00FB6F894A89522
:104A0000809360000FBE90936000FFCF9093DD0114
:104A10008093DC0108950C945E220E948A088FE343
:104A20009CE90197F1F700C000000E948A0880E02D
:104A30000E94740780FF04C00E940B250C94E2249E
:104A400008950E946422811102C00E9408230E94DE
:104A50006F2280932E030E9477229093DC03809331
:104A6000DB030E947322682F70E090E080E00E94D8
:104A7000C71F60910103709102038091030390911D
:104A800004030C94FF1F8091500308950895CF9361
:104A9000DF9300D00F92CDB7DEB79091E103943051
:104AA00019F589837B836A8382E08093E9008FEF25
:104AB0009091E800815095FD06C095ED9A95F1F72B
:104AC00000008111F5CF8091E80085FF0DC050E016
:104AD00040E063E070E0CE0101960E945227809191
:104AE000E8008E778093E8000F900F900F90DF9191
:104AF000CF910895BC0184E00C944725BC0183E06C
:104B00000C944725CF93DF93EC01809136018823E5
:104B1000B1F18091DB0387FF32C060E282E08093D5
:104B2000E9008FEF9091E800815095FD06C095ED6A
:104B30009A95F1F700008111F5CF8091E80085FF8B
:104B40001BC08091360170E050E040E0811104C04C
:104B500050E040E068E070E0CE010E945227809172
:104B6000E8008E778093E80080E2FE01A0E3B3E0E6
:104B700001900D928A95E1F7DF91CF91089568E059
:104B800081E0CDCF8091E003811109C00E94E2282D
:104B90000E943F298091E20084608093E2000895A2
:104BA0001092E003089508950895089542E061EC9D
:104BB00081E00E945E2842E261EC82E00C945E2873
:104BC0008091E303833009F45FC030F48130C1F198
:104BD000823009F49BC008958A3009F487C08B3075
:104BE00009F46DC0893009F04EC08091E203813232
:104BF00009F049C08091E6039091E703029708F01D
:104C000042C08091E800877F8093E8008091E800AF
:104C100082FF35C09091F3008091F200029729F451
:104C20008091F1008B7F813021F48091F10080939D
:104C300050038091E8008B778093E8000C949228D1
:104C40008091E203813AF9F48091E800877F8093B4
:104C5000E8008091E6039091E703892B61F460E21C
:104C600080E393E070E00E94A1278091E8008B77B9
:104C70008093E800089560E090E080E0F3CF8091B9
:104C8000E1038111C3CF08958091E203813AD9F7FE
:104C90008091E6039091E703892BA9F78091E800C2
:104CA000877F8093E8008091E80080FFFCCF8091AF
:104CB00036018093F1008091E8008E77BDCF80911E
:104CC000E203813201F78091E6039091E703892B9B
:104CD000D1F68091E800877F8093E8000E949228B7
:104CE0008091E403809336010C942F1C8091E203A1
:104CF000813249F68091E800877F8093E8000E9426
:104D000092288091E5038093510308958091E203F6
:104D1000813A09F0B8CF8091E800877F8093E8005E
:104D20008091E80080FFFCCF80915103C2CF84B70F
:104D3000877F84BF0FB6F894A89580916000886142
:104D400080936000109260000FBE80E890E00FB684
:104D5000F89480936100909361000FBE0E94C51784
:104D60000E94E2280E943F298091E20084608093A3
:104D7000E20078940E94C82B0E94D3178CE291E045
:104D80000E943D178091E1038530A9F00E94E11750
:104D90000E94D1170E94D217F5CF0E94CF23809195
:104DA000DF03882341F00E94FE23882321F00E9424
:104DB0003C270E942F1C8091E103853071F30E94F3
:104DC0001524E4CF0C94E426292F33272330310512
:104DD00019F168F42130310509F444C0223031055D
:104DE00009F445C090E080E030E020E025C02132A9
:104DF000310549F122323105A9F780E490E024E33E
:104E000036E061157105C1F08DE690E027EC35E0E4
:104E10006130710589F0E6CF99278130910581F0E5
:104E2000009729F00297F1F6E6E4F5E002C0E6E724
:104E3000F5E0849190E09F01FA0131832083089589
:104E4000E8E5F5E0F6CF89E090E02CE835E0611583
:104E5000710591F389E090E025EA35E06130710554
:104E600059F3C0CF82E190E025EB35E0E5CF8BE34D
:104E700090E02AE735E0E0CF80E189BD82E189BD9D
:104E800009B400FEFDCF8091D8008F7D8093D800BB
:104E90008091E00082608093E0008091E00081FDDD
:104EA000FCCF0895AF92BF92CF92DF92FF920F9303
:104EB0001F93CF93DF936C01EB018A010E94B1280D
:104EC000F82E811123C00115110539F0F8018081F8
:104ED0009181C81BD90BC80ED91EB12CA12C2097CB
:104EE000A9F08091E80085FD22C08091E8008E77CE
:104EF0008093E80001151105A1F0F80180819181EE
:104F0000A80EB91EB182A08285E0F82E8F2DDF9108
:104F1000CF911F910F91FF90DF90CF90BF90AF90F6
:104F200008950E94B1288823D1F2F82EEFCFF60120
:104F300081916F018093F1002197FFEFAF1ABF0AB3
:104F4000CECFFC018091E8039091E9038617970783
:104F5000A0F06115710529F49091E8009E77909377
:104F6000E80090E06115710551F4911108C080913D
:104F7000E80082FF34C080E00895BC01F2CF809148
:104F8000E1038823C1F18530C1F18091E80083FD00
:104F900030C08091E80082FDEACF8091E80080FF78
:104FA000E1CF8091F3002091F200382F6115710557
:104FB00019F02830310558F091E02830310509F01A
:104FC00090E02091E8002E772093E800CBCF8191EC
:104FD0008093F100615071092F5F3F4FE7CF8091BF
:104FE000E103882341F0853041F08091E80083FFA0
:104FF000BECF81E0089582E0089583E00895FC012A
:105000008091E8039091E90386179707A0F0611556
:10501000710529F48091E8008E778093E80090E094
:105020006115710551F4911108C08091E80082FF6B
:1050300035C080E00895BC01F2CF8091E103882360
:10504000C9F18530C9F18091E80083FD31C08091BC
:10505000E80082FDEACF8091E80080FFE1CF8091F7
:10506000F3002091F200382F6115710519F02830F6
:10507000310558F091E02830310509F090E0809139
:10508000E8008E778093E800CBCF84918093F10085
:105090003196615071092F5F3F4FE6CF8091E10358
:1050A000882341F0853041F08091E80083FFBDCF37
:1050B00081E0089582E0089583E00895982F973065
:1050C00028F08F708093E90081E008959093E900C3
:1050D000242F762F50E0981731F07091EC0020913A
:1050E000ED005091F00021FD02C09F5FE8CF3091AC
:1050F000EB003E7F3093EB003091ED003D7F30932D
:10510000ED003091EB0031603093EB007093EC00D8
:105110002093ED005093F0002091EE0027FDE5CFA5
:1051200080E008958091E20387FF13C08091E8003A
:1051300082FF06C08091E8008B778093E80004C06E
:105140008091E1038111F2CF08958091E1038823DA
:10515000D9F38091E80080FFF8CF8091E8008E7746
:10516000ECCF2091E4003091E50095E6A901209173
:10517000EC00822F817020FF06C08091E80080FF44
:1051800006C080E008952091E80022FD1AC08091B9
:10519000E103882389F0853089F08091EB0085FD5B
:1051A0000FC02091E4003091E50042175307F9F257
:1051B0009150E1F684E0089582E0089583E0089537
:1051C00081E008950E9450290E945829E0EEF0E005
:1051D000808181608083E8EDF0E080818F7780833B
:1051E00019BCA7EDB0E08C918E7F8C9380818F7E6F
:1051F00080831092E00308950F931F93CF93DF9362
:105200000E9450290E945829C8EDD0E088818F77EC
:10521000888388818068888388818F7D888319BC92
:105220001092E1031092DD031092DF031092DE036F
:1052300000EE10E0F80180818B7F8083888181609F
:10524000888342E060E080E00E945E28E1EEF0E0CA
:1052500080818E7F8083E2EEF0E0808181608083B8
:10526000808188608083F80180818E7F808388813F
:1052700080618883DF91CF911F910F910895E8EDB0
:10528000F0E080818F7E8083E7EDF0E080818160B7
:10529000808384E082BF81E08093E0030C94FC284B
:1052A000E8EDF0E080818E7F80831092E200089527
:1052B0001092DA001092E10008951F920F920FB63B
:1052C0000F9211242F933F934F935F936F937F938C
:1052D0008F939F93AF93BF93EF93FF938091E100E0
:1052E00082FF0BC08091E20082FF07C08091E10045
:1052F0008B7F8093E1000E94C72B8091DA0080FFB2
:1053000019C08091D80080FF15C08091DA008E7F8F
:105310008093DA008091D90080FF96C080E189BD3A
:1053200082E189BD09B400FEFDCF81E08093E103F5
:105330000E94C2258091E10080FF19C08091E200A7
:1053400080FF15C08091E2008E7F8093E200809103
:10535000E20080618093E2008091D80080628093B7
:10536000D80019BC85E08093E1030E94D425809188
:10537000E10084FF2BC08091E20084FF27C080E120
:1053800089BD82E189BD89B5982F917080FFFBCFDF
:105390008091D8008F7D8093D8008091E1008F7E2E
:1053A0008093E1008091E2008F7E8093E200809103
:1053B000E20081608093E2008091DD03882309F49C
:1053C00049C084E08093E1030E94D5258091E100EB
:1053D00083FF29C08091E20083FF25C08091E10016
:1053E000877F8093E10082E08093E1031092DD03E8
:1053F0008091E1008E7F8093E1008091E2008E7FBA
:105400008093E2008091E20080618093E20042E0BC
:1054100060E080E00E945E288091F00088608093C8
:10542000F0000E94D325FF91EF91BF91AF919F9122
:105430008F917F916F915F914F913F912F910F903D
:105440000FBE0F901F90189519BC1092E1030E9497
:10545000D02570CF8091E30087FD93E09093E10326
:10546000B3CF1F920F920FB60F9211242F933F9339
:105470004F935F936F937F938F939F93AF93BF935C
:10548000CF93DF93EF93FF93D091E900DF7080918A
:10549000EC00C82FC17080FDC0E81092E900809137
:1054A000F000877F8093F00078940E94752A109214
:1054B000E9008091F00088608093F000CD2BCF70E0
:1054C000C093E900FF91EF91DF91CF91BF91AF9130
:1054D0009F918F917F916F915F914F913F912F910C
:1054E0000F900FBE0F901F9018951F93CF93DF93CF
:1054F000CDB7DEB7AA970FB6F894DEBF0FBECDBF0B
:1055000082EE93E02091F100FC012193CF01F3E0C2
:105510008A3E9F07B9F70E94E0258091E80083FF4B
:105520001EC18091E2039091E3039A3008F017C105
:10553000E92FF0E0EE57F24D0C94472C803899F0AB
:10554000823809F00CC18091E6038F70873008F033
:1055500006C18093E9008091EB0085FB882780F9E4
:105560001092E90006C08091DE039091DF03911153
:1055700082609091E800977F9093E8008093F1001B
:105580001092F1008091E8008E77E5C0882309F43D
:10559000D3C0823009F0E3C08091E4038111D6C00A
:1055A0008091E6038F702FEF280F263008F0D7C0C8
:1055B0008093E9002091EB0020FFC8C0933031F4C4
:1055C0008091EB0080628093EB00C0C09091EB0073
:1055D00090619093EB0021E030E001C0220F8A95AA
:1055E000EAF72093EA001092EA008091EB008860CD
:1055F000EACF8111B4C01091E4031F778091E300DA
:105600008078812B8093E3008091E800877F8093EE
:10561000E8000E9492288091E80080FFFCCF8091F2
:10562000E30080688093E30082E0111183E08093BF
:10563000E10395C08058823008F091C08091E40366
:105640009091E5038C3D23E09207A1F583E08A83E6
:105650008AE289834FB7F894DE01139620E03EE09A
:1056600051E2E32FF0E050935700E49120FF03C094
:10567000E295EF703F5FEF708E2F90E0EA30C0F060
:10568000C7968D939D932F5F243159F74FBF80911B
:10569000E800877F8093E8006AE270E0CE0101961F
:1056A0000E94A1278091E8008B778093E80057C083
:1056B000C096E7CF6091E6037091E703AE014F5FBC
:1056C0005F4F0E94E226BC01892B09F448C09091EB
:1056D000E800977F9093E80089819A810E94FF27D4
:1056E000E1CF8038E1F58091E800877F8093E80082
:1056F0008091DD038093F10045CF811130C09091FE
:10570000E403923060F58091E800877F8093E800A1
:105710009093DD030E9492288091DD03882311F08D
:1057200084E005C08091E30087FDFACF81E080939B
:10573000E1030E94D62513C08091E403813079F4FF
:1057400081E0933009F080E08093DF031092E9005C
:105750008091E800877F8093E8000E9492288091E2
:10576000E80083FF0AC08091E800877F8093E8000B
:105770008091EB0080628093EB00AA960FB6F894BC
:10578000DEBF0FBECDBFDF91CF911F910895089569
:10579000CF938091E1038823A1F0C091E900CF70FD
:1057A0009091EC00892F817090FD80E8C82B1092B9
:1057B000E9008091E80083FD0E94752ACF70C093B4
:1057C000E900CF910895991B79E004C0991F9617BD
:1057D00008F0961B881F7A95C9F78095089587FB76
:1057E000082E062687FD819567FD61950E94E32BB3
:1057F0000EF4919507FC81950895AA1BBB1B51E1FE
:1058000007C0AA1FBB1FA617B70710F0A61BB70B30
:10581000881F991F5A95A9F780959095BC01CD01D5
:10582000089597FB072E16F4009407D077FD09D052
:105830000E94FD2B07FC05D03EF4909581959F4F6B
:105840000895709561957F4F0895A1E21A2EAA1BC5
:10585000BB1BFD010DC0AA1FBB1FEE1FFF1FA21720
:10586000B307E407F50720F0A21BB30BE40BF50B1D
:10587000661F771F881F991F1A9469F760957095A6
:10588000809590959B01AC01BD01CF010895EE0F6D
:10589000FF1F0590F491E02D09940E94552C3323AD
:1058A00012F48A1B9B0B0C94662CA29FB001B39F31
:1058B000C001A39F700D811D1124911DB29F700D19
:1058C000811D1124911D08950E94552CB7FF089544
:1058D000821B930B08950E94552CA59F900DB49F99
:1058E000900DA49F800D911D11240895B7FF0C9475
:1058F0006B2C0E946B2C821B930B08958F929F92AE
:10590000AF92BF92CF92DF92EF92FF92CF93DF934D
:10591000EC01688179818A819B816115710581051E
:10592000910521F464E279ED8BE597E02DE133EF09
:1059300041E050E00E942F2D49015A019B01AC012A
:10594000A7EAB1E40E946B2C6B017C01ACEEB4EFD2
:10595000A50194010E94792CDC01CB018C0D9D1DC9
:10596000AE1DBF1DB7FF03C00197A109B0488883D2
:105970009983AA83BB839F77DF91CF91FF90EF90AC
:10598000DF90CF90BF90AF909F908F9008950E942E
:105990007E2C089580E091E00E947E2C0895B0E076
:1059A000A0E08093000190930101A0930201B093C5
:1059B00003010895FC014150504030F0019006165B
:1059C000D1F73197CF010895882799270895F9993C
:1059D000FECF92BD81BDF89A992780B50895A6E1C2
:1059E000B0E044E050E00C94212DA8E1B0E042E0AA
:1059F00050E00C94212D262FF999FECF92BD81BD48
:105A0000F89A019700B4021639F01FBA20BD0FB6FC
:105A1000F894FA9AF99A0FBE08950396272F0E94D8
:105A2000FC2C0E94FB2C252F0E94FC2C242F0C9474
:105A3000FC2C0196272F0E94FC2C0C94FB2CDC01E3
:105A4000CB01FC01F999FECF06C0F2BDE1BDF89A89
:105A5000319600B40D9241505040B8F70895052E8C
:105A600097FB1EF400940E94462D57FD07D00E941C
:105A7000252C07FC03D04EF40C94462D50954095F0
:105A8000309521953F4F4F4F5F4F089590958095EA
:105A9000709561957F4F8F4F9F4F0895F894FFCF7A
:105AA000BB11C211C911CE11D311D811DD11E211F0
:105AB000E711EC11F111F611FA11FF1102120512A2
:105AC00008120B120D121012F919F919511A511A64
:105AD000A31A261A261A261ABF1A4B1B5A1B5A1B20
