:100000000C94EC040C9433050C9433050C943305D8
:100010000C9433050C9433050C9433050C94330580
:100020000C9433050C9433050C9432330C94063441
:100030000C943B2D0C9433050C9433050C94330530
:100040000C9433050C9433050C9433050C94330550
:100050000C9433050C94922D0C9433050C943305B9
:100060000C9433050C9433050C9433050C94330530
:100070000C9433050C9433050C9433050C94330520
:100080000C9433050C9433050C9433050C94330510
:100090000C94FD1F0C9433050C9433050C9433051C
:1000A0000C9433050C9433050C94330501000100C6
:1000B00001000100010001000100000001512900C0
:1000C00014001A00080015001700000002512B0050
:1000D00004001600070009000A0000000100E1000A
:1000E0001D001B0006001900050000000100E000D3
:1000F000E200E30001512C4100000000010001007A
:100100000100010001007300010001001C00180043
:100110000C00120013004C002A0001000B000D001F
:100120000E000F0034000000280001000000110044
:10013000100036003700E50052000000000000000B
:100140002A42E6000251500051004F000100005CBD
:100150000100010001000100010000000100350064
:100160001E001F0020002100220000000100C25CD0
:10017000C55CC75CC95CA9002F0000000100C35C1E
:10018000C65CC85CCA5CAA002F0200000100010026
:100190000100010001000100000000000100010059
:1001A0000100010001000100010001002300240002
:1001B0002500260027002D002E0001003000210020
:1001C0002200230033000000010001000000300283
:1001D0001E001F002000010052000000000000006F
:1001E0004C0027000100500051004F0001000100A9
:1001F00001000100010001000100000001003502C2
:100200001E021F0220022102220200000100010042
:100210000100010049004B004A00000001000100FC
:10022000010001004C004E004D00000001000100E3
:100230000100010001004C0000000000010001006D
:10024000010001000100010001000100230224025D
:100250002502260227022D022E02010001000100C4
:100260000100010033020000010001000000010054
:100270000100010001000100520000000000000028
:10028000010001000100500051004F000100010079
:1002900001000100010001000100000001512900DE
:1002A00014001A00080015001700000002512B006E
:1002B00004001600070009000A0000000100E10028
:1002C0001D001B0006001900050000000100E000F1
:1002D000E200E30001512C41000000000100010098
:1002E0000100010001007300010001001C00180062
:1002F0000C00120013004C002A0001000B000D003E
:100300000E000F0034000000280001000000110062
:10031000100036003700E500520000000000000029
:100320002A42E6000251500051004F000000000038
:10033000000000002A2B2800000000000000000040
:100340000000000000000029000000002C1E3420E6
:10035000212224342627252E362D3738271E1F200C
:100360002122232425263333362E37381F04050651
:100370000708090A0B0C0D0E0F1011121314151695
:100380001718191A1B1C1D2F3130232D3504050693
:100390000708090A0B0C0D0E0F1011121314151675
:1003A0001718191A1B1C1D2F3130354C0000000086
:1003B000000000000000000000000000000000003D
:1003C000000000000000000000000000000000002D
:1003D0007E0F00D4FFFFFFC7000000781E0F05004E
:1003E000047F3F1F643214643214783C1E1E140ACA
:1003F000052223252628292A2C2D2F303233353665
:10040000383A3B3D3E4042434547494A4C4E5051A5
:10041000535557595A5C5E6062646668696B6D6FCC
:1004200071737577797B7D7F81838587898A8C8ECF
:1004300090929496989A9C9E9FA1A3A5A7A8AAACD7
:10044000AEAFB1B3B4B6B8B9BBBCBEBFC1C2C3C511
:10045000C6C7C9CACBCCCDCED0D1D2D2D3D4D5D6B3
:10046000D7D7D8D9D9DADADBDBDBDCDCDCDCDCDDE6
:10047000DDDDDDDCDCDCDCDCDBDBDBDADAD9D9D8CA
:10048000D7D7D6D5D4D3D2D2D1D0CECDCCCBCAC962
:10049000C7C6C5C3C2C1BFBEBCBBB9B8B6B4B3B191
:1004A000AFAEACAAA8A7A5A3A19F9E9C9A9896942C
:1004B00092908E8C8A89878583817F7D7B79777501
:1004C00073716F6D6B6968666462605E5C5A5957E0
:1004D000555351504E4C4A4947454342403E3D3B9F
:1004E0003A3836353332302F2D2C2A292826252329
:1004F00022FFAA7F55400001010101010101010114
:1005000002020202020202020203030303030303C4
:100510000304040404040404050505050506060691
:100520000606070707070708080808090909090A4E
:100530000A0A0B0B0B0C0C0C0D0D0D0E0E0E0F0FF3
:100540000F10101111111212131314141515161681
:100550001717181819191A1A1B1B1C1D1D1E1E1FF0
:100560002020212222232424252626272829292A3F
:100570002B2C2D2D2E2F3031323233343536373867
:10058000393A3B3C3D3E3F40414243444546474863
:10059000494A4C4D4E4F50515354555658595A5B39
:1005A0005D5E5F616264656668696B6C6D6F7072D9
:1005B000737577787A7B7D7E8082838587888A8C45
:1005C0008E8F91939596989A9C9EA0A2A3A5A7A979
:1005D000ABADAFB1B3B5B7BABCBEC0C2C4C6C9CB70
:1005E000CDCFD1D4D6D8DBDDDFE2E4E7E9EBEEF026
:1005F000F3F5F8FAFDFFFD377A585A000004E6D605
:10060000B4460200210116000000742FE5A3E007A4
:10061000DC02145D003D8889C65436C3174FE4E6FA
:1006200021E04F213B49E126C7E663B1176A9846AE
:10063000C3AF9E71F619F315EC0B5CF0B0B910FE68
:1006400097FD38E2BD40991E527A9E35EE78F9E961
:100650009DC06E055C54B2971B8A4989D26151CB0B
:1006600096677368F63B8BD545236F383A204C4725
:100670005BF7A952735DD0338433BB1F6154DE7FB7
:100680004B106C57151743DDD779EE01615376CFC8
:100690000B4DB5C2F380EDEEC46B14D2F6073D38B6
:1006A000F2E010A921EE80B68BB8FE88BCE531BE21
:1006B00021AD0F2E1D5B5953A8DC72F1B00B15D77D
:1006C00082E9665C721DA8A64BD69E54D73E27537E
:1006D0000615D6E6E8C9E09B9C0134E64024B3B891
:1006E00050D26D7A44D3CF396822219662D7C78819
:1006F000A9C169E89AC93468F03234AF234391C084
:100700002D4343363B9AFA9689506D871460FD9CC1
:10071000AD537451B6C8F6577DB9989BB4E1FD99B5
:1007200048D0AE7F81B7F36B2D2C99F20DC3743591
:10073000F4BB11052119E262C8B35521B4A77E7735
:100740007E894D5E604FBC50A9ABB55CD00BBEAE90
:10075000A09755A752D7219F3BEB1B3972F7B721C2
:10076000EAB2812200EE668BD6BF75145F6D4CBA7B
:10077000F4CD6E260BB534B8521C3A5C9FA27A9B1E
:10078000404BFD37E60E4C4E9DD4ACDF297CE89201
:10079000DC6E02C3CC20C3DADF22F9C871B743454F
:1007A0001CAFBD8EECE3D37F58ACA417C0775BECD5
:1007B0008FE5FEFDDD3A085F9890E1A932A7C87584
:1007C0001516AE868B420BA62A0B64017D3927379E
:1007D000CF120B95B824045B097B74D104E307A303
:1007E0000E459C99E337670A23E6C77743138CC10C
:1007F0006C4ADF956F3F28D33DD4B5397FCB37AAFC
:10080000CA45D7D77FF9E42E79EEC04CC9F07EF601
:10081000180FEB97BD28ADBA395E611C893A1ADB17
:10082000F848E34EBA90ABAC0000B17ADBBD9CA8AF
:10083000CDA90001B004DD0F000011477DF3B1C464
:1008400067FB020000000004595A1C03760069008F
:1008500061006C003A00660036003400630032002C
:1008600062003300630000001003530050005F007B
:100870004D0069006E00690000001C03560069000D
:100880006B007400750073005F0044006500730026
:10089000690067006E0000000403090409025B00A0
:1008A000030100A0FA09040000010301010009216D
:1008B000110100012240000705810308000A090414
:1008C00001000203000000092111010001222200A1
:1008D0000705820320000107050303200001090426
:1008E00002000103000000092111010001226D0036
:1008F0000705840320000A120110010000000844CB
:10090000564D530100010203010660FF0961A10178
:100910000962150026FF00952075088102096315FC
:100920000026FF00952075089102C005010980A1ED
:1009300001850319012AB700150126B70095017535
:10094000108100C0050C0901A101850419012AA02C
:1009500002150126A002950175108100C00501094C
:1009600006A1018505050719E029E7150025019570
:1009700008750181020507190029EF150025019569
:10098000F075018102050819012905950575019188
:1009900002950175039101C005010906A101050732
:1009A00019E029E7150025019508750181029501D7
:1009B000750881010507190029FF150026FF00951C
:1009C000067508810005081901290595057501912D
:1009D00002950175039101C011241FBECFEFDAE02B
:1009E000DEBFCDBF04B603FE27C080910A049091FC
:1009F0000B04A0910C04B0910D048730904BA740DC
:100A0000B04BD1F410920A0410920B0410920C0413
:100A100010920D0414BE84B7877F84BF0FB6F8947C
:100A2000A8958091600088618093600010926000BA
:100A30000FBEE0E0F8E3099511E0A0E0B1E0E0E0EE
:100A4000FFE602C005900D92A63FB107D9F724E05A
:100A5000A6EFB1E001C01D92AA30B207E1F70E94F3
:100A6000EA2F0C943A370C9400005098589A5198F9
:100A7000599A0C943B05859A869A879A0895CF9245
:100A8000DF92EF92FF926B017C010E94F1078230AE
:100A900081F020F4813051F08D9809C0833069F0E5
:100AA0008337D1F78F9A8D9A8E9A0AC08D9A8E9835
:100AB00002C08E9A8D988F9803C08F9A8D988E98C9
:100AC000C701B601FF90EF90DF90CF900895CF93CC
:100AD000C091F901CC23E1F09C01245031092A3165
:100AE0003105B0F4FB012281222359F0C091F801B5
:100AF00021E0C227C093F801C11106C092600E9494
:100B0000F7058C2FCF9108950E94CD22C0E0F9CF38
:100B10008337910549F4FB0182818823B9F381E091
:100B2000C827C093F901F2CFC1E0EBCFCF93DF9399
:100B30009C013A9521153F4168F5EC01CC27D17015
:100B4000DC01AA27B270AC01442754709C01222713
:100B5000387094FF11C080E1CD2B09F480E0AB2BFD
:100B600009F08062452B09F08064232B09F080682E
:100B7000FB01DF91CF91099481E0CD2B09F480E056
:100B8000AB2B09F08260452B09F08460232B81F3A5
:100B90008860EECFDF91CF910895CF93DF93EC0182
:100BA000805E9109089720F06DE275E2209711F4BC
:100BB00065ED72E2CE010E9496058C2FDF91CF91F8
:100BC0000C94DD21CF93DF93EC010E946722CE01CC
:100BD000805E9109089720F064E375E2209711F494
:100BE0006CED72E2CE01DF91CF910C949605CF931C
:100BF000DF93EC010E94CD05CE01DF91CF910C94E3
:100C0000E20581E008950C94670508950C940506AB
:100C10001F93CF93DF9300D000D00F92CDB7DEB7F4
:100C200049835A836B833091B40289819A8131114F
:100C30001DC06623B9F02223A9F00E94362A182F7E
:100C4000682F89819A810E94E12969817A81812FA7
:100C50000F900F900F900F900F90DF91CF911F91F9
:100C60000C94FA1A0E940E2A182FEFCF0E94362AEF
:100C700069817A81EDCFFC01262F4081518162810B
:100C8000738184810C940806CF93DF93EC0160E0BC
:100C90000E943B06BE01DF91CF910C9406068F9215
:100CA0009F92AF92BF92CF92DF92EF92FF920F93FB
:100CB0001F936B017C0181E090E0A0E0B0E04C016B
:100CC0005D0104C0880C991CAA1CBB1C4A95D2F774
:100CD000B501A4014C015D0104C0880C991CAA1C3B
:100CE000BB1C2A95D2F7482959296A297B2904C0B7
:100CF000880F991FAA1FBB1F0A95D2F78A019B0173
:100D00000C211D212E213F21041715072607370727
:100D100089F48C299D29AE29BF29BC01CD011F91E1
:100D20000F91FF90EF90DF90CF90BF90AF909F908A
:100D30008F90089580959095A095B0958C219D21D8
:100D4000AE21BF21EACF0F93382F262F60911F03CA
:100D5000709120038091210390912203042F432F4F
:100D60000E944F060F910C941F290E942B2E0E9467
:100D7000822B811102C00E94262C0C94400A0C94F4
:100D8000430A08950E944D250E94C1062FEF84E377
:100D90009CE0215080409040E1F700C000000C949E
:100DA000002E0F931F93CF93DF938C01EB010E94D2
:100DB0004D16882389F1BE01C8010E9403068823CD
:100DC00059F1BE01C8010E947F1C882329F1BE0190
:100DD000C8010E94D11C8823F9F0BE01C8010E94FD
:100DE000F41D8823C9F0BE01C8010E94A6148823FF
:100DF00099F08A81882339F001158CE5180751F0A4
:100E00000E3D1C4579F0CE01DF91CF911F910F91DE
:100E10000C9401060E94C20680E0DF91CF911F91E1
:100E20000F9108950E94262CF7CFCF93DF93EC010A
:100E300061E00E943B06BE01DF91CF910C94D10688
:100E4000DF92EF92FF920F931F93CF93DF93E82FE0
:100E5000F0E0E45DFC4FD490282F2695269526954A
:100E600030E0F901E453FC4F0491877010E0082E44
:100E700002C0159507950A94E2F701701127F90150
:100E8000E454FC4FE490F12C082E02C0F594E79452
:100E90000A94E2F791E0E922FF24F901E455FC4FBE
:100EA000C491D0E002C0D595C7958A95E2F7C1708C
:100EB000DD270115110519F081EE0E94DD21E114F5
:100EC000F10419F086EE0E94DD218D2D0E94CD22C5
:100ED000EF2819F086EE0E946722012B19F081EEAF
:100EE0000E946722CD2B51F08CE2DF91CF911F91B0
:100EF0000F91FF90EF90DF900C94CD22DF91CF9176
:100F00001F910F91FF90EF90DF900895EF92FF9265
:100F10000F931F93CF93DF93EC01162F0AE0888184
:100F2000882309F454C0813009F04EC08981813092
:100F300099F47E0122E0E20EF11C8A810E94CD220A
:100F4000E7012196812F815050F3EFE9FFE03197BF
:100F5000F1F700C00000F7CF823041F47E0182E05B
:100F6000E80EF11C8A810E94DD21EACF833041F432
:100F70007E01E2E0EE0EF11C8A810E946722E0CF42
:100F8000843011F02196DDCF2A81229690E080E016
:100F9000AE014F5F5F4F2053330B2A30310548F0CD
:100FA000019778F2EFE9FFE03197F1F700C0000018
:100FB000F7CF089FB001099F700D1124C901860F5A
:100FC000971F2981EA01E4CF0E942007BACFDF9161
:100FD000CF911F910F91FF90EF90089560E00C94D6
:100FE0008607CF92DF92EF92FF926C01EE24FF24EE
:100FF00020E0C114D104E104F10419F0C701B601E5
:1010000020E1C72ED82EE92EFF24C114D104E1041B
:10101000F10419F0285FC701B6016B017C0154E0AF
:10102000F694E794D794C7945A95D1F7C114D10494
:10103000E104F10419F02C5FC701B6016B017C01DA
:1010400042E0F694E794D794C7944A95D1F7C11437
:10105000D104E104F10419F02E5FC701B6019695A1
:10106000879577956795672B682B692B09F02F5F1C
:10107000822FFF90EF90DF90CF90089508950C9409
:101080003E0881E008950C944108CF93C82F0E9438
:101090003F088C2FCF910C94430890E080E0089596
:1010A0000895FC01EE0FFF1FE452FC4F85919491CF
:1010B0000895CF93DF930E94FA1A0E946509EC010C
:1010C000811520E5920708F041C0811530E49307AF
:1010D00008F0B4C0803E910518F5803C910508F0F9
:1010E0009DC0883A910570F4853A910508F08EC04C
:1010F00081309105F9F00097E9F00497D8F4D0E039
:10110000C0E018C08F3B9105D0F7C85AD0E0CC0F93
:10111000DD1FC75BDE4F0990D881C02DD4640AC0A3
:101120008115904258F4C11581E0D80718F4C83EE3
:10113000D10528F7CE01DF91CF910895C11590E335
:10114000D90708F071C0CE019F706AC0811525E5EE
:10115000920758F5811534E5930708F09EC0811574
:1011600042E5940750F4C11581E5D80708F469C039
:10117000DC2FCC27C16FD06ADDCF982F969596953E
:101180009E0123703327C115D34508F077C0C1E015
:10119000D0E002C0CC0FDD1F2A95E2F720E2929F3B
:1011A000C0011124C82BD92B67C0C11589E5D80708
:1011B000A8F4C11598E5D90708F074C0C11526E553
:1011C000D20708F09CCF8C2F0E94FC09C82FD0E0DA
:1011D000DC2FCC27CC27DF71D062ACCFC1153AE52C
:1011E000D30708F464C0CE0190568115904208F0F0
:1011F00086CF8D2F8F710E94FC0990E0982F882751
:1012000088279F719C012C2BE901E6CFC55AD0E0BD
:10121000C958DE4FC881D0E0D0648CCF805C910982
:101220000E945108EC0186CFCE019927D3FF03C05D
:10123000EC01D86C7FCFEC01D06C7CCFDF70D06A32
:1012400079CFCE01E4E096958795EA95E1F7837032
:101250002C2F26952695237090E2299F900111242A
:10126000382B8C2F8370C1E0D0E002C0CC0FDD1F83
:101270008A95E2F7C22BD32BDC685CCFC1E0D0E0CB
:1012800002C0CC0FDD1F2A95E2F730E2939FC00128
:101290001124C82BD92BDA684DCFD82FCC27C46F97
:1012A000D06A48CFDC2FCC27C06FD06A43CF8C2FB9
:1012B0008F700E94FC0934E0D695C7953A95E1F706
:1012C000CF709C2FEC01D06935CF82389105B1F1F8
:1012D000B0F48133910509F475C048F48932910561
:1012E00009F469C08A32910509F473C00895853301
:1012F000910509F459C08933910501F10895833EA0
:101300009105A9F138F4803E9105F9F0823E9105EE
:1013100049F10895863E9105A9F1873E9105C9F1ED
:10132000843E910519F52091FC0321FF1FC0809197
:10133000FB0384FD14C087EE90E008952091FB0329
:101340002370A1F080EE90E008952091FB0320FD32
:1013500047C03091FC0330FF09C024FF44C090E037
:1013600080E004C02091FB0322FDF7CF0895209177
:10137000FB0322FD3BC03091FC0330FDE3CF24FF93
:10138000F5CFEDCF2091FB0323FFF0CF24FDE7CF76
:10139000D2CF2091FB0323FD2CC03091FC0331FF01
:1013A000EECF84EE90E008952091FB0325FFDECF81
:1013B00089E290E008952091FB0325FFD7CF85E3D4
:1013C00090E008952091FB0326FFD0CF8AE290E0C1
:1013D00008952091FB0326FFC9CF81E390E0089593
:1013E00089E390E0089583EE90E0089582EE90E026
:1013F000089586EE90E008959091FB0392FF06C059
:10140000282F28712830F9F4877F846093FF06C065
:10141000282F28712831F1F4877E84612091FC0304
:1014200020FF06C0382F38713830D9F4877F8160AB
:1014300021FF06C0282F28712831D1F4877E8161D1
:1014400094FD877E0895282F24712430F9F68B7F30
:101450008860DCCF282F2471243101F78B7E8861CE
:10146000DDCF382F3171313019F78E7F8860E0CFB2
:10147000282F2171213121F78E7E8861E1CF0895D7
:101480000C943F0A08950C94420AE82FF0E0E658C5
:10149000FC4F80810895089580EA8A95F1F70895B8
:1014A00000C008950C944C0AF894E82FE295EF7070
:1014B000F0E031A1282F2F7081E090E001C0880F6B
:1014C0002A95EAF7982F9095932391A392A1892BBF
:1014D00082A37894089508950F931F93CF93DF9379
:1014E000CDB7DEB762970FB6F894DEBF0FBECDBFA3
:1014F0000E94460C80911601811132C0FE01359682
:1015000086E0DF011D928A95E9F780EF898385E304
:101510008A8384E38B8387E98C8386E98D83CE017C
:101520000196ECE0F1E09E01255F3F4FDC014D911B
:10153000CD014193A217B307C9F728E0E9E3F1E031
:10154000DE011B9601900D922A95E1F7FC01A4E0C3
:10155000B1E0CE01439621912D93E817F907D9F711
:101560008091160195E0811190E09093850385E0CC
:10157000891B809384030CE011E0F80181918F01B5
:101580000E94540AF1E001311F07B9F704E011E0AD
:10159000D8018D918D010E94540AB1E00C301B07D7
:1015A000B9F7E0E7F3E0AAE7B3E011921D9283E018
:1015B000EA37F807D1F785E00E94E40B0E94B506F0
:1015C00062960FB6F894DEBF0FBECDBFDF91CF910C
:1015D0001F910F910C945B0CFF920F931F93CF936D
:1015E000DF9300D000D00F92CDB7DEB70E94300C51
:1015F000F82E60918503882309F450C08E010F5F97
:101600001F4F85E0F80111928A95E9F7862F90E047
:10161000B80186589C4F0E941E1E811122C08091E5
:10162000FA018F5F8093FA018630B0F1E091840374
:10163000F0E0E658FC4FD801CE01069611921D92BB
:10164000A817B907D9F70E94BF068F2D0F900F90EA
:101650000F900F900F90DF91CF911F910F91FF90FE
:1016600008951092FA01A0918403B0E0A658BC4FEF
:101670009E012A5F3F4FF12C4D91F80191918F010E
:10168000491731F0AD0141505109FA019083F82E0C
:101690000217130789F7D7CFF12CD5CF70E0665822
:1016A0007C4F8091840390E086589C4F0E94771E67
:1016B0000E946B0ACACFAF92BF92CF92DF92EF9295
:1016C000FF920F931F93CF93DF930CE011E080E71D
:1016D000E82E83E0F82E91E1A92E91E0B92EC0E02A
:1016E000CC24C394D12CF80181918F01F894E82F78
:1016F000E295EF70F0E021A18F70A60102C0440FC7
:10170000551F8A95E2F7CA01922F982B91A392A1B7
:101710008095892382A378940E94500AE4E0F1E046
:1017200030E020E0D0E04191A42FA295AF70B0E06E
:1017300090968C9190E04F7002C0959587954A9550
:10174000E2F780FD3DC08C2D022E01C0880F0A9467
:10175000EAF7D82B2F5F3F4F2830310521F7F801EA
:10176000319780810E94540A0E94520AF7018081B9
:10177000D81741F1D08381E0C82BFFEFEF1AFF0AA1
:10178000A016B10609F0AFCF6091850370E06658EE
:101790007C4F2C2F45E080E793E00E94E50B0E94F0
:1017A000EC0AC11101C0C82F8C2FDF91CF911F917E
:1017B0000F91FF90EF90DF90CF90BF90AF90089582
:1017C00080E0C7CF80E0D8CF0895FF920F931F939A
:1017D000CF93DF93F82E092F162FD72FC42F222354
:1017E00049F081E08093FD010E946B2D9093FC01F4
:1017F0008093FB018091FD018823A1F08091FB0182
:101800009091FC010E94832D069760F0EF2DF02F40
:10181000A12FBD2FCE0FDF2FD11DEC17FD0741F4F7
:101820001092FD01DF91CF911F910F91FF900895CC
:1018300081918D93F2CF88EC9091E30097FD0EC0DB
:10184000EFE3FCE93197F1F700C000008150A1F708
:101850000E94B7321092010480E0089581E008955B
:101860008091FE01811107C00E941B0C81110AC0EA
:1018700082E08093FE0181E09091FE01913009F0B9
:1018800080E0089581E0F5CF0C94300C0E94440C68
:1018900080931601809116016CE0882349F080E066
:1018A0000E94FB0C0E94300C882321F00C949D1E9A
:1018B0008CE0F6CF08950E94300C811102C00C9488
:1018C0009F1E0895EF92FF920F931F93CF93DF9384
:1018D000EB01E82FD11110C0442321F0F0E0EA50D1
:1018E000FB4FE4916E2F7E2F8E2FDF91CF911F91B2
:1018F0000F91FF90EF9008950D2F10E0282F30E00A
:10190000442329F02A503B4FF901249130E0F6E0BE
:10191000CF9FC0011124EFEFF0E0BF010E94D2354C
:10192000AB018C2F90E0880F991FA5E5A49FB00113
:10193000A59F700D1124861B970B982F990F980F58
:10194000BF01601B710B629FD001639FB00D729F3E
:10195000B00D11248B2F9D9FB0011124672F772785
:10196000EF01C61BD70BBE01629FE001639FD00D44
:10197000729FD00D11247F01E91AF108E09EB00199
:10198000E19E700DF09E700D1124672F7727E61BE6
:10199000F70BE29F8001E39F100DF29F100D1124C1
:1019A000E12F722F4230510599F048F4411551054D
:1019B00069F04130510581F0EB2F8D2F07C0443085
:1019C000510569F080F046305105B1F76E2F8DCF8B
:1019D000E22F7B2F812FFACFE22F7D2FF7CFEB2F36
:1019E000822F712FF3CF7B2F822FED2FEFCF41E08E
:1019F0000C94620C0895EAE1F1E08083618308951C
:101A00000C94F70CCF93DF93762FE901682F842F86
:101A10000E94000D798368838A83DF91CF910895B6
:101A200080918603982F9E7F29F481708260809335
:101A3000860308958635E8F381708465F8CF88E0E1
:101A400090E00C94DB36CF92DF92EF92FF926B0125
:101A50007C010E94100DB701A60188E090E0FF9084
:101A6000EF90DF90CF900C94F936609186037091DF
:101A7000870380918803909189030C94230DE6E8F5
:101A8000F3E083E0808311828FEF8283838314826B
:101A9000A4E8B2E012968C911297836012968C9310
:101AA00060817181828193810C94230D80918603E2
:101AB00080FF02C08695089580E0089590918A0382
:101AC000933018F49F5F90938A03882351F06091BC
:101AD00086037091870380918803909189030C9409
:101AE000230D089581E00C945E0D90918A03992353
:101AF00019F0915090938A03882351F060918603E6
:101B00007091870380918803909189030C94230D31
:101B1000089581E00C94750D80918A030895809357
:101B20008A03662351F06091860370918703809148
:101B30008803909189030C94230D089560E00C9420
:101B40008F0D809187030895809188030895809177
:101B50008903089570E00C94151560911B01809124
:101B6000860380FF0AC080911A0123E0829FC00192
:101B7000112485579C4F0C94AA0D80911C019091C3
:101B80001D0123E0829FF0011124E557FC4F8917C6
:101B900050F71182108212828F5F3396F8CF9091A6
:101BA000860390FF14C090911C0120911D0133E029
:101BB000939FF0011124E557FC4F921710F00C94FD
:101BC000AD0D8183608342839F5F3396F6CF089586
:101BD000CF93DF9300D00F92CDB7DEB790918603FD
:101BE00090FF0AC09E012F5F3F4F0E94020D4B8164
:101BF00069818A810E94CF0D0F900F900F90DF9125
:101C0000CF910895CF93DF93EC01EC81F0E0EF509A
:101C1000FC4F4491E6E8F3E0628181810E94E80D87
:101C20008C818F5F8C83DF91CF910895CF93DF9369
:101C3000EC01E6E8F3E0438162818C810E94E80DCB
:101C40008C818F5F8C83DF91CF9108950F931F93C9
:101C5000CF93DF9300D00F92CDB7DEB78C01809188
:101C6000FF0181110AC09E012F5F3F4F4FEF6FEFC1
:101C70000E94020D8A818093FF01F8016481613026
:101C800069F08091FF0140E0662361F040E062303E
:101C900011F44091FF0180E060E004C06091FF0119
:101CA00040E080E00E94CF0DF801848190E0019631
:101CB00063E070E00E94E63584830F900F900F90F0
:101CC000DF91CF911F910F910895AF92BF92CF9264
:101CD000DF92EF92FF920F931F93CF93DF9300D089
:101CE0000F92CDB7DEB7182FF62E042FE22E90916B
:101CF000860390FF3AC0E92FE695AE2FB0E0A658D4
:101D0000BE4F8C91809384029E7F9230E1F59E01BC
:101D10002F5F3F4F812F0E94020D4B8169818A8185
:101D20000E94CF0D80918703811308C080918803A2
:101D30008F1104C080918903801729F08091860259
:101D400082608093860210938703F0928803009349
:101D50008903EE2051F06091860370918703809192
:101D60008803909189030E94230D0F900F900F908C
:101D7000DF91CF911F910F91FF90EF90DF90CF9067
:101D8000BF90AF900895823019F400918903CACFB3
:101D9000863019F410918703C5CF8930D9F3893182
:101DA00009F6E9518E2F8170D82EE695F0E0EF50BC
:101DB000FB4FA590B490C12CBB2460911E01C616A8
:101DC00018F00E94AD0DAECF2C2D30E0A29EC001C8
:101DD000A39E900DB29E900D112470E00E94D2350A
:101DE000812FD11013C0860F40911C01420F532F39
:101DF000511D9A01220F331F240F351F25573C4FC9
:101E0000402F6F2D0E94020DC394D7CF861BECCFBD
:101E1000E6E8F3E09181282F4381628188E0890F11
:101E20000C94650E81E00C94080FE6E8F3E09181D4
:101E3000282F4381628188EF890F0C94650E81E021
:101E40000C94150FE6E8F3E0628121E1620F08F4DB
:101E50006FEF282F438181810C94650E81E00C94F3
:101E6000220FE6E8F3E0628121E1621B08F460E002
:101E7000282F438181810C94650E81E00C94310FF1
:101E8000E6E8F3E0438121E1420F08F44FEF282F09
:101E9000628181810C94650E81E00C94400FE6E82C
:101EA000F3E0438121E1421B08F440E0282F6281E6
:101EB00081810C94650E81E00C944F0F20E00C940E
:101EC000650EEF92FF921F93CF93DF93EC0110E02A
:101ED000EE24EA94F12C60911E01161770F00E9416
:101EE000AD0D9A818C8190FF27C08F5F8C83DF912D
:101EF000CF911F91FF90EF90089520911C01422FE8
:101F0000410F5527551FCA019A01220F331F280F71
:101F1000391F25573C4F70E0C7010E94E635962FC8
:101F20008C814091890360918803199F800D112451
:101F30000E94020D1F5FCFCF8150D8CF8F929F920A
:101F4000AF92BF92CF92DF92EF92FF920F931F93C7
:101F5000CF93DF93EC018A81BB24BA9480FD02C049
:101F6000BB24B3948C8181110AC081E0B8122AC0CD
:101F700080911E0181508093010281E08C83A12C0D
:101F800048E1942E80911E01A816F8F00E94AD0D34
:101F90008091010291E0B91261C081115AC0809113
:101FA0001E018150809301021C82DF91CF911F910D
:101FB0000F91FF90EF90DF90CF90BF90AF909F90E8
:101FC0008F90089510920102D8CF00911C01CA2C65
:101FD000D12C0C0D1D2D111DC801880F991F080F44
:101FE000191F05571C4FF80111821082128234E02C
:101FF000E32EF12C812C80910102880D89311CF196
:10200000692D0E94C435892F082E000C990BC81623
:10201000D90691F4809189038E9DA0018F9D500D6A
:1020200011245595479555954795980160918803DA
:10203000809187030E94020D8B0CF1E0EF1AF108EA
:10204000D1F6A3949FCF87FFDFCF90911E01890F18
:10205000DBCF815080930102BC82A7CF90E0019634
:1020600060911E0170E00E94E635809301028C832E
:102070009CCFEF92FF920F931F93CF93DF93EC01CE
:102080008C81811109C081E08C831092000292E062
:10209000909319018093180180911C0190911D016A
:1020A00023E0829FF0011124E557FC4F891768F166
:1020B00010E003E060911E01161768F10E94AD0D5B
:1020C0008091180120910002280F20930002909126
:1020D0001901980F90931901191654F4022E000C4F
:1020E000330B40911E014150550B2417350734F036
:1020F000819580931801813009F41C82DF91CF9182
:102100001F910F91FF90EF9008951182108212821B
:102110008F5F3396CBCFE12EF12C70E0C7010E9488
:10212000E63520911C01820F482F50E020910002DB
:10213000022E000C330BE216F306BCF020911901BD
:10214000022E000C330B2E153F057CF0809F900172
:10215000112425573C4F4091890360918803809159
:1021600087030E94020D1F5FA5CFFA01EE0FFF1F2C
:10217000E40FF51FE557FC4F118210821282F3CF56
:102180008F929F92AF92BF92CF92DF92EF92FF9287
:102190000F931F93CF93DF93EC014C81042F10E03A
:1021A0009801D8010E9431369B01AC010E9447364C
:1021B0004B015C01E0E2F0E0E01BF10BA5E5B0E0D3
:1021C000AC019B010E9447366B017C019F01DF013E
:1021D0000E9429369B01AC010E9452369B01AC0142
:1021E000280D391D4A1D5B1DC701B6010E94FA3535
:1021F000F22E822F90E039E23F1560F143E0249FF8
:102200009001112435952795122F109500E085E552
:10221000E82EEF1880911E01081758F10E94AD0DAD
:102220009C8181E0992319F0903219F48FEF80930B
:10223000170180911701890F8C83DF91CF911F9136
:102240000F91FF90EF90DF90CF90BF90AF909F9055
:102250008F90089525E530E0B901681B790B9B014B
:10226000220F331F260F371F37FFCCCF2F5F3F4F73
:10227000C9CF8E2D01FD8F2D20911C01622F600F83
:102280007727771F9B01220F331F260F371F2557F4
:102290003C4F412F609188030E94020D0F5FBACF1F
:1022A0000F931F93CF93DF93EC0110E000E0909128
:1022B0001E019017110609F06CF40E94AD0D8C817F
:1022C00090E00196817099278C83DF91CF911F91C7
:1022D0000F91089520911C01A801420F511D9A01F0
:1022E000220F331F240F351F25573C4F4C8160911F
:1022F00088038091870396959017110651F04CF052
:10230000442349F0409189030E94020D0F5F1F4F43
:10231000CECF4423B9F340E0F7CF4F925F926F9254
:102320007F928F929F92AF92BF92CF92DF92EF9265
:10233000FF920F931F93CF93DF93FC016280448041
:1023400081E08483E1EFF3E07490E0E7F4E0E4916E
:10235000812C75E0972EF2E0CF2EDD24D394AA24B1
:10236000AA94B12C55245A94E7190E2F10E08091AD
:102370001E01881690F0DF91CF911F910F91FF9071
:10238000EF90DF90CF90BF90AF909F908F907F9015
:102390006F905F904F900C94AD0DE82CF12C82E083
:1023A000861568F09E9CF0019F9CF00D1124EB5F58
:1023B000FD4F809187038083809188038183411042
:1023C00023C09E9CF0019F9CF00D1124EB5FFD4FFC
:1023D0001382128220911C01C701820F911D9C0162
:1023E000220F331F280F391F25573C4F9E9CF001A9
:1023F0009F9CF00D1124EB5FFD4F42816181808134
:102400000E94020D8394B3CF9E9CE0019F9CD00D4F
:102410001124CB5FDD4F8B818823E9F081508B83C2
:10242000859DC00111246C8170E00E94D235FB01B2
:10243000FF27EF50FC4F8491E82FE719E59DC0017D
:102440001124B8010E94D23580918903689FB001A0
:1024500011247A83BFCF0E94A63620918903269546
:1024600021582C9DA0012D9D500D1124452F55273D
:10247000841795070CF0AECF82E0861588F40E9491
:10248000A636B5010E94E63588830E94A6362091C3
:1024900088032695622F70E00E94E635280F298375
:1024A0009E9CF0019F9CF00D1124EB5FFD4F12826A
:1024B00080918903893C58F088EC9E9CF0019F9C98
:1024C000F00D1124EB5FFD4F8483838383CF843130
:1024D000A0F784E1F2CF80918602089510928602DF
:1024E000089525E0E6E8F3E0DC0101900D922A95DD
:1024F000E1F7209184023091850240918602FC012F
:102500002583368347830895E4E8F2E011828281CF
:10251000846082830895E6E8F3E080818E7F808383
:102520000E948412E4E8F2E08281816082832FEFCE
:1025300080E792E0215080409040E1F700C0000029
:102540000C94AD0DE6E8F3E080818E7F808360819E
:102550007181828193810E94230D0E948412E4E89C
:10256000F2E08281816082832FEF80E792E0215048
:1025700080409040E1F700C000000C94AD0D6091E8
:102580008603669570E04BE050E08FE191E00E9499
:10259000BF36892B19F481E0809385020E94F72DC4
:1025A00090937E0280937D02809186028460809366
:1025B000860208959091860390FF3AC09170811130
:1025C0002DC09260909386038091860281608093F3
:1025D0008602662351F06091860370918703809193
:1025E0008803909189030E94230D6091860366956C
:1025F00070E04BE050E08FE191E00E94BF36892B04
:10260000A1F00E94841281E08093800240918903AE
:1026100060918803809187030C945E0F8B3210F0D9
:102620009465D0CF880F982BCDCF0E94BF12EBCFEF
:102630000895682F90918603969581E0890F8B32DB
:1026400008F081E00C94DA1281E00C941913682FE1
:102650009091860396958FEF890F09F48AE20C9486
:10266000DA1281E00C94271361E00C94DA12E6E8A8
:10267000F3E080818160808386950C94341380918F
:10268000860380FD0C94A2120C94371360E00C9426
:10269000DA1280918302811133C00E94822B811152
:1026A00004C00E94262C0E943F0D0E941F0D6093C3
:1026B00086037093870380938803909389038091A6
:1026C00086028360809386026E7F61F40E943F0DD4
:1026D0000E941F0D60938603709387038093880385
:1026E000909389030E94100D0E94841280918603AA
:1026F00080FF03C086950E94461381E08093830289
:102700000895E6E8F3E080818160808386950C94EB
:1027100046131F93CF93DF93EC01162F8F8180FF19
:102720000CC0888180FF24C08091860381608093E3
:102730008603888186950E94DA128F8181FF06C008
:10274000212F4B816A8189810E94650E8F8182FFD2
:1027500005C08E81882379F00E94BF128F8183FF8C
:1027600003C081E080938002DF91CF911F91089593
:102770000E948B12E2CF0E948412F0CFEF92FF9260
:102780000F931F93CF93DF9380918502882309F4E1
:1027900062C080918402E0918603E695E81BE09395
:1027A0007F02823009F05EC0F0E0E351FC4FE4911B
:1027B000CE2FD0E002E01EE080918002882361F0FD
:1027C000109280020E94F72D90937E0280937D02EA
:1027D00010928202109281020E94F72DE0917D02F8
:1027E000F0917E029C012E1B3F0B2F3F3F4798F537
:1027F000209104022223B1F01092040220910202DF
:1028000030910302821B930B8F3F9F4758F4205D4A
:102810003A48309303022093020280918602886036
:1028200080938602E0908102F0908202EC0FFD1FFF
:10283000F0937E02E0937D028DE792E0F801099526
:102840008091810290918202892B29F4EF2819F05E
:1028500081E080930402DF91CF911F910F91FF904F
:10286000EF900895863049F4F0E0E651FC4FE49192
:10287000CE2FD0E006E11EE09FCF893051F4E695DF
:10288000F0E0E951FC4FE491CE2FD0E001E61FE0EB
:1028900093CF8F3051F4E695F0E0EC51FC4FE4918A
:1028A000CE2FD0E00EE91FE087CF853149F4F0E06C
:1028B000EF51FC4FE491CE2FD0E009E310E17CCF43
:1028C000C8E2D0E000EC10E1883109F475CF833222
:1028D00039F4EFEDF3E0C591D49106E21EE06CCF40
:1028E000C4EFD1E000E511E1843209F465CFC0ED19
:1028F000D7E00AEF1CE0853209F05ECF8E2F63E04F
:102900000E94B835E92FF0E0E452FC4FE491CE2F5D
:10291000D0E00DE811E150CFFA01811101C0FB01B7
:102920000994CF93DF93C82FD62F0E94560D8C1792
:1029300040F00E94560D8D1720F4DF91CF910C943A
:1029400024138C2FDF91CF910C9434131F93CF93CA
:10295000DF93EC01FB011281111110C00E94CB2A00
:102960008272FE01E25CFC45E431F10508F05BC0D7
:10297000E45CF84C0C941C360E943F13812FDF91CD
:10298000CF911F91089541E353E164E273E10E9406
:102990008C14F4CF44E253E161E373E1F8CF4FE1EB
:1029A0005FE062E17FE0F3CF42E15FE06FE17FE073
:1029B000EECF4DE35FE06EE27FE0E9CF4EE25FE015
:1029C0006DE37FE0E4CF4BE55FE06CE47FE0DFCFD9
:1029D0004CE45FE06BE57FE0DACF49E85DE062E779
:1029E0007DE0D5CF42E75DE069E87DE0D0CF81E0D2
:1029F0000E943413C3CF65E082E00E949114BECFE1
:102A000068E086E0FACF6EE089E0F7CF64E18FE01E
:102A1000F4CF67E185E1F1CF88E1EACF62E289E1B5
:102A2000ECCF83E2E5CF11E0A9CF6E9A4EB14F7B98
:102A30005EB15064EFB7F8949B01220F331F260F4D
:102A4000371F280F391F2817390741F4EFBF8FE5CB
:102A500094E00197F1F700C000000895DC016D914A
:102A6000CD0178E05EB9000000C067FF4EB9660F87
:102A7000000000C000C000C04EB900C07A9591F7B8
:102A8000E2CF84988C9A8198899A8FB182958170CF
:102A900079990EC090E0892B80938C029091160159
:102AA00081E0982790938802891B8093870208957C
:102AB00092E0F1CFCF93E0918C02EE0FEE0FE09316
:102AC0008C024FB144FB882780F94FB141FB22278C
:102AD00020F941FF02C022E030E0822BE82BE09396
:102AE0008C02C0918802EF70F0E0EB55FE4F8081C0
:102AF00090918B02890F80938B0220E0883074F0D4
:102B0000EC2F0C2E000CFF0BE757FD4F80818F5FE1
:102B1000808360E08C2F0E942B1921E080918B0232
:102B2000893F74F4EC2F0C2E000CFF0BE757FD4F80
:102B300080818150808361E08C2F0E942B1921E0DD
:102B400080918B02082E000C990B68E070E00E94C7
:102B5000E63580938B02822FCF910895E091880211
:102B6000F0E0E757FD4F2081FC0120830895FF929C
:102B70000F931F93CF93DF93D09187020D2F10E017
:102B800007571D4FFC01C081F8018081C81BFC2E36
:102B900080E01F147CF09C2FC7FD90E0C91BC11181
:102BA00014C08823E9F0DF91CF911F910F91FF901E
:102BB0000C94C320FA94F80180818F5F808360E0D9
:102BC0008D2F0E942B1981E0E4CFCF5FF801808127
:102BD0008150808361E08D2F0E942B1981E0DFCF2F
:102BE000DF91CF911F910F91FF90089582E290E0C5
:102BF0000E94D336883B89F483E290E00E94D3366A
:102C0000813D59F484E290E00E94D33691E0833B09
:102C100009F090E0892F8170089580E0FCCFCF9378
:102C2000C82F6FEF811168EB82E290E00E94E736D7
:102C30006FEFC11161ED83E290E00E94E7366FEF24
:102C4000C11163EB84E290E0CF910C94E73680E011
:102C50000E940F160C947C2B089585E290E00E9450
:102C6000D336682F70E090E080E0089585E290E030
:102C70000C94E7360E942C160E94F61581110CC0A8
:102C800060E070E0CB010E9436160E94391A0E9463
:102C90006D1B81E00C940F160895CF93FB01C28148
:102CA000CC2309F19C0122513F452031310520F50B
:102CB00082510E947D1BC0E08C2FCF91089581E04E
:102CC0000E94452943E062E081E00E94A306F3CF21
:102CD00081E00E94662943E062E081E00E94A30651
:102CE000EBCF82E0F6CF8031FFE59F0789F381319A
:102CF0009F45B9F3C1E0E0CF8031EFE59E07F9F2DF
:102D000081319F45C9F682E0DBCF2FEFFC012083A4
:102D10000895CF93DF93EC0188818138A9F028F4DE
:102D2000803871F0DF91CF910895823881F0833837
:102D3000C9F70E94A10D89830E94A40D8A83F2CF56
:102D40000E94A70D8983EECF0E94560DFBCF0E94F3
:102D50008C0DF8CFCF93DF93EC0188818138E1F0BF
:102D600028F4803869F0DF91CF910895823811F10D
:102D70008338C9F70E94A70D482F6A81898108C04E
:102D8000D9810E94A40DC82F0E94A10D4D2F6C2F38
:102D9000DF91CF910C945E0F89810E944613898147
:102DA000811104C0DF91CF910C948B12DF91CF91F0
:102DB0000C9481138981DF91CF910C949E0D1F9308
:102DC000CF93DF93EC01162F988120918F023091E1
:102DD0009002232B79F09E3F09F068C089818330EF
:102DE00020F08550833008F061C0612FCE010E9431
:102DF00031185CC09E012F5F3F4F993009F49EC08F
:102E0000E8F4943009F47DC058F4923009F455C0C8
:102E100008F06BC0913009F446C08FEF888346C03C
:102E2000963009F484C008F477C0973009F482C062
:102E3000983099F7C9010E94891638C0903109F479
:102E400099C028F59D3009F47CC030F49C3029F7F6
:102E50000E94161B89832AC09E3009F47AC09F30D5
:102E6000E1F680912A0190912B01892BF9F06B8179
:102E700070E06D317105D0F489819A81AE014C5FAB
:102E80005F4F9827892798270E94421B0FC09231D5
:102E900009F476C008F471C0933109F482C09E3FF2
:102EA00009F0BBCFA2CF198289E08A83612FCE01BE
:102EB000DF91CF911F910C94DF2E8981823069F0D0
:102EC0008330A1F3813061F40E94772D0E94223675
:102ED0006A837B838C839D83E9CF0E942D16F6CF76
:102EE000612FCE010E948516E1CF89818230C1F722
:102EF0006A817B818C819D810E9422360E943616D8
:102F0000D5CF4B816A8189810E94841998278927AE
:102F100098279D838C83CACF2C813D81322723271C
:102F200032274B816A8189810E94A619BFCF0E94F6
:102F3000391ABCCFC9010E94AA16B8CF0E94350D1C
:102F4000B5CF0E94181B9827892798279A838983D1
:102F5000ADCF6B8170E06D31710508F0A7CF89812D
:102F60009A81AE014C5F5F4F9827892798270E946E
:102F70001B1B9CCF0E946D1B99CF0E9471196ACFB9
:102F80006B8170E06D31710508F090CF89819A8175
:102F9000AE014C5F5F4F9827892798270E94A01A9F
:102FA00085CF6B8170E06D31710508F07FCF89812D
:102FB0009A81AE014C5F5F4F9827892798270E941E
:102FC000C61A74CF0F931F93CF93DF9300D000D016
:102FD00000D0CDB7DEB78C019093D4038093D30398
:102FE0001B821C821D821E828EEF89838A8381E070
:102FF0008B830E946B2D81609D838C83011580E201
:10300000180708F5C8010E94CD058FE39CE90197D8
:10301000F1F700C000000E946B2D81609D838C83BE
:103020001B82011590E21907A8F4C8010E94E2056D
:1030300026960FB6F894DEBF0FBECDBFDF91CF91BD
:103040001F910F910895BE016F5F7F4FC8010E94CD
:10305000D106DBCFBE016F5F7F4FC8010E94D10652
:10306000E7CFEF92FF920F931F93CF93DF93CDB7EC
:10307000DEB728970FB6F894DEBF0FBECDBF8C0128
:10308000603219F5DC011196EC911197E830E8F403
:10309000F0E0E05BF84C0C941C3688E0E1E4F1E0F1
:1030A000DE01119601900D928A95E1F782E0F80118
:1030B000808311821282138288E0FE013196D8014A
:1030C000149601900D928A95E1F728960FB6F89420
:1030D000DEBF0FBECDBFDF91CF911F910F91FF904B
:1030E000EF90089584E58C9382E011968C9311976C
:1030F00012961C92129713961C92E7CFFC018381C3
:10310000682F70E0762F66278281860F972F911D9A
:10311000092E000CAA0BBB0B25E0880F991FAA1FD4
:10312000BB1F2A95D1F7AC01BD01405E5F4F6F4FC9
:103130007F4F481759076A077B0738F28435F2E05A
:103140009F07A105B10508F6453522E05207610544
:10315000710520F044E552E060E070E0481B590B37
:10316000BC016A507A4FC80128960FB6F894DEBFAA
:103170000FBECDBFDF91CF911F910F91FF90EF90C8
:103180000C94B6361296FC9012971396EC9040E091
:103190006E2D8F2D0E94CE19982789279827F80128
:1031A0009183808341E06E2D8F2D0E94CE19982748
:1031B00089279827D80113969C938E93129785CFD1
:1031C000FC01258136813227232732274481638100
:1031D000828128960FB6F894DEBF0FBECDBFDF9177
:1031E000CF911F910F91FF90EF900C94001A40E245
:1031F00050E06FEF70E00E94CC3680912A01D80138
:103200008C9380918F0211968C935FCF81E090E038
:103210009093900280938F0282E390E090938E02CD
:1032200080938D0228960FB6F894DEBF0FBECDBFF7
:10323000DF91CF911F910F91FF90EF900C946B2D28
:1032400080912A01F801808380918F02818380918F
:103250008D0282833ACFCF92DF92EF92FF920F934B
:103260001F93CF93DF93182F062FC0901F03D0908A
:103270002003E0902103F09022038091230390919A
:103280002403A0912503B0912603C82AD92AEA2A4B
:10329000FB2ACFE1D0E0D701C6010C2E04C0B695C1
:1032A000A795979587950A94D2F780FF12C0402F73
:1032B000612F8C2F0E94CE198130910551F0DF9142
:1032C000CF911F910F91FF90EF90DF90CF900C94D2
:1032D000E217219700F7402F612F80E00E94CE195E
:1032E000EECF84E0089590E1699FB001112450E091
:1032F000440F551F640F751F90EA899F600D711D63
:103300001124CB01869608950F931F93CF93DF93DB
:103310008430C8F46A30B8F44830A8F40E947319B5
:103320008C010E94D336C82FD0E0DC2FCC27C801F7
:1033300001960E94D3369E01282BC901DF91CF91BF
:103340001F910F91089590E080E0F8CF0F931F93A5
:10335000CF93DF93E9018430E0F46A30D0F4483051
:10336000C0F421153C4531F420912A0130912B0104
:10337000232B79F00E9473198C016D2F0E94E73680
:103380006C2FC8010196DF91CF911F910F910C9482
:10339000E736DF91CF911F910F9108950F931F93FF
:1033A000CF93DF93843048F5623038F5423028F50A
:1033B00028E0829FC001112434E0639FB0011124F2
:1033C000860F971FC42FD0E0CC0FDD1FC80FD91F69
:1033D000CA55DD4FCE010E94D336082F10E0102FC2
:1033E0000027CE0101960E94D3369801282BC901EF
:1033F000DF91CF911F910F91089590E080E0F8CF79
:103400000F931F93CF93DF938901843068F5623067
:1034100058F5423048F501152CE5120731F420919A
:103420002A0130912B01232BF9F028E0829FC00163
:10343000112424E0629FB0011124860F971FC42F2E
:10344000D0E0CC0FDD1FC80FD91FCA55DD4F612F4B
:10345000CE010E94E736602FCE010196DF91CF9119
:103460001F910F910C94E736DF91CF911F910F912F
:1034700008958F929F92AF92BF92CF92DF92EF9278
:10348000FF921F93CF93DF9380902A0190902B019E
:1034900081E090E090932B0180932A018CEAC82E62
:1034A00080E0D82EC0E07601D0E014C0F50125916F
:1034B0003491412F6D2F8C2F0E94A61982E0A80E07
:1034C000B11C1F5F183091F780E1E80EF11CDF5F3F
:1034D000DA3019F0570110E0E9CF21E030E040E0A8
:1034E00060E08C2F0E94001A21E030E041E060E0B3
:1034F0008C2F0E94001A21E030E040E061E08C2F28
:103500000E94001A21E030E041E061E08C2F0E942F
:10351000001ACF5F80EAC80ED11CC43009F0C3CFB7
:1035200090922B0180922A01DF91CF911F91FF9001
:10353000EF90DF90CF90BF90AF909F908F900895C5
:10354000EF92FF920F931F93CF93DF93EC018A01C9
:103550007C01E60EF71ECE018696CE15DF0539F406
:10356000DF91CF911F910F91FF90EF900895C03898
:1035700022E0D20740F40E94D336F80180830F5F27
:103580001F4F2196E8CFF8011082F9CFCF92DF923A
:10359000EF92FF920F931F93CF93DF938C016A01F9
:1035A0008038924080F480E892E0801B910B86176F
:1035B000970748F07801E60EF71EE801CE018696DF
:1035C000CE15DF0549F4DF91CF911F910F91FF9048
:1035D000EF90DF90CF900895C03822E0D20740F4FA
:1035E000FE01E01BF10BEC0DFD1D60810E94E73632
:1035F0002196E4CF462F20918F0230919002232B09
:1036000091F47E3F39F46E3F71F48091D303909131
:10361000D4030895843038F47A3028F4683018F4EC
:10362000672F0C94841990E080E0089580E108955C
:103630008AE391E00895EF92FF920F931F93CF9347
:10364000DF93EC018A017C01E60EF71ECE018A535E
:103650009D4FCE15DF0539F4DF91CF911F910F916A
:10366000FF90EF900895CA3321E0D20740F40E9402
:10367000D336F80180830F5F1F4F2196E7CFF80103
:103680001082F9CFCF92DF92EF92FF920F931F93A8
:10369000CF93DF937C016A018C01060F171FEC01A9
:1036A000CE018A539D4FC017D10749F4DF91CF91C6
:1036B0001F910F91FF90EF90DF90CF900895CA3344
:1036C00021E0D20740F4FE01EE19FF09EC0DFD1DCB
:1036D00060810E94E7362196E3CFCF93DF93C6EC5B
:1036E000D2E060E0CE010E94E7362196C11584E069
:1036F000D807B9F7DF91CF910895BF92CF92DF92AB
:10370000EF92FF920F931F93CF93DF9300D000D0DF
:10371000CDB7DEB7F82E2FE0281740F08FEF93E0FB
:103720000E94D33606EC12E08823D1F00F900F9060
:103730000F900F90DF91CF911F910F91FF90EF901D
:10374000DF90CF90BF900895011544E0140771F306
:10375000C8010E94D336811101C0FA940F5F1F4F38
:10376000F110F2CF19821A821B821C82BB24BA94F8
:1037700078015FEFE51AF50AC8010E94D336898304
:103780001A82882399F2813009F047C0680182E0EB
:10379000C80ED11CC7010E94D336E82E8A83882325
:1037A00029F2C6010E94D336F82E8FEF8E0D83309A
:1037B00068F46801E3E0CE0ED11CFB82FF2021F00B
:1037C000CE0101960E94EE078601D2CFF4E0EF12FF
:1037D000FBCF680124E0C20ED11CC80103960E94F1
:1037E000D336FF2009F4A2CF882309F49FCF81505C
:1037F000990BB89E9001B99E300D11244F2D415068
:10380000550BCA01820F931F0197F0F2EFE9FFE019
:103810003197F1F700C00000F7CFCE0101960E946A
:10382000EE076701D1CF0F931F93CF93DF93C42F80
:10383000D22FFC0182818823C9F0409393020E9419
:103840006B2D909392028093910280E28C0F8830CE
:1038500008F050C0C77081E001C0880FCA95EAF730
:10386000DF91CF911F910F910C94D522109193026B
:10387000141335C080919102909192020E94832D81
:10388000883C910560F5C0E2CD0F1D17B9F080E2CC
:10389000810F883040F4177081E001C0880F1A95BD
:1038A000EAF70E94DC22C83048F481E09D2F97702F
:1038B00001C0880F9A95EAF70E94D522802F0E94B6
:1038C000CD22C830B8F4D77081E001C0880FDA95F6
:1038D000EAF7DF91CF911F910F910C94DC2280E2E7
:1038E0008C0F883038F4C77081E001C0880FCA950A
:1038F000EAF7EFCFDF91CF911F910F9108950F93CA
:103900009C01CB01233F4CE5340759F1A8F4283D35
:10391000FCE53F0701F1293D4CE53407D1F1273D96
:103920003C4591F406E221EE41EE67ED7CE50E9414
:10393000131C80E00F910895253FFCE53F07E9F057
:10394000B0F0263F3C45F9F0FC018281882339F133
:1039500010929302EFCF07E225EE45EE68ED7CE58D
:10396000E6CF06E221EE40EE63EF7CE5E0CF07E232
:1039700025EE44EE64EF7CE5DACF06E221EE42EE7E
:1039800065EF7CE5D4CF07E225EE46EE66EF7CE5F9
:10399000CECF08E221E045EE69ED7CE5C8CF81E0BD
:1039A000C9CFCF93DF93EC01FB018281882309F417
:1039B00019C1C230FCE5DF07C0F1C6319CE5D9076B
:1039C00030F09E012A5F3C452930310570F50E9498
:1039D000952B9093FC038093FB03C031ECE5DE074D
:1039E00009F4CFC008F05BC0C8308CE5D80709F4F3
:1039F000B6C088F5C430ECE5DE0709F4A8C0C0F411
:103A0000C2308CE5D80709F49CC08091FB0382602A
:103A1000C330DC4509F498C08091FB039091FC030E
:103A20000E94A32B0E944D2580E0DF91CF91089545
:103A30008091FB038061C630ECE5DE0709F484C0A9
:103A40008091FB038860C730DC4508F47DC080911D
:103A5000FB03806279C0CC308CE5D80709F489C0BB
:103A600070F48091FB038C60CA30ECE5DE0709F44A
:103A70006BC008F478C08091FB038E7F65C0CE30A8
:103A80008CE5D80709F479C08091FB038B7FCF3098
:103A9000DC4508F459C08091FB038F7E55C0CB3FB5
:103AA000ECE5DE0709F457C030F5C3318CE5D807E3
:103AB00009F46FC078F4C131ECE5DE0709F465C0A4
:103AC000C231DC4509F0A8CF0E944D258091FB034F
:103AD0008F773AC0C5318CE5D80709F462C008F485
:103AE00076C08091FC038160CA3FDC4509F094CF29
:103AF0008093FC0391CFCF3FFCE5DF0709F44DC075
:103B000088F48091FC038D7FCD3F9CE5D90781F33C
:103B10008091FC038E7FCE3FDC4550F38091FC0307
:103B20008360E6CFC130FDE5DF0709F459C008F432
:103B300044C080E0C230DD4509F06ECF0E94282CE1
:103B40006BCF8091FB0381608093FB0365CF8091F5
:103B5000FB038460F9CF8091FC038260C9CF809120
:103B6000FB038064F1CF0E944D258091FB038068A8
:103B7000EBCF8091FB038D7FE7CF8091FB03877FA5
:103B8000E3CF8091FB038F7DDFCF8091FB038F7BA1
:103B9000DBCF8091FB03837FD7CF8091FC038C7FA9
:103BA000A7CF8091FB0382FB992790F921E0922710
:103BB00090FB82F990FB83F9C7CF8091FC03982F8B
:103BC000909591708E7F892B90FB81F991CF0E9407
:103BD0004D259091FB03892F97FB87F98058B4CF2F
:103BE00081E0ACCF81E021CFCF93DF93EB01863131
:103BF0009C4511F50E94CB2A9A81992399F08A7AE3
:103C000091E009F490E090939402811109C089E257
:103C10000E94A62A0E94172B80E0DF91CF91089581
:103C200085E3F6CF80919402811104C089E20E945D
:103C3000AD2AF0CF85E3FBCF81E0EFCF0F931F9349
:103C4000CF93DF93CDB7DEB728970FB6F894DEBFDA
:103C50000FBECDBFAB0104E610E025E030E064E02C
:103C600082E30E94A81F0E946B12882381F0CE017C
:103C700001960E94711228E030E0AE014F5F5F4F65
:103C800069E082E30E947B1F97FF0E946E1204E6A8
:103C900010E021E030E046EE53E061E182E30E9473
:103CA000A81F86EE93E00E94B7150E94DC2D6E5F80
:103CB0007F4F8F4F9F4F6093D5037093D6038093B0
:103CC000D7039093D80324E030E045ED53E060E063
:103CD00082E30E947B1F81E028960FB6F894DEBF36
:103CE0000FBECDBFDF91CF911F910F910895CF935C
:103CF000DF93EB016091D5037091D6038091D703D8
:103D00009091D8030E94BF2D85E0FE01A9EDB3E09C
:103D100001900D928A95E1F78091E503882339F0AF
:103D200060E08EED93E00E9489131092E50386EE29
:103D300093E0DF91CF910C94AE150C94A21E82E318
:103D40000C94F71F1092B90088E48093B80008958E
:103D5000EF92FF920F931F93CF93DF93182FEB01F6
:103D60001092BC0084EA8093BC000E946B2D7C0101
:103D70008091BC0087FF27C08091B900887F883080
:103D800029F08091B900887F8031D9F51093BB006C
:103D900084E88093BC000E946B2D8C018091BC0054
:103DA00087FF24C02091B900287F90E080E028316F
:103DB000B1F081E090E0203411F490E080E0919542
:103DC000819591090CC0CF3FDC0791F20E946B2DC9
:103DD0008E199F098C179D0758F28EEF9FEFDF9188
:103DE000CF911F910F91FF90EF900895CF3FDC0787
:103DF000A9F20E946B2D801B910B8C179D0770F20E
:103E0000ECCF8FEF9FEFEBCF0F931F93CF93DF9309
:103E1000EB018093BB0084E88093BC000E946B2D73
:103E20008C018091BC0087FF11C02091B900287FD0
:103E300081E090E0283211F490E080E09195819546
:103E40009109DF91CF911F910F910895CF3FDC072A
:103E500041F30E946B2D801B910B8C179D0708F37B
:103E60008EEF9FEFEECF0F931F93CF93DF93EC0175
:103E700084EC8093BC000E946B2D8C018091BC006F
:103E800087FF08C08091BB0090E0DF91CF911F9128
:103E90000F910895CF3FDC0789F30E946B2D801BA3
:103EA000910B8C179D0750F38EEF9FEFEECF0F9382
:103EB0001F93CF93DF93EC0184E88093BC000E94B2
:103EC0006B2D8C018091BC0087FF08C08091BB00E6
:103ED00090E0DF91CF911F910F910895CF3FDC07C4
:103EE00089F30E946B2D801B910B8C179D0750F35B
:103EF0008EEF9FEFEECFCF92DF92EF92FF920F9374
:103F00001F93CF93DF93C62F6A017901B8010E94F6
:103F1000A81E97FD0CC0B8018C2F0E94041FE6015B
:103F2000EC0CFD1CCE15DF0511F097FF0CC024E949
:103F30002093BC00DF91CF911F910F91FF90EF90E4
:103F4000DF90CF900895B80189910E94041FEACFB5
:103F5000CF92DF92EF92FF920F931F93CF93DF9355
:103F6000F82EE62EEA016901B8010E94A81E97FD0D
:103F700015C0B8018E2D0E94041F97FD0FC0B80117
:103F80008F2D81600E94A81EF12CE12C21E0C21A25
:103F9000D108EC14FD0400F597FF11C024E920932B
:103FA000BC001816190614F490E080E0DF91CF9160
:103FB0001F910F91FF90EF90DF90CF900895C8016F
:103FC0000E94331F97FD04C0FE01EE0DFF1D80838C
:103FD0002FEFE21AF20ADDCF97FDE0CFC8010E9471
:103FE000571F97FDDBCFCC0DDD1D8883D7CF809386
:103FF000BA0085EC8093BC0008951F921FB61F92F3
:1040000011248F939F93EF93FF938091B900887F42
:104010008038C1F038F4882309F448C0803679F03C
:1040200081E022C0883A11F0883BD1F7E0919602F6
:10403000F0E0EB52FC4F80818093BB0031C01092C6
:104040009502EECF80919502811122C08091BB0034
:1040500080939602809196028E31C0F01092960263
:1040600080E091E0909395029091BC008295880F3A
:10407000880F807C892B85688093BC00FF91EF912D
:104080009F918F911F901FBE1F90189581E0E9CFDF
:10409000E0919602F0E08091BB00EB52FC4F8083F0
:1040A000809196028F5F80939602BACF1092BC00E7
:1040B000B7CF90939C0280939B020895E0919B025E
:1040C000F0919C02309721F00190F081E02D09944D
:1040D00080E00895E0919B02F0919C02309799F066
:1040E00020913801222359F02091FB0327FF07C0BC
:1040F000DC012C9111962C93119725E02C930280D2
:10410000F381E02D099408952091990230919A024B
:104110002817390771F090939A0280939902E091E1
:104120009B02F0919C02309721F00680F781E02DF0
:104130000994089520919702309198022817390721
:1041400071F09093980280939702E0919B02F09116
:104150009C02309721F00084F185E02D09940895A8
:104160000E94772D6093B0027093B1028093B202E7
:104170009093B3026093AC027093AD028093AE0251
:104180009093AF0208950E94772D6093B0027093D0
:10419000B1028093B2029093B3026093A80270932D
:1041A000A9028093AA029093AB02089585B7806814
:1041B00085BF85B7806885BF0895089508950C94DC
:1041C000DE200E94D6208AE79BE20E94242E0E94D5
:1041D000DD200C9435050C94300C089508950E9450
:1041E000622D0E94B62D0E946C0A0E943A160E940F
:1041F0003F2E0E9449130E9441150C94DF20AF927C
:10420000BF92CF92DF92EF92FF920F931F93CF93C3
:10421000DF93CDB7DEB72A970FB6F894DEBF0FBE97
:10422000CDBF0E94ED200E94EE200E945B0B811109
:104230000E94B0208EE9A82E82E0B82E10E000E0A7
:10424000C02E802F0E94450AE82EF501F1905F01F3
:10425000F81609F453C080914C0381FD0E944B0A6B
:104260008F2D8E25D12CFF24F394982F9F2109F4B4
:1042700040C00E94EB20882399F0DE82CF82EF209D
:1042800081E009F480E088870E946B2D8160782F9F
:104290009A8789874E815F8168858A850E94A621D9
:1042A000F801E256FD4F8081F826F0820E94BE138D
:1042B0000E945A1581110E94C3200E945E20909195
:1042C0009D02891791F10E945E2080939D022A969B
:1042D0000FB6F894DEBF0FBECDBFDF91CF911F9117
:1042E0000F91FF90EF90DF90CF90BF90AF900C9424
:1042F0004508D394FF0CF8E0DF12B7CF0F5F1F4FD4
:104300000A30110509F09CCF8FEF89838A831B82C5
:104310000E946B2D8160782F9D838C8349815A8107
:104320006B818D810E94A621C1CF2A960FB6F89489
:10433000DEBF0FBECDBFDF91CF911F910F91FF90D8
:10434000EF90DF90CF90BF90AF900895DF92EF9203
:10435000FF920F931F93CF93DF93CDB7DEB72B97C9
:104360000FB6F894DEBF0FBECDBF7A878B87F42ED1
:10437000052F162FE72ED82E61110E94EB2A1E82E0
:104380001D827E2DEC82DD824F2D502F612F8D2DD1
:104390009E812B960FB6F894DEBF0FBECDBFDF9186
:1043A000CF911F910F91FF90EF90DF900C94C32756
:1043B000FC01808191810C94782ACF93C82F8823A7
:1043C00009F483C08238C1F40E945E2081FD7DC063
:1043D00089E30E94A62A0E94172B2FEF81EE94E01A
:1043E000215080409040E1F700C0000089E30E9426
:1043F000AD2ACF910C94172B8338A1F40E945E2034
:1044000080FD63C083E50E94A62A0E94172B2FEF30
:1044100081EE94E0215080409040E1F700C0000020
:1044200083E5E5CF8438A1F40E945E2082FD4DC073
:1044300087E40E94A62A0E94172B2FEF81EE94E0BA
:10444000215080409040E1F700C0000087E4CFCFCA
:104450008CEF8C0F813A90F46C2F80912C0190910D
:104460002D010E94412C882329F08C2F0E94AD2A17
:104470000E94172B8C2F0E94A62ABBCF80E28C0FA4
:10448000883048F4C77081E001C0880FCA95EAF708
:104490000E94CE2AAECFEBE5EC0FE33040F4F0E023
:1044A000ED51FE4F808190E0CF910C948420C85A4A
:1044B000C73158F4EC2FF0E0EE0FFF1FEB54FE4F26
:1044C00080819181CF910C949A20CF910895882377
:1044D00009F44BC0823871F40E945E2081FF45C010
:1044E00089E30E94A62A0E94172B89E30E94AD2A25
:1044F0000C94172B833859F40E945E2080FF35C03E
:1045000083E50E94A62A0E94172B83E5EFCF84380B
:1045100059F40E945E2082FF28C087E40E94A62AE8
:104520000E94172B87E4E2CF9CEF980F913AF0F2AC
:1045300090E2980F983050F4877091E001C0990F85
:104540008A95EAF7892F0E94D42AD2CF9BE5980F4B
:10455000933020F490E080E00C948420885A8731D6
:1045600020F490E080E00C949A2008951F93CF935C
:10457000DF93182FEB010E94DD21209731F4812F6A
:10458000DF91CF911F910C9467228FE99FE00197F3
:10459000F1F700C000002197F0CF70E060E08933B0
:1045A00011F460E570E00C94B622882321F00E949B
:1045B000CE2A0C94172B0895882321F00E94D42A28
:1045C0000C94172B0895BF92CF92DF92EF92FF9237
:1045D0000F931F93CF93DF936C01D62FC72FFC014E
:1045E0001281058102950F700E94C42AE82E88234B
:1045F000A1F0E12E112389F08C2F807F803429F0E7
:1046000080E28D0FE12C883040F082E00E94622B26
:104610000E94C42A91E0E82EE926BC2EB2949FE0C5
:10462000B922EB2DF0E0E85AF84C0C941C360C2F14
:104630000F70C07F11F00295007F1123A9F00023B5
:1046400059F080E28D0F883010F0D11109C0802F11
:104650000E94CE2A0E94172B8D2F0E94DD2114C0AC
:10466000802F0E94DE2AF6CF8D2F0E946722002322
:1046700059F080E28D0F883010F0D1112CC0802FBE
:104680000E94D42A0E94172B2B2D2850330B243044
:10469000310520F40E945E200E944508EE2009F4B6
:1046A00093C10E94C02A80FD8FC1F60112820E9430
:1046B000BA2A0E944529C6010E9405250E94BA2AED
:1046C000DF91CF911F910F91FF90EF90DF90CF90EE
:1046D000BF900C946629802F0E94E42AD3CFFC2F30
:1046E000FF70FF2EC07FC03219F0F29480EFF822E5
:1046F000DD2369F0D13049F1112391F1002351F10B
:10470000F601858180FFA8CF8F70858323C0112398
:1047100081F0011106C00E94FE2A8F290E94D52235
:10472000B3CF0130C1F70E94FE2A8F290E94042BCB
:10473000ABCF011106C00E940D2B8F2D0E94DC22F1
:10474000A3CF013009F4A0CFF6CF112329F0063012
:1047500008F09ACF8F2DE2CF053008F095CFEDCF3E
:10476000002359F3D93349F4FFEF27EE33E0F1503A
:1047700020403040E1F700C000008D2F0E946722EA
:1047800083CF8C2F86958695837069F0813009F0F0
:104790007BCF8D2F9C2F9370111102C090E080E091
:1047A0000E949A2071CF8D2F9C2F9370111102C0FF
:1047B00090E080E00E94842067CF8C2F837009F006
:1047C00041C0111161CF4D2F429546954770440F5E
:1047D000440F0D2F0F7010E030E020E0042E04C0D5
:1047E000000F111F221F331F0A94D2F760E070E000
:1047F000CB01D4FF0FC06FE070E080E090E004C018
:10480000660F771F881F991F4A95D2F7609570959C
:1048100080959095C695C695C370602B712B822BA1
:10482000932BC23049F058F4C13019F00E94F92896
:104830002BCF0E94E72828CF0E940B2925CF0E946A
:10484000E52822CF8695112311F08C2F81708823C3
:1048500009F41ACF4D2F429546954770440F440FE7
:104860000D2F0F7010E030E020E0042E04C0000F88
:10487000111F221F331F0A94D2F760E070E0CB01B2
:10488000D4FF0FC06FE070E080E090E004C0660FDE
:10489000771F881F991F4A95D2F76095709580956C
:1048A0009095C695C695C370602B712B822B932B68
:1048B000C23049F058F4C13019F00E94BC29E4CE4E
:1048C0000E94AA29E1CE0E94CE29DECE0E941F2995
:1048D000DBCECF70112329F08C2F0E9445298D2F1C
:1048E0001DCF8D2F0E94DC228C2F0E946629CCCEFA
:1048F000D23F89F160F4D03FC9F0D13F29F11123B3
:1049000009F442C00111A8CE8C2F8F7121C0D33F72
:1049100039F1D43FA1F7112369F1CF718C2F0E9497
:10492000452963E08C2F0E944D2BAECE112341F020
:10493000053008F0A9CE8C2F8F710E948929A4CE52
:10494000063008F0A1CEF7CF8C2F8F71112369F2BA
:104950000E94452999CE8C2F8F711123C9F3C5CFA1
:10496000112329F08C2F8F710E9430298DCE0E9447
:104970002B298ACE81E00E94622B023008F484CE7B
:1049800082E00E94622B80CE002359F0D93309F0D7
:10499000F4CE8FEF97EEE3E081509040E040E1F7F6
:1049A000EACE8C2F8F71A1CF4C2F4F706D2FC60187
:1049B0000E944D080E945D2867CE4C2F4F706D2FCE
:1049C000C6010E94500860CEDF91CF911F910F91D8
:1049D000FF90EF90DF90CF90BF9008950F931F93BB
:1049E000CF93DF93EC01688179818A810E94822ACA
:1049F0008C010E94E0290E94E428B801CE01DF91D9
:104A0000CF911F910F910C94E322CF93DF93EC0190
:104A10008B819C81892B29F08881998189238F3F03
:104A200059F4DF91CF910895CE010E94EE24CE017A
:104A3000DF91CF910C944406CE010E94150781119D
:104A4000F3CF0E94C42A882361F38A81882349F323
:104A500082E0DF91CF910C94622B882321F00E9499
:104A6000DE2A0C94172B0895882321F00E94E42A53
:104A70000C94172B089590E080E00E94842090E031
:104A800080E00E949A200E94EB2A0E94FB2A0C944C
:104A9000172B0E94B42A0C943B250E94DB2A0C940D
:104AA0004925E92FE295EF70E250EE3070F4F0E026
:104AB000E859F84C0C941C36803F19F020F4883EDD
:104AC00020F481E00895843FE1F380E00895883E7A
:104AD000C0F3813FD1F7F5CF93FB882780F9089584
:104AE0000E94782A0C945125CF93DF9300D000D0F8
:104AF0000F92CDB7DEB70F900F900F900F900F90E1
:104B0000DF91CF910895CF93DF9300D000D000D0F4
:104B1000CDB7DEB726960FB6F894DEBF0FBECDBF79
:104B2000DF91CF9108951F93CF93DF93C091B5028A
:104B300016E08091B6028C1304C0DF91CF911F91D3
:104B40000895D0E01C9FF0011D9FF00D1124E95441
:104B5000FD4F4081518162817381848195810E94E2
:104B600083252196C770E5CF4091E7025091E80276
:104B70006091E9027091EA028091EB029091EC025F
:104B80000C9483251F93CF93DF938091EC02807F59
:104B9000A9F48091E902882389F08091B502C0913F
:104BA000B6026091E7027091E802A091EA02B0912A
:104BB000EB02D62FD72316E0C81304C0DF91CF91A4
:104BC0001F91089590E0109711F0DF3F19F40196BE
:104BD0008770F2CF189F9001199F300D1124F901B1
:104BE000E954FD4F41814713F2CF40814613EFCF87
:104BF00042814111ECCF438154814A1B5B0B483CFD
:104C0000510528F78091EC028F7080618093EC024F
:104C1000F901E454FD4F80818F708061808387EEBD
:104C200092E00E940525DF91CF911F910C9493256E
:104C3000AF92BF92CF92DF92EF92FF920F931F93AA
:104C4000CF93DF93CDB7DEB761970FB6F894DEBF91
:104C50000FBECDBF8C0185E0F801DE011D960190ED
:104C60000D928A95E1F7F80140815181E28087EE4B
:104C7000C82E82E0D82E6091EA027091EB02611595
:104C8000710509F461C19091E7022091E802892F32
:104C900082238F3F09F458C1A380B480F090E902C9
:104CA000F501E61BF70BFF2009F4FCC08091EC0234
:104CB000382F307FE83CF10508F0B2C0311179C0DF
:104CC000FE2C251323C0941321C0E1101FC08F7048
:104CD00080618093EC020E94B425C6010E940525E4
:104CE0008091EC02F80185838F2D61960FB6F894C0
:104CF000DEBF0FBECDBFDF91CF911F910F91FF900F
:104D0000EF90DF90CF90BF90AF900895AB2829F03F
:104D1000842F85238F3F09F033C180E0F82FF17095
:104D2000DF2E80FF3CC08091B5022091B60236E0B4
:104D3000821315C04D875E878D859E850E94782AD7
:104D4000292F22952F702230F0F0243018F59F7013
:104D5000F1F0F8019581907FD1F4D12C1EC090E044
:104D6000389FF001399FF00D1124E954FD4F618106
:104D7000651306C06081641303C062816E110FC0A9
:104D800001968770D5CF9F7011F0882331F3805E34
:104D9000883018F3C8010E940525FD2CA5CFEE2010
:104DA00009F4A2CF8091EC0281608093EC02F12C97
:104DB0009BCF251306C0941304C0F801EE2009F41C
:104DC0008DC04D875E878D859E850E9470258823C6
:104DD00019F1EE2009F18091EC02803270F02091FF
:104DE000E7023091E80238872F831986BB86AA86AE
:104DF0008C87CE0107960E94052586E0F801A7EE74
:104E0000B2E001900D928A95E1F70E94C2250E94BE
:104E1000B425FF24F39468CFC8010E940525F9CF7B
:104E2000311113C07A2DB98AA88A6E2D89890E9402
:104E3000742587EE92E00E94052586E0F601119226
:104E40008A95E9F70E94B425B2CF25130FC09413B9
:104E50000DC0E1100BC0F8018583C8010E94052533
:104E600086E0F60111928A95E9F73ECF4D875E877D
:104E70008D859E850E947025882371F2EE2061F257
:104E80008091EC02803208F4B8CF2091E702309193
:104E9000E8023A8329831B82BD82AC828E83CE01D5
:104EA0000196A9CFE83CF10508F041C0FE2CEE20A8
:104EB00009F4B2CF25132AC0941328C08091EC02C4
:104EC00080FD1BC0982F907FC1F0F8018583903F33
:104ED00031F0982F907F905F8F70892B8583C80168
:104EE0000E94052586E0F801A7EEB2E001900D9240
:104EF0008A95E1F70E94B425F7CE86E0F801A7EE87
:104F0000B2E001900D928A95E1F7EECE4D875E8773
:104F10008D859E850E94702581116FCF8091EC0256
:104F200081608093EC02C8010E940525DDCE7A2DB8
:104F3000B98AA88A6E2D89890E94742586E0F601B7
:104F400011928A95E9F7D6CFEE2009F465CF4D8707
:104F50005E878D859E850E947025F82E882309F432
:104F60005BCF86E0F801A7EEB2E001900D928A9542
:104F7000E1F787EE92E00E94D8210E94C225BACFC5
:104F800081E08E25CBCE1F93CF93DF93CDB7DEB7D5
:104F90002C970FB6F894DEBF0FBECDBF4F83588756
:104FA00069877A878B879C87CE0107960E9418268F
:104FB000882369F08A859B85892B39F04F81588534
:104FC000842F85238F3F09F071C016E05FC086E013
:104FD000FE013796DE01119601900D928A95E1F758
:104FE0008A859B85892B89F38F81988589238F3FBB
:104FF00061F32091B60230E0C901019687709927CC
:105000004091B5024817190671F40E944D2510927F
:10501000B6021092B50286E0E7EEF2E0DF011D92E3
:105020008A95E9F7D2CF96E0929FD001939FB00D79
:105030001124A954BD4FFE01319601900D929A950D
:10504000E1F78093B6020E949325BFCF819FC001F4
:10505000112489549D4F0E9418268823E9F0E0917D
:10506000B5021E9FF0011124E954FD4F408151818A
:1050700062817381848195810E9483258091B5022C
:1050800090E00196877099278093B5028091B502D0
:105090009091B6028913DACF2C960FB6F894DEBF42
:1050A0000FBECDBFDF91CF911F91089569857A859D
:1050B0008B859C850E94832588CFEF92FF920F936A
:1050C0001F93CF93DF938C01892B81F0F12CEE2479
:1050D000E394E8012196F8018491843770F48430D8
:1050E00008F05FC08130B1F08230A1F1DF91CF9143
:1050F0001F910F91FF90EF900895853709F44CC0F0
:1051000008F43DC09CE7980F903780F78F770E9496
:10511000672249C00E5F1F4FFE01849190E2980FF5
:10512000983060F48770FE2D01C0FF0F8A95EAF772
:105130008F2F0E94EE2A0E94172B02C00E94DD21B1
:105140008F2D815030F2EFE9FFE03197F1F700C089
:105150000000F7CF0E5F1F4FFE01849190E2980F81
:10516000983050F48770FE2D01C0FF0F8A95EAF742
:105170008F2F0E94F42ADFCF0E946722E1CF0E5FBB
:105180001F4FFE01C491C150D8F28FE99FE00197F3
:10519000F1F700C00000F7CF0E5F1F4FFE01F49043
:1051A000CFCF0E94DD218E01CBCF08950C94D5285E
:1051B0000E94D628609323037093240380932503D1
:1051C000909326030C943B2508950C94D8280F93B4
:1051D0001F93009123031091240320912503309104
:1051E0002603602B712B822B932B1F910F910C9414
:1051F000D8280F931F93009123031091240320912B
:1052000025033091260360237123822393231F916A
:105210000F910C94D8280F931F93009123031091A2
:1052200024032091250330912603602771278227CC
:1052300093271F910F910C94D8280C943F050E943E
:105240001D2960931F037093200380932103909383
:1052500022030C943B2560E070E0CB010C941F29E5
:105260000F931F9341E050E060E070E08A019B01E2
:1052700004C0000F111F221F331F8A95D2F7C901E6
:10528000B8011F910F910C941F290F931F9341E0B8
:1052900050E060E070E004C0440F551F661F771FA8
:1052A0008A95D2F780911F0390912003A09121034A
:1052B000B09122038A019B01082B192B2A2B3B2B2F
:1052C000C901B8011F910F910C941F290F931F93CF
:1052D00041E050E060E070E004C0440F551F661FDD
:1052E000771F8A95D2F7CB01BA01609570958095AA
:1052F000909500911F03109120032091210330917C
:10530000220360237123822393231F910F910C9416
:105310001F290F931F9341E050E060E070E004C04C
:10532000440F551F661F771F8A95D2F780911F0380
:1053300090912003A0912103B09122038A019B0147
:10534000082719272A273B27C901B8011F910F9168
:105350000C941F290F931F9300911F03109120039A
:105360002091210330912203602B712B822B932BF0
:105370001F910F910C941F290F931F9300911F03EE
:105380001091200320912103309122036023712387
:10539000822393231F910F910C941F290F931F9326
:1053A00000911F03109120032091210330912203CB
:1053B00060277127822793271F910F910C941F2933
:1053C0000895990F990F990F890F982F977041E0C1
:1053D00001C0440F9A95EAF786958695869595E0E3
:1053E000899FF0011124E351FD4F30E020E070E08F
:1053F0005191DF011197CB01022E02C0969587953E
:105400000A94E2F7817081958527842385278C9300
:105410002F5F3F4F2530310559F70895990F990FA8
:10542000990F890F982F977086958695869525E018
:10543000829FF0011124E351FD4F50E040E080E0F5
:10544000219130E0092E02C0369527950A94E2F7A3
:1054500021703327042E01C0220F0A94EAF7822B11
:105460004F5F5F4F4530510559F70895BF92CF9276
:10547000DF92EF92FF920F931F93CF93DF938C01F4
:10548000C0901F03D0902003E0902103F0902203EE
:105490008091230390912403A0912503B0912603CA
:1054A000C82AD92AEA2AFB2ACFE1D0E0BC2ED701AC
:1054B000C6010C2E04C0B695A795979587950A94BA
:1054C000D2F780FD0EC0219788F7B12C8B2DDF918C
:1054D000CF911F910F91FF90EF90DF90CF90BF90F1
:1054E0000895B8018C2F0E945908019761F3EECFFF
:1054F000CF93DF93EC010E94362ABE01DF91CF915A
:105500000C9459081F93CF93DF93EB019091B40251
:10551000992331F0CB01DF91CF911F910C94782A20
:10552000882379F0CB010E94362A182F682FCE01EC
:105530000E94E129BE01812FDF91CF911F910C9430
:105540005908CB010E940E2A182FF4CF682F8091A2
:105550002C0190912D010C94C12C682F80912C016D
:1055600090912D010C94CC2C80912C0190912D01C7
:105570000C94D72C80912703859585958595089562
:10558000809127038770089590912703977081E099
:1055900009F480E0089580914B03089590914B03A6
:1055A000892B80934B030895809590914B0398230A
:1055B00090934B03089510924B03089590914A03E2
:1055C000892B80934A030895809590914A039823EC
:1055D00090934A03089510924A03089590914903C5
:1055E000892B8093490308958095909149039823CE
:1055F00090934903089510924903089580912803D8
:10560000089508950C94012B90912803981721F088
:10561000809328030C94022B0895809128038823FB
:1056200029F01092280380E00C94022B0895E09159
:105630002C01F0912D0180914B038083E0912C018E
:10564000F0912D01808190914A03892B8083E09114
:105650002C01F0912D01808190914903892B808349
:1056600090912803992381F0E0912C01F0912D0174
:105670008081892B808380912C0190912D010E9443
:105680002D2C81110E940D2B80912C0190912D01C8
:105690000C946A2008950C944A2B98E0899F9001FD
:1056A0001124622B609327030E94452980912703D0
:1056B0008595859585950C944B2B1092270380E05A
:1056C0000C944B2B9091270380958923809327037B
:1056D000282F277071F4282F082E000C330B9217F7
:1056E000130639F08595859585950E9466290C9459
:1056F0005D2B089580E008956FEF7FEF90E080E0EC
:105700000C94053790E080E00E94E13621E08B3E6A
:105710009E4F09F020E0822F089582E090E00C94E3
:10572000D33683E090E00C94D336CF9384E090E0BE
:105730000E94D336C82F81E290E00E94D336982F82
:105740008C2FCF910895CF93C92F682F84E090E0DC
:105750000E94E7366C2F81E290E0CF910C94E736FF
:10576000AB01BC018FE090E00C94F936AB01BC01B9
:1057700083E190E00C94F93660E070E0CB010C948A
:10578000B62B60E070E0CB010E94B02B0C94BC2BD8
:105790006BEE7EEF90E080E00E94053760E082E0F3
:1057A00090E00E94E73660E083E090E00E94E736F8
:1057B00010922303109224031092250310922603C3
:1057C00060E084E090E00E94E73660E081E290E0F3
:1057D0000E94E73660E085E090E00E94E73660E0F6
:1057E00086E090E00E94E7366FEF87E090E00E944D
:1057F000E73640E050E0BA0188E090E00E94F936D8
:1058000060E08DE090E00E94E73640E050E0BA01B1
:1058100088E190E00E94F93660E087E190E00E9424
:10582000E73640E050E0BA018CE190E00E94F936A2
:1058300060E080E290E00E94E73640E050E0BA018C
:1058400088E190E00E94F9360C94C12B0C94C82B8F
:10585000682F8EE090E00C94E736FC013296809140
:105860003801882321F08091FB039EE187FF96E0B9
:1058700080E0915008F4089521912223D1F38F5FA5
:10588000F8CF662301F1209138012223F1F0209115
:10589000FB0327FF1AC0462F4695469546954E3185
:1058A00090F4677021E030E002C0220F331F6A9548
:1058B000E2F7840F911DFC01828190E028233923B7
:1058C00081E0232B69F480E00895FC01329608966C
:1058D0002191261721F0E817F907D1F7F4CF81E0DD
:1058E00008959C01FC0132969FEF80E0419146179C
:1058F00051F09F3F19F4411101C0982F8F5F8630FE
:10590000A9F79F3F09F40895290F311D97FD3A9596
:10591000F90162830895FC013296089621912613BD
:1059200003C0DF0111971C92E817F907B9F7089532
:10593000E62FE695E695E695EE3168F4E80FF92F47
:10594000F11D677021E030E001C0220F6A95EAF78F
:105950008281822B82830895E62FE695E695E6956F
:10596000EE3170F4E80FF92FF11D677021E030E09F
:1059700001C0220F6A95EAF72095828128232283AD
:10598000089520913801222329F02091FB0327FD5F
:105990000C94982C0C94712C20913801222329F01E
:1059A0002091FB0327FD0C94AC2C0C948B2CFC0158
:1059B000329680913801882351F08091FB0387FF54
:1059C00006C08EE1DF011D928A95E9F7089586E011
:1059D000F9CF089508950C94EA2C80910104843045
:1059E00049F10E94EB2C80E00E94450810924D0383
:1059F00088E190E020E40FB6F894A89580936000C9
:105A00000FBE2093600083B7817F846083BF83B71C
:105A1000816083BF7894889583B78E7F83BF0FB6EC
:105A2000F894A8958091600088618093600010923E
:105A300060000FBE08950895CF930E94E92C0E9444
:105A40005B0B0E941B2DC0E08C2F0E94450A811128
:105A500005C0CF5FCA30C1F7CF91089581E0FCCF78
:105A600008950C94302D0E944D250E945E200E94C6
:105A700045080C94312D1F921FB61F9211248F934D
:105A80009F93AF93BF9380914D03811113C0809179
:105A9000F3039091F403A091F503B091F6034196BE
:105AA000A11DB11D8093F3039093F403A093F5031C
:105AB000B093F603BF91AF919F918F911F901FBE3E
:105AC0001F90189582E084BD93E095BD9AEF97BD35
:105AD00080936E0008952FB7F8948091F30390910E
