:100000000C94B3030C94FA030C94FA030C94FA03C3
:100010000C94FA030C94FA030C94FA030C94FA036C
:100020000C94FA030C94FA030C941D2F0C94F12FEA
:100030000C942C290C94FA030C94FA030C94FA03F4
:100040000C94FA030C94FA030C94FA030C94FA033C
:100050000C94FA030C9483290C94FA030C94FA037D
:100060000C94FA030C94FA030C94FA030C94FA031C
:100070000C94FA030C94FA030C94FA030C94FA030C
:100080000C94FA030C94FA030C94FA030C94FA03FC
:100090000C94EE1B0C94FA030C94FA030C94FA03E0
:1000A0000C94FA030C94FA030C94FA030100010077
:1000B00001000100010001000100000001512900C0
:1000C00014001A00080015001700000002512B0050
:1000D00004001600070009000A0000000100E1000A
:1000E0001D001B0006001900050000000100E000D3
:1000F000E200E30001512C4100000000010001007A
:100100000100010001007300010001001C00180043
:100110000C00120013004C002A0001000B000D001F
:100120000E000F0034000000280001000000110044
:10013000100036003700E50052000000000000000B
:100140002A42E6000251500051004F000100005CBD
:100150000100010001000100010000000100350064
:100160001E001F0020002100220000000100C25CD0
:10017000C55CC75CC95CA9002F0000000100C35C1E
:10018000C65CC85CCA5CAA002F0200000100010026
:100190000100010001000100000000000100010059
:1001A0000100010001000100010001002300240002
:1001B0002500260027002D002E0001003000210020
:1001C0002200230033000000010001000000300283
:1001D0001E001F002000010052000000000000006F
:1001E0004C0027000100500051004F0001000100A9
:1001F00001000100010001000100000001003502C2
:100200001E021F0220022102220200000100010042
:100210000100010049004B004A00000001000100FC
:10022000010001004C004E004D00000001000100E3
:100230000100010001004C0000000000010001006D
:10024000010001000100010001000100230224025D
:100250002502260227022D022E02010001000100C4
:100260000100010033020000010001000000010054
:100270000100010001000100520000000000000028
:10028000010001000100500051004F000100010079
:1002900001000100010001000100000001512900DE
:1002A00014001A00080015001700000002512B006E
:1002B00004001600070009000A0000000100E10028
:1002C0001D001B0006001900050000000100E000F1
:1002D000E200E30001512C41000000000100010098
:1002E0000100010001007300010001001C00180062
:1002F0000C00120013004C002A0001000B000D003E
:100300000E000F0034000000280001000000110062
:10031000100036003700E500520000000000000029
:100320002A42E6000251500051004F000000000038
:10033000000000002A2B2800000000000000000040
:100340000000000000000029000000002C1E3420E6
:10035000212224342627252E362D3738271E1F200C
:100360002122232425263333362E37381F04050651
:100370000708090A0B0C0D0E0F1011121314151695
:100380001718191A1B1C1D2F3130232D3504050693
:100390000708090A0B0C0D0E0F1011121314151675
:1003A0001718191A1B1C1D2F3130354C0000000086
:1003B000000000000000000000000000000000003D
:1003C000000000000000000000000000000000002D
:1003D0007E0F00D4FFFFFFC7000000781E0F05004E
:1003E000047F3F1F643214643214783C1E1E140ACA
:1003F000052223252628292A2C2D2F303233353665
:10040000383A3B3D3E4042434547494A4C4E5051A5
:10041000535557595A5C5E6062646668696B6D6FCC
:1004200071737577797B7D7F81838587898A8C8ECF
:1004300090929496989A9C9E9FA1A3A5A7A8AAACD7
:10044000AEAFB1B3B4B6B8B9BBBCBEBFC1C2C3C511
:10045000C6C7C9CACBCCCDCED0D1D2D2D3D4D5D6B3
:10046000D7D7D8D9D9DADADBDBDBDCDCDCDCDCDDE6
:10047000DDDDDDDCDCDCDCDCDBDBDBDADAD9D9D8CA
:10048000D7D7D6D5D4D3D2D2D1D0CECDCCCBCAC962
:10049000C7C6C5C3C2C1BFBEBCBBB9B8B6B4B3B191
:1004A000AFAEACAAA8A7A5A3A19F9E9C9A9896942C
:1004B00092908E8C8A89878583817F7D7B79777501
:1004C00073716F6D6B6968666462605E5C5A5957E0
:1004D000555351504E4C4A4947454342403E3D3B9F
:1004E0003A3836353332302F2D2C2A292826252329
:1004F00022FFAA7F55400001010101010101010114
:1005000002020202020202020203030303030303C4
:100510000304040404040404050505050506060691
:100520000606070707070708080808090909090A4E
:100530000A0A0B0B0B0C0C0C0D0D0D0E0E0E0F0FF3
:100540000F10101111111212131314141515161681
:100550001717181819191A1A1B1B1C1D1D1E1E1FF0
:100560002020212222232424252626272829292A3F
:100570002B2C2D2D2E2F3031323233343536373867
:10058000393A3B3C3D3E3F40414243444546474863
:10059000494A4C4D4E4F50515354555658595A5B39
:1005A0005D5E5F616264656668696B6C6D6F7072D9
:1005B000737577787A7B7D7E8082838587888A8C45
:1005C0008E8F91939596989A9C9EA0A2A3A5A7A979
:1005D000ABADAFB1B3B5B7BABCBEC0C2C4C6C9CB70
:1005E000CDCFD1D4D6D8DBDDDFE2E4E7E9EBEEF026
:1005F000F3F5F8FAFDFF1003530050005F004D00C3
:1006000069006E00690000001C03560069006B0061
:100610007400750073005F0044006500730069009A
:1006200067006E0000000403090409025B00030177
:1006300000A0FA09040000010301010009211101D1
:1006400000012240000705810308000A0904010097
:100650000203000000092111010001222200070508
:1006600082032000010705030320000109040200A2
:100670000103000000092111010001226D0007059E
:10068000840320000A120110010000000844564DA6
:10069000530100010200010660FF0961A101096226
:1006A000150026FF009520750881020963150026B4
:1006B000FF00952075089102C005010980A1018500
:1006C0000319012AB700150126B70095017510819D
:1006D00000C0050C0901A101850419012AA0021519
:1006E0000126A002950175108100C005010906A12F
:1006F000018505050719E029E7150025019508750D
:100700000181020507190029EF1500250195F075F3
:1007100001810205081901290595057501910295C8
:100720000175039101C005010906A101050719E042
:1007300029E71500250195087501810295017508C5
:1007400081010507190029FF150026FF0095067590
:100750000881000508190129059505750191029583
:100760000175039101C011241FBECFEFDAE0DEBF97
:10077000CDBF04B603FE27C08091FA039091FB031E
:10078000A091FC03B091FD038730904BA740B04B84
:10079000D1F41092FA031092FB031092FC03109212
:1007A000FD0314BE84B7877F84BF0FB6F894A89565
:1007B00080916000886180936000109260000FBE9D
:1007C000E0E0F8E3099511E0A0E0B1E0ECECF6E63A
:1007D00002C005900D92AC3EB107D9F723E0ACEE14
:1007E000B1E001C01D92AA3FB207E1F70E94DB2BE6
:1007F0000C9415330C9400005098589A5198599ABB
:100800000C940204859A869A879A0895CF92DF9273
:10081000EF92FF926B017C010E94C106823081F051
:1008200020F4813051F08D9809C0833069F083370E
:10083000D1F78F9A8D9A8E9A0AC08D9A8E9802C09F
:100840008E9A8D988F9803C08F9A8D988E98C70135
:10085000B601FF90EF90DF90CF900895811106C010
:100860008EE4611101C08BE40C94BE1E813029F42A
:1008700089EA6111F9CF8AEAF7CF0895CF93C09141
:10088000EF01CC23E1F09C01245031092A313105DC
:10089000B0F4FB012281222359F0C091EE0121E046
:1008A000C227C093EE01C11106C092600E94CE041F
:1008B0008C2FCF9108950E94BE1EC0E0F9CF8337E0
:1008C000910549F4FB0182818823B9F381E0C827AF
:1008D000C093EF01F2CFC1E0EBCFCF93DF939C0148
:1008E0003A9521153F4168F5EC01CC27D170DC0128
:1008F000AA27B270AC01442754709C01222738709B
:1009000094FF11C080E1CD2B09F480E0AB2B09F0FE
:100910008062452B09F08064232B09F08068FB017D
:10092000DF91CF91099481E0CD2B09F480E0AB2BCE
:1009300009F08260452B09F08460232B81F38860E5
:10094000EECFDF91CF910895CF93DF93EC01805EDE
:100950009109089720F06EE171E2209711F466EC9E
:100960007EE1CE010E946D048C2FDF91CF910C941B
:10097000CE1DCF93DF93EC010E94581ECE01805E06
:100980009109089720F065E271E2209711F46DEC6F
:100990007EE1CE01DF91CF910C946D04CF93DF9374
:1009A000EC010E94A404CE01DF91CF910C94B90414
:1009B00081E008950C943E0408950C94DC041F9388
:1009C000CF93DF9300D000D00F92CDB7DEB749832D
:1009D0005A836B833091A60289819A8131111DC09F
:1009E0006623B9F02223A9F00E942726182F682F2A
:1009F00089819A810E94D22569817A81812F0F9005
:100A00000F900F900F900F90DF91CF911F910C944A
:100A100039170E94FF25182FEFCF0E9427266981E2
:100A20007A81EDCFFC01262F408151816281738153
:100A300084810C94DF04CF93DF93EC0160E00E948B
:100A40001205BE01DF91CF910C94DD048F929F922D
:100A5000AF92BF92CF92DF92EF92FF920F931F93CC
:100A60006B017C0181E090E0A0E0B0E04C015D0111
:100A700004C0880C991CAA1CBB1C4A95D2F7B5016E
:100A8000A4014C015D0104C0880C991CAA1CBB1C6C
:100A90002A95D2F7482959296A297B2904C0880F49
:100AA000991FAA1FBB1F0A95D2F78A019B010C212F
:100AB0001D212E213F21041715072607370789F42A
:100AC0008C299D29AE29BF29BC01CD011F910F9111
:100AD000FF90EF90DF90CF90BF90AF909F908F905E
:100AE000089580959095A095B0958C219D21AE217B
:100AF000BF21EACF0F93382F262F609111037091F9
:100B000012038091130390911403042F432F0E942A
:100B100026050F910C9410250E941C2A0E94732711
:100B2000811102C00E9417280C9410090C9413091B
:100B300008950E943E210E9498052FEF84E39CE0D7
:100B4000215080409040E1F700C000000C94F12952
:100B50000F931F93CF93DF93EC0161E00E94120586
:100B60008C01BE010E941F15882389F1BE01C801B6
:100B70000E94DA04882359F1BE01C8010E9470184E
:100B8000882329F1BE01C8010E94C2188823F9F008
:100B9000BE01C8010E94E5198823C9F0BE01C80141
:100BA0000E947613882399F08A81882339F00115F1
:100BB0008CE5180751F00E3D1C4579F0CE01DF9110
:100BC000CF911F910F910C94D8040E94990580E059
:100BD000DF91CF911F910F9108950E941728F7CFB1
:100BE000DF92EF92FF920F931F93CF93DF93E82F43
:100BF000F0E0E45DFC4FD490282F269526952695AD
:100C000030E0F901E453FC4F0491877010E0082EA6
:100C100002C0159507950A94E2F701701127F901B2
:100C2000E454FC4FE490F12C082E02C0F594E794B4
:100C30000A94E2F791E0E922FF24F901E455FC4F20
:100C4000C491D0E002C0D595C7958A95E2F7C170EE
:100C5000DD270115110519F081EE0E94CE1DE1146A
:100C6000F10419F086EE0E94CE1D8D2D0E94BE1E4D
:100C7000EF2819F086EE0E94581E012B19F081EE24
:100C80000E94581ECD2B51F08CE2DF91CF911F9125
:100C90000F91FF90EF90DF900C94BE1EDF91CF91EB
:100CA0001F910F91FF90EF90DF900895EF92FF92C8
:100CB0000F931F93CF93DF93EC01162F0AE08881E7
:100CC000882309F454C0813009F04EC089818130F5
:100CD00099F47E0122E0E20EF11C8A810E94BE1E80
:100CE000E7012196812F815050F3EFE9FFE0319722
:100CF000F1F700C00000F7CF823041F47E0182E0BE
:100D0000E80EF11C8A810E94CE1DEACF833041F4A7
:100D10007E01E2E0EE0EF11C8A810E94581EE0CFB7
:100D2000843011F02196DDCF2A81229690E080E078
:100D3000AE014F5F5F4F2053330B2A30310548F02F
:100D4000019778F2EFE9FFE03197F1F700C000007A
:100D5000F7CF089FB001099F700D1124C901860FBC
:100D6000971F2981EA01E4CF0E94F005BACFDF91F5
:100D7000CF911F910F91FF90EF90089560E00C9438
:100D80005606CF92DF92EF92FF926C01EE24FF2481
:100D900020E0C114D104E104F10419F0C701B60147
:100DA00020E1C72ED82EE92EFF24C114D104E1047E
:100DB000F10419F0285FC701B6016B017C0154E012
:100DC000F694E794D794C7945A95D1F7C114D104F7
:100DD000E104F10419F02C5FC701B6016B017C013D
:100DE00042E0F694E794D794C7944A95D1F7C1149A
:100DF000D104E104F10419F02E5FC701B601969504
:100E0000879577956795672B682B692B09F02F5F7E
:100E1000822FFF90EF90DF90CF90089508950C946B
:100E20000E0781E008950C941107CF93C82F0E94FC
:100E30000F078C2FCF910C94130790E080E008955A
:100E40000895FC01EE0FFF1FE452FC4F8591949131
:100E50000895CF93DF930E9439170E943508EC0163
:100E6000811520E5920708F041C0811530E4930711
:100E700008F0B4C0803E910518F5803C910508F05B
:100E80009DC0883A910570F4853A910508F08EC0AE
:100E900081309105F9F00097E9F00497D8F4D0E09B
:100EA000C0E018C08F3B9105D0F7C85AD0E0CC0FF6
:100EB000DD1FC15CDE4F0990D881C02DD4640AC00B
:100EC0008115904258F4C11581E0D80718F4C83E46
:100ED000D10528F7CE01DF91CF910895C11590E398
:100EE000D90708F071C0CE019F706AC0811525E551
:100EF000920758F5811534E5930708F09EC08115D7
:100F000042E5940750F4C11581E5D80708F469C09B
:100F1000DC2FCC27C16FD06ADDCF982F96959695A0
:100F20009E0123703327C115D34508F077C0C1E077
:100F3000D0E002C0CC0FDD1F2A95E2F720E2929F9D
:100F4000C0011124C82BD92B67C0C11589E5D8076A
:100F5000A8F4C11598E5D90708F074C0C11526E5B5
:100F6000D20708F09CCF8C2F0E94CC08C82FD0E06D
:100F7000DC2FCC27CC27DF71D062ACCFC1153AE58E
:100F8000D30708F464C0CE0190568115904208F052
:100F900086CF8D2F8F710E94CC0890E0982F8827E4
:100FA00088279F719C012C2BE901E6CFC55AD0E020
:100FB000C359DE4FC881D0E0D0648CCF805C9109EA
:100FC0000E942107EC0186CFCE019927D3FF03C0F1
:100FD000EC01D86C7FCFEC01D06C7CCFDF70D06A95
:100FE00079CFCE01E4E096958795EA95E1F7837095
:100FF0002C2F26952695237090E2299F900111248D
:10100000382B8C2F8370C1E0D0E002C0CC0FDD1FE5
:101010008A95E2F7C22BD32BDC685CCFC1E0D0E02D
:1010200002C0CC0FDD1F2A95E2F730E2939FC0018A
:101030001124C82BD92BDA684DCFD82FCC27C46FF9
:10104000D06A48CFDC2FCC27C06FD06A43CF8C2F1B
:101050008F700E94CC0834E0D695C7953A95E1F799
:10106000CF709C2FEC01D06935CF82389105B1F15A
:10107000B0F48133910509F475C048F489329105C3
:1010800009F469C08A32910509F473C00895853363
:10109000910509F459C08933910501F10895833E02
:1010A0009105A9F138F4803E9105F9F0823E910551
:1010B00049F10895863E9105A9F1873E9105C9F150
:1010C000843E910519F52091EC0321FF1FC080910A
:1010D000EB0384FD14C087EE90E008952091EB03AC
:1010E0002370A1F080EE90E008952091EB0320FDA5
:1010F00047C03091EC0330FF09C024FF44C090E0AA
:1011000080E004C02091EB0322FDF7CF08952091E9
:10111000EB0322FD3BC03091EC0330FDE3CF24FF15
:10112000F5CFEDCF2091EB0323FFF0CF24FDE7CFE8
:10113000D2CF2091EB0323FD2CC03091EC0331FF83
:10114000EECF84EE90E008952091EB0325FFDECFF3
:1011500089E290E008952091EB0325FFD7CF85E346
:1011600090E008952091EB0326FFD0CF8AE290E033
:1011700008952091EB0326FFC9CF81E390E0089505
:1011800089E390E0089583EE90E0089582EE90E088
:10119000089586EE90E008959091EB0392FF06C0CB
:1011A000282F28712830F9F4877F846093FF06C0C8
:1011B000282F28712831F1F4877E84612091EC0377
:1011C00020FF06C0382F38713830D9F4877F81600E
:1011D00021FF06C0282F28712831D1F4877E816134
:1011E00094FD877E0895282F24712430F9F68B7F93
:1011F0008860DCCF282F2471243101F78B7E886131
:10120000DDCF382F3171313019F78E7F8860E0CF14
:10121000282F2171213121F78E7E8861E1CF089539
:101220000C940F0908950C941209E82FF0E0E4598A
:10123000FC4F80810895089580EA8A95F1F708951A
:1012400000C008950C941C09F894E82FE295EF7003
:10125000F0E031A1282F2F7081E090E001C0880FCD
:101260002A95EAF7982F9095932391A392A1892B21
:1012700082A37894089508950F931F93CF93DF93DB
:10128000CDB7DEB762970FB6F894DEBF0FBECDBF05
:101290000E94160B80911601811132C0FE01359615
:1012A00086E0DF011D928A95E9F780EF898385E367
:1012B0008A8384E38B8387E98C8386E98D83CE01DF
:1012C0000196ECE0F1E09E01255F3F4FDC014D917E
:1012D000CD014193A217B307C9F728E0E7E3F1E096
:1012E000DE011B9601900D922A95E1F7FC01A4E026
:1012F000B1E0CE01439621912D93E817F907D9F774
:101300008091160195E0811190E09093770385E03C
:10131000891B809376030CE011E0F80181918F0125
:101320000E942409F1E001311F07B9F704E011E040
:10133000D8018D918D010E942409B1E00C301B076A
:10134000B9F7E2E6F3E0ACE6B3E011921D9283E078
:10135000EC36F807D1F785E00E94B40A0E948C05AC
:1013600062960FB6F894DEBF0FBECDBFDF91CF916E
:101370001F910F910C942B0BFF920F931F93CF9300
:10138000DF9300D000D00F92CDB7DEB70E94000BE4
:10139000F82E60917703882309F450C08E010F5F07
:1013A0001F4F85E0F80111928A95E9F7862F90E0AA
:1013B000B80184599C4F0E940F1A811122C080915C
:1013C000F0018F5F8093F0018630B0F1E0917603F9
:1013D000F0E0E459FC4FD801CE01069611921D921F
:1013E000A817B907D9F70E9496058F2D0F900F9077
:1013F0000F900F900F90DF91CF911F910F91FF9061
:1014000008951092F001A0917603B0E0A459BC4F6A
:101410009E012A5F3F4FF12C4D91F80191918F0170
:10142000491731F0AD0141505109FA019083F82E6E
:101430000217130789F7D7CFF12CD5CF70E0645985
:101440007C4F8091760390E084599C4F0E94681AEB
:101450000E943B09CACFAF92BF92CF92DF92EF9228
:10146000FF920F931F93CF93DF930CE011E082E67E
:10147000E82E83E0F82E91E1A92E91E0B92EC0E08C
:10148000CC24C394D12CF80181918F01F894E82FDA
:10149000E295EF70F0E021A18F70A60102C0440F29
:1014A000551F8A95E2F7CA01922F982B91A392A11A
:1014B0008095892382A378940E942009E4E0F1E0DA
:1014C00030E020E0D0E04191A42FA295AF70B0E0D1
:1014D00090968C9190E04F7002C0959587954A95B3
:1014E000E2F780FD3DC08C2D022E01C0880F0A94CA
:1014F000EAF7D82B2F5F3F4F2830310521F7F8014D
:10150000319780810E9424090E942209F70180817D
:10151000D81741F1D08381E0C82BFFEFEF1AFF0A03
:10152000A016B10609F0AFCF6091770370E064595F
:101530007C4F2C2F45E082E693E00E94B50A0E9482
:10154000BC09C11101C0C82F8C2FDF91CF911F9111
:101550000F91FF90EF90DF90CF90BF90AF900895E4
:1015600080E0C7CF80E0D8CF0895FF920F931F93FC
:10157000CF93DF93F82E092F162FD72FC42F2223B6
:1015800049F081E08093F3010E945C299093F2017D
:101590008093F1018091F3018823A1F08091F10102
:1015A0009091F2010E947429069760F0EF2DF02FC0
:1015B000A12FBD2FCE0FDF2FD11DEC17FD0741F45A
:1015C0001092F301DF91CF911F910F91FF90089539
:1015D00081918D93F2CF88EC9091E30097FD0EC03E
:1015E000EFE3FCE93197F1F700C000008150A1F76B
:1015F0000E94A22E1092F10380E0089581E00895E8
:101600008091F401811107C00E94EB0A81110AC088
:1016100082E08093F40181E09091F401913009F02F
:1016200080E0089581E0F5CF0C94000B0E94140B2C
:1016300080931601809116016CE0882349F080E0C8
:101640000E94CB0B0E94000B882321F00C948E1A71
:101650008CE0F6CF08950E94000B811102C00C941B
:10166000901A0895EF92FF920F931F93CF93DF93F9
:10167000EB01E82FD11110C0442321F0F0E0EA5033
:10168000FB4FE4916E2F7E2F8E2FDF91CF911F9114
:101690000F91FF90EF9008950D2F10E0282F30E06C
:1016A000442329F02A503B4FF901249130E0F6E021
:1016B000CF9FC0011124EFEFF0E0BF010E94BD31C8
:1016C000AB018C2F90E0880F991FA5E5A49FB00176
:1016D000A59F700D1124861B970B982F990F980FBB
:1016E000BF01601B710B629FD001639FB00D729FA1
:1016F000B00D11248B2F9D9FB0011124672F7727E8
:10170000EF01C61BD70BBE01629FE001639FD00DA6
:10171000729FD00D11247F01E91AF108E09EB001FB
:10172000E19E700DF09E700D1124672F7727E61B48
:10173000F70BE29F8001E39F100DF29F100D112423
:10174000E12F722F4230510599F048F441155105AF
:1017500069F04130510581F0EB2F8D2F07C04430E7
:10176000510569F080F046305105B1F76E2F8DCFED
:10177000E22F7B2F812FFACFE22F7D2FF7CFEB2F98
:10178000822F712FF3CF7B2F822FED2FEFCF41E0F0
:101790000C94320B0895EAE1F1E0808361830895AF
:1017A0000C94C70BCF93DF93762FE901682F842F1A
:1017B0000E94D00B798368838A83DF91CF9108954B
:1017C00080917803982F9E7F29F4817082608093A6
:1017D000780308958635E8F381708465F8CF88E052
:1017E00090E00C94B632CF92DF92EF92FF926B01B1
:1017F0007C010E94E00BB701A60188E090E0FF9019
:10180000EF90DF90CF900C94D43260917803709178
:10181000790380917A0390917B030C94F30BE8E7B2
:10182000F3E083E0808311828FEF828383831482CD
:10183000AAE7B2E012968C911297836012968C936D
:1018400060817181828193810C94F30B8091780384
:1018500080FF02C08695089580E0089590917C03F2
:10186000933018F49F5F90937C03882351F060912C
:1018700078037091790380917A0390917B030C94A3
:10188000F30B089581E00C942E0C90917C03992326
:1018900019F0915090937C03882351F06091780364
:1018A0007091790380917A0390917B030C94F30BF0
:1018B000089581E00C94450C80917C0308958093F9
:1018C0007C03662351F060917803709179038091D5
:1018D0007A0390917B030C94F30B089560E00C94D1
:1018E0005F0C80917903089580917A030895809127
:1018F0007B03089570E00C94E51360911B018091C7
:10190000780380FF0AC080911A0123E0829FC00102
:10191000112483589C4F0C947A0C80911C01909157
:101920001D0123E0829FF0011124E358FC4F891729
:1019300050F71182108212828F5F3396F8CF909108
:10194000780390FF14C090911C0120911D0133E099
:10195000939FF0011124E358FC4F921710F00C9460
:101960007D0C8183608342839F5F3396F6CF089519
:10197000CF93DF9300D00F92CDB7DEB7909178036D
:1019800090FF0AC09E012F5F3F4F0E94D20B4B81F8
:1019900069818A810E949F0C0F900F900F90DF91B8
:1019A000CF910895CF93DF93EC01EC81F0E0EF50FD
:1019B000FC4F4491E8E7F3E0628181810E94B80C1A
:1019C0008C818F5F8C83DF91CF910895CF93DF93CC
:1019D000EC01E8E7F3E0438162818C810E94B80C5E
:1019E0008C818F5F8C83DF91CF9108950F931F932C
:1019F000CF93DF9300D00F92CDB7DEB78C018091EB
:101A0000F50181110AC09E012F5F3F4F4FEF6FEF2D
:101A10000E94D20B8A818093F501F80164816130C4
:101A200069F08091F50140E0662361F040E06230AA
:101A300011F44091F50180E060E004C06091F5018F
:101A400040E080E00E949F0CF801848190E00196C4
:101A500063E070E00E94D13184830F900F900F906B
:101A6000DF91CF911F910F910895AF92BF92CF92C6
:101A7000DF92EF92FF920F931F93CF93DF9300D0EB
:101A80000F92CDB7DEB7182FF62E042FE22E9091CD
:101A9000780390FF3AC0E92FE695AE2FB0E0A05949
:101AA000BE4F8C9180937A029E7F9230E1F59E0129
:101AB0002F5F3F4F812F0E94D20B4B8169818A811A
:101AC0000E949F0C80917903811308C080917A0352
:101AD0008F1104C080917B03801729F080917C02D4
:101AE000826080937C0210937903F0927A030093D2
:101AF0007B03EE2051F0609178037091790380911F
:101B00007A0390917B030E94F30B0F900F900F903C
:101B1000DF91CF911F910F91FF90EF90DF90CF90C9
:101B2000BF90AF900895823019F400917B03CACF23
:101B3000863019F410917903C5CF8930D9F38931F2
:101B400009F6E9518E2F8170D82EE695F0E0EF501E
:101B5000FB4FA590B490C12CBB2460911E01C6160A
:101B600018F00E947D0CAECF2C2D30E0A29EC0015B
:101B7000A39E900DB29E900D112470E00E94BD3185
:101B8000812FD11013C0860F40911C01420F532F9B
:101B9000511D9A01220F331F240F351F23583C4F2C
:101BA000402F6F2D0E94D20BC394D7CF861BECCF52
:101BB000E8E7F3E09181282F4381628188E0890F73
:101BC0000C94350D81E00C94D80DE8E7F3E0918199
:101BD000282F4381628188EF890F0C94350D81E0B5
:101BE0000C94E50DE8E7F3E0628121E1620F08F46F
:101BF0006FEF282F438181810C94350D81E00C9487
:101C0000F20DE8E7F3E0628121E1621B08F460E095
:101C1000282F438181810C94350D81E00C94010EB5
:101C2000E8E7F3E0438121E1420F08F44FEF282F6A
:101C3000628181810C94350D81E00C94100EE8E7EF
:101C4000F3E0438121E1421B08F440E0282F628148
:101C500081810C94350D81E00C941F0E20E00C94D2
:101C6000350DEF92FF921F93CF93DF93EC0110E0BD
:101C7000EE24EA94F12C60911E01161770F00E9478
:101C80007D0C9A818C8190FF27C08F5F8C83DF91C0
:101C9000CF911F91FF90EF90089520911C01422F4A
:101CA000410F5527551FCA019A01220F331F280FD4
:101CB000391F23583C4F70E0C7010E94D131962F45
:101CC0008C8140917B0360917A03199F800D1124D0
:101CD0000E94D20B1F5FCFCF8150D8CF8F929F929F
:101CE000AF92BF92CF92DF92EF92FF920F931F932A
:101CF000CF93DF93EC018A81BB24BA9480FD02C0AC
:101D0000BB24B3948C8181110AC081E0B8122AC02F
:101D100080911E0181508093F70181E08C83A12C7A
:101D200048E1942E80911E01A816F8F00E947D0CC7
:101D30008091F70191E0B91261C081115AC0809180
:101D40001E0181508093F7011C82DF91CF911F917A
:101D50000F91FF90EF90DF90CF90BF90AF909F904A
:101D60008F9008951092F701D8CF00911C01CA2CD2
:101D7000D12C0C0D1D2D111DC801880F991F080FA6
:101D8000191F03581C4FF80111821082128234E08F
:101D9000E32EF12C812C8091F701880D89311CF103
:101DA000692D0E94AF31892F082E000C990BC8169F
:101DB000D90691F480917B038E9DA0018F9D500DDB
:101DC00011245595479555954795980160917A034B
:101DD000809179030E94D20B8B0CF1E0EF1AF1088D
:101DE000D1F6A3949FCF87FFDFCF90911E01890F7B
:101DF000DBCF81508093F701BC82A7CF90E00196A2
:101E000060911E0170E00E94D1318093F7018C83B4
:101E10009CCFEF92FF920F931F93CF93DF93EC0130
:101E20008C81811109C081E08C831092F60192E0CF
:101E3000909319018093180180911C0190911D01CC
:101E400023E0829FF0011124E358FC4F891768F1C9
:101E500010E003E060911E01161768F10E947D0CEE
:101E6000809118012091F601280F2093F60190919E
:101E70001901980F90931901191654F4022E000CB1
:101E8000330B40911E014150550B2417350734F098
:101E9000819580931801813009F41C82DF91CF91E4
:101EA0001F910F91FF90EF9008951182108212827E
:101EB0008F5F3396CBCFE12EF12C70E0C7010E94EB
:101EC000D13120911C01820F482F50E02091F60162
:101ED000022E000C330BE216F306BCF02091190120
:101EE000022E000C330B2E153F057CF0809F9001D5
:101EF000112423583C4F40917B0360917A038091D9
:101F000079030E94D20B1F5FA5CFFA01EE0FFF1FCE
:101F1000E40FF51FE358FC4F118210821282F3CFB9
:101F20008F929F92AF92BF92CF92DF92EF92FF92E9
:101F30000F931F93CF93DF93EC014C81042F10E09C
:101F40009801D8010E941C329B01AC010E943232E0
:101F50004B015C01E0E2F0E0E01BF10BA5E5B0E035
:101F6000AC019B010E9432326B017C019F01DF01B9
:101F70000E9414329B01AC010E943D329B01AC01D6
:101F8000280D391D4A1D5B1DC701B6010E94E531B0
:101F9000F22E822F90E039E23F1560F143E0249F5A
:101FA0009001112435952795122F109500E085E5B5
:101FB000E82EEF1880911E01081758F10E947D0C41
:101FC0009C8181E0992319F0903219F48FEF80936E
:101FD000170180911701890F8C83DF91CF911F9199
:101FE0000F91FF90EF90DF90CF90BF90AF909F90B8
:101FF0008F90089525E530E0B901681B790B9B01AE
:10200000220F331F260F371F37FFCCCF2F5F3F4FD5
:10201000C9CF8E2D01FD8F2D20911C01622F600FE5
:102020007727771F9B01220F331F260F371F235857
:102030003C4F412F60917A030E94D20B0F5FBACFC1
:102040000F931F93CF93DF93EC0110E000E090918A
:102050001E019017110609F06CF40E947D0C8C8112
:1020600090E00196817099278C83DF91CF911F9129
:102070000F91089520911C01A801420F511D9A0152
:10208000220F331F240F351F23583C4F4C81609182
:102090007A038091790396959017110651F04CF0D0
:1020A000442349F040917B030E94D20B0F5F1F4FE6
:1020B000CECF4423B9F340E0F7CF4F925F926F92B7
:1020C0007F928F929F92AF92BF92CF92DF92EF92C8
:1020D000FF920F931F93CF93DF93FC0162804480A4
:1020E00081E08483E1EFF3E07490E0E7F4E0E491D1
:1020F000812C75E0972EF2E0CF2EDD24D394AA2414
:10210000AA94B12C55245A94E7190E2F10E080910F
:102110001E01881690F0DF91CF911F910F91FF90D3
:10212000EF90DF90CF90BF90AF909F908F907F9077
:102130006F905F904F900C947D0CE82CF12C82E016
:10214000861568F09E9CF0019F9CF00D1124E550CF
:10215000FE4F80917903808380917A0381834110BF
:1021600023C09E9CF0019F9CF00D1124E550FE4F72
:102170001382128220911C01C701820F911D9C01C4
:10218000220F331F280F391F23583C4F9E9CF0010C
:102190009F9CF00D1124E550FE4F428161818081AA
:1021A0000E94D20B8394B3CF9E9CE0019F9CD00DE4
:1021B0001124C550DE4F8B818823E9F081508B8339
:1021C000859DC00111246C8170E00E94BD31FB012E
:1021D000FF27EF50FC4F8491E82FE719E59DC001E0
:1021E0001124B8010E94BD3180917B03689FB0012A
:1021F00011247A83BFCF0E94913220917B032695D0
:1022000021582C9DA0012D9D500D1124452F55279F
:10221000841795070CF0AECF82E0861588F40E94F3
:102220009132B5010E94D13188830E949132209170
:102230007A032695622F70E00E94D131280F2983FE
:102240009E9CF0019F9CF00D1124E550FE4F1282E0
:1022500080917B03893C58F088EC9E9CF0019F9C08
:10226000F00D1124E550FE4F8483838383CF8431A6
:10227000A0F784E1F2CF80917C02089510927C0255
:10228000089525E0E8E7F3E0DC0101900D922A953E
:10229000E1F720917A0230917B0240917C02FC01AF
:1022A0002583368347830895EAE7F2E0118282812D
:1022B000846082830895E8E7F3E080818E7F8083E5
:1022C0000E945411EAE7F2E08281816082832FEF5D
:1022D00080E792E0215080409040E1F700C000008C
:1022E0000C947D0CE8E7F3E080818E7F8083608131
:1022F0007181828193810E94F30B0E945411EAE75D
:10230000F2E08281816082832FEF80E792E02150AA
:1023100080409040E1F700C000000C947D0C60917B
:102320007803669570E04BE050E08FE191E00E9409
:10233000A132892B19F481E080937B020E94E82965
:10234000909374028093730280917C0284608093E6
:102350007C0208959091780390FF3AC091708111AA
:102360002DC092609093780380917C02816080936D
:102370007C02662351F0609178037091790380911B
:102380007A0390917B030E94F30B6091780366952A
:1023900070E04BE050E08FE191E00E94A132892B88
:1023A000A1F00E94541181E08093760240917B035A
:1023B00060917A03809179030C942E0E8B3210F089
:1023C0009465D0CF880F982BCDCF0E948F11EBCF83
:1023D0000895682F90917803969581E0890F8B324C
:1023E00008F081E00C94AA1181E00C94E911682FA7
:1023F0009091780396958FEF890F09F48AE20C94F7
:10240000AA1181E00C94F71161E00C94AA11E8E79D
:10241000F3E080818160808386950C940412809122
:10242000780380FD0C9472110C94071260E00C94F8
:10243000AA1180917902811133C00E947327811102
:1024400004C00E9417280E940F0C0E94EF0B60939B
:1024500078037093790380937A0390937B03809140
:102460007C02836080937C026E7F61F40E940F0C7B
:102470000E94EF0B609378037093790380937A0343
:1024800090937B030E94E00B0E945411809178038B
:1024900080FF03C086950E94161281E08093790226
:1024A0000895E8E7F3E080818160808386950C944D
:1024B00016121F93CF93DF93EC01162F8F8180FFAD
:1024C0000CC0888180FF24C0809178038160809354
:1024D0007803888186950E94AA118F8181FF06C0AA
:1024E000212F4B816A8189810E94350D8F8182FF66
:1024F00005C08E81882379F00E948F118F8183FF20
:1025000003C081E080937602DF91CF911F910895FF
:102510000E945B11E2CF0E945411F0CFEF92FF9224
:102520000F931F93CF93DF9380917B02882309F44D
:1025300062C080917A02E0917803E695E81BE0930F
:102540007502823009F05EC0F0E0E351FC4FE49187
:10255000CE2FD0E002ED1CE080917602882361F05E
:10256000109276020E94E82990937402809373027D
:1025700010927802109277020E94E829E09173028B
:10258000F09174029C012E1B3F0B2F3F3F4798F5A3
:102590002091FA012223B1F01092FA012091F80162
:1025A0003091F901821B930B8F3F9F4758F4205DB8
:1025B0003A483093F9012093F80180917C028860B9
:1025C00080937C02E0907702F0907802EC0FFD1F80
:1025D000F0937402E093730283E792E0F8010995A7
:1025E0008091770290917802892B29F4EF2819F0D5
:1025F00081E08093FA01DF91CF911F910F91FF90BD
:10260000EF900895863049F4F0E0E651FC4FE491F4
:10261000CE2FD0E006EE1CE09FCF893051F4E69536
:10262000F0E0E951FC4FE491CE2FD0E001E31EE051
:1026300093CF8F3051F4E695F0E0EC51FC4FE491EC
:10264000CE2FD0E00EE61EE087CF853149F4F0E0D2
:10265000EF51FC4FE491CE2FD0E009E01FE07CCF9A
:10266000C8E2D0E000E91FE0883109F475CF833279
:1026700039F4EFEDF3E0C591D49106EF1CE06CCF97
:10268000C4EFD1E000E210E1843209F465CFC0ED7F
:10269000D7E00AEC1BE0853209F05ECF8E2F63E0B5
:1026A0000E94A331E92FF0E0E452FC4FE491CE2FD9
:1026B000D0E00DE510E150CFFA01811101C0FB011E
:1026C0000994CF93DF93C82FD62F0E94260C8C1726
:1026D00040F00E94260C8D1720F4DF91CF910C94CE
:1026E000F4118C2FDF91CF910C9404121F93CF9390
:1026F000DF93EC01FB011281111110C00E94BC2676
:102700008272FE01E25CFC45E431F10508F05BC039
:10271000E95EFC4C0C9407320E940F12812FDF916E
:10272000CF911F91089541E052E164EF71E10E9461
:102730005C13F4CF44EF51E161E072E1F8CF4FEE6A
:102740005DE062EE7DE0F3CF42EE5DE06FEE7DE0B6
:10275000EECF4DE05EE06EEF7DE0E9CF4EEF5DE065
:102760006DE07EE0E4CF4BE25EE06CE17EE0DFCF47
:102770004CE15EE06BE27EE0DACF49E55CE062E4EA
:102780007CE0D5CF42E45CE069E57CE0D0CF81E03D
:102790000E940412C3CF65E082E00E946113BECFA5
:1027A00068E086E0FACF6EE089E0F7CF64E18FE081
:1027B000F4CF67E185E1F1CF88E1EACF62E289E118
:1027C000ECCF83E2E5CF11E0A9CF6E9A4EB14F7BFB
:1027D0005EB15064EFB7F8949B01220F331F260FB0
:1027E000371F280F391F2817390741F4EFBF8FE52E
:1027F00094E00197F1F700C000000895DC016D91AD
:10280000CD0178E05EB9000000C067FF4EB9660FE9
:10281000000000C000C000C04EB900C07A9591F71A
:10282000E2CF0C942E0484988C9A8198899A8FB167
:102830008295817079990EC090E0892B80938202F5
:102840009091160181E0982790937E02891B8093D6
:102850007D02089592E0F1CFCF93E0918202EE0FD6
:10286000EE0FE09382024FB144FB882780F94FB10D
:1028700041FB222720F941FF02C022E030E0822BF9
:10288000E82BE0938202C0917E02EF70F0E0E55603
:10289000FE4F808190918102890F8093810220E018
:1028A000883074F0EC2F0C2E000CFF0BE158FD4F1C
:1028B00080818F5F808360E08C2F0E94111421E063
:1028C00080918102893F74F4EC2F0C2E000CFF0BD9
:1028D000E158FD4F80818150808361E08C2F0E9400
:1028E000111421E080918102082E000C990B68E000
:1028F00070E00E94D13180938102822FCF910895A0
:10290000E0917E02F0E0E158FD4F2081FC01208340
:102910000895FF920F931F93CF93DF93D0917D0281
:102920000D2F10E001581D4FFC01C081F80180817E
:10293000C81BFC2E80E01F147CF09C2FC7FD90E08C
:10294000C91BC11114C08823E9F0DF91CF911F91F9
:102950000F91FF900C94B41CFA94F80180818F5F62
:10296000808360E08D2F0E94111481E0E4CFCF5F5F
:10297000F80180818150808361E08D2F0E941114C5
:1029800081E0DFCFDF91CF911F910F91FF900895EC
:1029900082E290E00E94AE32813289F483E290E0DC
:1029A0000E94AE32873059F484E290E00E94AE3249
:1029B00091E0893209F090E0892F8170089580E0DC
:1029C000FCCFCF93C82F6FEF811161E282E290E0DC
:1029D0000E94C2326FEFC11167E083E290E00E9473
:1029E000C2326FEFC11169E284E290E0CF910C94A2
:1029F000C23280E00E94E1140C946D27089585E2B4
:102A000090E00E94AE32682F70E090E080E0089580
:102A100085E290E00C94C2320E94FE140E94C81419
:102A200081110CC060E070E0CB010E9408150E948B
:102A3000B1160E949D1781E00C94E1140895CF9384
:102A4000FB01C281CC2309F19C0122513F45203179
:102A5000310520F582510E94AD17C0E08C2FCF9137
:102A6000089581E00E94362543E062E081E00E9403
:102A70007A05F3CF81E00E94572543E062E081E0D0
:102A80000E947A05EBCF82E0F6CF8031FFE59F0709
:102A900089F381319F45B9F3C1E0E0CF8031EFE5A3
:102AA0009E07F9F281319F45C9F682E0DBCF2FEF17
:102AB000FC0120830895CF93DF93EC018881813856
:102AC000A9F028F4803871F0DF91CF910895823811
:102AD00081F08338C9F70E94710C89830E94740CBD
:102AE0008A83F2CF0E94770C8983EECF0E94260C56
:102AF000FBCF0E945C0CF8CFCF93DF93EC01888171
:102B00008138E1F028F4803869F0DF91CF910895A1
:102B1000823811F18338C9F70E94770C482F6A81F7
:102B2000898108C0D9810E94740CC82F0E94710C41
:102B30004D2F6C2FDF91CF910C942E0E89810E9426
:102B400016128981811104C0DF91CF910C945B1121
:102B5000DF91CF910C9451128981DF91CF910C9428
:102B60006E0CEF92FF920F931F93CF93DF93EC01C4
:102B7000062FDC01ED91CD01E150E33108F0ADC04D
:102B8000F0E0E55DFC4C0C940732198289E08A8301
:102B9000602FCE01DF91CF911F910F91FF90EF90A9
:102BA0000C94D02A8981823069F0833071F08130B1
:102BB000D9F40E9468290E940D326A837B838C833A
:102BC0009D83E6CF0E94FF14F6CF7E01B2E0EB0EAC
:102BD000F11C10E0812F0E941509F70181937F01FC
:102BE0001F5F1A30B9F7D4CF602FCE010E9457155E
:102BF000CFCF89818230C1F76A817B818C819D81B1
:102C00000E940D320E940815C3CF4B816A818981D1
:102C10000E9483169827892798279D838C83B8CF95
:102C20002C813D813227232732274B816A8189817C
:102C30000E949C16ADCF0E94B116AACF0E947C15AF
:102C4000A7CF0E945B15A4CF0E94050CA1CF0E94C4
:102C5000461789839DCF0E94481798278927982770
:102C60009A83898395CF6B8170E089819A81AE01C7
:102C70004C5F5F4F9827892798270E944B1788CF72
:102C80006B8170E089819A81AE014C5F5F4F98271C
:102C9000892798270E9472177BCF0E949D1778CFB3
:102CA0000E947016D6CF6B8170E089819A81AE0147
:102CB0004C5F5F4F9827892798270E94E91668CFB5
:102CC0006B8170E089819A81AE014C5F5F4F9827DC
:102CD000892798270E940F175BCF8FEF888358CFE3
:102CE00084E0089590E1699FB001112450E0440F01
:102CF000551F640F751F90EA899F600D711D112487
:102D0000CB01869608950F931F93CF93DF930E9474
:102D100072168C010E94AE32C82FD0E0DC2FCC2777
:102D2000C80101960E94AE329E01282BC901DF9195
:102D3000CF911F910F9108950F931F93CF93DF931E
:102D4000122F032F0E947216EC01602F0E94C232D4
:102D5000612FCE010196DF91CF911F910F910C94BD
:102D6000C232AF92BF92CF92DF92EF92FF921F9347
:102D7000CF93DF938CEAC82E80E0D82ED0E0760186
:102D8000C0E014C0F50125913491412F6C2F8D2F97
:102D90000E949C1682E0A80EB11C1F5F183091F7AC
:102DA00080E1E80EF11CCF5FCA3019F0570110E046
:102DB000E9CFDF5F80EAC80ED11CD43001F7DF9184
:102DC000CF911F91FF90EF90DF90CF90BF90AF9089
:102DD0000895EF92FF920F931F93CF93DF93EC012F
:102DE0008A017C01E60EF71ECE018696CE15DF0520
:102DF00039F4DF91CF911F910F91FF90EF900895DB
:102E0000C03822E0D20740F40E94AE32F80180833D
:102E10000F5F1F4F2196E8CFF8011082F9CFCF92B4
:102E2000DF92EF92FF920F931F93CF93DF937C017A
:102E30006A018C01060F171FEC01CE018696C017A0
:102E4000D10749F4DF91CF911F910F91FF90EF903F
:102E5000DF90CF900895C03822E0D20740F4FE0101
:102E6000EE19FF09EC0DFD1D60810E94C232219612
:102E7000E4CF462F843038F47A3028F4683018F4E0
:102E8000672F0C94831690E080E0089580E1089508
:102E90008AE591E00895EF92FF920F931F93CF93ED
:102EA000DF93EC018A017C01E60EF71ECE018A5504
:102EB0009D4FCE15DF0539F4DF91CF911F910F9112
:102EC000FF90EF900895CA3521E0D20740F40E94A8
:102ED000AE32F80180830F5F1F4F2196E7CFF801D4
:102EE0001082F9CFCF92DF92EF92FF920F931F9350
:102EF000CF93DF937C016A018C01060F171FEC0151
:102F0000CE018A559D4FC017D10749F4DF91CF916B
:102F10001F910F91FF90EF90DF90CF900895CA35E9
:102F200021E0D20740F4FE01EE19FF09EC0DFD1D72
:102F300060810E94C2322196E3CFCF93DF93C6EA2D
:102F4000D2E060E0CE010E94C2322196C11584E039
:102F5000D807B9F7DF91CF910895DF92EF92FF92F2
:102F60000F931F93CF93DF9300D000D0CDB7DEB780
:102F7000F82E8FE08F1540F08FEF93E00E94AE3275
:102F800006EA12E08823C1F00F900F900F900F9087
:102F9000DF91CF911F910F91FF90EF90DF900895F7
:102FA000011584E0180781F3C8010E94AE32811137
:102FB00001C0FA940F5F1F4FF110F2CF19821A82ED
:102FC0001B821C82DD24D39478018FEFE81AF80A63
:102FD000C8010E94AE3289831A828823A9F29FEF2A
:102FE000980F933078F48A83D9820E5F1F4FC70100
:102FF0000E94AE328B83882339F2CE0101960E9463
:10300000BE06E2CF8701F9CF0F931F93CF93DF93D3
:10301000C42FD22FFC0182818823C9F040938502FE
:103020000E945C29909384028093830280E28C0F3B
:10303000883008F050C0C77081E001C0880FCA9581
:10304000EAF7DF91CF911F910F910C94C61E10915A
:103050008502141335C080918302909184020E94EE
:103060007429883C910560F5C0E2CD0F1D17B9F0B9
:1030700080E2810F883040F4177081E001C0880F32
:103080001A95EAF70E94CD1EC83048F481E09D2FC2
:10309000977001C0880F9A95EAF70E94C61E802F8C
:1030A0000E94BE1EC830B8F4D77081E001C0880FFE
:1030B000DA95EAF7DF91CF911F910F910C94CD1E15
:1030C00080E28C0F883038F4C77081E001C0880F2F
:1030D000CA95EAF7EFCFDF91CF911F910F91089535
:1030E0000F939C01CB01233F4CE5340759F1A8F421
:1030F000283DFCE53F0701F1293D4CE53407D1F1BE
:10310000273D3C4591F406E221EE41EE67ED7CE57A
:103110000E94041880E00F910895253FFCE53F07C9
:10312000E9F0B0F0263F3C45F9F0FC0182818823AC
:1031300039F110928502EFCF07E225EE45EE68EDFA
:103140007CE5E6CF06E221EE40EE63EF7CE5E0CFE2
:1031500007E225EE44EE64EF7CE5DACF06E221EEED
:1031600042EE65EF7CE5D4CF07E225EE46EE66EF52
:103170007CE5CECF08E221E045EE69ED7CE5C8CFE5
:1031800081E0C9CFCF93DF93EC01FB0182818823DB
:1031900009F419C1C230FCE5DF07C0F1C6319CE576
:1031A000D90730F09E012A5F3C452930310570F582
:1031B0000E9486279093EC038093EB03C031ECE5EB
:1031C000DE0709F4CFC008F05BC0C8308CE5D80733
:1031D00009F4B6C088F5C430ECE5DE0709F4A8C0F0
:1031E000C0F4C2308CE5D80709F49CC08091EB0391
:1031F0008260C330DC4509F498C08091EB03909164
:10320000EC030E9494270E943E2180E0DF91CF9141
:1032100008958091EB038061C630ECE5DE0709F488
:1032200084C08091EB038860C730DC4508F47DC022
:103230008091EB03806279C0CC308CE5D80709F42B
:1032400089C070F48091EB038C60CA30ECE5DE0736
:1032500009F46BC008F478C08091EB038E7F65C0E1
:10326000CE308CE5D80709F479C08091EB038B7FD1
:10327000CF30DC4508F459C08091EB038F7E55C0F8
:10328000CB3FECE5DE0709F457C030F5C3318CE5E0
:10329000D80709F46FC078F4C131ECE5DE0709F412
:1032A00065C0C231DC4509F0A8CF0E943E21809163
:1032B000EB038F773AC0C5318CE5D80709F462C0BB
:1032C00008F476C08091EC038160CA3FDC4509F0C8
:1032D00094CF8093EC0391CFCF3FFCE5DF0709F457
:1032E0004DC088F48091EC038D7FCD3F9CE5D907DC
:1032F00081F38091EC038E7FCE3FDC4550F38091CB
:10330000EC038360E6CFC130FDE5DF0709F459C067
:1033100008F444C080E0C230DD4509F06ECF0E9461
:1033200019286BCF8091EB0381608093EB0365CF0D
:103330008091EB038460F9CF8091EC038260C9CF68
:103340008091EB038064F1CF0E943E218091EB03DA
:103350008068EBCF8091EB038D7FE7CF8091EB030B
:10336000877FE3CF8091EB038F7DDFCF8091EB03ED
:103370008F7BDBCF8091EB03837FD7CF8091EC03F2
:103380008C7FA7CF8091EB0382FB992790F921E0F6
:10339000922790FB82F990FB83F9C7CF8091EC03D1
:1033A000982F909591708E7F892B90FB81F991CF0A
:1033B0000E943E219091EB03892F97FB87F980585B
:1033C000B4CF81E0ACCF81E021CFCF93DF93EB018D
:1033D00086319C4511F50E94BC269A81992399F06B
:1033E0008A7A91E009F490E090938602811109C0F5
:1033F00089E20E9497260E94082780E0DF91CF9102
:10340000089585E3F6CF80918602811104C089E298
:103410000E949E26F0CF85E3FBCF81E0EFCF0F9394
:103420001F93CF93DF93CDB7DEB728970FB6F894ED
:10343000DEBF0FBECDBFAB0104E610E025E030E0FB
:1034400064E082E30E94991B0E943B11882381F073
:10345000CE0101960E94411128E030E0AE014F5F9D
:103460005F4F69E082E30E946C1B97FF0E943E1150
:1034700004E610E021E030E046ED53E061E182E354
:103480000E94991B86ED93E00E9489140E94CD2929
:103490006E5F7F4F8F4F9F4F6093C5037093C6033E
:1034A0008093C7039093C80324E030E045EC53E0D9
:1034B00060E082E30E946C1B81E028960FB6F894CE
:1034C000DEBF0FBECDBFDF91CF911F910F91089549
:1034D000CF93DF93EB016091C5037091C603809198
:1034E000C7039091C8030E94B02985E0FE01A9ECB2
:1034F000B3E001900D928A95E1F78091D50388237E
:1035000039F060E08EEC93E00E9459121092D503DE
:1035100086ED93E0DF91CF910C9480140C94931A74
:1035200082E30C94E81B1092B90088E48093B80001
:103530000895EF92FF920F931F93CF93DF93182F6D
:10354000EB011092BC0084EA8093BC000E945C29CD
:103550007C018091BC0087FF27C08091B900887FE3
:10356000883029F08091B900887F8031D9F5109397
:10357000BB0084E88093BC000E945C298C01809190
:10358000BC0087FF24C02091B900287F90E080E034
:103590002831B1F081E090E0203411F490E080E037
:1035A0009195819591090CC0CF3FDC0791F20E9463
:1035B0005C298E199F098C179D0758F28EEF9FEF9B
:1035C000DF91CF911F910F91FF90EF900895CF3F22
:1035D000DC07A9F20E945C29801B910B8C179D07C8
:1035E00070F2ECCF8FEF9FEFEBCF0F931F93CF9342
:1035F000DF93EB018093BB0084E88093BC000E94C2
:103600005C298C018091BC0087FF11C02091B9001A
:10361000287F81E090E0283211F490E080E09195DD
:1036200081959109DF91CF911F910F910895CF3F1F
:10363000DC0741F30E945C29801B910B8C179D07CE
:1036400008F38EEF9FEFEECF0F931F93CF93DF938F
:10365000EC0184EC8093BC000E945C298C01809179
:10366000BC0087FF08C08091BB0090E0DF91CF9144
:103670001F910F910895CF3FDC0789F30E945C29C9
:10368000801B910B8C179D0750F38EEF9FEFEECFB1
:103690000F931F93CF93DF93EC0184E88093BC00DA
:1036A0000E945C298C018091BC0087FF08C080913A
:1036B000BB0090E0DF91CF911F910F910895CF3F14
:1036C000DC0789F30E945C29801B910B8C179D07F6
:1036D00050F38EEF9FEFEECFCF92DF92EF92FF92FB
:1036E0000F931F93CF93DF93C62F6A017901B8011F
:1036F0000E94991A97FD0CC0B8018C2F0E94F51AF0
:10370000E601EC0CFD1CCE15DF0511F097FF0CC097
:1037100024E92093BC00DF91CF911F910F91FF907E
:10372000EF90DF90CF900895B80189910E94F51A2B
:10373000EACFCF92DF92EF92FF920F931F93CF9336
:10374000DF93F82EE62EEA016901B8010E94991A6A
:1037500097FD15C0B8018E2D0E94F51A97FD0FC078
:10376000B8018F2D81600E94991AF12CE12C21E083
:10377000C21AD108EC14FD0400F597FF11C024E92A
:103780002093BC001816190614F490E080E0DF9135
:10379000CF911F910F91FF90EF90DF90CF90089500
:1037A000C8010E94241B97FD04C0FE01EE0DFF1D01
:1037B00080832FEFE21AF20ADDCF97FDE0CFC80138
:1037C0000E94481B97FDDBCFCC0DDD1D8883D7CF32
:1037D0008093BA0085EC8093BC0008951F921FB6B9
:1037E0001F9211248F939F93EF93FF938091B900C1
:1037F000887F8038C1F038F4882309F448C08036C7
:1038000079F081E022C0883A11F0883BD1F7E0914D
:103810008802F0E0EB53FC4F80818093BB0031C005
:1038200010928702EECF80918702811122C0809191
:10383000BB0080938802809188028E31C0F0109284
:10384000880280E091E0909387029091BC0082957D
:10385000880F880F807C892B85688093BC00FF913E
:10386000EF919F918F911F901FBE1F90189581E03F
:10387000E9CFE0918802F0E08091BB00EB53FC4F70
:103880008083809188028F5F80938802BACF1092E4
:10389000BC00B7CF90938E0280938D020895E09183
:1038A0008D02F0918E02309721F00190F081E02D91
:1038B000099480E00895E0918D02F0918E02309796
:1038C00099F020913601222359F02091EB0327FF34
:1038D00007C0DC012C9111962C93119725E02C93B5
:1038E0000280F381E02D0994089520918B0230919C
:1038F0008C022817390771F090938C0280938B0209
:10390000E0918D02F0918E02309721F00680F781D0
:10391000E02D099408952091890230918A02281798
:10392000390771F090938A0280938902E0918D02A9
:10393000F0918E02309721F00084F185E02D0994FA
:1039400008950E9468296093A2027093A302809355
:10395000A4029093A50260939E0270939F028093AD
:10396000A0029093A10208950E9468296093A20288
:103970007093A3028093A4029093A50260939A028D
:1039800070939B0280939C0290939D02089585B74B
:10399000806885BF85B7806885BF089508950895BC
:1039A0000C94CF1C0E94C71C8BE697E20E94152A3C
:1039B0000E94CE1C0C94FC030C94000B08950895F7
:1039C0000E9453290E94A7290E943C090E940C15BD
:1039D0000E94302A0E9419120E9413140C94D01CC9
:1039E000AF92BF92CF92DF92EF92FF920F931F930D
:1039F000CF93DF93CDB7DEB72A970FB6F894DEBF2B
:103A00000FBECDBF0E94DE1C0E94DF1C0E942B0A4D
:103A100081110E94A11C80E9A82E82E0B82E10E03E
:103A200000E0C02E802F0E941509E82EF501F190CC
:103A30005F01F81609F453C080913E0381FD0E9496
:103A40001B098F2D8E25D12CFF24F394982F9F21B5
:103A500009F440C00E94DC1C882399F0DE82CF82EA
:103A6000EF2081E009F480E088870E945C29816072
:103A7000782F9A8789874E815F8168858A850E9421
:103A8000971DF801E057FD4F8081F826F0820E94D3
:103A90008E120E942C1481110E94B41C0E944F1C93
:103AA00090918F02891791F10E944F1C80938F0291
:103AB0002A960FB6F894DEBF0FBECDBFDF91CF912F
:103AC0001F910F91FF90EF90DF90CF90BF90AF903C
:103AD0000C941507D394FF0CF8E0DF12B7CF0F5FFB
:103AE0001F4F0A30110509F09CCF8FEF89838A831D
:103AF0001B820E945C298160782F9D838C83498181
:103B00005A816B818D810E94971DC1CF2A960FB675
:103B1000F894DEBF0FBECDBFDF91CF911F910F9103
:103B2000FF90EF90DF90CF90BF90AF900895DF921D
:103B3000EF92FF920F931F93CF93DF93CDB7DEB732
:103B40002B970FB6F894DEBF0FBECDBF7A878B8759
:103B5000F42E052F162FE72ED82E61110E94DC2699
:103B60001E821D827E2DEC82DD824F2D502F612F13
:103B70008D2D9E812B960FB6F894DEBF0FBECDBF64
:103B8000DF91CF911F910F91FF90EF90DF900C94F8
:103B9000B423FC01808191810C946926CF93C82FB6
:103BA000882309F483C08238C1F40E944F1C81FD30
:103BB0007DC089E30E9497260E9408272FEF81EE9F
:103BC00094E0215080409040E1F700C0000089E37C
:103BD0000E949E26CF910C9408278338A1F40E945E
:103BE0004F1C80FD63C083E50E9497260E94082732
:103BF0002FEF81EE94E0215080409040E1F700C02B
:103C0000000083E5E5CF8438A1F40E944F1C82FDBB
:103C10004DC087E40E9497260E9408272FEF81EE6F
:103C200094E0215080409040E1F700C0000087E41C
:103C3000CFCF8CEF8C0F813A90F46C2F80912A01BA
:103C400090912B010E943228882329F08C2F0E940A
:103C50009E260E9408278C2F0E949726BBCF80E2C9
:103C60008C0F883048F4C77081E001C0880FCA9576
:103C7000EAF70E94BF26AECFEBE5EC0FE33040F44D
:103C8000F0E0E752FE4F808190E0CF910C94751CDC
:103C9000C85AC73158F4EC2FF0E0EE0FFF1FE5557E
:103CA000FE4F80819181CF910C948B1CCF91089510
:103CB000882309F44BC0823871F40E944F1C81FFA5
:103CC00045C089E30E9497260E94082789E30E9445
:103CD0009E260C940827833859F40E944F1C80FFBD
:103CE00035C083E50E9497260E94082783E5EFCF21
:103CF000843859F40E944F1C82FF28C087E40E9438
:103D000097260E94082787E4E2CF9CEF980F913A0C
:103D1000F0F290E2980F983050F4877091E001C073
:103D2000990F8A95EAF7892F0E94C526D2CF9BE585
:103D3000980F933020F490E080E00C94751C885A22
:103D4000873120F490E080E00C948B1C08951F9341
:103D5000CF93DF93182FEB010E94CE1D209731F4F3
:103D6000812FDF91CF911F910C94581E8FE99FE016
:103D70000197F1F700C000002197F0CF70E060E0FC
:103D8000893311F460E570E00C94A71E882321F0BC
:103D90000E94BF260C9408270895882321F00E94D2
:103DA000C5260C9408270895BF92CF92DF92EF9218
:103DB000FF920F931F93CF93DF936C01D62FC72FE2
:103DC000FC011281058102950F700E94B526E82E34
:103DD0008823A1F0E12E112389F08C2F807F80347D
:103DE00029F080E28D0FE12C883040F082E00E94C3
:103DF00053270E94B52691E0E82EE926BC2EB29406
:103E00009FE0B922EB2DF0E0E25CFC4C0C94073211
:103E10000C2F0F70C07F11F00295007F1123A9F0C5
:103E2000002359F080E28D0F883010F0D11109C0C5
:103E3000802F0E94BF260E9408278D2F0E94CE1D32
:103E400014C0802F0E94CF26F6CF8D2F0E94581EBF
:103E5000002359F080E28D0F883010F0D1112CC072
:103E6000802F0E94C5260E9408272B2D2850330B37
:103E70002430310520F40E944F1C0E941507EE20CB
:103E800009F493C10E94B12680FD8FC1F601128210
:103E90000E94AB260E943625C6010E94F6200E9491
:103EA000AB26DF91CF911F910F91FF90EF90DF90A4
:103EB000CF90BF900C945725802F0E94D526D3CF4A
:103EC000FC2FFF70FF2EC07FC03219F0F29480EFFC
:103ED000F822DD2369F0D13049F1112391F100235B
:103EE00051F1F601858180FFA8CF8F70858323C0B3
:103EF000112381F0011106C00E94EF268F290E9434
:103F0000C61EB3CF0130C1F70E94EF268F290E9451
:103F1000F526ABCF011106C00E94FE268F2D0E9410
:103F2000CD1EA3CF013009F4A0CFF6CF112329F085
:103F3000063008F09ACF8F2DE2CF053008F095CFEC
:103F4000EDCF002359F3D93349F4FFEF27EE33E0E7
:103F5000F15020403040E1F700C000008D2F0E945A
:103F6000581E83CF8C2F86958695837069F081309B
:103F700009F07BCF8D2F9C2F9370111102C090E020
:103F800080E00E948B1C71CF8D2F9C2F937011119C
:103F900002C090E080E00E94751C67CF8C2F837078
:103FA00009F041C0111161CF4D2F429546954770E0
:103FB000440F440F0D2F0F7010E030E020E0042E6E
:103FC00004C0000F111F221F331F0A94D2F760E0B4
:103FD00070E0CB01D4FF0FC06FE070E080E090E0B4
:103FE00004C0660F771F881F991F4A95D2F7609506
:103FF000709580959095C695C695C370602B712B72
:10400000822B932BC23049F058F4C13019F00E9432
:10401000EA242BCF0E94D82428CF0E94FC2425CF4D
:104020000E94D62422CF8695112311F08C2F817007
:10403000882309F41ACF4D2F429546954770440FB7
:10404000440F0D2F0F7010E030E020E0042E04C06C
:10405000000F111F221F331F0A94D2F760E070E097
:10406000CB01D4FF0FC06FE070E080E090E004C0AF
:10407000660F771F881F991F4A95D2F76095709534
:1040800080959095C695C695C370602B712B822B39
:10409000932BC23049F058F4C13019F00E94AD257D
:1040A000E4CE0E949B25E1CE0E94BF25DECE0E9479
:1040B0001025DBCECF70112329F08C2F0E943625DE
:1040C0008D2F1DCF8D2F0E94CD1E8C2F0E94572526
:1040D000CCCED23F89F160F4D03FC9F0D13F29F175
:1040E000112309F442C00111A8CE8C2F8F7121C079
:1040F000D33F39F1D43FA1F7112369F1CF718C2F50
:104100000E94362563E08C2F0E943E27AECE1123FD
:1041100041F0053008F0A9CE8C2F8F710E947A25CE
:10412000A4CE063008F0A1CEF7CF8C2F8F711123CB
:1041300069F20E94362599CE8C2F8F711123C9F315
:10414000C5CF112329F08C2F8F710E9421258DCE90
:104150000E941C258ACE81E00E945327023008F479
:1041600084CE82E00E94532780CE002359F0D933B9
:1041700009F0F4CE8FEF97EEE3E081509040E040FD
:10418000E1F7EACE8C2F8F71A1CF4C2F4F706D2F9E
:10419000C6010E941D070E944E2467CE4C2F4F700F
:1041A0006D2FC6010E94200760CEDF91CF911F9135
:1041B0000F91FF90EF90DF90CF90BF9008950F93F5
:1041C0001F93CF93DF93EC01688179818A810E94EC
:1041D00073268C010E94D1250E94D524B801CE01FE
:1041E000DF91CF911F910F910C94D41ECF93DF9349
:1041F000EC018B819C81892B29F08881998189230D
:104200008F3F59F4DF91CF910895CE010E94DF20B6
:10421000CE01DF91CF910C941B05CE010E94A80521
:104220008111F3CF0E94B526882361F38A81882308
:1042300049F382E0DF91CF910C945327882321F03A
:104240000E94CF260C9408270895882321F00E940D
:10425000D5260C940827089590E080E00E94751CF4
:1042600090E080E00E948B1C0E94DC260E94EC26DD
:104270000C9408270E94A5260C942C210E94CC2681
:104280000C943A21E92FE295EF70E250EE3070F491
:10429000F0E0E25BFC4C0C940732803F19F020F414
:1042A000883E20F481E00895843FE1F380E00895A2
:1042B000883EC0F3813FD1F7F5CF93FB882780F983
:1042C00008950E9469260C944221CF93DF9300D079
:1042D00000D00F92CDB7DEB70F900F900F900F90D8
:1042E0000F90DF91CF910895CF93DF9300D000D04E
:1042F00000D0CDB7DEB726960FB6F894DEBF0FBE5E
:10430000CDBFDF91CF9108951F93CF93DF93C091DD
:10431000A70216E08091A8028C1304C0DF91CF9110
:104320001F910895D0E01C9FF0011D9FF00D1124F6
:10433000E755FD4F40815181628173818481958170
:104340000E9474212196C770E5CF4091D902509107
:10435000DA026091DB027091DC028091DD029091C3
:10436000DE020C9474211F93CF93DF938091DE02C1
:10437000807FA9F48091DB02882389F08091A702D5
:10438000C091A8026091D9027091DA02A091DC027A
:10439000B091DD02D62FD72316E0C81304C0DF91F9
:1043A000CF911F91089590E0109711F0DF3F19F41D
:1043B00001968770F2CF189F9001199F300D11243C
:1043C000F901E755FD4F41814713F2CF4081461374
:1043D000EFCF42814111ECCF438154814A1B5B0BEB
:1043E000483C510528F78091DE028F7080618093F0
:1043F000DE02F901E255FD4F80818F70806180837C
:1044000089ED92E00E94F620DF91CF911F910C94EC
:104410008421AF92BF92CF92DF92EF92FF920F93DF
:104420001F93CF93DF93CDB7DEB761970FB6F894A4
:10443000DEBF0FBECDBF8C0185E0F801DE011D9609
:1044400001900D928A95E1F7F80140815181E28057
:1044500089EDC82E82E0D82E6091DC027091DD02D9
:104460006115710509F461C19091D9022091DA02B8
:10447000892F82238F3F09F458C1A380B480F09024
:10448000DB02F501E61BF70BFF2009F4FCC080916D
:10449000DE02382F307FE83CF10508F0B2C0311160
:1044A00079C0FE2C251323C0941321C0E1101FC036
:1044B0008F7080618093DE020E94A521C6010E9458
:1044C000F6208091DE02F80185838F2D61960FB66C
:1044D000F894DEBF0FBECDBFDF91CF911F910F913A
:1044E000FF90EF90DF90CF90BF90AF900895AB28F2
:1044F00029F0842F85238F3F09F033C180E0F82F06
:10450000F170DF2E80FF3CC08091A7022091A802AD
:1045100036E0821315C04D875E878D859E850E948B
:104520006926292F22952F702230F0F0243018F5BB
:104530009F70F1F0F8019581907FD1F4D12C1EC0CD
:1045400090E0389FF001399FF00D1124E755FD4FA1
:104550006181651306C06081641303C062816E11BE
:104560000FC001968770D5CF9F7011F0882331F36B
:10457000805E883018F3C8010E94F620FD2CA5CF7C
:10458000EE2009F4A2CF8091DE0281608093DE02EA
:10459000F12C9BCF251306C0941304C0F801EE2024
:1045A00009F48DC04D875E878D859E850E946121AF
:1045B000882319F1EE2009F18091DE02803270F03B
:1045C0002091D9023091DA0238872F831986BB8671
:1045D000AA868C87CE0107960E94F62086E0F80115
:1045E000A9EDB2E001900D928A95E1F70E94B32106
:1045F0000E94A521FF24F39468CFC8010E94F620F1
:10460000F9CF311113C07A2DB98AA88A6E2D898904
:104610000E94652189ED92E00E94F62086E0F60175
:1046200011928A95E9F70E94A521B2CF25130FC0F8
:1046300094130DC0E1100BC0F8018583C8010E94DE
:10464000F62086E0F60111928A95E9F73ECF4D8774
:104650005E878D859E850E946121882371F2EE2000
:1046600061F28091DE02803208F4B8CF2091D90245
:104670003091DA023A8329831B82BD82AC828E8319
:10468000CE010196A9CFE83CF10508F041C0FE2C0F
:10469000EE2009F4B2CF25132AC0941328C08091CC
:1046A000DE0280FD1BC0982F907FC1F0F80185834A
:1046B000903F31F0982F907F905F8F70892B85838A
:1046C000C8010E94F62086E0F801A9EDB2E0019051
:1046D0000D928A95E1F70E94A521F7CE86E0F801B8
:1046E000A9EDB2E001900D928A95E1F7EECE4D87EB
:1046F0005E878D859E850E94612181116FCF80919B
:10470000DE0281608093DE02C8010E94F620DDCEC9
:104710007A2DB98AA88A6E2D89890E94652186E042
:10472000F60111928A95E9F7D6CFEE2009F465CF0C
:104730004D875E878D859E850E946121F82E882396
:1047400009F45BCF86E0F801A9EDB2E001900D928B
:104750008A95E1F789ED92E00E94C91D0E94B3217C
:10476000BACF81E08E25CBCE1F93CF93DF93CDB709
:10477000DEB72C970FB6F894DEBF0FBECDBF4F83C8
:10478000588769877A878B879C87CE0107960E9416
:104790000922882369F08A859B85892B39F04F810E
:1047A0005885842F85238F3F09F071C016E05FC0C4
:1047B00086E0FE013796DE01119601900D928A95F2
:1047C000E1F78A859B85892B89F38F8198858923D9
:1047D0008F3F61F32091A80230E0C90101968770F4
:1047E00099274091A7024817190671F40E943E21AB
:1047F0001092A8021092A70286E0E9EDF2E0DF0134
:104800001D928A95E9F7D2CF96E0929FD001939FAF
:10481000B00D1124A755BD4FFE01319601900D92A8
:104820009A95E1F78093A8020E948421BFCF819FCF
:10483000C001112487559D4F0E9409228823E9F069
:10484000E091A7021E9FF0011124E755FD4F408122
:10485000518162817381848195810E94742180914C
:10486000A70290E00196877099278093A702809114
:10487000A7029091A8028913DACF2C960FB6F8946C
:10488000DEBF0FBECDBFDF91CF911F910895698527
:104890007A858B859C850E94742188CFEF92FF9248
:1048A0000F931F93CF93DF938C01892B81F0F12C11
:1048B000EE24E394E8012196F8018491843770F4A2
:1048C000843008F05FC08130B1F08230A1F1DF9117
:1048D000CF911F910F91FF90EF900895853709F4C4
:1048E0004CC008F43DC09CE7980F903780F78F7755
:1048F0000E94581E49C00E5F1F4FFE01849190E236
:10490000980F983060F48770FE2D01C0FF0F8A95D4
:10491000EAF78F2F0E94DF260E94082702C00E941C
:10492000CE1D8F2D815030F2EFE9FFE03197F1F786
:1049300000C00000F7CF0E5F1F4FFE01849190E290
:10494000980F983050F48770FE2D01C0FF0F8A95A4
:10495000EAF78F2F0E94E526DFCF0E94581EE1CF95
:104960000E5F1F4FFE01C491C150D8F28FE99FE046
:104970000197F1F700C00000F7CF0E5F1F4FFE0157
:10498000F490CFCF0E94CE1D8E01CBCF08950C9412
:10499000C6240E94C7246093150370931603809366
:1049A0001703909318030C942C2108950C94C92498
:1049B0000F931F9300911503109116032091170375
:1049C00030911803602B712B822B932B1F910F9129
:1049D0000C94C9240F931F93009115031091160393
:1049E00020911703309118036023712382239323AE
:1049F0001F910F910C94C9240F931F9300911503DD
:104A00001091160320911703309118036027712726
:104A1000822793271F910F910C94C9240C940604AC
:104A20000E940E2560931103709312038093130369
:104A3000909314030C942C2160E070E0CB010C9453
:104A400010250F931F9341E050E060E070E08A0171
:104A50009B0104C0000F111F221F331F8A95D2F73C
:104A6000C901B8011F910F910C9410250F931F934A
:104A700041E050E060E070E004C0440F551F661F45
:104A8000771F8A95D2F78091110390911203A0911C
:104A90001303B09114038A019B01082B192B2A2BB5
:104AA0003B2BC901B8011F910F910C9410250F9356
:104AB0001F9341E050E060E070E004C0440F551FD8
:104AC000661F771F8A95D2F7CB01BA016095709562
:104AD000809590950091110310911203209113037A
:104AE0003091140360237123822393231F910F912C
:104AF0000C9410250F931F9341E050E060E070E0AC
:104B000004C0440F551F661F771F8A95D2F7809106
:104B1000110390911203A0911303B09114038A0121
:104B20009B01082719272A273B27C901B8011F9194
:104B30000F910C9410250F931F9300911103109166
:104B400012032091130330911403602B712B822BDD
:104B5000932B1F910F910C9410250F931F9300918D
:104B60001103109112032091130330911403602359
:104B70007123822393231F910F910C9410250F937F
:104B80001F93009111031091120320911303309190
:104B9000140360277127822793271F910F910C948C
:104BA00010250895990F990F990F890F982F9770D5
:104BB00041E001C0440F9A95EAF78695869586955F
:104BC00095E0899FF0011124E152FD4F30E020E093
:104BD00070E05191DF011197CB01022E02C0969532
:104BE00087950A94E2F7817081958527842385272C
:104BF0008C932F5F3F4F2530310559F70895990F5A
:104C0000990F990F890F982F97708695869586959D
:104C100025E0829FF0011124E152FD4F50E040E079
:104C200080E0219130E0092E02C0369527950A9444
:104C3000E2F721703327042E01C0220F0A94EAF70D
:104C4000822B4F5F5F4F4530510559F70895BF9252
:104C5000CF92DF92EF92FF920F931F93CF93DF9348
:104C60008C01C0901103D0901203E0901303F090D8
:104C700014038091150390911603A0911703B0912E
:104C80001803C82AD92AEA2AFB2ACFE1D0E0BC2E91
:104C9000D701C6010C2E04C0B695A79597958795A8
:104CA0000A94D2F780FD0EC0219788F7B12C8B2D86
:104CB000DF91CF911F910F91FF90EF90DF90CF90F8
:104CC000BF900895B8018C2F0E942907019761F3C6
:104CD000EECFCF93DF93EC010E942726BE01DF9138
:104CE000CF910C9429071F93CF93DF93EB01909101
:104CF000A602992331F0CB01DF91CF911F910C9443
:104D00006926882379F0CB010E942726182F682F67
:104D1000CE010E94D225BE01812FDF91CF911F913C
:104D20000C942907CB010E94FF25182FF4CF682F80
:104D300080912A0190912B010C94B228682F8091C8
:104D40002A0190912B010C94BD2880912A01909109
:104D50002B010C94C828809119038595859585951C
:104D600008958091190387700895909119039770A1
:104D700081E009F480E0089580913D0308959091C9
:104D80003D03892B80933D030895809590913D03C9
:104D9000982390933D03089510923D0308959091B8
:104DA0003C03892B80933C030895809590913C03AC
:104DB000982390933C03089510923C03089590919A
:104DC0003B03892B80933B030895809590913B038F
:104DD000982390933B03089510923B03089580918C
:104DE0001A03089508950C94F22690911A039817C7
:104DF00021F080931A030C94F326089580911A03EE
:104E0000882329F010921A0380E00C94F326089569
:104E1000E0912A01F0912B0180913D038083E09184
:104E20002A01F0912B01808190913C03892B808392
:104E3000E0912A01F0912B01808190913B03892B15
:104E4000808390911A03992381F0E0912A01F091D7
:104E50002B018081892B808380912A0190912B01E5
:104E60000E941E2881110E94FE2680912A019091A5
:104E70002B010C945B1C08950C943B2798E0899FB0
:104E800090011124622B609319030E9436258091B2
:104E900019038595859585950C943C2710921903E7
:104EA00080E00C943C27909119038095892380938E
:104EB0001903282F277071F4282F082E000C330BAC
:104EC0009217130639F08595859585950E9457258B
:104ED0000C944E27089580E008956FEF7FEF90E0E7
:104EE00080E00C94E03290E080E00E94BC3221E04F
:104EF0008B3E9E4F09F020E0822F089582E090E0E3
:104F00000C94AE3283E090E00C94AE32CF9384E008
:104F100090E00E94AE32C82F81E290E00E94AE3253
:104F2000982F8C2FCF910895CF93C92F682F84E0AD
:104F300090E00E94C2326C2F81E290E0CF910C94FD
:104F4000C232AB01BC018FE090E00C94D432AB01D3
:104F5000BC0183E190E00C94D43260E070E0CB01BE
:104F60000C94A72760E070E0CB010E94A1270C946D
:104F7000AD276BEE7EEF90E080E00E94E03260E0D3
:104F800082E090E00E94C23260E083E090E00E9404
:104F9000C23210921503109216031092170310924A
:104FA000180360E084E090E00E94C23260E081E299
:104FB00090E00E94C23260E085E090E00E94C23240
:104FC00060E086E090E00E94C2326FEF87E090E000
:104FD0000E94C23240E050E0BA0188E090E00E94B6
:104FE000D43260E08DE090E00E94C23240E050E0B8
:104FF000BA0188E190E00E94D43260E087E190E05D
:105000000E94C23240E050E0BA018CE190E00E9480
:10501000D43260E080E290E00E94C23240E050E092
:10502000BA0188E190E00E94D4320C94B2270C942B
:10503000B927682F8EE090E00C94C232FC013296C2
:1050400080913601882321F08091EB039EE187FF58
:1050500096E080E0915008F4089521912223D1F345
:105060008F5FF8CF662301F1209136012223F1F002
:105070002091EB0327FF1AC0462F4695469546958B
:105080004E3190F4677021E030E002C0220F331FF0
:105090006A95E2F7840F911DFC01828190E028233C
:1050A000392381E0232B69F480E00895FC013296D6
:1050B00008962191261721F0E817F907D1F7F4CFC8
:1050C00081E008959C01FC0132969FEF80E04191C0
:1050D000461751F09F3F19F4411101C0982F8F5F7F
:1050E0008630A9F79F3F09F40895290F311D97FDD8
:1050F0003A95F90162830895FC0132960896219150
:10510000261303C0DF0111971C92E817F907B9F7BE
:105110000895E62FE695E695E695EE3168F4E80FFA
:10512000F92FF11D677021E030E001C0220F6A9570
:10513000EAF78281822B82830895E62FE695E69531
:10514000E695EE3170F4E80FF92FF11D677021E05C
:1051500030E001C0220F6A95EAF72095828128236A
:105160002283089520913601222329F02091EB0318
:1051700027FD0C9489280C94622820913601222363
:1051800029F02091EB0327FD0C949D280C947C289A
:10519000FC01329680913601882351F08091EB0317
:1051A00087FF06C08EE1DF011D928A95E9F7089519
:1051B00086E0F9CF089508950C94DB288091F103DF
:1051C000843049F10E94DC2880E00E94150710928B
:1051D0003F0388E190E020E40FB6F894A89580930F
:1051E00060000FBE2093600083B7817F846083BF1F
:1051F00083B7816083BF7894889583B78E7F83BFA0
:105200000FB6F894A8958091600088618093600043
:10521000109260000FBE08950895CF930E94DA287F
:105220000E942B0A0E940C29C0E08C2F0E941509B5
:10523000811105C0CF5FCA30C1F7CF91089581E0D9
:10524000FCCF08950C9421290E943E210E944F1CFE
:105250000E9415070C9422291F921FB61F92112439
:105260008F939F93AF93BF9380913F03811113C09E
:105270008091E3039091E403A091E503B091E603EC
:105280004196A11DB11D8093E3039093E403A09385
:10529000E503B093E603BF91AF919F918F911F906B
:1052A0001FBE1F90189582E084BD93E095BD9AEFD4
:1052B00097BD80936E0008952FB7F8948091E30313
:1052C0009091E403A091E503B091E6032FBF089508
:1052D0002FB7F8946091E3037091E4038091E503A4
:1052E0009091E6032FBF08959C014FB7F8948091E9
:1052F000E3039091E403A091E503B091E6034FBF6F
:10530000821B930B089578941F921FB61F9211244D
:105310008F939F93AF93BF938091E3039091E403A6
:10532000A091E503B091E6030196A11DB11D809304
:10533000E3039093E403A093E503B093E603BF91E6
:10534000AF919F918F911F901FBE1F901895109243
:10535000E7031092E8031092E9031092EA0308951C
:10536000CF92DF92EF92FF926B017C010E94000BC3
:1053700081110EC00E946829C61AD70AE80AF90AE4
:10538000C092E703D092E803E092E903F092EA03C7
:10539000FF90EF90DF90CF9008950F931F930E949E
:1053A000000B882321F01F910F910C9468290E9413
:1053B00068290091E7031091E8032091E9033091F7
:1053C000EA03600F711F821F931F1F910F910895B1
:1053D0000E94000B81110C945C290E94CD29CB0105
:1053E000089581E08093E00080E28093D8001092DD
:1053F000C9008FE19EE40197F1F700C0000087E04B
:1054000090EBDC018093FA039093FB03A093FC03E1
:10541000B093FD0388E19CE00FB6F894A8958093C3
:1054200060000FBE90936000FFCF9093ED018093DA
:10543000EC0108950C94F9140E942B0A8FE39CE967
:105440000197F1F700C000000E942B0A80E00E9443
:10545000150980FF04C00E941A2A0C94F1290895AE
:105460000E947327811102C00E9417280E947E2784
:1054700080933E030E9486279093EC038093EB0376
:105480000E948227682F70E090E080E00E94D6247E
:105490006091110370911203809113039091140392
:1054A0000C940E258091600308950895CF93DF93A7
:1054B00000D00F92CDB7DEB79091F103943011F583
:1054C00089837B836A839093E9008FEF9091E80052
:1054D000815095FD06C095ED9A95F1F70000811178
:1054E000F5CF8091E80085FF0DC050E040E063E01B
:1054F00070E0CE0101960E94C32C8091E8008E7767
:105500008093E8000F900F900F90DF91CF91089556
:10551000BC0184E00C94562ABC0183E00C94562A0A
:10552000CF93DF93EC01809136018823B1F1809114
:10553000EB0387FF32C060E284E08093E9008FEFE5
:105540009091E800815095FD06C095ED9A95F1F790
:1055500000008111F5CF8091E80085FF1BC080918C
:10556000360170E050E040E0811104C050E040E0BE
:1055700068E070E0CE010E94C32C8091E8008E7735
:105580008093E80080E2FE01A0E4B3E001900D9278
:105590008A95E1F7DF91CF91089568E081E0CDCF62
:1055A000CF93FC01603221F58091F103843001F545
:1055B000C091E900CF702091EC00922F917020FDF6
:1055C00090E8C92B82E08093E9008091E80080FF99
:1055D0000CC050E040E060E270E0CF010E94C32CBC
:1055E0008091E8008E778093E800CF70C093E90047
:1055F000CF9108958091F003811109C00E94A22EDD
:105600000E94FF2E8091E20084608093E200089562
:105610001092F003089508950895089542E061EC12
:1056200081E00E941E2E42E261EC84E00E941E2E68
:1056300042E261EC82E00E941E2E42E260EC83E0D6
:105640000C941E2E8091F303833009F461C030F472
:105650008130D1F1823009F49DC008958A3009F477
:1056600089C08B3009F46FC0893009F050C0809137
:10567000F203813209F04BC08091F6039091F70359
:10568000009719F0029709F042C08091E800877FE7
:105690008093E8008091E80082FF35C09091F3008C
:1056A0008091F200029729F48091F1008B7F813084
:1056B00021F48091F100809360038091E8008B7762
:1056C0008093E8000C94522E8091F203813AF9F411
:1056D0008091E800877F8093E8008091F6039091A5
:1056E000F703892B61F460E280E493E070E00E94AC
:1056F000612D8091E8008B778093E800089560E049
:1057000090E080E0F3CF8091F1038111C3CF089541
:105710008091F203813AD9F78091F6039091F703D3
:10572000892BA9F78091E800877F8093E80080911A
:10573000E80080FFFCCF809136018093F1008091DA
:10574000E8008E77BDCF8091F203813201F780911E
:10575000F6039091F703892BD1F68091E800877FBB
:105760008093E8000E94522E8091F40380933601CA
:105770000C943E218091F203813249F68091E80039
:10578000877F8093E8000E94522E8091F5038093DA
:10579000610308958091F203813A09F0B8CF8091B6
:1057A000E800877F8093E8008091E80080FFFCCFCD
:1057B00080916103C2CFCDB7DEB7A0970FB6F89442
:1057C000DEBF0FBECDBF84B7877F84BF0FB6F8940E
:1057D000A8958091600088618093600010926000BD
:1057E0000FBE80E890E00FB6F8948093610090932C
:1057F00061000FBE0E94D21C0E94A22E0E94FF2EAA
:105800008091E20084608093E20078940E94883165
:105810000E94E01C8CE291E00E944A1C13E08091FF
:10582000F1038530C9F00E94F01C8091F1038430AF
:10583000D1F00E94DE1C0E94DF1CF1CF0E94DE2806
:105840008091EF03882341F00E940D29882321F0E5
:105850000E94AD2C0E943E218091F103853071F3AE
:105860000E942429E0CF1093E9008091E80082FF94
:10587000E0CF8091E80090E085FF09C050E040E073
:1058800060E270E0CE0101960E94122D91E08091BD
:10589000E8008B778093E800992359F260E2CE010B
:1058A00001960E94B115C5CF0C94562C292F332791
:1058B0002330310521F168F42130310509F443C06A
:1058C0002230310509F444C090E080E030E020E06F
:1058D00026C02132310551F122323105A9F763305A
:1058E000710590F7FB01EE0FFF1FE152FE4F208183
:1058F000318164527E4FFB01808190E010C0992776
:105900008130910581F0009729F00297E9F6E6EFE2
:10591000F5E002C0E6E2F6E0849190E09F01FA0132
:10592000318320830895E8E0F6E0F6CF6330710517
:1059300058F6660F771FFB01EB51FE4F2081318136
:1059400089E090E0ECCF82E190E025E836E0E7CF17
:105950008BE590E02AE236E0E2CF80E189BD82E18A
:1059600089BD09B400FEFDCF8091D8008F7D809362
:10597000D8008091E00082608093E0008091E00098
:1059800081FDFCCF0895AF92BF92CF92DF92FF923C
:105990000F931F93CF93DF936C01EB018A010E9459
:1059A000712EF82E811123C00115110539F0F8016F
:1059B00080819181C81BD90BC80ED91EB12CA12C96
:1059C0002097A9F08091E80085FD22C08091E80031
:1059D0008E778093E80001151105A1F0F801808110
:1059E0009181A80EB91EB182A08285E0F82E8F2D7C
:1059F000DF91CF911F910F91FF90DF90CF90BF90DB
:105A0000AF9008950E94712E8823D1F2F82EEFCF27
:105A1000F60181916F018093F1002197FFEFAF1A9A
:105A2000BF0ACECFAF92BF92CF92DF92FF920F9379
:105A30001F93CF93DF936C01EB018A010E94712EBB
:105A4000F82E811123C00115110539F0F80180816C
:105A50009181C81BD90BC80ED91EB12CA12C20973F
:105A6000A9F08091E80085FD22C08091E8008B7745
:105A70008093E80001151105A1F0F8018081918162
:105A8000A80EB91EB182A08285E0F82E8F2DDF917D
:105A9000CF911F910F91FF90DF90CF90BF90AF906B
:105AA00008950E94712E8823D1F2F82EEFCF8091B5
:105AB000F100F60181936F012197FFEFAF1ABF0A42
:105AC000CECFFC018091F8039091F90386179707D8
:105AD000A0F06115710529F49091E8009E779093EC
